:100000000C94791A0C94AA1A0C94AA1A0C94AA1A91
:100010000C94AA1A0C94AA1A0C94AA1A0C94AA1A50
:100020000C94AA1A0C94AA1A0C94AA1A0C94AA1A40
:100030000C94AA1A0C94AA1A0C94AA1A0C94AA1A30
:100040000C94AA1A0C9469A20C94AA1A0C94AA1AD9
:100050000C94AA1A0C94AA1A0C94526E0D94620A6B
:100060000C94AA1A0C94613A0C94573A0C94AA1A5C
:100070000C94AA1A0C94AA1A0C94AA1A0C94AA1AF0
:100080000C94AA1A0C94AA1A0C94AA1A0C94AA1AE0
:100090000C94AA1A0C94AA1A0C94AA1A0C94AA1AD0
:1000A0000C94AA1A0C94AA1A0C94AA1A0C94AA1AC0
:1000B0000C94AA1A0C94AA1A0C94AA1A0C94AA1AB0
:1000C0000C94AA1A0C94AA1A0C94AA1A0C94AA1AA0
:1000D0000C94AA1A0C94AA1A0C94AA1A0C94AA1A90
:1000E0000C94AA1AA58B888B8B8BA88B8E8B918BEB
:1000F000948BA08B978BB38B9A8B9D8B1E01E00109
:100100000C02FE01A20172016C014601DE01240114
:10011000F601D4016001DE00720102011801D6016E
:1001200008010A01D600EA0102020A025C01DA00B3
:10013000780194019801C40104026E010A02E201EF
:10014000BC011202084AD73B3BCE016E84BCBFFD06
:10015000C12F3D6C74319ABD56833DDA3D00C77F97
:1001600011BED9E4BB4C3E916BAAAABE0000008030
:100170003F05A84CCDB2D44EB93836A9020C50B9BF
:10018000918688083CA6AAAA2ABE000000803F00EB
:100190000C941AD30C94128C0C9491900C94118A98
:1001A0000C9439590C941D590C9488C40D948609EB
:1001B0000C9405CB0D94AC090C94948B0D94D4083D
:1001C0000C9418C50C9499600C94E0C40C94A4D2BF
:1001D0000C944EC70C94BF900C949EF00C94A6AA5D
:1001E0000C94B0C40C94D1870C949A8B0C941DCBB6
:1001F0000C94978B0C9415F10C943D440C9445EDA4
:100200000C9417CB0D94DA080C94D1A80C94B687F3
:100210000D947C090D9481090C94325B0C94C8A850
:100220000C947F5A0C94E4A80C94A08B0C94CE8769
:100230000D94DE080C9429CB0C94C1900D94AD085C
:100240000C94D7A80C944BED0D94C2080C94068C1A
:100250000C945FF00C94E2E00C94CA870C94ADC54A
:100260000C94F65C0C9449ED0C94C5A90C946DE0CB
:100270000C94A6870C94C4F20C9447ED0C94049251
:100280000C94BEC40C94D3D80C941CF30D94B808F1
:100290000C9415C50C94F16B0C94CEF20C94AA90AE
:1002A0000C9411920C94CDF00C94F4C40C94ADF019
:1002B0000C94CCC40C94B2870D94A4090C94BD90FA
:1002C0000D94D0080C9479920C948E8B0C94D9A830
:1002D0000C941BC50C94AE870D94B4080D94EB09D7
:1002E0000C94C7D20D94E7080C948B8B0C94D3F02C
:1002F0000D94B4090C946D440C9451440C94C8EBC7
:100300000C94B38B0C94D68E0C9438C50C94E0D21C
:100310000C94AA870C949CC40C9474C40C94888B81
:100320000C94BB900C946CC50D94BE090C94D65AD9
:100330000D94C8090C9423CB0C94D4870C94C9F267
:100340000D9445110D94A9080C94D25A0C940BCB22
:100350000C94855A0C94A6C50C94918B0C9402C5F0
:100360000C94D7870C94C2870C94D9F00C94C68750
:100370000C94D98E0C94A88B0D94FF090C94795A87
:100380000C94FFCA0C9424F30D94D2090C9443ED01
:100390000C9489C50C94BE870C94565E0C941292F2
:1003A0000C9459E00C94C7A10D94CC080D94E2086C
:1003B0000C94D38E0D94E4130C94A8F00D94BE0805
:1003C0000D94B0080D94F5090C94B9900C94F2F3C7
:1003D0000C94A3F00D9490090C9411440C940EEB22
:1003E0000C9411CB0C9495850C949D8B0D94C608A0
:1003F0000C94A58B0C94BA870C9428AC0D94A3088C
:100400000C94AE850D949A090D94E1090C94C7F0F3
:100410000C9455C50D94130A0D949F080C948F5A93
:100420000C94BFF20D94090A4E414E494E4954595D
:10043000494E46CDCCCC3D0AD7233C17B7D13877AF
:10044000CC2B329595E6241FB14F0A0000204100C5
:1004500000C84200401C4620BCBE4CCA1B0E5AAE0F
:10046000C59D7400407A10F35A00A0724E1809001E
:1004700010A5D4E80000E87648170000E40B540209
:100480000000CA9A3B000000E1F505000080969844
:1004900000000040420F000000A086010000001094
:1004A0002700000000E803000000006400000000D6
:1004B000000A00000000000100000000002C76D8B7
:1004C00088DC674F0823DFC1DFAE59E1B1B796E59D
:1004D000E3E453C63AE651997696E8E6C28426EB01
:1004E000898C9B62ED407C6FFCEFBC9C9F40F2BA14
:1004F000A56FA5F490055A2AF75C936B6CF9676DAC
:10050000C11BFCE0E40D47FEF520E6B500D0ED9000
:100510002E0300943577050080841E080000204ECD
:100520000A000000C80C333333330F986E12831166
:1005300041EF8D2114893BE65516CFFEE6DB18D13D
:10054000844B381BF77C1D901DA4BBE4242032840F
:10055000725E228100C9F124ECA1E53D2700000074
:10056000000000000000000000FFFFFF970592055B
:100570008B0584057605434F4D4D554E49434154F7
:10058000494F4E0044525952554E004552524F5217
:100590005300494E464F004543484F006F6B00459E
:1005A0004550524F4D204F4B0A004F66667365749D
:1005B00073204170706C696564004572723A205412
:1005C0006F6F206661722100546F6F206661722028
:1005D00066726F6D207265666572656E6365207008
:1005E0006F696E740A004D34323120696E636F7228
:1005F0007265637420706172616D657465722075D7
:10060000736167650A006469730043290A006162C7
:100610006C656420286D696E2074656D70200043E0
:100620006F6C64206578747275646573206172659F
:100630002000496E76616C69642065787472756417
:1006400065720A0020643A0020693A0020703A007E
:1006500020466C6F773A20003F4A206F7574206FF8
:10066000662072616E67652028302E303120746FED
:1006700020302E33290A004D31343520533C696E29
:100680006465783E206F7574206F662072616E67B6
:10069000652028302D31290A002F2F2000434841A2
:1006A0004D4245525F54454D504552415455524577
:1006B000004D4F54494F4E5F4D4F444553005448F1
:1006C00045524D414C5F50524F54454354494F4E53
:1006D000004155544F5245504F52545F53445F535D
:1006E00054415455530050524F4D50545F53555040
:1006F000504F525400454D455247454E43595F5067
:10070000415253455200434153455F4C4947485479
:100710005F4252494748544E45535300544F474750
:100720004C455F4C494748545300534F465457413A
:1007300052455F504F574552004255494C445F5017
:10074000455243454E54004C4556454C494E475F33
:1007500044415441005A5F50524F42450041555464
:100760004F4C4556454C005052494E545F4A4F42FB
:100770000050524F4752455353004155544F524534
:10078000504F52545F54454D5000564F4C554D45B7
:10079000545249430042494E4152595F46494C45E3
:1007A0005F5452414E534645520053455249414CC5
:1007B0005F584F4E5F584F4646004649524D57418D
:1007C00052455F4E414D453A4D61726C696E203223
:1007D0002E302E3320284769744875622920534FE4
:1007E000555243455F434F44455F55524C3A6874F8
:1007F0007470733A2F2F6769746875622E636F6D1A
:100800002F4D61726C696E4669726D776172652FEA
:100810004D61726C696E2050524F544F434F4C5F84
:1008200056455253494F4E3A312E30204D414348A0
:10083000494E455F545950453A5468652050726995
:100840006E74657220546861742041204E616D653C
:1008500020576F756C6420537461696E204558543D
:1008600052554445525F434F554E543A31205555E9
:1008700049443A63656465326132662D34316132D0
:100880002D343734382D396231322D6335356336A6
:10089000326633363766660A0054686520507269DE
:1008A0006E74657220546861742041204E616D65DC
:1008B00020576F756C6420537461696E204F4646F3
:1008C0002E004D3131332053004D313132205368E9
:1008D0007574646F776E006F6666004445425547D5
:1008E0003A0045202553000A53746174733A204638
:1008F000696C616D656E7420757365643A20002CB7
:10090000204C6F6E67657374206A6F623A200054E2
:100910006F74616C2074696D653A20002C2046610B
:10092000696C65643A20002C2046696E69736865BD
:10093000643A20005072696E74733A2000537461F7
:1009400074733A200050726F74656374656420504C
:10095000696E0A005072696E742074696D653A2080
:100960000044656C6574696F6E206661696C6564CE
:100970002C2046696C653A200046696C65206465E8
:100980006C657465643A00286E6F2066696C652931
:100990000043757272656E742066696C653A20005A
:1009A0005344207072696E74696E67206279746551
:1009B00020004E6F74205344207072696E74696E0B
:1009C000670A00456E642066696C65206C69737403
:1009D0000A00426567696E2066696C65206C697300
:1009E000740A004E6F204D6F76652E00436C69636C
:1009F0006B20746F20526573756D652E2E2E004D21
:100A000065736820706F696E742063616E6E6F74B9
:100A1000206265207265736F6C7665640A005A20E7
:100A200050726F62652050617374204265640A00E1
:100A30005A2050726F626520506173742042656461
:100A400000486F6D652058592066697273740A00FA
:100A5000486F6D6520585920466972737400536C55
:100A60006565702E2E2E0047322F47332062616459
:100A700020706172616D65746572730A00457272EF
:100A80006F722077726974696E6720746F204545B4
:100A900050524F4D210A00627573793A207061758A
:100AA00073656420666F7220696E7075740A0062E7
:100AB0007573793A2070617573656420666F722072
:100AC000757365720A00627573793A2070726F638C
:100AD000657373696E670A0053544F505045442E36
:100AE00020005072696E7465722073746F70706547
:100AF000642064756520746F206572726F72732E46
:100B00002046697820746865206572726F72206172
:100B10006E6420757365204D39393920746F2072E9
:100B20006573746172742E202854656D70657261EE
:100B3000747572652069732072657365742E205315
:100B400065742069742061667465722072657374BF
:100B5000617274696E67290A004E6F20436865638D
:100B60006B73756D2077697468206C696E65206E93
:100B7000756D6265722C204C617374204C696E65D2
:100B80003A2000636865636B73756D206D69736DE2
:100B9000617463682C204C617374204C696E653AF3
:100BA00020004C696E65204E756D62657220697318
:100BB000206E6F74204C617374204C696E65204EFA
:100BC000756D6265722B312C204C617374204C69F9
:100BD0006E653A20004D313130004D313137004DD6
:100BE00033310053442072656164206572726F7204
:100BF0000A00446F6E65207072696E74696E6720BA
:100C000066696C650A002121204B494C4C206361C8
:100C100075736564206279204B494C4C2062757471
:100C2000746F6E2F70696E0A002121204B494C4C65
:100C30002063617573656420627920746F6F206D25
:100C400075636820696E6163746976652074696D87
:100C500065202D2063757272656E7420636F6D6DF3
:100C6000616E643A2000506C656173652052657353
:100C70006574005052494E5445522048414C5445E9
:100C8000440025533A202553004B494C4C45442EF3
:100C900020005072696E7465722068616C746564BE
:100CA0002E206B696C6C28292063616C6C65642153
:100CB0000A00363726033C3D380E2E303E121A1CF1
:100CC0001808440AFF430809000124F4D43050C333
:100CD0008E20C2A24017828B7011127A910D816C06
:100CE000D90AA861E108C7586607615143061E4B3F
:100CF0005D05C145A7041A411104093D98037139E6
:100D000031034036DB0265339102D4305402802E29
:100D10001D02632CEE01752AC501B028A001102721
:100D200081018F2564012B244B01E0223401AC2189
:100D30001F018D200D01801FFC00841EED00971DFA
:100D4000DF00B81CD200E61BC600201BBC00641AE2
:100D5000B200B219A8000A19A0006A189900D117A8
:100D6000910040178B00B516840031167E00B31534
:100D700079003A157300C7146F0058146A00EE1317
:100D800066008813630025135E00C7125B006C12B7
:100D9000570015125400C111510070114F0021115C
:100DA0004B00D61049008D10470046104400021039
:100DB0004200C00F4000800F3E00420F3C00060F73
:100DC0003B00CB0E3800930E37005C0E3500270E2B
:100DD0003400F30D3200C10D3100900D3000600D74
:100DE0002E00320D2D00050D2C00D90C2B00AE0C61
:100DF0002900850C29005C0C2700350C27000E0CFF
:100E00002600E80B2400C40B2400A00B23007D0B5C
:100E100023005A0B2100390B2100180B2000F80A7F
:100E20001F00D90A1E00BB0A1E009D0A1D00800A71
:100E30001D00630A1C00470A1B002C0A1B00110A34
:100E40001A00F7091A00DD091900C4091900AB09D5
:100E50001900920917007B091800630917004C0953
:100E6000160036091600200916000A091500F508B3
:100E70001500E0081400CC081400B8081400A408F9
:100E80001400900813007D0812006B081300580826
:100E9000120046081200340811002308110012083D
:100EA000110001081100F0071000E0071000D00742
:100EB0001000C0071000B0070F00A1071000910735
:100EC0000E0083070F0074070F0065070E00570719
:100ED0000E0049070E003B070D002E070E002007ED
:100EE0000D0013070D0006070D00F9060C00ED06B6
:100EF0000D00E0060C00D4060C00C8060C00BC0671
:100F00000C00B0060C00A4060B0099060C008D0620
:100F10000B0082060B0077060B006C060B006106C7
:100F20000A0057060B004C060A0042060A00380663
:100F30000A002E060A0024060A001A060A001006F5
:100F4000090007060A00FD050900F4050900EB0584
:100F50000900E2050900D9050900D0050900C70507
:100F60000900BE050900B5050800AD050800A50586
:100F700009009C050800940508008C0508008405FC
:100F800008007C050800740508006C05070065056D
:100F900008005D050700560508004E0507004705D7
:100FA00007004005080038050700310507002A053D
:100FB0000700230507001C050600160507000F059E
:100FC00007000805060002050700FB040600F504FB
:100FD0000700EE040600E8040600E2040700DB0454
:100FE0000600D5040600CF040600C9040600C304A9
:100FF0000600BD040600B7040600B1040500AC04F9
:101000000600A6040600A00405009B040600950443
:101010000500900406008A0405008504050080048C
:1010200006007A04050075040500700405006B04D1
:10103000050066040500610405005C040500570412
:101040000500520405004D04050048040500430452
:1010500005003E0404003A04050035040500300490
:1010600004002C04050027040400230405001E04CA
:1010700004001A04040016040500110404000D0401
:101080000400090405000404040000040400FC0337
:101090000400F8030400F4030400F0030400EC036C
:1010A0000400E8030400E4030400E0030400DC039C
:1010B0000400D8030400D4030400D0030400CC03CC
:1010C0000400C8030300C503030024F404D9201B53
:1010D000C40C5C0E9804C4095F0265077101F40535
:1010E000F900FB04B30048048700C10369005803FA
:1010F000550003034500BE023A008402310053024A
:101100002A002902250004022000E4011C00C80175
:101110001900AF0117009801140084011300710138
:1011200010006101100051010E0043010D00360155
:101130000B002B010B0020010B00150109000C0115
:10114000090003010800FB000800F3000800EB00A1
:101150000700E4000600DE000600D8000600D2000A
:101160000600CC000500C7000500C2000500BD0058
:101170000400B9000400B5000400B1000400AD0093
:101180000400A9000400A5000300A20003009F00C2
:1011900004009B00030098000300950002009300E8
:1011A0000300900003008D0002008B000300880004
:1011B00002008600020084000300810002007F001C
:1011C00002007D0002007B0002007900020077002F
:1011D000010076000200740002007200010071003C
:1011E00002006F0002006D0001006C0002006A0046
:1011F000010069000200670001006600010065004F
:101200000100640002006200010061000100600052
:1012100001005F0002005D0001005C0001005B0056
:1012200001005A0001005900010058000100570058
:101230000100560001005500010054000100530058
:101240000000530001005200010051000100500055
:1012500001004F0001004E0000004E0001004D0053
:1012600001004C0001004B0000004B0001004A004F
:10127000010049000100480000004800010047004B
:101280000100460000004600010045000000450046
:10129000010044000100430000004300010042003F
:1012A0000000420001004100000041000100400038
:1012B00001003F0000003F0001003E0000003E0032
:1012C00001003D0000003D0001003C0000003C002A
:1012D00000003C0001003B0000003B0001003A0020
:1012E00000003A0001003900000039000100380018
:1012F000000038000000380001003700000037000F
:101300000100360000003600000036000100350004
:1013100000003500000035000100340000003400FA
:1013200000003400010033000000330000003300EF
:1013300001003200000032000000320001003100E4
:1013400000003100000031000100300000003000DA
:101350000000300001002F0000002F0000002F00CF
:1013600000002F0001002E0000002E0000002E00C3
:1013700001002D0000002D0000002D0000002D00B8
:1013800001002C0000002C0000002C0000002C00AC
:1013900001002B0000002B0000002B0000002B00A0
:1013A00001002A0000002A0000002A0000002A0094
:1013B0000100290000002900000029000000290088
:1013C000000029000100280000002800000028007B
:1013D000000028000000280001002700000027006E
:1013E0000000270000002700000027000100260061
:1013F0000000260000002600000026000000260055
:101400000100250000002500000025000000250047
:101410000000250000002500010024000000240039
:10142000000024000000240000002400010023002C
:101430000000230000002300000023000000230020
:101440000000230000002300010022000000220011
:101450000000220000002200000022000000220004
:1014600001002100000021000000210000002100F7
:1014700000002100000021000000210001002000E8
:1014800000002000000020000000200000002000DC
:1014900000002000000020000000200001001F00CC
:1014A00000001F0000001F0000001F0000001F00C0
:1014B00000001F0000001F0001001E0000001E00B1
:1014C00000001E0000001E0000003930000033251F
:1014D000000087190000B00F0000DB080000BD0409
:1014E0000000740200003F010000687474703A2F1D
:1014F0002F6D61726C696E66772E6F726700203295
:101500002E302E33002020506C616E6E6572427555
:101510006666657242797465733A2000204672658A
:1015200065204D656D6F72793A2000436F6D70696B
:101530006C65643A204665622032312032303230A8
:101540000A00204C61737420557064617465643ABC
:1015500020323032302D30312D3331207C20417516
:1015600074686F723A202844616E69656C20567207
:101570006F6C696A6B2C206368657779626163635D
:101580006120636F6E666967290A00322E302E3340
:101590000A004D61726C696E0020536F667477614A
:1015A00072652052657365740A0020576174636820
:1015B000646F672052657365740A002042726F770A
:1015C0006E206F75742052657365740A002045782B
:1015D0007465726E616C2052657365740A00506F99
:1015E00077657255700A006175746F25632E670008
:1015F0004732385859006572726F72207772697479
:10160000696E6720746F2066696C650A00446F6EAE
:101610006520736176696E672066696C652E0A00C5
:101620004D323900456E6473746F7073002553201A
:10163000256320256320256320256300205A3A0076
:1016400020593A00656E6473746F70732068697412
:101650003A20002062797465733B20637263200036
:1016600053657474696E67732053746F7265642078
:101670002800454550524F4D206461746173697A6A
:1016800065206572726F722E0A002073746F726526
:10169000642073657474696E67732072657472690F
:1016A00065766564202800202863616C63756C6131
:1016B00074656429210A0020213D200045455052CF
:1016C0004F4D20435243206D69736D6174636820F0
:1016D0002D202873746F726564292000496E64653B
:1016E000783A2000204D61726C696E3D563735297D
:1016F0000A00454550524F4D2076657273696F6EF2
:10170000206D69736D617463682028454550524FA0
:101710004D3D0050726F62696E6720506F696E7444
:101720000025532025692F25690050726F62696E6C
:1017300067206D65736820706F696E7420002028C3
:1017400044525952554E2900473239204175746F21
:1017500020426564204C6576656C696E67003F20A9
:10176000284C2C522C462C4229206F7574206F6611
:1017700020626F756E64732E0A003F2856296572C9
:10178000626F7365206C6576656C20696D706C6145
:10179000757369626C652028302D34292E0A004249
:1017A0006164205A2076616C75650A004E6F206274
:1017B000696C696E65617220677269640A004465CC
:1017C00076696174696F6E0025533A202573005362
:1017D00074616E6461726420446576696174696FD6
:1017E0006E3A20002052616E67653A20004D6561B7
:1017F0006E3A200046696E6973686564210A0020AC
:1018000072616E67653A2000207369676D613A20E6
:1018100000206D65616E3A20003A207A3A2000205F
:101820006F662000476F696E6720746F3A2058001A
:1018300043570A00206469723A0020616E676C6544
:101840003A005374617274207261646975733A006E
:101850004D343820506F696E740025533A2025644A
:101860002F256400506F736974696F6E696E67200D
:101870007468652070726F62652E2E2E0A003F4ECE
:10188000756D626572206F66206C65677320696E86
:10189000206D6F76656D656E74206E6F7420706C50
:1018A00061757369626C652028302D3135292E0AE7
:1018B000003F2028582C5929206F7574206F66200E
:1018C000626F756E64732E0A003F53616D706C65B4
:1018D0002073697A65206E6F7420706C617573690E
:1018E000626C652028342D3530292E0A004D34389D
:1018F000205A2D50726F6265205265706561746167
:1019000062696C69747920546573740A004C6F6164
:1019100064206D6D00556E6C6F6164206D6D0046C6
:10192000696C2E204469612E004520696E206D6D22
:10193000C2B30020022046616374002002204D6182
:1019400078002002204D696E004175746F74656DDA
:1019500070005654726176204D696E00566D696E46
:1019600000566D6178204500566D6178205A00560A
:101970006D6178205900566D6178205800206D61A6
:10198000783A2000206D696E3A20003F5A206F752A
:1019900074206F662072616E67652028003F5920B1
:1019A0006F7574206F662072616E676520282D0048
:1019B00020746F20003F58206F7574206F6620726E
:1019C000616E676520282D0050726F6265204F663A
:1019D00066736574205800656E7175657565696E0E
:1019E00067202200526573656E643A20002569798C
:1019F00020256964202569682025696D2025697383
:101A00000042656420436F6F6C696E672E2E2E0056
:101A10004265642048656174696E672E2E2E00232E
:101A2000646566696E652044454641554C545F00C7
:101A30004B6420004B6920004B702000504944202B
:101A40004175746F74756E652066696E697368653B
:101A500064212050757420746865206C6173742053
:101A60004B702C204B6920616E64204B6420636FA7
:101A70006E7374616E74732066726F6D2062656C34
:101A80006F7720696E746F20436F6E666967757239
:101A90006174696F6E2E680A005049442041757464
:101AA0006F74756E65206661696C65642120746968
:101AB0006D656F75740A000A20436C617373696306
:101AC00020504944200A00204B643A2000204B69F2
:101AD0003A2000204B703A20002054753A20002014
:101AE0004B753A200020643A200020626961733A05
:101AF0002000504944204175746F74756E652073E1
:101B0000746172740A00504944204175746F747591
:101B10006E65206661696C6564212054656D706531
:101B200072617475726520746F6F20686967680AE6
:101B300000504944204175746F74756E652066616C
:101B4000696C6564212042616420657874727564F3
:101B50006572206E756D6265720A00486561746910
:101B60006E67206661696C6564004531006265647A
:101B7000002C2073797374656D2073746F707065B9
:101B80006421204865617465725F49443A200048C9
:101B9000656174696E67204661696C656400202D1B
:101BA00020496E76616C696420657874727564652D
:101BB00072206E756D62657220210A004572723A5C
:101BC000204D415854454D50004D415854454D50BD
:101BD00020747269676765726564004572723A20A5
:101BE0004D494E54454D50004D494E54454D5020A1
:101BF000747269676765726564004D3834205820D7
:101C000059205A204500202F002042403A00204011
:101C10003A0020573A001000C90210012C0140017F
:101C2000220170011801B0010E01F00104015002FF
:101C3000FA00B002F0003003E600D003DC009004AC
:101C4000D2007005C800A006BE000008B400B009AC
:101C5000AA00D00BA000600E960060118C00001549
:101C6000820020197800C01D6E00A0226400B027F9
:101C70005A00902C500000314600E0343C001038EF
:101C80003200903A2800603C1E00A03D1400803EC7
:101C90000A00203F000070012C0190012701B001D3
:101CA0002201C0011D01F0011801100213013002D0
:101CB0000E016002090190020401C002FF0000034E
:101CC000FA004003F5008003F000D003EB0020048D
:101CD000E6007004E100E004DC004005D700C00528
:101CE000D2004006CD00D006C8008007C3003008EF
:101CF000BE00F008B900C009B400B00AAF00B00BD4
:101D0000AA00D00CA500000EA000500F9B00C01030
:101D100096005012910000148C00C0158700B01777
:101D20008200B0197D00D01B7800001E7300402097
:101D30006E0090226900F024640040275F00902923
:101D40005A00E02B5500102E500020304B0010326E
:101D50004600E033410090353C00103737007038C2
:101D60003200A0392D00B03A2800A03B2300603C8F
:101D70001E00103D1900903D1400103E0F00703EF3
:101D80000A00C03E0500003F0000403FFBFF803FCF
:101D9000F6FFC03FF1FF20746F6F206C6F6E6720FD
:101DA000657874727573696F6E2070726576656E92
:101DB0007465640A0020636F6C64206578747275C2
:101DC00073696F6E2070726576656E7465640A0063
:101DD000554E4C4F41442046494C414D454E5400D0
:101DE00046494C414D454E54204348414E474500DD
:101DF000436F6E66696775726174696F6E004D3707
:101E0000303220542564004D36303020423020548A
:101E10002564004D373032203B2564004D3730318A
:101E200020542564004D373032004D373031004D9D
:101E300036303020423000436F6E74696E75650035
:101E40005075726765206D6F726500524553554D30
:101E500045204F5054494F4E533A005052494E542A
:101E6000205041555345440020204E6F7A7A6C65CE
:101E70003A200053746F70004D3231004368616E38
:101E80006765204D6564696100526573756D6520F5
:101E90005072696E74004E6F204D65646961005424
:101EA000756E650053746F70205072696E740049CE
:101EB0006E666F2053637265656E005061726B6968
:101EC0006E672E2E2E0000005761697420666F72B7
:101ED0000066696C616D656E74206368616E67652C
:101EE00000746F20737461727400576169742066A6
:101EF0006F720066696C616D656E7420756E6C6FD3
:101F0000616400004E6F7A7A6C652068656174695F
:101F10006E6700506C6561736520776169742E2E61
:101F20002E0000507265737320627574746F6E00BA
:101F3000746F2068656174206E6F7A7A6C6500003A
:101F4000496E736572742066696C616D656E7400AC
:101F5000616E6420707265737320627574746F6E45
:101F600000746F20636F6E74696E756500576169E8
:101F70007420666F720066696C616D656E74206CAA
:101F80006F61640000507265737320427574746FE2
:101F90006E00746F20726573756D65207072696E66
:101FA0007400005761697420666F72207072696EE8
:101FB0007400746F20726573756D652E2E2E00008F
:101FC0005761697420666F720066696C616D656E39
:101FD0007420707572676500004573746570732FA7
:101FE0006D6D005A73746570732F6D6D0059737445
:101FF0006570732F6D6D005873746570732F6D6D00
:1020000000416476616E6365642053657474696E23
:10201000677300496E6974004D34323800496E6947
:102020007469616C697A6520454550524F4D005383
:10203000746570732F6D6D0050726F6265204F660E
:102040006673657473004A65726B00416363656C07
:1020500065726174696F6E0056656C6F636974793F
:102060000053657420486F6D65204F666673657414
:102070007300526573746F7265206661696C736179
:102080006665004C6F61642053657474696E677394
:102090000053746F72652053657474696E677300C2
:1020A000507265686561742041425320436F6E66CB
:1020B000005072656865617420504C4120436F6E1A
:1020C00066002053697A653A200043616E6E6F7432
:1020D000206F70656E2073756264697220005344CE
:1020E0002063617264206F6B0A006F70656E526FBF
:1020F0006F74206661696C65640A00766F6C756D3B
:10210000652E696E6974206661696C65640A0053A6
:102110004420696E6974206661696C0A004D32342E
:10212000004D32332025730046696C652073656C61
:1021300065637465640A0046696C65206F70656E3E
:1021400065643A2000454E4420535542524F555441
:10215000494E450A002220706F7300222070617280
:10216000656E743A2200535542524F5554494E45BC
:102170002043414C4C207461726765743A220074AC
:102180007279696E6720746F2063616C6C2073755F
:10219000622D67636F64652066696C65732077697B
:1021A000746820746F6F206D616E79206C65766540
:1021B0006C732E204D4158206C6576656C206973D8
:1021C0003A310A0057726974696E6720746F20662D
:1021D000696C653A2000667265736800646F696EA9
:1021E00067004E6F7720007C3C3E5E2B3D3F2F5BAF
:1021F0005D3B2C2A225C00FFFDFCFAF8F6F4F2F0BD
:10220000EEECEAE9E7E5E3E1E0DEDCDAD9D7D5D4C4
:10221000D2D0CFCDCBCAC8C7C5C3C2C0BFBDBCBA60
:10222000B9B7B6B4B3B2B0AFADACAAA9A8A6A5A4CD
:10223000A2A1A09E9D9C9A99989795949392908F15
:102240008E8D8B8A8988878684838281807F7E7D3C
:102250007B7A797877767574737271706F6E6D6C46
:102260006B6A696867666564636261605F5E5D5C36
:102270005B5A5958585756555453525150504F4E17
:102280004D4C4B4A4A4948474646454443424241E1
:10229000403F3E3E3D3C3B3B3A393838373635359A
:1022A000343332323130302F2E2E2D2C2B2B2A2945
:1022B0002928272726252524232322212120201FE2
:1022C0001E1E1D1C1C1B1B1A191918181716161573
:1022D0001514131312121111100F0F0E0E0D0D0CF9
:1022E0000C0B0A0A09090808070706060505040475
:1022F000030302020100004F6666004F6E00546542
:102300006D7065726174757265004D383400446992
:102310007361626C652053746570706572730047F9
:1023200032380A4D343820503130004D3438205086
:10233000726F62652054657374004661646520485D
:102340006569676874004732380A473239004C655E
:1023500076656C2042656400473238004175746FC1
:1023600020486F6D65005072656865617420504C3F
:102370004120426564005072656865617420504C6C
:102380004120456E64005072656865617420414269
:102390005320456E64005072656865617420414247
:1023A000532042656400436F6F6C646F776E00006A
:1023B00000484300004843000048430000484200F2
:1023C0000048420000A0400202040000A0400000BB
:1023D000A0400000004000000001000000010000DB
:1023E0008000555555000000400033333300AAAA41
:1023F0002A004992240000002000C7711C0099990E
:102400001900D1451700555515003BB1130024495B
:10241000120011111100000010000F0F0F00E3381F
:102420000E0043790D00CCCC0C00C3300C00E8A2A8
:102430000B0064210B00AAAA0A00703D0A009DD877
:102440000900427B090092240900DCD30800888837
:1024500008001042080000000800F0C1070087874C
:10246000070075500700711C07003EEB0600A1BC79
:1024700006006990060066660600703E0600611858
:10248000060017F4050074D105005BB00500B2909A
:102490000500627205005555050078390500B81E23
:1024A0000500050505004EEC040087D40400A1BD1D
:1024B000040090A7040049920400C17D0400EE6965
:1024C0000400C7560400444404005C3204000821A0
:1024D000040041100400000004003FF00300F8E095
:1024E000030026D20300C3C30300CCB503003AA8FF
:1024F00003000A9B0300388E0300C08103009F7510
:102500000300D0690300505E03001D5303003448EC
:102510000300913D03003333030016290300381FE5
:10252000030097150300300C0300030303000BFAAC
:10253000020049F10200BAE802005CE002002DD876
:1025400002002DD0020059C80200B0C0020031B90B
:102550000200DAB10200AAAA0200A0A30200BC9CF9
:102560000200FA9502005C8F0200DF88020082827E
:102570000200457C02002776020027700200436AB1
:1025800002007C640200D05E02003F590200C85382
:10259000020020436F756E7420583A0020453A00BF
:1025A000486F6D696E67204661696C6564005761AC
:1025B000726E696E673A20486F6D696E672042756A
:1025C0006D702044697669736F72203C20310A0077
:1025D0006563686F3A004572726F723A0042696CC7
:1025E000696E656172204C6576656C696E6720471F
:1025F0007269643A0A004F46460A004661646520E3
:102600004865696768742000426564204C6576659A
:102610006C696E6720004661696C656420746F2088
:10262000656E61626C6520426564204C6576656C00
:10263000696E670A00496E76616C6964206D657326
:10264000682E0A00A10000006900A20000006300DB
:10265000B00000000900C10000004100C2000000FD
:102660004100C30000004100C40000004100C5005B
:1026700000004100C60000004145C70000004300C3
:10268000C80000004500C90000004500CD00000062
:102690004900D10000004E00D50000004F00D600D8
:1026A00000004F00D70000007800DC00000055005B
:1026B000DD0000005900E00000006100E1000000C2
:1026C0006100E20000006100E30000006100E4003E
:1026D00000006100E50000006100E60000006165A7
:1026E000E70000006300E80000006500E90000006A
:1026F0006500EA0000006500EB0000006500EC00EA
:1027000000006900ED0000006900EE0000006900B3
:10271000EF0000006900F10000006E00F200000010
:102720006F00F30000006F00F40000006F00F50080
:1027300000006F00F60000006F00F80000006F005E
:10274000F90000007500FA0000007500FB000000B1
:102750007500FC0000007500FD0000007900FF001E
:102760000000790004010000410005010000610043
:102770000601000043000701000063000C01000097
:1027800043000D01000063000E01000044000F0132
:1027900000006400110100006400190100006500E0
:1027A0001F010000670030010000490031010000F6
:1027B0006900410100004C00420100006C0043012F
:1027C00000004E00440100006E00480100006E0051
:1027D0005901000072005A01000053005B01000023
:1027E00073005F010000730060010000530061018D
:1027F000000073006501000074006F0100007500A7
:102800007C0100007A007D0100005A007E0100007A
:102810007A00920100006600E302000078002220A6
:1028200000002E001E210000507822210000544D8F
:10283000902100003C2D922100002D3EB02100008F
:102840000300BB21000004003C2200007E0048225F
:1028500000007E3D60220000213D612200003D001D
:10286000642200003C3D652200003E3DF123000053
:102870000700A03000003D0021F301000200C2F477
:1028800001000500A2000000EC00B0000000DF0025
:10289000E4000000E100F6000000EF00F700000097
:1028A000FD00FC000000F500E3020000EB008703E0
:1028B0000000A5008F030000F40098030000F20060
:1028C0009E030000E300A3030000F600A90300003C
:1028D000F400AC030000E000AD030000E300B1032E
:1028E0000000E000B2030000E200B5030000E300D6
:1028F000B8030000F200BC030000E400BE030000C7
:10290000E300C0030000F700C1030000E600C303BA
:102910000000E500902100007F00922100007E0071
:102920001A220000E8001E220000F30088250000A3
:10293000FF0002300000A1000C300000A2000D30AA
:102940000000A3009B300000DE009C300000DF0090
:10295000A03000003D00A1300000A700A230000020
:10296000B100A3300000A800A4300000B200A530E0
:102970000000A900A6300000B300A7300000AA00A4
:10298000A8300000B400A9300000AB00AA3000005D
:10299000B500AB300000B600AC300000B6DEAD30A4
:1029A0000000B700AE300000B7DEAF300000B80066
:1029B000B0300000B8DEB1300000B900B230000025
:1029C000B9DEB3300000BA00B4300000BADEB53072
:1029D0000000BB00B6300000BBDEB7300000BC001A
:1029E000B8300000BCDEB9300000BD00BA300000D5
:1029F000BDDEBB300000BE00BC300000BEDEBD301E
:102A00000000BF00BE300000BFDEBF300000C000CD
:102A1000C0300000C0DEC1300000C100C230000084
:102A2000C1DEC3300000AF00C4300000C200C530BA
:102A30000000C2DEC6300000C300C7300000C3DEA5
:102A4000C8300000C400C9300000C4DECA30000035
:102A5000C500CB300000C600CC300000C700CD3030
:102A60000000C800CE300000C900CF300000CA000E
:102A7000D0300000CADED1300000CADFD230000002
:102A8000CB00D3300000CBDED4300000CBDFD5301C
:102A90000000CC00D6300000CCDED7300000CCDF08
:102AA000D8300000CD00D9300000CDDEDA30000093
:102AB000CDDFDB300000CE00DC300000CEDEDD30CC
:102AC0000000CEDFDE300000CF00DF300000D0009D
:102AD000E0300000D100E1300000D200E230000020
:102AE000D300E3300000AC00E4300000D400E53057
:102AF0000000AD00E6300000D500E7300000AE0079
:102B0000E8300000D600E9300000D700EA300000CD
:102B1000D800EB300000D900EC300000DA00ED30D6
:102B20000000DB00EF300000DC00F2300000A60007
:102B3000F3300000DD00F4300000B3DEF7300000B9
:102B4000DCDEFA300000A6DEFB300000A500FC3021
:102B50000000B000FD300000A400074E0000FB00A4
:102B600086510000FC0043530000FA0064FF00009F
:102B7000A40065FF0000A50066FF0000A60067FF37
:102B80000000A70068FF0000A80069FF0000A9007E
:102B90006AFF0000AA006BFF0000AB006CFF0000A2
:102BA000AC006DFF0000AD006EFF0000AE006FFFD7
:102BB0000000AF0070FF0000B00071FF0000B10026
:102BC00072FF0000B20073FF0000B30074FF00004A
:102BD000B40075FF0000B50076FF0000B60077FF77
:102BE0000000B70078FF0000B80079FF0000B900CE
:102BF0007AFF0000BA007BFF0000BB007CFF0000F2
:102C0000BC007DFF0000BD007EFF0000BE007FFF16
:102C10000000BF0080FF0000C00081FF0000C10075
:102C200082FF0000C20083FF0000C30084FF000099
:102C3000C40085FF0000C50086FF0000C60087FFB6
:102C40000000C70088FF0000C80089FF0000C9001D
:102C50008AFF0000CA008BFF0000CB008CFF000041
:102C6000CC008DFF0000CD008EFF0000CE008FFF56
:102C70000000CF0090FF0000D00091FF0000D100C5
:102C800092FF0000D20093FF0000D30094FF0000E9
:102C9000D40095FF0000D50096FF0000D60097FFF6
:102CA0000000D70098FF0000D80099FF0000D9006D
:102CB0009AFF0000DA009BFF0000DB009CFF000091
:102CC000DC009DFF0000DD009EFF0000DE009FFF96
:102CD0000000DF00E5FF00005C00001C1F11111F59
:102CE00000000006191803130C00040E1F041C003A
:102CF0000000000E1315110E00001C101817050619
:102D00000500040A0A0A0A11110E0C12120C000026
:102D10000000001F1511151F000000000000010237
:102D200004040000001C1C0C040404020100000048
:102D3000000004081000000000007C4D61726C6906
:102D40006E7C002D2D2D2D2D2D005072696E74205E
:102D500066726F6D204D65646961004D6F76652008
:102D600025736D6D004D6F766520302E316D6D00D1
:102D70004D6F766520316D6D004D6F766520313079
:102D80006D6D004D6F7665204178697300486F74F2
:102D9000656E6420746F6F20636F6C640045787497
:102DA0007275646572004D6F7665205A004D6F76BE
:102DB000652059004D6F76652058004368616E6745
:102DC000652046696C616D656E7400556E6C6F614F
:102DD000642046696C616D656E74004C6F6164209F
:102DE00046696C616D656E740050726568656174EA
:102DF00020414253005072656865617420504C4117
:102E0000005072656865617420437573746F6D005E
:102E10004261636B00000020002300260029002C83
:102E2000002F003200000100000301060109010526
:102E3000050505070508080808020202020A0A0833
:102E40000804040404010101010101010103030359
:102E50000303030303040707070C0C0C0C0C0C0CF6
:102E60000C0202020206060606060606060B0B0BFD
:102E70000B0B0B0B0B010210202008081020401038
:102E8000204080020102010804020101020408102E
:102E9000204080804020100804020180040201804C
:102EA0004020100804020108040201010204081075
:102EB000204080010204081020408000000A0B021C
:102EC000090C0D0E080703040100000000000000BB
:102ED00000000000000000000000000000000000F2
:102EE00000000000000000121110000000000000AF
:102EF00000000000000000000000000000000000D2
:102F00000050726F6265205A204F666673657400C8
:102F100046616E205370656564004E6F7A7A6C6509
:102F2000004D61696E00466C6F77002568753A2523
:102F3000303268750025303268753A253032687550
:102F40000053440020202020202020005072696E71
:102F5000742050617573656400506175736520500D
:102F600072696E74004D656469612052656D6F769B
:102F70006564004D6564696120496E7365727465AE
:102F80006400546865205072696E746572205468DC
:102F900061742041204E616D6520576F756C64200F
:102FA000537461696E2052656164792E00507269B4
:102FB0006E74696E672E2E2E005072696E742041F9
:102FC000626F72746564004D323500486F74656ECF
:102FD0006420746F6F20636F6C640A004D3630306C
:102FE0003A20546F6F20436F6C64005072657373A6
:102FF00020627574746F6E20746F20686561742030
:103000006E6F7A7A6C650A0020496E76616C69642D
:1030100020657874727564657220004361703A00AF
:1030200050726F6265204F6666736574205A005057
:10303000726F6265204F66667365745A3A2000416C
:103040006D6178204500416D6178205A00416D61C5
:1030500078205900416D6178205800412D547261EB
:1030600076656C00412D5265747261637400416332
:1030700063656C004A756E6374696F6E2044657693
:103080000050726F62652059204F66667365740048
:1030900050726F62652058204F6666736574003FFA
:1030A0000043616E63656C004D6F74696F6E005311
:1030B00074617274205072696E740043616E6E6F39
:1030C0007420656E746572207375626469723A204B
:1030D00000052E2E00416363656C65726174696F33
:1030E0006E3A205000204D393220580020204D618A
:1030F000783A200020204D696E3A2000536F6674A4
:1031000020656E6473746F70733A20005761726E3D
:10311000696E67203A20436C65616E204369726373
:103120006C652072657175697265732058590A0063
:1031300020540020520048617264636F646564200B
:1031400044656661756C742053657474696E677349
:10315000204C6F616465640A0020204D36303320B6
:103160000020550046696C616D656E74206C6F615E
:10317000642F756E6C6F6164206C656E6774687324
:103180003A0A0020204D3835312058005A2D50720F
:103190006F6265204F66667365740020204D333082
:1031A000312050005049442073657474696E677310
:1031B0003A0A0020460020480020204D31343520B6
:1031C00053004D6174657269616C20686561747546
:1031D0007020706172616D65746572733A0A0020C7
:1031E00020473239205720490020204D34323020EA
:1031F00053004175746F20426564204C6576656CA0
:10320000696E673A0A0020204D3230362058004857
:103210006F6D65206F66667365743A0A00204A0018
:1032200020204D323035204200204A3C6A756E63C2
:103230005F6465763E00416476616E6365643A2042
:10324000423C6D696E5F7365676D656E745F74692E
:103250006D655F75733E20533C6D696E5F66656595
:1032600064726174653E20543C6D696E5F74726176
:1032700076656C5F66656564726174653E002020EA
:103280004D323034205000416363656C6572617467
:10329000696F6E2028756E6974732F7332293A2016
:1032A000503C7072696E745F616363656C3E20525E
:1032B0003C726574726163745F616363656C3E2028
:1032C000543C74726176656C5F616363656C3E0A41
:1032D0000020204D3230312058004D6178696D75E5
:1032E0006D20416363656C65726174696F6E20283F
:1032F000756E6974732F7332293A0A0020204D329B
:1033000030332058004D6178696D756D20666565B4
:103310006472617465732028756E6974732F7329E4
:103320003A0A0053746570732070657220756E6977
:10333000743A0A0020204D3230302044300A0020F8
:10334000204D3230302044002044697361626C6546
:10335000640A0046696C616D656E742073657474EF
:10336000696E67733A0020204D3134392043203B89
:1033700020556E69747320696E2043656C7369759E
:10338000730A0020286D6D2900202047323120204B
:1033900020203B20556E69747320696E206D6D008E
:1033A0006F70656E00545249474745524544007A54
:1033B0005F6D696E00795F6D696E00785F6D696E33
:1033C000005265706F7274696E6720656E64737405
:1033D0006F70207374617475730A00000096430067
:1033E000009643000040400000C8410000A0420099
:1033F00000A04200007A4500001B43E8030000E8FB
:1034000003000032000000E80300006F70656E20CA
:103410006661696C65642C2046696C653A200054CD
:103420004845524D414C2052554E41574159005448
:103430006865726D616C2052756E617761790020EC
:103440005A3A200020593A200042656420583A2018
:103450000050726F62696E67204661696C65640A2C
:103460000050726F62696E67204661696C65640026
:10347000486F6D6520257325732573204669727327
:103480007400496E736572742066696C616D656E57
:103490007420616E64207072657373206275747439
:1034A0006F6E0A00220A00556E6B6E6F776E206396
:1034B0006F6D6D616E643A202200000021002400CF
:1034C00027002A002D003000330001010000040114
:1034D00007010A0100002200250028002B002E0011
:1034E0003100340002010000050108010B01DA017E
:1034F000A00111241FBECFEFD1E2DEBFCDBF00E09F
:103500000CBF13E0A0E0B2E0ECE2F9E402E00BBF94
:1035100002C007900D92A839B107D9F724E1A8E9B4
:10352000B3E001C01D92AC3CB207E1F71AE1C8E775
:10353000DAE100E006C021970109802FFE010F9417
:10354000E520C737D10780E00807A9F70F94D10A13
:103550000D9484240C9400002F923F924F925F921E
:103560006F927F928F929F92AF92BF92CF92DF9293
:10357000EF92FF920F931F93CF93DF93CDB7DEB7F8
:10358000C055D1090FB6F894DEBF0FBECDBF209154
:10359000A91421962FAF219781E08093A9148091DF
:1035A000DD048D3409F4DEC3843511F40C94D92A7A
:1035B000873411F00C94F42A2090DB043090DC0462
:1035C0003BE12316310409F421C1ECF454E0251643
:1035D000310444F482E0281631040CF046C037FE72
:1035E00038C0BCC39CE02916310409F40BC1A5E125
:1035F0002A16310411F40C94F62AB4E02B16310487
:1036000009F0ACC3C0C0EAE22E16310409F47FC24F
:103610006CF42DE12216310409F422C10CF410C11E
:103620004EE12416310409F42FC198C35BE5251639
:10363000310409F4E9C18CE52816310409F4E9C123
:103640009AE52916310409F089C31092DA040C9422
:10365000F62A80910B02882311F40C94F62A0E941A
:1036600019E50E94AEB20C94F62A80910B028823D1
:1036700011F40C94F62A0E9419E582E50E943ABBE7
:10368000882309F44EC00E94BABA6B017C0120E085
:1036900030E0A9010F94F819882311F40C94D62B6B
:1036A0002091AD143091AE144091AF145091B014EC
:1036B00028A339A34AA35BA38091B1149091B214BB
:1036C000A091B314B091B4148CA39DA3AEA3BFA3D7
:1036D0008090CA049090CB04A090CC04B090CD040C
:1036E0004090CE045090CF046090D0047090D104EC
:1036F000A501940168A179A18AA19BA10F94F81951
:1037000081110C94172BA30192016CA17DA18EA1B4
:103710009FA10F94F819882311F40C94D62B0C94C4
:10372000172B89E40E943ABB882329F00E94BABA79
:103730006B017C0103C0C12CD12C76018AE40E946C
:103740003ABB882311F40C94DD2B0E94BABA68A707
:1037500079A78AA79BA720E030E0A901C701B6019D
:103760000F94F81981110C94EA2B20E030E0A901A4
:1037700068A579A58AA59BA50F94F81981110C94C9
:10378000EA2B0C94D62B80E50E943ABB882329F0C3
:103790000E9450FA6B017C0103C0C12CD12C760130
:1037A00083E50E943ABB882361F00E94BABA20E008
:1037B00030E04AE754E40F945E1A0F9461226B01E3
:1037C0007C010E94D6A680917504811105C060E03D
:1037D0008EE59AE00E9420E00F94560AC60ED71E8E
:1037E000E81EF91E0F94560ADC01CB018C199D09C5
:1037F000AE09BF09B7FD02C00C94F62A80E00E9412
:10380000C534F0CF0E94A9F50C94F62A0F94E50573
:1038100081110C94F62A8CE0E7E6F2E0DE011196C5
:1038200001900D928A95E1F760E070E080E50E94DA
:1038300096F5BE016F5F7F4F0E94F3DE0C94F62A6F
:103840008091A6148770873011F00C94792F60E076
:103850008FE40E9462BB81110C94F62A0C94792F9C
:103860000F94E50581110C94F62A80917404882345
:1038700011F40C94BE3060E08FE40E9462BB8111B1
:103880000C94F62A0C94BE3020919A1430919B141B
:1038900040919C1450919D146091AD147091AE14A0
:1038A0008091AF149091B0140F94EE20AB01BC0145
:1038B00088E50E94CA6069837A838B839C83209108
:1038C0009E1430919F144091A0145091A1146091C6
:1038D000B1147091B2148091B3149091B4140F94F8
:1038E000EE20AB01BC0189E50E94CA606D837E8336
:1038F0008F839887BE016B5F7F4FCE0101960E9438
:103900004DB9882311F40C94F62A80E00E940DBE74
:103910000E94A2B561E085E40E9462BB21E0482FCD
:10392000BE016B5F7F4FCE0101960F9458066B016D
:103930007C019B01AC010F94E02381115FC0898061
:103940009A80AB80BC8020E030E0A901C501B401C1
:103950000F94F81987FF05C027E137EB41E558EBD5
:1039600004C027E137EB41E558E3C501B4010F94EA
:10397000EE20AB01BC0189E494E30E9434C28D8047
:103980009E80AF80B88420E030E0A901C501B40179
:103990000F94F81987FF05C027E137EB41E558EB95
:1039A00004C027E137EB41E558E3C501B4010F94AA
:1039B000EE20AB01BC0184E494E30E9434C220E019
:1039C00030E0A901C701B6010F94F81987FF05C0BF
:1039D00067E177EB81E598EB04C067E177EB81E580
:1039E00098E3A70196010F94EE20AB01BC018FE391
:1039F00094E30E9434C28AE00E9499330E9489B500
:103A00000E9498B80C94F62A8FE08093DA040C9404
:103A1000F62A73E7272E72E0372EE6E6EE2EE4E074
:103A2000FE2EADEAB4E1B9A3A8A3FEE8CF2EF4E1DF
:103A3000DF2E00E010E0F10181911F010E943ABBEE
:103A4000882309F44AC00E94BABA2B013C01133002
:103A500049F0D6012D913D914D915C910F94ED204F
:103A60002B013C01E8A1F9A12081318142815381E0
:103A7000C301B2010F94ED204B015C012DEB37E344
:103A800046E855EB0F944E2387FD0AC02DEB37E334
:103A900046E855E3C501B4010F94F8191816ECF483
:103AA000133051F44092B9145092BA146092BB147E
:103AB0007092BC1401E011C0A5019401D7016D9171
:103AC0007D918D919C910F94EE20F701608371831D
:103AD00082839383812F0E94EDB11F5FF4E0EF0E8C
:103AE000F11C28A139A12C5F3F4F39A328A334E052
:103AF000C30ED11C143009F09ECF002321F089EBB6
:103B000094E10E94E7A60E9498B80C94F62A80914E
:103B10000B02882311F40C94F62A89E40E943ABB24
:103B2000E82E882321F00E94B6BA082F01C000E0D9
:103B30008AE40E943ABBF82E882321F00E94B6BA8C
:103B4000182F01C010E0EE2011F0033020F4FF2008
:103B500041F0133030F08FEF99E00E947CC10C945B
:103B6000F62A80E1EDEAF4E1AAECB4E001900D92CE
:103B70008A95E1F7EE2019F1602F000F770B880B83
:103B8000990B0F94FF1920915604309157044091DE
:103B90005804509159040F945E1A20915E0430919C
:103BA0005F0440916004509161040F94EE20609393
:103BB000CA047093CB048093CC049093CD04FF206F
:103BC00019F1612F110F770B880B990B0F94FF19C7
:103BD00020915A0430915B0440915C0450915D0443
:103BE0000F945E1A20916204309163044091640442
:103BF000509165040F94EE206093CE047093CF042F
:103C00008093D0049093D10460E080E50E9462BB71
:103C10008823C1F1EE20D1F020919A1430919B14A9
:103C200040919C1450919D146091CA047091CB04F2
:103C30008091CC049091CD040F94ED206093CA0440
:103C40007093CB048093CC049093CD04FF20D1F0EB
:103C500020919E1430919F144091A0145091A11472
:103C60006091CE047091CF048091D0049091D104E2
:103C70000F94ED206093CE047093CF048093D00412
:103C80009093D10440E050E0BA0186E40E94CA60FB
:103C90006B017C0120E030E0A9010F944E2318163F
:103CA0005CF420E030E040E752E4C701B6010F9435
:103CB000E8216B017C0103C0C12CD12C76018090DE
:103CC0005F0290906002A0906102B090620220E0DA
:103CD00030E0A901C701B6010F94F819882341F01B
:103CE000C0925F02D0926002E0926102F0926202A2
:103CF0000091090210910A0284E690E090930A0272
:103D000080930902C0901D02D0901E02E0901F0215
:103D1000F090200280E090E0A0E8BFE380931D02D5
:103D200090931E02A0931F02B09320020E94AEB295
:103D300080925F0290926002A0926102B092620251
:103D400010930A0200930902C0921D02D0921E0233
:103D5000E0921F02F09220020C94F62A0F94430482
:103D60000C94F62A0091DB041091DC040537110550
:103D700009F493C70CF04FC10B34110509F4A9C421
:103D80000CF062C00931110509F430C334F5043177
:103D9000110509F4DCC28CF40131110509F4C3C228
:103DA00034F40230110508F442C20C94D62A0231D0
:103DB000110509F493C60C94D62A0631110509F4AD
:103DC000EBC20CF4E5C20731110509F4EEC208316B
:103DD000110509F4FFC20C94D62A0E31110509F41D
:103DE00090C3B4F40B31110509F41BC30CF40BC3DD
:103DF0000C31110509F47DC30D31110511F00C943E
:103E0000D62A80913C148E7F80933C140C94F62A21
:103E10000132110509F40AC454F40F31110509F4F3
:103E200015C40032110509F4CDC30C94D62A0A3208
:103E3000110509F42AC40033110511F00C94D62A97
:103E40000E94934F0C94F62A0936110509F440C5D7
:103E50000CF042C00235110509F432C624F50D34C8
:103E6000110509F43CC40CF437C40E34110509F4EF
:103E700039C40135110511F00C94D62A0E94A26EA6
:103E80000E9495A40E9452A80E94E13268EE73E05D
:103E900080E090E00E9458C160E089E998E00E94CB
:103EA00020E00C94F62A0535110509F444C654F4B3
:103EB0000335110509F40BC60435110509F40EC6C6
:103EC0000C94D62A0C35110509F458C6083611058C
:103ED00009F498C40C94D62A0E36110509F42EC59F
:103EE00084F40B36110509F420C50CF401C50C3619
:103EF000110509F479C50D36110509F49EC40C9419
:103F0000D62A0137110509F477C594F40F36110547
:103F100009F425C50037110511F00C94D62A41E0AB
:103F200060E070E089EC98E00E9435320C94F62A4B
:103F30000237110509F4ACC60337110511F00C94D2
:103F4000D62A8AEB97E00E947CC160E08AEA97E07B
:103F50000E94E5E460E085E997E00E94E5E461E025
:103F600088E290E20E94E5E461E08AE897E00E943E
:103F7000E5E461E08AE797E00E94E5E460E081E73C
:103F800097E00E94E5E461E087E697E00E94E5E4BF
:103F900061E08DE597E00E94E5E461E085E597E06A
:103FA0000E94E5E461E087E497E00E94E5E460E0D8
:103FB00089E397E00E94E5E460E08AE297E00E94EE
:103FC000E5E460E08CE197E00E94E5E460E086E0F3
:103FD00097E00E94E5E460E085EF96E00E94E5E46A
:103FE00060E086EE96E00E94E5E460E081ED96E018
:103FF0000E94E5E461E08EEB96E00E94E5E460E07B
:1040000081EB96E00E94E5E460E08DE996E00E9495
:10401000E5E40C94F62A0E3241E0140711F40C94F6
:104020000E290CF070C00B3C110509F456C7ACF515
:104030000C38110509F402C5BCF40737110509F461
:1040400076C60CF43AC60837110509F473C6093769
:10405000110511F00C94D62A109272041092730478
:104060000E9406FB0C94F62A0E3B110509F4FFC4CE
:1040700054F40139110509F465C60B39110509F429
:10408000F9C40C94D62A083C110509F4B6C6093CBB
:10409000110509F4FFC60C94D62A0C3D110509F44C
:1040A00076C79CF40D3C110509F43CC70CF437C7E6
:1040B0000E3C110509F449C7033D110511F00C949C
:1040C000D62A0E94B0F80C94F62A023281E0180732
:1040D00011F40C94762854F40D3D110509F464C7CD
:1040E000023E110509F4B6C70C94D62A0C32A1E0A1
:1040F0001A0711F40C9479280D32114011F40C9424
:104100008E280C94D62A063FE1E01E0711F40C9489
:10411000242A0CF04BC00A3921E0120709F469C4C3
:1041200014F5003941E0140711F40C9452294CF4B1
:104130000F32114011F00C94D62A0E94E1600C94C9
:10414000F62A013991E0190711F40C945529023926
:10415000114011F00C94D62A80E00E9495A30E9491
:1041600098B80C94F62A0C3AB1E01B0711F40C94A1
:10417000C3296CF4043AF1E01F0711F40C945B2995
:10418000053A114011F40C945E290C94D62A043F90
:1041900031E0130711F40C94212A053F114011F06E
:1041A0000C94D62A0E9450FC0C94F62A0B3552E04F
:1041B000150711F40C94492AC4F4083F91E019073B
:1041C00011F40C94302A14F40C94272A0C30B2E029
:1041D0001B0711F40C94412A0835124011F00C947D
:1041E000D62A0E9449E80C94F62A0335F3E01F070B
:1041F00011F40C94C52A7CF40D3B32E0130711F442
:104200000C94C22A0E3B124011F00C94D62A0E9444
:1042100028E60C94F62A003A53E0150709F409C27F
:10422000073E134011F40C94C82A0C94D62AA0908F
:104230005404B090550480E50E943ABB882359F09D
:104240000E9450FA6B017C0111E0672B682B692BEF
:1042500031F410E004C010E0C12CD12C760183E5CC
:104260000E943ABB882311F40C94C1300E94BABA60
:1042700020E030E04AE754E40F945E1A0F94612284
:104280006B017C0111110BC0672B682B692B39F472
:10429000A114B10421F0D5018C91811102C010E06C
:1042A00001C011E00E94D6A6112329F061E0C501EA
:1042B0000E949AE005C060E08CEE99E00E9420E048
:1042C0001091A91483E08093A91481E08093A8142D
:1042D000C114D104E104F104B1F00F94560AC60EE2
:1042E000D71EE81EF91E0F94560ADC01CB018C196B
:1042F0009D09AE09BF09B7FF0EC08091A8148111B6
:104300000C94C63008C08091A814882321F080E066
:104310000E94C534F8CF0E94BFE01092A8141093F9
:10432000A9140C94F62A8091500484FF02C00C94C6
:10433000CB308091520487FF02C00C94CB30809127
:104340005304837011F00C94CB300C94E73082ED61
:1043500099E00E947CC186EA92E10E94129C8BE166
:10436000E6EAF2E1DE01119601900D928A95E1F7FD
:1043700060E070E0CE0101960E94DA94CE010196D1
:104380000E94179C83EC99E00E947CC10C94F62A51
:104390000E9484930C94F62A0E94139380913C14FB
:1043A000877F80933C140C94F62AE0915404F0919A
:1043B00055048081882329F0803209F410823196D7
:1043C000F8CF60E080915404909155040E94859646
:1043D0000C94F62A0E94E432882321F00E94249350
:1043E0000E9439A40E94BFE00C94F62A80913C14EC
:1043F00082FF03C08B7F80933C140E947E4F0E94FB
:10440000BFE00C94F62A80913C1483FD02C00C940A
:10441000F62A83E50E943ABB81110C94F5300C9486
:10442000F62A83E40E94F1BA8823C1F181E999E078
:104430000E947CC180915012882339F1BE016F5FC8
:104440007F4F8DE492E10E94D99A8E010F5F1F4F3A
:10445000F80181918F01882319F00E949933F8CFD8
:10446000CE0101960E94099680910E04882389F05E
:1044700080E20E9499330EE014E0D8018D918D0105
:10448000882339F00E949933F8CF87E899E00E9499
:104490007CC18AE00E9499330C94F62A80913C14E6
:1044A00082FF21C080EA99E00E947CC160913814AB
:1044B0007091391480913A1490913B144AE00E9413
:1044C000A0338FE20E9499336091341470913514B7
:1044D00080913614909137144AE00E94A0330E94D4
:1044E0009E340C94F62A82EB99E00E947CC10C94D5
:1044F000F62A80915404909155040E9437960C94AA
:10450000F62A80913C1483FD02C00C94F62A0F9485
:104510002C0480913C1483FD02C00C94F62A409137
:10452000540450915504BE01645E7F4F80E00F94A7
:1045300000028C01009711F40C94F62A6C8D7D8D8D
:1045400019821C8222E0AC01CE0101960E94C6A015
:10455000811102C0F12C14C0CE0101960F946E019E
:104560008823C1F361E0CE0101960E94819A0097F1
:1045700089F325EEFC0120831C820E94A497F82E6B
:10458000CE0101960E94179CB801FF2089F089E7AF
:1045900099E00E9452C28AE00E9499331092381426
:1045A0001092391410923A1410923B140C94F62A7B
:1045B00081E699E00E9452C28AEE98E10E947CC195
:1045C0000C94F62A80913C1482FD0E94D6A680911C
:1045D0003C1483FD02C00C94F62A60E080E50E9442
:1045E00062BB182F682F80915404909155040E944B
:1045F000859683E50E943ABB882381F00E9482BAA7
:10460000AB01BC01409338145093391460933A14B1
:1046100070933B148DE492E10E9497990E94249339
:1046200011110C94F62A0E9439A4E0C70E947E67FB
:10463000DDC7209154043091550490913C14926050
:1046400090933C14C9010E943796D0C70E942F4F07
:104650006C8F7D8F8E8F9F8FBE016F5F7F4FCE01DE
:104660004C960E949F6660E0CE0101960E949AE0FF
:104670000E9469C2BE016F5F7F4F84E599E00E948E
:1046800052C28AE00E949933B1C783E50E943ABBC7
:10469000882309F4ABC70E9492BAF82E6DE070E04F
:1046A00080E50E9447BB8C0197FDA0C7893019F4B3
:1046B000F09225129BC760E089E40E9462BB8111E1
:1046C0000C940631802F0F94AC0A8111E0C40C9435
:1046D00006310E9439A48AC70E947E4F87C70E9474
:1046E00095A484C760E070E083E50E9447BB8E34E8
:1046F000910529F40E9406A50E94BFE077C78DE3CB
:1047000099E00E947CC16091FE037091FF0384E3F5
:1047100099E00E9427C2609100047091010487E231
:1047200099E00E9427C26091FE037091FF0380917F
:10473000000490910104681B790B8091FD03815066
:1047400021E030E0823010F020E030E0621B730B9B
:104750008CE199E00E9427C28AE00E9499338DE3A0
:1047600099E00E947CC18091020490910304A09181
:104770000404B09105048C8F9D8FAE8FBF8FBE0156
:104780006F5F7F4FCE014C960E949F66BE016F5FA8
:104790007F4F8FE099E00E9452C280910604909171
:1047A0000704A0910804B09109048C8F9D8FAE8FEF
:1047B000BF8FBE016F5F7F4FCE014C960E949F66F8
:1047C000BE016F5F7F4F8FEF98E00E9452C220E0E2
:1047D00030E04AE754E460910A0470910B04809140
:1047E0000C0490910D040F94E821AB01BC0187EEFD
:1047F00098E00E9434C28DE60E9499338AE00E94BC
:104800009933F4C68091260E83FDF0C60E94FFE521
:1048100087FDECC683E50E943ABB882359F00E94CD
:10482000BABA0F945A22CB010E94B7A161E080E08E
:104830000E948A6E0F945F11D9C68091260E83FD67
:10484000D5C60E94FFE5F82E87FDD0C683E50E94FD
:104850003ABB082F811106C082E50E943ABB182F8F
:10486000882361F10E94BABA0F945A22CB010E94A8
:10487000B7A161E081E00E948A6E60913E12709162
:104880003F12072E000C880B990B0F94FF194B0158
:104890005C0140903A1250903B1260903C12709034
:1048A0003D12A30192010F944E23181614F40C9498
:1048B0002E31002311F40C94143111E00F945F1188
:1048C000112309F493C6602F8F2D0E94D16C8EC6E0
:1048D0000E94FFE5182F87FD8BC68CE995E00E94AA
:1048E0007CC1812F0E945A6C8AE00E94993380C655
:1048F00060E080E50E9456BB811178C681E40E9489
:10490000F1BA882321F06091251270E002C06FEFA8
:1049100070E083E50E9496F58F3F910519F010F045
:104920008FEF90E08093251261C660E080E50E94E1
:1049300056BB81115BC61092251258C68EE40E94A8
:104940003ABB882309F452C60E9482BA6093F903E5
:104950007093FA038093FB039093FC0347C683E5AF
:104960000E94F1BA882331F060E083E50E9456BBD3
:104970008093260E0E9469C28BED98E00E947CC154
:104980008091260E882369F16CE6E62E65E0F62E0E
:1049900000E010E020E08091260E90E0A0E0B0E082
:1049A000002E04C0B695A795979587950A94D2F7DF
:1049B00080FF0EC0DD24D394D20E222319F08CE2A6
:1049C0000E949933F701859194910E947CC12D2D0D
:1049D0000F5F1F4F32E0E30EF11C05301105D9F6D1
:1049E00058CD87ED98E053CD1092A814109207028D
:1049F000FDC50E94A432FAC583E50E943ABB882314
:104A000071F00E9492BA282F30E02D3331051CF44A
:104A100080930602EBC58CE380930602E7C50E94F3
:104A200069C24091060250E060E070E082EC98E0DC
:104A30000E9416C28AE00E949933D8C58091260E42
:104A400083FDD4C583E50E943ABB882309F4CEC513
:104A50000E94BABA0F945A226C3871050CF48B017B
:104A60001093F7030093F6030E94F16BBFC50E94F9
:104A7000CA64BCC583E50E943ABB882309F4B6C565
:104A80000E9492BA182F90E0CD970CF01CE310937F
:104A9000ED030F94560A6B017C01212F30E0A8EE44
:104AA000B3E00F94A220C60ED71EE81EF91EC092D6
:104AB000E903D092EA03E092EB03F092EC0396C58F
:104AC0008091DA048F7D80618093DA048FC58091B4
:104AD000DA048F7E80628093DA0488C583E50E94C1
:104AE0003ABB882399F00E94BABA20E030E04AE746
:104AF00054E40F945E1A0F94612260930202709343
:104B00000302809304029093050270C580915004C3
:104B100084FF02C00C9431318091520487FF02C09F
:104B20000C94313180915304837011F00C94313125
:104B30000E9452A85BC583E50E94F1BA882309F45C
:104B400055C50F94560A6093C6047093C7048093AA
:104B5000C8049093C9040E94BABA20E030E04AE742
:104B600054E40F945E1A0F9461226093E5037093EE
:104B7000E6038093E7039093E80338C50E94FFE5BE
:104B800087FD34C59091500494FD04C09091520467
:104B900097FF0AC043E7C42E42E0D42E57E2E52E29
:104BA0005EE0F52E10E009C090915304937091F7E8
:104BB000682F81E00E949FF919C5D6018D916D0182
:104BC0000E943ABB882309F459C0133009F04FC042
:104BD0000E94BABA4B015C0120E030E040EA51E4A7
:104BE0000F94F81987FF3AC0A50194016091470E10
:104BF0007091480E8091490E90914A0E0F94E821D1
:104C00002B013C019B01AC016091570E7091580E35
:104C10008091590E90915A0E0F945E1A6093570E20
:104C20007093580E8093590E90935A0E60915708C6
:104C3000709158088091590890915A080F94FD1965
:104C4000A30192010F945E1A0F946122609357089A
:104C5000709358088093590890935A088092470E91
:104C60009092480EA092490EB0924A0E07C00E9440
:104C7000BABAF701648B758B868B978B1F5FF4E054
:104C8000EF0EF11C143009F098CF0E94B2A6AEC40A
:104C90000E94D6A60E9498B8A9C48091540490910D
:104CA0005504009709F49ECBDC012C91222309F4D2
:104CB00099CB60E00E949AE099C40091540410914D
:104CC000550494E0F12C40E0915021F1F8018081ED
:104CD000282F2B7F213421F421812133D9F407C0DF
:104CE0008035C1F4818180538A3048F013C081340B
:104CF00021F0853421F441E002C0FF24F3949801AF
:104D00002E5F3F4F89012F5F3F4FF8018081803236
:104D1000C9F3DACF41110E9469C2FF2021F089E96D
:104D200096E00E947CC1C8010E94A4345FC40E9426
:104D3000E5FA5CC481E080937204809373040E945E
:104D400006FB54C460E070E083E50E9447BB8C0121
:104D50001127023011053CF00E9465C287E796E0FA
:104D60000E947CC143C488E40E943ABB8823A9F016
:104D70000E94B6BA8A3A91053CF08530F1E09F076F
:104D80002CF084E091E002C08AEA90E0F801EE0F96
:104D9000FF1FEF51FC4F9183808386E40E943ABB52
:104DA000882381F00E94B6BA97FD07C08F3F910516
:104DB00029F024F08FEF90E001C080E0F801E1528B
:104DC000FC4F808382E40E943ABB882309F40EC41E
:104DD0000E94B6BA8530910534F08D3891052CF0DB
:104DE0008CE890E002C085E090E0000F111FF80110
:104DF000E552FC4F91838083F9C30E94FFE5182F91
:104E000087FDF4C384E40E94F1BA882309F43FC00B
:104E10000E94BABA6B017C0101E020E030E0A901F8
:104E20000F94F819811101C000E00093DA0320E02B
:104E300030E0A901C701B6010F94F819882339F1B0
:104E40000E94BABA24E01202F0011124EA52FC4F87
:104E5000608371838283938320E030E0A9016091B5
:104E6000D6037091D7038091D8039091D9030F9402
:104E7000F81981110CC080E090E0A0EEBFE38093B0
:104E8000D6039093D703A093D803B093D9030E947D
:104E9000C7A1ACC30E94FFE587FDA8C3B3E7EB2E13
:104EA000B2E0FB2E07E21EE0D7018D917D010E944A
:104EB000F1BA882359F00E94BABA0F946122F8011E
:104EC00060837183828393830E946BA60C5F1F4F64
:104ED000FEE007331F0741F789C30E94FFE587FD06
:104EE00085C3F3E7EF2EF2E0FF2E07E21EE0A7E313
:104EF000CA2EAEE0DA2ED7018D917D010E94F1BA63
:104F0000882339F00E94BABAF80164A375A386A376
:104F100097A30C5F1F4FC016D10669F767C30E94A5
:104F2000DAF964C38091500481FF02C00C945D31B2
:104F30008091510481FF02C00C945D318091520434
:104F40008C7011F00C945D3151C373E7C72E72E081
:104F5000D72EEAECEE2EE3E0FE2E10E0D6018D9186
:104F60006D010E94F1BA882351F00E94BABAF7018C
:104F70006083718382839383812F0E94EDB11F5FD1
:104F8000F4E0EF0EF11C133049F70C94831D83E518
:104F90000E943ABB882309F429C30E94B6BA9093B1
:104FA0000A028093090222C30E94FFE5F82E87FDC2
:104FB0001DC383E50E943ABB0F2D0F2C000C110B73
:104FC000882369F10E94B6BAF801EE0FFF1FE05086
:104FD000FE4F91838083000F111F000F111F980156
:104FE000235E3D4F7901BC01990F880B990B0F94FB
:104FF000FF192AE037ED43E25CE30F945E1AF801F3
:10500000EA53FC4F20813181428153810F945E1A13
:10501000D7016D937D938D939C931397E7C20E9464
:1050200069C285E40E94993380E38F0D0E94993311
:10503000000F111FF801E050FE4F6081718180E583
:1050400096E00E9445C285E20E9499338AE00E9460
:105050009933CCC280E50E94F1BA882309F4C6C214
:1050600060E070E080E50E9447BBF82E6FEF7FEFB5
:1050700083E50E9447BB8C010196039708F0B6C2F6
:10508000F7FCB4C28F2D0F94AC0A882339F00E942C
:1050900065C285E499E00E947CC1A8C20E94D6A6A0
:1050A00060E08F2D0F9417090F3FBFEF1B0731F002
:1050B0000130110571F000E010E00DC08F2D0F944C
:1050C000BB1331E020E0892B09F030E0032F122FD1
:1050D00002C001E010E08F2D0F94BB1380179107E1
:1050E00009F484C280E00E94C534F5CF0E9432E406
:1050F0007DC264E071E083E50E9496F58C0168EE64
:1051000073E080E50E9496F58938E3E19E0710F090
:1051100088E893E1B8010E94F3DF68C260E085E4AB
:105120000E9456BB811173C080E50E94F1BA8823AA
:1051300051F00E94BABA6093411270934212809368
:1051400043129093441289E40E94F1BA882381F0BB
:105150000E94BABA2CEA35EC47E25EE30F945E1A7D
:1051600060934512709346128093471290934812B1
:1051700084E40E94F1BA882381F00E94BABA2CEA32
:1051800035EC47E25EE30F94E82160934912709397
:105190004A1280934B1290934C120E9469C2409124
:1051A00041125091421260914312709144128CE46A
:1051B00096E00E9434C22CEA35EC47E25EE360914F
:1051C00045127091461280914712909148120F94A7
:1051D000E821AB01BC0188E496E00E9434C22CEACD
:1051E00035EC47E25EE36091491270914A1280917A
:1051F0004B1290914C120F945E1AAB01BC0184E4E7
:1052000096E00E9434C28AE00E949933EFC10E9466
:1052100065C282E396E00E947CC1E8C183E50E94FA
:10522000F1BA182F882371F00E94BABA0F945A224B
:10523000709322026093210221E0672B09F020E0A5
:105240002093730880E50E94F1BA882359F02091D9
:10525000210230912202232B11F00E94A6BA8093E2
:105260007308C4C11111C2C10E9469C28FE196E0E6
:105270000E947CC180917308882319F088EB9EE11D
:1052800002C086E096E00E947CC16091210270918C
:1052900022028EE096E00E9445C28AE096E00E94DB
:1052A0007CC1A4C10E94D6A6A1C181E00E9495A3A1
:1052B0000E9498B89BC10E946DC298C16FEF7FEFAA
:1052C00089E40E9447BB182F6FEF7FEF8AE40E94AA
:1052D00047BB082F8AE50E94F1BAF82E811105C05C
:1052E00081E50E94F1BAD82E01C0D12C17FD06C06D
:1052F00007FD04C0F11009C0D11007C00E9465C2AB
:1053000086EE95E00E947CC171C1133010F4033029
:1053100038F00E9465C28FEF99E00E947CC166C19F
:10532000E12E110FFF08002E000C110B0E94BABADB
:10533000D701AA0FBB1FDD2081F0FD01EE0DFF1D7F
:10534000E00FF11FEE0FFF1FEE0FFF1FEE55FC4F9A
:10535000208131814281538103C020E030E0A901E6
:10536000EA0EFB1E0E0D1F1D000F111F000F111F57
:105370000E551C4F0F94EE20D8016D937D938D93A5
:105380009C93139733C10F94E50581112FC10DE54F
:1053900015E0EDEAF4E1F9A3E8A39E012F5F3F4F8A
:1053A000190149E6C42E45E0D42E7901F801659132
:1053B000759185919491A8A1B9A18D909D90AD9082
:1053C000BD90B9A3A8A3A50194010F94ED202B01D2
:1053D0003C01F701608371838283938320E030E096
:1053E00040EA51EC0F944E2387FD0AC020E030E0E4
:1053F00040EA51E4C301B2010F94F81918162CF4D5
:10540000F601849118160CF4B1C7D7018D909D90C8
:10541000AD90BD907D0120E030E040EA51ECC50147
:10542000B4010F944E2387FDACC720E030E040EA82
:1054300051E4C501B4010F94F81918160CF0B5C762
:10544000A0C70E949C44D2C00E9415FBCFC061E05F
:1054500083E50E9462BB91E089270E945EFCC6C082
:1054600081E08093A1030E9435491092A103882313
:1054700009F4BCC00E9469C28FE995E00E947CC11A
:10548000B5C080913C1482FFB1C0806480933C140D
:10549000ADC00E94FFE5082F87FDA8C085E50E94EA
:1054A000F1BA8823B1F1E02E002E000CFF080E9413
:1054B000BABA4B015C0120E030E0A9010F944E2301
:1054C00087FF04C0B7FAB094B7F8B094C70123E0DF
:1054D000880F991F2A95E1F79C0127563C4F7901C7
:1054E000D9018D929D92AD92BC92139720E030E04D
:1054F00048E453E4C501B4010F944E2318164CF44C
:1055000080E090E0A8E4B3E4F70180839183A28374
:10551000B3838CE40E94F1BA882309F467C0002E9B
:10552000000C110B0E94BABA6B017C0120E030E044
:10553000A9010F944E2387FF04C0F7FAF094F7F8FF
:10554000F09420E030E048E453E4C701B6010F9442
:105550004E23980193E0220F331F9A95E1F7F9014A
:10556000E756FC4F18162CF0C482D582E682F782EB
:105570003DC080E090E0A8E4B3E484839583A683F3
:10558000B78334C00E940AE731C00E9445692EC02B
:1055900081E080930B021092980360E083E50E9403
:1055A00062BB811123C00E945E6820C00F94430437
:1055B0001DC00091DB041091DC040023B9F00E94AF
:1055C00069C284E50E949933B8017727072E000C41
:1055D000880B990B0E940D3480E20E94993382E37C
:1055E00096E00E947CC102C00F9443040E944E6862
:1055F0002196FFAD2197F093A914C05BDF4F0FB642
:10560000F894DEBF0FBECDBFDF91CF911F910F91F8
:10561000FF90EF90DF90CF90BF90AF909F908F90D2
:105620007F906F905F904F903F902F90089511E082
:1056300022E02216310409F010E020E030E0A90158
:10564000C701B6010F94F819881F8827881F1813FF
:10565000A4C020E030E040E85FE328A739A74AA7CC
:105660005BA728A139A14AA15BA1C501B4010F9490
:10567000ED2020E030E040E05FE30F945E1A68A385
:1056800079A38AA39BA32CA13DA14EA15FA1C30135
:10569000B2010F94ED2020E030E040E05FE30F9492
:1056A0005E1A6CA37DA38EA39FA328A139A14AA152
:1056B0005BA1CA01B9010F945E1A4B015C012CA1D8
:1056C0003DA14EA15FA1CA01B9010F945E1A9B01D1
:1056D000AC01C501B4010F94EE200F949C234B0143
:1056E0005C019B01AC01C701B6010F94ED202B01B9
:1056F0003C01A5019401C701B6010F94EE209B0166
:10570000AC01C301B2010F945E1A6B017C0120E071
:1057100030E0A9010F944E2387FD07C0C701B601F1
:105720000F949C232B013C0103C0412C512C3201CE
:105730006CA17DA18EA19FA19058A50194010F9409
:10574000E82128A539A54AA55BA50F945E1AA301F7
:1057500092010F945E1A28A139A14AA15BA10F946E
:10576000EE206B017C01A501940168A179A18AA1B9
:105770009BA10F94E82128A539A54AA55BA50F9404
:105780005E1AA30192010F945E1A2CA13DA14EA1B5
:105790005FA10F94EE200C94A71B80E090E0A0E89E
:1057A000BFEB88A799A7AAA7BBA75BCF0E9465C23A
:1057B00087E69AE00E947CC119CF20E030E0A90181
:1057C000C701B6010F94F819882381F318A619A60A
:1057D0001AA61BA6A7019601505828A339A34AA3CD
:1057E0005BA388A599A5AAA5BBA5B0588CA39DA32A
:1057F000AEA3BFA3CA01B9010F945E1A4B015C01AD
:105800002CA13DA14EA15FA1CA01B9010F945E1A5E
:105810009B01AC01C501B4010F94EE200F949C23B1
:105820006CAF7DAF8EAF9FAF2091AD143091AE14B1
:105830004091AF145091B0142CA73DA74EA75FA77D
:10584000A70196016CA57DA58EA59FA50F94EE20BE
:1058500025966CAF7DAF8EAF9FAF25978091B11429
:105860009091B214A091B314B091B41488AB99ABD9
:10587000AAABBBAB28A539A54AA55BA5BC01CD0148
:105880000F94EE2029966CAF7DAF8EAF9FAF299716
:105890002091CA043091CB044091CC045091CD04A6
:1058A0002CAB3DAB4EAB5FAB25962CAD3DAD4EADBD
:1058B0005FAD25976CA97DA98EA99FA90F94ED20B6
:1058C0006B017C018091CE049091CF04A091D00413
:1058D000B091D10488AF99AFAAAFBBAF29962CADD8
:1058E0003DAD4EAD5FAD2997BC01CD010F94ED20CC
:1058F0004B015C01A701960168A179A18AA19BA136
:105900000F945E1A2B013C01A50194016CA17DA1AD
:105910008EA19FA10F945E1A9B01AC01C301B2013D
:105920000F94EE202B013C01A501940168A179A1FF
:105930008AA19BA10F945E1A4B015C01A7019601FD
:105940006CA17DA18EA19FA10F945E1A9B01AC0159
:10595000C501B4010F94ED20A30192010F946D21B4
:105960006B017C0120E030E0A9010F94F81987FF5A
:105970000AC02BED3FE049EC50E4C701B6010F949B
:10598000EE206B017C012BED3FE049EC50E4C701B8
:10599000B6010F94E82120E030E040EC51E40F9490
:1059A0005E1A0F94CC210F9461228B01672B11F4A6
:1059B00001E010E032E02316310451F42BED3FE01A
:1059C00049EC50E4C701B6010F94ED206B017C0156
:1059D00020E030E0A901C701B6010F94F819811148
:1059E00022C02CA93DA94EA95FA96CA57DA58EA5B5
:1059F0009FA50F94F819811116C028AD39AD4AAD95
:105A00005BAD68A979A98AA99BA90F94F81981119E
:105A10000AC008E110E08BEDC82E8FE0D82E89EC8B
:105A2000E82E80E4F82E8091B5149091B614A091E0
:105A3000B714B091B81488AB99ABAAABBBAB9C01BF
:105A4000AD016091D2047091D3048091D4049091FF
:105A5000D5040F94ED202B013C01A70196016CADFC
:105A60007DAD8EAD9FAD0F945E1A4B015C0120E0C1
:105A700030E0A901C301B2010F94F8198823C9F0DD
:105A8000A5019401C501B4010F945E1A4B015C019C
:105A9000A3019201C301B2010F945E1A9B01AC01F4
:105AA000C501B4010F94EE200F949C234B015C01BF
:105AB0000DC020E030E0A901C501B4010F944E23D0
:105AC00087FF04C0B7FAB094B7F8B0942FE632E17C
:105AD00043E85AE3C501B4010F94F81987FDFEC1EC
