:100000000C9443190C9474190C9474190C9474196D
:100010000C9474190C9474190C9474190C9474192C
:100020000C9474190C9474190C9474190C9474191C
:100030000C9474190C9474190C9474190C9474190C
:100040000C9474190C94D49A0C9474190C9474191B
:100050000C9474190C9474190C948C920D94CA011C
:100060000C9474190C9478380C946E380C947419A0
:100070000C9474190C9474190C9474190C947419CC
:100080000C9489310C9474190C9474190C9474198F
:100090000C9474190C9474190C9474190C947419AC
:1000A0000C9474190C9474190C945B310C9474199D
:1000B0000C9474190C9474190C9474190C942D31BB
:1000C0000C9474190C9474190C9474190C9474197C
:1000D0000C9474190C9474190C9474190C9474196C
:1000E0000C947419F172F472E372E772ED722B736F
:1000F000F872FC72027306730A7310731473187328
:100100002B731E73227326734B77507755775F7767
:100110006977E27773777B7783778D779777A177A6
:10012000B077BA77E277C477CE77D877084AD73BEB
:100130003BCE016E84BCBFFDC12F3D6C74319ABDB6
:1001400056833DDA3D00C77F11BED9E4BB4C3E91DA
:100150006BAAAABE000000803F05A84CCDB2D44EC9
:10016000B93836A9020C50B9918688083CA6AAAACB
:100170002ABE000000803F000C94378B0C94339A09
:100180000C941FE00C945AB30C94D6DA0C944BB335
:100190000C94A3CC0C9410730C9402730C948255A1
:1001A0000C94B5E40C9497770C9426730C949DD31F
:1001B0000C94D3E10C9442500C941EDA0C9476D338
:1001C0000C941FD90C9423A20C94B2DF0C94B8E4C5
:1001D0000C94DBE60C941B540C94464E0C94067362
:1001E0000C9451DC0C9419D90C94F1720C945CB3FE
:1001F0000C9453DC0C94B0770C944B770C946E8A6F
:100200000C94D8E10C9467C90C94DDDF0C94485031
:100210000C9455770C9477A50C9447A50C947B7798
:100220000C94C1D30C9462D50C94D8770C94E372DF
:100230000C94D2A10C94378A0C9468D30C94B251CC
:100240000C94A5B60C94888A0C94C4770C949CA149
:100250000C9454B30C9454500C94C9E10C94305049
:100260000C94324E0C942EE20C94544E0C94B354D5
:100270000C9414730C9418730C94ED720C9426E285
:100280000C94FC720C9455DC0C9436500C94FAE2ED
:100290000C94EDA10C94ADDF0C944E500C94E2C87C
:1002A0000C9438540C94684E0C94B7A10C9475A51A
:1002B0000C94A48A0C948ACC0C94D7D00C949AD326
:1002C0000C9484D30C94D7DF0C942B730C94F4729D
:1002D0000C946F8A0C9422730C9454D30C9408A23F
:1002E0000C9467CC0C94BBE40C942A500C940A73C5
:1002F0000C9497D30C941E4E0C94CEE10C9457DCC6
:100300000D94450B0C9460A50C941E730C945F77B0
:100310000C9450770C94E2770C9473770C94E772FA
:100320000C94CE770C949CE40C94A1770C94748A72
:100330000C9469DF0C94E3DF0C948D770C94AE522F
:100340000C94F44D0C9411540C9455540C94B7DF48
:100350000C94D1520C94BAD30C9467B30C9446B459
:100360000C94F8720C94BA770C94AF540C9491A33B
:100370000C9483910C9413D90C9473A50D94040BD5
:100380000C9425B50C94618A0C9469770C94D7D1A0
:100390000C940A4E0C94F6C80C94D1DF0C944FDCEC
:1003A0000C946FA50C94A8DF0C9483770C94725472
:1003B0000C943C500C9471A54E414E494E495459F1
:1003C000494E46CDCCCC3D0AD7233C17B7D1387720
:1003D000CC2B329595E6241FB14F0A000020410036
:1003E00000C84200401C4620BCBE4CCA1B0E5AAE80
:1003F000C59D7400407A10F35A00A0724E1809008F
:1004000010A5D4E80000E87648170000E40B540279
:100410000000CA9A3B000000E1F5050000809698B4
:1004200000000040420F000000A086010000001004
:100430002700000000E80300000000640000000046
:10044000000A00000000000100000000002C76D827
:1004500088DC674F0823DFC1DFAE59E1B1B796E50D
:10046000E3E453C63AE651997696E8E6C28426EB71
:10047000898C9B62ED407C6FFCEFBC9C9F40F2BA84
:10048000A56FA5F490055A2AF75C936B6CF9676D1C
:10049000C11BFCE0E40D47FEF520E6B500D0ED9071
:1004A0002E0300943577050080841E080000204E3E
:1004B0000A000000C80C333333330F986E128311D7
:1004C00041EF8D2114893BE65516CFFEE6DB18D1AE
:1004D000844B381BF77C1D901DA4BBE42420328480
:1004E000725E228100C9F124ECA1E53D27000000E5
:1004F000000000000000000000FFFFFF27052205AC
:100500001B0514050605434F4D4D554E49434154B7
:10051000494F4E0044525952554E004552524F5287
:100520005300494E464F004543484F006F6B00450E
:100530004550524F4D204F4B0A004F66667365740D
:1005400073204170706C696564004572723A205482
:100550006F6F206661722100546F6F206661722098
:1005600066726F6D207265666572656E6365207078
:100570006F696E740A004D34323120696E636F7298
:100580007265637420706172616D65746572207547
:10059000736167650A006469730043290A00616238
:1005A0006C656420286D696E2074656D7020004351
:1005B0006F6C642065787472756465732061726510
:1005C0002000496E76616C69642065787472756488
:1005D00065720A0020643A0020693A0020703A00EF
:1005E00050726F6265204F6666736574205A0050C2
:1005F000726F6265204F66667365745A3A200020F8
:100600006F7574206F662072616E67650A002053F3
:100610006572766F200020466C6F773A20003F4A63
:10062000206F7574206F662072616E6765202830B8
:100630002E303120746F20302E33290A00205400D0
:10064000205200416363656C65726174696F6E3A34
:100650002050004D31343520533C696E6465783E3E
:10066000206F7574206F662072616E676520283078
:100670002D31290A002F2F20004348414D42455279
:100680005F54454D5045524154555245004D4F54CD
:10069000494F4E5F4D4F44455300544845524D41DC
:1006A0004C5F50524F54454354494F4E00415554AE
:1006B0004F5245504F52545F53445F535441545529
:1006C000530050524F4D50545F535550504F525459
:1006D00000454D455247454E43595F5041525345A1
:1006E0005200434153455F4C494748545F42524989
:1006F0004748544E45535300544F47474C455F4C71
:10070000494748545300534F4654574152455F5050
:100710004F574552004255494C445F50455243455E
:100720004E54004C4556454C494E475F4441544158
:10073000005A5F50524F4245004155544F4C455668
:10074000454C005052494E545F4A4F420050524F60
:100750004752455353004155544F5245504F525400
:100760005F54454D5000564F4C554D4554524943EA
:100770000042494E4152595F46494C455F545241EF
:100780004E534645520053455249414C5F584F4ED7
:100790005F584F4646004649524D574152455F4EBD
:1007A000414D453A4D61726C696E20322E302E33C8
:1007B00020284769744875622920534F5552434594
:1007C0005F434F44455F55524C3A68747470733AB6
:1007D0002F2F6769746875622E636F6D2F4D61727C
:1007E0006C696E4669726D776172652F4D61726CCE
:1007F000696E2050524F544F434F4C5F56455253F1
:10080000494F4E3A312E30204D414348494E455FC5
:10081000545950453A3344205072696E74657220C1
:1008200045585452554445525F434F554E543A3102
:1008300020555549443A63656465326132662D340A
:100840003161322D343734382D396231322D6335F0
:10085000356336326633363766660A0033442050D5
:1008600072696E746572204F46462E004D313133E9
:100870002053004D3131322053687574646F776EA8
:10088000006F66660044454255473A000A5374615A
:1008900074733A2046696C616D656E74207573657A
:1008A000643A20002C204C6F6E67657374206A6F69
:1008B000623A2000546F74616C2074696D653A204F
:1008C000002C204661696C65643A20002C20466942
:1008D0006E69736865643A20005072696E74733A89
:1008E000200053746174733A200050726F74656312
:1008F0007465642050696E0A005072696E742074C9
:10090000696D653A200044656C6574696F6E206698
:1009100061696C65642C2046696C653A2000466903
:100920006C652064656C657465643A00286E6F20A0
:1009300066696C65290043757272656E742066691C
:100940006C653A20005344207072696E74696E675A
:10095000206279746520004E6F74205344207072B9
:10096000696E74696E670A00456E642066696C651D
:10097000206C6973740A00426567696E2066696C51
:1009800065206C6973740A004E6F204D6F76652E7A
:1009900000436C69636B20746F20526573756D65DD
:1009A0002E2E2E004D65736820706F696E74206363
:1009B000616E6E6F74206265207265736F6C766510
:1009C000640A005A2050726F62652050617374206F
:1009D0004265640A005A2050726F6265205061734C
:1009E000742042656400486F6D652058592066691F
:1009F0007273740A00486F6D6520585920466972F9
:100A0000737400536C6565702E2E2E004572726FE4
:100A1000722077726974696E6720746F2045455043
:100A2000524F4D210A00627573793A2070617573D7
:100A3000656420666F7220696E7075740A00627555
:100A400073793A2070617573656420666F722075E2
:100A50007365720A00627573793A2070726F63650C
:100A60007373696E670A004E6F20436865636B732A
:100A7000756D2077697468206C696E65206E756D80
:100A80006265722C204C617374204C696E653A204B
:100A900000636865636B73756D206D69736D617458
:100AA00063682C204C617374204C696E653A200099
:100AB0004C696E65204E756D626572206973206E9B
:100AC0006F74204C617374204C696E65204E756D97
:100AD0006265722B312C204C617374204C696E65F9
:100AE0003A20004D313130004D313137004D333136
:100AF0000053442072656164206572726F720A004F
:100B0000446F6E65207072696E74696E67206669E5
:100B10006C650A002121204B494C4C2063617573A0
:100B20006564206279204B494C4C20627574746F67
:100B30006E2F70696E0A002121204B494C4C2063B6
:100B4000617573656420627920746F6F206D7563C1
:100B50006820696E6163746976652074696D6520CB
:100B60002D2063757272656E7420636F6D6D616E9A
:100B7000643A2000506C656173652052657365743A
:100B8000005052494E5445522048414C544544006F
:100B900025533A202553004B494C4C45442E200008
:100BA0005072696E7465722068616C7465642E2081
:100BB0006B696C6C28292063616C6C6564210A0088
:100BC0003637260305063C3D380E3B3A2E303E12A2
:100BD000162724221E403F08440A0743080907003D
:100BE0000124F4D43050C38E20C2A24017828B70EF
:100BF00011127A910D816CD90AA861E108C7586673
:100C000007615143061E4B5D05C145A7041A4111FA
:100C100004093D9803713931034036DB0265339195
:100C200002D4305402802E1D02632CEE01752AC5B9
:100C300001B028A001102781018F2564012B244BCE
:100C400001E0223401AC211F018D200D01801FFC29
:100C500000841EED00971DDF00B81CD200E61BC605
:100C600000201BBC00641AB200B219A8000A19A027
:100C7000006A189900D117910040178B00B51684AF
:100C80000031167E00B31579003A157300C7146F52
:100C90000058146A00EE1366008813630025135E83
:100CA00000C7125B006C12570015125400C111519D
:100CB0000070114F0021114B00D61049008D1047D4
:100CC000004610440002104200C00F4000800F3E5A
:100CD00000420F3C00060F3B00CB0E3800930E374E
:100CE000005C0E3500270E3400F30D3200C10D31CB
:100CF00000900D3000600D2E00320D2D00050D2CE2
:100D000000D90C2B00AE0C2900850C29005C0C27A7
:100D100000350C27000E0C2600E80B2400C40B2421
:100D200000A00B23007D0B23005A0B2100390B215F
:100D300000180B2000F80A1F00D90A1E00BB0A1E6B
:100D4000009D0A1D00800A1D00630A1C00470A1B43
:100D5000002C0A1B00110A1A00F7091A00DD0919F4
:100D600000C4091900AB091900920917007B091882
:100D700000630917004C09160036091600200916F1
:100D8000000A091500F5081500E0081400CC081445
:100D900000B8081400A4081400900813007D08127D
:100DA000006B08130058081200460812003408119E
:100DB00000230811001208110001081100F00710AB
:100DC00000E0071000D0071000C0071000B0070FA8
:100DD00000A107100091070E0083070F0074070F92
:100DE0000065070E0057070E0049070E003B070D70
:100DF000002E070E0020070D0013070D0006070D3B
:100E000000F9060C00ED060D00E0060C00D4060CFF
:100E100000C8060C00BC060C00B0060C00A4060BB3
:100E20000099060C008D060B0082060B0077060B5E
:100E3000006C060B0061060A0057060B004C060A00
:100E40000042060A0038060A002E060A0024060A96
:100E5000001A060A001006090007060A00FD050927
:100E600000F4050900EB050900E2050900D90509B0
:100E700000D0050900C7050900BE050900B5050831
:100E800000AD050800A50509009C050800940508AB
:100E9000008C050800840508007C0508007405081E
:100EA000006C050700650508005D0507005605088C
:100EB000004E0507004705070040050800380507F4
:100EC00000310507002A050700230507001C050659
:100ED00000160507000F05070008050600020507B4
:100EE00000FB040600F5040700EE040600E8040613
:100EF00000E2040700DB040600D5040600CF040668
:100F000000C9040600C3040600BD040600B70406B9
:100F100000B1040500AC040600A6040600A0040508
:100F2000009B04060095040500900406008A040551
:100F30000085040500800406007A04050075040598
:100F400000700405006B04050066040500610405DB
:100F5000005C04050057040500520405004D04051B
:100F60000048040500430405003E0404003A04055B
:100F70000035040500300404002C04050027040497
:100F800000230405001E0404001A040400160405CE
:100F900000110404000D0404000904050004040405
:100FA0000000040400FC030400F8030400F403043C
:100FB00000F0030400EC030400E8030400E403046D
:100FC00000E0030400DC030400D8030400D403049D
:100FD00000D0030400CC030400C8030300C50303CE
:100FE0000024F404D9201BC40C5C0E9804C4095FCF
:100FF0000265077101F405F900FB04B3004804879A
:1010000000C10369005803550003034500BE023ABE
:10101000008402310053022A002902250004022024
:1010200000E4011C00C8011900AF01170098011469
:101030000084011300710110006101100051010EC4
:101040000043010D0036010B002B010B0020010BAA
:1010500000150109000C01090003010800FB00084C
:1010600000F3000800EB000700E4000600DE0006C5
:1010700000D8000600D2000600CC000500C700051D
:1010800000C2000500BD000400B9000400B5000462
:1010900000B1000400AD000400A9000400A5000395
:1010A00000A20003009F0004009B000300980003BF
:1010B000009500020093000300900003008D0002E1
:1010C000008B0003008800020086000200840003F9
:1010D00000810002007F0002007D0002007B000210
:1010E000007900020077000100760002007400021F
:1010F0000072000100710002006F0002006D00012B
:10110000006C0002006A0001006900020067000133
:101110000066000100650001006400020062000139
:101120000061000100600001005F0002005D00013D
:10113000005C0001005B0001005A00010059000141
:101140000058000100570001005600010055000141
:101150000054000100530000005300010052000140
:101160000051000100500001004F0001004E00003E
:10117000004E0001004D0001004C0001004B00003A
:10118000004B0001004A0001004900010048000036
:101190000048000100470001004600000046000131
:1011A000004500000045000100440001004300002C
:1011B0000043000100420000004200010041000025
:1011C0000041000100400001003F0000003F00011D
:1011D000003E0000003E0001003D0000003D000117
:1011E000003C0000003C0000003C0001003B00000F
:1011F000003B0001003A0000003A00010039000005
:1012000000390001003800000038000000380001FB
:1012100000370000003700010036000000360000F3
:1012200000360001003500000035000000350001E7
:1012300000340000003400000034000100330000DE
:1012400000330000003300010032000000320000D3
:1012500000320001003100000031000000310001C7
:10126000003000000030000000300001002F0000BE
:10127000002F0000002F0000002F0001002E0000B2
:10128000002E0000002E0001002D0000002D0000A7
:10129000002D0000002D0001002C0000002C00009B
:1012A000002C0000002C0001002B0000002B00008F
:1012B000002B0000002B0001002A0000002A000083
:1012C000002A0000002A0001002900000029000077
:1012D000002900000029000000290001002800006A
:1012E000002800000028000000280000002800015D
:1012F0000027000000270000002700000027000052
:101300000027000100260000002600000026000043
:101310000026000000260001002500000025000036
:101320000025000000250000002500000025000128
:10133000002400000024000000240000002400001D
:10134000002400010023000000230000002300000F
:101350000023000000230000002300000023000100
:1013600000220000002200000022000000220000F5
:1013700000220000002200010021000000210000E6
:1013800000210000002100000021000000210000D9
:1013900000210001002000000020000000200000CB
:1013A00000200000002000000020000000200000BD
:1013B00000200001001F0000001F0000001F0000AF
:1013C000001F0000001F0000001F0000001F0001A0
:1013D000001E0000001E0000001E0000001E000095
:1013E00000393000003325000087190000B00F00DD
:1013F00000DB080000BD040000740200003F010093
:1014000000687474703A2F2F6D61726C696E667724
:101410002E6F72670020322E302E33002020506C49
:10142000616E6E6572427566666572427974657347
:101430003A20002046726565204D656D6F72793ADD
:101440002000436F6D70696C65643A2046656220C8
:10145000203320323032300A00204C617374205522
:101460007064617465643A20323032302D30312D31
:101470003331207C20417574686F723A2028706186
:10148000656E69616E2C206368657779626163635C
:101490006120636F6E666967290A00322E302E3331
:1014A0000A004D61726C696E0020536F667477613B
:1014B00072652052657365740A0020576174636811
:1014C000646F672052657365740A002042726F77FB
:1014D0006E206F75742052657365740A002045781C
:1014E0007465726E616C2052657365740A00506F8A
:1014F00077657255700A006175746F25632E6700F9
:101500004732385859006572726F72207772697469
:10151000696E6720746F2066696C650A00446F6E9F
:101520006520736176696E672066696C652E0A00B6
:101530004D323900456E6473746F7073002553200B
:10154000256320256320256320256300205A3A0067
:1015500020593A00656E6473746F70732068697403
:101560003A20006563686F3A004572726F723A0004
:1015700042696C696E656172204C6576656C696E56
:101580006720477269643A0A0053544F50504544EB
:101590002E20005072696E7465722073746F7070C3
:1015A00065642064756520746F206572726F727354
:1015B0002E2046697820746865206572726F7220EB
:1015C000616E6420757365204D39393920746F2040
:1015D000726573746172742E202854656D70657223
:1015E00061747572652069732072657365742E204D
:1015F0005365742069742061667465722072657326
:1016000074617274696E67290A0021212053544F56
:10161000502063616C6C65642062656361757365FD
:10162000206F6620424C546F756368206572726F3C
:1016300072202D20726573746172742077697468EA
:10164000204D3939390A004F46460A004661646523
:10165000204865696768742000426564204C65769F
:10166000656C696E6720004661696C656420746F03
:1016700020656E61626C6520426564204C6576650C
:101680006C696E670A00496E76616C6964206D65ED
:1016900073682E0A0046696C2E204469612E00454D
:1016A00020696E206D6DC2B3002002204661637414
:1016B000002002204D6178002002204D696E00411B
:1016C00075746F74656D70005654726176204D6943
:1016D0006E00566D696E00566D6178204500566D3E
:1016E0006178205A00566D6178205900566D6178F6
:1016F00020580050726F62696E6720506F696E7477
:101700000025532025692F25690050726F62696E8C
:1017100067206D65736820706F696E7420002028E3
:1017200044525952554E2900473239204175746F41
:1017300020426564204C6576656C696E67003F20C9
:10174000284C2C522C462C4229206F7574206F6631
:1017500020626F756E64732E0A003F2856296572E9
:10176000626F7365206C6576656C20696D706C6165
:10177000757369626C652028302D34292E0A004269
:101780006164205A2076616C75650A004E6F206294
:10179000696C696E65617220677269640A004465EC
:1017A00076696174696F6E0025533A202573005382
:1017B00074616E6461726420446576696174696FF6
:1017C0006E3A20002052616E67653A20004D6561D7
:1017D0006E3A200046696E6973686564210A0020CC
:1017E00072616E67653A2000207369676D613A2007
:1017F00000206D65616E3A20003A207A3A20002080
:101800006F662000476F696E6720746F3A2058003A
:1018100043570A00206469723A0020616E676C6564
:101820003A005374617274207261646975733A008E
:101830004D343820506F696E740025533A2025646A
:101840002F256400506F736974696F6E696E67202D
:101850007468652070726F62652E2E2E0A003F4EEE
:10186000756D626572206F66206C65677320696EA6
:10187000206D6F76656D656E74206E6F7420706C70
:1018800061757369626C652028302D3135292E0A07
:10189000003F2028582C5929206F7574206F66202E
:1018A000626F756E64732E0A003F53616D706C65D4
:1018B0002073697A65206E6F7420706C617573692E
:1018C000626C652028342D3530292E0A004D3438BD
:1018D000205A2D50726F6265205265706561746187
:1018E00062696C69747920546573740A007C3C3EAB
:1018F0005E2B3D3F2F5B5D3B2C2A225C00206279F2
:101900007465733B20637263200053657474696E61
:1019100067732053746F72656420280045455052E8
:101920004F4D206461746173697A65206572726FCE
:10193000722E0A002073746F72656420736574746C
:10194000696E6773207265747269657665642028B4
:1019500000202863616C63756C6174656429210AD9
:101960000020213D2000454550524F4D2043524319
:10197000206D69736D61746368202D202873746F06
:10198000726564292000496E6465783A2000204D14
:1019900061726C696E3D563735290A0045455052D3
:1019A0004F4D2076657273696F6E206D69736D613E
:1019B0007463682028454550524F4D3D0050726970
:1019C0006E742066726F6D204D65646961004D6FA5
:1019D00076652025736D6D004D6F766520302E3154
:1019E0006D6D004D6F766520316D6D004D6F7665C4
:1019F0002031306D6D004D6F766520417869730040
:101A0000486F74656E6420746F6F20636F6C640040
:101A10004578747275646572004D6F7665205A0062
:101A20004D6F76652059004D6F7665205800000097
:101A30002100240027002A002D003000330001017E
:101A40000000040107010A0100002200250028000F
:101A50002B002E00310034000201000005010801B6
:101A60000B01000020002300260029002C002F007D
:101A7000320000010000030106010901050505050A
:101A8000070508080808020202020A0A08080404F6
:101A90000404010101010101010103030303030324
:101AA0000303040707070C0C0C0C0C0C0C0C0202B3
:101AB000020206060606060606060B0B0B0B0B0BB0
:101AC0000B0B01021020200808102040102040803D
:101AD00002010201080402010102040810204080F2
:101AE0008040201008040201800402018040201080
:101AF00008040201080402010102040810204080C9
:101B0000010204081020408000000A0B02090C0D9D
:101B10000E080703040100000000000000000000A0
:101B200000000000000000000000000000000000B5
:101B30000000000012111000000000000000000072
:101B40000000000000000000000000000000207401
:101B50006F6F206C6F6E6720657874727573696F34
:101B60006E2070726576656E7465640A0020636F1E
:101B70006C6420657874727573696F6E207072651D
:101B800076656E7465640A002053697A653A2000B0
:101B900043616E6E6F74206F70656E207375626442
:101BA0006972200053442063617264206F6B0A00E5
:101BB0006F70656E526F6F74206661696C65640A40
:101BC00000766F6C756D652E696E6974206661694B
:101BD0006C65640A00534420696E6974206661690B
:101BE0006C0A004D3234004D3233202573004669B3
:101BF0006C652073656C65637465640A0046696C86
:101C000065206F70656E65643A2000454E44205330
:101C10005542524F5554494E450A002220706F7369
:101C2000002220706172656E743A22005355425250
:101C30004F5554494E452043414C4C2074617267C6
:101C400065743A2200747279696E6720746F20633C
:101C5000616C6C207375622D67636F6465206669C3
:101C60006C6573207769746820746F6F206D616E86
:101C700079206C6576656C732E204D4158206C651B
:101C800076656C2069733A310A0057726974696E1F
:101C90006720746F2066696C653A20006672657310
:101CA0006800646F696E67004E6F77200048656159
:101CB00074696E67206661696C65640045313A201D
:101CC0000045303A20004D53317C4D53327C4D530A
:101CD000332050696E730A00453100626564002C40
:101CE0002073797374656D2073746F7070656421EF
:101CF000204865617465725F49443A200048656117
:101D000074696E67204661696C656400202D204906
:101D10006E76616C69642065787472756465722092
:101D20006E756D62657220210A004572723A204D0F
:101D3000415854454D50004D415854454D50207424
:101D40007269676765726564004572723A204D4931
:101D50004E54454D50004D494E54454D50207472DF
:101D600069676765726564004D38342058205920D2
:101D70005A204500202F002042403A0020403A00DF
:101D80001000C90210012C0140012201700118014C
:101D9000B0010E01F00104015002FA00B002F0009F
:101DA0003003E600D003DC009004D2007005C800C8
:101DB000A006BE000008B400B009AA00D00BA00025
:101DC000600E960060118C000015820020197800CA
:101DD000C01D6E00A0226400B0275A00902C500055
:101DE00000314600E0343C0010383200903A2800C0
:101DF000603C1E00A03D1400803E0A00203F000011
:101E000070012C0190012701B0012201C0011D01C8
:101E1000F00118011002130130020E0160020901E5
:101E200090020401C002FF000003FA004003F50025
:101E30008003F000D003EB002004E6007004E10012
:101E4000E004DC004005D700C005D2004006CD000C
:101E5000D006C8008007C3003008BE00F008B900F3
:101E6000C009B400B00AAF00B00BAA00D00CA500A6
:101E7000000EA000500F9B00C01096005012910061
:101E800000148C00C0158700B0178200B0197D00C7
:101E9000D01B7800001E730040206E009022690065
:101EA000F024640040275F0090295A00E02B550081
:101EB000102E500020304B0010324600E03341001D
:101EC00090353C001037370070383200A0392D00B3
:101ED000B03A2800A03B2300603C1E00103D1900D2
:101EE000903D1400103E0F00703E0A00C03E0500F9
:101EF000003F0000403FFBFF803FF6FFC03FF1FF87
:101F000000FFFDFCFAF8F6F4F2F0EEECEAE9E7E5A2
:101F1000E3E1E0DEDCDAD9D7D5D4D2D0CFCDCBCA5D
:101F2000C8C7C5C3C2C0BFBDBCBAB9B7B6B4B3B2E7
:101F3000B0AFADACAAA9A8A6A5A4A2A1A09E9D9C45
:101F40009A99989795949392908F8E8D8B8A898881
:101F5000878684838281807F7E7D7B7A797877769D
:101F60007574737271706F6E6D6C6B6A6968676699
:101F70006564636261605F5E5D5C5B5A5958585787
:101F800056555453525150504F4E4D4C4B4A4A495E
:101F900048474646454443424241403F3E3E3D3C21
:101FA0003B3B3A39383837363535343332323130D5
:101FB000302F2E2E2D2C2B2B2A292928272726257A
:101FC0002524232322212120201F1E1E1D1C1C1B13
:101FD0001B1A19191818171616151514131312129F
:101FE0001111100F0F0E0E0D0D0C0C0B0A0A090922
:101FF000080807070606050504040303020201009A
:10200000004573746570732F6D6D005A737465703D
:10201000732F6D6D005973746570732F6D6D00585B
:1020200073746570732F6D6D00496E6974004D3463
:10203000323800496E697469616C697A652045457A
:1020400050524F4D0046696C616D656E740053745B
:102050006570732F6D6D0050726F6265204F6666FC
:1020600073657473004A65726B00416363656C65E8
:10207000726174696F6E0056656C6F636974790084
:1020800053657420486F6D65204F66667365747381
:1020900000436D643A2053746F7700436D643A20B7
:1020A0004465706C6F7900436D643A2053572D4D31
:1020B0006F646500436D643A2053656C662D54650A
:1020C000737400436D643A205265736574000000B8
:1020D00048430000484300004843000048420000D5
:1020E00048420000A0400202040000A0400000A0FE
:1020F00040000000400000000100000001000080DE
:1021000000555555000000400033333300AAAA2A79
:10211000004992240000002000C7711C0099991901
:1021200000D1451700555515003BB1130024491245
:102130000011111100000010000F0F0F00E3380E06
:102140000043790D00CCCC0C00C3300C00E8A20B8E
:102150000064210B00AAAA0A00703D0A009DD8095C
:1021600000427B090092240900DCD308008888081B
:10217000001042080000000800F0C1070087870730
:102180000075500700711C07003EEB0600A1BC065D
:10219000006990060066660600703E06006118063B
:1021A0000017F4050074D105005BB00500B290057E
:1021B00000627205005555050078390500B81E0506
:1021C00000050505004EEC040087D40400A1BD0401
:1021D0000090A7040049920400C17D0400EE690448
:1021E00000C7560400444404005C32040008210483
:1021F0000041100400000004003FF00300F8E00379
:102200000026D20300C3C30300CCB503003AA803E1
:10221000000A9B0300388E0300C08103009F7503F2
:1022200000D0690300505E03001D530300344803CF
:1022300000913D03003333030016290300381F03C8
:102240000097150300300C0300030303000BFA0290
:102250000049F10200BAE802005CE002002DD80259
:10226000002DD0020059C80200B0C0020031B902EE
:1022700000DAB10200AAAA0200A0A30200BC9C02DC
:1022800000FA9502005C8F0200DF88020082820261
:1022900000457C02002776020027700200436A0294
:1022A000007C640200D05E02003F590200C8530265
:1022B0000020436F756E7420583A0020453A00485C
:1022C0006F6D696E67204661696C65640057617265
:1022D0006E696E673A20486F6D696E672042756D52
:1022E000702044697669736F72203C20310A004F78
:1022F0006666004F6E0054656D706572617475722C
:1023000065004D38340044697361626C6520537414
:10231000657070657273004732380A4D343820504A
:102320003130004D34382050726F6265205465732F
:1023300074004661646520486569676874004732C7
:10234000380A473239004C6576656C204265640076
:10235000473238004175746F20486F6D65005072C8
:10236000656865617420504C4120456E6400507270
:10237000656865617420504C41204265640050726C
:1023800065686561742041425320456E6400507257
:102390006568656174204142532042656400436F63
:1023A0006F6C646F776E0050726568656174204170
:1023B0004253005072656865617420504C410020A2
:1023C0006D61783A2000206D696E3A20003F5A20F6
:1023D0006F7574206F662072616E67652028003FFC
:1023E00059206F7574206F662072616E67652028B2
:1023F0002D0020746F20003F58206F7574206F6689
:102400002072616E676520282D0050726F62652012
:102410004F6666736574205800656E7175657565E5
:10242000696E67202200526573656E643A2000254C
:10243000697920256964202569682025696D202532
:1024400069730020573A00452025530042656420F7
:10245000436F6F6C696E672E2E2E004265642048B4
:10246000656174696E672E2E2E0023646566696E41
:10247000652044454641554C545F004B6420004B59
:102480006920004B702000504944204175746F74DE
:10249000756E652066696E69736865642120507584
:1024A0007420746865206C617374204B702C204B11
:1024B0006920616E64204B6420636F6E7374616E7B
:1024C00074732066726F6D2062656C6F7720696E21
:1024D000746F20436F6E66696775726174696F6EA1
:1024E0002E680A00504944204175746F74756E65FA
:1024F000206661696C6564212074696D656F75740F
:102500000A000A20436C61737369632050494420B8
:102510000A00204B643A2000204B693A2000204BEF
:10252000703A20002054753A2000204B753A200064
:1025300020643A200020626961733A2000504944C7
:10254000204175746F74756E652073746172740ABE
:1025500000504944204175746F74756E6520666142
:10256000696C6564212054656D7065726174757263
:102570006520746F6F20686967680A0050494420BD
:102580004175746F74756E65206661696C65642150
:1025900020426164206578747275646572206E757E
:1025A0006D6265720A005072696E742050617573B5
:1025B0006564005061757365205072696E74004DDA
:1025C000656469612052656D6F766564004D656470
:1025D000696120496E7365727465640033442050EC
:1025E00072696E7465722052656164792E00507252
:1025F000696E74696E672E2E2E005072696E74209B
:1026000041626F72746564004D32350050726F62C2
:1026100065205A204F66667365740046616E2053CC
:1026200070656564004E6F7A7A6C65004D61696E05
:1026300000466C6F77002568753A25303268750062
:1026400025303268753A25303268750053440020D1
:1026500020202020202000A10000006900A200000E
:10266000006300B00000000900C10000004100C28A
:102670000000004100C30000004100C40000004110
:1026800000C50000004100C60000004145C7000031
:10269000004300C80000004500C90000004500CD0F
:1026A0000000004900D10000004E00D50000004F9E
:1026B00000D60000004F00D70000007800DC0000CA
:1026C000005500DD0000005900E00000006100E15D
:1026D0000000006100E20000006100E30000006112
:1026E00000E40000006100E50000006100E6000079
:1026F000006165E70000006300E80000006500E994
:102700000000006500EA0000006500EB00000065C5
:1027100000EC0000006900ED0000006900EE000020
:10272000006900EF0000006900F10000006E00F297
:102730000000006F00F30000006F00F40000006F65
:1027400000F50000006F00F60000006F00F80000C8
:10275000006F00F90000007500FA0000007500FB32
:102760000000007500FC0000007500FD000000790D
:1027700000FF000000790004010000410005010095
:102780000061000601000043000701000063000C27
:1027900001000043000D01000063000E0100004431
:1027A000000F010000640011010000640019010025
:1027B0000065001F01000067003001000049003182
:1027C0000100006900410100004C00420100006C62
:1027D00000430100004E00440100006E004801006B
:1027E000006E005901000072005A01000053005BA6
:1027F00001000073005F01000073006001000053DE
:10280000006101000073006501000074006F0100A9
:102810000075007C0100007A007D0100005A007EF6
:102820000100007A00920100006600E302000078D7
:1028300000222000002E001E2100005078222100DE
:1028400000544D902100003C2D922100002D3EB0FF
:102850002100000300BB21000004003C2200007E98
:1028600000482200007E3D60220000213D612200E0
:10287000003D00642200003C3D652200003E3DF129
:102880002300000700A03000003D0021F3010002FA
:1028900000C2F401000500A2000000EC00B000003E
:1028A00000DF00E4000000E100F6000000EF00F7A8
:1028B000000000FD00FC000000F500E3020000EB5A
:1028C0000087030000A5008F030000F400980300B8
:1028D00000F2009E030000E300A3030000F600A93D
:1028E000030000F400AC030000E000AD030000E3CF
:1028F00000B1030000E000B2030000E200B50300F5
:1029000000E300B8030000F200BC030000E400BED6
:10291000030000E300C0030000F700C1030000E66D
:1029200000C3030000E500902100007F0092210019
:10293000007E001A220000E8001E220000F300883A
:10294000250000FF0002300000A1000C300000A2B2
:10295000000D300000A3009B300000DE009C300022
:1029600000DF00A03000003D00A1300000A700A261
:10297000300000B100A3300000A800A4300000B275
:1029800000A5300000A900A6300000B300A7300069
:1029900000AA00A8300000B400A9300000AB00AAD3
:1029A000300000B500AB300000B600AC300000B61F
:1029B000DEAD300000B700AE300000B7DEAF300053
:1029C00000B800B0300000B8DEB1300000B900B28D
:1029D000300000B9DEB3300000BA00B4300000BAF5
:1029E000DEB5300000BB00B6300000BBDEB7300003
:1029F00000BC00B8300000BCDEB9300000BD00BA39
:102A0000300000BDDEBB300000BE00BC300000BEA8
:102A1000DEBD300000BF00BE300000BFDEBF3000B2
:102A200000C000C0300000C0DEC1300000C100C2E4
:102A3000300000C1DEC3300000AF00C4300000C26F
:102A400000C5300000C2DEC6300000C300C7300041
:102A500000C3DEC8300000C400C9300000C4DECAB4
:102A6000300000C500CB300000C600CC300000C7ED
:102A700000CD300000C800CE300000C900CF3000CB
:102A800000CA00D0300000CADED1300000CADFD258
:102A9000300000CB00D3300000CBDED4300000CBC0
:102AA000DFD5300000CC00D6300000CCDED73000BF
:102AB00000CCDFD8300000CD00D9300000CDDEDA08
:102AC000300000CDDFDB300000CE00DC300000CE77
:102AD000DEDD300000CEDFDE300000CF00DF300072
:102AE00000D000E0300000D100E1300000D200E270
:102AF000300000D300E3300000AC00E4300000D42C
:102B000000E5300000AD00E6300000D500E7300001
:102B100000AE00E8300000D600E9300000D700EA3F
:102B2000300000D800EB300000D900EC300000DAB3
:102B300000ED300000DB00EF300000DC00F2300080
:102B400000A600F3300000DD00F4300000B3DEF733
:102B5000300000DCDEFA300000A6DEFB300000A50D
:102B600000FC300000B000FD300000A400074E0063
:102B700000FB0086510000FC0043530000FA006493
:102B8000FF0000A40065FF0000A50066FF0000A68E
:102B90000067FF0000A70068FF0000A80069FF00B1
:102BA00000A9006AFF0000AA006BFF0000AB006CE8
:102BB000FF0000AC006DFF0000AD006EFF0000AE36
:102BC000006FFF0000AF0070FF0000B00071FF0059
:102BD00000B10072FF0000B20073FF0000B3007488
:102BE000FF0000B40075FF0000B50076FF0000B6DE
:102BF0000077FF0000B70078FF0000B80079FF0001
:102C000000B9007AFF0000BA007BFF0000BB007C27
:102C1000FF0000BC007DFF0000BD007EFF0000BE85
:102C2000007FFF0000BF0080FF0000C00081FF00A8
:102C300000C10082FF0000C20083FF0000C30084C7
:102C4000FF0000C40085FF0000C50086FF0000C62D
:102C50000087FF0000C70088FF0000C80089FF0050
:102C600000C9008AFF0000CA008BFF0000CB008C67
:102C7000FF0000CC008DFF0000CD008EFF0000CED5
:102C8000008FFF0000CF0090FF0000D00091FF00F8
:102C900000D10092FF0000D20093FF0000D3009407
:102CA000FF0000D40095FF0000D50096FF0000D67D
:102CB0000097FF0000D70098FF0000D80099FF00A0
:102CC00000D9009AFF0000DA009BFF0000DB009CA7
:102CD000FF0000DC009DFF0000DD009EFF0000DE25
:102CE000009FFF0000DF00E5FF00005C00001C1FEC
:102CF00011111F00000006191803130C00040E1F09
:102D0000041C000000000E1315110E00001C10180A
:102D10001705060500040A0A0A0A11110E0C121200
:102D20000C00000000001F1511151F00000000001E
:102D300000010204040000001C1C0C040404020135
:102D4000000000000004081000000000007C4D613D
:102D5000726C696E7C002D2D2D2D2D2D00416D6125
:102D600078204500416D6178205A00416D617820DE
:102D70005900416D6178205800412D54726176658B
:102D80006C00412D52657472616374004163636528
:102D90006C004A756E6374696F6E204465760050EE
:102DA000726F62652059204F6666736574005072B9
:102DB0006F62652058204F6666736574003F00435C
:102DC000616E63656C004D6F74696F6E0053746162
:102DD0007274205072696E740043616E6E6F74205D
:102DE000656E746572207375626469723A200005BD
:102DF0002E2E00416476616E6365642053657474A1
:102E0000696E677300436F6E666967757261746996
:102E10006F6E00526573746F7265206661696C73C2
:102E2000616665004C6F61642053657474696E67F8
:102E3000730053746F72652053657474696E6773A1
:102E400000507265686561742041425320436F6E83
:102E500066005072656865617420504C4120436F74
:102E60006E6600424C546F756368004261636B008C
:102E700053746F70004D3231004368616E67652096
:102E80004D6564696100526573756D6520507269A6
:102E90006E74004E6F204D656469610054756E65F7
:102EA0000053746F70205072696E7400496E666FC3
:102EB0002053637265656E0020496E76616C6964AB
:102EC00020657874727564657220004361703A0001
:102ED00047322F47332062616420706172616D65F3
:102EE000746572730A0048617264636F646564207C
:102EF00044656661756C742053657474696E67739C
:102F0000204C6F616465640A0020204D3835312003
:102F100058005A2D50726F6265204F666673657453
:102F20000020204D3330312050005049442073653B
:102F30007474696E67733A0A0020460020480020C6
:102F4000204D3134352053004D6174657269616CD8
:102F50002068656174757020706172616D6574655B
:102F600072733A0A00202047323920572049002046
:102F7000204D3432302053004175746F2042656417
:102F8000204C6576656C696E673A0A0020204D32E8
:102F90003036205800486F6D65206F666673657423
:102FA0003A0A00204A0020204D32303520420020CD
:102FB0004A3C6A756E635F6465763E004164766183
:102FC0006E6365643A20423C6D696E5F7365676D40
:102FD000656E745F74696D655F75733E20533C6DFB
:102FE000696E5F66656564726174653E20543C6D10
:102FF000696E5F74726176656C5F66656564726147
:1030000074653E0020204D3230342050004163630F
:10301000656C65726174696F6E2028756E69747372
:103020002F7332293A20503C7072696E745F61636D
:1030300063656C3E20523C726574726163745F61BB
:103040006363656C3E20543C74726176656C5F61AD
:103050006363656C3E0A0020204D323031205800F9
:103060004D6178696D756D20416363656C65726152
:1030700074696F6E2028756E6974732F7332293AE4
:103080000A0020204D3230332058004D6178696DA0
:10309000756D206665656472617465732028756E50
:1030A0006974732F73293A0A005374657073207022
:1030B000657220756E69743A0A0020204D323030F6
:1030C0002044300A0020204D32303020440020447B
:1030D000697361626C65640A0046696C616D656E56
:1030E000742073657474696E67733A0020204D31E3
:1030F00034392043203B20556E69747320696E205B
:1031000043656C736975730A0020286D6D29002072
:1031100020473231202020203B20556E69747320D7
:10312000696E206D6D006F70656E0054524947479F
:1031300045524544007A5F6D696E00795F6D696E36
:1031400000785F6D696E005265706F7274696E67AA
:1031500020656E6473746F70207374617475730A84
:103160000000009643000096430000A0400000C805
:10317000410000A0420000A04200007A4500001B70
:1031800043E8030000E803000032000000E8030009
:10319000006F70656E206661696C65642C204669FD
:1031A0006C653A2000544845524D414C2052554ED2
:1031B0004157415900546865726D616C2052756EBB
:1031C0006177617900204D393220580020204D610F
:1031D000783A200020204D696E3A2000536F6674C3
:1031E00020656E6473746F70733A20005761726E5D
:1031F000696E67203A20436C65616E204369726393
:103200006C652072657175697265732058590A0082
:10321000205A3A200020593A200042656420583A4A
:10322000200050726F62696E67204661696C656448
:103230000A0050726F62696E67204661696C65644E
:1032400000486F6D652025732573257320466972CC
:10325000737400220A00556E6B6E6F776E20636F79
:103260006D6D616E643A2022004D6963726F7374F4
:1032700065707320756E617661696C61626C650A58
:1032800000008001BE0111241FBECFEFD1E2DEBFDE
:10329000CDBF00E00CBF13E0A0E0B2E0E4E2F8E351
:1032A00002E00BBF02C007900D92AE38B107D9F70C
:1032B00024E1AEE8B3E001C01D92AA3BB207E1F7FA
:1032C00019E1C2E4D9E100E006C021970109802F8D
:1032D000FE010F946118C134D10780E00807A9F7F7
:1032E0000F9439020D94001C0C9400002F923F9211
:1032F0004F925F926F927F928F929F92AF92BF9206
:10330000CF92DF92EF92FF920F931F93CF93DF93B1
:10331000CDB7DEB7AE970FB6F894DEBF0FBECDBF08
:1033200020916B042EA7FF24F394F0926B048091FC
:103330006A048D3409F4BCC3843511F40C948F2ACB
:10334000873411F00C94AA2A209168043091690402
:103350002B31310509F48FC0BCF42430310534F42D
:1033600022303105ECF537FF2FC09EC32C303105DC
:1033700009F47DC02531310511F40C94AC2A2430B8
:10338000310509F091C335C02A32310509F465C20F
:103390005CF42D31310509F409C10CF4F7C02E316C
:1033A000310509F417C180C32B35310509F4D2C1A9
:1033B0002C35310509F4D3C12A35310509F074C320
:1033C000109267040C94AC2A80910B02882311F4AC
:1033D0000C94AC2A0E9426EA0E94B9AC0C94AC2A48
:1033E00081E02230310509F080E00E940CEB0C9462
:1033F000AC2A80E50E941544882329F00E940BFD29
:103400006B017C0103C0C12CD12C760183E50E94A5
:103410001544882361F00E94954320E030E04AE79C
:1034200054E40F94DA110F94DD196B017C010E94B2
:10343000AC9F80913E04811105C060E083E09AE07A
:103440000E94ABC80F94BE01C60ED71EE81EF91E1F
:103450000F94BE01DC01CB018C199D09AE09BF0997
:10346000B7FD02C00C94AC2A0E94E332F1CF0E9457
:10347000DAF80C94AC2A0E946EFE81110C94AC2AEE
:103480008CE0E6E6F2E0DE01119601900D928A955D
:10349000E1F760E070E080E50E94C7F840E050E0AE
:1034A00068EC72E448A759A76AA77BA740E050E000
:1034B00060EA70E44CA35DA36EA37FA3813019F092
:1034C000823039F029C0BE016C5D7F4FCE01099674
:1034D00044C029853A854B855C8560918414709140
:1034E000851480918614909187140F946A186B014B
:1034F0007C0120E030E048E453E40F94741187FD30
:1035000006C0C12CD12C48E4E42E43E4F42ECC8E2A
:10351000DD8EEE8EFF8E1CC0E0908414F09085143A
:103520000091861410918714A984BA84CB84DC841A
:103530009501A601B701C8010F94741187FF02C05D
:1035400075018601C701D8018C8F9D8FAE8FBF8F0B
:10355000BE016C5D7F4FCE014C960E94AEB088E0FC
:10356000FE013196DE015C9601900D928A95E1F79D
:10357000AE01485D5F4FBE01605E7F4FCE014C964D
:103580000E948CB00E9496B20C94AC2A8091781460
:103590008770873011F00C94B22A60E08FE40E94AB
:1035A0003D4481110C94AC2A0C94B22A0E946EFE08
:1035B00081110C94AC2A80913D04882311F40C9461
:1035C000FA2B60E08FE40E943D4481110C94AC2AF8
:1035D0000C94FA2B20916C1430916D1440916E1460
:1035E00050916F1460917C1470917D1480917E14C1
:1035F00090917F140F946A18AB01BC0188E50E947A
:103600006BB869837A838B839C832091701430918B
:1036100071144091721450917314609180147091E0
:10362000811480918214909183140F946A18AB01D5
:10363000BC0189E50E946BB86D837E838F83988778
:10364000BE016B5F7F4FCE0101960E942842882306
:1036500011F40C94AC2A80E00E9449460E94ACAF61
:1036600061E085E40E943D4421E0482FBE016B5F8C
:103670007F4FCE0101960E94E7FE6B017C019B010A
:10368000AC010F945C1B81115FC089809A80AB8074
:10369000BC8020E030E0A901C501B4010F94741191
:1036A00087FF05C027E137EB41E558EB04C027E170
:1036B00037EB41E558E3C501B4010F946A18AB013B
:1036C000BC018AE192E30E940B4B8D809E80AF800B
:1036D000B88420E030E0A901C501B4010F94741151
:1036E00087FF05C027E137EB41E558EB04C027E130
:1036F00037EB41E558E3C501B4010F946A18AB01FB
:10370000BC0185E192E30E940B4B20E030E0A9016F
:10371000C701B6010F94741187FF05C067E177EB0D
:1037200081E598EB04C067E177EB81E598E3A701B9
:1037300096010F946A18AB01BC0180E192E30E94EC
:103740000B4B8AE00E94B7310E9493AF0E9496B261
:103750000C94AC2A8FE0809367040C94AC2A82E727
:10376000282E82E0382E9FE1E92E94E0F92E8CE796
:1037700094E19DA78CA720E6C22E24E1D22E00E082
:1037800010E0F10181911F010E941544882309F482
:103790004AC00E9495432B013C01133049F0F601C9
:1037A00020813181428153810F9469182B013C01A2
:1037B000ECA5FDA52081318142815381C301B20175
:1037C0000F9469184B015C012DEB37E346E855EB8C
:1037D0000F94CA1A87FD0AC02DEB37E346E855E37C
:1037E000C501B4010F9474111816ECF4133051F4A0
:1037F000409288145092891460928A1470928B14AB
:1038000001E011C0A5019401F701608171818281FD
:1038100093810F946A18F701608371838283938385
:10382000812F0E94F8AB1F5FF4E0EF0EF11C2CA576
:103830003DA52C5F3F4F3DA72CA734E0C30ED11C04
:10384000143009F09ECF002321F088E894E10E9413
:10385000BC9F0E9496B20C94AC2A80910B028823E4
:1038600011F40C94AC2A89E40E941544E82E8823B4
:1038700021F00E949143082F01C000E08AE40E94D9
:103880001544F82E882321F00E949143182F01C07F
:1038900010E0EE2011F0033020F4FF2041F013304F
:1038A00030F084EA99E00E94534A0C94AC2A80E1FB
:1038B000ECE7F4E1ADE2B4E001900D928A95E1F716
:1038C000EE2019F1602F000F770B880B990B0F94E6
:1038D0007B1120910F0430911004409111045091FC
:1038E00012040F94DA1120911704309118044091BA
:1038F000190450911A040F946A1860932D04709360
:103900002E0480932F0490933004FF2019F1612F2F
:10391000110F770B880B990B0F947B1120911304D7
:103920003091140440911504509116040F94DA114B
:1039300020911B0430911C0440911D0450911E04E1
:103940000F946A18609331047093320480933304A7
:103950009093340460E080E50E943D448823C1F1E7
:10396000EE20D1F020916C1430916D1440916E14C2
:1039700050916F1460912D0470912E0480912F044A
:10398000909130040F94691860932D0470932E0465
:1039900080932F0490933004FF20D1F02091701475
:1039A00030917114409172145091731460913104EC
:1039B0007091320480913304909134040F9469180B
:1039C00060933104709332048093330490933404F1
:1039D00040E050E0BA0186E40E946BB86B017C01C4
:1039E00020E030E0A9010F94CA1A18165CF420E018
:1039F00030E040E752E4C701B6010F9464196B014F
:103A00007C0103C0C12CD12C760180905E02909085
:103A10005F02A0906002B090610220E030E0A90156
:103A2000C701B6010F947411882341F0C0925E0261
:103A3000D0925F02E0926002F0926102009108026F
:103A40001091090284E690E09093090280930802A5
:103A5000C0902402D0902502E0902602F090270228
:103A600080E090E0A0E8BFE38093240290932502D9
:103A7000A0932602B09327020E94B9AC80925E0206
:103A800090925F02A0926002B092610210930902CC
:103A900000930802C0922402D0922502E0922602EE
:103AA000F09227020C94AC2A0E9460FE0C94AC2A7F
:103AB00000916804109169040537110509F456C78F
:103AC0000CF03BC10C34110509F490C40CF062C039
:103AD0000931110509F418C334F50431110509F44D
:103AE000C4C28CF40131110509F4ABC234F40230C4
:103AF000110508F42FC20C948C2A0231110509F427
:103B000057C60C948C2A0631110509F4D3C20CF463
:103B1000CDC20731110509F4D6C20831110509F4E7
:103B2000E7C20C948C2A0E31110509F46FC3B4F46A
:103B30000B31110509F40FC30CF4FFC20C31110550
:103B400009F45CC30D31110511F00C948C2A80919D
:103B50000D148E7F80930D140C94AC2A0A3211053B
:103B600009F418C454F40F31110509F4F3C30032F9
:103B7000110509F4ACC30C948C2A0033110509F427
:103B800031C40B34110511F00C948C2A0E94DF9C77
:103B90000C94AC2A0936110509F4F3C464F5033515
:103BA000110509F4FEC5BCF40E34110509F437C43F
:103BB0000CF431C40135110509F4DFC502351105D6
:103BC00011F00C948C2A809167048F7D8061809322
:103BD00067040C94AC2A0535110509F415C60CF4DC
:103BE000E7C50C35110509F432C60836110509F48C
:103BF000A8C40C948C2A0E36110509F4FCC49CF45C
:103C00000B36110509F4EEC40CF4CFC40C361105C3
:103C100009F447C50D36110511F00C948C2A0E9449
:103C20006DBE0C94AC2A0137110509F442C594F419
:103C30000F36110509F4F0C40037110511F00C948A
:103C40008C2A41E060E070E083E798E00E94A02EBB
:103C50000C94AC2A0237110509F483C60337110509
:103C600011F00C948C2A86E997E00E94534A60E098
:103C700086E897E00E94F2E960E081E797E00E9421
:103C8000F2E961E08EE390E20E94F2E961E086E60B
:103C900097E00E94F2E961E086E597E00E94F2E990
:103CA00060E08DE497E00E94F2E961E083E497E050
:103CB0000E94F2E961E089E397E00E94F2E961E0A5
:103CC00081E397E00E94F2E961E083E297E00E94DD
:103CD000F2E960E085E197E00E94F2E960E086E0C9
:103CE00097E00E94F2E960E088EF96E00E94F2E936
:103CF00060E082EE96E00E94F2E960E081ED96E0FD
:103D00000E94F2E960E082EC96E00E94F2E960E055
:103D10008DEA96E00E94F2E961E08AE996E00E946D
:103D2000F2E960E08DE896E00E94F2E960E089E760
:103D300096E00E94F2E90C94AC2A0C3281E018075C
:103D400011F40C940A280CF075C0093C110509F413
:103D50000BC78CF50C38110509F4CDC4BCF407373A
:103D6000110509F44EC60CF411C60837110509F403
:103D70004BC60937110511F00C948C2A10922B04B4
:103D800010922C040E9416F10C94AC2A0B391105E8
:103D900009F4CDC434F40139110509F43DC60C947D
:103DA0008C2A0E3B110509F4BFC4083C110509F427
:103DB0008EC60C948C2A033D110509F473C7F4F4E4
:103DC0000C3C110509F415C734F40B3C110509F43A
:103DD000EEC60C948C2A0D3C110509F43BC70E3C31
:103DE000110511F00C948C2A42E7C42E42E0D42E27
:103DF0005CEBE52E53E0F52E10E042C7023E1105C4
:103E000009F4B5C754F40C3D110509F44EC70D3D36
:103E1000110509F457C70C948C2A0831E1E01E07FC
:103E200011F40C9402270232114011F40C949927DA
:103E30000C948C2A053A21E0120711F40C94EF2817
:103E40000CF044C00F3581E0180711F40C940F2AD0
:103E5000B4F40E32E1E01E0711F40C949F2814F420
:103E60000C941F280F3221E0120711F40C94E32860
:103E70000E35114011F40C94DA290C948C2A023975
:103E800081E0180711F40C94E92894F40039E1E07A
:103E90001E0711F40C94E6280139114011F00C941E
:103EA0008C2A81E00E943E9C0E9496B20C94AC2A1F
:103EB0000A3921E0120709F4F9C3043A114011F05C
:103EC0000C948C2A0E940F4C0C94AC2A073F81E082
:103ED000180711F40C94B629ECF4043FE1E01E0736
:103EE00011F40C94B0293CF40C3A114011F40C94E8
:103EF00053290C948C2A053F31E0130711F40C94DC
:103F0000B329063F114011F00C948C2A0E9425F130
:103F10000C94AC2A033593E0190711F40C94D729BB
:103F20006CF4083FF1E01F0711F40C94BE290C302B
:103F3000124011F40C94CF290C948C2A003A33E0EF
:103F4000130709F4F9C1073E134011F40C947E2ABB
:103F50000C948C2AA0900D04B0900E0480E50E9471
:103F60001544882359F00E940BFD6B017C0111E080
:103F7000672B682B692B31F410E004C010E0C12CD2
:103F8000D12C760183E50E941544882311F40C940A
:103F9000FD2B0E94954320E030E04AE754E40F9463
:103FA000DA110F94DD196B017C0111110BC0672B25
:103FB000682B692B39F4A114B10421F0F50180813B
:103FC000811102C010E001C011E00E94AC9F1123DA
:103FD00029F061E0C5010E9421C905C060E081E9C6
:103FE00099E00E94ABC883E080936B0481E08093EA
:103FF0000C04C114D104E104F104B1F00F94BE012A
:10400000C60ED71EE81EF91E0F94BE01DC01CB01BF
:104010008C199D09AE09BF09B7FF0DC080910C0432
:1040200081110C94022C07C080910C04882319F094
:104030000E94E332F9CF0E9444C910920C040C9400
:10404000AC2A8091080484FF02C00C94062C809155
:104050000A0487FF02C00C94062C80910B04837025
:1040600011F00C94062C0C94222C87E799E00E9406
:10407000534A87E092E10E9490618BE1E7E0F2E130
:10408000DE01119601900D928A95E1F760E070E0F3
:10409000CE0101960E944B8FCE0101960E943B6398
:1040A00088E699E00E94534A0C94AC2A0E94408C06
:1040B0000C94AC2A0E94D18B80910D14877F809341
:1040C0000D140C94AC2AE0910D04F0910E04808143
:1040D000882329F0803209F410823196F8CF60E00D
:1040E00080910D0490910E040E942C8E0C94AC2AA9
:1040F0000E944F2F882321F00E94E08B0E94DF9CBA
:104100000E9444C90C94AC2A80910D1482FF03C014
:104110008B7F80930D1480910704813089F782E0B2
:10412000809307040F94BE0160930304709304040A
:104130008093050490930604E3CF80910D1483FDD2
:1041400002C00C94AC2A83E50E94154481110C94A2
:10415000302C0C94AC2A83E40E94CC43882319F1C0
:1041600086E399E00E94534A8091B111882391F02F
:10417000BE016F5F7F4F8EEA91E10E9441638E0125
:104180000F5F1F4FF80181918F01882339F00E9442
:10419000B731F8CF8CE299E00E94534A8AE00E943E
:1041A000B7310C94AC2A80910D1482FF21C085E4B4
:1041B00099E00E94534A6091091470910A14809109
:1041C0000B1490910C144AE00E94BE318FE20E94C1
:1041D000B731609105147091061480910714909185
:1041E00008144AE00E94BE310E94BC320C94AC2AF2
:1041F00087E599E00E94534A0C94AC2A80910D0403
:1042000090910E040E94DE8D0C94AC2A80910D14C6
:1042100083FD02C00C94AC2A0E9449FE80910D14CB
:1042200083FD02C00C94AC2A40910D0450910E0401
:10423000BE01645E7F4F80E00E94B0F78C01009762
:1042400011F40C94AC2A6C8D7D8D19821C8222E0B5
:10425000AC01CE0101960E94FF66811102C0F12CD3
:1042600014C0CE0101960E941EF78823C1F361E0BD
:10427000CE0101960E94E362009789F325EEFC01CE
:1042800020831C820E940062F82ECE0101960E94BB
:104290003B63B801FF2089F08EE199E00E94294B31
:1042A0008AE00E94B7311092091410920A141092F9
:1042B0000B1410920C140C94AC2A86E099E00E9426
:1042C000294B8AEC98E10E94534A0C94AC2A8091C5
:1042D0000D1482FD0E94AC9F80910D1483FD02C0DD
:1042E0000C94AC2A60E080E50E943D44182F682FB2
:1042F00080910D0490910E040E942C8E83E50E9403
:104300001544882381F00E945D43AB01BC014093BA
:10431000091450930A1460930B1470930C148EEAD2
:1043200091E10E94A15F0E94E08B11110C94AC2AD4
:104330000E94DF9C0C94AC2A20910D0430910E0455
:1043400090910D14926090930D14C9010E94DE8D1E
:104350000C94AC2A0E9487726C8F7D8F8E8F9F8FFA
:10436000BE016F5F7F4FCE014C960E9463C060E03C
:10437000CE0101960E9421C90E940B4CBE016F5FC5
:104380007F4F89EF98E00E94294B8AE00E94B73165
:104390000C94AC2A83E50E941544882311F40C94F4
:1043A000AC2A0E946D43F82E6DE070E080E50E941B
:1043B00022448C0197FF02C00C94AC2A893021F46E
:1043C000F09290110C94AC2A60E089E40E943D4484
:1043D00081110C94412C802F0F9414028111E4C49C
:1043E0000C94412C0E94B3550C94AC2A8091070484
:1043F000813011F00C94AC2A82E0809307040F9472
:10440000BE016093030470930404809305049093A9
:1044100006040C94AC2A0E943B9D0C94AC2A60E0EC
:1044200070E083E50E9422448E34910531F40E94AD
:10443000AC9D0E9444C90C94AC2A82EE98E00E9484
:10444000534A6091F3037091F40389ED98E00E9460
:10445000FE4A6091F5037091F6038CEC98E00E949F
:10446000FE4A6091F3037091F4038091F5039091FB
:10447000F603681B790B80910704815021E030E03E
:10448000823010F020E030E0621B730B81EC98E08A
:104490000E94FE4A8AE00E94B73182EE98E00E94B4
:1044A000534A8091F7039091F803A091F903B091DA
:1044B000FA038C8F9D8FAE8FBF8FBE016F5F7F4FD2
:1044C000CE014C960E9463C0BE016F5F7F4F84EBAC
:1044D00098E00E94294B8091FB039091FC03A091EE
:1044E000FD03B091FE038C8F9D8FAE8FBF8FBE01F9
:1044F0006F5F7F4FCE014C960E9463C0BE016F5F1D
:104500007F4F84EA98E00E94294B20E030E04AE7A0
:1045100054E46091FF037091000480910104909134
:1045200002040F946419AB01BC018CE898E00E946E
:104530000B4B8DE60E94B7318AE00E94B7310C9494
:10454000AC2A8091490D83FF02C00C94AC2A0E94D2
:1045500018F087FF02C00C94AC2A83E50E94154432
:10456000882359F00E9495430F94D619CB010E94DD
:10457000059261E080E00E94C4920E94119F0C9419
:10458000AC2A0E9418F0182F87FD0AC08CE295E033
:104590000E94534A812F0E9415928AE00E94B731EF
:1045A000FEA5F0936B040C94A82D60E080E50E94BA
:1045B00031448111D1C781E40E94CC43882321F08A
:1045C0006091901170E002C06FEF70E083E50E948F
:1045D000C7F88F3F910519F010F08FEF90E08093AE
:1045E0009011BAC760E080E50E9431448111B4C7E0
:1045F00010929011B1C78EE40E941544882309F4EB
:10460000ABC70E945D436093EF037093F003809308
:10461000F1039093F203A0C783E50E94CC43882363
:1046200031F060E083E50E9431448093490D0E949F
:104630000B4C85E898E00E94534A8091490D8823ED
:1046400069F10CEFE02E04E0F02E00E010E020E035
:104650008091490D90E0A0E0B0E0002E04C0B69536
:10466000A795979587950A94D2F780FF0EC0DD2411
:10467000D394D20E222319F08CE20E94B731F701B5
:10468000859194910E94534A2D2D0F5F1F4F32E068
:10469000E30EF11C05301105D9F680CD81E898E0D4
:1046A0007BCD10920C041092070256C70E940F2F68
:1046B00053C783E50E941544882371F00E946D431F
:1046C000282F30E02D3331051CF48093060244C7B7
:1046D0008CE38093060240C70E940B4C4091060277
:1046E00050E060E070E08CE698E00E94ED4A8AE0DD
:1046F0000E94B73131C78091490D83FD2DC783E5F5
:104700000E941544882309F427C70E9495430F94FB
:10471000D6196C3871050CF48B011093ED030093DE
:10472000EC030E94839118C70E9499BC15C783E5CA
:104730000E941544882309F40FC70E946D43182F67
:1047400090E0CD970CF01CE31093E3030F94BE01AF
:104750006B017C01212F30E0A8EEB3E00F941E180E
:10476000C60ED71EE81EF91EC092DF03D092E003EA
:10477000E092E103F092E203EFC60E94DC920E9415
:104780003B9D0E9427A10E944C2F68EE73E080E0C1
:1047900090E00E94944960E08CE598E00E94ABC8EC
:1047A000DBC6809167048F7E806280936704D4C6E5
:1047B00083E50E941544882399F00E94954320E0E8
:1047C00030E04AE754E40F94DA110F94DD19609356
:1047D0000202709303028093040290930502BCC608
:1047E0008091080484FF02C00C944F2C80910A042D
:1047F00087FF02C00C944F2C80910B04837011F042
:104800000C944F2C0C947B2C83E50E94CC43882382
:1048100009F4A2C60F94BE016093DB037093DC031E
:104820008093DD039093DE030E94954320E030E007
:104830004AE754E40F94DA110F94DD196093D7031B
:104840007093D8038093D9039093DA0385C60E94AE
:1048500018F087FD81C69091080494FD04C09091E2
:104860000A0497FF0AC0B2E7CB2EB2E0DB2E1AE4AF
:10487000E12E1DE0F12E10E009C090910B04937021
:1048800091F7682F81E00E94D0FC66C6F601819105
:104890006F010E941544882309F459C0133009F0B0
:1048A0004FC00E9495434B015C0120E030E040EA9C
:1048B00051E40F94741187FF3AC0A50194016091EF
:1048C0006A0D70916B0D80916C0D90916D0D0F9430
:1048D00064192B013C019B01AC0160917A0D709130
:1048E0007B0D80917C0D90917D0D0F94DA1160937A
:1048F0007A0D70937B0D80937C0D90937D0D60916C
:104900007A0770917B0780917C0790917D070F94C7
:104910007911A30192010F94DA110F94DD196093BC
:104920007A0770937B0780937C0790937D07809232
:104930006A0D90926B0DA0926C0DB0926D0D07C038
:104940000E949543F701648B758B868B978B1F5F55
:10495000F4E0EF0EF11C143009F098CF0E94889F0C
:10496000FBC50E94AC9F0E9496B2F6C580910D04D3
:1049700090910E04009709F4C3CBFC0120812223FF
:1049800009F4BECB60E00E9421C9E6C500910D0488
:1049900010910E0494E0F12C40E0915029F1F801BF
:1049A0008081282F2B7F213421F421812133E1F4D0
:1049B00008C08035C9F4F801818180538A3048F0FD
:1049C00013C0813421F0853421F441E002C0FF247A
:1049D000F39498012E5F3F4F89012F5F3F4FF801FD
:1049E00080818032C9F3D9CF41110E940B4CFF2046
:1049F00021F085E796E00E94534AC8010E94C23226
:104A0000ABC50E94C6F0A8C581E080932B048093BB
:104A10002C040E9416F1A0C560E070E083E50E94BE
:104A200022448C011127023011053CF00E943C4BBE
:104A300083E596E00E94534A8FC588E40E9415449E
:104A40008823A9F00E9491438A3A91053CF0853071
:104A5000F1E09F072CF084E091E002C08AEA90E048
:104A6000F801EE0FFF1FED52FC4F9183808386E427
:104A70000E941544882381F00E94914397FD07C04E
:104A80008F3F910529F024F08FEF90E001C080E086
:104A9000F801EF52FC4F808382E40E941544882382
:104AA00009F45AC50E9491438530910534F08D3840
:104AB00091052CF08CE890E002C085E090E0000FBA
:104AC000111FF801E353FC4F9183808345C50E9479
:104AD00018F0182F87FD40C584E40E94CC4388233A
:104AE00009F43FC00E9495436B017C0101E020E086
:104AF00030E0A9010F947411811101C000E000930E
:104B0000CC0320E030E0A901C701B6010F94741175
:104B1000882339F10E94954324E01202F001112408
:104B2000E853FC4F608371838283938320E030E0FD
:104B3000A9016091C8037091C9038091CA03909143
:104B4000CB030F94741181110CC080E090E0A0EEB3
:104B5000BFE38093C8039093C903A093CA03B093A3
:104B6000CB030E94339AF8C40E9418F087FDF4C466
:104B7000E2E7EE2EE2E0FE2E0AE41DE0F70181916D
:104B80007F010E94CC43882359F00E9495430F94E3
:104B9000DD19F80160837183828393830E94419FB2
:104BA0000C5F1F4FFDE00A351F0741F7D5C40E9477
:104BB00018F087FDD1C462E7E62E62E0F62E0AE423
:104BC0001DE07AE5C72E7DE0D72EF70181917F01A8
:104BD0000E94CC43882339F00E949543F80164A3D6
:104BE00075A386A397A30C5F1F4FC016D10669F764
:104BF000B3C48091090487FD81C680910A048E7038
:104C000009F07CC640917E0D50917F0D6091800D22
:104C10007091810D83E496E00E940B4B4091820DD0
:104C20005091830D6091840D7091850D80E496E024
:104C30000E940B4B4091860D5091870D6091880D1D
:104C40007091890D8DE396E00E940B4B8AE00E94E3
:104C5000B73182C48091080481FD96C68091090411
:104C600081FD92C680910A048C7009F08DC674C4CF
:104C70001F5FF4E0EF0EF11C133011F40C94291CAB
:104C8000F60181916F010E94CC43882389F30E9431
:104C90009543F7016083718382839383812F0E9400
:104CA000F8ABE6CF0E94E1FB57C483E50E941544B0
:104CB000882309F451C40E94914390930902809380
:104CC00008024AC40E9418F0F82E87FD45C483E507
:104CD0000E9415440F2D0F2C000C110B882361F13D
:104CE0000E949143F801EE0FFF1FE050FE4F9183A9
:104CF0008083000F111F000F111F98012C5D3D4F85
:104D00007901BC01990F880B990B0F947B112AE054
:104D100037ED43E25CE30F94DA11F801E854FC4FFD
:104D200020813181428153810F94DA11F701608330
:104D300071838283938310C40E940B4C85E40E948C
:104D4000B73180E38F0D0E94B731000F111FF801BA
:104D5000E050FE4F6081718186E196E00E941C4B1D
:104D600085E20E94B7318AE00E94B731F5C380E541
:104D70000E94CC43882309F4EFC360E070E080E533
:104D80000E942244F82E6FEF7FEF83E50E942244B9
:104D90008C010196039708F0DFC3F7FCDDC38F2D6C
:104DA0000F941402882339F00E943C4B8AEE98E05D
:104DB0000E94534AD1C30E94AC9F60E08F2D0E9495
:104DC000E6760F3FFFEF1F0731F00130110571F05C
:104DD00000E010E00DC08F2D0E94537631E020E0FE
:104DE000892B09F030E0032F122F02C001E010E000
:104DF0008F2D0E9453768017910709F4ADC30E944E
:104E0000E332F6CF80E50E94CC43882309F4A4C3A3
:104E10000E9491438C01892B09F07FC083E50E9499
:104E2000CC43882389F00E9491438F3F2FEF920754
:104E300029F48FE892E10E946F2F8EC3BC018FE8A6
:104E400092E10E943F3088C30E940B4C60E070E00A
:104E50008EE096E00E941C4B8091911228E532E092
:104E60006901C81AD10887FDD394CC0CDD1CCC0C89
:104E7000DD1C0D2C000CEE08FF088091901228E834
:104E800030E04901881A910887FD9394880C991C99
:104E9000880C991C092C000CAA08BB0880918F1261
:104EA0008F3FC1F090E0FC01EE0FFF1F8E0F9F1FA0
:104EB000FC01EE5DFD4E2181328173E0220F331F34
:104EC0007A95E1F7E4E036952795EA95E1F72E5FCC
:104ED0003F4F02C020E030E02F5F3F4FC901330F4A
:104EE000AA0BBB0B9C01AD01281939094A095B09C2
:104EF000A4EBB0E00F940B18A7019601281939090B
:104F00004A095B090F94EC17B90183EC9CE10E94FC
:104F10001C4B8AE00E94B7311FC30E943C4BB80172
:104F20008FE096E00E941C4B8FEF95E00E94534A61
:104F300013C38AE50E941544811106C083E50E94CF
:104F40001544882309F44BC00E94954320E030E0CB
:104F500040E050EC0F94741187FD75C50E94954395
:104F600020E030E040E050E40F94CA1A18160CF428
:104F700064C50E9495436B017C0180915F14869506
:104F8000869580FF22C02091660D3091670D40917B
:104F9000680D5091690DC701B6010F94DA110F9495
:104FA000D6192091B6033091B703260F371F3093DF
:104FB000B7032093B6032091B4033091B503620F79
:104FC000731F7093B5036093B40380E50E94CC43D4
:104FD000882309F43EC50E94814381113AC580911E
:104FE0000A0487FD5CC580910B04837009F057C5E6
:104FF0000E940B4C4091741450917514609176147A
:105000007091771480EE95E00E940B4B8AE00E942D
:10501000B731A2C264E071E083E50E94C7F88C0159
:1050200068EE73E080E50E94C7F8893833E19307A2
:1050300010F088E893E1B8010E947EC88DC260E05C
:1050400085E40E943144811173C080E50E94CC4305
:10505000882351F00E9495436093A2117093A3118D
:105060008093A4119093A51189E40E94CC438823D6
:1050700081F00E9495432CEA35EC47E25EE30F9401
:10508000DA116093A6117093A7118093A8119093E1
:10509000A91184E40E94CC43882381F00E949543A7
:1050A0002CEA35EC47E25EE30F9464196093AA1191
:1050B0007093AB118093AC119093AD110E940B4C87
:1050C0004091A2115091A3116091A4117091A5116A
:1050D0008CED95E00E940B4B2CEA35EC47E25EE349
:1050E0006091A6117091A7118091A8119091A911BA
:1050F0000F946419AB01BC0188ED95E00E940B4B45
:105100002CEA35EC47E25EE36091AA117091AB1195
:105110008091AC119091AD110F94DA11AB01BC01EB
:1051200084ED95E00E940B4B8AE00E94B73114C2D7
:105130000E943C4B82EC95E00E94534A0DC283E5ED
:105140000E94CC43182F882371F00E9495430F943E
:10515000D619709329026093280221E0672B09F089
:1051600020E02093960780E50E94CC43882359F0E5
:105170002091280230912902232B11F00E948143B3
:1051800080939607E9C11111E7C10E940B4C8FEA89
:1051900095E00E94534A80919607882319F085EB89
:1051A0009EE202C086E995E00E94534A609128027F
:1051B000709129028EE995E00E941C4B8AE995E0E6
:1051C0000E94534AC9C10E9482B8C6C10E94AC9FC6
:1051D000C3C180E00E943E9C0E9496B2BDC16FEFA9
:1051E0007FEF89E40E942244182F6FEF7FEF8AE45B
:1051F0000E942244082F8AE50E94CC43F82E811198
:1052000005C081E50E94CC43D82E01C0D12C17FDEA
:1052100006C007FD04C0F11009C0D11007C00E94EC
:105220003C4B86E795E00E94534A96C1133010F438
:10523000033038F00E943C4B84EA99E00E94534AC4
:105240008BC1E12E110FFF08002E000C110B0E94E4
:105250009543D701AA0FBB1FDD2081F0FD01EE0DA4
:10526000FF1DE00FF11FEE0FFF1FEE0FFF1FE057B6
:10527000FC4F208131814281538103C020E030E026
:10528000A901EA0EFB1E0E0D1F1D000F111F000FBE
:10529000111F00571C4F0F946A18F8016083718327
:1052A0008283938359C10E946EFE811155C10DEE18
:1052B00014E02CE734E13DA72CA7CE0101961C0198
:1052C00049EFC42E44E0D42E7C01F801659175911C
:1052D00085919491ECA5FDA581909190A190B190BC
:1052E000FDA7ECA7A50194010F9469182B013C01BF
:1052F000F701608371838283938320E030E040EA8A
:1053000051EC0F94CA1A87FD0AC020E030E040EA51
:1053100051E4C301B2010F94741118162CF4F60174
:10532000849118160CF4C1C3F70181909190A1905B
:10533000B1907F0120E030E040EA51ECC501B401BA
:105340000F94CA1A87FDBBC320E030E040EA51E465
:10535000C501B4010F94741118160CF0C4C3AFC387
:105360000E94F067F9C00E944CF2F6C061E083E54C
:105370000E943D448F250E945AF2EEC081E0809346
:105380008F030E948D6C10928F03882309F4E4C070
:105390000E940B4C8FE295E00E94534ADDC0809141
:1053A0000D1482FFD9C0806480930D14D5C00E9473
:1053B00038C2D2C083E50E94CC43811106C022E7E7
:1053C000E22E22E0F22E10E00EC010E00E946D43AB
:1053D000682F812F0F943B011F5F1530B9F7EFCF76
:1053E0001F5F143071F0F70181917F010E94CC435F
:1053F0008823B1F30E946D43682F812F0F943B01E6
:10540000EFCF82E40E94CC43882331F00E946D43A9
:10541000682F84E00F943B010E94CF999DC083E5E3
:105420000E941544882309F466C00E946D438230AF
:1054300049F1833009F44BC0813009F05CC092E738
:10544000E92E92E0F92E10E0F70181917F010E9490
:105450001544882341F00E946D432FEF4FEF682FD2
:10546000812F0F94CD001F5F143071F782E40E94EA
:105470001544882309F43FC00E946D432FEF4FEF7E
:10548000682F21C082E7E82E82E0F82E10E0F701B5
:1054900081917F010E941544882341F00E946D4351
:1054A0002FEF482F6FEF812F0F94CD001F5F143027
:1054B00071F782E40E9415448823E9F00E946D434D
:1054C0002FEF482F6FEF84E00F94CD0014C002E758
:1054D00012E0F80181918F010E94154481110E9410
:1054E0006D43F2E006371F07A1F782E40E941544DE
:1054F00081110E946D430E94CF992EC081E080935C
:105500000B0210928E0360E083E50E943D448111FE
:1055100023C00E9452C120C00E9460FE1DC00091A5
:105520006804109169040023B9F00E940B4C84E5D3
:105530000E94B731B8017727072E000C880B990B12
:105540000E942B3280E20E94B73182EC95E00E94EB
:10555000534A02C00E9460FE0E9442C12EA52093C1
:105560006B04F6C20E94AC9F70903D0480E00E94E4
:1055700049460E94ACAF81E080932B040E9416F153
:1055800088E50E94CC43182F89E50E94CC43F82E71
:105590008AE50E94CC431F111FC1181711F0F12E8C
:1055A0001BC1FF24F39411E001E080E1ECE7F4E19A
:1055B000ADE2B4E001900D928A95E1F782E50E9498
:1055C0001544882361F00E9495434B015C0120E063
:1055D00030E0A9010F9474118823E9F105C0812CF2
:1055E000912C30E4A32EBA2C111102C0FF20E9F156
:1055F00080915F1482FD09C06091841470918514BC
:10560000809186149091871403C060E070E0CB0114
:10561000A50194010F946A186093350470933604C1
:10562000809337049093380420918414309185142A
:1056300040918614509187140F94CA1A18165CF47E
:1056400019821A821B821C82BE016F5F7F4F85E325
:1056500094E00E94AEB0112319F080E00E945CB18A
:10566000FF2019F081E00E945CB1002309F4A3C07F
:1056700080E00E94D84980915F148370833051F09C
:1056800060E085EF99E00E94ABC80E940B4C86EE6B
:1056900099E0ADC00E945AB12090841430908514D6
:1056A000409086145090871420916C1430916D14A2
:1056B00040916E1450916F1460E070E088EC92E4B9
:1056C0000F9469186B017C0160932D0470932E0474
:1056D00080932F04909330042091701430917114B2
:1056E000409172145091731460E070E088EC92E481
:1056F0000F9469184B015C0160933104709332047C
:105700008093330490933404209174143091751471
:105710004091761450917714C201B1010F94691829
:105720006093350470933604809337049093380463
:1057300027E137EB41ED58EBC501B4010F94CA1ACC
:1057400087FD4CC027E030E048E453E4C501B401D4
:105750000F94741118160CF441C027E137EB41ED9A
:1057600058EBC701B6010F94CA1A87FD37C027E06E
:1057700030E048E453E4C701B6010F9474111816E1
:105780006CF11C8E1D8E1E8E1F8E88E0EDE2F4E003
:10579000DE01119601900D928A95E1F7AE01445E0B
:1057A0005F4FBE016B5F7F4FCE0101960E948CB0B0
:1057B00082E00E945CB10E945AB180912C048093D7
:1057C0002B04872D0E9449460E9493AF83E080936B
:1057D0000A020E9496B2C0CE082FE7CE60E085EDA7
:1057E00099E00E94ABC80E940B4C83EC99E00E94A8
:1057F000534AE1CF0E94695AAFCE11110C94E21FB7
:105800000C94DB1F0E94E3320C94042088E50E9474
:10581000CC4381115F9889E50E94CC4381118A981D
:105820008AE50E94CC43882329F080910801817089
:105830008093060185E40E94CC43882309F48CCE32
:1058400047988ACE60E088E899E00E94ABC85F98EC
:105850008A988091080181708093060147987CCED8
:105860000E945D43AB01BC014093091450930A149C
:1058700060930B1470930C148EEA91E10E94A15F67
:105880006BCE61E0802F0E94E6766F2D802F0E9404
:105890007C766F2D70E0802F0E9422775DCE0E9473
:1058A000AC9F88E50E94CC43882331F05F9A8091B9
:1058B0005F148E7F80935F1489E50E94CC43882318
:1058C00031F08A9A80915F148D7F80935F148AE50E
:1058D0000E94CC43882359F0809108018095817003
:1058E0008093060180915F148B7F80935F1485E421
:1058F0000E94CC4331CE0E9427A12ECE83E50E9488
:105900001544882391F00E94954360937E0D709317
:105910007F0D8093800D9093810D6093860D709321
:10592000870D8093880D9093890D80E50E94154422
:10593000882351F00E94954360937E0D70937F0DF4
:105940008093800D9093810D82E50E9415448823F9
:1059500051F00E9495436093820D7093830D809364
:10596000840D9093850D84E50E941544882309F4E5
:10597000F3CD0E9495436093860D7093870D8093BD
:10598000880D9093890DE8CD82E40E94CC43882352
:1059900051F00E940BFD60935A0D70935B0D809344
:1059A0005C0D90935D0D83E50E94CC43882351F0FC
:1059B0000E94954360938A0D70938B0D80938C0D9C
:1059C00090938D0D84E50E94CC43882351F00E9472
:1059D000954360938E0D70938F0D8093900D9093EF
:1059E000910D8AE40E94CC43882309F4B5CD0E942E
:1059F00095436B017C012AE037ED43E25CE30F94B1
:105A0000CA1A87FD13C02AE939E949E95EE3C701EB
:105A1000B6010F94741118164CF0C0926A07D09218
:105A20006B07E0926C07F0926D0796CD0E943C4B9D
:105A30008EE196E00E94534A8FCDC12CD12CE12CEF
:105A400050E4F52E9ACAC12CD12CE12C40ECF42E56
:105A500094CAA70196016091741470917514809195
:105A60007614909177140F946A186093741470935D
:105A7000751480937614909377140E940B4C409188
:105A800074145091751460917614709177148FEEA0
:105A900095E00E940B4B8AE00E94B731A0CA82E5D4
:105AA0000E94CC438111A4CA57CDB7FAB094B7F87D
:105AB000B094F70180829182A282B38235CC0E9499
:105AC0003C4B88E595E00E94534A61E08AE495E00A
:105AD0000E94ABC80E9407D568E270E088EC90E0B5
