:100000000C9446190C9477190C9477190C94771961
:100010000C9477190C9477190C9477190C94771920
:100020000C9477190C9477190C9477190C94771910
:100030000C9477190C9477190C9477190C94771900
:100040000C9477190C94D79A0C9477190C9477190F
:100050000C9477190C9477190C948F920D94CD0110
:100060000C9477190C947B380C9471380C94771994
:100070000C9477190C9477190C9477190C947719C0
:100080000C948C310C9477190C9477190C94771983
:100090000C9477190C9477190C9477190C947719A0
:1000A0000C9477190C9477190C945E310C94771991
:1000B0000C9477190C9477190C9477190C943031AF
:1000C0000C9477190C9477190C9477190C94771970
:1000D0000C9477190C9477190C9477190C94771960
:1000E0000C947719F472F772E672EA72F0722E735A
:1000F000FB72FF72057309730D73137317731B7310
:100100002E732173257329734E775377587762774F
:100110006C77E57776777E77867790779A77A4778E
:10012000B377BD77E577C777D177DB77084AD73BD9
:100130003BCE016E84BCBFFDC12F3D6C74319ABDB6
:1001400056833DDA3D00C77F11BED9E4BB4C3E91DA
:100150006BAAAABE000000803F05A84CCDB2D44EC9
:10016000B93836A9020C50B9918688083CA6AAAACB
:100170002ABE000000803F000C943A8B0C94369A03
:100180000C9422E00C945DB30C94D9DA0C944EB329
:100190000C94A6CC0C9413730C9405730C94855595
:1001A0000C94B8E40C949A770C9429730C94A0D313
:1001B0000C94D6E10C9445500C9421DA0C9479D32C
:1001C0000C9422D90C9426A20C94B5DF0C94BBE4B9
:1001D0000C94DEE60C941E540C94494E0C94097356
:1001E0000C9454DC0C941CD90C94F4720C945FB3F2
:1001F0000C9456DC0C94B3770C944E770C94718A63
:100200000C94DBE10C946AC90C94E0DF0C944B5025
:100210000C9458770C947AA50C944AA50C947E778C
:100220000C94C4D30C9465D50C94DB770C94E672D3
:100230000C94D5A10C943A8A0C946BD30C94B551C0
:100240000C94A8B60C948B8A0C94C7770C949FA13D
:100250000C9457B30C9457500C94CCE10C9433503D
:100260000C94354E0C9431E20C94574E0C94B654C9
:100270000C9417730C941B730C94F0720C9429E279
:100280000C94FF720C9458DC0C9439500C94FDE2E1
:100290000C94F0A10C94B0DF0C9451500C94E5C870
:1002A0000C943B540C946B4E0C94BAA10C9478A50E
:1002B0000C94A78A0C948DCC0C94DAD00C949DD31A
:1002C0000C9487D30C94DADF0C942E730C94F77291
:1002D0000C94728A0C9425730C9457D30C940BA233
:1002E0000C946ACC0C94BEE40C942D500C940D73B9
:1002F0000C949AD30C94214E0C94D1E10C945ADCBA
:100300000D94480B0C9463A50C9421730C946277A4
:100310000C9453770C94E5770C9476770C94EA72EE
:100320000C94D1770C949FE40C94A4770C94778A66
:100330000C946CDF0C94E6DF0C9490770C94B15223
:100340000C94F74D0C9414540C9458540C94BADF3C
:100350000C94D4520C94BDD30C946AB30C9449B44D
:100360000C94FB720C94BD770C94B2540C9494A32F
:100370000C9486910C9416D90C9476A50D94070BC9
:100380000C9428B50C94648A0C946C770C94DAD194
:100390000C940D4E0C94F9C80C94D4DF0C9452DCE0
:1003A0000C9472A50C94ABDF0C9486770C94755466
:1003B0000C943F500C9474A54E414E494E495459EB
:1003C000494E46CDCCCC3D0AD7233C17B7D1387720
:1003D000CC2B329595E6241FB14F0A000020410036
:1003E00000C84200401C4620BCBE4CCA1B0E5AAE80
:1003F000C59D7400407A10F35A00A0724E1809008F
:1004000010A5D4E80000E87648170000E40B540279
:100410000000CA9A3B000000E1F5050000809698B4
:1004200000000040420F000000A086010000001004
:100430002700000000E80300000000640000000046
:10044000000A00000000000100000000002C76D827
:1004500088DC674F0823DFC1DFAE59E1B1B796E50D
:10046000E3E453C63AE651997696E8E6C28426EB71
:10047000898C9B62ED407C6FFCEFBC9C9F40F2BA84
:10048000A56FA5F490055A2AF75C936B6CF9676D1C
:10049000C11BFCE0E40D47FEF520E6B500D0ED9071
:1004A0002E0300943577050080841E080000204E3E
:1004B0000A000000C80C333333330F986E128311D7
:1004C00041EF8D2114893BE65516CFFEE6DB18D1AE
:1004D000844B381BF77C1D901DA4BBE42420328480
:1004E000725E228100C9F124ECA1E53D27000000E5
:1004F000000000000000000000FFFFFF27052205AC
:100500001B0514050605434F4D4D554E49434154B7
:10051000494F4E0044525952554E004552524F5287
:100520005300494E464F004543484F006F6B00450E
:100530004550524F4D204F4B0A004F66667365740D
:1005400073204170706C696564004572723A205482
:100550006F6F206661722100546F6F206661722098
:1005600066726F6D207265666572656E6365207078
:100570006F696E740A004D34323120696E636F7298
:100580007265637420706172616D65746572207547
:10059000736167650A006469730043290A00616238
:1005A0006C656420286D696E2074656D7020004351
:1005B0006F6C642065787472756465732061726510
:1005C0002000496E76616C69642065787472756488
:1005D00065720A0020643A0020693A0020703A00EF
:1005E00050726F6265204F6666736574205A0050C2
:1005F000726F6265204F66667365745A3A200020F8
:100600006F7574206F662072616E67650A002053F3
:100610006572766F200020466C6F773A20003F4A63
:10062000206F7574206F662072616E6765202830B8
:100630002E303120746F20302E33290A00205400D0
:10064000205200416363656C65726174696F6E3A34
:100650002050004D31343520533C696E6465783E3E
:10066000206F7574206F662072616E676520283078
:100670002D31290A002F2F20004348414D42455279
:100680005F54454D5045524154555245004D4F54CD
:10069000494F4E5F4D4F44455300544845524D41DC
:1006A0004C5F50524F54454354494F4E00415554AE
:1006B0004F5245504F52545F53445F535441545529
:1006C000530050524F4D50545F535550504F525459
:1006D00000454D455247454E43595F5041525345A1
:1006E0005200434153455F4C494748545F42524989
:1006F0004748544E45535300544F47474C455F4C71
:10070000494748545300534F4654574152455F5050
:100710004F574552004255494C445F50455243455E
:100720004E54004C4556454C494E475F4441544158
:10073000005A5F50524F4245004155544F4C455668
:10074000454C005052494E545F4A4F420050524F60
:100750004752455353004155544F5245504F525400
:100760005F54454D5000564F4C554D4554524943EA
:100770000042494E4152595F46494C455F545241EF
:100780004E534645520053455249414C5F584F4ED7
:100790005F584F4646004649524D574152455F4EBD
:1007A000414D453A4D61726C696E20322E302E33C8
:1007B00020284769744875622920534F5552434594
:1007C0005F434F44455F55524C3A68747470733AB6
:1007D0002F2F6769746875622E636F6D2F4D61727C
:1007E0006C696E4669726D776172652F4D61726CCE
:1007F000696E2050524F544F434F4C5F56455253F1
:10080000494F4E3A312E30204D414348494E455FC5
:10081000545950453A436865777962616363612052
:1008200045585452554445525F434F554E543A3102
:1008300020555549443A63656465326132662D340A
:100840003161322D343734382D396231322D6335F0
:10085000356336326633363766660A004368657735
:10086000796261636361204F46462E004D3131331A
:100870002053004D3131322053687574646F776EA8
:10088000006F66660044454255473A000A5374615A
:1008900074733A2046696C616D656E74207573657A
:1008A000643A20002C204C6F6E67657374206A6F69
:1008B000623A2000546F74616C2074696D653A204F
:1008C000002C204661696C65643A20002C20466942
:1008D0006E69736865643A20005072696E74733A89
:1008E000200053746174733A200050726F74656312
:1008F0007465642050696E0A005072696E742074C9
:10090000696D653A200044656C6574696F6E206698
:1009100061696C65642C2046696C653A2000466903
:100920006C652064656C657465643A00286E6F20A0
:1009300066696C65290043757272656E742066691C
:100940006C653A20005344207072696E74696E675A
:10095000206279746520004E6F74205344207072B9
:10096000696E74696E670A00456E642066696C651D
:10097000206C6973740A00426567696E2066696C51
:1009800065206C6973740A004E6F204D6F76652E7A
:1009900000436C69636B20746F20526573756D65DD
:1009A0002E2E2E004D65736820706F696E74206363
:1009B000616E6E6F74206265207265736F6C766510
:1009C000640A005A2050726F62652050617374206F
:1009D0004265640A005A2050726F6265205061734C
:1009E000742042656400486F6D652058592066691F
:1009F0007273740A00486F6D6520585920466972F9
:100A0000737400536C6565702E2E2E004572726FE4
:100A1000722077726974696E6720746F2045455043
:100A2000524F4D210A00627573793A2070617573D7
:100A3000656420666F7220696E7075740A00627555
:100A400073793A2070617573656420666F722075E2
:100A50007365720A00627573793A2070726F63650C
:100A60007373696E670A004E6F20436865636B732A
:100A7000756D2077697468206C696E65206E756D80
:100A80006265722C204C617374204C696E653A204B
:100A900000636865636B73756D206D69736D617458
:100AA00063682C204C617374204C696E653A200099
:100AB0004C696E65204E756D626572206973206E9B
:100AC0006F74204C617374204C696E65204E756D97
:100AD0006265722B312C204C617374204C696E65F9
:100AE0003A20004D313130004D313137004D333136
:100AF0000053442072656164206572726F720A004F
:100B0000446F6E65207072696E74696E67206669E5
:100B10006C650A002121204B494C4C2063617573A0
:100B20006564206279204B494C4C20627574746F67
:100B30006E2F70696E0A002121204B494C4C2063B6
:100B4000617573656420627920746F6F206D7563C1
:100B50006820696E6163746976652074696D6520CB
:100B60002D2063757272656E7420636F6D6D616E9A
:100B7000643A2000506C656173652052657365743A
:100B8000005052494E5445522048414C544544006F
:100B900025533A202553004B494C4C45442E200008
:100BA0005072696E7465722068616C7465642E2081
:100BB0006B696C6C28292063616C6C6564210A0088
:100BC0003637260305063C3D380E3B3A2E303E12A2
:100BD000162724221E403F08440A0743080907003D
:100BE0000124F4D43050C38E20C2A24017828B70EF
:100BF00011127A910D816CD90AA861E108C7586673
:100C000007615143061E4B5D05C145A7041A4111FA
:100C100004093D9803713931034036DB0265339195
:100C200002D4305402802E1D02632CEE01752AC5B9
:100C300001B028A001102781018F2564012B244BCE
:100C400001E0223401AC211F018D200D01801FFC29
:100C500000841EED00971DDF00B81CD200E61BC605
:100C600000201BBC00641AB200B219A8000A19A027
:100C7000006A189900D117910040178B00B51684AF
:100C80000031167E00B31579003A157300C7146F52
:100C90000058146A00EE1366008813630025135E83
:100CA00000C7125B006C12570015125400C111519D
:100CB0000070114F0021114B00D61049008D1047D4
:100CC000004610440002104200C00F4000800F3E5A
:100CD00000420F3C00060F3B00CB0E3800930E374E
:100CE000005C0E3500270E3400F30D3200C10D31CB
:100CF00000900D3000600D2E00320D2D00050D2CE2
:100D000000D90C2B00AE0C2900850C29005C0C27A7
:100D100000350C27000E0C2600E80B2400C40B2421
:100D200000A00B23007D0B23005A0B2100390B215F
:100D300000180B2000F80A1F00D90A1E00BB0A1E6B
:100D4000009D0A1D00800A1D00630A1C00470A1B43
:100D5000002C0A1B00110A1A00F7091A00DD0919F4
:100D600000C4091900AB091900920917007B091882
:100D700000630917004C09160036091600200916F1
:100D8000000A091500F5081500E0081400CC081445
:100D900000B8081400A4081400900813007D08127D
:100DA000006B08130058081200460812003408119E
:100DB00000230811001208110001081100F00710AB
:100DC00000E0071000D0071000C0071000B0070FA8
:100DD00000A107100091070E0083070F0074070F92
:100DE0000065070E0057070E0049070E003B070D70
:100DF000002E070E0020070D0013070D0006070D3B
:100E000000F9060C00ED060D00E0060C00D4060CFF
:100E100000C8060C00BC060C00B0060C00A4060BB3
:100E20000099060C008D060B0082060B0077060B5E
:100E3000006C060B0061060A0057060B004C060A00
:100E40000042060A0038060A002E060A0024060A96
:100E5000001A060A001006090007060A00FD050927
:100E600000F4050900EB050900E2050900D90509B0
:100E700000D0050900C7050900BE050900B5050831
:100E800000AD050800A50509009C050800940508AB
:100E9000008C050800840508007C0508007405081E
:100EA000006C050700650508005D0507005605088C
:100EB000004E0507004705070040050800380507F4
:100EC00000310507002A050700230507001C050659
:100ED00000160507000F05070008050600020507B4
:100EE00000FB040600F5040700EE040600E8040613
:100EF00000E2040700DB040600D5040600CF040668
:100F000000C9040600C3040600BD040600B70406B9
:100F100000B1040500AC040600A6040600A0040508
:100F2000009B04060095040500900406008A040551
:100F30000085040500800406007A04050075040598
:100F400000700405006B04050066040500610405DB
:100F5000005C04050057040500520405004D04051B
:100F60000048040500430405003E0404003A04055B
:100F70000035040500300404002C04050027040497
:100F800000230405001E0404001A040400160405CE
:100F900000110404000D0404000904050004040405
:100FA0000000040400FC030400F8030400F403043C
:100FB00000F0030400EC030400E8030400E403046D
:100FC00000E0030400DC030400D8030400D403049D
:100FD00000D0030400CC030400C8030300C50303CE
:100FE0000024F404D9201BC40C5C0E9804C4095FCF
:100FF0000265077101F405F900FB04B3004804879A
:1010000000C10369005803550003034500BE023ABE
:10101000008402310053022A002902250004022024
:1010200000E4011C00C8011900AF01170098011469
:101030000084011300710110006101100051010EC4
:101040000043010D0036010B002B010B0020010BAA
:1010500000150109000C01090003010800FB00084C
:1010600000F3000800EB000700E4000600DE0006C5
:1010700000D8000600D2000600CC000500C700051D
:1010800000C2000500BD000400B9000400B5000462
:1010900000B1000400AD000400A9000400A5000395
:1010A00000A20003009F0004009B000300980003BF
:1010B000009500020093000300900003008D0002E1
:1010C000008B0003008800020086000200840003F9
:1010D00000810002007F0002007D0002007B000210
:1010E000007900020077000100760002007400021F
:1010F0000072000100710002006F0002006D00012B
:10110000006C0002006A0001006900020067000133
:101110000066000100650001006400020062000139
:101120000061000100600001005F0002005D00013D
:10113000005C0001005B0001005A00010059000141
:101140000058000100570001005600010055000141
:101150000054000100530000005300010052000140
:101160000051000100500001004F0001004E00003E
:10117000004E0001004D0001004C0001004B00003A
:10118000004B0001004A0001004900010048000036
:101190000048000100470001004600000046000131
:1011A000004500000045000100440001004300002C
:1011B0000043000100420000004200010041000025
:1011C0000041000100400001003F0000003F00011D
:1011D000003E0000003E0001003D0000003D000117
:1011E000003C0000003C0000003C0001003B00000F
:1011F000003B0001003A0000003A00010039000005
:1012000000390001003800000038000000380001FB
:1012100000370000003700010036000000360000F3
:1012200000360001003500000035000000350001E7
:1012300000340000003400000034000100330000DE
:1012400000330000003300010032000000320000D3
:1012500000320001003100000031000000310001C7
:10126000003000000030000000300001002F0000BE
:10127000002F0000002F0000002F0001002E0000B2
:10128000002E0000002E0001002D0000002D0000A7
:10129000002D0000002D0001002C0000002C00009B
:1012A000002C0000002C0001002B0000002B00008F
:1012B000002B0000002B0001002A0000002A000083
:1012C000002A0000002A0001002900000029000077
:1012D000002900000029000000290001002800006A
:1012E000002800000028000000280000002800015D
:1012F0000027000000270000002700000027000052
:101300000027000100260000002600000026000043
:101310000026000000260001002500000025000036
:101320000025000000250000002500000025000128
:10133000002400000024000000240000002400001D
:10134000002400010023000000230000002300000F
:101350000023000000230000002300000023000100
:1013600000220000002200000022000000220000F5
:1013700000220000002200010021000000210000E6
:1013800000210000002100000021000000210000D9
:1013900000210001002000000020000000200000CB
:1013A00000200000002000000020000000200000BD
:1013B00000200001001F0000001F0000001F0000AF
:1013C000001F0000001F0000001F0000001F0001A0
:1013D000001E0000001E0000001E0000001E000095
:1013E00000393000003325000087190000B00F00DD
:1013F00000DB080000BD040000740200003F010093
:1014000000687474703A2F2F6D61726C696E667724
:101410002E6F72670020322E302E33002020506C49
:10142000616E6E6572427566666572427974657347
:101430003A20002046726565204D656D6F72793ADD
:101440002000436F6D70696C65643A2046656220C8
:10145000203320323032300A00204C617374205522
:101460007064617465643A20323032302D30312D31
:101470003331207C20417574686F723A2028706186
:10148000656E69616E2C204C6F7264206F6620550A
:101490006E64657268696C6C20636F6E666967293B
:1014A0000A00322E302E330A004D61726C696E00D4
:1014B00020536F6674776172652052657365740A94
:1014C00000205761746368646F67205265736574A8
:1014D0000A002042726F776E206F75742052657318
:1014E00065740A002045787465726E616C205265DF
:1014F0007365740A00506F77657255700A006175E4
:10150000746F25632E670047323858590065727230
:101510006F722077726974696E6720746F206669D4
:101520006C650A00446F6E6520736176696E672092
:1015300066696C652E0A004D323900456E6473741D
:101540006F707300255320256320256320256320B9
:10155000256300205A3A0020593A00656E6473747E
:101560006F7073206869743A20006563686F3A0091
:101570004572726F723A0042696C696E65617220E1
:101580004C6576656C696E6720477269643A0A003B
:1015900053544F505045442E20005072696E74656C
:1015A000722073746F707065642064756520746F49
:1015B000206572726F72732E204669782074686598
:1015C000206572726F7220616E6420757365204DA4
:1015D00039393920746F20726573746172742E20EA
:1015E0002854656D70657261747572652069732029
:1015F00072657365742E205365742069742061666A
:101600007465722072657374617274696E67290AF9
:101610000021212053544F502063616C6C6564207D
:1016200062656361757365206F6620424C546F7507
:101630006368206572726F72202D20726573746109
:1016400072742077697468204D3939390A004F4621
:10165000460A004661646520486569676874200031
:10166000426564204C6576656C696E672000466152
:10167000696C656420746F20656E61626C652042E0
:101680006564204C6576656C696E670A00496E7604
:10169000616C6964206D6573682E0A0046696C2E62
:1016A000204469612E004520696E206D6DC2B30033
:1016B00020022046616374002002204D61780020E2
:1016C00002204D696E004175746F74656D7000562F
:1016D00054726176204D696E00566D696E00566DCC
:1016E0006178204500566D6178205A00566D61780A
:1016F000205900566D617820580050726F62696EF3
:101700006720506F696E740025532025692F256965
:101710000050726F62696E67206D65736820706F2C
:10172000696E742000202844525952554E290047B2
:101730003239204175746F20426564204C657665AE
:101740006C696E67003F20284C2C522C462C422995
:10175000206F7574206F6620626F756E64732E0A39
:10176000003F2856296572626F7365206C65766547
:101770006C20696D706C61757369626C65202830CE
:101780002D34292E0A00426164205A2076616C753E
:10179000650A004E6F2062696C696E656172206730
:1017A0007269640A00446576696174696F6E002528
:1017B000533A202573005374616E6461726420444F
:1017C0006576696174696F6E3A20002052616E67B8
:1017D000653A20004D65616E3A200046696E697376
:1017E000686564210A002072616E67653A200020F6
:1017F0007369676D613A2000206D65616E3A200063
:101800003A207A3A2000206F662000476F696E67A1
:1018100020746F3A20580043570A00206469723AD6
:101820000020616E676C653A0053746172742072B7
:1018300061646975733A004D343820506F696E7475
:101840000025533A2025642F256400506F73697476
:10185000696F6E696E67207468652070726F62656B
:101860002E2E2E0A003F4E756D626572206F662027
:101870006C65677320696E206D6F76656D656E743B
:10188000206E6F7420706C61757369626C652028BE
:10189000302D3135292E0A003F2028582C59292077
:1018A0006F7574206F6620626F756E64732E0A0008
:1018B0003F53616D706C652073697A65206E6F743B
:1018C00020706C61757369626C652028342D353029
:1018D000292E0A004D3438205A2D50726F6265202F
:1018E0005265706561746162696C697479205465D0
:1018F00073740A007C3C3E5E2B3D3F2F5B5D3B2CAE
:101900002A225C002062797465733B206372632035
:101910000053657474696E67732053746F726564E5
:10192000202800454550524F4D2064617461736911
:101930007A65206572726F722E0A002073746F725E
:1019400065642073657474696E6773207265747260
:101950006965766564202800202863616C63756C76
:101960006174656429210A0020213D20004545500D
:10197000524F4D20435243206D69736D617463680B
:10198000202D202873746F726564292000496E64CD
:1019900065783A2000204D61726C696E3D5637358E
:1019A000290A00454550524F4D2076657273696F84
:1019B0006E206D69736D61746368202845455052CF
:1019C0004F4D3D005072696E742066726F6D204DF0
:1019D00065646961004D6F76652025736D6D004DFE
:1019E0006F766520302E316D6D004D6F766520313C
:1019F0006D6D004D6F76652031306D6D004D6F76E9
:101A000065204178697300486F74656E6420746F57
:101A10006F20636F6C640045787472756465720042
:101A20004D6F7665205A004D6F76652059004D6FD9
:101A3000766520580000002100240027002A002D90
:101A4000003000330001010000040107010A010019
:101A5000002200250028002B002E00310034000257
:101A6000010000050108010B0100002000230026F1
:101A70000029002C002F00320000010000030106A5
:101A80000109010505050507050808080802020205
:101A9000020A0A0808040404040101010101010109
:101AA000010303030303030303040707070C0C0CE0
:101AB0000C0C0C0C0C0202020206060606060606B8
:101AC000060B0B0B0B0B0B0B0B0102102020080855
:101AD0001020401020408002010201080402010190
:101AE0000204081020408080402010080402018079
:101AF00004020180402010080402010804020101D0
:101B000002040810204080010204081020408000D8
:101B1000000A0B02090C0D0E080703040100000067
:101B200000000000000000000000000000000000B5
:101B30000000000000000000000000121110000072
:101B40000000000000000000000000000000000095
:101B5000000000000020746F6F206C6F6E672065BE
:101B60007874727573696F6E2070726576656E74C5
:101B700065640A0020636F6C642065787472757305
:101B8000696F6E2070726576656E7465640A0020F8
:101B900053697A653A200043616E6E6F74206F70EE
:101BA000656E20737562646972200053442063611E
:101BB0007264206F6B0A006F70656E526F6F7420D5
:101BC0006661696C65640A00766F6C756D652E6977
:101BD0006E6974206661696C65640A00534420690B
:101BE0006E6974206661696C0A004D3234004D32B2
:101BF000332025730046696C652073656C656374DA
:101C000065640A0046696C65206F70656E65643AAC
:101C10002000454E4420535542524F5554494E459D
:101C20000A002220706F73002220706172656E744A
:101C30003A2200535542524F5554494E4520434194
:101C40004C4C207461726765743A22007472796931
:101C50006E6720746F2063616C6C207375622D67F2
:101C6000636F64652066696C6573207769746820AA
:101C7000746F6F206D616E79206C6576656C732E64
:101C8000204D4158206C6576656C2069733A310AA5
:101C90000057726974696E6720746F2066696C659D
:101CA0003A2000667265736800646F696E67004E63
:101CB0006F77200048656174696E67206661696CA2
:101CC00065640045313A200045303A20004D5331DB
:101CD0007C4D53327C4D53332050696E730A00455E
:101CE0003100626564002C2073797374656D207314
:101CF000746F7070656421204865617465725F4916
:101D0000443A200048656174696E67204661696CD9
:101D1000656400202D20496E76616C6964206578C9
:101D2000747275646572206E756D62657220210A29
:101D3000004572723A204D415854454D50004D4176
:101D40005854454D50207472696767657265640028
:101D50004572723A204D494E54454D50004D494E02
:101D600054454D5020747269676765726564004D13
:101D7000383420582059205A204500202F00204276
:101D8000403A0020403A001000C90210012C0140E6
:101D900001220170011801B0010E01F0010401508F
:101DA00002FA00B002F0003003E600D003DC00903D
:101DB00004D2007005C800A006BE000008B400B040
:101DC00009AA00D00BA000600E960060118C0000E4
:101DD00015820020197800C01D6E00A0226400B09A
:101DE000275A00902C500000314600E0343C00108F
:101DF000383200903A2800603C1E00A03D1400805C
:101E00003E0A00203F000070012C0190012701B024
:101E1000012201C0011D01F001180110021301305F
:101E2000020E016002090190020401C002FF0000DD
:101E300003FA004003F5008003F000D003EB00201C
:101E400004E6007004E100E004DC004005D700C0B7
:101E500005D2004006CD00D006C8008007C3003080
:101E600008BE00F008B900C009B400B00AAF00B065
:101E70000BAA00D00CA500000EA000500F9B00C0C4
:101E80001096005012910000148C00C0158700B00D
:101E9000178200B0197D00D01B7800001E7300402F
:101EA000206E0090226900F024640040275F0090BB
:101EB000295A00E02B5500102E500020304B001006
:101EC000324600E033410090353C00103737007057
:101ED000383200A0392D00B03A2800A03B23006022
:101EE0003C1E00103D1900903D1400103E0F007084
:101EF0003E0A00C03E0500003F0000403FFBFF805F
:101F00003FF6FFC03FF1FF00FFFDFCFAF8F6F4F2E8
:101F1000F0EEECEAE9E7E5E3E1E0DEDCDAD9D7D59B
:101F2000D4D2D0CFCDCBCAC8C7C5C3C2C0BFBDBC39
:101F3000BAB9B7B6B4B3B2B0AFADACAAA9A8A6A5AA
:101F4000A4A2A1A09E9D9C9A9998979594939290F3
:101F50008F8E8D8B8A8988878684838281807F7E1D
:101F60007D7B7A797877767574737271706F6E6D28
:101F70006C6B6A696867666564636261605F5E5D19
:101F80005C5B5A5958585756555453525150504FFC
:101F90004E4D4C4B4A4A49484746464544434242C7
:101FA00041403F3E3E3D3C3B3B3A39383837363581
:101FB00035343332323130302F2E2E2D2C2B2B2A2C
:101FC00029292827272625252423232221212020CB
:101FD0001F1E1E1D1C1C1B1B1A191918181716165C
:101FE000151514131312121111100F0F0E0E0D0DE3
:101FF0000C0C0B0A0A090908080707060605050460
:1020000004030302020100004573746570732F6DB1
:102010006D005A73746570732F6D6D00597374651C
:1020200070732F6D6D005873746570732F6D6D0034
:10203000496E6974004D34323800496E69746961C3
:102040006C697A6520454550524F4D0046696C6178
:102050006D656E740053746570732F6D6D005072F2
:102060006F6265204F666673657473004A65726BB4
:1020700000416363656C65726174696F6E005665DB
:102080006C6F636974790053657420486F6D6520C7
:102090004F66667365747300436D643A2053746FC2
:1020A0007700436D643A204465706C6F7900436D2E
:1020B000643A2053572D4D6F646500436D643A2098
:1020C00053656C662D5465737400436D643A2052F9
:1020D00065736574000000484300004843000048F1
:1020E0004300004842000048420000A040020204B1
:1020F0000000A0400000A0400000004000000001DF
:10210000000000010000800055555500000040000F
:1021100033333300AAAA2A00499224000000200089
:10212000C7711C0099991900D14517005555150024
:102130003BB11300244912001111110000001000DE
:102140000F0F0F00E3380E0043790D00CCCC0C00CC
:10215000C3300C00E8A20B0064210B00AAAA0A00FD
:10216000703D0A009DD80900427B090092240900B5
:10217000DCD308008888080010420800000008002E
:10218000F0C107008787070075500700711C070022
:102190003EEB0600A1BC06006990060066660600DC
:1021A000703E06006118060017F4050074D10500A2
:1021B0005BB00500B2900500627205005555050040
:1021C00078390500B81E0500050505004EEC040031
:1021D00087D40400A1BD040090A704004992040024
:1021E000C17D0400EE690400C756040044440400A5
:1021F0005C320400082104004110040000000400C7
:102200003FF00300F8E0030026D20300C3C303003D
:10221000CCB503003AA803000A9B0300388E0300E4
:10222000C08103009F750300D0690300505E030066
:102230001D53030034480300913D03003333030072
:1022400016290300381F030097150300300C030004
:10225000030303000BFA020049F10200BAE802008E
:102260005CE002002DD802002DD0020059C8020007
:10227000B0C0020031B90200DAB10200AAAA02001D
:10228000A0A30200BC9C0200FA9502005C8F020031
:10229000DF88020082820200457C0200277602006D
:1022A00027700200436A02007C640200D05E0200D4
:1022B0003F590200C853020020436F756E742058C6
:1022C0003A0020453A00486F6D696E6720466169A3
:1022D0006C6564005761726E696E673A20486F6D75
:1022E000696E672042756D702044697669736F72FC
:1022F000203C20310A004F6666004F6E0054656D29
:102300007065726174757265004D3834004469738C
:1023100061626C652053746570706572730047323A
:10232000380A4D343820503130004D343820507246
:102330006F6265205465737400466164652048656A
:1023400069676874004732380A473239004C65764D
:10235000656C2042656400473238004175746F2017
:10236000486F6D65005072656865617420504C411E
:1023700020456E64005072656865617420504C4160
:102380002042656400507265686561742041425363
:1023900020456E6400507265686561742041425347
:1023A0002042656400436F6F6C646F776E005072FB
:1023B00065686561742041425300507265686561CB
:1023C0007420504C4100206D61783A2000206D69E6
:1023D0006E3A20003F5A206F7574206F662072613C
:1023E0006E67652028003F59206F7574206F662046
:1023F00072616E676520282D0020746F20003F58A1
:10240000206F7574206F662072616E676520282DBD
:102410000050726F6265204F6666736574205800C5
:10242000656E7175657565696E672022005265730A
:10243000656E643A20002569792025696420256944
:10244000682025696D202569730020573A004520D2
:1024500025530042656420436F6F6C696E672E2EB2
:102460002E004265642048656174696E672E2E2EC9
:102470000023646566696E652044454641554C54A9
:102480005F004B6420004B6920004B7020005049D6
:1024900044204175746F74756E652066696E69734A
:1024A000686564212050757420746865206C6173C0
:1024B00074204B702C204B6920616E64204B64208B
:1024C000636F6E7374616E74732066726F6D2062D9
:1024D000656C6F7720696E746F20436F6E666967F5
:1024E00075726174696F6E2E680A0050494420410C
:1024F00075746F74756E65206661696C6564212002
:1025000074696D656F75740A000A20436C6173739A
:10251000696320504944200A00204B643A2000207F
:102520004B693A2000204B703A20002054753A2025
:1025300000204B753A200020643A20002062696137
:10254000733A2000504944204175746F74756E656C
:102550002073746172740A00504944204175746F8D
:1025600074756E65206661696C6564212054656DC3
:10257000706572617475726520746F6F2068696729
:10258000680A00504944204175746F74756E652067
:102590006661696C656421204261642065787472AB
:1025A00075646572206E756D6265720A005072699D
:1025B0006E74205061757365640050617573652099
:1025C0005072696E74004D656469612052656D6F6B
:1025D000766564004D6564696120496E7365727447
:1025E0006564004368657779626163636120526561
:1025F0006164792E005072696E74696E672E2E2E9A
:10260000005072696E742041626F72746564004D8F
:1026100032350050726F6265205A204F66667365CE
:10262000740046616E205370656564004E6F7A7A5F
:102630006C65004D61696E00466C6F7700256875AA
:102640003A25303268750025303268753A253032C7
:102650006875005344002020202020202000A10085
:1026600000006900A20000006300B0000000090043
:10267000C10000004100C20000004100C300000092
:102680004100C40000004100C50000004100C60038
:1026900000004145C70000004300C800000045009D
:1026A000C90000004500CD0000004900D100000035
:1026B0004E00D50000004F00D60000004F00D700AC
:1026C00000007800DC0000005500DD00000059002B
:1026D000E00000006100E10000006100E200000095
:1026E0006100E30000006100E40000006100E5001B
:1026F00000006100E60000006165E7000000630083
:10270000E80000006500E90000006500EA00000044
:102710006500EB0000006500EC0000006900ED00C2
:1027200000006900EE0000006900EF000000690091
:10273000F10000006E00F20000006F00F3000000E6
:102740006F00F40000006F00F50000006F00F6005D
:1027500000006F00F80000006F00F9000000750035
:10276000FA0000007500FB0000007500FC0000008E
:102770007500FD0000007900FF00000079000401F1
:102780000000410005010000610006010000430057
:102790000701000063000C01000043000D01000070
:1027A00063000E01000044000F01000064001101ED
:1027B000000064001901000065001F0100006700AF
:1027C00030010000490031010000690041010000B2
:1027D0004C00420100006C00430100004E00440127
:1027E00000006E00480100006E00590100007200F8
:1027F0005A01000053005B01000073005F010000FC
:102800007300600100005300610100007300650166
:10281000000074006F01000075007C0100007A0068
:102820007D0100005A007E0100007A009201000044
:102830006600E30200007800222000002E001E2126
:102840000000507822210000544D902100003C2DC2
:10285000922100002D3EB02100000300BB210000AA
:1028600004003C2200007E00482200007E3D6022E1
:102870000000213D612200003D00642200003C3D3B
:10288000652200003E3DF12300000700A03000005B
:102890003D0021F301000200C2F401000500A20086
:1028A0000000EC00B0000000DF00E4000000E100E8
:1028B000F6000000EF00F7000000FD00FC00000043
:1028C000F500E3020000EB0087030000A5008F0382
:1028D0000000F40098030000F2009E030000E300F3
:1028E000A3030000F600A9030000F400AC030000FD
:1028F000E000AD030000E300B1030000E000B2031C
:102900000000E200B5030000E300B8030000F2009D
:10291000BC030000E400BE030000E300C0030000AD
:10292000F700C1030000E600C3030000E5009021AA
:1029300000007F00922100007E001A220000E800C3
:102940001E220000F30088250000FF000230000076
:10295000A1000C300000A2000D300000A3009B304D
:102960000000DE009C300000DF00A03000003D00D1
:10297000A1300000A700A2300000B100A330000089
:10298000A800A4300000B200A5300000A900A630C5
:102990000000B300A7300000AA00A8300000B40077
:1029A000A9300000AB00AA300000B500AB30000039
:1029B000B600AC300000B6DEAD300000B700AE307F
:1029C0000000B7DEAF300000B800B0300000B8DE65
:1029D000B1300000B900B2300000B9DEB330000001
:1029E000BA00B4300000BADEB5300000BB00B6302B
:1029F0000000BBDEB7300000BC00B8300000BCDE19
:102A0000B9300000BD00BA300000BDDEBB300000B0
:102A1000BE00BC300000BEDEBD300000BF00BE30D6
:102A20000000BFDEBF300000C000C0300000C0DECC
:102A3000C1300000C100C2300000C1DEC330000060
:102A4000AF00C4300000C200C5300000C2DEC63096
:102A50000000C300C7300000C3DEC8300000C4005F
:102A6000C9300000C4DECA300000C500CB30000011
:102A7000C600CC300000C700CD300000C800CE300A
:102A80000000C900CF300000CA00D0300000CADE0C
:102A9000D1300000CADFD2300000CB00D3300000BC
:102AA000CBDED4300000CBDFD5300000CC00D630F8
:102AB0000000CCDED7300000CCDFD8300000CD00E5
:102AC000D9300000CDDEDA300000CDDFDB30000091
:102AD000CE00DC300000CEDEDD300000CEDFDE30A8
:102AE0000000CF00DF300000D000E0300000D10057
:102AF000E1300000D200E2300000D300E3300000FB
:102B0000AC00E4300000D400E5300000AD00E63059
:102B10000000D500E7300000AE00E8300000D6002D
:102B2000E9300000D700EA300000D800EB300000A8
:102B3000D900EC300000DA00ED300000DB00EF30AF
:102B40000000DC00F2300000A600F3300000DD00E1
:102B5000F4300000B3DEF7300000DCDEFA300000B5
:102B6000A6DEFB300000A500FC300000B000FD3008
:102B70000000A400074E0000FB0086510000FC008E
:102B800043530000FA0064FF0000A40065FF00004A
:102B9000A50066FF0000A60067FF0000A70068FF11
:102BA0000000A80069FF0000A9006AFF0000AA0059
:102BB0006BFF0000AB006CFF0000AC006DFF00007D
:102BC000AD006EFF0000AE006FFF0000AF0070FFB1
:102BD0000000B00071FF0000B10072FF0000B20001
:102BE00073FF0000B30074FF0000B40075FF000025
:102BF000B50076FF0000B60077FF0000B70078FF51
:102C00000000B80079FF0000B9007AFF0000BA00A8
:102C10007BFF0000BB007CFF0000BC007DFF0000CC
:102C2000BD007EFF0000BE007FFF0000BF0080FFF0
:102C30000000C00081FF0000C10082FF0000C20050
:102C400083FF0000C30084FF0000C40085FF000074
:102C5000C50086FF0000C60087FF0000C70088FF90
:102C60000000C80089FF0000C9008AFF0000CA00F8
:102C70008BFF0000CB008CFF0000CC008DFF00001C
:102C8000CD008EFF0000CE008FFF0000CF0090FF30
:102C90000000D00091FF0000D10092FF0000D200A0
:102CA00093FF0000D30094FF0000D40095FF0000C4
:102CB000D50096FF0000D60097FF0000D70098FFD0
:102CC0000000D80099FF0000D9009AFF0000DA0048
:102CD0009BFF0000DB009CFF0000DC009DFF00006C
:102CE000DD009EFF0000DE009FFF0000DF00E5FF2B
:102CF00000005C00001C1F11111F000000061918C5
:102D000003130C00040E1F041C000000000E13151A
:102D1000110E00001C10181705060500040A0A0A07
:102D20000A11110E0C12120C00000000001F1511E8
:102D3000151F000000000000010204040000001C38
:102D40001C0C040404020100000000000408100030
:102D5000000000007C4D61726C696E7C002D2D2D91
:102D60002D2D2D00416D6178204500416D61782049
:102D70005A00416D6178205900416D6178205800FA
:102D8000412D54726176656C00412D5265747261FB
:102D9000637400416363656C004A756E6374696FA8
:102DA0006E204465760050726F62652059204F6630
:102DB000667365740050726F62652058204F6666B6
:102DC000736574003F0043616E63656C004D6F7402
:102DD000696F6E005374617274205072696E740072
:102DE00043616E6E6F7420656E74657220737562D8
:102DF0006469723A2000052E2E00416476616E638C
:102E000065642053657474696E677300436F6E6602
:102E1000696775726174696F6E00526573746F7261
:102E200065206661696C73616665004C6F61642042
:102E300053657474696E67730053746F72652053C1
:102E4000657474696E67730050726568656174209B
:102E500041425320436F6E6600507265686561742D
:102E600020504C4120436F6E6600424C546F756396
:102E700068004261636B0053746F70004D32310023
:102E80004368616E6765204D6564696100526573D2
:102E9000756D65205072696E74004E6F204D6564CB
:102EA00069610054756E650053746F7020507269CB
:102EB0006E7400496E666F2053637265656E002004
:102EC000496E76616C6964206578747275646572A8
:102ED00020004361703A0047322F4733206261641B
:102EE00020706172616D65746572730A0048617269
:102EF00064636F6465642044656661756C74205317
:102F0000657474696E6773204C6F616465640A0050
:102F100020204D3835312058005A2D50726F62658F
:102F2000204F66667365740020204D333031205089
:102F3000005049442073657474696E67733A0A00DF
:102F400020460020480020204D3134352053004DCC
:102F50006174657269616C20686561747570207058
:102F60006172616D65746572733A0A0020204732A0
:102F700039205720490020204D3432302053004161
:102F800075746F20426564204C6576656C696E6768
:102F90003A0A0020204D323036205800486F6D65C7
:102FA000206F66667365743A0A00204A0020204D3F
:102FB000323035204200204A3C6A756E635F64659A
:102FC000763E00416476616E6365643A20423C6DF2
:102FD000696E5F7365676D656E745F74696D655F5B
:102FE00075733E20533C6D696E5F66656564726102
:102FF00074653E20543C6D696E5F74726176656CD9
:103000005F66656564726174653E0020204D3230F4
:1030100034205000416363656C65726174696F6E42
:103020002028756E6974732F7332293A20503C70D2
:1030300072696E745F616363656C3E20523C7265B9
:1030400074726163745F616363656C3E20543C74A9
:10305000726176656C5F616363656C3E0A00202077
:103060004D3230312058004D6178696D756D2041C9
:103070006363656C65726174696F6E2028756E6933
:1030800074732F7332293A0A0020204D32303320D6
:1030900058004D6178696D756D2066656564726173
:1030A0007465732028756E6974732F73293A0A004A
:1030B00053746570732070657220756E69743A0A76
:1030C0000020204D3230302044300A0020204D3284
:1030D00030302044002044697361626C65640A00EA
:1030E00046696C616D656E742073657474696E6792
:1030F000733A0020204D3134392043203B20556E57
:1031000069747320696E2043656C736975730A0076
:1031100020286D6D29002020473231202020203BBF
:1031200020556E69747320696E206D6D006F706537
:103130006E00545249474745524544007A5F6D69D5
:103140006E00795F6D696E00785F6D696E00526523
:10315000706F7274696E6720656E6473746F70202F
:103160007374617475730A000000964300009643FF
:103170000000A0400000C8410000A0420000A042A2
:1031800000007A4500001B43E8030000E80300004C
:1031900032000000E80300006F70656E2066616910
:1031A0006C65642C2046696C653A20005448455291
:1031B0004D414C2052554E4157415900546865725B
:1031C0006D616C2052756E6177617900204D3932E6
:1031D00020580020204D61783A200020204D696E53
:1031E0003A2000536F667420656E6473746F707359
:1031F0003A20005761726E696E67203A20436C6511
:10320000616E20436972636C6520726571756972C5
:1032100065732058590A00205A3A200020593A2054
:103220000042656420583A200050726F62696E67F0
:10323000204661696C65640A0050726F62696E674E
:10324000204661696C656400486F6D6520257325B3
:1032500073257320466972737400220A00556E6BE1
:103260006E6F776E20636F6D6D616E643A20220021
:103270004D6963726F737465707320756E617661EA
:10328000696C61626C650A008001BE0111241FBE79
:10329000CFEFD1E2DEBFCDBF00E00CBF13E0A0E076
:1032A000B2E0EAE2F8E302E00BBF02C007900D9241
:1032B000AE38B107D9F724E1AEE8B3E001C01D9202
:1032C000AA3BB207E1F719E1C5E4D9E100E006C085
:1032D00021970109802FFE010F946418C434D1078F
:1032E00080E00807A9F70F943C020D94031C0C948E
:1032F00000002F923F924F925F926F927F928F9237
:103300009F92AF92BF92CF92DF92EF92FF920F9374
:103310001F93CF93DF93CDB7DEB7AE970FB6F89478
:10332000DEBF0FBECDBF20916B042EA7FF24F39408
:10333000F0926B0480916A048D3409F4BCC3843527
:1033400011F40C94922A873411F00C94AD2A209138
:103350006804309169042B31310509F48FC0BCF445
:103360002430310534F422303105ECF537FF2FC01D
:103370009EC32C30310509F47DC02531310511F48F
:103380000C94AF2A2430310509F091C335C02A329C
:10339000310509F465C25CF42D31310509F409C128
:1033A0000CF4F7C02E31310509F417C180C32B3559
:1033B000310509F4D2C12C35310509F4D3C12A35C0
:1033C000310509F074C3109267040C94AF2A809100
:1033D0000B02882311F40C94AF2A0E9429EA0E9460
:1033E000BCAC0C94AF2A81E02230310509F080E0BA
:1033F0000E940FEB0C94AF2A80E50E9418448823AA
:1034000029F00E940EFD6B017C0103C0C12CD12C60
:10341000760183E50E941844882361F00E94984356
:1034200020E030E04AE754E40F94DD110F94E019F6
:103430006B017C010E94AF9F80913E04811105C009
:1034400060E083E09AE00E94AEC80F94C101C60E0E
:10345000D71EE81EF91E0F94C101DC01CB018C19A7
:103460009D09AE09BF09B7FD02C00C94AF2A0E94A6
:10347000E632F1CF0E94DDF80C94AF2A0E9471FE73
:1034800081110C94AF2A8CE0E6E6F2E0DE011196A1
:1034900001900D928A95E1F760E070E080E50E946E
:1034A000CAF840E050E068EC72E448A759A76AA760
:1034B0007BA740E050E060EA70E44CA35DA36EA3FC
:1034C0007FA3813019F0823039F029C0BE016C5DD4
:1034D0007F4FCE01099644C029853A854B855C858E
:1034E0006091841470918514809186149091871452
:1034F0000F946D186B017C0120E030E048E453E448
:103500000F94771187FD06C0C12CD12C48E4E42E1E
:1035100043E4F42ECC8EDD8EEE8EFF8E1CC0E09048
:103520008414F09085140091861410918714A98456
:10353000BA84CB84DC849501A601B701C8010F943D
:10354000771187FF02C075018601C701D8018C8FF2
:103550009D8FAE8FBF8FBE016C5D7F4FCE014C96AD
:103560000E94B1B088E0FE013196DE015C960190C8
:103570000D928A95E1F7AE01485D5F4FBE01605E36
:103580007F4FCE014C960E948FB00E9499B20C944E
:10359000AF2A809178148770873011F00C94B52A87
:1035A00060E08FE40E94404481110C94AF2A0C9497
:1035B000B52A0E9471FE81110C94AF2A80913D04BE
:1035C000882311F40C94FD2B60E08FE40E944044AA
:1035D00081110C94AF2A0C94FD2B20916C14309126
:1035E0006D1440916E1450916F1460917C14709121
:1035F0007D1480917E1490917F140F946D18AB010F
:10360000BC0188E50E946EB869837A838B839C83B2
:103610002091701430917114409172145091731470
:103620006091801470918114809182149091831420
:103630000F946D18AB01BC0189E50E946EB86D83D3
:103640007E838F839887BE016B5F7F4FCE0101968B
:103650000E942B42882311F40C94AF2A80E00E9430
:103660004C460E94AFAF61E085E40E94404421E0F7
:10367000482FBE016B5F7F4FCE0101960E94EAFE8C
:103680006B017C019B01AC010F945F1B81115FC03A
:1036900089809A80AB80BC8020E030E0A901C50120
:1036A000B4010F94771187FF05C027E137EB41E59F
:1036B00058EB04C027E137EB41E558E3C501B401FD
:1036C0000F946D18AB01BC0181E292E30E940E4B96
:1036D0008D809E80AF80B88420E030E0A901C501D4
:1036E000B4010F94771187FF05C027E137EB41E55F
:1036F00058EB04C027E137EB41E558E3C501B401BD
:103700000F946D18AB01BC018CE192E30E940E4B4B
:1037100020E030E0A901C701B6010F94771187FFBF
:1037200005C067E177EB81E598EB04C067E177EBD3
:1037300081E598E3A70196010F946D18AB01BC01D8
:1037400087E192E30E940E4B8AE00E94BA310E9408
:1037500096AF0E9499B20C94AF2A8FE080936704D1
:103760000C94AF2A82E7282E82E0382E9FE1E92EC2
:1037700094E0F92E8CE794E19DA78CA720E6C22E59
:1037800024E1D22E00E010E0F10181911F010E949E
:103790001844882309F44AC00E9498432B013C0135
:1037A000133049F0F60120813181428153810F9419
:1037B0006C182B013C01ECA5FDA5208131814281D3
:1037C0005381C301B2010F946C184B015C012DEBC6
:1037D00037E346E855EB0F94CD1A87FD0AC02DEB71
:1037E00037E346E855E3C501B4010F947711181685
:1037F000ECF4133051F44092881450928914609282
:103800008A1470928B1401E011C0A5019401F70194
:1038100060817181828193810F946D18F7016083BB
:10382000718382839383812F0E94FBAB1F5FF4E03F
:10383000EF0EF11C2CA53DA52C5F3F4F3DA72CA7FB
:1038400034E0C30ED11C143009F09ECF002321F0C8
:1038500088E894E10E94BF9F0E9499B20C94AF2A1D
:1038600080910B02882311F40C94AF2A89E40E9402
:103870001844E82E882321F00E949443082F01C0A9
:1038800000E08AE40E941844F82E882321F00E9468
:103890009443182F01C010E0EE2011F0033020F403
:1038A000FF2041F0133030F084EA99E00E94564A3C
:1038B0000C94AF2A80E1ECE7F4E1ADE2B4E00190D2
:1038C0000D928A95E1F7EE2019F1602F000F770B2A
:1038D000880B990B0F947E1120910F0430911004E6
:1038E00040911104509112040F94DD11209117049E
:1038F000309118044091190450911A040F946D18D6
:1039000060932D0470932E0480932F0490933004C1
:10391000FF2019F1612F110F770B880B990B0F9472
:103920007E1120911304309114044091150450919C
:1039300016040F94DD1120911B0430911C0440915A
:103940001D0450911E040F946D1860933104709300
:103950003204809333049093340460E080E50E9445
:1039600040448823C1F1EE20D1F020916C143091B5
:103970006D1440916E1450916F1460912D047091EC
:103980002E0480912F04909130040F946C18609352
:103990002D0470932E0480932F0490933004FF2005
:1039A000D1F02091701430917114409172145091A3
:1039B00073146091310470913204809133049091BA
:1039C00034040F946C186093310470933204809324
:1039D00033049093340440E050E0BA0186E40E943E
:1039E0006EB86B017C0120E030E0A9010F94CD1A84
:1039F00018165CF420E030E040E752E4C701B6015D
:103A00000F9467196B017C0103C0C12CD12C760186
:103A100080905E0290905F02A0906002B090610280
:103A200020E030E0A901C701B6010F947711882387
:103A300041F0C0925E02D0925F02E0926002F0928A
:103A40006102009108021091090284E690E09093CF
:103A5000090280930802C0902402D0902502E090D1
:103A60002602F090270280E090E0A0E8BFE3809378
:103A7000240290932502A0932602B09327020E946D
:103A8000BCAC80925E0290925F02A0926002B09203
:103A900061021093090200930802C0922402D0929E
:103AA0002502E0922602F09227020C94AF2A0E948F
:103AB00063FE0C94AF2A00916804109169040537E5
:103AC000110509F456C70CF03BC10C34110509F47B
:103AD00090C40CF062C00931110509F418C334F523
:103AE0000431110509F4C4C28CF40131110509F443
:103AF000ABC234F40230110508F42FC20C948F2AA3
:103B00000231110509F457C60C948F2A06311105AC
:103B100009F4D3C20CF4CDC20731110509F4D6C2A1
:103B20000831110509F4E7C20C948F2A0E311105F2
:103B300009F46FC3B4F40B31110509F40FC30CF48D
:103B4000FFC20C31110509F45CC30D31110511F0F0
:103B50000C948F2A80910D148E7F80930D140C94F9
:103B6000AF2A0A32110509F418C454F40F311105B3
:103B700009F4F3C30032110509F4ACC30C948F2A85
:103B80000033110509F431C40B34110511F00C9404
:103B90008F2A0E94E29C0C94AF2A0936110509F481
:103BA000F3C464F50335110509F4FEC5BCF40E3405
:103BB000110509F437C40CF431C40135110509F4B9
:103BC000DFC50235110511F00C948F2A809167042E
:103BD0008F7D8061809367040C94AF2A05351105B1
:103BE00009F415C60CF4E7C50C35110509F432C605
:103BF0000836110509F4A8C40C948F2A0E36110555
:103C000009F4FCC49CF40B36110509F4EEC40CF461
:103C1000CFC40C36110509F447C50D36110511F056
:103C20000C948F2A0E9470BE0C94AF2A01371105A4
:103C300009F442C594F40F36110509F4F0C40037B5
:103C4000110511F00C948F2A41E060E070E083E7E9
:103C500098E00E94A32E0C94AF2A0237110509F4B4
:103C600083C60337110511F00C948F2A86E997E07B
:103C70000E94564A60E086E897E00E94F5E960E01D
:103C800081E797E00E94F5E961E085E490E20E9417
:103C9000F5E961E086E697E00E94F5E961E086E5F6
:103CA00097E00E94F5E960E08DE497E00E94F5E975
:103CB00061E083E497E00E94F5E961E089E397E041
:103CC0000E94F5E961E081E397E00E94F5E961E097
:103CD00083E297E00E94F5E960E085E197E00E94C9
:103CE000F5E960E086E097E00E94F5E960E088EFA2
:103CF00096E00E94F5E960E082EE96E00E94F5E928
:103D000060E081ED96E00E94F5E960E082EC96E0EB
:103D10000E94F5E960E08DEA96E00E94F5E961E035
:103D20008AE996E00E94F5E960E08DE896E00E945D
:103D3000F5E960E089E796E00E94F5E90C94AF2A86
:103D40000C3281E0180711F40C940D280CF075C0AA
:103D5000093C110509F40BC78CF50C38110509F461
:103D6000CDC4BCF40737110509F44EC60CF411C6D6
:103D70000837110509F44BC60937110511F00C94E9
:103D80008F2A10922B0410922C040E9419F10C948B
:103D9000AF2A0B39110509F4CDC434F401391105EA
:103DA00009F43DC60C948F2A0E3B110509F4BFC4DB
:103DB000083C110509F48EC60C948F2A033D1105A9
:103DC00009F473C7F4F40C3C110509F415C734F475
:103DD0000B3C110509F4EEC60C948F2A0D3C11051D
:103DE00009F43BC70E3C110511F00C948F2A42E7F1
:103DF000C42E42E0D42E5CEBE52E53E0F52E10E00D
:103E000042C7023E110509F4B5C754F40C3D110533
:103E100009F44EC70D3D110509F457C70C948F2ABC
:103E20000831E1E01E0711F40C940527023211401D
:103E300011F40C949C270C948F2A053A21E0120768
:103E400011F40C94F2280CF044C00F3581E01807EF
:103E500011F40C94122AB4F40E32E1E01E0711F4AE
:103E60000C94A22814F40C9422280F3221E012079B
:103E700011F40C94E6280E35114011F40C94DD2950
:103E80000C948F2A023981E0180711F40C94EC2865
:103E900094F40039E1E01E0711F40C94E92801398B
:103EA000114011F00C948F2A81E00E94419C0E94E5
:103EB00099B20C94AF2A0A3921E0120709F4F9C328
:103EC000043A114011F00C948F2A0E94124C0C9469
:103ED000AF2A073F81E0180711F40C94B929ECF4DC
:103EE000043FE1E01E0711F40C94B3293CF40C3AB2
:103EF000114011F40C9456290C948F2A053F31E09F
:103F0000130711F40C94B629063F114011F00C94DC
:103F10008F2A0E9428F10C94AF2A033593E01907E9
:103F200011F40C94DA296CF4083FF1E01F0711F446
:103F30000C94C1290C30124011F40C94D2290C9429
:103F40008F2A003A33E0130709F4F9C1073E134002
:103F500011F40C94812A0C948F2AA0900D04B09037
:103F60000E0480E50E941844882359F00E940EFD3B
:103F70006B017C0111E0672B682B692B31F410E099
:103F800004C010E0C12CD12C760183E50E941844B6
:103F9000882311F40C94002C0E94984320E030E018
:103FA0004AE754E40F94DD110F94E0196B017C0192
:103FB00011110BC0672B682B692B39F4A114B104C4
:103FC00021F0F5018081811102C010E001C011E0F3
:103FD0000E94AF9F112329F061E0C5010E9424C90E
:103FE00005C060E081E999E00E94AEC883E080935B
:103FF0006B0481E080930C04C114D104E104F1044A
:10400000B1F00F94C101C60ED71EE81EF91E0F9421
:10401000C101DC01CB018C199D09AE09BF09B7FFB5
:104020000DC080910C0481110C94052C07C0809167
:104030000C04882319F00E94E632F9CF0E9447C988
:1040400010920C040C94AF2A8091080484FF02C0E3
:104050000C94092C80910A0487FF02C00C94092C4F
:1040600080910B04837011F00C94092C0C94252C76
:1040700087E799E00E94564A87E092E10E949361A7
:104080008BE1E7E0F2E1DE01119601900D928A9555
:10409000E1F760E070E0CE0101960E944E8FCE0104
:1040A00001960E943E6388E699E00E94564A0C946D
:1040B000AF2A0E94438C0C94AF2A0E94D48B80912B
:1040C0000D14877F80930D140C94AF2AE0910D049A
:1040D000F0910E048081882329F0803209F4108247
:1040E0003196F8CF60E080910D0490910E040E940B
:1040F0002F8E0C94AF2A0E94522F882321F00E9409
:10410000E38B0E94E29C0E9447C90C94AF2A8091E5
:104110000D1482FF03C08B7F80930D1480910704E0
:10412000813089F782E0809307040F94C101609386
:104130000304709304048093050490930604E3CF72
:1041400080910D1483FD02C00C94AF2A83E50E9478
:10415000184481110C94332C0C94AF2A83E40E94F0
:10416000CF43882319F186E399E00E94564A809153
:10417000B111882391F0BE016F5F7F4F8EEA91E10C
:104180000E9444638E010F5F1F4FF80181918F01E0
:10419000882339F00E94BA31F8CF8CE299E00E946E
:1041A000564A8AE00E94BA310C94AF2A80910D14CD
:1041B00082FF21C085E499E00E94564A609109146B
:1041C00070910A1480910B1490910C144AE00E9493
:1041D000C1318FE20E94BA316091051470910614CA
:1041E00080910714909108144AE00E94C1310E9406
:1041F000BF320C94AF2A87E599E00E94564A0C948E
:10420000AF2A80910D0490910E040E94E18D0C94D0
:10421000AF2A80910D1483FD02C00C94AF2A0E9436
:104220004CFE80910D1483FD02C00C94AF2A409186
:104230000D0450910E04BE01645E7F4F80E00E9429
:10424000B3F78C01009711F40C94AF2A6C8D7D8D1F
:1042500019821C8222E0AC01CE0101960E94026705
:10426000811102C0F12C14C0CE0101960E9421F7E9
:104270008823C1F361E0CE0101960E94E6620097B7
:1042800089F325EEFC0120831C820E940362F82E34
:10429000CE0101960E943E63B801FF2089F08EE1B5
:1042A00099E00E942C4B8AE00E94BA3110920914C6
:1042B00010920A1410920B1410920C140C94AF2A42
:1042C00086E099E00E942C4B81ED98E10E94564ACD
:1042D0000C94AF2A80910D1482FD0E94AF9F8091B3
:1042E0000D1483FD02C00C94AF2A60E080E50E94AB
:1042F0004044182F682F80910D0490910E040E9465
:104300002F8E83E50E941844882381F00E94604329
:10431000AB01BC014093091450930A1460930B1431
:1043200070930C148EEA91E10E94A45F0E94E38BCB
:1043300011110C94AF2A0E94E29C0C94AF2A209198
:104340000D0430910E0490910D14926090930D1411
:10435000C9010E94E18D0C94AF2A0E948A726C8F71
:104360007D8F8E8F9F8FBE016F5F7F4FCE014C96EA
:104370000E9466C060E0CE0101960E9424C90E949E
:104380000E4CBE016F5F7F4F89EF98E00E942C4B6F
:104390008AE00E94BA310C94AF2A83E50E94184447
:1043A000882311F40C94AF2A0E947043F82E6DE01C
:1043B00070E080E50E9425448C0197FF02C00C94B8
:1043C000AF2A893021F4F09290110C94AF2A60E06A
:1043D00089E40E94404481110C94442C802F0F9456
:1043E00017028111E4C40C94442C0E94B6550C941D
:1043F000AF2A80910704813011F00C94AF2A82E03B
:10440000809307040F94C101609303047093040424
:1044100080930504909306040C94AF2A0E943E9D5D
:104420000C94AF2A60E070E083E50E9425448E344E
:10443000910531F40E94AF9D0E9447C90C94AF2AA8
:1044400082EE98E00E94564A6091F3037091F40363
:1044500089ED98E00E94014B6091F5037091F6039D
:104460008CEC98E00E94014B6091F3037091F4038F
:104470008091F5039091F603681B790B80910704F6
:10448000815021E030E0823010F020E030E0621B0B
:10449000730B81EC98E00E94014B8AE00E94BA31D4
:1044A00082EE98E00E94564A8091F7039091F803BB
:1044B000A091F903B091FA038C8F9D8FAE8FBF8FBF
:1044C000BE016F5F7F4FCE014C960E9466C0BE0159
:1044D0006F5F7F4F84EB98E00E942C4B8091FB0331
:1044E0009091FC03A091FD03B091FE038C8F9D8FF2
:1044F000AE8FBF8FBE016F5F7F4FCE014C960E9483
:1045000066C0BE016F5F7F4F84EA98E00E942C4B2B
:1045100020E030E04AE754E46091FF03709100042A
:1045200080910104909102040F946719AB01BC01C2
:104530008CE898E00E940E4B8DE60E94BA318AE02A
:104540000E94BA310C94AF2A8091490D83FF02C0BA
:104550000C94AF2A0E941BF087FF02C00C94AF2A74
:1045600083E50E941844882359F00E9498430F94D1
:10457000D919CB010E94089261E080E00E94C792A5
:104580000E94149F0C94AF2A0E941BF0182F87FDE5
:104590000AC08CE295E00E94564A812F0E94189230
:1045A0008AE00E94BA31FEA5F0936B040C94AB2D07
:1045B00060E080E50E9434448111D1C781E40E940B
:1045C000CF43882321F06091901170E002C06FEF1B
:1045D00070E083E50E94CAF88F3F910519F010F052
:1045E0008FEF90E080939011BAC760E080E50E9461
:1045F00034448111B4C710929011B1C78EE40E9467
:104600001844882309F4ABC70E9460436093EF030A
:104610007093F0038093F1039093F203A0C783E5B6
:104620000E94CF43882331F060E083E50E94344448
:104630008093490D0E940E4C85E898E00E94564AEE
:104640008091490D882369F10CEFE02E04E0F02EF3
:1046500000E010E020E08091490D90E0A0E0B0E0A3
:10466000002E04C0B695A795979587950A94D2F722
:1046700080FF0EC0DD24D394D20E222319F08CE2E9
:104680000E94BA31F701859194910E94564A2D2DCE
:104690000F5F1F4F32E0E30EF11C05301105D9F614
:1046A00080CD81E898E07BCD10920C041092070237
:1046B00056C70E94122F53C783E50E9418448823CF
:1046C00071F00E947043282F30E02D3331051CF427
:1046D0008093060244C78CE38093060240C70E9481
:1046E0000E4C4091060250E060E070E08CE698E0ED
:1046F0000E94F04A8AE00E94BA3131C78091490D88
:1047000083FD2DC783E50E941844882309F427C739
:104710000E9498430F94D9196C3871050CF48B01E1
:104720001093ED030093EC030E94869118C70E943A
:104730009CBC15C783E50E941844882309F40FC761
:104740000E947043182F90E0CD970CF01CE310935B
:10475000E3030F94C1016B017C01212F30E0A8EE2F
:10476000B3E00F942118C60ED71EE81EF91EC092A2
:10477000DF03D092E003E092E103F092E203EFC6A0
:104780000E94DF920E943E9D0E942AA10E944F2F0C
:1047900068EE73E080E090E00E94974960E08CE56D
:1047A00098E00E94AEC8DBC6809167048F7E80626D
:1047B00080936704D4C683E50E941844882399F047
:1047C0000E94984320E030E04AE754E40F94DD1162
:1047D0000F94E01960930202709303028093040225
:1047E00090930502BCC68091080484FF02C00C941B
:1047F000522C80910A0487FF02C00C94522C8091A5
:104800000B04837011F00C94522C0C947E2C83E5D5
:104810000E94CF43882309F4A2C60F94C10160937C
:10482000DB037093DC038093DD039093DE030E942F
:10483000984320E030E04AE754E40F94DD110F94F0
:10484000E0196093D7037093D8038093D9039093B2
:10485000DA0385C60E941BF087FD81C6909108048B
:1048600094FD04C090910A0497FF0AC0B2E7CB2ED2
:10487000B2E0DB2E1AE4E12E1DE0F12E10E009C0BB
:1048800090910B04937091F7682F81E00E94D3FC04
:1048900066C6F60181916F010E941844882309F4CD
:1048A00059C0133009F04FC00E9498434B015C017E
:1048B00020E030E040EA51E40F94771187FF3AC0DE
:1048C000A501940160916A0D70916B0D80916C0D42
:1048D00090916D0D0F9467192B013C019B01AC0168
:1048E00060917A0D70917B0D80917C0D90917D0D82
:1048F0000F94DD1160937A0D70937B0D80937C0D86
:1049000090937D0D60917A0770917B0780917C0771
:1049100090917D070F947C11A30192010F94DD11FA
:104920000F94E01960937A0770937B0780937C075C
:1049300090937D0780926A0D90926B0DA0926C0D02
:10494000B0926D0D07C00E949843F701648B758B80
:10495000868B978B1F5FF4E0EF0EF11C143009F08B
:1049600098CF0E948B9FFBC50E94AF9F0E9499B277
:10497000F6C580910D0490910E04009709F4C3CB05
:10498000FC012081222309F4BECB60E00E9424C9EF
:10499000E6C500910D0410910E0494E0F12C40E066
:1049A000915029F1F8018081282F2B7F213421F4A7
:1049B00021812133E1F408C08035C9F4F8018181F7
:1049C00080538A3048F013C0813421F0853421F4BB
:1049D00041E002C0FF24F39498012E5F3F4F89010C
:1049E0002F5F3F4FF80180818032C9F3D9CF411149
:1049F0000E940E4CFF2021F085E796E00E94564A67
:104A0000C8010E94C532ABC50E94C9F0A8C581E0AB
:104A100080932B0480932C040E9419F1A0C560E0C0
:104A200070E083E50E9425448C01112702301105B6
:104A30003CF00E943F4B83E596E00E94564A8FC5AA
:104A400088E40E9418448823A9F00E9494438A3A7B
:104A500091053CF08530F1E09F072CF084E091E077
:104A600002C08AEA90E0F801EE0FFF1FED52FC4F02
:104A70009183808386E40E941844882381F00E94F9
:104A8000944397FD07C08F3F910529F024F08FEFE5
:104A900090E001C080E0F801EF52FC4F808382E497
:104AA0000E941844882309F45AC50E949443853013
:104AB000910534F08D3891052CF08CE890E002C01F
:104AC00085E090E0000F111FF801E353FC4F918344
:104AD000808345C50E941BF0182F87FD40C584E4E4
:104AE0000E94CF43882309F43FC00E9498436B0182
:104AF0007C0101E020E030E0A9010F9477118111E1
:104B000001C000E00093CC0320E030E0A901C70120
:104B1000B6010F947711882339F10E94984324E05D
:104B20001202F0011124E853FC4F608371838283E9
:104B3000938320E030E0A9016091C8037091C9031C
:104B40008091CA039091CB030F94771181110CC00F
:104B500080E090E0A0EEBFE38093C8039093C90388
:104B6000A093CA03B093CB030E94369AF8C40E9464
:104B70001BF087FDF4C4E2E7EE2EE2E0FE2E0AE42D
:104B80001DE0F70181917F010E94CF43882359F0F6
:104B90000E9498430F94E019F80160837183828327
:104BA00093830E94449F0C5F1F4FFDE00A351F074F
:104BB00041F7D5C40E941BF087FDD1C462E7E62E01
:104BC00062E0F62E0AE41DE07AE5C72E7DE0D72EDE
:104BD000F70181917F010E94CF43882339F00E9421
:104BE0009843F80164A375A386A397A30C5F1F4F96
:104BF000C016D10669F7B3C48091090487FD81C648
:104C000080910A048E7009F07CC640917E0D50910F
:104C10007F0D6091800D7091810D83E496E00E947C
:104C20000E4B4091820D5091830D6091840D7091D7
:104C3000850D80E496E00E940E4B4091860D5091C8
:104C4000870D6091880D7091890D8DE396E00E942B
:104C50000E4B8AE00E94BA3182C48091080481FD23
:104C600096C68091090481FD92C680910A048C70D9
:104C700009F08DC674C41F5FF4E0EF0EF11C133011
:104C800011F40C942C1CF60181916F010E94CF430A
:104C9000882389F30E949843F7016083718382839C
:104CA0009383812F0E94FBABE6CF0E94E4FB57C4A5
:104CB00083E50E941844882309F451C40E94944358
:104CC00090930902809308024AC40E941BF0F82EB8
:104CD00087FD45C483E50E9418440F2D0F2C000C5E
:104CE000110B882361F10E949443F801EE0FFF1F1E
:104CF000E050FE4F91838083000F111F000F111FA2
:104D000098012C5D3D4F7901BC01990F880B990BDF
:104D10000F947E112AE037ED43E25CE30F94DD113E
:104D2000F801E854FC4F20813181428153810F9476
:104D3000DD11F701608371838283938310C40E9425
:104D40000E4C85E40E94BA3180E38F0D0E94BA3187
:104D5000000F111FF801E050FE4F6081718186E164
:104D600096E00E941F4B85E20E94BA318AE00E94C1
:104D7000BA31F5C380E50E94CF43882309F4EFC31D
:104D800060E070E080E50E942544F82E6FEF7FEF31
:104D900083E50E9425448C010196039708F0DFC348
:104DA000F7FCDDC38F2D0F941702882339F00E9482
:104DB0003F4B8AEE98E00E94564AD1C30E94AF9FB3
:104DC00060E08F2D0E94E9760F3FFFEF1F0731F063
:104DD0000130110571F000E010E00DC08F2D0E9430
:104DE000567631E020E0892B09F030E0032F122FB6
:104DF00002C001E010E08F2D0E94567680179107C7
:104E000009F4ADC30E94E632F6CF80E50E94CF439D
:104E1000882309F4A4C30E9494438C01892B09F0D0
:104E20007FC083E50E94CF43882389F00E9494438A
:104E30008F3F2FEF920729F48FE892E10E94722FA3
:104E40008EC3BC018FE892E10E94423088C30E9469
:104E50000E4C60E070E08EE096E00E941F4B809167
:104E6000911228E532E06901C81AD10887FDD39470
:104E7000CC0CDD1CCC0CDD1C0D2C000CEE08FF084E
:104E80008091901228E830E04901881A910887FD46
:104E90009394880C991C880C991C092C000CAA0866
:104EA000BB0880918F128F3FC1F090E0FC01EE0FA4
:104EB000FF1F8E0F9F1FFC01EE5DFD4E2181328191
:104EC00073E0220F331F7A95E1F7E4E036952795DA
:104ED000EA95E1F72E5F3F4F02C020E030E02F5F00
:104EE0003F4FC901330FAA0BBB0B9C01AD01281921
:104EF00039094A095B09A4EBB0E00F940E18A70129
:104F00009601281939094A095B090F94EF17B9016D
:104F10008AEC9CE10E941F4B8AE00E94BA311FC3B9
:104F20000E943F4BB8018FE096E00E941F4B8FEF2D
:104F300095E00E94564A13C38AE50E9418448111E5
:104F400006C083E50E941844882309F44BC00E94E0
:104F5000984320E030E040E050EC0F94771187FD5B
:104F600075C50E94984320E030E040E050E40F9483
:104F7000CD1A18160CF464C50E9498436B017C018D
:104F800080915F148695869580FF22C02091660DE2
:104F90003091670D4091680D5091690DC701B601C0
:104FA0000F94DD110F94D9192091B6033091B703F6
:104FB000260F371F3093B7032093B6032091B40315
:104FC0003091B503620F731F7093B5036093B40300
:104FD00080E50E94CF43882309F43EC50E948443A4
:104FE00081113AC580910A0487FD5CC580910B044C
:104FF000837009F057C50E940E4C40917414509173
:105000007514609176147091771480EE95E00E948B
:105010000E4B8AE00E94BA31A2C264E071E083E5DF
:105020000E94CAF88C0168EE73E080E50E94CAF81D
:10503000893833E1930710F088E893E1B8010E94C2
:1050400081C88DC260E085E40E943444811173C040
:1050500080E50E94CF43882351F00E9498436093DB
:10506000A2117093A3118093A4119093A51189E4C8
:105070000E94CF43882381F00E9498432CEA35ECAC
:1050800047E25EE30F94DD116093A6117093A711C0
:105090008093A8119093A91184E40E94CF438823A0
:1050A00081F00E9498432CEA35EC47E25EE30F94CE
:1050B00067196093AA117093AB118093AC11909310
:1050C000AD110E940E4C4091A2115091A31160911C
:1050D000A4117091A5118CED95E00E940E4B2CEA65
:1050E00035EC47E25EE36091A6117091A7118091C3
:1050F000A8119091A9110F946719AB01BC0188ED1B
:1051000095E00E940E4B2CEA35EC47E25EE360919D
:10511000AA117091AB118091AC119091AD110F94C7
:10512000DD11AB01BC0184ED95E00E940E4B8AE0DD
:105130000E94BA3114C20E943F4B82EC95E00E945B
:10514000564A0DC283E50E94CF43182F882371F081
:105150000E9498430F94D9197093290260932802F2
:1051600021E0672B09F020E02093960780E50E945C
:10517000CF43882359F02091280230912902232B14
:1051800011F00E94844380939607E9C11111E7C191
:105190000E940E4C8FEA95E00E94564A8091960735
:1051A000882319F08CEB9EE202C086E995E00E940C
:1051B000564A60912802709129028EE995E00E947A
:1051C0001F4B8AE995E00E94564AC9C10E9485B8E2
:1051D000C6C10E94AF9FC3C180E00E94419C0E9453
:1051E00099B2BDC16FEF7FEF89E40E942544182F6B
:1051F0006FEF7FEF8AE40E942544082F8AE50E9422
:10520000CF43F82E811105C081E50E94CF43D82EEF
:1052100001C0D12C17FD06C007FD04C0F11009C064
:10522000D11007C00E943F4B86E795E00E94564A86
:1052300096C1133010F4033038F00E943F4B84EADB
:1052400099E00E94564A8BC1E12E110FFF08002EF3
:10525000000C110B0E949843D701AA0FBB1FDD2041
:1052600081F0FD01EE0DFF1DE00FF11FEE0FFF1F9E
:10527000EE0FFF1FE057FC4F2081318142815381A7
:1052800003C020E030E0A901EA0EFB1E0E0D1F1D39
:10529000000F111F000F111F00571C4F0F946D18A6
:1052A000F801608371838283938359C10E9471FEE8
:1052B000811155C10DEE14E02CE734E13DA72CA778
:1052C000CE0101961C0149EFC42E44E0D42E7C018E
:1052D000F8016591759185919491ECA5FDA581905A
:1052E0009190A190B190FDA7ECA7A50194010F9416
:1052F0006C182B013C01F7016083718382839383D7
:1053000020E030E040EA51EC0F94CD1A87FD0AC04E
:1053100020E030E040EA51E4C301B2010F9477117C
:1053200018162CF4F601849118160CF4C1C3F70179
:1053300081909190A190B1907F0120E030E040EA0F
:1053400051ECC501B4010F94CD1A87FDBBC320E019
:1053500030E040EA51E4C501B4010F94771118160A
:105360000CF0C4C3AFC30E94F367F9C00E944FF2B0
:10537000F6C061E083E50E9440448F250E945DF203
:10538000EEC081E080938F030E94906C10928F0397
:10539000882309F4E4C00E940E4C8FE295E00E943D
:1053A000564ADDC080910D1482FFD9C0806480937D
:1053B0000D14D5C00E943BC2D2C083E50E94CF43EA
:1053C000811106C022E7E22E22E0F22E10E00EC08C
:1053D00010E00E947043682F812F0F943E011F5FE1
:1053E0001530B9F7EFCF1F5F143071F0F7018191DD
:1053F0007F010E94CF438823B1F30E947043682F3E
:10540000812F0F943E01EFCF82E40E94CF43882387
:1054100031F00E947043682F84E00F943E010E9497
:10542000D2999DC083E50E941844882309F466C080
:105430000E947043823049F1833009F44BC08130BF
:1054400009F05CC092E7E92E92E0F92E10E0F70136
:1054500081917F010E941844882341F00E9470438B
:105460002FEF4FEF682F812F0F94D0001F5F143064
:1054700071F782E40E941844882309F43FC00E9417
:1054800070432FEF4FEF682F21C082E7E82E82E0B4
:10549000F82E10E0F70181917F010E9418448823C3
:1054A00041F00E9470432FEF482F6FEF812F0F9430
:1054B000D0001F5F143071F782E40E9418448823E3
:1054C000E9F00E9470432FEF482F6FEF84E00F94B4
:1054D000D00014C002E712E0F80181918F010E9410
:1054E000184481110E947043F2E006371F07A1F7AC
:1054F00082E40E94184481110E9470430E94D29954
:105500002EC081E080930B0210928E0360E083E551
:105510000E944044811123C00E9455C120C00E94B6
:1055200063FE1DC000916804109169040023B9F066
:105530000E940E4C84E50E94BA31B8017727072EED
:10554000000C880B990B0E942E3280E20E94BA3127
:1055500082EC95E00E94564A02C00E9463FE0E94BF
:1055600045C12EA520936B04F6C20E94AF9F709098
:105570003D0480E00E944C460E94AFAF81E08093E2
:105580002B040E9419F188E50E94CF43182F89E56A
:105590000E94CF43F82E8AE50E94CF431F111FC1FE
:1055A000181711F0F12E1BC1FF24F39411E001E054
:1055B00080E1ECE7F4E1ADE2B4E001900D928A9570
:1055C000E1F782E50E941844882361F00E94984325
:1055D0004B015C0120E030E0A9010F947711882392
:1055E000E9F105C0812C912C30E4A32EBA2C1111C5
:1055F00002C0FF20E9F180915F1482FD09C0609133
:10560000841470918514809186149091871403C03E
:1056100060E070E0CB01A50194010F946D186093D8
:1056200035047093360480933704909338042091A6
:1056300084143091851440918614509187140F94EE
:10564000CD1A18165CF419821A821B821C82BE01C4
:105650006F5F7F4F85E394E00E94B1B0112319F092
:1056600080E00E945FB1FF2019F081E00E945FB1ED
:10567000002309F4A3C080E00E94DB4980915F14FD
:105680008370833051F060E085EF99E00E94AEC8EE
:105690000E940E4C86EE99E0ADC00E945DB1209054
:1056A0008414309085144090861450908714209173
:1056B0006C1430916D1440916E1450916F1460E031
:1056C00070E088EC92E40F946C186B017C0160939D
:1056D0002D0470932E0480932F0490933004209116
:1056E000701430917114409172145091731460E0F1
:1056F00070E088EC92E40F946C184B015C016093AD
:1057000031047093320480933304909334042091D5
:105710007414309175144091761450917714C2012D
:10572000B1010F946C186093350470933604809324
:1057300037049093380427E137EB41ED58EBC5016E
:10574000B4010F94CD1A87FD4CC027E030E048E447
:1057500053E4C501B4010F94771118160CF441C03D
:1057600027E137EB41ED58EBC701B6010F94CD1A95
:1057700087FD37C027E030E048E453E4C701B601B5
:105780000F94771118166CF11C8E1D8E1E8E1F8EB5
:1057900088E0EDE2F4E0DE01119601900D928A9529
:1057A000E1F7AE01445E5F4FBE016B5F7F4FCE01FC
:1057B00001960E948FB082E00E945FB10E945DB1AD
:1057C00080912C0480932B04872D0E944C460E94CC
:1057D00096AF83E080930A020E9499B2C0CE082F50
:1057E000E7CE60E085ED99E00E94AEC80E940E4CC5
:1057F00083EC99E00E94564AE1CF0E946C5AAFCEEA
:1058000011110C94E51F0C94DE1F0E94E6320C94DB
:10581000072088E50E94CF4381115F9889E50E94A7
:10582000CF4381118A988AE50E94CF43882329F0CB
:105830008091080181708093060185E40E94CF4326
:10584000882309F48CCE47988ACE60E088E899E0F6
:105850000E94AEC85F988A988091080181708093F9
:10586000060147987CCE0E946043AB01BC01409387
:10587000091450930A1460930B1470930C148EEA5D
:1058800091E10E94A45F6BCE61E0802F0E94E976D7
:105890006F2D802F0E947F766F2D70E0802F0E94E9
:1058A00025775DCE0E94AF9F88E50E94CF43882375
:1058B00031F05F9A80915F148E7F80935F1489E549
:1058C0000E94CF43882331F08A9A80915F148D7FA4
:1058D00080935F148AE50E94CF43882359F080911A
:1058E0000801809581708093060180915F148B7F01
:1058F00080935F1485E40E94CF4331CE0E942AA199
:105900002ECE83E50E941844882391F00E9498438C
:1059100060937E0D70937F0D8093800D9093810D29
:105920006093860D7093870D8093880D9093890DF9
:1059300080E50E941844882351F00E9498436093A8
:105940007E0D70937F0D8093800D9093810D82E585
:105950000E941844882351F00E9498436093820D5E
:105960007093830D8093840D9093850D84E50E9440
:105970001844882309F4F3CD0E9498436093860D60
:105980007093870D8093880D9093890DE8CD82E404
:105990000E94CF43882351F00E940EFD60935A0D60
:1059A00070935B0D80935C0D90935D0D83E50E9479
:1059B000CF43882351F00E94984360938A0D7093DF
:1059C0008B0D80938C0D90938D0D84E50E94CF43B9
:1059D000882351F00E94984360938E0D70938F0D31
:1059E0008093900D9093910D8AE40E94CF43882379
:1059F00009F4B5CD0E9498436B017C012AE037ED94
:105A000043E25CE30F94CD1A87FD13C02AE939E91C
:105A100049E95EE3C701B6010F94771118164CF0FF
:105A2000C0926A07D0926B07E0926C07F0926D0704
:105A300096CD0E943F4B8EE196E00E94564A8FCD54
:105A4000C12CD12CE12C50E4F52E9ACAC12CD12CBA
:105A5000E12C40ECF42E94CAA701960160917414D5
:105A60007091751480917614909177140F946D183D
:105A700060937414709375148093761490937714D4
:105A80000E940E4C409174145091751460917614DC
:105A9000709177148FEE95E00E940E4B8AE00E9481
:105AA000BA31A0CA82E50E94CF438111A4CA57CD62
:105AB000B7FAB094B7F8B094F70180829182A282CD
:105AC000B38235CC0E943F4B88E595E00E94564A50
:105AD00061E08AE495E00E94AEC80E940AD568E2BF
