:100000000C946F1B0C94A01B0C94A01B0C94A01BB5
:100010000C94A01B0C94A01B0C94A01B0C94A01B74
:100020000C94A01B0C94A01B0C94A01B0C94A01B64
:100030000C94A01B0C94A01B0C94A01B0C94A01B54
:100040000C94A01B0D94E5140C94A01B0C94A01B05
:100050000C94A01B0C94A01B0C94A4AD0C949F7644
:100060000C94A01B0C94D0420C94A01B0C94A01BCD
:100070000C94A01B0C94A01B0C94A01B0C94A01B14
:100080000C94A01B0C94A01B0C94A01B0C94A01B04
:100090000C94A01B0C94A01B0C94A01B0C94A01BF4
:1000A0000C94A01B0C94A01B0C94A01B0C94A01BE4
:1000B0000C94A01B0C94A01B0C94A01B0C94A01BD4
:1000C0000C94A01B0C94A01B0C94A01B0C94A01BC4
:1000D0000C94A01B0C94A01B0C94A01B0C94A01BB4
:1000E0000C94A01B6B685168546857685A6866681E
:1000F0005D687768606863681C751F750E7512759A
:1001000018755675237527752D75317535753B75C1
:100110003F754375567549754D755175BB75C075FD
:10012000C575CF75D9755276E375EB75F375FD75A9
:100130000776117620762A76527634763E764876A1
:10014000084AD73B3BCE016E84BCBFFDC12F3D6C3E
:1001500074319ABD56833DDA3D00C77F11BED9E4A4
:10016000BB4C3E916BAAAABE000000803F05A84C84
:10017000CDB2D44EB93836A9020C50B99186880850
:100180003CA6AAAA2ABE000000803F000D94D80514
:100190000D94D5050D94F80B0D945E000D94600040
:1001A0000D94C8290D9462030D94D9050D94D005C2
:1001B0000D9469200D94D2056E616E00696E660023
:1001C0004E414E494E495459494E46CDCCCC3D0A3C
:1001D000D7233C17B7D13877CC2B329595E6241F1F
:1001E000B14F0A000020410000C84200401C4620D8
:1001F000BCBE4CCA1B0E5AAEC59D7400407A10F3AB
:100200005A00A0724E18090010A5D4E80000E87644
:1002100048170000E40B54020000CA9A3B0000009B
:10022000E1F505000080969800000040420F0000B4
:1002300000A08601000000102700000000E8030075
:100240000000006400000000000A0000000000013F
:1002500000000000002C76D888DC674F0823DFC13F
:10026000DFAE59E1B1B796E5E3E453C63AE65199FA
:100270007696E8E6C28426EB898C9B62ED407C6F23
:10028000FCEFBC9C9F40F2BAA56FA5F490055A2ADA
:10029000F75C936B6CF9676DC11BFCE0E40D47FEE6
:1002A000F520E6B500D0ED902E03009435770500DB
:1002B00080841E080000204E0A000000C80C333362
:1002C00033330F986E12831141EF8D2114893BE671
:1002D0005516CFFEE6DB18D1844B381BF77C1D90FA
:1002E0001DA4BBE424203284725E228100C9F12463
:1002F000ECA1E53D27434F4D4D554E4943415449EF
:100300004F4E0044525952554E004552524F52538F
:1003100000494E464F004543484F0047322F473370
:100320002062616420706172616D65746572730A28
:1003300000205A3A200020593A2000426564205893
:100340003A20004E6F206D6F76652E004D313235AC
:10035000005072696E742074696D653A2000000166
:1003600025311D40FFFFFF2924301C45FFFFFF27DB
:10037000232F1B0AFFFFFFFF43FFFF040806FFFFB9
:10038000222B1AFFFF42043803063646696C616D62
:10039000656E7420757365643A20005374617473DC
:1003A0003A20002C204C6F6E67657374206A6F6270
:1003B0003A2000546F74616C2074696D653A2000B6
:1003C00053746174733A20002C204661696C656433
:1003D0003A20002C2046696E69736865643A2000F3
:1003E0005072696E74733A200053746174733A20CA
:1003F00000160311030A030303F5026F6666004447
:10040000454255473A004B494C4C45442E20004E3E
:100410004C2042473132204F66662E002C20002CA3
:100420002000544845524D414C5F50524F54454373
:1004300054494F4E004155544F5245504F52545F0E
:1004400053445F53544154555300454D455247451D
:100450004E43595F50415253455200434153455F0B
:100460004C494748545F4252494748544E455353BC
:1004700000544F47474C455F4C494748545300533D
:100480004F4654574152455F504F574552004255D1
:10049000494C445F50455243454E54004C455645E7
:1004A0004C494E475F44415441005A5F50524F42BD
:1004B00045004155544F4C4556454C005052494E0D
:1004C000545F4A4F420050524F47524553530041E8
:1004D00055544F5245504F52545F54454D5000565D
:1004E0004F4C554D455452494300454550524F4D90
:1004F0000053455249414C5F584F4E5F584F464656
:10050000004649524D574152455F4E414D453A4D87
:1005100061726C696E20312E312E39202847697442
:100520006875622920534F555243455F434F4445F8
:100530005F55524C3A68747470733A2F2F67697420
:100540006875622E636F6D2F4D61726C696E4669BE
:10055000726D776172652F4D61726C696E205052B9
:100560004F544F434F4C5F56455253494F4E3A31CB
:100570002E30204D414348494E455F545950453A2D
:100580004E4C204247313220455854525544455232
:100590005F434F554E543A3120555549443A6365AF
:1005A0006465326132662D343161322D343734382E
:1005B0002D396231322D6335356336326633363745
:1005C00066660A002F2F20004D31343520533C69D8
:1005D0006E6465783E206F7574206F662072616E60
:1005E00067652028302D31290A0050726F6265201E
:1005F0005A204F66667365743A2000496E76616CC6
:1006000069642065787472756465720A0023646594
:1006100066696E652044454641554C545F4B6420E5
:100620000023646566696E652044454641554C5417
:100630005F4B69200023646566696E65204445460A
:1006400041554C545F4B7020005049442041757413
:100650006F74756E652066696E69736865642120C4
:1006600050757420746865206C617374204B702C15
:10067000204B6920616E64204B6420636F6E73743D
:10068000616E74732066726F6D2062656C6F772087
:10069000696E746F20436F6E666967757261746905
:1006A0006F6E2E680A00504944204175746F74754E
:1006B0006E65206661696C6564212074696D656F83
:1006C00075740A00453120544845524D414C205222
:1006D000554E4157415900546865726D616C205206
:1006E000756E617761790045312048656174696E86
:1006F00067206661696C65640048656174696E674E
:10070000206661696C656400504944204175746FCE
:1007100074756E65206661696C6564212054656D31
:10072000706572617475726520746F6F2068696797
:10073000680A00204B643A2000204B693A200020D0
:100740004B703A20000A20436C6173736963205038
:100750004944200A002054753A2000204B753A2065
:1007600000206D61783A2000206D696E3A200020EB
:10077000643A200020626961733A200050494420A5
:100780004175746F74756E65206661696C6564216E
:1007900020426164206578747275646572206E759C
:1007A0006D6265720A00504944204175746F74751A
:1007B0006E652073746172740A004E6F20636173FA
:1007C00065206C696768740A004F66660A004661B6
:1007D0006465204865696768742000426564204C40
:1007E0006576656C696E6720004661696C6564209A
:1007F000746F20656E61626C6520426564204C6593
:1008000076656C696E670A004D65736820706F6964
:100810006E742063616E6E6F742062652072657302
:100820006F6C7665640A004D34323120696E636FF7
:10083000727265637420706172616D657465722097
:1008400075736167650A00496E7365727420666925
:100850006C616D656E7420616E6420707265737377
:1008600020627574746F6E0A005072657373206233
:100870007574746F6E20746F2068656174206E6F7C
:100880007A7A6C650A00496E736572742066696CC9
:10089000616D656E7420616E642070726573732083
:1008A000627574746F6E20286F72204D3130382954
:1008B0000A003A200050726F6265205A204F666627
:1008C000736574003F5A206F7574206F66207261E3
:1008D0006E676520282D323020746F203230290A4F
:1008E0000041637469766520457874727564657239
:1008F0003A2000496E76616C69642065787472757F
:100900006465720A002569730025696D2025697385
:10091000002569682025696D2025697300256964B3
:10092000202569682025696D20256973002569796E
:1009300020256964202569682025696D2025697353
:10094000004E6F20436865636B73756D2077697423
:1009500068206C696E65206E756D6265722C204C26
:10096000617374204C696E653A20004B494C4C45CC
:10097000442E200053544F505045442E20005072B6
:10098000696E7465722073746F707065642064752D
:100990006520746F206572726F72732E20466978BD
:1009A00020746865206572726F7220616E642075B4
:1009B0007365204D39393920746F20726573746105
:1009C00072742E202854656D70657261747572653D
:1009D0002069732072657365742E205365742069D5
:1009E00074206166746572207265737461727469D3
:1009F0006E67290A004E6F20436865636B73756DDF
:100A00002077697468206C696E65206E756D62650B
:100A1000722C204C617374204C696E653A2000631F
:100A20006865636B73756D206D69736D6174636860
:100A30002C204C617374204C696E653A20004C691F
:100A40006E65204E756D626572206973206E6F74DD
:100A5000204C617374204C696E65204E756D626523
:100A6000722B312C204C617374204C696E653A20D6
:100A7000004D313130004D333100534420726561F7
:100A800064206572726F720A00446F6E6520707226
:100A9000696E74696E672066696C650A0020496E2C
:100AA00076616C6964206578747275646572200083
:100AB00000000000000070C100000000000096432C
:100AC000000096430000BE4342696C696E65617226
:100AD000204C6576656C696E6720477269643A0AD6
:100AE00000486F6D696E67206661696C65640045DA
:100AF00078747275646572004D6F7665205A004D8A
:100B00006F76652059004D6F7665205800507265EC
:100B10007061726500496E697469616C697A6520FB
:100B2000454550524F4D00436F6E74726F6C0052CA
:100B30006573746F7265206661696C7361666500C8
:100B40004C6F61642073657474696E677300496EDD
:100B5000697469616C697A6520454550524F4D0052
:100B600053746F72652073657474696E67730046A1
:100B7000696C616D656E74004D6F74696F6E0054C1
:100B8000656D7065726174757265004D61696E00A6
:100B900050726568656174205045544720636F6EDC
:100BA00066005072656865617420504C4120636F27
:100BB0006E66005049442D44005049442D44005075
:100BC00049442D49005049442D49005049442D5075
:100BD000005049442D5000200220466163740020DB
:100BE000022046616374002002204D6178002002DB
:100BF000204D6178002002204D6178002002204DB8
:100C0000696E002002204D696E002002204D696E41
:100C1000004F6666004F6E20004175746F74656DFD
:100C2000700046616E2073706565640046616E20D9
:100C300073706565640042656400426564004E6FD0
:100C40007A7A6C65004E6F7A7A6C6500436F6E74C9
:100C5000726F6C0053746F72652073657474696E83
:100C600067730042656400426564004E6F7A7A6C77
:100C700065004E6F7A7A6C650046616E2073706510
:100C800065640046616E2073706565640054656D2F
:100C900070657261747572650056652D6A65726B58
:100CA0000056652D6A65726B0056652D6A65726B1C
:100CB00000567A2D6A65726B00567A2D6A65726BE2
:100CC0000056792D6A65726B0056792D6A65726BD4
:100CD0000056792D6A65726B0056782D6A65726BC5
:100CE0000056782D6A65726B0056782D6A65726BB6
:100CF000004D6F74696F6E004573746570732F6D6E
:100D00006D004573746570732F6D6D005A73746553
:100D100070732F6D6D005A73746570732F6D6D0055
:100D20005973746570732F6D6D00597374657073AA
:100D30002F6D6D005873746570732F6D6D0058734F
:100D4000746570732F6D6D004D6F74696F6E005315
:100D5000746570732F6D6D004A65726B004163633B
:100D6000656C65726174696F6E0056656C6F63695E
:100D700074790050726F6265205A204F6666736501
:100D80007400436F6E74726F6C004C6F6164206D01
:100D90006D004C6F6164206D6D004C6F6164206D5F
:100DA0006D00556E6C6F6164206D6D00556E6C6FDB
:100DB0006164206D6D00556E6C6F6164206D6D0017
:100DC00046696C2E204469612E0046696C2E2044D1
:100DD00069612E004F6666004F6E20004520696EE7
:100DE000206D6D3300436F6E74726F6C0043616EE3
:100DF0006E6F7420656E74657220737562646972BB
:100E00003A2000052E2E004D61696E000045787471
:100E1000727564656420746F74616C3A2000256C8F
:100E2000642E25696D00004C6F6E67657374206ACF
:100E30006F622074696D653A200000546F74616CB4
:100E4000207072696E742074696D653A2000436F7A
:100E50006D706C657465643A20005072696E742020
:100E6000436F756E743A2000454550524F4D2064D3
:100E700061746173697A65206572726F722E0A00FF
:100E8000290A002062797465733B20637263200035
:100E900053657474696E67732053746F7265642050
:100EA0002800290A002062797465733B206372630D
:100EB00020002073746F7265642073657474696EAA
:100EC00067732072657472696576656420280020F6
:100ED0002863616C63756C6174656429210A002064
:100EE000213D2000454550524F4D20435243206D37
:100EF00069736D61746368202D202873746F726547
:100F0000642920002053697A653A2000496E64659F
:100F1000783A2000204D61726C696E3D5635352956
:100F20000A0028454550524F4D3D00454550524F0F
:100F30004D2076657273696F6E206D69736D617493
:100F40006368200020204E6F7A7A6C653A20006634
:100F5000696C616D656E74207075726765005761AC
:100F6000697420666F7200746F20726573756D65A9
:100F7000005761697420666F72207072696E740028
:100F8000436172642072656D6F76656400446174BC
:100F90006120496E6A65637465640020746F6F2018
:100FA0006C6F6E6720657874727573696F6E2070F0
:100FB000726576656E7465640A0020636F6C6420E8
:100FC000657874727573696F6E2070726576656E80
:100FD0007465640A00627573793A2070617573658F
:100FE0006420666F7220696E7075740A0062757392
:100FF000793A2070617573656420666F722075732D
:1010000065720A00627573793A2070726F63657356
:1010100073696E670A004B494C4C45442E20004BC7
:10102000494C4C20636175736564206279204B499B
:101030004C4C20627574746F6E2F70696E0A004B91
:10104000494C4C45442E20004B494C4C2063617563
:1010500073656420627920746F6F206D75636820FA
:10106000696E6163746976652074696D65202D20F1
:1010700063757272656E7420636F6D6D616E643A34
:1010800020004D36303000506C656173652072650C
:10109000736574005052494E5445522048414C5497
:1010A0004544005072696E7465722068616C7465A5
:1010B000642E206B696C6C28292063616C6C6564FC
:1010C000210A002064726976657220637572726508
:1010D0006E743A2000656E7175657565696E67207E
:1010E000220000000000000040C1000000000000DD
:1010F00020420000204200008040000000005761B4
:10110000726E696E673A20486F6D696E672042752E
:101110006D702044697669736F72203C20310A003B
:1011200002020400000040000000400000004000F7
:1011300000964300809D430000BE43FFFFFF000078
:101140000000010204040000001C1C0C0404040242
:101150000100000000000408100000000000000072
:101160002100240027002A002D0030003300010157
:101170000000040107010A0124F4D43050C38E207A
:10118000C2A24017828B7011127A910D816CD90A1C
:10119000A861E108C7586607615143061E4B5D050B
:1011A000C145A7041A411104093D9803713931035F
:1011B0004036DB0265339102D4305402802E1D028A
:1011C000632CEE01752AC501B028A001102781010A
:1011D0008F2564012B244B01E0223401AC211F0137
:1011E0008D200D01801FFC00841EED00971DDF0087
:1011F000B81CD200E61BC600201BBC00641AB2005B
:10120000B219A8000A19A0006A189900D117910014
:1012100040178B00B516840031167E00B315790097
:101220003A157300C7146F0058146A00EE13660075
:101230008813630025135E00C7125B006C12570011
:1012400015125400C111510070114F0021114B00B3
:10125000D61049008D10470046104400021042008D
:10126000C00F4000800F3E00420F3C00060F3B00C5
:10127000CB0E3800930E37005C0E3500270E34007D
:10128000F30D3200C10D3100900D3000600D2E00C5
:10129000320D2D00050D2C00D90C2B00AE0C2900B1
:1012A000850C29005C0C2700350C27000E0C26004D
:1012B000E80B2400C40B2400A00B23007D0B2300AB
:1012C0005A0B2100390B2100180B2000F80A1F00CF
:1012D000D90A1E00BB0A1E009D0A1D00800A1D00BF
:1012E000630A1C00470A1B002C0A1B00110A1A0083
:1012F000F7091A00DD091900C4091900AB09190022
:10130000920917007B091800630917004C091600A1
:1013100036091600200916000A091500F5081500FF
:10132000E0081400CC081400B8081400A408140045
:10133000900813007D0812006B0813005808120073
:101340004608120034081100230811001208110089
:1013500001081100F0071000E0071000D00710008E
:10136000C0071000B0070F00A107100091070E0082
:1013700083070F0074070F0065070E0057070E0064
:1013800049070E003B070D002E070E0020070D0039
:1013900013070D0006070D00F9060C00ED060D0001
:1013A000E0060C00D4060C00C8060C00BC060C00BD
:1013B000B0060C00A4060B0099060C008D060B006D
:1013C00082060B0077060B006C060B0061060A0014
:1013D00057060B004C060A0042060A0038060A00AF
:1013E0002E060A0024060A001A060A001006090042
:1013F00007060A00FD050900F4050900EB050900D0
:10140000E2050900D9050900D0050900C705090052
:10141000BE050900B5050800AD050800A5050900D1
:101420009C050800940508008C0508008405080048
:101430007C050800740508006C05070065050800B8
:101440005D050700560508004E0507004705070023
:101450004005080038050700310507002A05070088
:10146000230507001C050600160507000F050700E9
:101470000805060002050700FB040600F504070046
:10148000EE040600E8040600E2040700DB040600A0
:10149000D5040600CF040600C9040600C3040600F4
:1014A000BD040600B7040600B1040500AC04060044
:1014B000A6040600A00405009B0406009504050090
:1014C000900406008A0405008504050080040600D7
:1014D0007A04050075040500700405006B0405001E
:1014E00066040500610405005C040500570405005E
:1014F000520405004D04050048040500430405009E
:101500003E0404003A0405003504050030040400DC
:101510002C04050027040400230405001E04040015
:101520001A04040016040500110404000D0404004C
:10153000090405000404040000040400FC03040082
:10154000F8030400F4030400F0030400EC030400B7
:10155000E8030400E4030400E0030400DC030400E7
:10156000D8030400D4030400D0030400CC03040017
:10157000C8030300C503030024F404D9201BC40CD2
:101580005C0E9804C4095F0265077101F405F90057
:10159000FB04B30048048700C103690058035500E9
:1015A00003034500BE023A008402310053022A00C0
:1015B0002902250004022000E4011C00C8011900D2
:1015C000AF0117009801140084011300710110008D
:1015D0006101100051010E0043010D0036010B00A6
:1015E0002B010B0020010B00150109000C01090063
:1015F00003010800FB000800F3000800EB000700EF
:10160000E4000600DE000600D8000600D200060056
:10161000CC000500C7000500C2000500BD000400A5
:10162000B9000400B5000400B1000400AD000400DE
:10163000A9000400A5000300A20003009F0004000D
:101640009B00030098000300950002009300030034
:10165000900003008D0002008B0003008800020050
:101660008600020084000300810002007F00020067
:101670007D0002007B00020079000200770001007B
:101680007600020074000200720001007100020086
:101690006F0002006D0001006C0002006A00010092
:1016A000690002006700010066000100650001009A
:1016B000640002006200010061000100600001009E
:1016C0005F0002005D0001005C0001005B000100A2
:1016D0005A000100590001005800010057000100A4
:1016E00056000100550001005400010053000000A5
:1016F00053000100520001005100010050000100A0
:101700004F0001004E0000004E0001004D0001009E
:101710004C0001004B0000004B0001004A0001009A
:101720004900010048000000480001004700010096
:101730004600000046000100450000004500010091
:10174000440001004300000043000100420000008B
:101750004200010041000000410001004000010082
:101760003F0000003F0001003E0000003E0001007D
:101770003D0000003D0001003C0000003C00000076
:101780003C0001003B0000003B0001003A0000006B
:101790003A00010039000000390001003800000063
:1017A0003800000038000100370000003700010059
:1017B0003600000036000000360001003500000051
:1017C0003500000035000100340000003400000046
:1017D000340001003300000033000000330001003A
:1017E0003200000032000000320001003100000031
:1017F0003100000031000100300000003000000026
:10180000300001002F0000002F0000002F0000001A
:101810002F0001002E0000002E0000002E0001000D
:101820002D0000002D0000002D0000002D00010003
:101830002C0000002C0000002C0000002C000100F7
:101840002B0000002B0000002B0000002B000100EB
:101850002A0000002A0000002A0000002A000100DF
:1018600029000000290000002900000029000000D4
:1018700029000100280000002800000028000000C6
:1018800028000000280001002700000027000000B9
:1018900027000000270000002700010026000000AC
:1018A000260000002600000026000000260001009F
:1018B0002500000025000000250000002500000094
:1018C0002500000025000100240000002400000085
:1018D0002400000024000000240001002300000078
:1018E000230000002300000023000000230000006C
:1018F000230000002300010022000000220000005D
:10190000220000002200000022000000220001004E
:101910002100000021000000210000002100000043
:101920002100000021000000210001002000000033
:101930002000000020000000200000002000000027
:101940002000000020000000200001001F00000017
:101950001F0000001F0000001F0000001F0000000B
:101960001F0000001F0001001E0000001E000000FC
:101970001E0000001E00000039300000332500006A
:1019800087190000B00F0000DB080000BD04000054
:10199000740200003F01000000000A0B02090C0D58
:1019A0000E08070304010000000000000000000012
:1019B0000000000000000000000000000000000027
:1019C00000000000121110000000000000000000E4
:1019D0000000000000000000000000000000000007
:1019E00000000000000000000000000000004B4963
:1019F0004C4C45442E2000202D20496E76616C69A8
:101A000064206578747275646572206E756D6265A8
:101A10007220210A00001C1F11111F00000006196E
:101A20001803130C00040E1F041C000000000E130A
:101A300015110E00001C10181705060500040A0AEF
:101A40000A0A11110E0C12120C00000000001F15E2
:101A500011151F00002D2D2D2D2D2D007C4D617297
:101A60006C696E7C002D2D2D2D2D2D0068747470E9
:101A70003A2F2F6D61726C696E66772E6F726700F8
:101A8000687474703A2F2F6D61726C696E66772E70
:101A90006F72670020312E312E39002020506C618A
:101AA0006E6E657242756666657242797465733AE8
:101AB00020002046726565204D656D6F72793A2071
:101AC00000436F6D70696C65643A204A756C203113
:101AD0003220323031390A00207C20417574686F21
:101AE000723A205061756C2043686173652026202E
:101AF0004A6F686E204C696E6B0A00323031382DA7
:101B000030382D303100204C617374205570646181
:101B10007465643A2000312E312E390A004D61720D
:101B20006C696E0020536F66747761726520526530
:101B30007365740A00205761746368646F6720528C
:101B4000657365740A002042726F776E206F75743A
:101B50002052657365740A002045787465726E6161
:101B60006C2052657365740A00506F77657255700A
:101B70000A0073746172740A006175746F25692EAE
:101B800067006572726F722077726974696E672080
:101B9000746F2066696C650A00456E6473746F70BB
:101BA0007320256320256320256320256300205AA8
:101BB0003A0020593A0020583A00656E6473746FF9
:101BC0007073206869743A2000446F6E65207361F9
:101BD00076696E672066696C652E0A004D323900A1
:101BE000486F6D652058592066697273740A004801
:101BF0006F6D652058592066697273740050726F5A
:101C000062696E67206661696C65640A0050726F74
:101C100062696E67206661696C656400205A3A20CB
:101C20000020593A200042656420583A2000486F4D
:101C30006D652025732573257320666972737400A2
:101C40002066697273740A005A0059005800486F80
:101C50006D652000000020002300260029002C00D4
:101C60002F003200000100000301060109010000FD
:101C70002200250028002B002E0031003400020134
:101C80000000050108010B01050505050705080809
:101C90000808020202020A0A0808040404040101F6
:101CA000010101010101030303030303030304070B
:101CB00007070C0C0C0C0C0C0C0C020202020606A2
:101CC0000606060606060B0B0B0B0B0B0B0B07078A
:101CD0000A0A0A0A0A0A050505040404080801029A
:101CE000102020080810204010204080020102012E
:101CF00008040201010204081020408080402010E6
:101D0000080402018004020180402010080402013E
:101D100008040201010204081020408001020408A6
:101D200010204080100804088010204004408010DB
:101D3000204004804D61782054656D703A20313028
:101D400030004D696E2054656D703A203500544264
:101D500065643A4550434F53203130304B004D615C
:101D6000782054656D703A20323835004D696E2008
:101D700054656D703A20350054303A204550434F39
:101D800053203130304B005053553A2047656E6533
:101D90007269630050726F746F636F6C3A20312EFA
:101DA0003000426175643A203131353230300045BF
:101DB000696E73792052616D626F0042696C696E61
:101DC000656172204C6576656C696E670045787454
:101DD0007275646572733A203100687474703A2FBA
:101DE0002F6D61726C696E66772E6F7267004E4C54
:101DF000204247313200323031382D30382D3031E9
:101E000000312E312E39004D61726C696E005072B6
:101E1000696E7465722053746174730054686572DE
:101E20006D6973746F727300426F61726420496EE2
:101E3000666F005072696E74657220496E666F003D
:101E40004D61696E004D363030204230205425649B
:101E5000004D37303120542564004D373032203B5F
:101E60002564004D3730322054256400556E6C6F68
:101E700061642066696C616D656E7400556E6C6F8F
:101E800061642066696C616D656E74004D37303237
:101E9000004D373031004C6F61642066696C616DB4
:101EA000656E74004D363030204230004368616EFC
:101EB00067652066696C616D656E7400507265704F
:101EC000617265005052494E54205041555345446B
:101ED00000554E4C4F41442046494C414D454E54CF
:101EE000004C4F41442046494C414D454E54005012
:101EF00075726765206D6F726500436F6E74696EF1
:101F0000756500524553554D45204F5054494F4E2D
:101F1000533A0020204E6F7A7A6C653A200063684D
:101F2000616E6765006F66207468652066696C6124
:101F30006D656E74005761697420666F72207374EA
:101F40006172740020204E6F7A7A6C653A200066C8
:101F5000696C616D656E7420756E6C6F616400579D
:101F600061697420666F720020204E6F7A7A6C650A
:101F70003A2000506C6561736520776169742E2E7C
:101F80002E0048656174696E67206E6F7A7A6C65A1
:101F90000020204E6F7A7A6C653A20006865617483
:101FA000206E6F7A7A6C652E0050726573732062B2
:101FB0007574746F6E20746F0020204E6F7A7A6C87
:101FC000653A2000746F20636F6E74696E75652EBC
:101FD0002E2E00616E6420707265737320627574BA
:101FE000746F6E00496E736572742066696C616D02
:101FF000656E740020204E6F7A7A6C653A20006618
:10200000696C616D656E74206C6F61640057616905
:102010007420666F72005072656865617420504C60
:102020004120456E64005072656865617420504CB3
:102030004120426564005072656865617420504CAF
:10204000410050726570617265005072656865612B
:1020500074205045544720456E6400507265686591
:102060006174205045544720426564005072656891
:102070006561742050455447005072657061726507
:10208000004D343238005072656865617420504CE0
:102090004100436F6F6C646F776E004368616E67D9
:1020A000652066696C616D656E7400446973616278
:1020B0006C65207374657070657273004D38340000
:1020C00053657420686F6D65206F66667365747301
:1020D0000050726568656174205045544700466140
:1020E00064652048656967687400466164652048D6
:1020F0006569676874004F6666004F6E2000426530
:1021000064204C6576656C696E67004C6576656C1D
:1021100020626564004732380A47323900417574DD
:102120006F20686F6D6500473238004D6F7665200F
:1021300061786973004D61696E004D6F7665205856
:10214000004D6F76652059004D6F7665205A004529
:1021500078747275646572004D6F766520302E312B
:102160006D6D004D6F766520316D6D004D6F76653C
:102170002031306D6D004D6F766520617869730098
:102180004578747275646572004D6F7665205A00EB
:102190004D6F76652059004D6F766520580020748C
:1021A0006F6F206C6F6E6720657874727573696FDE
:1021B0006E2070726576656E7465640A0020636FC8
:1021C0006C6420657874727573696F6E20707265C7
:1021D00076656E7465640A0006FFFFFFFFFF00016D
:1021E000010101016265640A002C20737973746532
:1021F0006D2073746F70706564212048656174652B
:10220000725F49443A2000426564206865617469E0
:102210006E67206661696C65640048656174696E0B
:1022200067206661696C65640045312048656174AA
:10223000696E67206661696C6564004865617469F0
:102240006E67206661696C65640045312045727275
:102250003A204D415854454D50004572723A204D38
:10226000415854454D5020424544004D4158544535
:102270004D5020747269676765726564004531204E
:102280004572723A204D494E54454D500045727288
:102290003A204D494E54454D5020424544004D4949
:1022A0004E54454D502074726967676572656400CD
:1022B0004D383420582059205A204500202F002026
:1022C00042403A0020403A0020643A0020693A0037
:1022D00020703A0000002110422063308440A55055
:1022E000C660E770088129914AA16BB18CC1ADD15C
:1022F000CEE1EFF13112100273325222B552944204
:10230000F772D662399318837BB35AA3BDD39CC3AB
:10231000FFF3DEE36224433420040114E664C7744F
:10232000A44485546AA54BB528850995EEE5CFF5FB
:10233000ACC58DD55336722611163006D776F666A3
:102340009556B4465BB77AA719973887DFF7FEE74B
:102350009DD7BCC7C448E5588668A778400861186F
:1023600002282338CCC9EDD98EE9AFF9488969999B
:102370000AA92BB9F55AD44AB77A966A711A500A43
:10238000333A122AFDDBDCCBBFFB9EEB799B588BEB
:102390003BBB1AABA66C877CE44CC55C222C033C8F
:1023A000600C411CAEED8FFDECCDCDDD2AAD0BBD3B
:1023B000688D499D977EB66ED55EF44E133E322EE3
:1023C000511E700E9FFFBEEFDDDFFCCF1BBF3AAF8B
:1023D000599F788F8891A981CAB1EBA10CD12DC1E9
:1023E0004EF16FE18010A100C230E320045025407F
:1023F00046706760B9839893FBA3DAB33DC31CD3DF
:102400007FE35EF3B1029012F322D23235421452CE
:1024100077625672EAB5CBA5A89589856EF54FE52A
:102420002CD50DC5E234C324A0148104667447641E
:1024300024540544DBA7FAB79987B8975FE77EF77E
:102440001DC73CD7D326F2369106B016576676766E
:10245000154634564CD96DC90EF92FE9C899E9894A
:102460008AB9ABA94458654806782768C018E108BE
:102470008238A3287DCB5CDB3FEB1EFBF98BD89B1E
:10248000BBAB9ABB754A545A376A167AF10AD01A0E
:10249000B32A923A2EFD0FED6CDD4DCDAABD8BAD6A
:1024A000E89DC98D267C076C645C454CA23C832C5E
:1024B000E01CC10C1FEF3EFF5DCF7CDF9BAFBABFBE
:1024C000D98FF89F176E367E554E745E932EB23EAE
:1024D000D10EF01E7C3C3E5E2B3D3F2F5B5D3B2CC6
:1024E0002A225C0053442063617264206F6B0A00EF
:1024F0006F70656E526F6F74206661696C65640AF7
:1025000000766F6C756D652E696E69742066616901
:102510006C65640A00534420696E697420666169C1
:102520006C0A0057726974696E6720746F2066695F
:102530006C653A20006F70656E206661696C656439
:102540002C2046696C653A20006F70656E206661CC
:10255000696C65642C2046696C653A200046696C9C
:10256000652073656C65637465640A002053697A3D
:10257000653A200046696C65206F70656E65643A47
:1025800020002066696C653A2000646F696E670000
:102590006672657368004E6F772000454E44205385
:1025A0005542524F5554494E450A002220706F73D0
:1025B000002220706172656E743A220053554252B7
:1025C0004F5554494E452043414C4C20746172672D
:1025D00065743A22004B494C4C45442E20007472DD
:1025E00079696E6720746F2063616C6C207375620B
:1025F0002D67636F64652066696C65732077697405
:102600006820746F6F206D616E79206C6576656CE3
:10261000732E204D4158206C6576656C2069733AA5
:10262000004572726F723A0043616E6E6F74206F74
:1026300070656E2073756264697220006563686FEF
:102640003A0020573A0042656420636F6F6C696EF0
:10265000672E2E2E004265642068656174696E677E
:102660002E2E2E004D313133205300205A3A0020B7
:10267000593A0020436F756E7420583A0020453A4D
:1026800000205A3A0020593A00583A003A00436173
:10269000703A00205400205200416363656C6572FB
:1026A0006174696F6E3A2050005741524E494E474F
:1026B00021204C6F77205A204A65726B206D61791A
:1026C000206C65616420746F20756E77616E74652F
:1026D00064207061757365732E0A00205A002059BA
:1026E00000580020204D61783A2000205A002059DF
:1026F00000580020204D696E3A20004F6E20004F98
:10270000666600536F667420656E6473746F7073D1
:102710003A200020466C6F773A200043290A006176
:10272000626C656420286D696E2074656D70200090
:10273000436F6C6420657874727564657320617290
:102740006520004F666673657473206170706C69F4
:102750006564004572723A20546F6F206661722181
:1027600000546F6F206661722066726F6D20726513
:10277000666572656E636520706F696E740A0045E8
:102780004550524F4D204F4B0A00536C6565702EDB
:102790002E2E00202844525952554E2900473239D6
:1027A000204175746F20426564204C6576656C69C4
:1027B0006E67003F20284C2C522C462C4229206F5B
:1027C0007574206F6620626F756E64732E0A003F09
:1027D0002856296572626F7365206C6576656C207A
:1027E000697320696D706C61757369626C6520280E
:1027F000302D34292E0A00426164205A2076616C03
:1028000075650A004E6F2062696C696E65617220A1
:10281000677269640A004D65736820706F696E7431
:102820002063616E6E6F74206265207265736F6CD9
:102830007665640A0050726F746563746564205035
:10284000696E0A005374616E646172642044657637
:10285000696174696F6E3A20002052616E67653A53
:102860002000204D61783A2000204D696E3A20000A
:102870004D65616E3A200046696E69736865642132
:102880000A002072616E67653A2000206D61783A17
:102890002000206D696E3A2000207369676D613AEF
:1028A0002000206D65616E3A20003A207A3A2000BF
:1028B000206F662000205A00205900205800476FE2
:1028C000696E6720746F3A00436C6F636B7769734E
:1028D000650A00436F756E7465722D00204469723D
:1028E000656374696F6E3A2000202020616E676C0A
:1028F000653A20005374617274696E672072616476
:102900006975733A2000506F736974696F6E696EF0
:1029100067207468652070726F62652E2E2E0A0023
:102920003F4E756D626572206F66206C656773201F
:10293000696E206D6F76656D656E74206E6F7420A4
:10294000706C61757369626C652028302D31352992
:102950002E0A003F2028582C5929206F7574206FAB
:102960006620626F756E64732E0A003F53616D704E
:102970006C652073697A65206E6F7420706C617568
:102980007369626C652028342D3530292E0A004D7C
:102990003438205A2D50726F62652052657065611F
:1029A000746162696C69747920546573740A003FBC
:1029B0002856296572626F7365206C6576656C2098
:1029C000697320696D706C61757369626C6520282C
:1029D000302D34292E0A006F6B0020573A00452015
:1029E000436F6F6C696E672E2E2E0045204865611F
:1029F00074696E672E2E2E0048617264636F646581
:102A0000642044656661756C742053657474696EE6
:102A10006773204C6F616465640A00DC0500005830
:102A20000200000F000000102700000000FA430021
:102A300000C842000070410000C8410000A04200F0
:102A400000A0420000C84400800D4320204D3930D2
:102A500036003A0A0020286D6D290020204D3931BA
:102A6000340020204D36303320002055004C0046E5
:102A7000696C616D656E74206C6F61642F756E6C2E
:102A80006F6164206C656E677468733A0A00205940
:102A90000020580053656E736F726C657373206805
:102AA0006F6D696E67207468726573686F6C643AE5
:102AB0000A00205430204500205A00205900205898
:102AC0000053746570706572206472697665722057
:102AD00063757272656E743A0A0020204D38353184
:102AE000205A005A2D50726F6265204F66667365DA
:102AF000740020440020490020204D333031205004
:102B0000005049442073657474696E67733A0A0013
:102B100020460020420020480020204D313435203E
:102B200053004D6174657269616C206865617475EC
:102B30007020706172616D65746572733A0A00206D
:102B40005A00204A002020473239205720490020CF
:102B50005A0020204D3432302053004175746F20CC
:102B6000426564204C6576656C696E673A0A0020A0
:102B70005A0020590020204D323036205800486F2E
:102B80006D65206F66667365743A0A002045002003
:102B90005A002059002058002054002053002020C3
:102BA0004D32303520510020453C6D61785F655FC6
:102BB0006A65726B3E0020583C6D61785F785F6A91
:102BC00065726B3E20593C6D61785F795F6A657212
:102BD0006B3E205A3C6D61785F7A5F6A65726B3E2E
:102BE00000416476616E6365643A20513C6D696EA4
:102BF0005F7365676D656E745F74696D655F75732E
:102C00003E20533C6D696E5F6665656472617465F4
:102C10003E20543C6D696E5F74726176656C5F66D0
:102C2000656564726174653E002054002052002086
:102C3000204D323034205000416363656C65726111
:102C400074696F6E2028756E6974732F7332293A18
:102C500020503C7072696E745F616363656C3E20E6
:102C6000523C726574726163745F616363656C3E4C
:102C700020543C74726176656C5F616363656C3E81
:102C80000A00204500205A0020590020204D3230F3
:102C9000312058004D6178696D756D204163636521
:102CA0006C65726174696F6E2028756E6974732F1C
:102CB0007332293A0A00204500205A00205900208A
:102CC000204D3230332058004D6178696D756D208C
:102CD0006665656472617465732028756E697473C6
:102CE0002F73293A0A00204500205A00205900205D
:102CF000204D39322058005374657073207065720E
:102D000020756E69743A0A0020204D32303020441C
:102D1000300A0020204D32303020440020446973B6
:102D200061626C65640A0046696C616D656E742051
:102D300073657474696E67733A0020204D313439BD
:102D40002043203B20556E69747320696E204365D3
:102D50006C736975730A00202047323120202020CF
:102D60003B004368616E67652066696C616D656EE6
:102D70007400556E6C6F61642066696C616D656E80
:102D800074004C6F61642066696C616D656E7400DF
:102D900050726568656174205045544700507265F3
:102DA0006865617420504C41004368616E6765201E
:102DB00066696C616D656E74004D3234004D32335E
:102DC00020257300556E6B6E6F776E20636F6D6D8F
:102DD000616E643A202200496E73657274206669E0
:102DE0006C616D656E7420616E64207072657373C2
:102DF00020627574746F6E20286F72204D313038E8
:102E0000290A002D2D2D00534400202020202020B1
:102E1000002020202000453120544845524D414C8F
:102E20002052554E4157415900424544205448458F
:102E3000524D414C2052554E4157415900546865FE
:102E4000726D616C2052756E61776179006F70658B
:102E50006E206661696C65642C2046696C653A2059
:102E6000004E4C20424731322052656164792E0079
:102E70005072696E74696E672E2E2E005072696EE4
:102E80007420706175736564004D313235004D32C8
:102E900034005072696E742061626F7274656400F0
:102EA0004E6F2053442063617264005072696E74E7
:102EB0002066726F6D2053440053746F70207072DF
:102EC000696E7400526573756D65207072696E74F9
:102ED0000041626F7574205072696E7465720050A3
:102EE00061757365207072696E7400436F6E7472E1
:102EF0006F6C00507265706172650054756E65008C
:102F0000496E666F2073637265656E0050726F6202
:102F100065205A204F6666736574004368616E676A
:102F2000652066696C616D656E740050726F6265D4
:102F3000205A204F666673657400466C6F770046B2
:102F40006C6F770046616E20737065656400466142
:102F50006E207370656564004265640042656400BC
:102F60004E6F7A7A6C65004E6F7A7A6C65004661B6
:102F70006465204865696768740046616465204837
:102F800065696768740053706565640053706565B2
:102F900064004D61696E00436C69636B20746F203F
:102FA000726573756D652E2E2E00486F74656E64A4
:102FB00020746F6F20636F6C640A004D3630303AB6
:102FC00020546F6F20636F6C6400486F74656E648B
:102FD00020746F6F20636F6C640A00456E64206616
:102FE000696C65206C6973740A00426567696E20BC
:102FF00066696C65206C6973740A00286E6F2066C0
:10300000696C6529005344207072696E74696E673B
:10301000206279746520004E6F74205344207072D2
:10302000696E74696E670A0043757272656E74200A
:1030300066696C653A200046696C652064656C655C
:103040007465643A0044656C6574696F6E206661EE
:10305000696C65642C2046696C653A200056547290
:103060006176206D696E005654726176206D696ECE
:10307000005654726176206D696E00566D696E005F
:10308000566D696E00566D696E00566D617820450B
:1030900000566D6178204500566D617820450056D8
:1030A0006D6178205A00566D6178205A00566D6126
:1030B00078205A00566D6178205900566D6178204D
:1030C0005900566D6178205900566D61782058007E
:1030D000566D6178205800566D61782058004D6F0C
:1030E00074696F6E00416D6178204500416D6178B3
:1030F000204500416D6178205A00416D6178205A69
:1031000000416D6178205900416D6178205900417E
:103110006D6178205800416D6178205800412D7410
:10312000726176656C00412D74726176656C004148
:103130002D7265747261637400412D7265747261E1
:10314000637400416363656C00416363656C004DAB
:103150006F74696F6E004572726F72207772697456
:10316000696E6720746F20454550524F4D210A000B
:1031700070012C0190012701B0012201C0011D0145
:10318000F00118011002130130020E016002090162
:1031900090020401C002FF000003FA004003F500A2
:1031A0008003F000D003EB002004E6007004E1008F
:1031B000E004DC004005D700C005D2004006CD0089
:1031C000D006C8008007C3003008BE00F008B90070
:1031D000C009B400B00AAF00B00BAA00D00CA50023
:1031E000000EA000500F9B00C010960050129100DE
:1031F00000148C00C0158700B0178200B0197D0044
:10320000D01B7800001E730040206E0090226900E1
:10321000F024640040275F0090295A00E02B5500FD
:10322000102E500020304B0010324600E033410099
:1032300090353C001037370070383200A0392D002F
:10324000B03A2800A03B2300603C1E00103D19004E
:10325000903D1400103E0F00703E0A00C03E050075
:10326000003F0000403FFBFF803FF6FFC03FF1FF03
:103270004534004533004532004531004530005AA1
:1032800032005932005832005A0059005800257552
:103290003A2530327500253032753A2530327500C6
:1032A00025756420253032753A25303275008C3210
:1032B0008A328832853282327F327C32793276327B
:1032C00073327032747275650066616C73650020CC
:1032D00074656D7065726174757265207072657762
:1032E00061726E207472696767657265643A200066
:1032F000207072657761726E20666C616720636C06
:1033000065617265640A0020686F6D696E6720737D
:10331000656E73697469766974793A200020637503
:103320007272656E74206465637265617365642092
:10333000746F20006D41290A0020647269766572FD
:10334000206F76657274656D7065726174757265F3
:10335000207761726E696E67212028003A20004450
:103360007269766572206572726F720073686F722F
:103370007420746F2067726F756E642028636F69A4
:103380006C2042290A0073686F727420746F206782
:10339000726F756E642028636F696C2041290A0082
:1033A0006F76657274656D70657261747572650AA9
:1033B0000020647269766572206572726F72206493
:1033C000657465637465643A0A0054524947474519
:1033D000524544006F70656E003A200066696C616A
:1033E0006D656E74007A5F6D696E00795F6D696EF0
:1033F00000785F6D696E005265706F7274696E67F8
:1034000020656E6473746F70207374617475730AD1
:1034100000FFFDFCFAF8F6F4F2F0EEECEAE9E7E57D
:10342000E3E1E0DEDCDAD9D7D5D4D2D0CFCDCBCA38
:10343000C8C7C5C3C2C0BFBDBCBAB9B7B6B4B3B2C2
:10344000B0AFADACAAA9A8A6A5A4A2A1A09E9D9C20
:103450009A99989795949392908F8E8D8B8A89885C
:10346000878684838281807F7E7D7B7A7978777678
:103470007574737271706F6E6D6C6B6A6968676674
:103480006564636261605F5E5D5C5B5A5958585762
:1034900056555453525150504F4E4D4C4B4A4A4939
:1034A00048474646454443424241403F3E3E3D3CFC
:1034B0003B3B3A39383837363535343332323130B0
:1034C000302F2E2E2D2C2B2B2A2929282727262555
:1034D0002524232322212120201F1E1E1D1C1C1BEE
:1034E0001B1A19191818171616151514131312127A
:1034F0001111100F0F0E0E0D0D0C0C0B0A0A0909FD
:103500000808070706060505040403030202010074
:10351000000000000100000001000080005555552A
:10352000000000400033333300AAAA2A0049922445
:103530000000002000C7711C0099991900D145179F
:1035400000555515003BB11300244912001111110B
:1035500000000010000F0F0F00E3380E0043790D3C
:1035600000CCCC0C00C3300C00E8A20B0064210B93
:1035700000AAAA0A00703D0A009DD80900427B09F2
:103580000092240900DCD308008888080010420853
:103590000000000800F0C10700878707007550078A
:1035A00000711C07003EEB0600A1BC0600699006F6
:1035B0000066660600703E06006118060017F405F6
:1035C0000074D105005BB00500B290050062720581
:1035D000005555050078390500B81E05000505059C
:1035E000004EEC040087D40400A1BD040090A704A1
:1035F0000049920400C17D0400EE690400C756042E
:1036000000444404005C320400082104004110041A
:1036100000000004003FF00300F8E0030026D2039E
:1036200000C3C30300CCB503003AA803000A9B0300
:1036300000388E0300C08103009F750300D069032A
:1036400000505E03001D53030034480300913D0306
:10365000003333030016290300381F0300971503B6
:1036600000300C0300030303000BFA020049F102CF
:1036700000BAE802005CE002002DD802002DD00262
:103680000059C80200B0C0020031B90200DAB1022C
:1036900000AAAA0200A0A30200BC9C0200FA9502A4
:1036A000005C8F0200DF88020082820200457C02FB
:1036B000002776020027700200436A02007C640241
:1036C00000D05E02003F590200C8530200526573E9
:1036D000656E643A20006F6B0000D000D8001124A2
:1036E0001FBECFEFD1E2DEBFCDBF00E00CBF13E0C5
:1036F000A0E0B2E0E8EEFDE602E00BBF02C00790FA
:103700000D92A035B107D9F726E1A0E5B3E001C0DD
:103710001D92A135B207E1F71BE1CEE6DBE100E047
:1037200006C021970109802FFE010F945836CD362F
:10373000D10780E00807A9F70F9407210D94E3361D
:103740000C9400002F923F924F925F926F927F9263
:103750008F929F92AF92BF92CF92DF92EF92FF92A1
:103760000F931F93CF93DF93CDB7DEB7C257D10925
:103770000FB6F894DEBF0FBECDBF21E02093390A0B
:103780008091C8158D3409F406C3843511F40C9466
:103790002D33873411F00C9478338091C6159091B5
:1037A000C7158B31910509F4DAC1BCF48430910559
:1037B0004CF48230910584F597FDE9C20E945CD4F7
:1037C0000C947A338430910509F4C5C10C9709F043
:1037D000DEC20E94BFD00C947A338A32910509F47C
:1037E000CAC254F48D31910509F4EDC10CF4E7C15E
:1037F0004E9709F4ECC1CBC28B35910509F4BFC2D9
:103800008C35910509F4BFC28A35910509F0BFC214
:10381000109254030C947A3320914202222311F423
:103820000C947A3311E0029709F010E00E94A9D3BA
:1038300019821A821B821C821D821E821F82188698
:1038400082E50E94943D882309F438C10E941A3D04
:103850006B017C012091F8063091F9064091FA063F
:103860005091FB062AA73BA74CA75DA78090FC06BA
:103870009090FD06A090FE06B090FF068091D606BF
:103880009091D706A091D806B091D9068EA79FA790
:10389000A8ABB9AB2091DA063091DB064091DC068B
:1038A0005091DD062AAB3BAB4CAB5DAB20E030E08A
:1038B000A901C701B6010F949931882309F414C1F5
:1038C0002AA53BA54CA55DA56EA57FA588A999A9AC
:1038D0000F94993181110BC0A50194016AA97BA9AC
:1038E0008CA99DA90F949931882309F4FDC020E08B
:1038F00030E0A901C701B6010F949931881F8827CC
:10390000881F18130BC080E090E0A0E8BFE3269664
:103910008CAF9DAFAEAFBFAF26970AC020E030E0BE
:1039200040E85FEB26962CAF3DAF4EAF5FAF2697DA
:103930002AA53BA54CA55DA56EA57FA588A999A93B
:103940000F9468336AAF7BAF8CAF9DAFA501940134
:103950006AA97BA98CA99DA90F94683322966CAFA4
:103960007DAF8EAF9FAF22972AAD3BAD4CAD5DAD25
:10397000CA01B9010F94FE312B013C0122962CADF6
:103980003DAD4EAD5FAD2297CA01B9010F94FE3136
:103990009B01AC01C301B2010F9469330F94D4357C
:1039A0006EAB7FAB88AF99AF20E030E040E05FE3E3
:1039B0000F94FE312B013C01A7019601C701B6010E
:1039C0000F94FE316B017C01A3019201C301B2018E
:1039D0000F94FE319B01AC01C701B6010F9468330F
:1039E0000F94D4359B01AC0126966CAD7DAD8EADA8
:1039F0009FAD26970F94FE316B017C012EA53FA54C
:103A000048A959A96AA57BA58CA59DA50F946933E2
:103A100020E030E040E05FE30F94FE312B013C01F9
:103A200022966CAD7DAD8EAD9FAD229790582EA99C
:103A30003FA948AD59AD0F9445349B01AC01C70176
:103A4000B6010F94FE319B01AC01C301B2010F948A
:103A500069332AA53BA54CA55DA50F9468336983FE
:103A60007A838B839C832AA93BA94CA95DA9C501B4
:103A7000B4010F94693320E030E040E05FE30F943D
:103A8000FE312B013C012EA93FA948AD59AD6AADCD
:103A90007BAD8CAD9DAD0F9445349B01AC01C7014E
:103AA000B6010F94FE319B01AC01C301B2010F942A
:103AB0006933A50194010F94683312C089E40E9410
:103AC000943D882331F00E941A3D69837A838B8369
:103AD0009C838AE40E94943D882331F00E941A3D21
:103AE0006D837E838F83988720E030E0A901698110
:103AF0007A818B819C810F94993181110BC020E0D8
:103B000030E0A9016D817E818F8198850F94993174
:103B1000882339F0612FCE0101960E94F6E40C94BF
:103B20007A33E1E2F6E284918F010F5F1F4F882321
:103B300021F00E947A3EF801F6CFEBE1F3E08491A8
:103B40008F010F5F1F4F882311F40C947A330E946A
:103B50007A3EF801F4CF0E9463D30C947A330E942A
:103B60009C8A81110C947A3380E090E0A0E2B1E469
:103B700089839A83AB83BC8380E090E0A1E9B3E4BE
:103B80008D839E83AF83B88780E090E0A0EAB1E4A4
:103B900089879A87AB87BC8780E50E94943D8823FC
:103BA00019F00E94EA3C01C060E06E8BBE016F5FBD
:103BB0007F4FCE0146960F94B4130C947A330E9433
:103BC000748D0C947A330E942ECC0C947A33C0906E
:103BD000F806D090F906E090FA06F090FB0688E52A
:103BE0000E94943D811108C020E030E0A901C70186
:103BF000B6010F94693302C00E941A3D6E8B7F8B11
:103C0000888F998FC090FC06D090FD06E090FE064C
:103C1000F090FF0689E50E94943D811109C020E0E3
:103C200030E040E751E4C701B6010F94683302C0A9
:103C30000E941A3D9B01AC0169837A838B839C832C
:103C40006E897F89888D998D0E94D269882311F4AD
:103C50000C947A3380E00E94483B0E949D3785E4B3
:103C60000E94943D882321F00E940B3D182F04C030
:103C700085E40E944D3D11E086E50E94943D882335
:103C800021F00E94EA3C262F01C021E0412FBE0115
:103C90006F5F7F4FCE0146960E94888B6B017C013F
:103CA0009B01AC010F94153681115FC08E889F88EF
:103CB000A88CB98C20E030E0A901C501B4010F94B3
:103CC000993187FD05C027E137EB41E558E304C092
:103CD00027E137EB41E558EBC501B4010F94693397
:103CE000AB01BC018BE393E00F943C1689809A8072
:103CF000AB80BC8020E030E0A901C501B4010F9485
:103D0000993187FD05C027E137EB41E558E304C051
:103D100027E137EB41E558EBC501B4010F94693356
:103D2000AB01BC0186E393E00F943C1620E030E049
:103D3000A901C701B6010F94993187FD05C027E19C
:103D400037EB41E558E304C027E137EB41E558EB99
:103D5000C701B6010F946933AB01BC0181E393E065
:103D60000F943C168AE00E947A3E0E9484370E949B
:103D70004AC70C947A330E9456CB0C947A33209322
:103D800054030C947A330E94CCFF0C947A330E9433
:103D900034E90C947A338091C6159091C715893710
:103DA000910509F486C70CF034C18E34910509F4ED
:103DB00044C30CF09EC08A31910509F486C20CF010
:103DC00040C08431910509F45EC294F481319105BB
:103DD00009F44EC244F4029710F00C942A330E9466
:103DE00041FF0C947A33429709F48BC50C942A3323
:103DF0008731910509F44FC274F48531910509F4B6
:103E000046C2469711F00C942A331092D80C1092A7
:103E1000D90C0C947A338831910509F452C2499730
:103E200011F00C942A331092D80C0E9462B38CE4E7
:103E300093E09093140A8093130A0E94CC390C9457
:103E40007A338032910509F44CC2ACF58D3191057D
:103E500011F40C947A3394F48B31910509F439C23E
:103E60004C9711F00C942A3340E060E08091C41527
:103E70009091C5150E9460C00C947A338E319105E3
:103E800009F42BC24F9711F00C942A330E942EB3E1
:103E90006E8B7F8B888F998FBE016F5F7F4FCE01B6
:103EA00046960E94A03D60E0CE0101960E94A66465
:103EB000ECE3F6E25CC28B34910509F4B6C264F41B
:103EC0008A32910509F469C2C09711F00C942A3323
:103ED0000E94B9D60C947A338C34910509F4A9C2A6
:103EE0008D34910511F00C942A330F94F8160C942C
:103EF0007A338C36910509F426C40CF04AC0853516
:103F0000910509F433C54CF58235910509F4F0C4E7
:103F1000D4F48135910511F00C942A330E9471AECE
:103F20000E94A1AA10920A0A1092090A68EE73E090
:103F300080E090E00E948F7D60E08FE094E00E943E
:103F40006C640C947A338335910509F4D5C48435B7
:103F5000910509F4D6C40C942A338936910509F4E5
:103F6000FEC36CF48C35910509F41BC588369105A8
:103F700011F00C942A330E948ED60C947A338A3630
:103F8000910509F4FEC38B36910509F418C40C940D
:103F90002A338237910509F48DC5E4F48F369105F3
:103FA00009F460C354F48D36910509F4DEC38E36EE
:103FB000910509F444C30C942A338037910509F420
:103FC000C6C38137910511F00C942A330E9442C96F
:103FD0000C947A338637910509F41BC654F4833761
:103FE000910509F4A7C58537910509F401C60C941C
:103FF0002A338737910509F458C68837910511F09F
:104000000C942A3381E08093D4068093D5060C94D7
:104010007A33813931E0930711F40C94392B0CF089
:104020008DC08E3C910509F447C70CF042C08E3B11
:10403000910509F4A2C3C4F48C38910509F499C31D
:1040400034F48D37910509F4CCC30C942A338139AB
:10405000910509F434C68B39910511F00C942A337B
:104060000E9443D60C947A338B3C910509F402C725
:104070009CF4883C910509F49CC6893C910511F09B
:104080000C942A33F9E9EF2EFFE0FF2E0BE512E046
:10409000A4E0DA2ED00ED5C68C3C910509F408C7F1
:1040A0008D3C910511F00C942A330E940EC60C949D
:1040B0007A338C3251E0950709F420C7E4F48D3D42
:1040C000910509F405C76CF4833D910509F4FCC61C
:1040D0008C3D910511F00C942A330E9424C50C9458
:1040E0007A33823E910509F4F7C68232914009F491
:1040F000F7C60C942A338F32E1E09E0709F44FC7CC
:1041000074F48D3221E0920709F422C78E32914077
:1041100011F00C942A330E94F2C30C947A33833644
:1041200041E0940711F40C941F2B8039914011F059
:104130000C942A330E9490AA0C947A338835A2E01A
:104140009A0711F40C943F2D0CF04AC08C3AE1E030
:104150009E0709F4B5C6FCF48A3921E0920709F4F8
:10416000FAC264F48239914011F00C942A3380E051
:104170000E94D8380E944AC70C947A33843A51E09E
:10418000950711F40C94402B853A914011F40C944E
:10419000992C0C942A33863FB1E09B0711F40C94C0
:1041A000302D7CF4843FF1E09F0711F40C942D2D09
:1041B000853F914011F00C942A330E940DE30C943A
:1041C0007A33873F31E0930711F40C94332D883F05
:1041D000914011F00C942A330E9490C30C947A33CE
:1041E0008B3853E0950711F40C947A330CF58E3B21
:1041F000B2E09B0711F40C94AC306CF48B35F2E018
:104200009F0711F40C94142F8D3B924011F40C94E1
:104210009D2F0C942A33833533E0930711F40C94CB
:1042200073318A38934011F40C94D9310C942A33A9
:10423000823953E0950711F40C94C4326CF48F3832
:10424000B3E09B0711F40C943A328039934011F497
:104250000C944F320C942A33803AF3E09F0709F410
:1042600082C0873E934011F40C9415330C942A338A
:1042700060E083E493E00E946C64179816981598A8
:1042800014980C947A330E94E7FB0C947A330E94C2
:104290004EC20C947A33E091C415F091C51580811B
:1042A000882329F0803209F410823196F8CF40E05B
:1042B00061E08091C4159091C5150E9460C00C9476
:1042C0007A330E94ACFB0C947A330E9492FB0C94DC
:1042D0007A330E940AFB0C947A330E945CFA0C94A5
:1042E0007A338091D80C81110E9490AA8091D90CC8
:1042F000882311F40C947A3380E50E94943D88233E
:1043000019F00E940B3D03C080E50E944D3D182F1F
:10431000482F61E08091C4159091C5150E9460C03E
:1043200083E50E94943D882381F00E94EA3CAB0122
:10433000BC014093510F5093520F6093530F7093F1
:10434000540F80EA9EE00F94E3098091D90C8823F2
:1043500019F081E08093D80C11110C947A330F94EA
:104360009A160C947A330E9451FA0C947A33849101
:104370008F010F5F1F4F882321F00E947A3EF801C2
:10438000F6CFBE016F5F7F4F81E593E00F94721609
:104390008AE00E947A3E0C947A3383E50E94943D31
:1043A000882311F40C947A330E94FA3CE82E80E5BD
:1043B0000E94943D882339F00E94FA3C182F87FF11
:1043C00003C00C947A331DE089E40E94943D882355
:1043D00049F00E940B3D811111C0EEE5F3E08DE242
:1043E0008E0F07C089E40E944D3DF5CF31968E17A0
:1043F00029F094911913FACF0C94F03561E0812FD4
:104400000E9457756E2D812F0E94FE87F12CB701F7
:10441000812F0E949375183011F00C947A33F0922A
:104420000A0AE092090A0C947A330F949A160C94B3
:104430007A330E9462B30C947A3383E50E94943DF0
:10444000811103C0E9EEF3E009C00E94EA3C6E343A
:104450007105C1F70F9468170C947A3384918F011A
:104460000F5F1F4F882321F00E947A3EF801F6CF9C
:10447000E0EEF3E084918F010F5F1F4F882321F05E
:104480000E947A3EF801F6CF60912D0570912E05BD
:1044900080E090E04AE00E941C41E3EDF3E084916B
:1044A0008F010F5F1F4F882321F00E947A3EF80191
:1044B000F6CF60912F057091300580E090E04AE0E2
:1044C0000E941C41E8ECF3E084918F010F5F1F4FC5
:1044D000882321F00E947A3EF801F6CF60912D05E5
:1044E00070912E0580912F0590913005681B790BF6
:1044F00080912B05815021E030E0823010F020E0E7
:1045000030E0621B730B80E090E04AE00E941C41A7
:104510008AE00E947A3EE0ECF3E084918F010F5F25
:104520001F4F882321F00E947A3EF801F6CF809138
:10453000310590913205A0913305B09134058E8BF1
:104540009F8BA88FB98FBE016F5F7F4FCE014696BC
:104550000E94A03DE3EBF3E084918F010F5F1F4FBA
:10456000811106C0AE014F5F5F4F7A018A0104C01E
:104570000E947A3EF801F0CFD8018D918D018823F9
:1045800019F00E947A3EF8CF80913505909136055A
:10459000A0913705B09138058E8B9F8BA88FB98F6E
:1045A000BE016F5F7F4FCE0146960E94A03DE3EAB9
:1045B000F3E084918F010F5F1F4F882321F00E9449
:1045C0007A3EF801F6CFF70181917F01882319F037
:1045D0000E947A3EF8CF8AE00E947A3EEBE9F3E04F
:1045E00084918F010F5F1F4F882321F00E947A3E34
:1045F000F801F6CFEBE8F3E084918F010F5F1F4FD6
:10460000882321F00E947A3EF801F6CF20E030E0C6
:104610004AE754E46091390570913A0580913B0571
:1046200090913C050F94453442E00E94D8418DE6BC
:104630000E947A3E8AE00E947A3E0C947A338EE49D
:104640000E94943D882311F40C947A330E94EA3C32
:104650006093BC097093BD098093BE099093BF0914
:104660000C947A3383E50E944D3D882359F083E50D
:104670000E94943D882319F00E94FA3C01C080E01A
:1046800080934807ECE3F6E284918F010F5F1F4FA0
:10469000882321F00E947A3EF801F6CFEFEFF3E095
:1046A00084918F010F5F1F4F882321F00E947A3E73
:1046B000F801F6CF809148078823A1F151EFC52E6C
:1046C00053E0D52EE12CF12C20E08091480790E0BA
:1046D0000E2C02C0959587950A94E2F780FF17C0CB
:1046E000BB24B394B20E222319F08CE20E947A3ECE
:1046F000F60125913491F901849189010F5F1F4FD3
:10470000882321F00E947A3E9801F5CF2B2DFFEFF0
:10471000EF1AFF0A32E0C30ED11C45E0E416F104A3
:10472000A1F60CC0EBEFF3E084918F010F5F1F4FF8
:10473000882321F00E947A3EF801F6CF8AE00E9499
:104740007A3E0C947A3310922C020C947A3386E0E1
:1047500094E00E94686A0E94B4C30C947A330E9469
:1047600071D61092390A0C94FF350E9464D40C94CF
:104770007A330E943DCB0C947A330E946CC90C941E
:104780007A3380E50E94943D811106C083E50E9442
:10479000943D882361F006C00E94FA3C81110C947C
:1047A0007A33F4CF0E94EA3C6F3F710510F06FEF4F
:1047B00070E070930A0A6093090A0C947A3380E5DA
:1047C0000E94943D811106C010920A0A1092090AB3
:1047D0000C947A330E94EA3C672B11F00C947A33E4
:1047E000F3CF8CE40E944D3D882381F00E941A3D56
:1047F0006B017C0120E030E0A9010F948F3587FF29
:104800000AC0F7FAF094F7F8F09405C0C12CD12C47
:10481000E12C40E4F42EF7FAF094F7F8F094CA8E05
:10482000DB8EEC8EFD8E80E090E0A0E2B1E4898327
:104830009A83AB83BC8380E090E0A1E9B3E48D83ED
:104840009E83AF83B88780E090E0A0EAB1E48987D7
:104850009A87AB87BC8788E50E94943D882379F0CE
:1048600088E50E94943D882319F00E941A3D03C0F8
:1048700060E070E0CB0169837A838B839C8389E558
:104880000E94943D882379F089E50E94943D882315
:1048900019F00E941A3D03C060E070E0CB016D8307
:1048A0007E838F8398878AE50E94943D882379F0E0
:1048B0008AE50E94943D882319F00E941A3D03C0A6
:1048C00060E070E0CB0169877A878B879C871E8ABE
:1048D0001F8A188E198E20E0AE014A5E5F4FBE011E
:1048E0006F5F7F4FCE014A960E946EFE0C947A3322
:1048F000109253030C947A3381E0809353030C9409
:104900007A3383E50E94943D8823A1F00E941A3DEA
:1049100020E030E04AE754E40F94FE310F94B234C3
:104920006093190270931A0280931B0290931C02E9
:104930000C947A3388E50E944D3D81110C947F33AD
:1049400089E50E944D3D81110C947F338AE50E94D8
:104950004D3D81110C947F3385E40E944D3D8111C2
:104960000C947F330E94A1AA0C947A3383E50E94B1
:104970004D3D882311F40C947A330E941A3D20E0B7
:1049800030E04AE754E40F94FE310F94B234609360
:1049900055047093560480935704909358040C94D4
:1049A0007A332BE5C22E22E0D22E38E1E32E37E017
:1049B000F32E10E0D6018D916D010E944D3D8823AC
:1049C00009F46DC0133009F063C00E941A3D4B0119
:1049D0005C0120E030E040EA51E40F94993187FF18
:1049E0004EC0A50194016091240770912507809124
:1049F0002607909127070F9445342B013C019B011A
:104A0000AC016091FE037091FF03809100049091CE
:104A100001040F94FE316093FE037093FF038093B3
:104A2000000490930104A30192016091950F70918D
:104A3000960F8091970F9091980F0F94FE3160938D
:104A4000950F7093960F8093970F9093980F6091A6
:104A5000CA0F7091CB0F8091CC0F9091CD0F0F9416
:104A60009D31A30192010F94FE310F94B2346093F3
:104A7000CA0F7093CB0F8093CC0F9093CD0F809281
:104A8000240790922507A0922607B092270707C017
:104A90000E941A3DF70160837183828393831F5FB5
:104AA000F4E0EF0EF11C143009F084CF0F94ED18F0
:104AB0000C947A330E9490AA83E50E94943D882347
:104AC000A9F10E94EA3C6230710581F50E9466728C
:104AD0008BE50E947A3E6091450470914604809176
:104AE00047049091480442E00E94D8414091490413
:104AF00050914A0460914B0470914C048FE194E012
:104B00000F943C1640914D0450914E0460914F0417
:104B1000709150048CE194E00F943C168DE50E9456
:104B20007A3E8AE00E947A3E0C947A330E944AC709
:104B30000C947A33E1E0F5E084918F010F5F1F4F11
:104B4000882321F00E947A3EF801F6CF60E081EFE1
:104B500094E00E9406C761E08AEE94E00E9406C7D6
:104B600061E08FED94E00E9406C761E08FEC94E075
:104B70000E9406C760E086EC94E00E9406C761E0F0
:104B80008CEB94E00E9406C761E082EB94E00E9407
:104B900006C761E08AEA94E00E9406C761E08CE9FA
:104BA00094E00E9406C760E08EE894E00E9406C789
:104BB00060E08FE794E00E9406C760E081E794E040
:104BC0000E9406C760E08BE594E00E9406C760E0A3
:104BD0008AE494E00E9406C760E085E394E00E94C6
:104BE00006C761E082E294E00E9406C70C947A3323
:104BF0008091C4159091C515DC012C91222329F0D8
:104C000060E00E94A6640C947A330E944EF80C94E3
:104C10007A330091C4151091C51583E0D12C40E082
:104C20008150E1F0F8019081292F2B7F2134C1F7C9
:104C300021812133A9F7913421F0953421F441E009
:104C400002C0DD24D39498012E5F3F4F89012F5F6E
:104C50003F4FD8019C919032C9F3E2CF442369F0D1
:104C6000ECE3F6E284917F01BFEFEB1AFB0A8823A5
:104C700021F00E947A3EF701F5CFDD2069F0E4ECE7
:104C8000F5E084917F012FEFE21AF20A882321F0E8
:104C90000E947A3EF701F5CFD8018D918D018823CE
:104CA00009F44CCD0E947A3EF7CF0F94B3140C94C4
:104CB0007A331092D4061092D5060C947A3383E599
:104CC0000E94943D882319F00E94EA3C02C060E0F3
:104CD00070E08B01112702301105D4F0E1E2F6E219
:104CE00084918F010F5F1F4F882321F00E947A3E2D
:104CF000F801F6CFE8ECF5E084918F010F5F1F4FCC
:104D0000882311F40C947A330E947A3EF801F4CF90
:104D100088E40E94943D8823A9F00E94EA3C6A3A04
:104D200071053CF06F30B1E07B072CF06EE071E074
:104D300002C06AEA70E0F801EE0FFF1FEE51FC4F6F
:104D40007183608386E40E94943D8823A9F00E94C9
:104D5000EA3CF801EE0FFF1FEA51FC4F71836083BC
:104D60006F3F710519F014F06FEF70E077FF02C02C
:104D700060E070E07183608382E40E94943D882348
:104D800011F40C947A330E94EA3C6530710534F0DA
:104D9000663571052CF065E570E002C065E070E0F5
:104DA000000F111FF801E252FC4F718360830C94D5
:104DB0007A3388EC90E00E94824181110C947A331E
:104DC00084E40E944D3D8823C1F10E941A3D11E008
:104DD00020E030E0A9010F949931811101C010E069
:104DE00010930E04112349F10E941A3DE0916507CA
:104DF00024E0E29FF0011124E65FFB4F60837183A2
:104E00008283938320E030E0A90160910A047091CD
:104E10000B0480910C0490910D040F949931811131
:104E20000CC080E090E0A0EEBFE380930A04909372
:104E30000B04A0930C04B0930D040E947E9C0C9470
:104E40007A33D8018D918D010E944D3D882349F020
:104E50000E941A3D0F94B234F701608371838283FC
:104E60009383F4E0EF0EF11CD012EBCF0F94A81750
:104E70000C947A3379E8E72E7FE0F72E0BE512E009
:104E8000E4E0DE2ED00ED8018D918D010E944D3DC3
:104E9000882339F00E941A3DF70160837183828371
:104EA0009383F4E0EF0EF11CD012EDCF0C947A3323
:104EB0000E948FC60C947A330E941AC90C947A33DC
:104EC0000E9415C80C947A330E9430C50C947A3332
:104ED0000E94AFC40C947A330E9448C40C947A3375
:104EE0008AE50E94943D81110C94AA3383E50E94C7
:104EF000943D81110C94AA330C947A3383E50E947B
:104F0000943D882319F00E94EA3C02C064E071E0FD
:104F10007F8B6E8B80E50E94943D882339F00E9440
:104F2000EA3C693823E1720730F402C068EE73E0AE
:104F30007A83698304C088E893E19A838983BE01F8
:104F40006A5E7F4FCE0101960E942E880C947A33C0
:104F500085E40E94943D811104C00F9473260C9443
:104F60007A330E94FA3C8823C1F3E1E2F6E28491AD
:104F70008F010F5F1F4F882321F00E947A3EF801B6
:104F8000F6CFEBEFF5E084918F010F5F1F4F882381
:104F900011F40C947A330E947A3EF801F4CF85E440
:104FA0000E94943D882321F00E94EA3C7B0102C0CC
:104FB000E12CF12C83E40E94943D882331F00E947F
:104FC000EA3C67966FAF679704C035E067963FAFDE
:104FD000679785E50E94943D882319F00E940B3D58
:104FE00003C085E50E944D3DA3968FAFA397F7FCC4
:104FF00007C0812C912C46E1A42E43E4B42E06C0B8
:10500000812C912C3CE8A32E32E4B32E83E50E9440
:10501000943D882321F00E941A3D4B015C01E1146C
:10502000F10411F4109265070E9493762B013C0164
:10503000DC01CB018C53964FAF4FBF4F80935D0780
:1050400090935E07A0935F07B0936007EE2071F026
:10505000ECE7F7E084918F010F5F1F4F882311F475
:105060000C947A330E947A3EF801F4CFE6EAF7E036
:1050700084917F014FEFE41AF40A882321F00E9403
:105080007A3EF701F5CFC501B4010F94AD34072E78
:10509000000C880B990B0F949F316AAB7EAB8AAFE3
:1050A0009EAFD301C201805E914BAF4FBF4FAF9611
:1050B0008CAF9DAFAEAFBFAFAF970E9471AE8FE721
:1050C0008093640781E080932C026E964CAE5DAEB7
:1050D0006EAE7FAE6E97A7964CAE5DAE6EAE7FAEF7
:1050E000A7976A961FAE6A97AB961CAE1DAE1EAE12
:1050F0001FAEAB9727961FAE279790E428969FAFD9
:105100002897ACE12996AFAF2997B6E42A96BFAFAE
:105110002A972B961FAE2B972C961FAE2C972D9669
:105120001FAE2D972E961FAE2E9766961CAE1DAE07
:105130001EAE1FAE669762961CAE1DAE1EAE1FAEB3
:105140006297C12CD12C76012FE730E040E050E08F
:105150002EA73FA748AB59AB8FE790E0A0E0B0E0A7
:105160008AA79BA7ACA7BDA7A2961CAE1DAE1EAE7C
:105170001FAEA29791E069969FAF699724961FAEE4
:105180001EAE249710E0212C312C00E06796AFADC5
:1051900067970A2E000CBB0B6896BFAFAEAF68973F
:1051A00080912C02882309F40DC10E9493764B0153
:1051B0005C0180916107882309F4E8C00E942DAF4B
:1051C00010912F0A2090300A3090310A0091320A53
:1051D000212F322D432D502F2B966FAD2B972C96D0
:1051E0007FAD2C972D968FAD2D972E969FAD2E9738
:1051F0000F94993187FF0CC02B961FAF2B972C96DD
:105200002FAE2C972D963FAE2D972E960FAF2E9743
:10521000212F322D432D502F27966FAD279728969B
:105220007FAD289729968FAD29972A969FAD2A970B
:105230000F948F35181664F427961FAF279728967A
:105240002FAE289729963FAE29972A960FAF2A9717
:1052500080915D0790915E07A0915F07B091600714
:10526000A5019401281B390B4A0B5B0B57FD10C09D
:105270000E9438B1D501C4018C53964FAF4FBF4F38
:1052800080935D0790935E07A0935F07B0936007DC
:1052900069963FAD69972AA9332309F456C03EA900
:1052A0004AAD5EAD612F722D832D902F0F948F35F7
:1052B00018160CF06BC0D501C40184199509A60914
:1052C000B709E3968CAF9DAFAEAFBFAFE3978858F9
:1052D0009341A109B109B7FD59C08AA59BA5ACA509
:1052E000BDA52EA53FA548A959A9821B930BA40BC8
:1052F000B50BB595A7959795879580936407E39629
:105300008CAD9DADAEADBFADE397A2968CAF9DAF1A
:10531000AEAFBFAFA2979AA92B969FAF2B97AEA91E
:105320002C96AFAF2C97BAAD2D96BFAF2D97EEADA3
:105330002E96EFAF2E976E968CAE9DAEAEAEBFAEF4
:105340006E9769961FAE699721C03EA94AAD5EADC2
:10535000612F722D832D902F0F94993187FF16C0E6
:10536000D501C4016E962CAD3DAD4EAD5FAD6E97CF
:10537000821B930BA40BB50BAC01BD0148585341E4
:105380006109710977FD02C00C94243420E030E0FB
:1053900040EA51E46AA97EA98AAD9EAD0F946933B3
:1053A0009B01AC01612F722D832D902F0F948F35AF
:1053B000181684F4E8E0F7E084918F010F5F1F4F27
:1053C000811104C00E9471AE0C947A330E947A3E1F
:1053D000F801F2CFD501C401A7962CAD3DAD4EAD7D
:1053E0005FADA797821B930BA40BB50BB7FD8AC0CB
:1053F0000E9421AD8AE00E947A3ED501C40180530B
:10540000984FAF4FBF4FA7968CAF9DAFAEAFBFAF1A
:10541000A7976A969FAD6A97911159C0AB962CAD2C
:105420003DAD4EAD5FADAB97612F722D832D902FAB
:105430000F948F351816C4F520E030E040E050E4BA
:10544000612F722D832D902F0F946933AB966CAF23
:105450007DAF8EAF9FAFAB97A5019401205E314B1E
:105460004F4F5F4FAF962CAF3DAF4EAF5FAFAF9793
:1054700020E030E040EC50E46AA97EA98AAD9EAD00
:105480000F9468339B01AC0181E06A968FAF6A97F5
:10549000612F722D832D902F0F948F35181694F154
:1054A0006A961FAE6A972EC0D501C401AF962CAD87
:1054B0003DAD4EAD5FADAF97821B930BA40BB50B0B
:1054C000B7FD20C047EE56E069EF76E018C020E057
:1054D00030E040EA51E46AA97EA98AAD9EAD0F94FE
:1054E00068339B01AC01612F722D832D902F0F9497
:1054F000993187FF07C044EC56E067ED76E080E025
:105500000E944DAFD501C401880F991FAA1FBB1F70
:105510006E962CAD3DAD4EAD5FAD6E97821B930B7D
:10552000A40BB50B84199509A609B70981389F44C6
:10553000A241B10568F0E6EAF6E084918F010F5FC1
:105540001F4F882309F43ECF0E947A3EF801F5CF21
:1055500024964EAD5FAD249768968EAD9FAD68974B
:10556000841795070CF068C0E9E4F6E084918F0198
:105570000F5F1F4F882321F00E947A3EF801F6CF7B
:10558000B701A60185E396E00F943C168AE00E94DD
:105590007A3E62964CAD5DAD6EAD7FAD629781E2B5
:1055A00096E00F943C168AE00E947A3E66964CADD7
:1055B0005DAD6EAD7FAD66978DE096E00F943C16C5
:1055C0008AE00E947A3EA3969FADA397992311F497
:1055D0000C947A33C092D103D092D203E092D303D9
:1055E000F092D4032CEA35EC47E25EE362966CADB0
:1055F0007DAD8EAD9FAD62970F94FE316093D90360
:105600007093DA038093DB039093DC032CEA35EC90
:1056100047E25EE366966CAD7DAD8EAD9FAD66975D
:105620000F9445346093D5037093D6038093D703CA
:105630009093D8030C947A330E94CD64B1CDE1E20B
:10564000F6E284918F010F5F1F4F882321F00E94A3
:105650007A3EF801F6CFEAEBF7E084918F010F5F15
:105660001F4F882311F40C947A330E947A3EF8017C
:10567000F4CF81E00E94D8380E944AC70C947A3354
:1056800083E50E944D3D882349F00E940B3D082F81
:10569000811106C080E00E94483B02C00091E606EE
:1056A0008091F8069091F906A091FA06B091FB0658
:1056B00089839A83AB83BC838091FC069091FD061D
:1056C000A091FE06B091FF068D839E83AF83B887BD
:1056D0008091000790910107A0910207B091030704
:1056E00089879A87AB87BC8780912A0790912B077F
:1056F000892B09F47DC083E40E944D3D882309F481
:1057000077C00E941A3D1B012C01612C712C28ECE2
:105710002EAB32EC3AAF1AA6812C48EC4EA752E4DD
:105720005AAB13E0115053E0D52E812F90E07C014D
:10573000EE0CFF1CE80EF91EDA94F701ED0DF11DD9
:10574000EE0FFF1FEE0FFF1FE953F64F9080A18071
:10575000B280C380292D3A2D4B2D5C2D6AA5782D62
:105760008EA59AA90F948F35181624F49AA68A2C20
:10577000BEA6CAAA292D3A2D4B2D5C2DB3018EA9A8
:105780009AAD0F94993187FF04C0692C7A2CBEAA78
:10579000CAAED110D1CF1111C5CF93014EA95AADC8
:1057A0006AA5782D8EA59AA90F94693320E030E080
:1057B00040E05FE30F94FE31A20191010F94693341
:1057C0004B015C012DEB37E346E855EB0F948F3529
:1057D00087FF02C00C94A8352DEB37E346E855E36C
:1057E000C501B4010F949931181614F40C94A8351E
:1057F00086E50E944D3D882341F080912A079091D3
:105800002B07892B11F00E9449428AE50E944D3DE9
:10581000882329F00E941A3D40E00E94D23B802F4D
:105820000E94483B011103C0ECE3F6E21CC08091EA
:10583000E6068111F9CFE1E2F6E284918F010F5F74
:105840001F4F882321F00E947A3EF801F6CFE9EE3F
:10585000F7E084918F010F5F1F4F882329F30E9487
:105860007A3EF801F6CF84918F010F5F1F4F882396
:1058700021F00E947A3EF801F6CF8091E606811170
:1058800003C069E273E002C065E273E08BED97E06C
:105890000F9472168AE00E947A3EECE3F6E284915D
:1058A0008F010F5F1F4F882321F00E947A3EF8017D
:1058B000F6CFEEECF7E084918F010F5F1F4F882346
:1058C00021F00E947A3EF801F6CFC0903B0AD090BA
:1058D0003C0AE0903D0AF0903E0A20E030E0A90149
:1058E000C701B6010F948F3518164CF442E0C7017A
:1058F000B6010E94D8418AE00E947A3E0CC0E9ECD1
:10590000F7E084918F010F5F1F4F882321F00E94E1
:105910007A3EF801F6CF4CE050E068EF76E0CE0139
:1059200001960F946C36892B09F4E4C60E944AC78D
:10593000E1C689E40E94943D882321F00E94EA3C5C
:10594000062F01C00FEF8AE40E94943D882321F0C6
:105950000E94EA3C162F01C01FEF8AE50E944D3DD0
:10596000F82E811105C081E50E944D3DD82E01C061
:10597000D12C07FD02C017FF03C0E1E2F6E205C02B
:10598000F1101AC0D11018C0F8CF84918F010F5FA9
:105990001F4F882321F00E947A3EF801F6CFE7E2FC
:1059A000F8E084918F010F5F1F4F882309F4A2C68E
:1059B0000E947A3EF801F5CF033018F0E1E2F6E2FA
:1059C00006C01330D8F716C00E947A3EF8018491C1
:1059D0008F010F5F1F4F8111F7CFE8E0F8E084914E
:1059E0008F010F5F1F4F882309F484C60E947A3EFF
:1059F000F801F5CFE02E000FFF08012F110F110B5A
:105A00000E941A3DD701AA0FBB1FDD2081F0FD01C6
:105A1000EE0DFF1DE00FF11FEE0FFF1FEE0FFF1F3A
:105A2000E953F64F208131814281538103C020E048
:105A300030E0A901EA0EFB1E0E0D1F1D000F111F05
:105A4000000F111F0953164F0F946933D8016D933E
:105A50007D938D939C9313974DC60E94EB584AC635
:105A60000E94C8E147C683E50E944D3D882321F08E
:105A70000E940B3D91E089270E943EDC3BC680E0FE
:105A800090E0A0E2B1E489839A83AB83BC8380E099
:105A900090E0A1E9B3E48D839E83AF83B88780E073
:105AA00090E0A0EAB1E489879A87AB87BC8788E554
:105AB00092E00E94824181111DC64091650760E01D
:105AC0000E943E6885E40E944D3D882381F00E943B
:105AD0001A3D6B017C0120E030E0A9010F948F3565
