:100000000C94F2190C94231A0C94231A0C94231AAE
:100010000C94231A0C94231A0C94231A0C94231A6C
:100020000C94231A0C94231A0C94231A0C94231A5C
:100030000C94231A0C94231A0C94231A0C94231A4C
:100040000C94231A0C94CDE40C94231A0C94231AC8
:100050000C94231A0C94231A0C947ABA0C94F4601E
:100060000C94231A0C94BEA60C94231A0C94231AF5
:100070000C94231A0C94231A0C94231A0C94231A0C
:100080000C94231A0C94231A0C94231A0C94231AFC
:100090000C94231A0C94231A0C94231A0C94231AEC
:1000A0000C94231A0C94231A0C94231A0C94231ADC
:1000B0000C94231A0C94231A0C94231A0C94231ACC
:1000C0000C94231A0C94231A0C94231A0C94231ABC
:1000D0000C94231A0C94231A0C94231A0C94231AAC
:1000E0000C94231A7C4F624F654F684F6B4F774FCC
:1000F0006E4F884F714F744FEC00D6001001EA002C
:10010000D2000C01F8000E010001D400D800DC0080
:10011000DA00FA000C01E200FC00CA00E600F2007E
:10012000DE0004010201C600F000F400E000E80077
:10013000E400EE00CE00FE00C600C8000601F60096
:10014000084AD73B3BCE016E84BCBFFDC12F3D6C3E
:1001500074319ABD56833DDA3D00C77F11BED9E4A4
:10016000BB4C3E916BAAAABE000000803F05A84C84
:10017000CDB2D44EB93836A9020C50B99186880850
:100180003CA6AAAA2ABE000000803F000D944C089D
:100190000D942E080D943E050D9477000D941A08C9
:1001A0000D9402180D9405050D941E050D940C0573
:1001B0000D9422050D942C050D9428050D94BF0770
:1001C0000D94ED070D9436050D9401080D94B507B7
:1001D0000D94F7070D94FF040D9409050D940B0879
:1001E0000D94DD070D94BA070D94E5070D944208B0
:1001F0000D9410050D9430050D943A050D942408C6
:100200000D941A050D94D3070D94C9070D94380861
:100210000D9414020D94D0160D9443050D941405FD
:100220000D94FB044E414E494E495459494E46CD1A
:10023000CCCC3D0AD7233C17B7D13877CC2B32959D
:1002400095E6241FB14F0A000020410000C842007B
:10025000401C4620BCBE4CCA1B0E5AAEC59D744302
:100260004F4D4D554E49434154494F4E004452590C
:1002700052554E004552524F525300494E464F0080
:100280004543484F0047322F473320626164207056
:100290006172616D65746572730A00536C65657097
:1002A0002E2E2E00486F6D65205859206669727396
:1002B000740A00486F6D652058592066697273741E
:1002C00000205A3A200020593A2000426564205804
:1002D0003A20004D65736820706F696E7420636109
:1002E0006E6E6F74206265207265736F6C766564E4
:1002F0000A00436C69636B20746F20726573756DBF
:10030000652E2E2E004E6F206D6F76652E00456E89
:10031000642066696C65206C6973740A00426567C5
:10032000696E2066696C65206C6973740A00286EBA
:100330006F2066696C6529005344207072696E7481
:10034000696E67206279746520004E6F7420534493
:10035000207072696E74696E670A00437572726507
:100360006E742066696C653A20005072696E742064
:1003700074696D653A200080027B0274026D025F31
:10038000026F66660044454255473A004B494C4C63
:1003900045442E20004D3131332053006F6B004E09
:1003A0004C2042473132204F66662E002C20002C14
:1003B0002000544845524D414C5F50524F544543E4
:1003C00054494F4E004155544F5245504F52545F7F
:1003D00053445F53544154555300454D455247458E
:1003E0004E43595F50415253455200434153455F7C
:1003F0004C494748545F4252494748544E4553532D
:1004000000544F47474C455F4C49474854530053AD
:100410004F4654574152455F504F57455200425541
:10042000494C445F50455243454E54004C45564557
:100430004C494E475F44415441005A5F50524F422D
:1004400045004155544F4C4556454C005052494E7D
:10045000545F4A4F420050524F4752455353004158
:1004600055544F5245504F52545F54454D500056CD
:100470004F4C554D455452494300454550524F4D00
:100480000053455249414C5F584F4E5F584F4646C6
:10049000004649524D574152455F4E414D453A4DF8
:1004A00061726C696E20312E312E392028476974B3
:1004B0006875622920534F555243455F434F444569
:1004C0005F55524C3A68747470733A2F2F67697491
:1004D0006875622E636F6D2F4D61726C696E46692F
:1004E000726D776172652F4D61726C696E2050522A
:1004F0004F544F434F4C5F56455253494F4E3A313C
:100500002E30204D414348494E455F545950453A9D
:100510004E4C2042473132204558545255444552A2
:100520005F434F554E543A3120555549443A63651F
:100530006465326132662D343161322D343734389E
:100540002D396231322D63353563363266333637B5
:1005500066660A002F2F20004D31343520533C6948
:100560006E6465783E206F7574206F662072616ED0
:1005700067652028302D31290A00205400205200C0
:10058000416363656C65726174696F6E3A205000F7
:1005900020466C6F773A2000000125311D40FFFF97
:1005A000FF2924301C45FFFFFF27232F1B0AFFFFD5
:1005B000FFFF43FFFF040806FFFF222B1AFFFF4245
:1005C000043803063650726F6265205A204F666603
:1005D0007365743A200043290A0061626C656420E7
:1005E000286D696E2074656D702000436F6C642007
:1005F00065787472756465732061726520004E6F52
:100600002063617365206C696768740A0045455012
:10061000524F4D204F4B0A003F5A206F7574206F88
:10062000662072616E676520282D323020746F203D
:100630003230290A003A200050726F6265205A2039
:100640004F6666736574004163746976652045780A
:100650007472756465723A2000496E76616C6964E3
:100660002065787472756465720A0024F4D4305081
:10067000C38E20C2A24017828B7011127A910D8115
:100680006CD90AA861E108C7586607615143061E84
:100690004B5D05C145A7041A411104093D9803713A
:1006A0003931034036DB0265339102D43054028085
:1006B0002E1D02632CEE01752AC501B028A0011081
:1006C0002781018F2564012B244B01E0223401ACEA
:1006D000211F018D200D01801FFC00841EED00975D
:1006E0001DDF00B81CD200E61BC600201BBC006446
:1006F0001AB200B219A8000A19A0006A189900D10C
:1007000017910040178B00B516840031167E00B398
:100710001579003A157300C7146F0058146A00EE7B
:100720001366008813630025135E00C7125B006C1C
:1007300012570015125400C111510070114F0021C1
:10074000114B00D61049008D10470046104400029E
:10075000104200C00F4000800F3E00420F3C0006D8
:100760000F3B00CB0E3800930E37005C0E35002790
:100770000E3400F30D3200C10D3100900D300060D9
:100780000D2E00320D2D00050D2C00D90C2B00AEC6
:100790000C2900850C29005C0C2700350C27000E65
:1007A0000C2600E80B2400C40B2400A00B23007DC2
:1007B0000B23005A0B2100390B2100180B2000F8E5
:1007C0000A1F00D90A1E00BB0A1E009D0A1D0080D8
:1007D0000A1D00630A1C00470A1B002C0A1B00119B
:1007E0000A1A00F7091A00DD091900C4091900AB3B
:1007F000091900920917007B091800630917004CBA
:1008000009160036091600200916000A091500F518
:10081000081500E0081400CC081400B8081400A45F
:10082000081400900813007D0812006B081300588C
:1008300008120046081200340811002308110012A3
:1008400008110001081100F0071000E0071000D0A7
:10085000071000C0071000B0070F00A1071000919B
:10086000070E0083070F0074070F0065070E00577F
:10087000070E0049070E003B070D002E070E002053
:10088000070D0013070D0006070D00F9060C00ED1B
:10089000060D00E0060C00D4060C00C8060C00BCD7
:1008A000060C00B0060C00A4060B0099060C008D87
:1008B000060B0082060B0077060B006C060B00612E
:1008C000060A0057060B004C060A0042060A0038CA
:1008D000060A002E060A0024060A001A060A00105C
:1008E00006090007060A00FD050900F4050900EBEA
:1008F000050900E2050900D9050900D0050900C76E
:10090000050900BE050900B5050800AD050800A5EC
:100910000509009C050800940508008C0508008462
:100920000508007C050800740508006C05070065D3
:100930000508005D050700560508004E050700473D
:100940000507004005080038050700310507002AA3
:10095000050700230507001C050600160507000F04
:100960000507000805060002050700FB040600F560
:10097000040700EE040600E8040600E2040700DBBA
:10098000040600D5040600CF040600C9040600C30F
:10099000040600BD040600B7040600B1040500AC5F
:1009A000040600A6040600A00405009B04060095AA
:1009B000040500900406008A0405008504050080F3
:1009C0000406007A04050075040500700405006B38
:1009D00004050066040500610405005C0405005779
:1009E000040500520405004D0405004804050043B9
:1009F0000405003E0404003A0405003504050030F7
:100A00000404002C04050027040400230405001E30
:100A10000404001A04040016040500110404000D67
:100A2000040400090405000404040000040400FC9C
:100A3000030400F8030400F4030400F0030400ECD2
:100A4000030400E8030400E4030400E0030400DC02
:100A5000030400D8030400D4030400D0030400CC32
:100A6000030400C8030300C503030024F404D920D1
:100A70001BC40C5C0E9804C4095F0265077101F485
:100A800005F900FB04B30048048700C1036900585E
:100A900003550003034500BE023A008402310053AF
:100AA000022A002902250004022000E4011C00C8DB
:100AB000011900AF0117009801140084011300719F
:100AC0000110006101100051010E0043010D0036BC
:100AD000010B002B010B0020010B00150109000C7C
:100AE00001090003010800FB000800F3000800EB07
:100AF000000700E4000600DE000600D8000600D271
:100B0000000600CC000500C7000500C2000500BDBE
:100B1000000400B9000400B5000400B1000400ADF9
:100B2000000400A9000400A5000300A20003009F28
:100B30000004009B0003009800030095000200934E
:100B4000000300900003008D0002008B000300886A
:100B50000002008600020084000300810002007F82
:100B60000002007D0002007B000200790002007795
:100B700000010076000200740002007200010071A2
:100B80000002006F0002006D0001006C0002006AAC
:100B900000010069000200670001006600010065B5
:100BA00000010064000200620001006100010060B9
:100BB0000001005F0002005D0001005C0001005BBD
:100BC0000001005A000100590001005800010057BF
:100BD00000010056000100550001005400010053BF
:100BE00000000053000100520001005100010050BC
:100BF0000001004F0001004E0000004E0001004DBA
:100C00000001004C0001004B0000004B0001004AB5
:100C100000010049000100480000004800010047B1
:100C200000010046000000460001004500000045AC
:100C300000010044000100430000004300010042A5
:100C4000000000420001004100000041000100409E
:100C50000001003F0000003F0001003E0000003E98
:100C60000001003D0000003D0001003C0000003C90
:100C70000000003C0001003B0000003B0001003A86
:100C80000000003A0001003900000039000100387E
:100C90000000003800000038000100370000003775
:100CA000000100360000003600000036000100356B
:100CB0000000003500000035000100340000003461
:100CC0000000003400010033000000330000003356
:100CD000000100320000003200000032000100314B
:100CE0000000003100000031000100300000003041
:100CF000000000300001002F0000002F0000002F36
:100D00000000002F0001002E0000002E0000002E29
:100D10000001002D0000002D0000002D0000002D1E
:100D20000001002C0000002C0000002C0000002C12
:100D30000001002B0000002B0000002B0000002B06
:100D40000001002A0000002A0000002A0000002AFA
:100D500000010029000000290000002900000029EE
:100D600000000029000100280000002800000028E1
:100D700000000028000000280001002700000027D4
:100D800000000027000000270000002700010026C7
:100D900000000026000000260000002600000026BB
:100DA00000010025000000250000002500000025AE
:100DB00000000025000000250001002400000024A0
:100DC0000000002400000024000000240001002393
:100DD0000000002300000023000000230000002387
:100DE0000000002300000023000100220000002278
:100DF000000000220000002200000022000000226B
:100E0000000100210000002100000021000000215D
:100E1000000000210000002100000021000100204E
:100E20000000002000000020000000200000002042
:100E30000000002000000020000000200001001F32
:100E40000000001F0000001F0000001F0000001F26
:100E50000000001F0000001F0001001E0000001E17
:100E60000000001E0000001E0000003930000033AA
:100E700025000087190000B00F0000DB080000BD4E
:100E8000040000740200003F01000020746F6F2016
:100E90006C6F6E6720657874727573696F6E207001
:100EA000726576656E7465640A0020636F6C6420F9
:100EB000657874727573696F6E2070726576656E91
:100EC0007465640A00556E6B6E6F776E20636F6D8C
:100ED0006D616E643A202200486F74656E64207400
:100EE0006F6F20636F6C640A0050726F62696E6787
:100EF000206661696C65640A0050726F62696E6792
:100F0000206661696C656400205A3A200020593AD5
:100F1000200042656420583A200000002000230091
:100F2000260029002C002F003200000100000301E0
:100F30000601090100002200250028002B002E00D8
:100F40003100340002010000050108010B01050514
:100F50000505070508080808020202020A0A08082F
:100F6000040404040101010101010101030303035D
:100F700003030303040707070C0C0C0C0C0C0C0CEC
:100F80000202020206060606060606060B0B0B0BFD
:100F90000B0B0B0B07070A0A0A0A0A0A05050504C8
:100FA0000404080801021020200808102040102026
:100FB000408002010201080402010102040810201D
:100FC000408080402010080402018004020180401B
:100FD0002010080402010804020101020408102084
:100FE000408001020408102040801008040880108E
:100FF00020400440801020400480436172642072CD
:10100000656D6F766564004461746120496E6A6540
:10101000637465640070012C0190012701B0012206
:1010200001C0011D01F00118011002130130020E70
:10103000016002090190020401C002FF000003FAEE
:10104000004003F5008003F000D003EB002004E62D
:10105000007004E100E004DC004005D700C005D2C8
:10106000004006CD00D006C8008007C3003008BE8F
:1010700000F008B900C009B400B00AAF00B00BAA74
:1010800000D00CA500000EA000500F9B00C01096D1
:10109000005012910000148C00C0158700B0178218
:1010A00000B0197D00D01B7800001E730040206E38
:1010B0000090226900F024640040275F0090295AC4
:1010C00000E02B5500102E500020304B001032460F
:1010D00000E033410090353C001037370070383263
:1010E00000A0392D00B03A2800A03B2300603C1E30
:1010F00000103D1900903D1400103E0F00703E0A94
:1011000000C03E0500003F0000403FFBFF803FF66F
:10111000FFC03FF1FF453400453300453200453103
:10112000004530005A32005932005832005A0059F6
:101130000058002042403A0020403A0031112F115F
:101140002D112A112711241121111E111B11181103
:101150001511747275650066616C736500207465A5
:101160006D706572617475726520707265776172F9
:101170006E207472696767657265643A200020703A
:1011800072657761726E20666C616720636C656161
:101190007265640A0020686F6D696E672073656E02
:1011A00073697469766974793A200025753A253037
:1011B000327500253032753A25303275002D2D2DCF
:1011C0000053440020202020202000202020200048
:1011D00000000000010204040000001C1C0C0404B8
:1011E00004020100000000000408100000000000DC
:1011F0002D2D2D2D2D2D007C4D61726C696E7C0086
:101200002D2D2D2D2D2D00687474703A2F2F6D61AA
:10121000726C696E66772E6F726700687474703ACC
:101220002F2F6D61726C696E66772E6F726700206A
:10123000312E312E39002020506C616E6E65724265
:10124000756666657242797465733A20002046724D
:101250006565204D656D6F72793A2000436F6D7042
:10126000696C65643A204A756E2020332032303133
:10127000390A00207C20417574686F723A205061F1
:10128000756C2043686173652026204A6F686E2064
:101290004C696E6B0A00323031382D30382D3031C8
:1012A00000204C61737420557064617465643A2049
:1012B00000312E312E390A004D61726C696E0020AA
:1012C000536F6674776172652052657365740A00A6
:1012D000205761746368646F672052657365740A90
:1012E000002042726F776E206F75742052657365AF
:1012F000740A002045787465726E616C20526573C3
:1013000065740A00506F77657255700A00737461D6
:1013100072740A006175746F25692E6700657272B8
:101320006F722077726974696E6720746F206669C6
:101330006C650A00456E6473746F707320256320BA
:10134000256320256320256300205A3A0020593A5E
:101350000020583A00656E6473746F70732068697A
:10136000743A2000446F6E6520736176696E672061
:1013700066696C652E0A004D32390020204E6F7A66
:101380007A6C653A20006368616E6765006F66205D
:101390007468652066696C616D656E74005761697B
:1013A0007420666F722073746172740020204E6F17
:1013B0007A7A6C653A200066696C616D656E74209E
:1013C000756E6C6F6164005761697420666F72009E
:1013D00020204E6F7A7A6C653A2000506C656173FC
:1013E0006520776169742E2E2E0048656174696EE0
:1013F00067206E6F7A7A6C650020204E6F7A7A6C67
:10140000653A200068656174206E6F7A7A6C652E8B
:1014100000507265737320627574746F6E20746F00
:101420000020204E6F7A7A6C653A2000746F20633A
:101430006F6E74696E75652E2E2E00616E6420705D
:101440007265737320627574746F6E00496E736594
:1014500072742066696C616D656E740020204E6F39
:101460007A7A6C653A200066696C616D656E7420ED
:101470006C6F6164005761697420666F7200202090
:101480004E6F7A7A6C653A200066696C616D656EA4
:1014900074207075726765005761697420666F7299
:1014A00000746F20726573756D65005761697420F3
:1014B000666F72207072696E740000000000000098
:1014C00070C1000000000000964300009643000039
:1014D000BE4342696C696E656172204C6576656CCD
:1014E000696E6720477269643A0A00486F6D696ED9
:1014F00067206661696C6564002028445259525522
:101500004E2900473239204175746F2042656420AE
:101510004C6576656C696E67003F20284C2C522C18
:10152000462C4229206F7574206F6620626F756E9D
:1015300064732E0A003F2856296572626F73652016
:101540006C6576656C20697320696D706C6175736C
:1015500069626C652028302D34292E0A00426164AE
:10156000205A2076616C75650A004E6F2062696CA6
:10157000696E65617220677269640A0045787472E9
:1015800075646572004D6F7665205A004D6F766503
:101590002059004D6F766520580050726570617259
:1015A0006500496E697469616C697A6520454550CA
:1015B000524F4D00436F6E74726F6C0052657374BE
:1015C0006F7265206661696C73616665004C6F615E
:1015D000642073657474696E677300496E69746919
:1015E000616C697A6520454550524F4D0053746FC8
:1015F00072652073657474696E67730046696C6107
:101600006D656E74004D6F74696F6E0054656D701A
:1016100065726174757265004D61696E0050726526
:10162000686561742041425320636F6E660050729A
:10163000656865617420504C4120636F6E66005090
:1016400049442D44005049442D44005049442D49FB
:10165000005049442D49005049442D500050494400
:101660002D50002002204661637400200220466154
:101670006374002002204D6178002002204D6178C3
:10168000002002204D6178002002204D696E00206C
:1016900002204D696E002002204D696E004F666683
:1016A000004F6E20004175746F74656D7000466167
:1016B0006E2073706565640046616E2073706565A9
:1016C000640046616E207370656564004265640065
:1016D00042656400426564004E6F7A7A6C65004E24
:1016E0006F7A7A6C65004E6F7A7A6C6500436F6E24
:1016F00074726F6C0053746F7265207365747469D3
:101700006E67730042656400426564004265640070
:101710004E6F7A7A6C65004E6F7A7A6C65004E6F08
:101720007A7A6C650046616E207370656564004668
:10173000616E2073706565640046616E207370652C
:1017400065640054656D70657261747572650056EC
:1017500054726176206D696E005654726176206D08
:10176000696E005654726176206D696E00566D691F
:101770006E00566D696E00566D696E00566D61782B
:10178000204500566D6178204500566D61782045F2
:1017900000566D6178205A00566D6178205A0056C7
:1017A0006D6178205A00566D6178205900566D6140
:1017B00078205900566D6178205900566D61782067
:1017C0005800566D6178205800566D617820580099
:1017D0004D6F74696F6E00416D6178204500416DF9
:1017E0006178204500416D6178205A00416D617833
:1017F000205A00416D6178205900416D617820596F
:1018000000416D6178205800416D61782058004199
:101810002D74726176656C00412D74726176656C11
:1018200000412D7265747261637400412D7265749C
:101830007261637400416363656C00416363656C4E
:10184000004D6F74696F6E0056652D6A65726B008E
:1018500056652D6A65726B0056652D6A65726B0060
:10186000567A2D6A65726B00567A2D6A65726B0026
:1018700056792D6A65726B0056792D6A65726B0018
:1018800056792D6A65726B0056782D6A65726B0009
:1018900056782D6A65726B0056782D6A65726B00FA
:1018A0004D6F74696F6E004573746570732F6D6D45
:1018B000004573746570732F6D6D005A7374657095
:1018C000732F6D6D005A73746570732F6D6D0059B1
:1018D00073746570732F6D6D005973746570732F19
:1018E0006D6D005873746570732F6D6D005873744F
:1018F0006570732F6D6D004D6F74696F6E0050725F
:10190000656865617420504C4120456E64005072DA
:10191000656865617420504C4120426564005072D6
:10192000656865617420504C410050726570617249
:101930006500507265686561742041425320456EB0
:1019400064005072656865617420414253204265AD
:1019500064005072656865617420414253005072A2
:101960006570617265004D3432380050726568658B
:10197000617420504C4100436F6F6C646F776E0050
:101980005072656865617420414253004368616E1E
:1019900067652066696C616D656E74004368616E91
:1019A00067652066696C616D656E74004D36303018
:1019B0002042300044697361626C65207374657005
:1019C00070657273004D38340053657420686F6D14
:1019D00065206F66667365747300466164652048B0
:1019E0006569676874004661646520486569676871
:1019F00074004661646520486569676874004F66D5
:101A000066004F6E2000426564204C6576656C6907
:101A10006E67004C6576656C2062656400473238FD
:101A20000A473239004175746F20686F6D65004751
:101A30003238004D6F76652061786973004D6169B9
:101A40006E004D6F76652058004D6F766520590009
:101A50004D6F7665205A0045787472756465720022
:101A60004D6F766520302E316D6D004D6F7665209F
:101A7000316D6D004D6F76652031306D6D004D6FAD
:101A80007665206178697300457874727564657253
:101A9000004D6F7665205A004D6F76652059004DD8
:101AA0006F76652058007C3C3E5E2B3D3F2F5B5D92
:101AB0003B2C2A225C00205A3A0020593A0020434D
:101AC0006F756E7420583A0020453A00205A3A004B
:101AD00020593A00583A003A004361703A005741A1
:101AE000524E494E4721204C6F77205A204A65724A
:101AF0006B206D6179206C65616420746F20756E58
:101B000077616E746564207061757365732E0A0069
:101B1000205A00205900580020204D61783A2000BA
:101B2000205A00205900580020204D696E3A2000AC
:101B30004F6E20004F666600536F667420656E64BA
:101B400073746F70733A200020643A0020693A0081
:101B500020703A00496E76616C6964206578747211
:101B6000756465720A0023646566696E6520444584
:101B70004641554C545F4B64200023646566696E92
:101B8000652044454641554C545F4B692000236411
:101B90006566696E652044454641554C545F4B70FF
:101BA0002000504944204175746F74756E6520663D
:101BB000696E697368656421205075742074686566
:101BC000206C617374204B702C204B6920616E6413
:101BD000204B6420636F6E7374616E747320667241
:101BE0006F6D2062656C6F7720696E746F20436F34
:101BF0006E66696775726174696F6E2E680A00504F
:101C00004944204175746F74756E65206661696C16
:101C10006564212074696D656F75740A0045312013
:101C2000544845524D414C2052554E415741590060
:101C3000546865726D616C2052756E6177617900D0
:101C400045312048656174696E67206661696C651D
:101C5000640048656174696E67206661696C6564DB
:101C600000504944204175746F74756E652066613B
:101C7000696C6564212054656D706572617475725C
:101C80006520746F6F20686967680A00204B643AAA
:101C90002000204B693A2000204B703A20000A2097
:101CA000436C617373696320504944200A002054D7
:101CB000753A2000204B753A2000206D61783A205B
:101CC00000206D696E3A200020643A20002062698D
:101CD00061733A2000504944204175746F74756EE9
:101CE00065206661696C65642120426164206578C5
:101CF000747275646572206E756D6265720A00504B
:101D00004944204175746F74756E652073746172F7
:101D1000740A004F66660A0046616465204865697A
:101D20006768742000426564204C6576656C696E56
:101D30006720004661696C656420746F20656E6180
:101D4000626C6520426564204C6576656C696E67DF
:101D50000A002569730025696D20256973002569CE
:101D6000682025696D20256973002569642025692F
:101D7000682025696D20256973002569792025690A
:101D800064202569682025696D20256973004B4909
:101D90004C4C45442E200053544F505045442E2067
:101DA000005072696E7465722073746F7070656430
:101DB0002064756520746F206572726F72732E20B7
:101DC00046697820746865206572726F7220616E52
:101DD0006420757365204D39393920746F20726520
:101DE00073746172742E202854656D70657261740D
:101DF0007572652069732072657365742E20536552
:101E000074206974206166746572207265737461F0
:101E10007274696E67290A004E6F20436865636BB0
:101E200073756D2077697468206C696E65206E75B6
:101E30006D6265722C204C617374204C696E653A3A
:101E400020004E6F20436865636B73756D20776962
:101E50007468206C696E65206E756D6265722C20E9
:101E60004C617374204C696E653A20006368656349
:101E70006B73756D206D69736D617463682C204C94
:101E8000617374204C696E653A20004C696E652060
:101E90004E756D626572206973206E6F74204C619F
:101EA0007374204C696E65204E756D6265722B31BE
:101EB0002C204C617374204C696E653A20004D31C2
:101EC0003130004D33310053442072656164206528
:101ED00072726F720A00446F6E65207072696E7460
:101EE000696E672066696C650A0020496E76616CD0
:101EF000696420657874727564657220004D65733D
:101F00006820706F696E742063616E6E6F742062FA
:101F100065207265736F6C7665640A004D343231EA
:101F200020696E636F727265637420706172616D97
:101F3000657465722075736167650A004F66667324
:101F4000657473206170706C696564004572723AE3
:101F500020546F6F206661722100546F6F2066619C
:101F6000722066726F6D207265666572656E63655C
:101F700020706F696E740A004D3630303A20546F0D
:101F80006F20636F6C6400486F74656E6420746FBB
:101F90006F20636F6C640A00496E7365727420660B
:101FA000696C616D656E7420616E6420707265731A
:101FB0007320627574746F6E0A00507265737320BB
:101FC000627574746F6E20746F2068656174206E22
:101FD0006F7A7A6C650A00496E736572742066695F
:101FE0006C616D656E7420616E64207072657373D0
:101FF00020627574746F6E20286F72204D313038F6
:10200000290A00496E736572742066696C616D659A
:102010006E7420616E6420707265737320627574D3
:10202000746F6E20286F72204D313038290A006F8E
:1020300070656E206661696C65642C2046696C650C
:102040003A200043616E6E6F74206F70656E20736E
:10205000756264697220006563686F3A00453120DB
:10206000544845524D414C2052554E41574159001C
:1020700042454420544845524D414C2052554E4112
:1020800057415900546865726D616C2052756E61DC
:1020900077617900001C1F11111F0000000619183C
:1020A00003130C00040E1F041C000000000E131587
:1020B000110E00001C10181705060500040A0A0A74
:1020C0000A11110E0C12120C00000000001F151155
:1020D000151F000046696C652064656C6574656455
:1020E0003A0044656C6574696F6E206661696C6561
:1020F000642C2046696C653A200050726F746563E9
:102100007465642050696E0A005374616E64617274
:102110006420446576696174696F6E3A20002052CC
:10212000616E67653A2000204D61783A2000204DAD
:10213000696E3A20004D65616E3A200046696E690D
:1021400073686564210A002072616E67653A200039
:10215000206D61783A2000206D696E3A200020736E
:1021600069676D613A2000206D65616E3A20003A22
:10217000207A3A2000206F662000205A0020590063
:10218000205800476F696E6720746F3A00436C6F88
:10219000636B776973650A00436F756E7465722DA2
:1021A0000020446972656374696F6E3A20002020D4
:1021B00020616E676C653A20005374617274696EB9
:1021C00067207261646975733A2000506F73697497
:1021D000696F6E696E67207468652070726F6265E2
:1021E0002E2E2E0A003F4E756D626572206F66209E
:1021F0006C65677320696E206D6F76656D656E74B2
:10220000206E6F7420706C61757369626C65202834
:10221000302D3135292E0A003F2028582C592920ED
:102220006F7574206F6620626F756E64732E0A007E
:102230003F53616D706C652073697A65206E6F74B1
:1022400020706C61757369626C652028342D35309F
:10225000292E0A004D3438205A2D50726F626520A5
:102260005265706561746162696C69747920546546
:1022700073740A003F2856296572626F7365206C7B
:102280006576656C20697320696D706C6175736922
:10229000626C652028302D34292E0A0006FFFFFFCE
:1022A000FFFF0001010101016265640A002C207337
:1022B000797374656D2073746F7070656421204844
:1022C00065617465725F49443A2000426564206824
:1022D000656174696E67206661696C656400486554
:1022E0006174696E67206661696C656400453120C0
:1022F00048656174696E67206661696C6564004851
:10230000656174696E67206661696C65640045315A
:10231000204572723A204D415854454D5000457247
:10232000723A204D415854454D5020424544004D8D
:10233000415854454D5020747269676765726564F1
:10234000004531204572723A204D494E54454D505A
:10235000004572723A204D494E54454D5020424539
:1023600044004D494E54454D50207472696767656D
:10237000726564004D383420582059205A20450099
:10238000202F0053746570732F6D6D004A65726B5A
:1023900000416363656C65726174696F6E005665B8
:1023A0006C6F636974790050726F6265205A204FB8
:1023B000666673657400436F6E74726F6C004C6F69
:1023C0006164206D6D004C6F6164206D6D004C6F19
:1023D0006164206D6D00556E6C6F6164206D6D00E1
:1023E000556E6C6F6164206D6D00556E6C6F61642D
:1023F000206D6D0046696C2E204469612E0046698F
:102400006C2E204469612E004F6666004F6E2000DE
:102410004520696E206D6D3300436F6E74726F6C72
:102420000043616E6E6F7420656E74657220737503
:10243000626469723A2000052E2E004D61696E00BB
:102440004D37303220542564004D36303020423034
:1024500020542564004D373032203B2564004D3731
:10246000303120542564004368616E6765206669D9
:102470006C616D656E7400507265686561742041B1
:102480004253005072656865617420504C410043AE
:1024900068616E67652066696C616D656E74005079
:1024A00052494E542050415553454400554E4C4FCF
:1024B00041442046494C414D454E54004C4F414407
:1024C0002046494C414D454E540050757267652079
:1024D0006D6F726500436F6E74696E75650052456D
:1024E00053554D45204F5054494F4E533A00486183
:1024F0007264636F6465642044656661756C742002
:1025000053657474696E6773204C6F616465640A07
:1025100000DC050000580200000F0000001027003A
:10252000000000FA430000C842000070410000C8EB
:10253000410000A0420000A0420000C84400800DFD
:102540004320204D393036003A0A0020286D6D298D
:102550000020204D3931340020204D36303320000A
:102560002055004C0046696C616D656E74206C6F7F
:1025700061642F756E6C6F6164206C656E67746842
:10258000733A0A0020590020580053656E736F7229
:102590006C65737320686F6D696E6720746872650F
:1025A00073686F6C643A0A00205430204500205A4A
:1025B00000205900205800537465707065722064C3
:1025C00072697665722063757272656E743A0A007C
:1025D00020204D383531205A005A2D50726F6265D7
:1025E000204F666673657400204400204900202057
:1025F0004D33303120500050494420736574746964
:102600006E67733A0A0020460020420020480020EE
:10261000204D3134352053004D6174657269616C11
:102620002068656174757020706172616D65746594
:1026300072733A0A00205A00204A0020204732399B
:102640002057204900205A0020204D34323020539A
:10265000004175746F20426564204C6576656C6935
:102660006E673A0A00205A0020590020204D32306F
:1026700036205800486F6D65206F66667365743A42
:102680000A00204500205A002059002058002054FC
:102690000020530020204D32303520510020453C91
:1026A0006D61785F655F6A65726B3E0020583C6DB6
:1026B00061785F785F6A65726B3E20593C6D617826
:1026C0005F795F6A65726B3E205A3C6D61785F7A14
:1026D0005F6A65726B3E00416476616E6365643A61
:1026E00020513C6D696E5F7365676D656E745F74D4
:1026F000696D655F75733E20533C6D696E5F6665FD
:102700006564726174653E20543C6D696E5F7472DD
:102710006176656C5F66656564726174653E002014
:10272000540020520020204D3230342050004163AC
:1027300063656C65726174696F6E2028756E69746B
:10274000732F7332293A20503C7072696E745F6146
:102750006363656C3E20523C726574726163745FA2
:10276000616363656C3E20543C74726176656C5F96
:10277000616363656C3E0A00204500205A002059C1
:102780000020204D3230312058004D6178696D7540
:102790006D20416363656C65726174696F6E20289A
:1027A000756E6974732F7332293A0A002045002030
:1027B0005A0020590020204D3230332058004D61FE
:1027C00078696D756D2066656564726174657320E6
:1027D00028756E6974732F73293A0A00204500200A
:1027E0005A0020590020204D39322058005374657A
:1027F00070732070657220756E69743A0A0020202B
:102800004D3230302044300A0020204D323030200C
:1028100044002044697361626C65640A0046696C17
:10282000616D656E742073657474696E67733A00C8
:1028300020204D3134392043203B20556E6974737C
:1028400020696E2043656C736975730A0020204708
:102850003231202020203B00627573793A2070616C
:102860007573656420666F7220696E7075740A00F6
:10287000627573793A2070617573656420666F7252
:1028800020757365720A00627573793A2070726FF1
:1028900063657373696E670A004B494C4C45442E5F
:1028A00020004B494C4C206361757365642062794C
:1028B000204B494C4C20627574746F6E2F70696E9A
:1028C0000A004B494C4C45442E20004B494C4C20AF
:1028D00063617573656420627920746F6F206D7514
:1028E000636820696E6163746976652074696D65DB
:1028F000202D2063757272656E7420636F6D6D613B
:102900006E643A2000506C65617365207265736572
:1029100074005052494E5445522048414C5445444D
:10292000005072696E7465722068616C7465642E03
:10293000206B696C6C28292063616C6C6564210ACA
:1029400000206472697665722063757272656E74B8
:102950003A2000656E7175657565696E67202200A5
:1029600000000000000040C1000000000000204204
:102970000000204200008040000000005761726E9D
:10298000696E673A20486F6D696E672042756D7099
:102990002044697669736F72203C20310A0002027C
:1029A000040000A0400000A040000000400000968D
:1029B0004300809D430000BE43FFFFFF0000211045
:1029C000422063308440A550C660E7700881299199
:1029D0004AA16BB18CC1ADD1CEE1EFF13112100241
:1029E00073325222B5529442F772D66239931883E9
:1029F0007BB35AA3BDD39CC3FFF3DEE3622443340D
:102A000020040114E664C774A44485546AA54BB538
:102A100028850995EEE5CFF5ACC58DD553367226E0
:102A200011163006D776F6669556B4465BB77AA788
:102A300019973887DFF7FEE79DD7BCC7C448E5582C
:102A40008668A7784008611802282338CCC9EDD9D8
:102A50008EE9AFF9488969990AA92BB9F55AD44A80
:102A6000B77A966A711A500A333A122AFDDBDCCB28
:102A7000BFFB9EEB799B588B3BBB1AABA66C877C4C
:102A8000E44CC55C222C033C600C411CAEED8FFD78
:102A9000ECCDCDDD2AAD0BBD688D499D977EB66E20
:102AA000D55EF44E133E322E511E700E9FFFBEEFC8
:102AB000DDDFFCCF1BBF3AAF599F788F8891A9818A
:102AC000CAB1EBA10CD12DC14EF16FE18010A10074
:102AD000C230E3200450254046706760B983989364
:102AE000FBA3DAB33DC31CD37FE35EF3B1029012C4
:102AF000F322D2323542145277625672EAB5CBA530
:102B0000A89589856EF54FE52CD50DC5E234C32413
:102B1000A01481046674476424540544DBA7FAB703
:102B20009987B8975FE77EF71DC73CD7D326F23663
:102B30009106B01657667676154634564CD96DC94F
:102B40000EF92FE9C899E9898AB9ABA944586548B3
:102B500006782768C018E1088238A3287DCB5CDBA3
:102B60003FEB1EFBF98BD89BBBAB9ABB754A545A03
:102B7000376A167AF10AD01AB32A923A2EFD0FED6F
:102B80006CDD4DCDAABD8BADE89DC98D267C076C53
:102B9000645C454CA23C832CE01CC10C1FEF3EFF43
:102BA0005DCF7CDF9BAFBABFD98FF89F176E367EA3
:102BB000554E745E932EB23ED10EF01E486F6D6579
:102BC000202573257325732066697273740020664F
:102BD000697273740A005A0059005800486F6D6595
:102BE000200053442063617264206F6B0A006F7091
:102BF000656E526F6F74206661696C65640A007659
:102C00006F6C756D652E696E6974206661696C659F
:102C1000640A00534420696E6974206661696C0A15
:102C20000057726974696E6720746F2066696C65FD
:102C30003A20006F70656E206661696C65642C20B7
:102C400046696C653A20006F70656E206661696C3C
:102C500065642C2046696C653A200046696C6520E5
:102C600073656C65637465640A002053697A653A1C
:102C7000200046696C65206F70656E65643A2000BF
:102C80002066696C653A2000646F696E6700667241
:102C9000657368004E6F772000454E4420535542BF
:102CA000524F5554494E450A002220706F7300223E
:102CB00020706172656E743A2200535542524F552E
:102CC00054494E452043414C4C20746172676574F1
:102CD0003A22004B494C4C45442E200074727969CD
:102CE0006E6720746F2063616C6C207375622D6752
:102CF000636F64652066696C65732077697468200A
:102D0000746F6F206D616E79206C6576656C732EC3
:102D1000204D4158206C6576656C2069733A0045FA
:102D200072726F723A004572726F722077726974B4
:102D3000696E6720746F20454550524F4D210A003F
:102D4000454550524F4D206461746173697A652026
:102D50006572726F722E0A00290A0020627974650A
:102D6000733B20637263200053657474696E6773EC
:102D70002053746F726564202800FFFDFCFAF8F69A
:102D8000F4F2F0EEECEAE9E7E5E3E1E0DEDCDAD9E3
:102D9000D7D5D4D2D0CFCDCBCAC8C7C5C3C2C0BF88
:102DA000BDBCBAB9B7B6B4B3B2B0AFADACAAA9A8FE
:102DB000A6A5A4A2A1A09E9D9C9A9998979594934C
:102DC00092908F8E8D8B8A8988878684838281807A
:102DD0007F7E7D7B7A797877767574737271706F88
:102DE0006E6D6C6B6A696867666564636261605F7B
:102DF0005E5D5C5B5A595858575655545352515062
:102E0000504F4E4D4C4B4A4A49484746464544432D
:102E1000424241403F3E3E3D3C3B3B3A39383837E9
:102E2000363535343332323130302F2E2E2D2C2B97
:102E30002B2A292928272726252524232322212137
:102E400020201F1E1E1D1C1C1B1B1A1919181817C9
:102E50001616151514131312121111100F0F0E0E52
:102E60000D0D0C0C0B0A0A090908080707060605D0
:102E70000504040303020201000054524947474578
:102E8000524544006F70656E003A20007A5F6D69AC
:102E90006E00795F6D696E00785F6D696E005265D6
:102EA000706F7274696E6720656E6473746F7020E2
:102EB0007374617475730A00000000010000000162
:102EC00000008000555555000000400033333300AA
:102ED000AAAA2A004992240000002000C7711C0001
:102EE00099991900D1451700555515003BB11300AC
:102EF0002449120011111100000010000F0F0F00E3
:102F0000E3380E0043790D00CCCC0C00C3300C002C
:102F1000E8A20B0064210B00AAAA0A00703D0A0077
:102F20009DD80900427B090092240900DCD30800E7
:102F3000888808001042080000000800F0C107005F
:102F40008787070075500700711C07003EEB0600DD
:102F5000A1BC06006990060066660600703E060089
:102F60006118060017F4050074D105005BB0050078
:102F7000B2900500627205005555050078390500CC
:102F8000B81E0500050505004EEC040087D40400BA
:102F9000A1BD040090A7040049920400C17D040073
:102FA000EE690400C7560400444404005C32040087
:102FB0000821040041100400000004003FF0030059
:102FC000F8E0030026D20300C3C30300CCB503001E
:102FD0003AA803000A9B0300388E0300C081030057
:102FE0009F750300D0690300505E03001D5303006A
:102FF00034480300913D03003333030016290300D6
:10300000381F030097150300300C0300030303006F
:103010000BFA020049F10200BAE802005CE002008B
:103020002DD802002DD0020059C80200B0C0020005
:1030300031B90200DAB10200AAAA0200A0A302007C
:10304000BC9C0200FA9502005C8F0200DF8802003F
:1030500082820200457C020027760200277002006F
:10306000436A02007C640200D05E02003F59020005
:10307000C8530200290A002062797465733B2063FB
:10308000726320002073746F7265642073657474BA
:10309000696E67732072657472696576656420284D
:1030A00000202863616C63756C6174656429210A72
:1030B0000020213D2000454550524F4D20435243B2
:1030C000206D69736D61746368202D202873746F9F
:1030D0007265642920002053697A653A2000496EA0
:1030E0006465783A2000204D61726C696E3D5635FA
:1030F00035290A0028454550524F4D3D0045455061
:10310000524F4D2076657273696F6E206D69736DD5
:10311000617463682000526573656E643A20006FC5
:103120006B0020746F6F206C6F6E6720657874720F
:103130007573696F6E2070726576656E7465640A6A
:103140000020636F6C6420657874727573696F6EAC
:103150002070726576656E7465640A004E4C20427C
:103160004731322052656164792E005072696E7465
:10317000696E672E2E2E005072696E742070617514
:10318000736564005072696E742061626F72746559
:1031900064005072696E742066726F6D2053440033
:1031A00053746F70207072696E74004E6F205344B8
:1031B000206361726400526573756D652070726979
:1031C0006E74005061757365207072696E7400438F
:1031D0006F6E74726F6C005072657061726500542E
:1031E000756E6500496E666F2073637265656E006B
:1031F00050726F6265205A204F6666736574004393
:1032000068616E67652066696C616D656E74004308
:1032100068616E67652066696C616D656E74004DEE
:103220003630302042300050726F6265205A204F95
:10323000666673657400466C6F7700466C6F770046
:10324000466C6F770046616E20737065656400465A
:10325000616E2073706565640046616E20737065F1
:103260006564004265640042656400426564004E26
:103270006F7A7A6C65004E6F7A7A6C65004E6F7A61
:103280007A6C65004661646520486569676874000A
:1032900046616465204865696768740046616465D5
:1032A00020486569676874005370656564005370F1
:1032B000656564005370656564004D61696E00006A
:1032C000002100240027002A002D003000330001D7
:1032D000010000040107010A0100000A0B02090CA9
:1032E0000D0E0807030401000000000000000000AC
:1032F00000000000000000000000000000000000CE
:10330000000000000012111000000000000000008A
:1033100000000000000000000000000000000000AD
:103320000000000000000000000000000000004D50
:103330003234004D32332025730046696C616D656F
:103340006E7420757365643A200053746174733A27
:1033500020002C204C6F6E67657374206A6F623A90
:103360002000546F74616C2074696D653A200053BD
:10337000746174733A20002C204661696C65643A6C
:1033800020002C2046696E69736865643A200050FD
:1033900072696E74733A200053746174733A20003A
:1033A00020573A004520436F6F6C696E672E2E2EB2
:1033B00000452048656174696E672E2E2E002057E7
:1033C0003A0042656420636F6F6C696E672E2E2E23
:1033D000004265642068656174696E672E2E2E0058
:1033E0000A01D00011241FBECFEFD1E2DEBFCDBF56
:1033F00000E00CBF13E0A0E0B2E0E8E7FDE402E08B
:103400000BBF02C007900D92A435B107D9F726E192
:10341000A4E5B3E001C01D92AA33B207E1F719E1B8
:10342000C1EFD9E100E006C021970109802FFE011C
:103430000F942026C03FD10780E00807A9F70F941A
:10344000860F0D94AB260C9400002F923F924F9262
:103450005F926F927F928F929F92AF92BF92CF9224
:10346000DF92EF92FF920F931F93CF93DF93CDB72D
:10347000DEB7CB56D1090FB6F894DEBF0FBECDBF75
:1034800011E01093920C80913D158D3411F40C9441
:103490003823843511F40C94322F873411F00C94B6
:1034A0007E2F20903B1530903C152BE122163104E5
:1034B00009F47BC6CCF444E0241631044CF452E009
:1034C000251631040CF041C037FE38C00C9434236B
:1034D00084E02816310409F4E7C59CE0291631047C
:1034E00009F421C60C943423AAE22A16310409F403
:1034F0007BC774F4EDE12E16310409F49DC60CF47B
:1035000084C62EE12216310409F49AC60C943423A1
:103510003BE52316310411F40C94B2224CE5241639
:10352000310411F40C94B6225AE52516310411F039
:103530000C943423109258030C94802F8091350200
:1035400081110C94852F0C94802F80913502882353
:1035500011F40C94802F0E94266B82E50E94E5A155
:10356000882309F44CC10E9469A14B015C0120E051
:1035700030E0A9010F94B41E882309F470C1809132
:10358000D9039091DA03A091DB03B091DC0388AFFB
:1035900099AFAAAFBBAF2091DD033091DE0340911C
:1035A000DF035091E0032CAF3DAF4EAF5FAF809192
:1035B000AC0C9091AD0CA091AE0CB091AF0C2C96D0
:1035C0008CAF9DAFAEAFBFAF2C972091B00C3091B8
:1035D000B10C4091B20C5091B30C28962CAF3DAF7A
:1035E0004EAF5FAF28979C01AD0168AD79AD8AAD54
:1035F0009BAD0F94B41E81110FC028962CAD3DAD2C
:103600004EAD5FAD28976CAD7DAD8EAD9FAD0F9487
:10361000B41E882309F423C111E032E023163104DB
:1036200009F010E020E030E0A901C501B4010F94D9
:10363000B41E881F8827881F181759F080E090E073
:10364000A0E8BFEB64968CAF9DAFAEAFBFAF649701
:103650000AC020E030E040E85FE364962CAF3DAF65
:103660004EAF5FAF649728AD39AD4AAD5BAD2C96D8
:103670006CAD7DAD8EAD9FAD2C970F9430236096D1
:103680006CAF7DAF8EAF9FAF60972CAD3DAD4EADB3
:103690005FAD28966CAD7DAD8EAD9FAD28970F9434
:1036A00030236B017C0160962CAD3DAD4EAD5FAD1E
:1036B0006097CA01B9010F94191F2B013C01A701A2
:1036C0009601C701B6010F94191F9B01AC01C301FC
:1036D000B2010F9431230F949C2524966CAF7DAFDB
:1036E0008EAF9FAF249720E030E040E05FE30F947F
:1036F000191F2B013C01A5019401C501B4010F94D0
:10370000191F4B015C01A3019201C301B2010F9487
:10371000191F9B01AC01C501B4010F9430230F9414
:103720009C2564962CAD3DAD4EAD5FAD64970F9476
:10373000191F4B015C01C701B601905824962CADAE
:103740003DAD4EAD5FAD24970F940D24A5019401BE
:103750000F94191F6B017C012C962CAD3DAD4EAD25
:103760005FAD2C9768AD79AD8AAD9BAD0F943123D9
:1037700020E030E040E05FE30F94191F9B01AC01B3
:10378000C701B6010F94312328AD39AD4AAD5BAD09
:103790000F9430236B017C0128962CAD3DAD4EADCE
:1037A0005FAD28976CAD7DAD8EAD9FAD0F9431238D
:1037B00020E030E040E05FE30F94191F2B013C0153
:1037C00024962CAD3DAD4EAD5FAD249760966CADAB
:1037D0007DAD8EAD9FAD60970F940D24A501940132
:1037E0000F94191F9B01AC01C301B2010F94312347
:1037F0002CAD3DAD4EAD5FAD0F94302314C089E4C8
:103800000E94E5A1882329F00E9469A16B017C0137
:1038100003C0C12CD12C76018AE40E94E5A1882343
:1038200009F10E9469A12C966CAF7DAF8EAF9FAF5E
:103830002C9720E030E0A901C701B6010F94B41E17
:1038400081111FC020E030E0A9012C966CAD7DAD48
:103850008EAD9FAD2C970F94B41E811112C0EFE175
:10386000FDE20EC420E030E0A901C701B6010F94CB
:10387000B41E8823A1F32C961CAE1DAE1EAE1FAE47
:103880002C97D701C601B05888AF99AFAAAFBBAF8C
:103890002C962CAD3DAD4EAD5FAD2C9750582CAF56
:1038A0003DAF4EAF5FAF9C01AD01BC01CD010F94A8
:1038B000191F4B015C012CAD3DAD4EAD5FADCA0192
:1038C000B9010F94191F9B01AC01C501B4010F94FC
:1038D00031230F949C25A0966CAF7DAF8EAF9FAF28
:1038E000A0978091D9039091DA03A091DB03B09166
:1038F000DC0328968CAF9DAFAEAFBFAF2897A70172
:103900009601BC01CD010F94312364966CAF7DAF5D
:103910008EAF9FAF64972091DD033091DE0340911D
:10392000DF035091E00360962CAF3DAF4EAF5FAF29
:1039300060972C962CAD3DAD4EAD5FAD2C9760964B
:103940006CAD7DAD8EAD9FAD60970F943123A49685
:103950006CAF7DAF8EAF9FAFA4978091AC0C909170
:10396000AD0CA091AE0CB091AF0C68968CAF9DAF32
:10397000AEAFBFAF689764962CAD3DAD4EAD5FADB9
:103980006497BC01CD010F9430236B017C01209121
:10399000B00C3091B10C4091B20C5091B30C6C96BC
:1039A0002CAF3DAF4EAF5FAF6C97A4962CAD3DAD45
:1039B0004EAD5FADA4976C966CAD7DAD8EAD9FADF9
:1039C0006C970F9430234B015C018091E10390913F
:1039D000E203A091E303B091E403A8968CAF9DAFFE
:1039E000AEAFBFAFA8979C01AD016091B40C7091D0
:1039F000B50C8091B60C9091B70C0F94302324969F
:103A00006CAF7DAF8EAF9FAF2497A701960168ADD5
:103A100079AD8AAD9BAD0F94191F2B013C01A50117
:103A200094016CAD7DAD8EAD9FAD0F94191F9B01C0
:103A3000AC01C301B2010F9431232B013C01A5015C
:103A4000940168AD79AD8AAD9BAD0F94191F4B0100
:103A50005C01A70196016CAD7DAD8EAD9FAD0F945D
:103A6000191F9B01AC01C501B4010F943023A301C0
:103A700092010F94A4236B017C0120E030E0A901A6
:103A80000F94B41E87FF0AC02BED3FE049EC50E4D1
:103A9000C701B6010F9431236B017C0192E0291616
:103AA000310451F42BED3FE049EC50E4C701B6017D
:103AB0000F9430236B017C0120E030E0A901C701A5
:103AC000B6010F94B41E811128C068962CAD3DAD8F
:103AD0004EAD5FAD689728966CAD7DAD8EAD9FAD58
:103AE00028970F94B41E811118C06C962CAD3DAD73
:103AF0004EAD5FAD6C9760966CAD7DAD8EAD9FADFC
:103B000060970F94B41E811108C00BEDC02E0FE01A
:103B1000D02E09ECE02E00E4F02EA7019601A0962D
:103B20006CAD7DAD8EAD9FADA0970F94191F4B016D
:103B30005C0120E030E0A90124966CAD7DAD8EAD36
:103B40009FAD24970F94B41E8823E9F0A50194013A
:103B5000C501B4010F94191F4B015C0124962CADD3
:103B60003DAD4EAD5FAD2497CA01B9010F94191F49
:103B70009B01AC01C501B4010F9431230F949C2526
:103B80004B015C010DC020E030E0A901C501B4018A
:103B90000F94572587FF04C0B7FAB094B7F8B094D4
:103BA0002FE632E143E85AE3C501B4010F94B41E95
:103BB00087FF02C00C94802FC501B4010F94A62486
:103BC0000F947A242E967FAF6EAF2E97DB01AB2B2E
:103BD00031F4E1E0F0E02E96FFAFEEAF2E9740908B
:103BE000E5035090E6036090E7037090E8032E969B
:103BF0002EAD3FAD2E97B90180E090E00F94B81E36
:103C00004B015C019B01AC01C701B6010F940D246F
:103C100028966CAF7DAF8EAF9FAF2897A50194011A
:103C200024966CAD7DAD8EAD9FAD24970F940D2481
:103C3000A0966CAF7DAF8EAF9FAFA097A30192010E
:103C40006091B80C7091B90C8091BA0C9091BB0C3A
:103C50000F943023A50194010F940D24AC966CAF02
:103C60007DAF8EAF9FAFAC9728962CAD3DAD4EADDE
:103C70005FAD2897CA01B9010F94191F20E030E009
:103C800040E05FE30F94191F9B01AC0160E070E01E
:103C900080E89FE30F94302368966CAF7DAF8EAFC2
:103CA0009FAF6897A8968CAD9DADAEADBFADA89700
:103CB00089879A87AB87BC874D865E866F86788AB0
:103CC0006091530270915402072E000C880B990BDF
:103CD0000F94BA1E209110023091110240911202ED
:103CE000509113020F94191F2AE037ED43E25CE371
:103CF0000F94191F6CAB7DAB8EAB9FAB0E94E8603D
:103D00009B01AC0128533F4F4F4F5F4F6C962CAF38
:103D10003DAF4EAF5FAF6C9748AC59AC6AAC7BAC73
:103D200022242394312C39E121963FAF21972E96FE
:103D30004EAD5FAD2E974215530509F44DC10E945B
:103D400068BE0E94E860DC01CB016C962CAD3DADF5
:103D50004EAD5FAD6C97821B930BA40BB50BB7FDFB
:103D600011C00E94E8609B01AC0128533F4F4F4FA8
:103D70005F4F6C962CAF3DAF4EAF5FAF6C9780E05E
:103D80000E94CED221963FAD2197315021963FAF70
:103D90002197332309F445C02CAD3DAD4EAD5FAD49
:103DA00068966CAD7DAD8EAD9FAD68970F94191F71
:103DB0006B017C019201A30128966CAD7DAD8EADA7
:103DC0009FAD28970F94191FA70196010F943123D7
:103DD0007B018C019201A30168966CAD7DAD8EAD27
:103DE0009FAD68970F94191F4B015C012CAD3DAD41
:103DF0004EAD5FAD28966CAD7DAD8EAD9FAD289775
:103E00000F94191F9B01AC01C501B4010F9430231D
:103E10002B013C01C701D8018CAF9DAFAEAFBFAF46
:103E200055C0B10180E090E00F94B81E28962CADEB
:103E30003DAD4EAD5FAD28970F94191F4B015C014E
:103E40000F940A246B017C01C501B4010F949225E3
:103E50004B015C01A701960168AD79AD8AAD9BADC0
:103E60000F94191F2B013C012C962CAD3DAD4EAD8E
:103E70005FAD2C97C501B4010F94191FA3019201E6
:103E80000F9431232B013C01A501940168AD79AD5C
:103E90008AAD9BAD0F94191F4B015C012C962CAD84
:103EA0003DAD4EAD5FAD2C97C701B6010F94191F04
:103EB0009B01AC01C501B4010F9430236CAF7DAF01
:103EC0008EAF9FAF49E121964FAF21979201A30199
:103ED00064966CAD7DAD8EAD9FAD64970F9431232C
:103EE00069837A838B839C832CAD3DAD4EAD5FADF2
:103EF000A4966CAD7DAD8EAD9FADA4970F9431238C
:103F00006D837E838F839887A0962CAD3DAD4EAD9B
:103F10005FADA09769857A858B859C850F94312349
:103F200069877A878B879C87AC962CAD3DAD4EAD6B
:103F30005FADAC976D857E858F8598890F94312311
:103F40006D877E878F87988B80913402882321F03C
:103F5000CE0101960E94E2CFE090B2031CA61DA6FE
:103F60001EA61FA689819A81AB81BC8188A399A3D3
:103F7000AAA3BBA38D819E81AF81B8858CA39DA38D
:103F8000AEA3BFA389859A85AB85BC8588A799A771
:103F9000AAA7BBA7AE01485D5F4FBE016C5D7F4F16
:103FA000CE0180960E94A949CE018C966C018E01AB
:103FB0000C5C1F4F9E01235F3F4FAE01485D5F4F7A
:103FC000BE016C5D7F4F0C970E94283B882321F037
:103FD0009FEF291A390AABCEE090B20318AA19AAAA
:103FE0001AAA1BAA8091AC0C9091AD0CA091AE0CBA
:103FF000B091AF0C88A399A3AAA3BBA38091B00CE6
:104000009091B10CA091B20CB091B30C8CA39DA374
:10401000AEA3BFA38091B40C9091B50CA091B60C47
:10402000B091B70C88A799A7AAA7BBA7AE01485D16
:104030005F4FBE016C5D7F4FCE0180960E94A94903
:10404000DE01D0966D018E010C5C1F4F28EB3CE029
:10405000AE01485D5F4FBE016C5D7F4FCE01809623
:104060000E94283B80E1ECEAFCE0A9EDB3E001907E
:104070000D928A95E1F70C94802F0E94E7A2F80137
:1040800084918F010F5F1F4F8111F7CFE5E8F2E0B8
:1040900084918F010F5F1F4F882311F40C94802FA0
:1040A0000E94E7A2F801F4CF80E50E94E5A18823F1
:1040B00029F00E9429A16B017C0103C0C12CD12CE5
:1040C000760183E50E94E5A1882361F00E9469A141
:1040D00020E030E04AE754E40F94191F0F947A244B
:1040E0006B017C010E94F54880910C07811105C08D
:1040F00060E08BE992E00E94D6550E94E860C60E0F
:10410000D71EE81EF91E0E94E860DC01CB018C1965
:104110009D09AE09BF09B7FD02C00C94802F80E055
:104120000E94CED2F0CF0E9471DB81110C94802FBF
:1041300080E50E94E5A1882319F00E9439A101C001
:1041400060E068AB83E50E94E5A1882319F00E9436
:1041500039A101C06CE06CA784E50E94E5A1882329
:1041600019F00E9439A101C063E068A382E50E94B2
:10417000E5A1882319F00E9469A104C060E070E005
:1041800080ED90E469837A838B839C839E01205E1B
:104190003F4FAE014F5F5F4FBE01645D7F4FCE0169
:1041A000C0960E9475EE0C94802F0E9471DB8111E5
:1041B0000C94802F80E090E0A0E2B1E489839A83A0
:1041C000AB83BC8380E090E0A1E9B3E48D839E8360
:1041D000AF83B88780E090E0A0EAB1E489879A874E
:1041E000AB87BC8780E50E94E5A1882319F00E9477
:1041F00039A101C060E068A3BE016F5F7F4FCE01AF
:1042000080960E94DFED0C94802F8091C803877008
:10421000873011F00C948A2F8FE40E94E5A1882347
:1042200019F00E945AA103C08FE40E949CA1811141
:104230000C94802F0C948A2F0E94F6700C94802F7F
:10424000C090D903D090DA03E090DB03F090DC0358
:1042500088E50E94E5A1811108C020E030E0A901B5
:10426000C701B6010F94312302C00E9469A168A35F
:1042700079A38AA39BA3C090DD03D090DE03E090D6
:10428000DF03F090E00389E50E94E5A1811109C0F8
:1042900020E030E040E751E4C701B6010F9430233D
:1042A00002C00E9469A19B01AC0169837A838B8360
:1042B0009C8368A179A18AA19BA10E94D4D1882363
:1042C00011F40C94802F80E00E94AD6D0E94086F65
:1042D00085E40E94E5A1882321F00E945AA1182FAD
:1042E00004C085E40E949CA111E086E50E94E5A13E
:1042F000882321F00E9439A1262F01C021E0412FFF
:10430000BE016F5F7F4FCE0180960E940B4D6B0107
:104310007C019B01AC010F94DD2581115FC088A059
:1043200099A0AAA0BBA020E030E0A901C501B4017A
:104330000F94B41E87FF05C027E137EB41E558EB2A
:1043400004C027E137EB41E558E3C501B4010F9400
:104350003123AB01BC018BEC92E00E9424E6898002
:104360009A80AB80BC8020E030E0A901C501B40197
:104370000F94B41E87FF05C027E137EB41E558EBEA
:1043800004C027E137EB41E558E3C501B4010F94C0
:104390003123AB01BC0186EC92E00E9424E620E0D0
:1043A00030E0A901C701B6010F94B41E87FF05C014
:1043B00027E137EB41E558EB04C027E137EB41E556
:1043C00058E3C701B6010F943123AB01BC0181EC66
:1043D00092E00E9424E68AE00E94E7A20E94EF6E2B
:1043E0000E94069D0C94802F80913502882311F441
:1043F0000C94802F89E40E94E5A1E82E882321F007
:104400000E9439A1F62E01C0F12C8AE40E94E5A198
:10441000182F882321F00E9439A1062F01C000E047
:10442000EE2019F0B2E0BF1520F0112381F0033027
:1044300070F0E3EDF2E084918F010F5F1F4F88234E
:1044400011F40C94802F0E94E7A2F801F4CF0E948F
:10445000D3A2EE20F1F020916806309169064F2D2D
:104460004203B001439F700D112480911515909166
:104470001615680F791F072E000C880B990B0F94E7
:10448000BA1E6093AC0C7093AD0C8093AE0C9093FD
:10449000AF0C1123E9F020916A0630916B060203FC
:1044A000B001039F700D112480911715909118157C
:1044B000680F791F072E000C880B990B0F94BA1EFA
:1044C0006093B00C7093B10C8093B20C9093B30CCA
:1044D00080E50E94E5A18823E9F00E945AA1882383
:1044E000E9F01123D9F020E030E040E751E4609199
:1044F000B00C7091B10C8091B20C9091B30C0F94F0
:1045000031236093B00C7093B10C8093B20C9093F4
:10451000B30C04C080E50E949CA1E1CF86E40E9418
:10452000E5A18823D9F00E9469A16B017C0120E0FC
:1045300030E0A9010F945725181684F420E030E0EC
:1045400040E752E4C701B6010F940D2460931002B6
:104550007093110280931202909313020E94BBF792
:104560000C94802F109358030C94802FEBE52E2E83
:10457000E2E03E2EF0EAEF2EFCE0FF2E89ED93E024
:1045800099AF88AFA9ECCA2EA3E0DA2E00E010E0C4
:10459000D1018D911D010E94E5A1882309F44BC032
:1045A0000E9469A12B013C01133049F0F6012081E2
:1045B0003181428153810F9430232B013C01A8ADFE
:1045C000B9AD2D913D914D915C91C301B2010F9414
:1045D00030234B015C012DEB37E346E855EB0F949C
:1045E000572587FD0AC02DEB37E346E855E3C501A3
:1045F000B4010F94B41E1816F4F4133051F4409221
:10460000E5035092E6036092E7037092E80301E04D
:1046100012C0A5019401F7016081718182819381AB
:104620000F943123D7016D937D938D939C931397B2
:10463000812F0E9465751F5FB4E0EB0EF11CE8ADA1
:10464000F9AD3496F9AFE8AFF4E0CF0ED11C1430D9
:1046500009F09ECF002321F085EE93E00E940EDB4F
:104660000E94069D0C94802F0E9409500C94802F6C
:1046700080913B1590913C158737910509F451C7FE
:104680000CF0F1C08D34910509F460C40CF06DC0DC
:104690008A31910509F4F9C2ACF58431910509F428
:1046A0000BC27CF48131910509F481C22CF402978C
:1046B00008F405C20C942F2F429709F4AAC50C9454
:1046C0002F2F8731910509F4BFC274F4853191050C
:1046D00009F4B6C2469711F00C942F2F1092660978
:1046E000109267090C94802F8831910509F4C2C299
:1046F000499711F00C942F2F109266090E9465C102
:104700000C94802F8F31910509F4BBC39CF48C313C
:10471000910509F460C30CF4C6C28D31910511F402
:104720000C94802F4E9711F00C942F2F0E94A4B957
:104730000C94802F8033910509F402C44CF480322C
:10474000910509F452C38A9709F4C5C30C942F2F1D
:104750008B34910509F4F7C38C34910511F00C9456
:104760002F2F0E9465C10C94802F8B36910509F480
:1047700029C50CF043C08435910509F44AC5E4F419
:104780008135910509F42EC54CF48E34910511F054
:104790000C942F2F0F94840C0C94802F823591054C
:1047A00009F434C58335910511F00C942F2F81E065
:1047B000809357030C94802F8836910509F4C9C360
:1047C0009CF48535910509F427C58C35910511F0C8
:1047D0000C942F2F5BE5C52E52E0D52E6FEFE62E01
:1047E0006CE0F62E10E031C58936910509F46EC4EF
:1047F0008A36910509F4CAC40C942F2F803791058D
:1048000009F436C484F48D36910509F49FC40CF480
:104810002CC48E36910509F4C4C38F36910509F472
:10482000D1C30C942F2F8337910509F442C154F45E
:104830008137910509F420C48237910509F484C5B4
:104840000C942F2F8537910509F416C686379105EC
:1048500011F00C942F2F0091391510913A1583E027
:10486000D12C40E01EC6833621E0920709F41DC119
:104870000CF07AC08D3C910509F4DBC774F58B39D7
:10488000910509F43EC484F48937910509F452C6B0
:104890000CF44AC68C38910509F45BC48139910542
:1048A00009F44DC60C942F2F893C910509F40FC7CC
:1048B00054F48E3B910509F466C4883C910509F4D3
:1048C000B6C60C942F2F8B3C910509F422C78C3C63
:1048D000910509F439C70C942F2F823E910511F4EC
:1048E0000C94B52CF4F4833D910509F4BFC77CF416
:1048F0008E3C910511F00C942F2FBBE5CB2EB2E02E
:10490000DB2E18E5E12E14E0F12E10E09DC78C3D62
:10491000910509F4AEC78D3D910509F4B7C70C9414
:104920002F2F8D3241E0940711F40C94122D6CF46A
:104930008232A1E09A0711F40C94DE2C8C32914063
:1049400011F40C94E92C0C942F2F8E32E1E09E0789
:1049500011F40C94152D8F32914011F00C942F2FDF
:104960000E9496960C94802F873F21E0920711F4C5
:104970000C94972D0CF04BC0843A41E0940711F44D
:104980000C948B2DFCF48139A1E09A0711F40C945E
:104990007F2D4CF48039914011F00C942F2F0E9400
:1049A000F5480C94802F8239F1E09F0711F40C94A4
:1049B000852D8A39914011F00C942F2F0E94599621
:1049C0000C94802F843F31E0930711F40C94912DC7
:1049D0007CF4853A51E0950711F40C948E2D8C3AB5
:1049E000914011F00C942F2F0E942EAC0C94802F2C
:1049F000853FB1E09B0711F40C94942D863F9140C4
:104A000011F00C942F2F0E9487CD0C94802F8B389F
:104A1000F3E09F0711F40C94802F2CF58B3532E0D6
:104A2000930711F40C94C62D7CF4883F51E0950750
:104A300011F40C94A22D8835924011F00C942F2F74
:104A40000E94E8A70C94802F8335B3E09B0711F4F4
:104A50000C944F2E8A38934011F00C942F2F0E9403
:104A600075A70C94802F8239F3E09F0711F40C9402
:104A7000C92E7CF48F3833E0930711F40C94B42ED4
:104A80008039934011F00C942F2F0E94E8A60C94CB
:104A9000802F803A53E0950709F4E6C1873E9340A2
:104AA00011F40C941A2F0C942F2FEFE1FDE20C94CB
:104AB0006C2DE1E9F4E085C4EDE1F3E083C0A09062
:104AC0003915B0903A1580E50E94E5A1882359F088
:104AD0000E9429A16B017C0111E0672B682B692BD7
:104AE00031F410E004C010E0C12CD12C760183E534
:104AF0000E94E5A1882311F40C9475300E9469A1ED
:104B000020E030E04AE754E40F94191F0F947A2410
:104B10006B017C0111110BC0672B682B692B39F4D9
:104B2000A114B10421F0F5018081811102C010E0CF
:104B300001C011E00E94F548112329F061E0C50190
:104B40000E94105605C060E082EF92E00E94D655A8
:104B500083E08093920C81E08093F903C114D10427
:104B6000E104F104B1F00E94E860C60ED71EE81E11
:104B7000F91E0E94E860DC01CB018C199D09AE0989
:104B8000BF09B7FF0EC08091F90381110C947A30F0
:104B900008C08091F903882321F080E00E94CED2E2
:104BA000F8CF0F9456001092F9030C94802F60E018
:104BB00085E093E00E94D65517981698159814989A
:104BC0000C94802F84918F010F5F1F4F882321F059
:104BD0000E94E7A2F801F6CF1092E30B86E999E074
:104BE0000E947E918BE1E6E9F9E0DE0115960190E5
:104BF0000D928A95E1F780919409909195099C8393
:104C00008B8381E992E09A83898340E050E0BE0182
:104C10006F5F7F4F80E090E00E9462B0CE0101960E
:104C20000E944DD2EEE0F3E084918F010F5F1F4FA1
:104C3000882311F40C94802F0E94E7A2F801F4CF8E
:104C40000E9498D90C94802FE0913915F0913A1573
:104C50008081882329F0803209F410823196F8CFC0
:104C600040E061E08091391590913A150E94B5D7E6
:104C70000C94802F80916709882319F081E080933C
:104C800066090E9475E60C94802F8091670988233D
:104C900011F40C94802F83E50E94E5A181110C94FE
:104CA0007F300C94802F83E40E949CA1882309F418
:104CB00050C0EBE5F3E084918F010F5F1F4F882315
:104CC00021F00E94E7A2F801F6CF8091310B81110B
:104CD00003C0EEE2F3E012C0BE016F5F7F4F8EE2D1
:104CE0009BE00E944B918E010F5F1F4FD8018D9169
:104CF0008D01882349F10E94E7A2F8CF84918F01AA
:104D00000F5F1F4F882301F10E94E7A2F801F6CF41
:104D100077E7C72E73E0D72EE12CF12C20E08091AD
:104D2000B60390E00E2C02C0959587950A94E2F7A1
:104D300080FD78C1BFEFEB1AFB0AE2E0CE0ED11C7A
:104D4000F5E0EF16F10459F78AE00E94E7A20C940F
:104D5000802F80916709882339F080916609882324
:104D600019F0E8E3F3E003C0EAE4F3E028C084913B
:104D70008F010F5F1F4F882321F00E94E7A2F801E7
:104D8000F6CF6091DF0B7091E00B8091E10B909179
:104D9000E20B4AE00E948CA58FE20E94E7A260919C
:104DA000DB0B7091DC0B8091DD0B9091DE0B4AE008
:104DB0000E948CA58AE00E94E7A20C94802F849127
:104DC0008F010F5F1F4F882311F40C94802F0E94D6
:104DD000E7A2F801F4CF40E060E0809139159091AE
:104DE0003A150E94B5D70C94802F809166098111E5
:104DF0000E94F54880916709882311F40C94802F54
:104E000080E50E94E5A1882319F00E945AA103C001
:104E100080E50E949CA1182F482F61E080913915F0
:104E200090913A150E94B5D783E50E94E5A18823A9
:104E300081F00E9439A1AB01BC014093DF0B50937C
:104E4000E00B6093E10B7093E20B8EE29BE00E941B
:104E5000E78E80916709882319F081E080936609C5
:104E600011110C94802F0DCF8091391590913A1526
:104E700021E02093650940E060E00E94B5D70C94E2
:104E8000802F0E9416C168A379A38AA39BA3BE01A9
:104E90006F5F7F4FCE0180960E94F1A160E0CE014E
:104EA00001960E941056E7E5F0E284918F010F5FB2
:104EB0001F4F882321F00E94E7A2F801F6CFBE0120
:104EC0006F5F7F4F8AE693E00E945AE68AE00E9475
:104ED000E7A20C94802F83E50E94E5A1882311F4BA
:104EE0000C94802F0E9449A1E82E80E50E94E5A144
:104EF000882339F00E9449A1182F87FF03C00C9422
:104F0000802F1DE089E40E94E5A1882351F00E94D2
:104F10005AA181110C943631E8E9F5E085EC95E071
:104F20000AC089E40E949CA1F4CF31968E179F0796
:104F300011F40C94363124911213F7CF0C94903065
:104F40000E9425B3DDC70E9475E6DAC70E94BCE661
:104F5000D7C788E690E00E94F7A58111D1C780915C
:104F6000B60383FF01C0CCC783E50E94E5A1882377
:104F7000A9F00E9469A10F947524CB010E94775576
:104F80000E9469A120E030E04AEA52E40F94B41E86
:104F9000181624F00E94BCE60F9456000E943EE8CA
:104FA000AFC78EE40E94E5A1882309F4A9C70E9437
:104FB00039A160931C0F70931D0F80931E0F909367
:104FC0001F0F9EC783E50E949CA1882359F083E5AB
:104FD0000E94E5A1882319F00E9449A101C080E048
:104FE0008093B603E7E5F0E284918F010F5F1F4FD6
:104FF000811103C0E5E8F3E004C00E94E7A2F801D4
:10500000F3CF84918F010F5F1F4F882321F00E94FF
:10501000E7A2F801F6CF8091B603811179CEE1E8DD
:10502000F3E018C0BB24B394B20E222319F08CE233
:105030000E94E7A2F60185919491FC0184918F0171
:105040000F5F1F4F882321F00E94E7A2F801F6CFDF
:105050002B2D70CE84918F010F5F1F4F882309F491
:1050600073CE0E94E7A2F801F5CF1092090248C75B
:105070008CE893E00E947FD283E50E94E5A1811134
:1050800003C0E7E5F0E20BC00E9449A18D3318F49C
:105090008093390235C78CE38093390231C78491FC
:1050A0008F010F5F1F4F882321F00E94E7A2F801B4
:1050B000F6CF4091390250E060E070E085E993E07E
:1050C0000E9407E68AE00E94E7A21AC789E690E0FC
:1050D0000E94F7A5811111C0ECE9F3E084918F01E2
:1050E0000F5F1F4F882321F00E94E7A2F801F6CF3F
:1050F0000E94FC5F8AE00E94E7A21092920C0C943E
:105100004B3183E50E94E5A1882309F4F9C60E948A
:1051100049A1182F8D3308F01CE310939F0C0E94B7
:10512000E8606B017C01212F30E0A8EEB3E00F9422
:105130002123C60ED71EE81EF91EC0929B0CD092EA
:105140009C0CE0929D0CF0929E0CDAC60F94940A8F
:10515000D7C68091B60383FDD3C683E50E94E5A13F
:10516000882309F4CDC60E9469A10F947524623882
:10517000710514F062E870E070932F1660932E169C
:105180000E94B1BABDC60F94BA08BAC680E50E94A3
:10519000E5A1811106C083E50E94E5A1882359F0AD
:1051A00005C00E9449A18111ABC6F5CF0E9439A16B
:1051B0006F3F710510F06FEF70E0709331166093E0
:1051C00030169EC680E50E94E5A1811105C01092AF
:1051D00031161092301694C60E9439A1672B09F03F
:1051E0008FC6F5CF0E94FDBA0E9433491092311646
:1051F0001092301668EE73E080E090E00E94535504
:1052000060E08FE993E00E94D6557AC6109257036A
:1052100077C60E94819F74C683E50E949CA1882363
:1052200009F46EC60E9469A120E030E04AE754E428
:105230000F94191F0F947A246093970C7093980C15
:105240008093990C90939A0C5BC6D6018D916D0159
:105250000E949CA1882309F46DC0133009F063C03B
:105260000E9469A14B015C0120E030E040EA51E47A
:105270000F94B41E87FF4EC0A501940160910B0DE1
:1052800070910C0D80910D0D90910E0D0F940D24C9
:105290002B013C019B01AC01609164067091650695
:1052A00080916606909167060F94191F60936406BB
:1052B000709365068093660690936706A30192013A
:1052C000609138067091390680913A0690913B06BC
:1052D0000F94191F609338067093390680933A062D
:1052E00090933B066091300F7091310F8091320F97
:1052F0009091330F0F94B81EA30192010F94191FC0
:105300000F947A246093300F7093310F8093320F93
:105310009093330F80920B0D90920C0DA0920D0D77
:10532000B0920E0D07C00E9469A1F70160837183DE
:10533000828393831F5FF4E0EF0EF11C143009F0B9
:1053400084CF0E94A3E9DCC50E94F54883E50E9452
:10535000E5A1882309F484C90E9439A1623071054E
:1053600009F07EC90E9495FB8BE50E94E7A260913F
:10537000BB037091BC038091BD039091BE0342E0DA
:105380000E944DA64091BF035091C0036091C1039C
:105390007091C2038FEA93E00E9424E64091C30318
:1053A0005091C4036091C5037091C6038CEA93E0E9
:1053B0000E9424E68DE50E94E7A28AE00E94E7A20F
:1053C0009FC584918F010F5F1F4F882321F00E949A
:1053D000E7A2F801F6CF60E081E894E00E94D39C58
:1053E00061E08AE794E00E94D39C61E08FE694E05C
:1053F0000E94D39C61E08FE594E00E94D39C60E022
:1054000086E594E00E94D39C61E08CE494E00E94E5
:10541000D39C61E082E494E00E94D39C61E08AE343
:1054200094E00E94D39C61E08CE294E00E94D39CC3
:1054300060E08EE194E00E94D39C60E08FE094E015
:105440000E94D39C60E081E094E00E94D39C60E0E5
:105450008BEE93E00E94D39C60E08AED93E00E9483
:10546000D39C60E085EC93E00E94D39C61E082EBEA
:1054700093E00E94D39C44C58091391590913A15D0
:10548000DC012C91222321F060E00E94105638C5E7
:105490000F94560035C5F8019081292F2B7F2134B8
:1054A00019F08150C1F716C021812133D1F7913411
:1054B00021F0953421F441E002C0DD24D394980119
:1054C0002E5F3F4F89012F5F3F4FD8019C91903253
:1054D000C9F3E7CF442369F0E7E5F0E284917F0167
:1054E000BFEFEB1AFB0A882321F00E94E7A2F70125
:1054F000F5CFDD2069F0E4E5F5E084917F012FEF41
:10550000E21AF20A882321F00E94E7A2F701F5CF00
:10551000D8018D918D01882309F416CC0E94E7A251
:10552000F7CF0E945AF1ECC481E080935604809337
:105530005504E6C41092560410925504E1C483E564
:105540000E94E5A1882319F00E9439A102C060E001
:1055500070E08B01112702301105D4F0EFE1FDE27C
:1055600084918F010F5F1F4F811103C0E8E5F5E0C3
:1055700004C00E94E7A2F801F3CF84918F010F5F6E
:105580001F4F882309F4BCC40E94E7A2F801F5CF9D
:1055900088E40E94E5A18823A9F00E9439A16A3A13
:1055A00071053CF06F30B1E07B072CF06EE071E0EC
:1055B00002C06AEA70E0F801EE0FFF1FEC5EF94FDF
:1055C0007183608386E40E94E5A18823A9F00E948C
:1055D00039A1F801EE0FFF1FE85EF94F7183608378
:1055E0006F3F710519F014F06FEF70E077FF02C0A4
:1055F00060E070E07183608382E40E94E5A188230B
:1056000009F47EC40E9439A16530710534F0643715
:1056100071052CF063E770E002C065E070E0000FF8
:10562000111FF801E05FF94F7183608369C488EC52
:1056300090E00E94F7A5811163C484E40E949CA1BC
:10564000882309F441C00E9469A16B017C0111E02B
:1056500020E030E0A9010F94B41E811101C010E0D8
:105660001093650C20E030E0A901C701B6010F944A
:10567000B41E882349F10E9469A1E0910F0424E03F
:10568000E29FF0011124EF59F34F6083718382830D
:10569000938320E030E0A9016091610C7091620C6D
:1056A0008091630C9091640C0F94B41E81110CC016
:1056B00080E090E0A0EEBFE38093610C9093620CD9
:1056C000A093630CB093640C0E9414EA19C48BE598
:1056D000E82E82E0F82E0CE316E09CE4C92E96E05A
:1056E000D92ED7018D917D010E949CA1882349F07C
:1056F0000E9469A10F947A24F801608371838283E8
:1057000093830C5F1F4FC016D10659F70E946EE8B5
:10571000F7C30BE5E02E02E0F02E0CE216E0D70115
:105720008D917D010E949CA1882339F00E9469A17E
:10573000F80160837183828393830C5F1F4FF6E0CF
:105740000C331F0761F7DCC383E50E94E5A18823C2
:10575000A1F00E9469A1609354067093550680934E
:1057600056069093570660934C0670934D068093AF
:105770004E0690934F0610E001C011E080E50E94B4
:10578000E5A1882359F00E9469A1609354067093A3
:105790005506809356069093570610E082E50E94C6
:1057A000E5A1882359F00E9469A160935006709387
:1057B0005106809352069093530610E084E50E94B0
:1057C000E5A1882359F00E9469A160934C0670936B
:1057D0004D0680934E0690934F0692C3112309F411
:1057E0008FC34091540650915506609156067091B2
:1057F000570680E895E00E9424E6409150065091BB
:10580000510660915206709153068DE795E00E9413
:1058100024E640914C0650914D0660914E067091E1
:105820004F068AE795E00E9424E68AE00E94E7A2FC
:1058300067C30E94619C64C31F5FF4E0EF0EF11C1C
:10584000133011F40C943023D6018D916D010E9418
:105850009CA1882389F30E9469A1F7016083718369
:1058600082839383812F0E946575E6CF0E948B9B74
:1058700047C383E50E94E5A1882309F441C30E9440
:1058800039A170935402609353023AC38DED90E0B6
:105890000E94F7A5811134C383E50E94E5A181111F
:1058A00003C0E7E5F0E23BC000910F0410E00E9466
:1058B00039A1000F111FF801EF5AFD4F718360836A
:1058C00080910F0490E08C01000F111F000F111F39
:1058D0009801235B3D4F7901880F991FFC01EF5A16
:1058E000FD4F60817181072E000C880B990B0F947E
:1058F000BA1E2AE037ED43E25CE30F94191FF8016A
:10590000E15FF94E20813181428153810F94191F4B
:10591000D7016D937D938D939C931397F1C28491DE
:105920008F010F5F1F4F882321F00E94E7A2F8012B
:10593000F6CF85E40E94E7A280910F04805D0E946B
:10594000E7A2E0910F04F0E0EE0FFF1FEF5AFD4FCA
:105950006081718180E995E00E9441E685E20E94C4
:10596000E7A28AE00E94E7A2CBC280E50E949CA148
:10597000882309F4C5C20E9439A16B017C0183E52B
:105980000E94E5A1882321F00E9439A18B0102C069
:105990000FEF1FEFC8010196039708F0B1C2D7FCC3
:1059A000AFC28C2DE8E9F5E09491891709F4B8C3EA
:1059B0003196B5E0E53CFB07B9F7B5C38AE50E942F
:1059C000E5A18111D9C383E50E94E5A18111D4C36A
:1059D00097C283E50E94E5A1882319F00E9439A1AE
:1059E00002C064E071E079A368A380E50E94E5A1AC
:1059F000882339F00E9439A16938E3E17E0730F449
:105A000002C068EE73E07A83698304C088E893E19A
:105A10009A838983BE01605E7F4FCE0101960E940A
:105A2000DADA6EC20E94F49A6BC283E50E949CA1EE
:105A3000182F882371F00E9469A10F947524709328
:105A40000B0260930A0221E0672B09F020E020930B
:105A5000B30380E50E949CA1882359F020910A029B
:105A600030910B02232B11F00E945AA18093B303B3
:105A700047C2111145C2E7E5F0E284918F010F5F43
:105A80001F4F882321F00E94E7A2F801F6CF8091F2
:105A9000B303882319F065E273E002C068E273E0A3
:105AA0008BEE95E00E945AE660910A0270910B021B
:105AB0008AED95E00E9441E6E6EDF5E084918F01E4
:105AC0000F5F1F4F882309F41BC20E94E7A2F80151
:105AD000F5CF0E94E7A2F80184918F010F5F1F4F5D
