:100000000C94681A0C94991A0C94991A0C94991AD5
:100010000C94991A0C94991A0C94991A0C94991A94
:100020000C94991A0C94991A0C94991A0C94991A84
:100030000C94991A0C94991A0C94991A0C94991A74
:100040000C94991A0C942CF70C94991A0C94991AF4
:100050000C94991A0C94991A0C9465E70C944375B6
:100060000C94991A0C945E3D0C94991A0C94991A5C
:100070000C94991A0C94991A0C94991A0C94991A34
:100080000C94991A0C94991A0C94991A0C94991A24
:100090000C94991A0C94991A0C94991A0C94991A14
:1000A0000C94991A0C94991A0C94991A0C94991A04
:1000B0000C94991A0C94991A0C94991A0C94991AF4
:1000C0000C94991A0C94991A0C94991A0C94991AE4
:1000D0000C94991A0C94991A0C94991A0C94991AD4
:1000E0000C94991A385F185F3B5F1B5F1E5F2A5F95
:1000F000215F365F245F275F0C01E200F400F60009
:10010000C600F8000001D000D400EC00E800CA00EE
:10011000DA000401F800E000E400060102010A012F
:10012000D200FC00C800CC00FE00EE00E600F000AB
:10013000CE00FA00DC00D800CC000801F200DE009E
:10014000084AD73B3BCE016E84BCBFFDC12F3D6C3E
:1001500074319ABD56833DDA3D00C77F11BED9E4A4
:10016000BB4C3E916BAAAABE000000803F05A84C84
:10017000CDB2D44EB93836A9020C50B99186880850
:100180003CA6AAAA2ABE000000803F000D940204EB
:100190000D9430070D9425040D94A9070D945E0766
:1001A0000D9411040D941C070D9417040D94AC20AC
:1001B0000D9481070D9429040D9477070D949F07E2
:1001C0000D9433040D9409040D9437040D944A07DB
:1001D0000D941F040D947E1F0D941B040D94420773
:1001E0000D9454070D9495070D94F8030D94FC039A
:1001F0000D9440040D9468070D9426070D943A075A
:100200000D940D040D9412070D942D040D943B04D0
:100210000D948B070D9417070D9406044E414E491B
:100220004E495459494E46CDCCCC3D0AD7233C17B4
:10023000B7D13877CC2B329595E6241FB14F0A0001
:100240000020410000C84200401C4620BCBE4CCAF1
:100250001B0E5AAEC59D74434F4D4D554E494341FB
:1002600054494F4E0044525952554E004552524F38
:10027000525300494E464F004543484F0047322FE6
:1002800047332062616420706172616D65746572CC
:10029000730A00536C6565702E2E2E00486F6D65D5
:1002A0002058592066697273740A00486F6D652082
:1002B000585920666972737400205A3A20002059F8
:1002C0003A200042656420583A20004D657368204A
:1002D000706F696E742063616E6E6F74206265204A
:1002E0007265736F6C7665640A00436C69636B209A
:1002F000746F20726573756D652E2E2E004E6F2003
:100300006D6F76652E00456E642066696C65206CA5
:100310006973740A00426567696E2066696C6520BE
:100320006C6973740A004D31323500286E6F206697
:10033000696C6529005344207072696E74696E6738
:10034000206279746520004E6F74205344207072CF
:10035000696E74696E670A0043757272656E742007
:1003600066696C653A20005072696E742074696D1C
:10037000653A2000780273026C02650257026F66CC
:10038000660044454255473A004B494C4C45442E83
:1003900020004D3131332053006F6B004E4C204212
:1003A000473132204F66662E002C20002C2000544E
:1003B0004845524D414C5F50524F54454354494F6C
:1003C0004E004155544F5245504F52545F53445F75
:1003D00053544154555300454D455247454E43599A
:1003E0005F50415253455200434153455F4C49478A
:1003F00048545F4252494748544E45535300544F66
:1004000047474C455F4C494748545300534F465467
:10041000574152455F504F574552004255494C4451
:100420005F50455243454E54004C4556454C494E4D
:10043000475F44415441005A5F50524F424500418A
:1004400055544F4C4556454C005052494E545F4A06
:100450004F420050524F4752455353004155544F5D
:100460005245504F52545F54454D5000564F4C55D5
:100470004D455452494300454550524F4D00534558
:100480005249414C5F584F4E5F584F4646004649CF
:10049000524D574152455F4E414D453A4D61726C48
:1004A000696E20312E312E392028476974687562B3
:1004B0002920534F555243455F434F44455F5552A2
:1004C0004C3A68747470733A2F2F67697468756258
:1004D0002E636F6D2F4D61726C696E4669726D7718
:1004E0006172652F4D61726C696E2050524F544F8E
:1004F000434F4C5F56455253494F4E3A312E3020B0
:100500004D414348494E455F545950453A4E4C2061
:10051000424731322045585452554445525F434F6B
:10052000554E543A3120555549443A636564653215
:100530006132662D343161322D343734382D3962D1
:1005400031322D6335356336326633363766660AA7
:10055000002F2F20004D31343520533C696E6465E7
:10056000783E206F7574206F662072616E6765201B
:1005700028302D31290A00205400205200416363A5
:10058000656C65726174696F6E3A20500020466C2C
:100590006F773A2000000125311D40FFFFFF29241D
:1005A000301C45FFFFFF27232F1B0AFFFFFFFF43E0
:1005B000FFFF040806FFFF222B1AFFFF4204380347
:1005C000063650726F6265205A204F6666736574F6
:1005D0003A200043290A0061626C656420286D6935
:1005E0006E2074656D702000436F6C6420657874B4
:1005F00072756465732061726520004E6F206361BF
:100600007365206C696768740A00454550524F4D08
:10061000204F4B0A003F5A206F7574206F6620727E
:10062000616E676520282D323020746F20323029AA
:100630000A003A200050726F6265205A204F6666A9
:1006400073657400416374697665204578747275CA
:100650006465723A2000496E76616C696420657841
:100660007472756465720A002569730025696D20CE
:10067000256973002569682025696D202569730047
:10068000256964202569682025696D202569730026
:1006900025697920256964202569682025696D20F0
:1006A000256973004B494C4C45442E200053544F50
:1006B000505045442E20005072696E74657220734C
:1006C000746F707065642064756520746F20657246
:1006D000726F72732E204669782074686520657287
:1006E000726F7220616E6420757365204D393939DF
:1006F00020746F20726573746172742E20285465A3
:100700006D706572617475726520697320726573AE
:1007100065742E2053657420697420616674657257
:100720002072657374617274696E67290A004E6F76
:1007300020436865636B73756D2077697468206CFE
:10074000696E65206E756D6265722C204C617374E4
:10075000204C696E653A20004E6F20436865636BDC
:1007600073756D2077697468206C696E65206E758D
:100770006D6265722C204C617374204C696E653A11
:100780002000636865636B73756D206D69736D61BF
:100790007463682C204C617374204C696E653A2038
:1007A000004C696E65204E756D626572206973201C
:1007B0006E6F74204C617374204C696E65204E75A9
:1007C0006D6265722B312C204C617374204C696E04
:1007D000653A20004D313130004D33310053442013
:1007E00072656164206572726F720A00446F6E6593
:1007F000207072696E74696E672066696C650A00A4
:1008000020496E76616C69642065787472756465E0
:1008100072200000000000000070C1000000000015
:10082000009643000096430000BE4342696C696E27
:10083000656172204C6576656C696E6720477269E8
:10084000643A0A0024F4D43050C38E20C2A2401768
:10085000828B7011127A910D816CD90AA861E1081E
:10086000C7586607615143061E4B5D05C145A70485
:100870001A411104093D9803713931034036DB02F6
:1008800065339102D4305402802E1D02632CEE0198
:10089000752AC501B028A001102781018F256401A8
:1008A0002B244B01E0223401AC211F018D200D01CE
:1008B000801FFC00841EED00971DDF00B81CD200D5
:1008C000E61BC600201BBC00641AB200B219A800C7
:1008D0000A19A0006A189900D117910040178B00DF
:1008E000B516840031167E00B31579003A157300F1
:1008F000C7146F0058146A00EE1366008813630073
:1009000025135E00C7125B006C12570015125400CD
:10091000C111510070114F0021114B00D610490038
:100920008D1047004610440002104200C00F4000E6
:10093000800F3E00420F3C00060F3B00CB0E3800FC
:10094000930E37005C0E3500270E3400F30D320095
:10095000C10D3100900D3000600D2E00320D2D00C4
:10096000050D2C00D90C2B00AE0C2900850C29009C
:100970005C0C2700350C27000E0C2600E80B240029
:10098000C40B2400A00B23007D0B23005A0B210075
:10099000390B2100180B2000F80A1F00D90A1E008D
:1009A000BB0A1E009D0A1D00800A1D00630A1C0070
:1009B000470A1B002C0A1B00110A1A00F7091A002B
:1009C000DD091900C4091900AB09190092091700C3
:1009D0007B091800630917004C0916003609160038
:1009E000200916000A091500F5081500E008140092
:1009F000CC081400B8081400A408140090081300D0
:100A00007D0812006B0813005808120046081200F7
:100A10003408110023081100120811000108110008
:100A2000F0071000E0071000D0071000C00710000A
:100A3000B0070F00A107100091070E0083070F00F9
:100A400074070F0065070E0057070E0049070E00D8
:100A50003B070D002E070E0020070D0013070D00A9
:100A600006070D00F9060C00ED060D00E0060C006F
:100A7000D4060C00C8060C00BC060C00B0060C0026
:100A8000A4060B0099060C008D060B0082060B00D5
:100A900077060B006C060B0061060A0057060B0078
:100AA0004C060A0042060A0038060A002E060A0012
:100AB00024060A001A060A001006090007060A00A2
:100AC000FD050900F4050900EB050900E205090030
:100AD000D9050900D0050900C7050900BE050900B0
:100AE000B5050800AD050800A50509009C0508002E
:100AF000940508008C050800840508007C050800A2
:100B0000740508006C050700650508005D05070011
:100B1000560508004E050700470507004005080078
:100B200038050700310507002A05070023050700DF
:100B30001C050600160507000F050700080506003E
:100B400002050700FB040600F5040700EE0406009A
:100B5000E8040600E2040700DB040600D5040600F2
:100B6000CF040600C9040600C3040600BD04060045
:100B7000B7040600B1040500AC040600A604060094
:100B8000A00405009B0406009504050090040600DF
:100B90008A04050085040500800406007A04050027
:100BA00075040500700405006B040500660405006B
:100BB000610405005C0405005704050052040500AB
:100BC0004D04050048040500430405003E040400EC
:100BD0003A04050035040500300404002C04050027
:100BE00027040400230405001E0404001A04040062
:100BF00016040500110404000D0404000904050096
:100C00000404040000040400FC030400F8030400CE
:100C1000F4030400F0030400EC030400E803040000
:100C2000E4030400E0030400DC030400D803040030
:100C3000D4030400D0030400CC030400C803030061
:100C4000C503030024F404D9201BC40C5C0E9804D3
:100C5000C4095F0265077101F405F900FB04B300E4
:100C600048048700C1036900580355000303450089
:100C7000BE023A008402310053022A0029022500F4
:100C800004022000E4011C00C8011900AF01170094
:100C9000980114008401130071011000610110001B
:100CA00051010E0043010D0036010B002B010B001A
:100CB00020010B00150109000C01090003010800C7
:100CC000FB000800F3000800EB000700E40006004A
:100CD000DE000600D8000600D2000600CC000500A9
:100CE000C7000500C2000500BD000400B9000400F3
:100CF000B5000400B1000400AD000400A900040028
:100D0000A5000300A20003009F0004009B00030055
:100D10009800030095000200930003009000030078
:100D20008D0002008B000300880002008600020094
:100D300084000300810002007F0002007D000200A9
:100D40007B000200790002007700010076000200BB
:100D50007400020072000100710002006F000200C6
:100D60006D0001006C0002006A00010069000200D1
:100D700067000100660001006500010064000200D8
:100D80006200010061000100600001005F000200DC
:100D90005D0001005C0001005B0001005A000100E1
:100DA00059000100580001005700010056000100E1
:100DB00055000100540001005300000053000100E1
:100DC0005200010051000100500001004F000100DD
:100DD0004E0000004E0001004D0001004C000100DB
:100DE0004B0000004B0001004A00010049000100D7
:100DF00048000000480001004700010046000000D4
:100E000046000100450000004500010044000100CB
:100E100043000000430001004200000042000100C6
:100E20004100000041000100400001003F000000BF
:100E30003F0001003E0000003E0001003D000000B8
:100E40003D0001003C0000003C0000003C000100AF
:100E50003B0000003B0001003A0000003A000100A6
:100E6000390000003900010038000000380000009F
:100E70003800010037000000370001003600000094
:100E8000360000003600010035000000350000008B
:100E9000350001003400000034000000340001007F
:100EA0003300000033000000330001003200000076
:100EB000320000003200010031000000310000006B
:100EC000310001003000000030000000300001005F
:100ED0002F0000002F0000002F0000002F00010055
:100EE0002E0000002E0000002E0001002D0000004A
:100EF0002D0000002D0000002D0001002C0000003E
:100F00002C0000002C0000002C0001002B00000031
:100F10002B0000002B0000002B0001002A00000025
:100F20002A0000002A0000002A0001002900000019
:100F3000290000002900000029000000290001000C
:100F40002800000028000000280000002800000001
:100F500028000100270000002700000027000000F3
:100F600027000000270001002600000026000000E6
:100F700026000000260000002600010025000000D9
:100F800025000000250000002500000025000000CD
:100F900025000100240000002400000024000000BF
:100FA00024000000240001002300000023000000B2
:100FB00023000000230000002300000023000000A5
:100FC0002300010022000000220000002200000097
:100FD0002200000022000000220001002100000089
:100FE000210000002100000021000000210000007D
:100FF000210000002100010020000000200000006E
:101000002000000020000000200000002000000060
:1010100020000000200001001F0000001F00000051
:101020001F0000001F0000001F0000001F00000044
:101030001F0001001E0000001E0000001E00000036
:101040001E00000039300000332500008719000021
:10105000B00F0000DB080000BD04000074020000B7
:101060003F01000020746F6F206C6F6E6720657801
:1010700074727573696F6E2070726576656E7465D3
:10108000640A0020636F6C642065787472757369FC
:101090006F6E2070726576656E7465640A0020203C
:1010A0004E6F7A7A6C653A20006368616E676500FE
:1010B0006F66207468652066696C616D656E74008A
:1010C0005761697420666F722073746172740020B6
:1010D000204E6F7A7A6C653A200066696C616D65A6
:1010E0006E7420756E6C6F61640057616974206660
:1010F0006F720020204E6F7A7A6C653A2000506C37
:101100006561736520776169742E2E2E00486561D4
:1011100074696E67206E6F7A7A6C650020204E6F5E
:101120007A7A6C653A200068656174206E6F7A7A0D
:101130006C652E00507265737320627574746F6EE7
:1011400020746F0020204E6F7A7A6C653A2000740C
:101150006F20636F6E74696E75652E2E2E00616E42
:101160006420707265737320627574746F6E0049C9
:101170006E736572742066696C616D656E740020B3
:10118000204E6F7A7A6C653A200066696C616D65F5
:101190006E74206C6F6164005761697420666F72B1
:1011A0000020204E6F7A7A6C653A200066696C6187
:1011B0006D656E7420707572676500576169742083
:1011C000666F7200746F20726573756D650057618C
:1011D000697420666F72207072696E740043617268
:1011E000642072656D6F76656400446174612049A6
:1011F0006E6A6563746564004D3234004D3233208D
:10120000257300556E6B6E6F776E20636F6D6D6129
:101210006E643A202200496E736572742066696CB0
:10122000616D656E7420616E6420707265737320E9
:10123000627574746F6E20286F72204D31303829BA
:101240000A0050726F62696E67206661696C65643E
:101250000A0050726F62696E67206661696C65642E
:1012600000205A3A200020593A2000426564205854
:101270003A2000000020002300260029002C002F27
:1012800000320000010000030106010901000022F4
:1012900000250028002B002E003100340002010040
:1012A00000050108010B01050505050705080808EB
:1012B00008020202020A0A080804040404010101E7
:1012C00001010101010303030303030303040707EF
:1012D000070C0C0C0C0C0C0C0C020202020606068D
:1012E00006060606060B0B0B0B0B0B0B0B01021075
:1012F0002020080810204010204080020102010830
:1013000004020101020408102040808040201008DF
:101310000402018004020180402010080402010838
:101320000402010102040810204080010204081098
:1013300020408070012C0190012701B0012201C0E2
:10134000011D01F00118011002130130020E0160AD
:1013500002090190020401C002FF000003FA0040EC
:1013600003F5008003F000D003EB002004E60070DA
:1013700004E100E004DC004005D700C005D20040D5
:1013800006CD00D006C8008007C3003008BE00F0BC
:1013900008B900C009B400B00AAF00B00BAA00D071
:1013A0000CA500000EA000500F9B00C0109600502E
:1013B00012910000148C00C0158700B0178200B095
:1013C000197D00D01B7800001E730040206E009035
:1013D000226900F024640040275F0090295A00E051
:1013E0002B5500102E500020304B0010324600E0EC
:1013F00033410090353C001037370070383200A080
:10140000392D00B03A2800A03B2300603C1E00109C
:101410003D1900903D1400103E0F00703E0A00C0C0
:101420003E0500003F0000403FFBFF803FF6FFC04D
:101430003FF1FF453400453300453200453100455A
:1014400030005A32005932005832005A00590058C0
:1014500000202F002042403A0020403A0025753AF3
:101460002530327500253032753A25303275002529
:10147000756420253032753A25303275004F144D91
:10148000144B144814451442143F143C14391436B8
:10149000143314747275650066616C736500207492
:1014A000656D7065726174757265207072657761C3
:1014B000726E207472696767657265643A200020F5
:1014C0007072657761726E20666C616720636C650F
:1014D000617265640A0020686F6D696E67207365CC
:1014E0006E73697469766974793A20002063757245
:1014F00072656E74206465637265617365642074DF
:101500006F20006D41290A0020647269766572209F
:101510006F76657274656D70657261747572652041
:101520007761726E696E67212028003A200044724C
:1015300069766572206572726F720073686F72747B
:1015400020746F2067726F756E642028636F696CFA
:101550002042290A0073686F727420746F206772CA
:101560006F756E642028636F696C2041290A006FD3
:1015700076657274656D70657261747572650A0066
:1015800020647269766572206572726F722064657C
:101590007465637465643A0A000000000001020487
:1015A000040000001C1C0C040404020100000000E4
:1015B0000004081000000000002D2D2D2D2D2D0001
:1015C0007C4D61726C696E7C002D2D2D2D2D2D00B2
:1015D000687474703A2F2F6D61726C696E66772E25
:1015E0006F726700687474703A2F2F6D61726C6946
:1015F0006E66772E6F72670020312E312E390020F3
:1016000020506C616E6E65724275666665724279D5
:101610007465733A20002046726565204D656D6FD4
:1016200072793A2000436F6D70696C65643A204AA4
:10163000756C20313120323031390A00207C204154
:101640007574686F723A205061756C2043686173DD
:10165000652026204A6F686E204C696E6B0A003246
:101660003031382D30382D303100204C61737420EA
:10167000557064617465643A2000312E312E390A48
:10168000004D61726C696E0020536F6674776172F1
:10169000652052657365740A00205761746368643D
:1016A0006F672052657365740A002042726F776E0F
:1016B000206F75742052657365740A002045787434
:1016C00065726E616C2052657365740A00506F77A5
:1016D000657255700A0073746172740A00617574E2
:1016E0006F25692E67006572726F72207772697458
:1016F000696E6720746F2066696C650A00456E64C8
:1017000073746F7073202563202563202563202563
:101710006300205A3A0020593A0020583A00656E7A
:101720006473746F7073206869743A2000446F6E3C
:101730006520736176696E672066696C652E0A00A4
:101740004D3239002D2D2D00534400202020202023
:10175000200020202020004E4C20424731322052D1
:10176000656164792E005072696E74696E672E2E01
:101770002E005072696E7420706175736564004D3F
:10178000313235004D3234005072696E742061621E
:101790006F72746564005072696E742066726F6D4A
:1017A0002053440053746F70207072696E7400523D
:1017B0006573756D65207072696E74004E6F20538D
:1017C00044206361726400506175736520707269B2
:1017D0006E7400436F6E74726F6C0050726570614E
:1017E00072650054756E6500496E666F2073637292
:1017F00065656E0050726F6265205A204F66667391
:101800006574004368616E67652066696C616D652B
:101810006E740050726F6265205A204F6666736561
:101820007400466C6F7700466C6F7700466C6F777C
:101830000046616E2073706565640046616E2073BA
:10184000706565640046616E207370656564004272
:1018500065640042656400426564004E6F7A7A6C8C
:1018600065004E6F7A7A6C65004E6F7A7A6C65000F
:10187000466164652048656967687400466164650F
:101880002048656967687400466164652048656939
:101890006768740053706565640053706565640023
:1018A0005370656564004D61696E004578747275AA
:1018B000646572004D6F7665205A004D6F76652025
:1018C00059004D6F766520580050726570617265E1
:1018D00000496E697469616C697A652045455052AA
:1018E0004F4D00436F6E74726F6C00526573746F6E
:1018F0007265206661696C73616665004C6F616436
:101900002073657474696E677300496E69746961E8
:101910006C697A6520454550524F4D0053746F7283
:10192000652073657474696E67730046696C616DD8
:10193000656E74004D6F74696F6E0054656D7065EF
:10194000726174757265004D61696E0050726568F0
:10195000656174205045544720636F6E6600507275
:10196000656865617420504C4120636F6E6600505D
:1019700049442D44005049442D44005049442D49C8
:10198000005049442D49005049442D5000504944CD
:101990002D50002002204661637400200220466121
:1019A0006374002002204D6178002002204D617890
:1019B000002002204D6178002002204D696E002039
:1019C00002204D696E002002204D696E004F666650
:1019D000004F6E20004175746F74656D7000466134
:1019E0006E2073706565640046616E207370656576
:1019F000640046616E207370656564004265640032
:101A000042656400426564004E6F7A7A6C65004EF0
:101A10006F7A7A6C65004E6F7A7A6C6500436F6EF0
:101A200074726F6C0053746F72652073657474699F
:101A30006E6773004265640042656400426564003D
:101A40004E6F7A7A6C65004E6F7A7A6C65004E6FD5
:101A50007A7A6C650046616E207370656564004635
:101A6000616E2073706565640046616E20737065F9
:101A700065640054656D70657261747572650056B9
:101A800054726176206D696E005654726176206DD5
:101A9000696E005654726176206D696E00566D69EC
:101AA0006E00566D696E00566D696E00566D6178F8
:101AB000204500566D6178204500566D61782045BF
:101AC00000566D6178205A00566D6178205A005694
:101AD0006D6178205A00566D6178205900566D610D
:101AE00078205900566D6178205900566D61782034
:101AF0005800566D6178205800566D617820580066
:101B00004D6F74696F6E00416D6178204500416DC5
:101B10006178204500416D6178205A00416D6178FF
:101B2000205A00416D6178205900416D617820593B
:101B300000416D6178205800416D61782058004166
:101B40002D74726176656C00412D74726176656CDE
:101B500000412D7265747261637400412D72657469
:101B60007261637400416363656C00416363656C1B
:101B7000004D6F74696F6E0056652D6A65726B005B
:101B800056652D6A65726B0056652D6A65726B002D
:101B9000567A2D6A65726B00567A2D6A65726B00F3
:101BA00056792D6A65726B0056792D6A65726B00E5
:101BB00056792D6A65726B0056782D6A65726B00D6
:101BC00056782D6A65726B0056782D6A65726B00C7
:101BD0004D6F74696F6E004573746570732F6D6D12
:101BE000004573746570732F6D6D005A7374657062
:101BF000732F6D6D005A73746570732F6D6D00597E
:101C000073746570732F6D6D005973746570732FE5
:101C10006D6D005873746570732F6D6D005873741B
:101C20006570732F6D6D004D6F74696F6E00436149
:101C30006E6E6F74206F70656E207375626469726A
:101C400020006563686F3A00453120544845524D85
:101C5000414C2052554E4157415900424544205471
:101C60004845524D414C2052554E41574159005420
:101C70006865726D616C2052756E617761790000E4
:101C80001C1F11111F00000006191803130C00047B
:101C90000E1F041C000000000E1315110E00001C86
:101CA00010181705060500040A0A0A0A11110E0C7D
:101CB00012120C00000000001F1511151F0000502B
:101CC000726F7465637465642050696E0A005374A2
:101CD000616E6461726420446576696174696F6ED7
:101CE0003A20002052616E67653A2000204D6178ED
:101CF0003A2000204D696E3A20004D65616E3A2011
:101D00000046696E6973686564210A002072616E1D
:101D100067653A2000206D61783A2000206D696E79
:101D20003A2000207369676D613A2000206D65617B
:101D30006E3A20003A207A3A2000206F6620002078
:101D40005A00205900205800476F696E6720746F51
:101D50003A00436C6F636B776973650A00436F7574
:101D60006E7465722D0020446972656374696F6ECC
:101D70003A2000202020616E676C653A2000537481
:101D8000617274696E67207261646975733A2000CC
:101D9000506F736974696F6E696E6720746865202F
:101DA00070726F62652E2E2E0A003F4E756D626551
:101DB00072206F66206C65677320696E206D6F7688
:101DC000656D656E74206E6F7420706C61757369DB
:101DD000626C652028302D3135292E0A003F2028DD
:101DE000582C5929206F7574206F6620626F756EAC
:101DF00064732E0A003F53616D706C652073697ABD
:101E000065206E6F7420706C61757369626C6520FB
:101E100028342D3530292E0A004D3438205A2D50C3
:101E2000726F6265205265706561746162696C6988
:101E3000747920546573740A003F285629657262CC
:101E40006F7365206C6576656C20697320696D70B1
:101E50006C61757369626C652028302D34292E0AF7
:101E60000046696C616D656E7420757365643A2017
:101E70000053746174733A20002C204C6F6E6765B8
:101E80007374206A6F623A2000546F74616C20741E
:101E9000696D653A200053746174733A20002C20F8
:101EA0004661696C65643A20002C2046696E69734E
:101EB0006865643A20005072696E74733A2000536A
:101EC000746174733A200020573A004520436F6FC5
:101ED0006C696E672E2E2E00452048656174696E10
:101EE000672E2E2E007C3C3E5E2B3D3F2F5B5D3BE4
:101EF0002C2A225C0020573A0042656420636F6FF1
:101F00006C696E672E2E2E004265642068656174D0
:101F1000696E672E2E2E00205A3A0020593A002072
:101F2000436F756E7420583A0020453A00205A3AA3
:101F30000020593A00583A003A004361703A00577D
:101F400041524E494E4721204C6F77205A204A6516
:101F5000726B206D6179206C65616420746F2075EF
:101F60006E77616E746564207061757365732E0A97
:101F700000205A00205900580020204D61783A2056
:101F800000205A00205900580020204D696E3A2048
:101F9000004F6E20004F666600536F667420656EBA
:101FA0006473746F70733A200020643A0020693AB9
:101FB0000020703A00496E76616C6964206578741F
:101FC00072756465720A0023646566696E652044F3
:101FD000454641554C545F4B642000236465666957
:101FE0006E652044454641554C545F4B69200023A3
:101FF000646566696E652044454641554C545F4BA7
:10200000702000504944204175746F74756E6520CE
:1020100066696E6973686564212050757420746800
:1020200065206C617374204B702C204B6920616EAD
:1020300064204B6420636F6E7374616E74732066EA
:10204000726F6D2062656C6F7720696E746F2043CC
:102050006F6E66696775726174696F6E2E680A00CB
:10206000504944204175746F74756E6520666169CE
:102070006C6564212074696D656F75740A00453163
:1020800020544845524D414C2052554E41574159DC
:1020900000546865726D616C2052756E617761796C
:1020A0000045312048656174696E67206661696C1E
:1020B00065640048656174696E67206661696C6576
:1020C0006400504944204175746F74756E652066D4
:1020D00061696C6564212054656D70657261747509
:1020E000726520746F6F20686967680A00204B640E
:1020F0003A2000204B693A2000204B703A20000A19
:1021000020436C617373696320504944200A0020A6
:1021100054753A2000204B753A2000206D61783AC2
:102120002000206D696E3A200020643A2000206271
:102130006961733A2000504944204175746F747589
:102140006E65206661696C6564212042616420656A
:1021500078747275646572206E756D6265720A00BE
:10216000504944204175746F74756E6520737461B5
:1021700072740A005072656865617420504C412089
:10218000456E64005072656865617420504C412052
:10219000426564005072656865617420504C41006E
:1021A0005072657061726500507265686561742077
:1021B0005045544720456E640050726568656174EF
:1021C000205045544720426564005072656865613F
:1021D0007420504554470050726570617265004D1F
:1021E000343238005072656865617420504C41008B
:1021F000436F6F6C646F776E0050726568656174D1
:102200002050455447004368616E67652066696CDD
:10221000616D656E740044697361626C65207374EE
:10222000657070657273004D3834005365742068B2
:102230006F6D65206F6666736574730046616465D3
:10224000204865696768740046616465204865696F
:102250006768740046616465204865696768740052
:102260004F6666004F6E2000426564204C657665BF
:102270006C696E67004C6576656C2062656400472A
:1022800032380A473239004175746F20686F6D65C6
:1022900000473238004D6F76652061786973004DD4
:1022A00061696E004D6F76652058004D6F76652030
:1022B00059004D6F7665205A0045787472756465D3
:1022C00072004D6F766520302E316D6D004D6F764A
:1022D0006520316D6D004D6F76652031306D6D007C
:1022E0004D6F766520617869730045787472756406
:1022F0006572004D6F7665205A004D6F76652059E6
:10230000004D6F766520580053746570732F6D6DA6
:10231000004A65726B00416363656C657261746944
:102320006F6E0056656C6F636974790050726F62EE
:1023300065205A204F666673657400436F6E747231
:102340006F6C004C6F6164206D6D004C6F61642098
:102350006D6D004C6F6164206D6D00556E6C6F612A
:1023600064206D6D00556E6C6F6164206D6D00555D
:102370006E6C6F6164206D6D0046696C2E2044693F
:10238000612E0046696C2E204469612E004F6666FE
:10239000004F6E20004520696E206D6D3300436F45
:1023A0006E74726F6C0043616E6E6F7420656E7434
:1023B0006572207375626469723A2000052E2E00E2
:1023C0004D61696E004D37303220542564004D3622
:1023D000303020423020542564004D373032203BCD
:1023E0002564004D3730312054256400556E6C6FE4
:1023F00061642066696C616D656E7400556E6C6F0A
:1024000061642066696C616D656E74004D373032B1
:10241000004D373031004C6F61642066696C616D2E
:10242000656E74004D363030204230004368616E76
:1024300067652066696C616D656E740050726570C9
:10244000617265005052494E5420504155534544E5
:1024500000554E4C4F41442046494C414D454E5449
:10246000004C4F41442046494C414D454E5400508C
:1024700075726765206D6F726500436F6E74696E6B
:10248000756500524553554D45204F5054494F4EA8
:10249000533A004F66660A004661646520486569E4
:1024A0006768742000426564204C6576656C696ECF
:1024B0006720004661696C656420746F20656E61F9
:1024C000626C6520426564204C6576656C696E6758
:1024D0000A004D65736820706F696E742063616EC9
:1024E0006E6F74206265207265736F6C7665640A26
:1024F000004D34323120696E636F727265637420EF
:10250000706172616D657465722075736167650ACB
:10251000004F666673657473206170706C696564E2
:10252000004572723A20546F6F2066617221005428
:102530006F6F206661722066726F6D2072656665CE
:1025400072656E636520706F696E740A00496E7300
:102550006572742066696C616D656E7420616E646D
:1025600020707265737320627574746F6E0A005008
:102570007265737320627574746F6E20746F206857
:10258000656174206E6F7A7A6C650A00496E7365B6
:1025900072742066696C616D656E7420616E642072
:1025A000707265737320627574746F6E20286F7219
:1025B000204D313038290A00486F6D696E672066FA
:1025C00061696C656400202844525952554E2900B7
:1025D000473239204175746F20426564204C65761E
:1025E000656C696E67003F20284C2C522C462C42AB
:1025F00029206F7574206F6620626F756E64732E6C
:102600000A003F2856296572626F7365206C6576F3
:10261000656C20697320696D706C61757369626C9B
:10262000652028302D34292E0A00426164205A206A
:1026300076616C75650A004E6F2062696C696E6523
:10264000617220677269640A00486F74656E642065
:10265000746F6F20636F6C640A004D3630303A201F
:10266000546F6F20636F6C6400486F74656E6420F4
:10267000746F6F20636F6C640A0046696C65206438
:10268000656C657465643A0044656C6574696F6E69
:10269000206661696C65642C2046696C653A20008F
:1026A000627573793A2070617573656420666F7224
:1026B00020696E7075740A00627573793A207061D2
:1026C0007573656420666F7220757365720A0062A7
:1026D0007573793A2070726F63657373696E670AF8
:1026E000004B494C4C45442E20004B494C4C206338
:1026F0006175736564206279204B494C4C2062758A
:1027000074746F6E2F70696E0A004B494C4C4544CF
:102710002E20004B494C4C20636175736564206228
:102720007920746F6F206D75636820696E616374C2
:102730006976652074696D65202D206375727265F8
:102740006E7420636F6D6D616E643A20004D36309B
:102750003000506C6561736520726573657400505C
:1027600052494E5445522048414C54454400507201
:10277000696E7465722068616C7465642E206B6983
:102780006C6C28292063616C6C6564210A002064EC
:1027900072697665722063757272656E743A200094
:1027A000656E7175657565696E67202200000000B1
:1027B00000000040C1000000000000204200002096
:1027C0004200008040000000005761726E696E6731
:1027D0003A20486F6D696E672042756D70204469BC
:1027E0007669736F72203C20310A000202040000F7
:1027F00000400000004000000040000096430080C0
:102800009D430000BE43FFFFFF00002110422063F4
:10281000308440A550C660E770088129914AA16BB9
:10282000B18CC1ADD1CEE1EFF13112100273325251
:1028300022B5529442F772D662399318837BB35A09
:10284000A3BDD39CC3FFF3DEE36224433420040121
:1028500014E664C774A44485546AA54BB528850959
:1028600095EEE5CFF5ACC58DD553367226111630F1
:1028700006D776F6669556B4465BB77AA7199738A9
:1028800087DFF7FEE79DD7BCC7C448E5588668A731
:10289000784008611802282338CCC9EDD98EE9AFF9
:1028A000F9488969990AA92BB9F55AD44AB77A9691
:1028B0006A711A500A333A122AFDDBDCCBBFFB9E49
:1028C000EB799B588B3BBB1AABA66C877CE44CC561
:1028D0005C222C033C600C411CAEED8FFDECCDCD99
:1028E000DD2AAD0BBD688D499D977EB66ED55EF431
:1028F0004E133E322E511E700E9FFFBEEFDDDFFCE9
:10290000CF1BBF3AAF599F788F8891A981CAB1EB8D
:10291000A10CD12DC14EF16FE18010A100C230E3B6
:10292000200450254046706760B9839893FBA3DA72
:10293000B33DC31CD37FE35EF3B1029012F322D206
:10294000323542145277625672EAB5CBA5A8958902
:10295000856EF54FE52CD50DC5E234C324A0148156
:10296000046674476424540544DBA7FAB79987B812
:10297000975FE77EF71DC73CD7D326F2369106B0A6
:102980001657667676154634564CD96DC90EF92F12
:10299000E9C899E9898AB9ABA944586548067827F6
:1029A00068C018E1088238A3287DCB5CDB3FEB1EB2
:1029B000FBF98BD89BBBAB9ABB754A545A376A1646
:1029C0007AF10AD01AB32A923A2EFD0FED6CDD4D42
:1029D000CDAABD8BADE89DC98D267C076C645C4596
:1029E0004CA23C832CE01CC10C1FEF3EFF5DCF7C52
:1029F000DF9BAFBABFD98FF89F176E367E554E74E6
:102A00005E932EB23ED10EF01E48617264636F6415
:102A100065642044656661756C74205365747469DF
:102A20006E6773204C6F616465640A00DC0500000A
:102A3000580200000F000000102700000000FA43B9
:102A40000000C842000070410000C8410000A042E0
:102A50000000A0420000C84400800D4320204D39F2
:102A60003036003A0A0020286D6D290020204D39AB
:102A700031340020204D36303320002055004C00EA
:102A800046696C616D656E74206C6F61642F756E44
:102A90006C6F6164206C656E677468733A0A00201D
:102AA000590020580053656E736F726C6573732004
:102AB000686F6D696E67207468726573686F6C64A7
:102AC0003A0A00205430204500205A0020590020A6
:102AD000580053746570706572206472697665720F
:102AE0002063757272656E743A0A0020204D383585
:102AF00031205A005A2D50726F6265204F666673FE
:102B000065740020440020490020204D33303120DE
:102B100050005049442073657474696E67733A0AB3
:102B20000020460020420020480020204D3134354E
:102B30002053004D6174657269616C206865617431
:102B4000757020706172616D65746572733A0A0008
:102B5000205A00204A0020204732392057204900BF
:102B6000205A0020204D3432302053004175746FBC
:102B700020426564204C6576656C696E673A0A0090
:102B8000205A0020590020204D323036205800486D
:102B90006F6D65206F66667365743A0A00204500A4
:102BA000205A0020590020580020540020530020B3
:102BB000204D32303520510020453C6D61785F65F5
:102BC0005F6A65726B3E0020583C6D61785F785F8C
:102BD0006A65726B3E20593C6D61785F795F6A650A
:102BE000726B3E205A3C6D61785F7A5F6A65726BEA
:102BF0003E00416476616E6365643A20513C6D69C4
:102C00006E5F7365676D656E745F74696D655F7522
:102C1000733E20533C6D696E5F66656564726174D6
:102C2000653E20543C6D696E5F74726176656C5FC1
:102C300066656564726174653E0020540020520030
:102C400020204D323034205000416363656C657242
:102C50006174696F6E2028756E6974732F733229E1
:102C60003A20503C7072696E745F616363656C3EBC
:102C700020523C726574726163745F616363656C5A
:102C80003E20543C74726176656C5F616363656C71
:102C90003E0A00204500205A0020590020204D32D5
:102CA00030312058004D6178696D756D2041636346
:102CB000656C65726174696F6E2028756E697473D6
:102CC0002F7332293A0A00204500205A002059006B
:102CD00020204D3230332058004D6178696D756D7C
:102CE000206665656472617465732028756E697409
:102CF000732F73293A0A00204500205A00205900FA
:102D000020204D393220580053746570732070654F
:102D10007220756E69743A0A0020204D32303020DE
:102D200044300A0020204D323030204400204469D5
:102D30007361626C65640A0046696C616D656E74EE
:102D40002073657474696E67733A0020204D3134C6
:102D5000392043203B20556E69747320696E2043EF
:102D6000656C736975730A0020204732312020207A
:102D7000203B00486F6D6520257325732573206601
:102D800069727374002066697273740A005A00597C
:102D9000005800486F6D65200053442063617264E1
:102DA000206F6B0A006F70656E526F6F74206661E2
:102DB000696C65640A00766F6C756D652E696E6965
:102DC00074206661696C65640A00534420696E6909
:102DD00074206661696C0A0057726974696E6720B5
:102DE000746F2066696C653A20006F70656E2066AE
:102DF00061696C65642C2046696C653A20006F70CF
:102E0000656E206661696C65642C2046696C653A64
:102E1000200046696C652073656C65637465640A9F
:102E2000002053697A653A200046696C65206F700E
:102E3000656E65643A20002066696C653A2000641E
:102E40006F696E67006672657368004E6F77200069
:102E5000454E4420535542524F5554494E450A0061
:102E60002220706F73002220706172656E743A22A6
:102E700000535542524F5554494E452043414C4C06
:102E8000207461726765743A22004B494C4C45448A
:102E90002E2000747279696E6720746F2063616CF4
:102EA0006C207375622D67636F64652066696C655D
:102EB00073207769746820746F6F206D616E79205C
:102EC0006C6576656C732E204D4158206C65766577
:102ED0006C2069733A004572726F723A006F7065C8
:102EE0006E206661696C65642C2046696C653A20C9
:102EF0000006FFFFFFFFFF000101010101626564A1
:102F00000A002C2073797374656D2073746F707070
:102F1000656421204865617465725F49443A200008
:102F20004265642068656174696E67206661696CDA
:102F300065640048656174696E67206661696C65E7
:102F4000640045312048656174696E672066616977
:102F50006C65640048656174696E67206661696CC0
:102F60006564004531204572723A204D4158544500
:102F70004D50004572723A204D415854454D5020F5
:102F8000424544004D415854454D50207472696784
:102F90006765726564004531204572723A204D497B
:102FA0004E54454D50004572723A204D494E54459D
:102FB0004D5020424544004D494E54454D502074DB
:102FC0007269676765726564004D3834205820590E
:102FD000205A2045004572726F72207772697469B9
:102FE0006E6720746F20454550524F4D210A0045B1
:102FF0004550524F4D206461746173697A65206554
:1030000072726F722E0A00290A0020627974657349
:103010003B20637263200053657474696E6773208C
:1030200053746F726564202800FFFDFCFAF8F6F413
:10303000F2F0EEECEAE9E7E5E3E1E0DEDCDAD9D74D
:10304000D5D4D2D0CFCDCBCAC8C7C5C3C2C0BFBDEF
:10305000BCBAB9B7B6B4B3B2B0AFADACAAA9A8A662
:10306000A5A4A2A1A09E9D9C9A99989795949392AD
:10307000908F8E8D8B8A8988878684838281807FDA
:103080007E7D7B7A797877767574737271706F6EE6
:103090006D6C6B6A696867666564636261605F5ED8
:1030A0005D5C5B5A595858575655545352515050BD
:1030B0004F4E4D4C4B4A4A49484746464544434289
:1030C0004241403F3E3E3D3C3B3B3A393838373643
:1030D0003535343332323130302F2E2E2D2C2B2BF0
:1030E0002A29292827272625252423232221212090
:1030F000201F1E1E1D1C1C1B1B1A19191818171621
:1031000016151514131312121111100F0F0E0E0DA8
:103110000D0C0C0B0A0A0909080807070606050525
:103120000404030302020100005452494747455278
:103130004544006F70656E003A200066696C616DF1
:10314000656E74007A5F6D696E00795F6D696E00FF
:10315000785F6D696E005265706F7274696E67207A
:10316000656E6473746F70207374617475730A0094
:1031700000000001000000010000800055555500CE
:103180000000400033333300AAAA2A0049922400E9
:1031900000002000C7711C0099991900D145170043
:1031A000555515003BB113002449120011111100AF
:1031B000000010000F0F0F00E3380E0043790D00E0
:1031C000CCCC0C00C3300C00E8A20B0064210B0037
:1031D000AAAA0A00703D0A009DD80900427B090096
:1031E00092240900DCD308008888080010420800F7
:1031F00000000800F0C1070087870700755007002E
:10320000711C07003EEB0600A1BC06006990060099
:1032100066660600703E06006118060017F4050099
:1032200074D105005BB00500B29005006272050024
:103230005555050078390500B81E0500050505003F
:103240004EEC040087D40400A1BD040090A7040044
:1032500049920400C17D0400EE690400C7560400D1
:10326000444404005C3204000821040041100400BE
:10327000000004003FF00300F8E0030026D2030042
:10328000C3C30300CCB503003AA803000A9B0300A4
:10329000388E0300C08103009F750300D0690300CE
:1032A000505E03001D53030034480300913D0300AA
:1032B0003333030016290300381F0300971503005A
:1032C000300C0300030303000BFA020049F1020073
:1032D000BAE802005CE002002DD802002DD0020006
:1032E00059C80200B0C0020031B90200DAB10200D0
:1032F000AAAA0200A0A30200BC9C0200FA95020048
:103300005C8F0200DF88020082820200457C02009E
:103310002776020027700200436A02007C640200E4
:10332000D05E02003F590200C85302000000210095
:10333000240027002A002D00300033000101000086
:10334000040107010A0100000A0B02090C0D0E0816
:10335000070304010000000000000000000000005E
:10336000000000000000000000000000000000005D
:10337000000012111000000000000000000000001A
:103380000000000000000000000000004368616EC3
:1033900067652066696C616D656E7400556E6C6F53
:1033A00061642066696C616D656E74004C6F616468
:1033B0002066696C616D656E740050726568656148
:1033C0007420504554470050726568656174205000
:1033D0004C41004368616E67652066696C616D658C
:1033E0006E7400290A002062797465733B20637251
:1033F0006320002073746F72656420736574746950
:103400006E67732072657472696576656420280042
:10341000202863616C63756C6174656429210A00FE
:1034200020213D2000454550524F4D20435243201E
:103430006D69736D61746368202D202873746F72D9
:1034400065642920002053697A653A2000496E643A
:1034500065783A2000204D61726C696E3D563535B5
:10346000290A0028454550524F4D3D0045455052D0
:103470004F4D2076657273696F6E206D69736D6153
:103480007463682000526573656E643A20006F6B48
:103490000020746F6F206C6F6E6720657874727592
:1034A00073696F6E2070726576656E7465640A006C
:1034B00020636F6C6420657874727573696F6E2019
:1034C00070726576656E7465640A0000EA00D60065
:1034D00011241FBECFEFD1E2DEBFCDBF00E00CBF95
:1034E00013E0A0E0B2E0EAE8FEE502E00BBF02C0B4
:1034F00007900D92A435B107D9F726E1A4E5B3E012
:1035000001C01D92A834B207E1F71AE1C7E6DAE17B
:1035100000E006C021970109802FFE010F94A92E1B
:10352000C636D10780E00807A9F70F94221A0D9438
:10353000342F0C9400002F923F924F925F926F9223
:103540007F928F929F92AF92BF92CF92DF92EF9233
:10355000FF920F931F93CF93DF93CDB7DEB7CB5678
:10356000D1090FB6F894DEBF0FBECDBF91E09093A6
:103570008A04809187158D3411F40C94AE23843520
:1035800011F40C94EC2F873411F00C943630209009
:103590008515309086152BE12216310409F47BC67F
:1035A000CCF444E0241631044CF452E025163104E6
:1035B0000CF041C037FE38C00C94AA2384E02816D2
:1035C000310409F4E7C59CE02916310409F421C649
:1035D0000C94AA23AAE22A16310409F47BC774F4D6
:1035E000EDE12E16310409F49DC60CF484C62EE1DB
:1035F0002216310409F49AC60C94AA233BE523163B
:10360000310411F40C9428234CE52416310411F4F0
:103610000C942C235AE52516310411F00C94AA239E
:10362000109258030C9438308091430281110C940D
:103630003D300C94383080914302882311F40C946F
:1036400038300E94BCCA82E50E94FC37882309F406
:103650004CC10E9480374B015C0120E030E0A901A1
:103660000F943D27882309F470C18091AA0490919A
:10367000AB04A091AC04B091AD0488AF99AFAAAFF0
:10368000BBAF2091AE043091AF044091B004509193
:10369000B1042CAF3DAF4EAF5FAF80915F0490910E
:1036A0006004A0916104B09162042C968CAF9DAF30
:1036B000AEAFBFAF2C97209163043091640440916A
:1036C00065045091660428962CAF3DAF4EAF5FAFB6
:1036D00028979C01AD0168AD79AD8AAD9BAD0F9483
:1036E0003D2781110FC028962CAD3DAD4EAD5FAD8D
:1036F00028976CAD7DAD8EAD9FAD0F943D2788238F
:1037000009F423C111E032E02316310409F010E07E
:1037100020E030E0A901C501B4010F943D27881FC6
:103720008827881F181759F080E090E0A0E8BFEBC9
:1037300064968CAF9DAFAEAFBFAF64970AC020E078
:1037400030E040E85FE364962CAF3DAF4EAF5FAF33
:10375000649728AD39AD4AAD5BAD2C966CAD7DADAF
:103760008EAD9FAD2C970F94B92B60966CAF7DAF4B
:103770008EAF9FAF60972CAD3DAD4EAD5FAD28963F
:103780006CAD7DAD8EAD9FAD28970F94B92B6B01BD
:103790007C0160962CAD3DAD4EAD5FAD6097CA012A
:1037A000B9010F94A2272B013C01A7019601C70183
:1037B000B6010F94A2279B01AC01C301B2010F9483
:1037C000BA2B0F94252E24966CAF7DAF8EAF9FAF92
:1037D000249720E030E040E05FE30F94A2272B0124
:1037E0003C01A5019401C501B4010F94A2274B012E
:1037F0005C01A3019201C301B2010F94A2279B01B6
:10380000AC01C501B4010F94B92B0F94252E649619
:103810002CAD3DAD4EAD5FAD64970F94A2274B012B
:103820005C01C701B601905824962CAD3DAD4EAD5C
:103830005FAD24970F94962CA50194010F94A227B5
:103840006B017C012C962CAD3DAD4EAD5FAD2C9740
:1038500068AD79AD8AAD9BAD0F94BA2B20E030E016
:1038600040E05FE30F94A2279B01AC01C701B601C2
:103870000F94BA2B28AD39AD4AAD5BAD0F94B92B7F
:103880006B017C0128962CAD3DAD4EAD5FAD289708
:103890006CAD7DAD8EAD9FAD0F94BA2B20E030E0C6
:1038A00040E05FE30F94A2272B013C0124962CAD4E
:1038B0003DAD4EAD5FAD249760966CAD7DAD8EADE8
:1038C0009FAD60970F94962CA50194010F94A227A9
:1038D0009B01AC01C301B2010F94BA2B2CAD3DADDD
:1038E0004EAD5FAD0F94B92B14C089E40E94FC3734
:1038F000882329F00E9480376B017C0103C0C12C12
:10390000D12C76018AE40E94FC37882309F10E94B9
:1039100080372C966CAF7DAF8EAF9FAF2C9720E099
:1039200030E0A901C701B6010F943D2781111FC0E6
:1039300020E030E0A9012C966CAD7DAD8EAD9FAD41
:103940002C970F943D27811112C0E6EDFEE20EC4C4
:1039500020E030E0A901C701B6010F943D2788237C
:10396000A1F32C961CAE1DAE1EAE1FAE2C97D70138
:10397000C601B05888AF99AFAAAFBBAF2C962CAD9B
:103980003DAD4EAD5FAD2C9750582CAF3DAF4EAF17
:103990005FAF9C01AD01BC01CD010F94A2274B018B
:1039A0005C012CAD3DAD4EAD5FADCA01B9010F94C8
:1039B000A2279B01AC01C501B4010F94BA2B0F944F
:1039C000252EA0966CAF7DAF8EAF9FAFA097809154
:1039D000AA049091AB04A091AC04B091AD042896D8
:1039E0008CAF9DAFAEAFBFAF2897A7019601BC01CA
:1039F000CD010F94BA2B64966CAF7DAF8EAF9FAFA5
:103A000064972091AE043091AF044091B00450917E
:103A1000B10460962CAF3DAF4EAF5FAF60972C9670
:103A20002CAD3DAD4EAD5FAD2C9760966CAD7DADD0
:103A30008EAD9FAD60970F94BA2BA4966CAF7DAFFF
:103A40008EAF9FAFA49780915F0490916004A09186
:103A50006104B091620468968CAF9DAFAEAFBFAF0A
:103A6000689764962CAD3DAD4EAD5FAD6497BC01DB
:103A7000CD010F94B92B6B017C012091630430912F
:103A8000640440916504509166046C962CAF3DAF80
:103A90004EAF5FAF6C97A4962CAD3DAD4EAD5FAD14
:103AA000A4976C966CAD7DAD8EAD9FAD6C970F9469
:103AB000B92B4B015C018091B2049091B304A091A9
:103AC000B404B091B504A8968CAF9DAFAEAFBFAFB4
:103AD000A8979C01AD016091670470916804809182
:103AE000690490916A040F94B92B24966CAF7DAF52
:103AF0008EAF9FAF2497A701960168AD79AD8AADCF
:103B00009BAD0F94A2272B013C01A50194016CAD44
:103B10007DAD8EAD9FAD0F94A2279B01AC01C3017B
:103B2000B2010F94BA2B2B013C01A501940168ADA1
:103B300079AD8AAD9BAD0F94A2274B015C01A70123
:103B400096016CAD7DAD8EAD9FAD0F94A2279B010C
:103B5000AC01C501B4010F94B92BA30192010F94DC
:103B60002D2C6B017C0120E030E0A9010F943D2752
:103B700087FF0AC02BED3FE049EC50E4C701B601D6
:103B80000F94BA2B6B017C0192E02916310451F499
:103B90002BED3FE049EC50E4C701B6010F94B92B7F
:103BA0006B017C0120E030E0A901C701B6010F9450
:103BB0003D27811128C068962CAD3DAD4EAD5FAD5F
:103BC000689728966CAD7DAD8EAD9FAD28970F940C
:103BD0003D27811118C06C962CAD3DAD4EAD5FAD4B
:103BE0006C9760966CAD7DAD8EAD9FAD60970F9478
:103BF0003D27811108C00BEDC02E0FE0D02E09EC3F
:103C0000E02E00E4F02EA7019601A0966CAD7DADEC
:103C10008EAD9FADA0970F94A2274B015C0120E0D1
:103C200030E0A90124966CAD7DAD8EAD9FAD24979B
:103C30000F943D278823E9F0A5019401C501B40143
:103C40000F94A2274B015C0124962CAD3DAD4EADE7
:103C50005FAD2497CA01B9010F94A2279B01AC0163
:103C6000C501B4010F94BA2B0F94252E4B015C01B2
:103C70000DC020E030E0A901C501B4010F94E02D92
:103C800087FF04C0B7FAB094B7F8B0942FE632E1DA
:103C900043E85AE3C501B4010F943D2787FF02C0F2
:103CA0000C943830C501B4010F942F2D0F94032DBF
:103CB0002E967FAF6EAF2E97DB01AB2B31F4E1E098
:103CC000F0E02E96FFAFEEAF2E974090B6045090E6
:103CD000B7046090B8047090B9042E962EAD3FAD35
:103CE0002E97B90180E090E00F9441274B015C01D1
:103CF0009B01AC01C701B6010F94962C28966CAFBE
:103D00007DAF8EAF9FAF2897A501940124966CAD2F
:103D10007DAD8EAD9FAD24970F94962CA0966CAF81
:103D20007DAF8EAF9FAFA097A301920160916B040E
:103D300070916C0480916D0490916E040F94B92B76
:103D4000A50194010F94962CAC966CAF7DAF8EAF0D
:103D50009FAFAC9728962CAD3DAD4EAD5FAD28978B
:103D6000CA01B9010F94A22720E030E040E05FE3F0
:103D70000F94A2279B01AC0160E070E080E89FE314
:103D80000F94B92B68966CAF7DAF8EAF9FAF6897DD
:103D9000A8968CAD9DADAEADBFADA89789879A872B
:103DA000AB87BC874D865E866F86788A60912202DB
:103DB00070912302072E000C880B990B0F94432758
:103DC000209111023091120240911302509114027D
:103DD0000F94A2272AE037ED43E25CE30F94A22779
:103DE0006CAB7DAB8EAB9FAB0E9437759B01AC017A
:103DF00028533F4F4F4F5F4F6C962CAF3DAF4EAFA8
:103E00005FAF6C9748AC59AC6AAC7BAC222423946E
:103E1000312C39E121963FAF21972E964EAD5FAD03
:103E20002E974215530509F44DC10E9453EB0E9491
:103E30003775DC01CB016C962CAD3DAD4EAD5FAD61
:103E40006C97821B930BA40BB50BB7FD11C00E949E
:103E500037759B01AC0128533F4F4F4F5F4F6C9616
:103E60002CAF3DAF4EAF5FAF6C9780E00E94D1D5D5
:103E700021963FAD2197315021963FAF21973323B3
:103E800009F445C02CAD3DAD4EAD5FAD68966CAD4F
:103E90007DAD8EAD9FAD68970F94A2276B017C011D
:103EA0009201A30128966CAD7DAD8EAD9FAD289794
:103EB0000F94A227A70196010F94BA2B7B018C01C6
:103EC0009201A30168966CAD7DAD8EAD9FAD6897F4
:103ED0000F94A2274B015C012CAD3DAD4EAD5FAD03
:103EE00028966CAD7DAD8EAD9FAD28970F94A2271F
:103EF0009B01AC01C501B4010F94B92B2B013C010E
:103F0000C701D8018CAF9DAFAEAFBFAF55C0B101F7
:103F100080E090E00F94412728962CAD3DAD4EAD4A
:103F20005FAD28970F94A2274B015C010F94932C4F
:103F30006B017C01C501B4010F941B2E4B015C0188
:103F4000A701960168AD79AD8AAD9BAD0F94A2270C
:103F50002B013C012C962CAD3DAD4EAD5FAD2C97A9
:103F6000C501B4010F94A227A30192010F94BA2BAB
:103F70002B013C01A501940168AD79AD8AAD9BADE3
:103F80000F94A2274B015C012C962CAD3DAD4EAD9C
:103F90005FAD2C97C701B6010F94A2279B01AC011E
:103FA000C501B4010F94B92B6CAF7DAF8EAF9FAF3D
:103FB00049E121964FAF21979201A30164966CAD20
:103FC0007DAD8EAD9FAD64970F94BA2B69837A83D4
:103FD0008B839C832CAD3DAD4EAD5FADA4966CAD97
:103FE0007DAD8EAD9FADA4970F94BA2B6D837E836C
:103FF0008F839887A0962CAD3DAD4EAD5FADA09759
:1040000069857A858B859C850F94BA2B69877A8719
:104010008B879C87AC962CAD3DAD4EAD5FADAC971C
:104020006D857E858F8598890F94BA2B6D877E87E5
:104030008F87988B80913C02882321F0CE010196D6
:104040000E94E5D2E0908B041CA61DA61EA61FA60A
:1040500089819A81AB81BC8188A399A3AAA3BBA3C0
:104060008D819E81AF81B8858CA39DA3AEA3BFA394
:1040700089859A85AB85BC8588A799A7AAA7BBA780
:10408000AE01485D5F4FBE016C5D7F4FCE018096F3
:104090000E94CC55CE018C966C018E010C5C1F4F9A
:1040A0009E01235F3F4FAE01485D5F4FBE016C5DD7
:1040B0007F4F0C970E944B47882321F09FEF291ACE
:1040C000390AABCEE0908B0418AA19AA1AAA1BAA27
:1040D00080915F0490916004A0916104B0916204AA
:1040E00088A399A3AAA3BBA38091630490916404BD
:1040F000A0916504B09166048CA39DA3AEA3BFA359
:104100008091670490916804A0916904B0916A0459
:1041100088A799A7AAA7BBA7AE01485D5F4FBE01BC
:104120006C5D7F4FCE0180960E94CC55DE01D0960B
:104130006D018E010C5C1F4F2BE634E0AE01485D33
:104140005F4FBE016C5D7F4FCE0180960E944B4752
:1041500080E1EFE5F4E0AAEAB4E001900D928A95DF
:10416000E1F70C9438300E94FE38F80184918F01F9
:104170000F5F1F4F8111F7CFEDE7F2E084918F01C0
:104180000F5F1F4F882311F40C9438300E94FE38C3
:10419000F801F4CF80E50E94FC37882329F00E94C3
:1041A00040376B017C0103C0C12CD12C760183E523
:1041B0000E94FC37882361F00E94803720E030E0C5
:1041C0004AE754E40F94A2270F94032D6B017C015E
:1041D0000E94185580913607811105C060E083E97F
:1041E00092E00E94F0640E943775C60ED71EE81E4A
:1041F000F91E0E943775DC01CB018C199D09AE09AF
:10420000BF09B7FD02C00C94383080E00E94D1D5C0
:10421000F0CF0E940FE481110C94383080E50E94A9
:10422000FC37882319F00E94503701C060E068AB6A
:1042300083E50E94FC37882319F00E94503701C0A3
:104240006CE06CA784E50E94FC37882319F00E947B
:10425000503701C063E068A382E50E94FC378823E1
:1042600019F00E94803704C060E070E080ED90E4B7
:1042700069837A838B839C839E01205E3F4FAE01CE
:104280004F5F5F4FBE01645D7F4FCE01C0960F94BC
:10429000D4000C9438300E940FE481110C94383013
:1042A00080E090E0A0E2B1E489839A83AB83BC8391
:1042B00080E090E0A1E9B3E48D839E83AF83B8876B
:1042C00080E090E0A0EAB1E489879A87AB87BC8759
:1042D00080E50E94FC37882319F00E94503701C006
:1042E00060E068A3BE016F5F7F4FCE0180960F94A0
:1042F0003E000C943830809199048770873011F01B
:104300000C9442308FE40E94FC37882319F00E94FD
:10431000713703C08FE40E94B33781110C94383099
:104320000C9442300E94B1CC0C943830C090AA0456
:10433000D090AB04E090AC04F090AD0488E50E940E
:10434000FC37811108C020E030E0A901C701B601A7
:104350000F94BA2B02C00E94803768A379A38AA366
:104360009BA3C090AE04D090AF04E090B004F09056
:10437000B10489E50E94FC37811109C020E030E0DA
:1043800040E751E4C701B6010F94B92B02C00E9467
:1043900080379B01AC0169837A838B839C8368A1FE
:1043A00079A18AA19BA10E94D7D4882311F40C94EF
:1043B000383080E00E94FF350E94173385E40E9468
:1043C000FC37882321F00E947137182F04C085E440
:1043D0000E94B33711E086E50E94FC37882321F064
:1043E0000E945037262F01C021E0412FBE016F5F90
:1043F0007F4FCE0180960E942A6A6B017C019B014F
:10440000AC010F94662E81115FC088A099A0AAA06C
:10441000BBA020E030E0A901C501B4010F943D2705
:1044200087FF05C027E137EB41E558EB04C027E1E2
:1044300037EB41E558E3C501B4010F94BA2BAB014A
:10444000BC0183EC92E00E9483F889809A80AB8063
:10445000BC8020E030E0A901C501B4010F943D27E4
:1044600087FF05C027E137EB41E558EB04C027E1A2
:1044700037EB41E558E3C501B4010F94BA2BAB010A
:10448000BC018EEB92E00E9483F820E030E0A901AD
:10449000C701B6010F943D2787FF05C027E137EB21
:1044A00041E558EB04C027E137EB41E558E3C7018C
:1044B000B6010F94BA2BAB01BC0189EB92E00E94CC
:1044C00083F88AE00E94FE380E94FE320E9499AD75
:1044D0000C94383080914302882311F40C943830C6
:1044E00089E40E94FC37E82E882321F00E9450378F
:1044F000F62E01C0F12C8AE40E94FC37182F882385
:1045000021F00E945037062F01C000E0EE2019F084
:10451000B2E0BF1520F0112381F0033070F0EBEC16
:10452000F2E084918F010F5F1F4F882311F40C94E8
:1045300038300E94FE38F801F4CF0E94EA38EE20AD
:10454000F1F020911A0C30911B0C4F2D4203B00159
:10455000439F700D112480915F1590916015680F35
:10456000791F072E000C880B990B0F94432760933B
:104570005F0470936004809361049093620411233C
:10458000E9F020911C0C30911D0C0203B001039F37
:10459000700D11248091611590916215680F791F3B
:1045A000072E000C880B990B0F944327609363042C
:1045B00070936404809365049093660480E50E9480
:1045C000FC378823E9F00E9471378823E9F0112332
:1045D000D9F020E030E040E751E46091630470914D
:1045E000640480916504909166040F94BA2B6093E3
:1045F000630470936404809365049093660404C01C
:1046000080E50E94B337E1CF86E40E94FC3788231F
:10461000D9F00E9480376B017C0120E030E0A901D5
:104620000F94E02D181684F420E030E040E752E4C7
:10463000C701B6010F94962C609311027093120279
:1046400080931302909314020F944C0E0C94383004
:10465000909358030C943830EBE52E2EE2E03E2E7A
:10466000F4E5EF2EFCE0FF2E8AEA94E099AF88AFE4
:10467000AAE9CA2EA4E0DA2E00E010E0D1018D9163
:104680001D010E94FC37882309F44BC00E9480372B
:104690002B013C01133049F0F60120813181428128
:1046A00053810F94B92B2B013C01A8ADB9AD2D91CD
:1046B0003D914D915C91C301B2010F94B92B4B0117
:1046C0005C012DEB37E346E855EB0F94E02D87FDB9
:1046D0000AC02DEB37E346E855E3C501B4010F945A
:1046E0003D271816F4F4133051F44092B60450925A
:1046F000B7046092B8047092B90401E012C0A50139
:104700009401F70160817181828193810F94BA2BAA
:10471000D7016D937D938D939C931397812F0E9466
:1047200005351F5FB4E0EB0EF11CE8ADF9AD349632
:10473000F9AFE8AFF4E0CF0ED11C143009F09ECFF2
:10474000002321F086EB94E00E94ACE30E9499AD37
:104750000C9438300E943D6E0C9438308091851551
:10476000909186158937910509F4A6C70CF02AC1E6
:104770008E34910509F4B0C40CF09AC08A319105C9
:1047800009F464C3ECF58431910509F457C27CF453
:104790008131910509F4CDC22CF4029708F451C27D
:1047A0000C94E92F429709F4EDC50C94E92F873159
:1047B000910509F40BC374F48531910509F402C322
:1047C000469711F00C94E92F1092900910929109DC
:1047D0000C9438308831910509F40EC3499711F0D3
:1047E0000C94E92F109290090E9450EE86E293E01B
:1047F00090935504809354040E9459350C9438309A
:104800008032910509F4CCC3ACF58D31910511F4DA
:104810000C94383094F48B31910509F425C34C97EE
:1048200011F00C94E92F40E060E0809183159091A5
:1048300084150E94B6E50C9438308E31910509F448
:10484000ABC34F9711F00C94E92F0E9401EE68A3BF
:1048500079A38AA39BA3BE016F5F7F4FCE01809691
:104860000E94083860E0CE0101960E942A65E2E4C9
:10487000FCE1E2C38B34910509F428C464F48A3264
:10488000910509F4EFC3C09711F00C94E92F0E9431
:1048900078980C9438308C34910509F41AC48D340E
:1048A000910511F00C94E92F0E941BF90C943830FB
:1048B0008C36910509F49FC40CF047C085359105ED
:1048C00009F463C54CF58235910509F454C5D4F457
:1048D0008135910511F00C94E92F0E94E8E70E94C0
:1048E0005655109256151092551568EE73E080E0FB
:1048F00090E00E946D6460E08CE993E00E94F064B7
:104900000C9438308335910509F438C58435910508
:1049100009F438C50C94E92F8936910509F49FC430
:1049200054F48C35910509F449C58836910509F48C
:10493000D6C30C94E92F8A36910509F4F0C48B365E
:10494000910509F408C50C94E92F8237910509F403
:10495000BDC5CCF48F36910509F4FAC354F48D36F5
:10496000910509F4BCC48E36910509F4E0C30C949A
:10497000E92F8037910509F441C48137910509F485
:1049800044C40C94E92F8637910509F446C654F4C3
:104990008337910509F44FC18537910509F42EC677
:1049A0000C94E92F8737910509F483C68837910560
:1049B00011F00C94E92F81E08093030580930205A8
:1049C0000C943830813921E0920711F40C94422E76
:1049D0000CF08DC08E3C910509F4E3C70CF043C088
:1049E0008E3B910509F498C4C4F48C38910509F400
:1049F00079C44CF48D37910511F00C94E92F0E9485
:104A0000C2AC0C9438308139910509F45AC68B39FF
:104A1000910509F43FC40C94E92F8B3C910509F4EE
:104A200030C7A4F4883C910509F4C3C6893C9105BC
:104A300011F00C94E92F8BE5E82E82E0F82E0BEFB5
:104A400016E09BE0C92E97E0D92E03C78C3C910558
:104A500009F432C78D3C910511F00C94E92F0E94A6
:104A600041AC0C9438308C3241E0940711F40C9432
:104A7000A92DDCF48D3D910509F4C8C754F4833D9C
:104A8000910509F4B3C78C3D910509F4B2C70C94A4
:104A9000E92F823E910511F40C94752D82329140DC
:104AA00011F40C949E2D0C94E92F8F32B1E09B07EA
:104AB00011F40C94292E6CF48D32F1E09F0711F45F
:104AC0000C94D22D8E32914011F40C94D52D0C946F
:104AD000E92F833631E0930709F4A9C0803991406A
:104AE00011F00C94E92F0E9418550C943830883539
:104AF00052E0950711F40C94802E0CF04AC08C3AC9
:104B0000B1E09B0709F46FC70CF58A39F1E09F0704
:104B100009F478C364F48239914011F00C94E92FC0
:104B200080E00E9465340E9499AD0C943830843A3C
:104B300041E0940711F40C94472E853A914011F00E
:104B40000C94E92F0E9416C50C943830863FA1E0E2
:104B50009A0711F40C944D2E7CF4843FE1E09E07FB
:104B600011F40C944A2E853F914011F00C94E92FDA
:104B70000F94400E0C943830873F21E0920711F4D7
:104B80000C94502E883F914011F40C945C2E0C94A0
:104B9000E92F8B3843E0940711F40C9438302CF54E
:104BA0008E3BA2E09A0711F40C940C2F7CF48B3509
:104BB000E2E09E0711F40C94832E8D3B924011F09D
:104BC0000C94E92F0E94E7C00C943830833523E021
:104BD000920711F40C940F2F8A38934011F00C9423
:104BE000E92F0E9484BF0C943830823943E0940747
:104BF00011F40C94892F7CF48F38A3E09A0711F4F8
:104C00000C94742F8039934011F00C94E92F0E947A
:104C1000EBBE0C943830803AE3E09E0709F4FFC104
:104C2000873E934011F40C94D62F0C94E92FE6EDB7
:104C3000FEE20C942F2EEEE8F4E085C4E5E1F3E00B
:104C400083C0A0908315B090841580E50E94FC3746
:104C5000882359F00E9440376B017C0111E0672BDB
:104C6000682B692B31F410E004C010E0C12CD12C6A
:104C7000760183E50E94FC37882311F40C942031DF
:104C80000E94803720E030E04AE754E40F94A227E6
:104C90000F94032D6B017C0111110BC0672B682B46
:104CA000692B39F4A114B10421F0D5018C91811143
:104CB00002C010E001C011E00E941855112329F034
:104CC00061E0C5010E942A6505C060E08AEE92E0BD
:104CD0000E94F06483E080938A0481E080938904D9
:104CE000C114D104E104F104B1F00E943775C60E7D
:104CF000D71EE81EF91E0E943775DC01CB018C1906
:104D00009D09AE09BF09B7FF0EC0809189048111CA
:104D10000C94253108C080918904882321F080E01B
:104D20000E94D1D5F8CF0E94AE7A109289040C94DB
:104D3000383060E08DEF92E00E94F064179816988A
:104D4000159814980C94383084918F010F5F1F4F81
:104D5000882321F00E94FE38F801F6CF10920D0C46
:104D600080EC99E00E9487A18BE1E0ECF9E0DE01A4
:104D7000159601900D928A95E1F78091BE09909168
:104D8000BF099C838B8381E992E09A83898340E009
:104D900050E0BE016F5F7F4F80E090E00E94AA93D9
:104DA000CE0101960E9450D5E6E0F3E084918F0198
:104DB0000F5F1F4F882311F40C9438300E94FE3887
:104DC000F801F4CF0E9437E20C943830E09183155B
:104DD000F09184158081882329F0803209F41082B3
:104DE0003196F8CF40E061E0809183159091841571
:104DF0000E94B6E50C94383080E090E0A8E4B2E47C
:104E000089839A83AB83BC8318A219A21AA21BA21E
:104E10001CA61DA61EA61FA68091E50E882359F08C
:104E200020E0AE014F5F5F4FBE01605E7F4FCE015D
:104E30008C960E94666D80919109882319F081E01B
:104E4000809390090E94D4F80C9438308091910995
:104E5000882311F40C94383083E50E94FC378111CB
:104E60000C942A310C94383083E40E94B3378823A1
:104E700009F450C0E8E5F3E084918F010F5F1F4F04
:104E8000882321F00E94FE38F801F6CF80915B0B59
:104E9000811103C0EBE2F3E012C0BE016F5F7F4FF0
:104EA00088E59BE00E9454A18E010F5F1F4FF8011F
:104EB00081918F01882349F10E94FE38F8CF8491B7
:104EC0008F010F5F1F4F882301F10E94FE38F80108
:104ED000F6CF74E7C72E73E0D72EE12CF12C20E03B
:104EE0008091220490E00E2C02C0959587950A943B
:104EF000E2F780FD5DC1FFEFEF1AFF0A32E0C30E5B
:104F0000D11C45E0E416F10459F78AE00E94FE380E
:104F10000C94383080919109882339F08091900960
:104F2000882319F0E5E3F3E003C0E7E4F3E028C0E9
:104F300084918F010F5F1F4F882321F00E94FE385C
:104F4000F801F6CF6091090C70910A0C80910B0C5E
:104F500090910C0C4AE00E94A63B8FE20E94FE3822
:104F60006091050C7091060C8091070C9091080CD3
:104F70004AE00E94A63B8AE00E94FE380C9438303A
:104F800084918F010F5F1F4F882311F40C943830E8
:104F90000E94FE38F801F4CF0E9429D10C943830D9
:104FA0008091900981110E94185580919109882360
:104FB00011F40C94383080E50E94FC37882319F0F6
:104FC0000E94713703C080E50E94B337182F482F25
:104FD00061E080918315909184150E94B6E583E588
:104FE0000E94FC37882381F00E945037AB01BC013E
:104FF0004093090C50930A0C60930B0C70930C0CAB
:1050000088E59BE00E94F09E80919109882319F029
:1050100081E08093900911110C94383013CF809166
:1050200083159091841521E020938F0940E060E082
:105030000E94B6E50C94383084918F010F5F1F4FAA
:10504000882321F00E94FE38F801F6CFBE016F5F81
:105050007F4F87E693E00E94B9F88AE00E94FE380D
:105060000C94383083E50E94FC37882311F40C94AB
:1050700038300E946037E82E80E50E94FC37882394
:1050800031F00E946037182F87FF02C0F1C71DE082
:1050900089E40E94FC37882351F00E947137811106
:1050A0000C94D931E5E9F5E082EC95E00AC089E499
:1050B0000E94B337F4CF31968E179F0711F40C94EA
:1050C000D93124911213F7CF0C943A310E94D4F8BD
:1050D000CFC70E9450EECCC70E946097C9C788E630
:1050E00090E00E94113C8111C3C78091220483FF8C
:1050F00001C0BEC783E50E94FC378823A9F00E9447
:1051000080370F94FE2CCB010E9491640E9480375F
:1051100020E030E04AEA52E40F943D27181624F0CC
:105120000E941BF90E94AE7A0E949DFAA1C78EE4EC
:105130000E94FC37882309F49BC70E945037609374
:10514000E10E7093E20E8093E30E9093E40E90C70D
:1051500083E50E94B337882359F083E50E94FC372A
:10516000882319F00E94603701C080E080932204F8
:10517000E2E4FCE184918F010F5F1F4F811103C0B6
:10518000E2E8F3E004C00E94FE38F801F3CF849116
:105190008F010F5F1F4F882321F00E94FE38F80116
:1051A000F6CF80912204811194CEEEE7F3E018C08F
:1051B000BB24B394B20E222319F08CE20E94FE3875
:1051C000F60185919491FC0184918F010F5F1F4F2F
:1051D000882321F00E94FE38F801F6CF2B2D8BCECC
:1051E00084918F010F5F1F4F882309F48ECE0E9498
:1051F000FE38F801F5CF10921B023AC789E893E018
:105200000E9482D50E9474C733C783E50E94FC3791
:10521000811103C0E2E4FCE10BC00E9460378D33D2
:1052200018F480933D0224C78CE380933D0220C78D
:1052300084918F010F5F1F4F882321F00E94FE3859
:10524000F801F6CF40913D0250E060E070E082E965
:1052500093E00E9466F88AE00E94FE3809C789E65A
:1052600090E00E94113C811111C0E9E9F3E08491C2
:105270008F010F5F1F4F882321F00E94FE38F80135
:10528000F6CF0E944D748AE00E94FE3810928A0484
:105290000C94EE3183E50E94FC37882309F4E8C6BC
:1052A0000E946037182F8D3308F01CE31093530CC5
:1052B0000E9437756B017C01212F30E0A8EEB3E02E
:1052C0000F94AA2BC60ED71EE81EF91EC0924F0CD3
:1052D000D092500CE092510CF092520CC9C60E9430
:1052E0007095C6C68091220483FDC2C683E50E94E4
:1052F000FC37882309F4BCC60E9480370F94FE2C2B
:105300006436710514F064E670E070935415609390
:1053100053150E949CE7ACC60E94BCAEA9C680E5AE
:105320000E94FC37811106C083E50E94FC37882368
:1053300059F005C00E94603781119AC6F5CF0E94CE
:1053400050376F3F710510F06FEF70E07093561596
:10535000609355158DC680E50E94FC37811105C00C
:10536000109256151092551583C60E945037672B20
:1053700009F07EC6F5CF109257037AC681E080937C
:10538000570376C60E9463AE73C683E50E94B337A7
:10539000882309F46DC60E94803720E030E04AE798
:1053A00054E40F94A2270F94032D60934B0C709339
:1053B0004C0C80934D0C90934E0C5AC65BE5C52E59
:1053C00052E0D52E64ECE62E6CE0F62E10E0D6010D
:1053D0008D916D010E94B337882309F46DC013309D
:1053E00009F063C00E9480374B015C0120E030E08F
:1053F00040EA51E40F943D2787FF4EC0A501940178
:105400006091D00C7091D10C8091D20C9091D30C02
:105410000F94962C2B013C019B01AC0160911F075E
:105420007091200780912107909122070F94A22765
:1054300060931F07709320078093210790932207A2
:10544000A30192016091F7067091F8068091F90628
:105450009091FA060F94A2276093F7067093F806CE
:105460008093F9069093FA066091540F7091550F4E
:105470008091560F9091570F0F944127A3019201ED
:105480000F94A2270F94032D6093540F7093550F20
:105490008093560F9093570F8092D00C9092D10C1E
:1054A000A092D20CB092D30C07C00E948037F701B3
:1054B00060837183828393831F5FF4E0EF0EF11C9E
:1054C000143009F084CF0E9402FCD2C50E94185506
:1054D00083E50E94FC37882309F438C90E945037BD
:1054E0006230710509F032C90F9426128BE50E94D3
:1054F000FE3860918C0470918D0480918E0490919F
:105500008F0442E00E94673C4091900450919104C6
:1055100060919204709193048CEA93E00E9483F866
:105520004091940450919504609196047091970471
:1055300089EA93E00E9483F88DE50E94FE388AE0B4
:105540000E94FE3895C584918F010F5F1F4F8823FD
:1055500021F00E94FE38F801F6CF60E08EE794E07B
:105560000E9462AD61E087E794E00E9462AD61E075
:105570008CE694E00E9462AD61E08CE594E00E94CC
:1055800062AD60E083E594E00E9462AD61E089E491
:1055900094E00E9462AD61E08FE394E00E9462AD0E
:1055A00061E087E394E00E9462AD61E089E294E00B
:1055B0000E9462AD60E08BE194E00E9462AD60E029
:1055C0008CE094E00E9462AD60E08EEF93E00E9478
:1055D00062AD60E088EE93E00E9462AD60E087ED2E
:1055E00093E00E9462AD60E082EC93E00E9462ADC5
:1055F00061E08FEA93E00E9462AD3AC58091831525
:1056000090918415DC012C91222321F060E00E940E
:105610002A652EC50E94AE7A2BC500918315109184
:10562000841583E0D12C40E08150E1F0F8019081B5
:10563000292F2B7F2134C1F721812133A9F7913400
:1056400021F0953421F441E002C0DD24D394980187
:105650002E5F3F4F89012F5F3F4FD8019C919032C1
:10566000C9F3E2CF442369F0E2E4FCE184917F01D5
:10567000BFEFEB1AFB0A882321F00E94FE38F701E6
:10568000F5CFDD2069F0E1E5F5E084917F012FEFB2
:10569000E21AF20A882321F00E94FE38F701F5CFC2
:1056A000D8018D918D01882309F42FCC0E94FE38FA
:1056B000F7CF0F94B903DCC41092030510920205D2
:1056C000D7C483E50E94FC37882319F00E94503725
:1056D00002C060E070E08B01112702301105D4F0A8
:1056E000E6EDFEE284918F010F5F1F4F811103C031
:1056F000E5E5F5E004C00E94FE38F801F3CF84919F
:105700008F010F5F1F4F882309F4B2C40E94FE3837
:10571000F801F5CF88E40E94FC378823A9F00E94A5
:1057200050376A3A71053CF06F30B1E07B072CF0DE
:105730006EE071E002C06AEA70E0F801EE0FFF1F50
:10574000ED52F94F7183608386E40E94FC37882311
:10575000A9F00E945037F801EE0FFF1FE952F94FF0
:10576000718360836F3F710519F014F06FEF70E083
:1057700077FF02C060E070E07183608382E40E9482
:10578000FC37882309F474C40E94503765307105D2
:1057900034F0663571052CF065E570E002C065E017
:1057A00070E0000F111FF801E153F94F718360831E
:1057B0005FC488EC90E00E94113C811159C484E4DC
:1057C0000E94B337882309F441C00E9480376B01DF
:1057D0007C0111E020E030E0A9010F943D27811108
:1057E00001C010E01093410C20E030E0A901C70196
:1057F000B6010F943D27882349F10E948037E0913C
:10580000BC0424E0E29FF0011124E35CF34F6083C9
:1058100071838283938320E030E0A90160913D0C85
:1058200070913E0C80913F0C9091400C0F943D275D
:1058300081110CC080E090E0A0EEBFE380933D0CAE
:1058400090933E0CA0933F0CB093400C0E9473FCCD
:105850000FC4D7018D917D010E94B337882349F091
:105860000E9480370F94032DF80160837183828337
:1058700093830C5F1F4FC016D10659F70E94CDFAD3
:10588000F7C30BE5E02E02E0F02E0BEE16E0D70199
:105890008D917D010E94B337882339F00E948037B3
:1058A000F80160837183828393830C5F1F4FF6E05E
:1058B0000B3F1F0761F7DCC383E50E94FC37882399
:1058C000A1F00E94803760930F07709310078093B8
:1058D00011079093120760930B0770930C07809346
:1058E0000D0790930E0710E001C011E080E50E94C3
:1058F000FC37882359F00E94803760930F0770931C
:105900001007809311079093120710E082E50E9420
:10591000FC37882359F00E94803760938504709388
:105920008604809387049093880410E084E50E94A5
:10593000FC37882359F00E94803760930B077093DF
:105940000C0780930D0790930E0792C3112309F45F
:105950008FC340910F07509110076091110770910C
:1059600012078DE795E00E9483F8409185045091DD
:10597000860460918704709188048AE795E00E940C
:1059800083F840910B0750910C0760910D077091BF
:105990000E0787E795E00E9483F88AE00E94FE38B0
:1059A00067C3BBE5CB2EB2E0DB2E15E0E12E15E0A0
:1059B000F12E10E0D6018D916D010E94B33788233E
:1059C00051F00E948037F701608371838283938353
:1059D000812F0E9405351F5FF4E0EF0EF11C13309C
:1059E00049F70C94A6230E9410C442C30E9463ABE3
:1059F0003FC383E50E94FC37882309F439C30E9422
:105A00005037709323026093220232C38DED90E0F1
:105A10000E94113C81112CC383E50E94FC37811147
:105A200003C0E2E4FCE13BC00091BC0410E00E9432
:105A30005037000F111FF801E05EFD4F7183608346
:105A40008091BC0490E08C01000F111F000F111F0A
:105A50009801245E3D4F7901880F991FFC01E05E9B
:105A6000FD4F60817181072E000C880B990B0F94FC
:105A700043272AE037ED43E25CE30F94A227F801C5
:105A8000E254F94F20813181428153810F94A22742
:105A9000D7016D937D938D939C931397E9C2849165
:105AA0008F010F5F1F4F882321F00E94FE38F801FD
:105AB000F6CF85E40E94FE388091BC04805D0E9490
:105AC000FE38E091BC04F0E0EE0FFF1FE05EFD4FFA
:105AD000608171818DE895E00E94A0F885E20E94C6
