:100000000C9454170C9485170C9485170C94851731
:100010000C9485170C9485170C9485170C948517F0
:100020000C9485170C9485170C9485170C948517E0
:100030000C9485170C9485170C9485170C948517D0
:100040000C9485170C948BD60C9485170C948517FB
:100050000C9485170C9485170C94327A0C941AF032
:100060000C9485170C94F9350C9485170C9485170E
:100070000C9485170C9485170C9485170C94851790
:100080000C9485170C9485170C9485170C94851780
:100090000C9485170C9485170C9485170C94851770
:1000A0000C9485170C9485170C9485170C94851760
:1000B0000C9485170C9485170C9485170C94851750
:1000C0000C9485170C9485170C9485170C94851740
:1000D0000C9485170C9485170C9485170C94851730
:1000E0000C948517DCEDDFEDCEEDD2EDD8ED16EEFC
:1000F000E3EDE7EDEDEDF1EDF5EDFBEDFFED03EEFD
:1001000016EE09EE0DEE11EE36EF3BEF40EF4AEF43
:1001100054EFCDEF5EEF66EF6EEF78EF82EF8CEF8E
:100120009BEFA5EFCDEFAFEFB9EFC3EF084AD73B99
:100130003BCE016E84BCBFFDC12F3D6C74319ABDB6
:1001400056833DDA3D00C77F11BED9E4BB4C3E91DA
:100150006BAAAABE000000803F05A84CCDB2D44EC9
:10016000B93836A9020C50B9918688083CA6AAAACB
:100170002ABE000000803F004E414E494E4954596E
:10018000494E46CDCCCC3D0AD7233C17B7D1387762
:10019000CC2B329595E6241FB14F0A000020410078
:1001A00000C84200401C4620BCBE4CCA1B0E5AAEC2
:1001B000C59D74434F4D4D554E49434154494F4E93
:1001C0000044525952554E004552524F5253004925
:1001D0004E464F004543484F00536C6565702E2EC8
:1001E0002E00486F6D652058592066697273740A35
:1001F00000486F6D6520585920666972737400203D
:100200005A3A200020593A200042656420583A208A
:10021000004D65736820706F696E742063616E6E47
:100220006F74206265207265736F6C7665640A0076
:10023000436C69636B20746F20726573756D652EF6
:100240002E2E004E6F206D6F76652E00456E642059
:1002500066696C65206C6973740A00426567696E33
:100260002066696C65206C6973740A00286E6F20C3
:1002700066696C6529005344207072696E74696EFA
:1002800067206279746520004E6F7420534420709B
:1002900072696E74696E670A0043757272656E7476
:1002A0002066696C653A20005072696E742074692A
:1002B0006D653A2000D401CF01C801C101B3016FBF
:1002C00066660044454255473A004B494C4C45440C
:1002D0002E20004D3131332053006F6B004E4C20E7
:1002E00042473131204F66662E002C20002C200022
:1002F000544845524D414C5F50524F544543544928
:100300004F4E004155544F5245504F52545F534445
:100310005F53544154555300454D455247454E4354
:10032000595F50415253455200434153455F4C4938
:100330004748545F4252494748544E45535300542E
:100340004F47474C455F4C494748545300534F462D
:1003500054574152455F504F574552004255494C02
:10036000445F50455243454E54004C4556454C4918
:100370004E475F44415441005A5F50524F4245003E
:100380004155544F4C4556454C005052494E545FD0
:100390004A4F420050524F47524553530041555423
:1003A0004F5245504F52545F54454D5000564F4C9C
:1003B000554D455452494300454550524F4D005309
:1003C000455249414C5F584F4E5F584F4646004694
:1003D00049524D574152455F4E414D453A4D61722C
:1003E0006C696E20312E312E39202847697468756A
:1003F000622920534F555243455F434F44455F5553
:10040000524C3A68747470733A2F2F676974687528
:10041000622E636F6D2F4D61726C696E4669726DED
:10042000776172652F4D61726C696E2050524F5426
:100430004F434F4C5F56455253494F4E3A312E3041
:10044000204D414348494E455F545950453A4E4C22
:1004500020424731312045585452554445525F435C
:100460004F554E543A3120555549443A63656465B9
:10047000326132662D343161322D343734382D39C2
:100480006231322D63353563363266333637666610
:100490000A002F2F20004D31343520533C696E6403
:1004A00065783E206F7574206F662072616E676597
:1004B0002028302D31290A002054002052004163A9
:1004C00063656C65726174696F6E3A2050005741C4
:1004D000524E494E4721204C6F77205A204A657270
:1004E0006B206D6179206C65616420746F20756E7E
:1004F00077616E746564207061757365732E0A0090
:100500004F666673657473206170706C6965640012
:100510004572723A20546F6F206661722100546FE9
:100520006F206661722066726F6D207265666572FB
:10053000656E636520706F696E740A0020466C6F8B
:10054000773A2000000136372603FFFFFF353C3D98
:10055000380EFFFFFF312E303E12FFFFFFFF28FF56
:100560000C080907FFFF1A1C18FFFF2A08440A0796
:100570004350726F6265205A204F66667365743A05
:10058000200020643A0020693A0020703A00496E49
:1005900076616C69642065787472756465720A00AE
:1005A00043290A0061626C656420286D696E2074BD
:1005B000656D702000436F6C64206578747275649B
:1005C00065732061726520004E6F20636173652042
:1005D0006C696768740A004D65736820706F696E96
:1005E000742063616E6E6F74206265207265736F34
:1005F0006C7665640A004D34323120696E636F7227
:100600007265637420706172616D657465722075C6
:10061000736167650A00454550524F4D204F4B0AA4
:10062000003F5A206F7574206F662072616E676597
:1006300020282D323020746F203230290A003A20D1
:100640000050726F6265205A204F666673657400B1
:100650004163746976652045787472756465723A91
:100660002000496E76616C696420657874727564E7
:1006700065720A002569730025696D20256973007C
:100680002569682025696D20256973002569642026
:100690002569682025696D20256973002569792001
:1006A000256964202569682025696D202569730006
:1006B0004B494C4C45442E200053544F5050454418
:1006C0002E20005072696E7465722073746F7070A2
:1006D00065642064756520746F206572726F727333
:1006E0002E2046697820746865206572726F7220CA
:1006F000616E6420757365204D39393920746F201F
:10070000726573746172742E202854656D70657201
:1007100061747572652069732072657365742E202B
:100720005365742069742061667465722072657304
:1007300074617274696E67290A004E6F20436865A0
:10074000636B73756D2077697468206C696E6520C2
:100750006E756D6265722C204C617374204C696EED
:10076000653A20004E6F20436865636B73756D209A
:1007700077697468206C696E65206E756D6265724C
:100780002C204C617374204C696E653A20006368BC
:1007900065636B73756D206D69736D617463682C2F
:1007A000204C617374204C696E653A20004C696E70
:1007B00065204E756D626572206973206E6F7420BE
:1007C0004C617374204C696E65204E756D62657264
:1007D0002B312C204C617374204C696E653A2000DB
:1007E0004D313130004D3331005344207265616426
:1007F000206572726F720A00446F6E6520707269B4
:100800006E74696E672066696C650A0020496E76B1
:10081000616C69642065787472756465722000008B
:10082000000000000000000000000000004843003D
:100830000048430000484324F4D43050C38E20C203
:10084000A24017828B7011127A910D816CD90AA87F
:1008500061E108C7586607615143061E4B5D05C13B
:1008600045A7041A411104093D9803713931034029
:1008700036DB0265339102D4305402802E1D0263B0
:100880002CEE01752AC501B028A001102781018F27
:100890002564012B244B01E0223401AC211F018D82
:1008A000200D01801FFC00841EED00971DDF00B8A5
:1008B0001CD200E61BC600201BBC00641AB200B2AA
:1008C00019A8000A19A0006A189900D117910040D0
:1008D000178B00B516840031167E00B31579003AE7
:1008E000157300C7146F0058146A00EE1366008871
:1008F00013630025135E00C7125B006C12570015CE
:10090000125400C111510070114F0021114B00D63B
:100910001049008D1047004610440002104200C0EC
:100920000F4000800F3E00420F3C00060F3B00CB03
:100930000E3800930E37005C0E3500270E3400F39E
:100940000D3200C10D3100900D3000600D2E0032CF
:100950000D2D00050D2C00D90C2B00AE0C290085A7
:100960000C29005C0C2700350C27000E0C2600E833
:100970000B2400C40B2400A00B23007D0B23005A82
:100980000B2100390B2100180B2000F80A1F00D999
:100990000A1E00BB0A1E009D0A1D00800A1D00637E
:1009A0000A1C00470A1B002C0A1B00110A1A00F738
:1009B000091A00DD091900C4091900AB09190092D0
:1009C0000917007B091800630917004C0916003647
:1009D000091600200916000A091500F5081500E09F
:1009E000081400CC081400B8081400A408140090DF
:1009F0000813007D0812006B081300580812004607
:100A00000812003408110023081100120811000117
:100A1000081100F0071000E0071000D0071000C018
:100A2000071000B0070F00A107100091070E008308
:100A3000070F0074070F0065070E0057070E0049E7
:100A4000070E003B070D002E070E0020070D0013B8
:100A5000070D0006070D00F9060C00ED060D00E07D
:100A6000060C00D4060C00C8060C00BC060C00B036
:100A7000060C00A4060B0099060C008D060B0082E4
:100A8000060B0077060B006C060B0061060A005788
:100A9000060B004C060A0042060A0038060A002E21
:100AA000060A0024060A001A060A001006090007B2
:100AB000060A00FD050900F4050900EB050900E23E
:100AC000050900D9050900D0050900C7050900BEC0
:100AD000050900B5050800AD050800A50509009C3D
:100AE000050800940508008C050800840508007CB2
:100AF000050800740508006C050700650508005D21
:100B0000050700560508004E050700470507004089
:100B100005080038050700310507002A05070023EE
:100B20000507001C050600160507000F050700084D
:100B300005060002050700FB040600F5040700EEA9
:100B4000040600E8040600E2040700DB040600D502
:100B5000040600CF040600C9040600C3040600BD55
:100B6000040600B7040600B1040500AC040600A6A4
:100B7000040600A00405009B0406009504050090EF
:100B80000406008A04050085040500800406007A36
:100B900004050075040500700405006B040500667B
:100BA000040500610405005C0405005704050052BB
:100BB0000405004D04050048040500430405003EFB
:100BC0000404003A04050035040500300404002C38
:100BD00004050027040400230405001E0404001A71
:100BE00004040016040500110404000D04040009A7
:100BF0000405000404040000040400FC030400F8DD
:100C0000030400F4030400F0030400EC030400E810
:100C1000030400E4030400E0030400DC030400D840
:100C2000030400D4030400D0030400CC030400C870
:100C3000030300C503030024F404D9201BC40C5C87
:100C40000E9804C4095F0265077101F405F900FB01
:100C500004B30048048700C103690058035500032A
:100C6000034500BE023A008402310053022A0029E3
:100C700002250004022000E4011C00C8011900AF95
:100C80000117009801140084011300710110006124
:100C900001100051010E0043010D0036010B002B25
:100CA000010B0020010B00150109000C01090003D4
:100CB000010800FB000800F3000800EB000700E457
:100CC000000600DE000600D8000600D2000600CCB8
:100CD000000500C7000500C2000500BD000400B902
:100CE000000400B5000400B1000400AD000400A938
:100CF000000400A5000300A20003009F0004009B65
:100D00000003009800030095000200930003009088
:100D10000003008D0002008B0003008800020086A3
:100D200000020084000300810002007F0002007DB9
:100D30000002007B000200790002007700010076CB
:100D40000002007400020072000100710002006FD6
:100D50000002006D0001006C0002006A00010069E1
:100D600000020067000100660001006500010064E8
:100D70000002006200010061000100600001005FEC
:100D80000002005D0001005C0001005B0001005AF0
:100D900000010059000100580001005700010056F1
:100DA00000010055000100540001005300000053F1
:100DB0000001005200010051000100500001004FED
:100DC0000001004E0000004E0001004D0001004CEB
:100DD0000001004B0000004B0001004A00010049E7
:100DE00000010048000000480001004700010046E3
:100DF00000000046000100450000004500010044DD
:100E000000010043000000430001004200000042D6
:100E10000001004100000041000100400001003FCE
:100E20000000003F0001003E0000003E0001003DC8
:100E30000000003D0001003C0000003C0000003CC0
:100E40000001003B0000003B0001003A0000003AB6
:100E500000010039000000390001003800000038AE
:100E600000000038000100370000003700010036A4
:100E7000000000360000003600010035000000359B
:100E80000000003500010034000000340000003490
:100E90000001003300000033000000330001003285
:100EA000000000320000003200010031000000317B
:100EB0000000003100010030000000300000003070
:100EC0000001002F0000002F0000002F0000002F65
:100ED0000001002E0000002E0000002E0001002D59
:100EE0000000002D0000002D0000002D0001002C4E
:100EF0000000002C0000002C0000002C0001002B42
:100F00000000002B0000002B0000002B0001002A35
:100F10000000002A0000002A0000002A0001002929
:100F2000000000290000002900000029000000291D
:100F30000001002800000028000000280000002810
:100F40000000002800010027000000270000002703
:100F500000000027000000270001002600000026F6
:100F600000000026000000260000002600010025E9
:100F700000000025000000250000002500000025DD
:100F800000000025000100240000002400000024CF
:100F900000000024000000240001002300000023C2
:100FA00000000023000000230000002300000023B5
:100FB00000000023000100220000002200000022A7
:100FC0000000002200000022000000220001002199
:100FD000000000210000002100000021000000218D
:100FE000000000210000002100010020000000207E
:100FF0000000002000000020000000200000002071
:1010000000000020000000200001001F0000001F61
:101010000000001F0000001F0000001F0000001F54
:101020000000001F0001001E0000001E0000001E46
:101030000000001E0000003930000033250000874A
:10104000190000B00F0000DB080000BD04000074B0
:101050000200003F01000020746F6F206C6F6E670C
:1010600020657874727573696F6E2070726576652D
:101070006E7465640A0020636F6C64206578747216
:101080007573696F6E2070726576656E7465640A3B
:101090000057726974696E6720746F2066696C65A9
:1010A0003A20006F70656E206661696C65642C2063
:1010B00046696C653A20006F70656E206661696CE8
:1010C00065642C2046696C653A200046696C652091
:1010D00073656C65637465640A002053697A653AC8
:1010E000200046696C65206F70656E65643A20006B
:1010F0002066696C653A2000646F696E67006672ED
:10110000657368004E6F772000454E44205355426A
:10111000524F5554494E450A002220706F730022E9
:1011200020706172656E743A2200535542524F55D9
:1011300054494E452043414C4C207461726765749C
:101140003A22004B494C4C45442E20007472796978
:101150006E6720746F2063616C6C207375622D67FD
:10116000636F64652066696C6573207769746820B5
:10117000746F6F206D616E79206C6576656C732E6F
:10118000204D4158206C6576656C2069733A0045A6
:1011900072726F723A006F70656E206661696C657D
:1011A000642C2046696C653A200043616E6E6F7452
:1011B000206F70656E2073756264697220006563CC
:1011C000686F3A00001C1F11111F0000000619185B
:1011D00003130C00040E1F041C000000000E131566
:1011E000110E00001C10181705060500040A0A0A53
:1011F0000A11110E0C12120C00000000001F151134
:10120000151F000025753A253032750025303275DE
:101210003A25303275002D2D2D005344002020201A
:101220002020200020202020004E4C204247313139
:101230002052656164792E005072696E74696E6720
:101240002E2E2E005072696E742070617573656465
:10125000005072696E742061626F72746564005030
:1012600072696E742066726F6D2053440053746F00
:1012700070207072696E7400526573756D652070B0
:1012800072696E74004E6F20534420636172640073
:101290005061757365207072696E7400436F6E746F
:1012A000726F6C00507265706172650054756E6586
:1012B00000496E666F2073637265656E0050726FD1
:1012C0006265205A204F66667365740050726F62C3
:1012D00065205A204F666673657400466C6F770010
:1012E000466C6F7700466C6F770046616E207370B6
:1012F0006565640046616E207370656564004661D3
:101300006E20737065656400426564004265640028
:10131000426564004E6F7A7A6C65004E6F7A7A6C23
:1013200065004E6F7A7A6C65004661646520486599
:101330006967687400466164652048656967687418
:10134000004661646520486569676874005370658C
:101350006564005370656564005370656564004D95
:1013600061696E00436172642072656D6F766564B9
:10137000004361726420696E736572746564002055
:10138000573A004520436F6F6C696E672E2E2E0012
:10139000452048656174696E672E2E2E0020573AED
:1013A0000042656420636F6F6C696E672E2E2E009D
:1013B0004265642068656174696E672E2E2E002078
:1013C0005A3A0020593A0020436F756E7420583AFB
:1013D0000020453A00205A3A0020593A00583A0075
:1013E0003A004361703A00205A002059005800200A
:1013F000204D61783A2000205A00205900580020E2
:10140000204D696E3A20004F6E20004F66660053F3
:101410006F667420656E6473746F70733A20002376
:10142000646566696E652044454641554C545F4B82
:1014300064200023646566696E6520444546415515
:101440004C545F4B69200023646566696E652044D7
:10145000454641554C545F4B702000504944204153
:1014600075746F74756E652066696E6973686564FE
:10147000212050757420746865206C617374204B52
:10148000702C204B6920616E64204B6420636F6E6A
:101490007374616E74732066726F6D2062656C6F19
:1014A0007720696E746F20436F6E6669677572612D
:1014B00074696F6E2E680A00504944204175746F3C
:1014C00074756E65206661696C6564212074696D50
:1014D000656F75740A00453120544845524D414CA2
:1014E0002052554E4157415900546865726D616CE8
:1014F0002052756E617761790045312048656174CD
:10150000696E67206661696C65640048656174692D
:101510006E67206661696C656400504944204175BE
:10152000746F74756E65206661696C656421205402
:10153000656D706572617475726520746F6F206877
:101540006967680A00204B643A2000204B693A2002
:1015500000204B703A20000A20436C61737369636A
:1015600020504944200A002054753A2000204B7531
:101570003A2000206D61783A2000206D696E3A2093
:101580000020643A200020626961733A20005049CB
:1015900044204175746F74756E65206661696C6571
:1015A00064212042616420657874727564657220DC
:1015B0006E756D6265720A00504944204175746F02
:1015C00074756E652073746172740A004F66660AE2
:1015D000004661646520486569676874200042655B
:1015E00064204C6576656C696E6720004661696CA5
:1015F000656420746F20656E61626C65204265646D
:10160000204C6576656C696E670A004265642068E7
:10161000656174696E67206661696C656400486520
:101620006174696E67206661696C6564004531208C
:1016300048656174696E67206661696C656400481D
:10164000656174696E67206661696C65640070012C
:101650002C0190012701B0012201C0011D01F00100
:1016600018011002130130020E01600209019002FC
:101670000401C002FF000003FA004003F5008003EC
:10168000F000D003EB002004E6007004E100E00469
:10169000DC004005D700C005D2004006CD00D006D2
:1016A000C8008007C3003008BE00F008B900C009B8
:1016B000B400B00AAF00B00BAA00D00CA500000E19
:1016C000A000500F9B00C010960050129100001413
:1016D0008C00C0158700B0178200B0197D00D01BA8
:1016E0007800001E730040206E0090226900F024F4
:1016F000640040275F0090295A00E02B5500102E0F
:10170000500020304B0010324600E033410090354D
:101710003C001037370070383200A0392D00B03A45
:101720002800A03B2300603C1E00103D1900903DA6
:101730001400103E0F00703E0A00C03E0500003F3E
:101740000000403FFBFF803FF6FFC03FF1FF453107
:1017500020544845524D414C2052554E4157415915
:101760000042454420544845524D414C2052554E6C
:101770004157415900546865726D616C2052756E15
:1017800061776179004531204572723A204D4158A8
:1017900054454D50004572723A204D415854454DC4
:1017A0005020424544004D415854454D50207472DC
:1017B00069676765726564004531204572723A2039
:1017C0004D494E54454D50004572723A204D494E98
:1017D00054454D5020424544004D494E54454D50CE
:1017E00020747269676765726564004D38342058EB
:1017F0002059205A204500202F002042403A002046
:10180000403A0042696C696E656172204C6576658C
:101810006C696E6720477269643A0A00486F6D69A7
:101820006E67206661696C65640047322F4733201C
:1018300062616420706172616D65746572730A0023
:10184000202844525952554E2900473239204175BB
:10185000746F20426564204C6576656C696E670024
:101860003F20284C2C522C462C4229206F75742086
:101870006F6620626F756E64732E0A003F285629CA
:101880006572626F7365206C6576656C2069732084
:10189000696D706C61757369626C652028302D34D8
:1018A000292E0A00426164205A2076616C75650A0F
:1018B000004E6F2062696C696E65617220677269A3
:1018C000640A0000000000010204040000001C1C67
:1018D0000C040404020100000000000408100000D1
:1018E0000000002D2D2D2D2D2D007C4D61726C6979
:1018F0006E7C002D2D2D2D2D2D00687474703A2FC7
:101900002F6D61726C696E66772E6F7267006874F6
:1019100074703A2F2F6D61726C696E66772E6F72DC
:10192000670020312E312E39002020506C616E6E00
:10193000657242756666657242797465733A200015
:101940002046726565204D656D6F72793A200043BF
:101950006F6D70696C65643A204A756C2020382080
:10196000323031390A00207C20417574686F723A38
:10197000205061756C2043686173652026204A6F92
:10198000686E204C696E6B0A00323031382D303869
:101990002D303100204C6173742055706461746582
:1019A000643A2000312E312E390A004D61726C6983
:1019B0006E0020536F66747761726520526573659F
:1019C000740A00205761746368646F6720526573FE
:1019D00065740A002042726F776E206F7574205212
:1019E000657365740A002045787465726E616C20B9
:1019F00052657365740A00506F77657255700A00FE
:101A000073746172740A006175746F25692E6700C2
:101A10006572726F722077726974696E6720746F75
:101A20002066696C650A00456E6473746F7073207C
:101A3000256320256320256320256300205A3A0072
:101A400020593A0020583A00656E6473746F7073C1
:101A5000206869743A2000446F6E6520736176696E
:101A60006E672066696C652E0A004D323900457834
:101A7000747275646572004D6F7665205A004D6F03
:101A800076652059004D6F7665205800507265705C
:101A900061726500496E697469616C697A65204597
:101AA0004550524F4D00436F6E74726F6C0052651B
:101AB00073746F7265206661696C73616665004C52
:101AC0006F61642073657474696E677300496E6931
:101AD0007469616C697A6520454550524F4D0053D9
:101AE000746F72652073657474696E6773004669FC
:101AF0006C616D656E74004D6F74696F6E00546536
:101B00006D7065726174757265004D61696E00502B
:101B10007265686561742041425320636F6E660090
:101B20005072656865617420504C4120636F6E6629
:101B3000005049442D44005049442D44005049442C
:101B40002D49005049442D49005049442D50005022
:101B500049442D5000200220466163740020022079
:101B600046616374002002204D6178002002204D00
:101B70006178002002204D6178002002204D696EBE
:101B8000002002204D696E002002204D696E004F3A
:101B90006666004F6E20004175746F74656D70004D
:101BA00046616E2073706565640046616E207370D7
:101BB0006565640046616E2073706565640042650A
:101BC000640042656400426564004E6F7A7A6C6519
:101BD000004E6F7A7A6C65004E6F7A7A6C650043BE
:101BE0006F6E74726F6C0053746F726520736574DE
:101BF00074696E6773004265640042656400426503
:101C000064004E6F7A7A6C65004E6F7A7A6C65006C
:101C10004E6F7A7A6C650046616E207370656564FC
:101C20000046616E2073706565640046616E2073C6
:101C3000706565640054656D706572617475726578
:101C4000004D3234004D323320257300556E6B6EDB
:101C50006F776E20636F6D6D616E643A2022005065
:101C6000726F62696E67206661696C65640A005014
:101C7000726F62696E67206661696C656400205AE4
:101C80003A200020593A200042656420583A20004A
:101C9000486F6D65202573257325732066697273FF
:101CA00074002066697273740A005A005900580063
:101CB000486F6D65200053442063617264206F6B30
:101CC0000A006F70656E526F6F74206661696C6593
:101CD000640A00766F6C756D652E696E6974206696
:101CE00061696C65640A00534420696E69742066FA
:101CF00061696C0A0020746F6F206C6F6E672065DD
:101D00007874727573696F6E2070726576656E7423
:101D100065640A0020636F6C642065787472757363
:101D2000696F6E2070726576656E7465640A006214
:101D30007573793A2070617573656420666F7220DF
:101D4000696E7075740A00627573793A20706175F6
:101D500073656420666F7220757365720A00627520
:101D600073793A2070726F63657373696E670A00E6
:101D70004B494C4C45442E20004B494C4C20636150
:101D800075736564206279204B494C4C20627574F0
:101D9000746F6E2F70696E0A004B494C4C45442E8F
:101DA00020004B494C4C2063617573656420627957
:101DB00020746F6F206D75636820696E616374694C
:101DC00076652074696D65202D2063757272656E6D
:101DD0007420636F6D6D616E643A2000506C6561B4
:101DE0007365207265736574005052494E544552B4
:101DF0002048414C544544005072696E746572200D
:101E000068616C7465642E206B696C6C2829206392
:101E1000616C6C6564210A00656E71756575656934
:101E20006E6720220000000000000040C10000009A
:101E30000000004842000048420000A040000000AE
:101E4000005761726E696E673A20486F6D696E6700
:101E50002042756D702044697669736F72203C2052
:101E6000310A000202040000A0400000A04000006F
:101E70000040000048430000484300004843FFFF83
:101E8000FF46696C652064656C657465643A00445E
:101E9000656C6574696F6E206661696C65642C2081
:101EA00046696C653A200050726F746563746564AE
:101EB0002050696E0A005374616E6461726420443C
:101EC0006576696174696F6E3A20002052616E67B1
:101ED000653A2000204D61783A2000204D696E3A25
:101EE00020004D65616E3A200046696E6973686531
:101EF00064210A002072616E67653A2000206D61DE
:101F0000783A2000206D696E3A2000207369676D71
:101F1000613A2000206D65616E3A20003A207A3ADD
:101F20002000206F662000205A0020590020580011
:101F3000476F696E6720746F3A00436C6F636B770D
:101F40006973650A00436F756E7465722D002044D5
:101F50006972656374696F6E3A2000202020616E9B
:101F6000676C653A20005374617274696E67207201
:101F700061646975733A2000506F736974696F6E9C
:101F8000696E67207468652070726F62652E2E2EF0
:101F90000A003F4E756D626572206F66206C656742
:101FA0007320696E206D6F76656D656E74206E6F3F
:101FB0007420706C61757369626C652028302D31F6
:101FC00035292E0A003F2028582C5929206F757476
:101FD000206F6620626F756E64732E0A003F536136
:101FE0006D706C652073697A65206E6F7420706CFB
:101FF00061757369626C652028342D3530292E0A8D
:10200000004D3438205A2D50726F62652052657031
:102010006561746162696C69747920546573740ACE
:10202000003F2856296572626F7365206C6576657E
:102030006C20697320696D706C61757369626C6581
:102040002028302D34292E0A0046696C616D656E9A
:102050007420757365643A200053746174733A2078
:10206000002C204C6F6E67657374206A6F623A2093
:1020700000546F74616C2074696D653A200053746C
:102080006174733A20002C204661696C65643A20C3
:10209000002C2046696E69736865643A20005072AE
:1020A000696E74733A200053746174733A2000456A
:1020B00073746570732F6D6D004573746570732F45
:1020C0006D6D005A73746570732F6D6D005A737463
:1020D0006570732F6D6D005973746570732F6D6D1E
:1020E000005973746570732F6D6D0058737465704B
:1020F000732F6D6D005873746570732F6D6D004D87
:102100006F74696F6E0053746570732F6D6D004A44
:1021100065726B00416363656C65726174696F6EB3
:102120000056656C6F636974790050726F62652048
:102130005A204F666673657400436F6E74726F6CDD
:102140000046696C2E204469612E0046696C2E2081
:102150004469612E004F6666004F6E20004520697D
:102160006E206D6D3300436F6E74726F6C0043614F
:102170006E6E6F7420656E7465722073756264692B
:10218000723A2000052E2E004D61696E0050726576
:102190006865617420504C4120456E640050726542
:1021A0006865617420504C4120426564005072653E
:1021B0006865617420504C410050726570617265B1
:1021C00000507265686561742041425320456E6419
:1021D0000050726568656174204142532042656415
:1021E0000050726568656174204142530050726509
:1021F00070617265004D34323800507265686561F7
:102200007420504C4100436F6F6C646F776E0050C8
:10221000726568656174204142530044697361626C
:102220006C65207374657070657273004D3834008E
:1022300053657420686F6D65206F6666736574738F
:10224000004661646520486569676874004661649A
:102250006520486569676874004661646520486563
:1022600069676874004F6666004F6E2000426564BF
:10227000204C6576656C696E67004C6576656C20F0
:10228000626564004732380A473239004175746F1D
:1022900020686F6D6500473238004D6F76652061AC
:1022A000786973004D61696E004D6F766520580046
:1022B0004D6F76652059004D6F7665205A00457840
:1022C000747275646572004D6F766520302E316DC5
:1022D0006D004D6F766520316D6D004D6F76652018
:1022E00031306D6D004D6F76652061786973004502
:1022F00078747275646572004D6F7665205A004D72
:102300006F76652059004D6F766520580045455021
:10231000524F4D206461746173697A6520657272F1
:102320006F722E0A00290A002062797465733B20BF
:10233000637263200053657474696E67732053740D
:102340006F726564202800290A0020627974657321
:102350003B2063726320002073746F726564207386
:10236000657474696E6773207265747269657665E9
:1023700064202800202863616C63756C6174656457
:1023800029210A0020213D2000454550524F4D2073
:10239000435243206D69736D61746368202D20285A
:1023A00073746F7265642920002053697A653A203E
:1023B00000496E6465783A2000204D61726C696E48
:1023C0003D563535290A0028454550524F4D3D00B0
:1023D000454550524F4D2076657273696F6E206D82
:1023E00069736D61746368200000002110422063EE
:1023F000308440A550C660E770088129914AA16BDE
:10240000B18CC1ADD1CEE1EFF13112100273325275
:1024100022B5529442F772D662399318837BB35A2D
:10242000A3BDD39CC3FFF3DEE36224433420040145
:1024300014E664C774A44485546AA54BB52885097D
:1024400095EEE5CFF5ACC58DD55336722611163015
:1024500006D776F6669556B4465BB77AA7199738CD
:1024600087DFF7FEE79DD7BCC7C448E5588668A755
:10247000784008611802282338CCC9EDD98EE9AF1D
:10248000F9488969990AA92BB9F55AD44AB77A96B5
:102490006A711A500A333A122AFDDBDCCBBFFB9E6D
:1024A000EB799B588B3BBB1AABA66C877CE44CC585
:1024B0005C222C033C600C411CAEED8FFDECCDCDBD
:1024C000DD2AAD0BBD688D499D977EB66ED55EF455
:1024D0004E133E322E511E700E9FFFBEEFDDDFFC0D
:1024E000CF1BBF3AAF599F788F8891A981CAB1EBB2
:1024F000A10CD12DC14EF16FE18010A100C230E3DB
:10250000200450254046706760B9839893FBA3DA96
:10251000B33DC31CD37FE35EF3B1029012F322D22A
:10252000323542145277625672EAB5CBA5A8958926
:10253000856EF54FE52CD50DC5E234C324A014817A
:10254000046674476424540544DBA7FAB79987B836
:10255000975FE77EF71DC73CD7D326F2369106B0CA
:102560001657667676154634564CD96DC90EF92F36
:10257000E9C899E9898AB9ABA9445865480678271A
:1025800068C018E1088238A3287DCB5CDB3FEB1ED6
:10259000FBF98BD89BBBAB9ABB754A545A376A166A
:1025A0007AF10AD01AB32A923A2EFD0FED6CDD4D66
:1025B000CDAABD8BADE89DC98D267C076C645C45BA
:1025C0004CA23C832CE01CC10C1FEF3EFF5DCF7C76
:1025D000DF9BAFBABFD98FF89F176E367E554E740A
:1025E0005E932EB23ED10EF01E7C3C3E5E2B3D3FF4
:1025F0002F5B5D3B2C2A225C005654726176206D65
:10260000696E005654726176206D696E0056547280
:102610006176206D696E00566D696E00566D696E4B
:1026200000566D696E00566D6178204500566D61EB
:1026300078204500566D6178204500566D61782000
:102640005A00566D6178205A00566D6178205A0004
:10265000566D6178205900566D6178205900566D8D
:102660006178205900566D6178205800566D617868
:10267000205800566D61782058004D6F74696F6E58
:1026800000416D6178204500416D61782045004131
:102690006D6178205A00416D6178205A00416D616A
:1026A00078205900416D6178205900416D61782092
:1026B0005800416D6178205800412D747261766533
:1026C0006C00412D74726176656C00412D726574E9
:1026D0007261637400412D726574726163740041AC
:1026E0006363656C00416363656C004D6F74696F73
:1026F0006E0056652D6A65726B0056652D6A6572AF
:102700006B0056652D6A65726B00567A2D6A65728C
:102710006B00567A2D6A65726B0056792D6A657268
:102720006B0056792D6A65726B0056792D6A657259
:102730006B0056782D6A65726B0056782D6A65724B
:102740006B0056782D6A65726B004D6F74696F6E01
:1027500000FFFDFCFAF8F6F4F2F0EEECEAE9E7E54A
:10276000E3E1E0DEDCDAD9D7D5D4D2D0CFCDCBCA05
:10277000C8C7C5C3C2C0BFBDBCBAB9B7B6B4B3B28F
:10278000B0AFADACAAA9A8A6A5A4A2A1A09E9D9CED
:102790009A99989795949392908F8E8D8B8A898829
:1027A000878684838281807F7E7D7B7A7978777645
:1027B0007574737271706F6E6D6C6B6A6968676641
:1027C0006564636261605F5E5D5C5B5A595858572F
:1027D00056555453525150504F4E4D4C4B4A4A4906
:1027E00048474646454443424241403F3E3E3D3CC9
:1027F0003B3B3A393838373635353433323231307D
:10280000302F2E2E2D2C2B2B2A2929282727262521
:102810002524232322212120201F1E1E1D1C1C1BBA
:102820001B1A191918181716161515141313121246
:102830001111100F0F0E0E0D0D0C0C0B0A0A0909C9
:102840000808070706060505040403030202010041
:102850000048617264636F646564204465666175F5
:102860006C742053657474696E6773204C6F616477
:1028700065640A00B80B0000B80B0000C800000037
:10288000102700000000C8430000C843000020419A
:10289000000048420000A0420000A04200007A452B
:1028A00000001B433A0A0020286D6D290020204DAE
:1028B000383531205A005A2D50726F6265204F66AC
:1028C000667365740020440020490020204D333099
:1028D000312050005049442073657474696E6773E9
:1028E0003A0A0020460020420020480020204D31B6
:1028F00034352053004D6174657269616C206865E0
:102900006174757020706172616D65746572733A7F
:102910000A00205A00204A00202047323920572040
:102920004900205A0020204D343230205300417598
:10293000746F20426564204C6576656C696E673AF9
:102940000A00205A0020590020204D3230362058ED
:1029500000486F6D65206F66667365743A0A0020E3
:102960004500205A002059002058002054002053D0
:102970000020204D32303520510020453C6D6178DB
:102980005F655F6A65726B3E0020583C6D61785FE1
:10299000785F6A65726B3E20593C6D61785F795F44
:1029A0006A65726B3E205A3C6D61785F7A5F6A653A
:1029B000726B3E00416476616E6365643A20513CFF
:1029C0006D696E5F7365676D656E745F74696D6563
:1029D0005F75733E20533C6D696E5F66656564721A
:1029E0006174653E20543C6D696E5F7472617665FA
:1029F0006C5F66656564726174653E0020540020FA
:102A0000520020204D323034205000416363656C09
:102A100065726174696F6E2028756E6974732F73A7
:102A200032293A20503C7072696E745F616363654D
:102A30006C3E20523C726574726163745F616363C3
:102A4000656C3E20543C74726176656C5F616363B3
:102A5000656C3E0A00204500205A002059002020C5
:102A60004D3230312058004D6178696D756D2041CF
:102A70006363656C65726174696F6E2028756E6939
:102A800074732F7332293A0A00204500205A00201F
:102A9000590020204D3230332058004D6178696D47
:102AA000756D206665656472617465732028756E46
:102AB0006974732F73293A0A00204500205A0020B8
:102AC000590020204D39322058005374657073200E
:102AD00070657220756E69743A0A0020204D32309C
:102AE000302044300A0020204D3230302044002075
:102AF00044697361626C65640A0046696C616D6566
:102B00006E742073657474696E67733A0020204D8B
:102B10003134392043203B20556E69747320696E2F
:102B20002043656C736975730A0020204732312099
:102B30002020203B00545249474745524544006FEE
:102B400070656E003A20007A5F6D696E00795F6D86
:102B5000696E00785F6D696E005265706F7274699E
:102B60006E6720656E6473746F7020737461747522
:102B7000730A000000000100000001000080005501
:102B80005555000000400033333300AAAA2A0049FB
:102B900092240000002000C7711C0099991900D1EF
:102BA000451700555515003BB1130024491200117B
:102BB000111100000010000F0F0F00E3380E00434A
:102BC000790D00CCCC0C00C3300C00E8A20B0064E3
:102BD000210B00AAAA0A00703D0A009DD8090042F4
:102BE0007B090092240900DCD308008888080010C3
:102BF00042080000000800F0C10700878707007541
:102C0000500700711C07003EEB0600A1BC060069DE
:102C100090060066660600703E0600611806001702
:102C2000F4050074D105005BB00500B290050062A8
:102C30007205005555050078390500B81E050005D8
:102C40000505004EEC040087D40400A1BD040090EB
:102C5000A7040049920400C17D0400EE690400C786
:102C6000560400444404005C32040008210400417E
:102C7000100400000004003FF00300F8E003002609
:102C8000D20300C3C30300CCB503003AA803000A73
:102C90009B0300388E0300C08103009F750300D0A2
:102CA000690300505E03001D530300344803009184
:102CB0003D03003333030016290300381F03009738
:102CC000150300300C0300030303000BFA02004954
:102CD000F10200BAE802005CE002002DD802002DEB
:102CE000D0020059C80200B0C0020031B90200DAB7
:102CF000B10200AAAA0200A0A30200BC9C0200FA32
:102D00009502005C8F0200DF88020082820200458B
:102D10007C02002776020027700200436A02007CD2
:102D2000640200D05E02003F590200C85302004511
:102D300072726F722077726974696E6720746F2087
:102D4000454550524F4D210A000000210024002724
:102D5000002A002D003000330001010000040107AB
:102D6000010A0100002200250028002B002E00315E
:102D700000340002010000050108010B01000020E1
:102D8000002300260029002C002F00320000010043
:102D900000030106010901050505050705080808E6
:102DA00008020202020A0A080804040404010101DC
:102DB00001010101010303030303030303040707E4
:102DC000070C0C0C0C0C0C0C0C0202020206060682
:102DD00006060606060B0B0B0B0B0B0B0B0102106A
:102DE0002020080810204010204080020102010825
:102DF00004020101020408102040808040201008D5
:102E0000040201800402018040201008040201082D
:102E1000040201010204081020408001020408108D
:102E200020408000000A0B02090C0D0E0807030465
:102E30000100000000000000000000000000000091
:102E40000000000000000000000000000000001270
:102E50001110000000000000000000000000000051
:102E6000000000000000000000526573656E643AC7
:102E700020006F6B0007FFFFFFFFFF000101010152
:102E8000016265640A002C2073797374656D207388
:102E9000746F7070656421204865617465725F4964
:102EA000443A2000B6F532FF11241FBECFEFD1E225
:102EB000DEBFCDBF00E00CBF13E0A0E0B2E0E2EA6D
:102EC000F9E102E00BBF02C007900D92A435B107F3
:102ED000D9F724E1A4E5B3E001C01D92A032B20706
:102EE000E1F717E1C3E5D7E100E006C0219701094A
:102EF000802FFE010F94350CC235D10780E0080702
:102F0000A9F70E94F6F80D94C00C0C9400002F92C3
:102F10003F924F925F926F927F928F929F92AF9269
:102F2000BF92CF92DF92EF92FF920F931F93CF93B6
:102F3000DF93CDB7DEB7AD970FB6F894DEBF0FBE07
:102F4000CDBF11E01093250C80913F138D3409F40F
:102F5000FEC3843511F40C943329873411F00C949A
:102F60007D2920913D1330913E132B31310509F419
:102F7000C2C08CF42430310534F42230310594F58C
:102F800037FF29C0E0C324303105A9F12C303105C9
:102F900009F46FC0D8C32A32310509F42FC25CF49A
:102FA0002D31310509F451C10CF438C12E313105F0
:102FB00009F44FC1C8C32B35310509F4F7C22C35CC
:102FC000310509F4F7C22A35310509F0BCC3109266
:102FD00058030C947F298091560281110C94842906
:102FE0000C947F2981E02230310509F080E00E94B5
:102FF0002F7F0C947F2980E50E942831882329F0B7
:103000000E946C306B017C0103C0C12CD12C760175
:1030100083E50E942831882361F00E94AC3020E0D3
:1030200030E04AE754E40F942E050F948F0A6B01A9
:103030007C010E94C54D80912F04811105C060E084
:1030400089ED91E00E942D650E940EF0C60ED71EFC
:10305000E81EF91E0E940EF0DC01CB018C199D09BF
:10306000AE09BF09B7FD02C00C947F290E9437A0AA
:10307000F1CF0E94369881110C947F2980E50E943F
:103080002831882319F00E947C3001C060E068A7D5
:1030900083E50E942831882319F00E947C3001C00A
:1030A0006CE06CA384E50E942831882319F00E940B
:1030B0007C3001C063E068A382E50E942831882348
:1030C00019F00E94AC3004C060E070E080ED90E444
:1030D00069837A838B839C839E01205E3F4FAE0180
:1030E0004F5F5F4FBE016C5D7F4FCE0188960E949F
:1030F00031E50C947F290E94369881110C947F2928
:1031000080E090E0A0E2B1E489839A83AB83BC8342
:1031100080E090E0AEE3B3E48D839E83AF83B88715
:1031200080E090E0A0EAB1E489879A87AB87BC870A
:1031300080E50E942831882319F00E947C3001C06C
:1031400060E080E090E0A8ECB2E488A799A7AAA785
:10315000BBA780E090E0A0EAB0E48CA39DA3AEA35F
:10316000BFA3613019F0623039F029C0BE016C5D37
:103170007F4FCE01099644C029853A854B855C85F1
:103180006091100A7091110A8091120A9091130AAD
:103190000F9446096B017C0120E030E048E453E4E1
:1031A0000F94C90487FD06C0C12CD12C58E4E52E2C
:1031B00053E4F52EC8A2D9A2EAA2FBA21CC0E0905B
:1031C000100AF090110A0091120A1091130AA984B2
:1031D000BA84CB84DC849501A601B701C8010F94A1
:1031E000C90487FF02C075018601C701D80188A301
:1031F00099A3AAA3BBA3BE016C5D7F4FCE018096AD
:103200000E94962DAE01485D5F4FBE016B5F7F4F00
:10321000CE0101960E94752D0C947F298091F709AB
:103220008770873011F00C9489298FE40E9428312F
:10323000882319F00E949D3003C08FE40E94DF3084
:1032400081110C947F290C9489290E94B6860C94D4
:103250007F29C090080AD090090AE0900A0AF090ED
:103260000B0A88E50E942831811109C020E030E076
:1032700040EF51E4C701B6010F94450902C00E9416
:10328000AC3068A379A38AA39BA3C0900C0AD0900A
:103290000D0AE0900E0AF0900F0A89E50E9428318D
:1032A000811109C020E030E040E451E4C701B601DB
:1032B0000F94460902C00E94AC309B01AC016983A7
:1032C0007A838B839C8368A179A18AA19BA10E94A8
:1032D000469F882311F40C947F2980E00E94562F8A
:1032E0000E94662C85E40E942831882321F00E94E8
:1032F0009D30182F04C085E40E94DF3011E086E580
:103300000E942831882321F00E947C30262F01C0A2
:1033100021E0412FBE016F5F7F4FCE0180960E945A
:10332000DF986B017C019B01AC010F94F20B8111C2
:103330005FC088A099A0AAA0BBA020E030E0A901AE
:10334000C501B4010F94C90487FF05C027E137EB1D
:1033500041E558EB04C027E137EB41E558E3C501EF
:10336000B4010F944609AB01BC0189E092E00E94D0
:10337000CBD789809A80AB80BC8020E030E0A90167
:10338000C501B4010F94C90487FF05C027E137EBDD
:1033900041E558EB04C027E137EB41E558E3C501AF
:1033A000B4010F944609AB01BC0184E092E00E9495
:1033B000CBD720E030E0A901C701B6010F94C904C2
:1033C00087FF05C027E137EB41E558EB04C027E153
:1033D00037EB41E558E3C701B6010F944609AB014D
:1033E000BC018FEF91E00E94CBD78AE00E9420328F
:1033F0000E944D2C0E94496E0C947F2980915602A8
:10340000882311F40C947F2989E40E942831082F25
:10341000882321F00E947C30E62E01C0E12C8AE452
:103420000E942831182F882321F00E947C30F62E2C
:1034300001C0F12C002319F022E02E1528F01123F1
:1034400089F032E03F1570F4E1E1F2E084918F0100
:103450000F5F1F4F882311F40C947F290E942032A4
:10346000F801F4CF0E9416320023F1F02091920C63
:103470003091930C4E2D4203B001439F700D1124E7
:103480008091AD0C9091AE0C680F791F072E000C47
:10349000880B990B0F94CF0460933F0C7093400CF2
:1034A0008093410C9093420C1123F1F02091940CE5
:1034B0003091950C4F2D4203B001439F700D1124A4
:1034C0008091AF0C9091B00C680F791F072E000C03
:1034D000880B990B0F94CF046093430C7093440CAA
:1034E0008093450C9093460C80E50E9428318823F8
:1034F000E9F00E949D308823A9F10023D9F020E053
:1035000030E040EF51E460913F0C7091400C8091AD
:10351000410C9091420C0F94460960933F0C7093BC
:10352000400C8093410C9093420C04C080E50E94B3
:10353000DF30E1CF1123B1F020E030E040E451E48E
:103540006091430C7091440C8091450C9091460C15
:103550000F9445096093430C7093440C8093450C81
:103560009093460C86E40E9428318823D9F00E946B
:10357000AC306B017C0120E030E0A9010F946C0BB2
:10358000181684F420E030E040E752E4C701B601A9
:103590000F94220A609331027093320280933302B7
:1035A000909334020E94C5A30C947F291093580372
:1035B0000C947F299BE5292E92E0392E23E3E22EFD
:1035C0002CE0F22E88E09AE09DA78CA738EFC32E5E
:1035D00039E0D32E00E010E0F10181911F010E943B
:1035E0002831882309F44AC00E94AC302B013C01E9
:1035F000133049F0F60120813181428153810F94CB
:1036000045092B013C01ECA5FDA5208131814281BA
:103610005381C301B2010F9445094B015C012DEBAD
:1036200037E346E855EB0F946C0B87FD0AC02DEB92
:1036300037E346E855E3C501B4010F94C9041816F1
:10364000ECF4133051F44092140A5092150A60922F
:10365000160A7092170A01E011C0A5019401F70142
:1036600060817181828193810F944609F7016083A3
:10367000718382839383812F0E94542E1F5FF4E015
:10368000EF0EF11C2CA53DA52C5F3F4F3DA72CA7AD
:1036900034E0C30ED11C143009F09ECF002309F48E
:1036A0004EC020E030E0A9016091140A7091150A23
:1036B0008091160A9091170A0F9446092091890C5F
:1036C00030918A0C40918B0C50918C0C0F942E05EC
:1036D0000F94770B6093810470938204809383042A
:1036E0009093840490915F0480916004981719F07E
:1036F0000E94674D24C00E94C54D80916F00982F95
:10370000927081FF05C080916F008D7F80936F0064
:1037100040918104509182046091830470918404EB
:103720004093091450930A1460930B1470930C1473
:10373000992329F080916F00826080936F000E942E
:10374000496E0C947F290E942D9B0C947F298091B7
:103750003D1390913E138337910509F4D4C10CF0C9
:10376000CEC08B34910509F428C40CF04FC08931C8
:10377000910509F4BDC21CF58431910509F4C6C157
:103780007CF48131910509F43BC22CF4029708F4D2
:10379000C0C10C943029429709F486C50C94302995
:1037A0008631910509F47DC20CF477C28731910509
:1037B00009F47DC2489709F490C20C9430298E31E7
:1037C000910509F44BC384F48B31910509F4A4C22B
:1037D0000CF494C28C31910509F436C34D9711F461
:1037E0000C947F290C9430298032910509F43AC356
:1037F0000CF484C38A32910509F4AAC3C09711F06E
:103800000C9430290E94D7A80C947F298836910502
:1038100009F4E3C30CF042C08235910509F43BC5BD
:1038200024F58D34910509F4D0C30CF4CAC38E3449
:10383000910509F4CEC38135910511F00C9430291E
:103840000E94017B0E94024E1092D3091092D2096D
:1038500068EE73E080E090E00E94B56460E08DED7A
:1038600092E00E942D650C947F298435910509F41E
:103870001BC50CF414C58535910509F449C58C3573
:10388000910511F00C9430291BE5C12E12E0D12EC8
:103890000DE7E02E0CE0F02E10E053C58D369105BB
:1038A00009F4A7C49CF48A36910509F4C4C40CF445
:1038B0005EC48B36910509F4DCC48C36910511F099
:1038C0000C94302910921E020C947F2980379105A8
:1038D00009F418C454F48E36910509F4ADC38F363B
:1038E000910509F4BCC30C9430298137910509F482
:1038F00011C48237910509F4A3C50C9430298C3288
:1039000041E0940711F40C94AF260CF07CC0883C85
:10391000910509F408C7C4F58937910509F486C6ED
:10392000DCF48637910509F432C634F48537910505
:1039300009F41EC60C9430298737910509F473C623
:103940008837910511F00C94302981E080930708A5
:10395000809306080C947F298139910509F46BC680
:1039600034F48C38910509F448C40C9430298B390F
:10397000910509F417C48E3B910511F00C94302980
:103980000E94D8700C947F298E3C910511F40C9400
:103990000B25DCF48B3C910509F42EC764F4893CBB
:1039A000910511F00C9430294BE5E42E42E0F42E01
:1039B0000AEC1CE008C78C3C910509F438C78D3C23
:1039C000910509F4A9C70C9430298D3D910511F496
:1039D0000C940D2664F4833D910511F40C94FD259F
:1039E0008C3D910511F40C9400260C943029823EF4
:1039F000910511F40C947B268232914011F40C94C1
:103A0000A4260C943029853A21E0920711F40C94F5
:103A1000F227B4F5803941E0940711F40C94E527BE
:103A2000C4F48E32F1E09F0711F40C94782714F45B
:103A30000C94D8268F3231E0930711F40C94CC27E4
:103A40008336914011F00C943029EFE8F1E10C94A9
:103A5000D2278239E1E09E0711F40C94ED2714F48B
:103A60000C94E8278A3921E0920709F44FC3843A7D
:103A7000914011F00C9430290E94136F0C947F290F
:103A8000873F41E0940711F40C948A28E4F4843FC2
:103A9000F1E09F0711F40C94842834F48C3A91409F
:103AA00009F4DBC70C943029853F41E0940711F4F9
:103AB0000C948728863F914011F00C9430290E9485
:103AC00033E00C947F298B38F3E09F0711F40C94BA
:103AD0007F296CF4883F31E0930711F40C9495280A
:103AE0008335934011F40C94B9280C943029803A12
:103AF000E3E09E0709F4F5C1873E934011F40C946E
:103B00001D290C943029EFECF3E0D7C4EBE5F2E08B
:103B100086C0A0903B13B0903C1380E50E942831F2
:103B2000882359F00E946C306B017C0111E0672BF7
:103B3000682B692B31F410E004C010E0C12CD12CAB
:103B4000760183E50E942831882311F40C94612AC0
:103B50000E94AC3020E030E04AE754E40F942E0598
:103B60000F948F0A6B017C0111110BC0672B682B1E
:103B7000692B39F4A114B10421F0F5018081811180
:103B800002C010E001C011E00E94C54D112329F0D0
:103B900061E0C5010E94676505C060E080E392E0D6
:103BA0000E942D6583E08093250C81E0809385073A
:103BB000C114D104E104F104B1F00E940EF0C60E6C
:103BC000D71EE81EF91E0E940EF0DC01CB018C19F5
:103BD0009D09AE09BF09B7FF0DC08091850781110E
:103BE0000C94662A07C080918507882319F00E94EB
:103BF00037A0F9CF0E942C59109285070C947F2989
:103C000060E083E492E00E942D655F988A9880913D
:103C1000080181708093060112980C947F29849189
:103C20008F010F5F1F4F882321F00E942032F8017F
:103C3000F6CF1092220785ED94E00E94F3C98BE144
:103C4000E5EDF4E0DE01159601900D928A95E1F71D
:103C50008091D3049091D4049C838B8381E892E07B
:103C60009A83898340E050E0BE016F5F7F4F80E020
:103C700090E00E94C250CE0101960E94C79FECE4E2
:103C8000F2E084918F010F5F1F4F882311F40C9491
:103C90007F290E942032F801F4CF0E94AC960C9448
:103CA0007F291092A5041092A6040C947F29E0911C
:103CB0003B13F0913C138081882329F0803209F472
:103CC00010823196F8CF40E061E080913B139091F3
:103CD0003C130E9485530C947F298091A60488236D
:103CE00019F081E08093A5040E941CD80C947F29D0
:103CF0001092A5040E9466F50C947F298091A60479
:103D0000882311F40C947F2983E50E9428318111C6
:103D10000C946A2A0C947F2983E40E94DF30882364
:103D200009F450C0E9E9F2E084918F010F5F1F4F61
:103D3000882321F00E942032F801F6CF809170068E
:103D4000811103C0ECE6F2E012C0BE016F5F7F4F4D
:103D50008DE696E00E94BBC88E010F5F1F4FF801F1
:103D600081918F01882349F10E942032F8CF8491FC
:103D70008F010F5F1F4F882301F10E942032F8014D
:103D8000F6CF85EBC82E82E0D82EE12CF12C20E076
:103D90008091230490E00E2C02C0959587950A949B
:103DA000E2F780FD8CC1FFEFEF1AFF0A32E0C30E8D
:103DB000D11C45E0E416F10459F78AE00E94203254
:103DC0000C947F298091A604882339F08091A50462
:103DD000882319F0E6E7F2E003C0E8E8F2E028C043
:103DE00084918F010F5F1F4F882321F00E942032A2
:103DF000F801F6CF60911E0770911F078091200790
:103E0000909121074AE00E94C7348FE20E9420323D
:103E100060911A0770911B0780911C0790911D07F4
:103E20004AE00E94C7348AE00E9420320C947F2925
:103E300084918F010F5F1F4F882311F40C947F2909
:103E40000E942032F801F4CF40E060E080913B1303
:103E500090913C130E9485530C947F290E9459AE87
:103E60000C947F298091A50481110E94C54D8091F9
:103E7000A604882311F40C947F2980E50E94283140
:103E8000882319F00E949D3003C080E50E94DF3036
:103E9000182F482F61E080913B1390913C130E94B2
:103EA000855383E50E942831882381F00E947C306D
:103EB000AB01BC0140931E0750931F07609320077E
:103EC000709321078DE696E00E94ACC78091A6040E
:103ED000882319F081E08093A50411110C947F29A7
:103EE00003CF80913B1390913C1321E02093A404D5
:103EF00040E060E00E9485530C947F290E9418F5F1
:103F000068A379A38AA39BA3BE016F5F7F4FCE01F5
:103F100080960E94343160E0CE0101960E94676570
:103F2000EEEBF1E184918F010F5F1F4F882321F0A9
:103F30000E942032F801F6CFBE016F5F7F4F88EA02
:103F400092E00E9401D88AE00E9420320C947F29DE
:103F500083E50E942831882311F40C947F290E9464
:103F60008C30E82E80E50E942831882339F00E94A9
:103F70008C30182F87FF03C00C947F291DE089E443
:103F80000E942831882351F00E949D3081110C94A9
:103F90004E2BE4E4F5E081E795E00AC089E40E9455
:103FA000DF30F4CF31968E179F0711F40C944E2B0F
:103FB00024911213F7CF0C94B02A0E941CD80C94B1
:103FC0007F290E9466F50C947F290E9463D80C9487
:103FD0007F290E94BFA70C947F2988E690E00E9469
:103FE000323581110C947F298091230483FF02C014
:103FF0000C947F2983E50E9428318823C9F00E9410
:10400000AC300F948A0A7093D1096093D00980E094
:104010000E94B57A0E94AC3020E030E040EA52E4E1
:104020000F94C904181624F00E9463D80E942C59DA
:104030000E94E5D90C947F298EE40E9428318823C0
:1040400011F40C947F290E947C3060932B047093B0
:104050002C0480932D0490932E040C947F2983E5E7
:104060000E94DF30882359F083E50E94283188239D
:1040700019F00E948C3001C080E080932304EEEBA5
:10408000F1E184918F010F5F1F4F811103C0E3ECB9
:10409000F2E004C00E942032F801F3CF84918F0136
:1040A0000F5F1F4F882321F00E942032F801F6CFC6
:1040B00080912304811165CEEFEBF2E018C0BB24A0
:1040C000B394B20E222319F08CE20E942032F60142
:1040D00085919491FC0184918F010F5F1F4F88237C
:1040E00021F00E942032F801F6CF2B2D5CCE849176
:1040F0008F010F5F1F4F882309F45FCE0E9420328B
:10410000F801F5CF8AEC92E00E94E89F0E949A683D
:104110000C947F2983E50E942831811103C0EEEBC6
:10412000F1E10DC00E948C308D3320F48093360273
:104130000C947F298CE3809336020C947F29849120
:104140008F010F5F1F4F882321F00E942032F8015A
:10415000F6CF4091360250E060E070E083ED92E0EF
:104160000E94AED78AE00E9420320C947F2989E613
:1041700090E00E943235811111C0EAEDF2E08491A5
:104180008F010F5F1F4F882321F00E942032F8011A
:10419000F6CF0E940E788AE00E9420321092250C01
:1041A0000C94632B83E50E942831882311F40C942E
:1041B0007F290E948C30182F8D3308F01CE3109358
:1041C000320C0E940EF06B017C01212F30E0A8EE32
:1041D000B3E00F943609C60ED71EE81EF91EC09232
:1041E0002E0CD0922F0CE092300CF092310C0C94EB
:1041F0007F290E94B0720C947F298091230483FF51
:1042000002C00C947F2983E50E942831882311F491
:104210000C947F290E94AC300F948A0A6238710591
:1042200014F062E870E07093CF096093CE090E94A9
:10423000697A0C947F2980E50E942831811106C09B
:1042400083E50E942831882361F006C00E948C30EB
:1042500081110C947F29F4CF0E947C306F3F71054F
:1042600010F06FEF70E07093D3096093D2090C9453
:104270007F2980E50E942831811106C01092D30960
:104280001092D2090C947F290E947C30672B11F088
:104290000C947F29F3CF109257030C947F2981E06F
:1042A000809357030C947F2983E50E94283188234B
:1042B000A1F00E94AC3020E030E04AE754E40F94D3
:1042C0002E050F948F0A6093370270933802809303
:1042D000390290933A020C947F2988E50E94DF30DE
:1042E00081110C947A2A89E50E94DF3081110C94A7
:1042F0007A2A8AE50E94DF3081110C947A2A85E4BB
:104300000E94DF3081110C947A2A0E94024EF7C776
:1043100083E50E94DF30882309F4F1C70E94AC30A6
:1043200020E030E04AE754E40F942E050F948F0A02
:1043300060932A0C70932B0C80932C0C90932D0C73
:10434000DEC7F60181916F010E94DF30882309F4F6
:104350006DC0133009F063C00E94AC304B015C01AA
:1043600020E030E040EA51E40F94C90487FF4EC0DA
:10437000A50194016091890C70918A0C80918B0C3D
:1043800090918C0C0F94220A2B013C019B01AC01F3
:104390006091F20C7091F30C8091F40C9091F50CFB
:1043A0000F942E056093F20C7093F30C8093F40C31
:1043B0009093F50CA30192016091C60C7091C70C0B
:1043C0008091C80C9091C90C0F942E056093C60C77
:1043D0007093C70C8093C80C9093C90C6091060D24
:1043E0007091070D8091080D9091090D0F94CD04E7
:1043F000A30192010F942E050F948F0A6093060D6E
:104400007093070D8093080D9093090D8092890C8D
:1044100090928A0CA0928B0CB0928C0C07C00E94D8
:10442000AC30F70160837183828393831F5FF4E074
:10443000EF0EF11C143009F084CF0E944ADB5FC7F5
:104440000E94C54D83E50E942831882309F477C96D
:104450000E947C306230710509F071C90E94A3A7E7
:104460008BE50E9420326091EA097091EB098091FE
:10447000EC099091ED0942E00E9488354091EE09E7
:104480005091EF096091F0097091F1098DEE92E081
:104490000E94CBD74091F2095091F3096091F40941
:1044A0007091F5098AEE92E00E94CBD78DE50E94CB
:1044B00020328AE00E94203222C784918F010F5F50
:1044C0001F4F882321F00E942032F801F6CF60E0D0
:1044D0008FEB93E00E94126E61E088EB93E00E9404
:1044E000126E61E08DEA93E00E94126E61E08DE948
:1044F00093E00E94126E60E084E993E00E94126EE5
:1045000061E08AE893E00E94126E61E080E893E047
:104510000E94126E61E088E793E00E94126E61E0F3
:104520008AE693E00E94126E60E08CE593E00E94C0
:10453000126E60E08DE493E00E94126E60E08FE303
:1045400093E00E94126E60E089E293E00E94126E96
:1045500060E088E193E00E94126E60E083E093E007
:104560000E94126E61E080EF92E00E94126EC7C658
:1045700080913B1390913C13FC012081222321F078
:1045800060E00E946765BBC60E942C59B8C60091C6
:104590003B1310913C1383E0D12C40E08150E1F0BB
:1045A000F8019081292F2B7F2134C1F721812133FC
:1045B000A9F7913421F0953421F441E002C0DD24C3
:1045C000D39498012E5F3F4F89012F5F3F4FF80131
:1045D00090819032C9F3E2CF442369F0EEEBF1E130
:1045E00084917F012FEFE21AF20A882321F00E94C2
:1045F0002032F701F5CFDD2069F0E2E9F4E08491A3
:104600007F013FEFE31AF30A882321F00E94203252
:10461000F701F5CFF80181918F01882309F4CDCB03
:104620000E942032F7CF0E9414E869C61092070852
:104630001092060864C683E50E942831882319F089
:104640000E947C3002C060E070E08B0111270230D4
:104650001105D4F0EFE8F1E184918F010F5F1F4F56
:10466000811103C0E6E9F4E004C00E942032F801A1
:10467000F3CF84918F010F5F1F4F882309F43FC64A
:104680000E942032F801F5CF88E40E942831882367
:10469000A9F00E947C30603A71053CF06F30F1E087
:1046A0007F072CF06EE071E002C060EA70E0F80174
:1046B000EE0FFF1FE155F64F7183608386E40E9481
:1046C00028318823A9F00E947C30F801EE0FFF1FEB
:1046D000ED54F64F718360836F3F710519F014F04C
:1046E0006FEF70E077FF02C060E070E0718360837D
:1046F00082E40E942831882309F401C60E947C309C
:104700006530710534F0643771052CF063E770E0B3
:1047100002C065E070E0000F111FF801E555F64F8B
:1047200071836083ECC588EC90E00E943235811182
:10473000E6C584E40E94DF30882309F441C00E946A
:10474000AC306B017C0111E020E030E0A9010F9456
:10475000C904811101C010E01093910C20E030E0F9
:10476000A901C701B6010F94C904882349F10E9429
:10477000AC30E091A10724E0E29FF0011124E3575F
:10478000F34F608371838283938320E030E0A9013B
:1047900060918D0C70918E0C80918F0C9091900C8B
:1047A0000F94C90481110CC080E090E0A0EEBFE33B
:1047B00080938D0C90938E0CA0938F0CB093900CE3
:1047C0000E9464E19CC5F70181917F010E94DF3066
:1047D000882349F00E94AC300F948F0AF80160835F
:1047E0007183828393830C5F1F4FFCE00A3D1F0798
:1047F00051F70E9415DA83C53BE5E32E32E0F32E34
:104800000AEB1CE0F70181917F010E94DF308823D1
:1048100039F00E94AC30F801608371838283938306
:104820000C5F1F4FFCE00A3C1F0761F768C583E57A
:104830000E9428318823A1F00E94AC306093E20CE2
:104840007093E30C8093E40C9093E50C6093DA0C86
:104850007093DB0C8093DC0C9093DD0C10E001C0B6
:1048600011E080E50E942831882359F00E94AC3085
:104870006093E20C7093E30C8093E40C9093E50C4E
:1048800010E082E50E942831882359F00E94AC3064
:104890006093DE0C7093DF0C8093E00C9093E10C3E
:1048A00010E084E50E942831882359F00E94AC3042
:1048B0006093DA0C7093DB0C8093DC0C9093DD0C2E
:1048C0001EC5112309F41BC54091E20C5091E30C65
:1048D0006091E40C7091E50C8EEB94E00E94CBD7D4
:1048E0004091DE0C5091DF0C6091E00C7091E10C76
:1048F0008BEB94E00E94CBD74091DA0C5091DB0C0B
:104900006091DC0C7091DD0C88EB94E00E94CBD7B9
:104910008AE00E942032F3C481E50E94DF308823C0
:1049200051F00E946C3060931E0470931F048093BA
:1049300020049093210483E50E94DF30882351F006
:104940000E94AC306093B60C7093B70C8093B80C97
:104950009093B90C84E50E94DF30882351F00E94C7
:10496000AC306093B20C7093B30C8093B40C909302
:10497000B50C88E50E94DF30882351F00E94AC30EE
:104980006093E60C7093E70C8093E80C9093E90C2D
:1049900089E50E94DF30882351F00E94AC3060939B
:1049A000EA0C7093EB0C8093EC0C9093ED0C8AE581
:1049B0000E94DF308823F1F00E94AC306093EE0C4F
:1049C0007093EF0C8093F00C9093F10C2DEC3CEC79
:1049D0004CEC5DE30F94C904181664F0EEECF4E0BF
:1049E00084918F010F5F1F4F882321F00E94203296
:1049F000F801F6CF85E40E94DF30882309F47FC4F4
:104A00000E94AC306093F20C7093F30C8093F40C22
:104A10009093F50C74C49BE5C92E92E0D92E29E041
:104A2000E22E28E0F22E10E0F60181916F010E9443
:104A3000DF30882351F00E94AC30F701608371832E
:104A400082839383812F0E94542E1F5FF4E0EF0E28
:104A5000F11C133049F70C949F1B0E94369881116A
:104A60004EC405E21EE128E03AE03DA72CA7CE01A6
:104A700001965C018EE7882E8EE1982E1501F801D3
:104A80006591759185919491ECA5FDA5C190D1900A
:104A9000E190F190FDA7ECA7A70196010F944509BD
:104AA0002B013C01F101608371838283938320E0B9
:104AB00030E040EA51EC0F946C0B87FD0AC020E017
:104AC00030E040EA51E4C301B2010F94C904181662
:104AD0002CF4F401849118160CF438C5F101C1903E
:104AE000D190E190F1901F0120E030E040EA51ECDC
:104AF000C701B6010F946C0B87FD0AC020E030E0BF
:104B000040EA51E4C701B6010F94C904181684F5B0
:104B1000EFE8F1E184918F010F5F1F4F811103C016
:104B2000EEE1F5E004C00E942032F801F3CF849159
:104B30008F010F5F1F4F882321F00E942032F80160
:104B4000F6CF61E080E195E00E942D650E946D59ED
:104B500088E290E099A388A388EC90E09DA38CA3C1
:104B6000BE01605E7F4FCE0184960E94E997C7C365
:104B70000C5F1F4FFFEF8F1A9F0A2EE101331207C0
:104B800009F07DCFB9E0EB2EB8E0FB2E10E0F50187
:104B900081919191A191B1915F01F70181939193DD
:104BA000A193B1937F01812F0E94542E1F5F133078
:104BB00071F70E94496E60E080E095E00E942D65EB
:104BC00083E992E09DA38CA304E610E019A308A357
:104BD000BE016C5D7F4FCE0180960E94E9978AEB03
:104BE00092E09DA38CA319A308A3BE016C5D7F4F27
:104BF000CE0180960E94E99782C30E94346D7FC3E4
:104C000083E50E942831882309F479C30E947C300F
:104C1000709312026093110272C38DED90E00E94B6
:104C2000323581116CC383E50E942831811103C0A4
:104C3000EEEBF1E13AC00091A10710E00E947C3058
:104C4000000F111FF801E15FFD4F718360838091B8
:104C5000A10790E08C01000F111F000F111F980198
:104C6000255F3D4F7901880F991FFC01E15FFD4FE2
:104C700060817181072E000C880B990B0F94CF0473
:104C80002AE037ED43E25CE30F942E05F801E75B81
:104C9000F84F20813181428153810F942E05F70115
:104CA00060837183828393832AC384918F010F5F12
:104CB0001F4F882321F00E942032F801F6CF85E4AF
:104CC0000E9420328091A107805D0E942032E091F5
:104CD000A107F0E0EE0FFF1FE15FFD4F60817181E2
:104CE0008CE395E00E94E8D785E20E9420328AE0BA
:104CF0000E94203204C380E50E94DF30882309F43B
:104D0000FEC20E947C306B017C0183E50E94283149
:104D1000882321F00E947C308B0102C00FEF1FEF2F
:104D2000C8010196039708F0EAC2D7FCE8C28C2DAF
:104D3000E4E4F5E09491891709F412C4319625E072
:104D4000E137F207B9F70FC48AE50E9428318111D3
:104D500032C483E50E94283181112DC4D0C283E57D
:104D60000E942831882319F00E947C3002C064E040
:104D700071E079A368A380E50E942831882339F087
:104D80000E947C30693833E1730730F402C068EE6A
:104D900073E07A83698304C088E893E19A83898306
:104DA000BE01605E7F4FCE0101960E94E997A7C2C7
:104DB00085E40E942831811110C080E50E94DF3017
:104DC000882391F00E94AC3060939E0970939F09F4
:104DD0008093A0099093A10907C00E948C3088237A
:104DE00061F3EFE8F1E171C089E40E94DF308823CC
:104DF00081F00E94AC302CEA35EC47E25EE30F9480
:104E00002E056093A6097093A7098093A809909333
:104E1000A90984E40E94DF30882381F00E94AC302D
:104E20002CEA35EC47E25EE30F94220A6093A20974
:104E30007093A3098093A4099093A509EEEBF1E187
:104E400084918F010F5F1F4F882321F00E94203231
:104E5000F801F6CF40919E0950919F096091A009F9
:104E60007091A1098AE895E00E94CBD72CEA35EC35
:104E700047E25EE36091A6097091A7098091A809B5
:104E80009091A9090F94220AAB01BC0186E895E034
:104E90000E94CBD72CEA35EC47E25EE36091A20991
:104EA0007091A3098091A4099091A5090F942E05F2
:104EB000AB01BC0182E895E00E94CBD78AE00E945A
:104EC00020321DC20E942032F80184918F010F5FB1
:104ED0001F4F8111F7CFEEE8F5E084918F010F5F4E
:104EE0001F4F882309F40BC20E942032F801F5CF2E
:104EF00083E50E94DF30182F882371F00E94AC30C8
:104F00000F948A0A70930A026093090221E0672BCA
:104F100009F020E02093220480E50E94DF308823FE
:104F200059F02091090230910A02232B11F00E94BE
:104F30009D3080932204E3C11111E1C1EEEBF1E158
:104F400084918F010F5F1F4F882321F00E94203230
:104F5000F801F6CF80912204882319F065E273E00E
:104F600002C068E273E085EB95E00E9401D8609191
:104F7000090270910A0284EA95E00E94E8D7E0EA0B
:104F8000F5E084918F010F5F1F4F882309F4B7C1AB
:104F90000E942032F801F5CF0E94D768B0C10E946C
:104FA0002032F80184918F010F5F1F4F8111F7CFDD
:104FB000E8ECF5E084918F010F5F1F4F882309F41F
:104FC0009EC10E942032F801F5CF0E94C54D97C1C5
:104FD00081E0CAD50E94496E92C180E0C5D50E9489
:104FE000496E8DC189E40E942831882321F00E94F6
:104FF0007C30162F01C01FEF8AE40E9428318823DD
:1050000021F00E947C30062F01C00FEF8AE50E943C
:10501000DF30F82E811105C081E50E94DF30D82EE7
:1050200001C0D12C17FD06C007FD04C0F1101CC043
:10503000D1101AC0EFE8F1E184918F010F5F1F4F8B
:10504000811103C0E6EFF5E004C00E942032F801B0
:10505000F3CF84918F010F5F1F4F882309F44FC155
:105060000E942032F801F5CF133010F40330D0F055
:10507000EFE8F1E184918F010F5F1F4F811103C0B1
:10508000E7EDF5E004C00E942032F801F3CF8491EF
:105090008F010F5F1F4F882309F431C10E94203216
:1050A000F801F5CFE12E110FFF08002E000C110BB7
:1050B0000E94AC30D701AA0FBB1FDD2081F0FD019B
:1050C000EE0DFF1DE00FF11FEE0FFF1FEE0FFF1F94
:1050D000E951FD4E208131814281538103C020E09E
:1050E00030E0A901EA0EFB1E0E0D1F1D000F111F5F
:1050F000000F111F09511D4E0F944609F8016083DE
:10510000718382839383FBC00E943CC3F8C00E94DA
:1051100057E1F5C083E50E94DF30882319F00E9433
:105120009D3081270E94BBDBEAC081E08093E212C0
:105130000E949EBD1092E212882309F4E0C0EEEBBB
:10514000F1E184918F010F5F1F4F811103C0E6E1F0
:10515000F6E004C00E942032F801F3CF84918F0161
:105160000F5F1F4F882309F4CAC00E942032F80144
:10517000F5CF8AE50E942831811103C0EEEBF1E101
:105180003AC0EAD76B017C0120E030E040EA51EC04
:105190000F946C0B87FD0AC020E030E040EA51E438
:1051A000C701B6010F94C90418161CF4EFE8F1E129
:1051B0000CC0C092040AD092050AE092060AF0924E
:1051C000070A9DC00E942032F80184918F010F5F71
:1051D0001F4F8111F7CFE1E2F6E084918F010F5F5D
:1051E0001F4F882309F48BC00E942032F801F5CFAD
:1051F0000E942032F80184918F010F5F1F4F8111AF
:10520000F7CFE1E4F6E084918F010F5F1F4F882311
:1052100021F00E942032F801F6CF4091040A50910B
:10522000050A6091060A7091070A8EE396E00E94D3
:10523000CBD78AE00E94203262C081E08093560280
:105240001092190A83E50E942831882331F075D71E
:10525000811155C00E949EF252C083E5B0D7F8CFAD
:105260000E942D9B4CC0F0903D130E94C54D1091A3
:105270009A0C80E01BD6FF2029F1EEEBF1E184913E
:105280008F010F5F1F4F882321F00E942032F80109
:10529000F6CF84E50E9420326F2D70E080E090E030
:1052A0004AE00E94C73480E20E942032E2E6F6E043
:1052B00084918F010F5F1F4F882309F10E942032D4
:1052C000F801F6CF10927607812FF0D5EEEBF1E1E1
:1052D00084918F010F5F1F4F882321F00E9420329D
:1052E000F801F6CF6091760770E080E596E00E94C5
:1052F000E8D78AE00E94203202C00E942D9B1092C3
:10530000250C0E9481F2DFC10E947F7E0E94C5A30E
:10531000F6CF0E94C54DB0909A0C80E0C7D5D6D28A
:1053200011E01093070888E54AD7A82E89E547D7EA
:10533000082F8AE544D7982EA11004C0011104C09B
:10534000192505C0011102C010E001C0192D0E94ED
:10535000163282E57DD7882359F0FED66B017C0199
:1053600020E030E0A9010F94C904882369F106C048
:10537000C12CD12C40EAE42E40E4F42E111104C0DB
:10538000A11002C0002389F1C092470CD092480CB2
:10539000E092490CF0924A0CA70196016091100A24
:1053A0007091110A8091120A9091130A0F94C90406
:1053B00087FF0AC019821A821B821C82BE016F5F9E
:1053C0007F4F87E49CE0B2D3111105C0A11003C048
:1053D000011106C00AC080E00E94E59D1123C1F3BF
:1053E00081E00E94E59D111103C0992009F45BC082
:1053F0008091F70983708330F1F060E081EF91E0F4
:105400000E942D65EEEBF1E184918F010F5F1F4F3C
:10541000811103C0E2EEF1E004C00E942032F801E5
:10542000F3CF84918F010F5F1F4F8823E1F10E941A
:105430002032F801F6CFF3D48091100A9091110A2E
:10544000A091120AB091130A8093470C9093480CD4
:10545000A093490CB0934A0C80E090E0A2E0B3E442
:1054600080933F0C9093400CA093410CB093420C5E
:1054700080E090E0A0EBB2E48093430C9093440C66
:10548000A093450CB093460C19821A821B821C8291
:10549000AE014F5F5F4F63E47CE08FE39CE025D378
:1054A00082E00E94E59DBBD48091060880930708A6
:1054B0008B2DFCD4F2D183E0809335020E94496E9B
:1054C0001ECF11110C94C11D0C94BA1D0E9437A05F
:1054D0000C94E31D11D6AB01BC0140931E07509301
:1054E0001F0760932007709321078DE696E00E94C6
:1054F000ACC705CF0E94C54D88E561D6882331F041
:105500005F9A8091F7098E7F8093F70989E557D6D6
:10551000882331F08A9A8091F7098D7F8093F7096B
:105520008AE54DD6882359F08091080180958170D5
:10553000809306018091F7098B7F8093F70985E4BA
:105540003ED6882309F4DBCE129AD9CEF7FAF0942E
:10555000F7F8F094F101C082D182E282F382BECAF0
:105560000E9453FFCCCE0E94C54DBC2C60E08C2D18
:105570000E94D3EE0F3FFFEF1F0759F48C2D0E94BE
:105580007DEE31E020E0892B09F030E0032F122F6F
:1055900005C00130110561F401E010E08B2D0E947F
:1055A0007DEE8017910709F4AACE0E9437A0F6CFAE
:1055B00000E010E0F3CFD0D520E030E040E050EC48
:1055C0000F94C90487FD13C0C7D520E030E040E048
:1055D00050E40F946C0B181624F0BED56B017C01BF
:1055E0000BC0C12CD12CE12C50E4F52E05C0C12CF0
:1055F000D12CE12C40ECF42E8091F70982FF18C0E9
:1056000000913707109138072091850C3091860C56
:105610004091870C5091880CC701B6010F942E055C
:105620000F948A0A600F711F7093380760933707D1
:1056300080E5C5D5882321F080D5882309F45FCE85
:10564000A70196016091040A7091050A8091060AEB
:105650009091070A0F9446096093040A7093050A13
:105660008093060A9093070AEEEBF1E184918F0193
:105670000F5F1F4F882319F0E3D6F801F7CF409151
:10568000040A5091050A6091060A7091070A81E7A1
:1056900095E00E94CBD78AE0D3D631CE61E0812F4E
:1056A0000E94D3EE6E2D812F0E94A5EEF12CB70142
:1056B000812F0E940FEF193009F021CEF092D3090B
:1056C000E092D2091CCEAD960FB6F894DEBF0FBEA5
:1056D000CDBFDF91CF911F910F91FF90EF90DF90A1
:1056E000CF90BF90AF909F908F907F906F905F9082
:1056F0004F903F902F90089590911908E92FF0E076
:10570000EB5EF74F80839F5F943018F490931908F5
:1057100002C01092190880919B098F5F80939B09AA
:105720000895089580E090E008958091C0139091CD
:10573000C113981759F0E92FF0E0E05CFC4E80812E
:105740009F5F9F779093C11390E008958FEF9FEF35
:105750000895CF92DF92EF920F931F93CF93DF9331
:10576000CDB7DEB760970FB6F894DEBF0FBECDBFE2
:10577000E0907607E8E0FAE080859185A285B38520
:105780004481558166817781008111812281338135
:1057900009831A832B833C834D835E836F837887D1
:1057A00089879A87AB87BC871D861E861F86188AC5
:1057B000AE01475F5F4FBE016B5F7F4FCE01019629
:1057C0000E94774ECE010D966C0101E312E024E1B8
:1057D0003AE0AE01475F5F4FBE016B5F7F4F0C97B2
:1057E0000E94F63F60960FB6F894DEBF0FBECDBFA5
:1057F000DF91CF911F910F91EF90DF90CF9008959F
:105800000F931F93CF93DF93EC010E940EF00E8154
:105810001F8128853985011511052105310559F5A7
:105820002C852223A9F13A8521502C8721E0230FD2
:105830002A874D85241301C01A86FE0124E0329F79
:10584000E00DF11D112406851785208931890A8311
:105850001B832C833D83DC01CB01800F911FA11D95
:10586000B11D8E839F83A887B9878C819D81892BE9
:1058700079F0409A0DC0DC01CB01801B910BA20B8B
:10588000B30BB7FD05C040981E821F82188619868B
:10589000DF91CF911F910F9108958091D103909145
:1058A000D203A091D303B091D4038093310290939B
:1058B0003202A0933302B09334028091CF039091CF
:1058C000D0039093120280931102089580913102C7
:1058D00090913202A0913302B09134028093D103AF
:1058E0009093D203A093D303B093D4038091110279
:1058F000909112029093D0038093CF0384E690E0BE
:10590000909312028093110208952F923F924F922A
:105910005F926F927F928F929F92AF92BF92CF923F
:10592000DF92EF92FF920F931F93CF93DF93CDB748
:10593000DEB72A970FB6F894DEBF0FBECDBF2B019E
:105940003C012D833E834F83588747015801DA86F7
:10595000C9868091310290913202A0913302B091B8
:10596000340289839A83AB83BC83D6011C91119640
:105970000C91119712963C90129713962C9020E060
:1059800030E0A901612F702F832D922D0F94C9044F
:1059900081110AC0E9E3FEE185919591A591B49149
:1059A000182F092F3A2E2B2EA50194016091100A71
:1059B0007091110A8091120A9091130A0F94C904F0
:1059C00087FF15C0812F902FA32DB22D8093310218
:1059D00090933202A0933302B09334028092100A63
:1059E0009092110AA092120AB092130AB2DEE985CF
:1059F000FA85C080D180E280F38020E030E0A90108
:105A0000C701B6010F94C904811108C0C0902D02CE
:105A1000D0902E02E0902F02F0903002C09231021E
:105A2000D0923202E0923302F09234024092080A9D
:105A30005092090A60920A0A70920B0A8D819E8127
:105A4000AF81B88580930C0A90930D0AA0930E0A3B
:105A5000B0930F0A7EDE2091100A3091110A409116
:105A6000120A5091130AC501B4010F94C90487FFAB
:105A700015C0812F902FA32DB22D809331029093CA
:105A80003202A0933302B09334028092100A9092B3
:105A9000110AA092120AB092130A5BDE0E94C54D51
:105AA00089819A81AB81BC818093310290933202CB
:105AB000A0933302B09334022A960FB6F894DEBF57
:105AC0000FBECDBFDF91CF911F910F91FF90EF904F
:105AD000DF90CF90BF90AF909F908F907F906F900E
