:100000000C948A170C94BB170C94BB170C94BB1759
:100010000C94BB170C94BB170C94BB170C94BB1718
:100020000C94BB170C94BB170C94BB170C94BB1708
:100030000C94BB170C94BB170C94BB170C94BB17F8
:100040000C94BB170C948AEB0C94BB170C94BB1745
:100050000C94BB170C94BB170C9484D70C94236995
:100060000C94BB170C94BF400C94BB170C94BB179B
:100070000C94BB170C94BB170C94BB170C94BB17B8
:100080000C94BB170C94BB170C94BB170C94BB17A8
:100090000C94BB170C94BB170C94BB170C94BB1798
:1000A0000C94BB170C94BB170C94BB170C94BB1788
:1000B0000C94BB170C94BB170C94BB170C94BB1778
:1000C0000C94BB170C94BB170C94BB170C94BB1768
:1000D0000C94BB170C94BB170C94BB170C94BB1758
:1000E0000C94BB175F676267516755675B679967D9
:1000F00066676A677067746778677E678267866716
:1001000099678C67906794673F684468496853684B
:100110005D68D66867686F68776881688B6895687E
:10012000A468AE68D668B868C268CC68084AD73B8D
:100130003BCE016E84BCBFFDC12F3D6C74319ABDB6
:1001400056833DDA3D00C77F11BED9E4BB4C3E91DA
:100150006BAAAABE000000803F05A84CCDB2D44EC9
:10016000B93836A9020C50B9918688083CA6AAAACB
:100170002ABE000000803F000D9404004E414E490D
:100180004E495459494E46CDCCCC3D0AD7233C1755
:10019000B7D13877CC2B329595E6241FB14F0A00A2
:1001A0000020410000C84200401C4620BCBE4CCA92
:1001B0001B0E5AAEC59D74434F4D4D554E4943419C
:1001C00054494F4E0044525952554E004552524FD9
:1001D000525300494E464F004543484F0047322F87
:1001E00047332062616420706172616D657465726D
:1001F000730A00536C6565702E2E2E00486F6D6576
:100200002058592066697273740A00486F6D652022
:10021000585920666972737400205A3A2000205998
:100220003A200042656420583A20004D65736820EA
:10023000706F696E742063616E6E6F7420626520EA
:100240007265736F6C7665640A00436C69636B203A
:10025000746F20726573756D652E2E2E004E6F20A3
:100260006D6F76652E00456E642066696C65206C46
:100270006973740A00426567696E2066696C65205F
:100280006C6973740A00286E6F2066696C652900BA
:100290005344207072696E74696E67206279746568
:1002A00020004E6F74205344207072696E74696E22
:1002B000670A0043757272656E742066696C653AF0
:1002C0002000D801D301CC01C501B7016F666600DB
:1002D00044454255473A004B494C4C45442E20007A
:1002E0004D3131332053006F6B0020573A00426587
:1002F0006420636F6F6C696E672E2E2E00426564FA
:100300002068656174696E672E2E2E0020540020CF
:100310005200416363656C65726174696F6E3A2067
:1003200050005741524E494E4721204C6F77205A7A
:10033000204A65726B206D6179206C656164207460
:100340006F20756E77616E7465642070617573657A
:10035000732E0A004F666673657473206170706C4B
:10036000696564004572723A20546F6F206661724D
:100370002100546F6F206661722066726F6D20726B
:1003800065666572656E636520706F696E740A00DC
:10039000205A00205900580020204D61783A200052
:1003A000205A00205900580020204D696E3A200044
:1003B0004F6E20004F666600536F667420656E6452
:1003C00073746F70733A200020643A0020693A0019
:1003D00020703A00496E76616C69642065787472A9
:1003E000756465720A0043290A0061626C656420C5
:1003F000286D696E2074656D702000436F6C6420F9
:100400006578747275646573206172652000236479
:100410006566696E652044454641554C545F4B64A2
:10042000200023646566696E652044454641554C4D
:10043000545F4B69200023646566696E65204445FE
:100440004641554C545F4B70200050494420417543
:10045000746F74756E652066696E69736865642172
:100460002050757420746865206C617374204B7023
:100470002C204B6920616E64204B6420636F6E7387
:1004800074616E74732066726F6D2062656C6F7735
:1004900020696E746F20436F6E6669677572617450
:1004A000696F6E2E680A00504944204175746F745C
:1004B000756E65206661696C6564212074696D657F
:1004C0006F75740A00453120544845524D414C2007
:1004D00052554E4157415900546865726D616C2008
:1004E00052756E61776179004531204865617469A4
:1004F0006E67206661696C65640048656174696E49
:1005000067206661696C65640050494420417574D8
:100510006F74756E65206661696C65642120546531
:100520006D706572617475726520746F6F20686993
:1005300067680A00204B643A2000204B693A20008B
:10054000204B703A20000A20436C6173736963206A
:10055000504944200A002054753A2000204B753A37
:100560002000206D61783A2000206D696E3A2000ED
:1005700020643A200020626961733A2000504944A7
:10058000204175746F74756E65206661696C656471
:100590002120426164206578747275646572206EF2
:1005A000756D6265720A00504944204175746F741C
:1005B000756E652073746172740A004E6F206361FA
:1005C0007365206C696768740A004F66660A0046A6
:1005D000616465204865696768742000426564202D
:1005E0004C6576656C696E6720004661696C656470
:1005F00020746F20656E61626C6520426564204CDA
:100600006576656C696E670A004D65736820706F6A
:10061000696E742063616E6E6F742062652072650E
:10062000736F6C7665640A004D34323120696E63F5
:100630006F727265637420706172616D657465724A
:100640002075736167650A00454550524F4D204F34
:100650004B0A003A200050726F6265205A204F66A4
:1006600066736574003F5A206F7574206F66207240
:10067000616E676520282D323020746F203230295A
:100680000A00416374697665204578747275646503
:10069000723A2000496E76616C69642065787472E4
:1006A000756465720A004E6F20436865636B7375ED
:1006B0006D2077697468206C696E65206E756D6257
:1006C00065722C204C617374204C696E653A200071
:1006D0004B494C4C45442E200053544F50504544F8
:1006E0002E20005072696E7465722073746F707082
:1006F00065642064756520746F206572726F727313
:100700002E2046697820746865206572726F7220A9
:10071000616E6420757365204D39393920746F20FE
:10072000726573746172742E202854656D706572E1
:1007300061747572652069732072657365742E200B
:1007400053657420697420616674657220726573E4
:1007500074617274696E67290A004E6F2043686580
:10076000636B73756D2077697468206C696E6520A2
:100770006E756D6265722C204C617374204C696ECD
:10078000653A2000636865636B73756D206D6973EE
:100790006D617463682C204C617374204C696E65C4
:1007A0003A20004C696E65204E756D626572206955
:1007B00073206E6F74204C617374204C696E6520D9
:1007C0004E756D6265722B312C204C617374204C18
:1007D000696E653A20004D313130004D33310053A0
:1007E000442072656164206572726F720A00446F02
:1007F0006E65207072696E74696E672066696C65DB
:100800000A0020496E76616C69642065787472759F
:10081000646572200000000000000070C10000004C
:100820000000009643000096430000BE4342696CFE
:10083000696E656172204C6576656C696E672047EC
:100840007269643A0A007C3C3E5E2B3D3F2F5B5D43
:100850003B2C2A225C004572726F72207772697499
:10086000696E6720746F20454550524F4D210A0034
:100870004578747275646572004D6F7665205A0014
:100880004D6F76652059004D6F7665205800507287
:10089000657061726500496E697469616C697A6539
:1008A00020454550524F4D00436F6E74726F6C007F
:1008B000526573746F7265206661696C73616665F9
:1008C000004C6F61642073657474696E67730049CE
:1008D0006E697469616C697A6520454550524F4D67
:1008E0000053746F72652073657474696E6773006A
:1008F00046696C616D656E74004D6F74696F6E0052
:1009000054656D7065726174757265004D61696ED4
:1009100000507265686561742041425320636F6EB8
:1009200066005072656865617420504C4120636FA9
:100930006E66005049442D44005049442D440050F7
:1009400049442D49005049442D49005049442D50F7
:10095000005049442D50002002204661637400205D
:10096000022046616374002002204D61780020025D
:10097000204D6178002002204D6178002002204D3A
:10098000696E002002204D696E002002204D696EC4
:10099000004F6666004F6E20004175746F74656D80
:1009A000700046616E2073706565640046616E205C
:1009B00073706565640042656400426564004E6F53
:1009C0007A7A6C65004E6F7A7A6C6500436F6E744C
:1009D000726F6C0053746F72652073657474696E06
:1009E00067730042656400426564004E6F7A7A6CFA
:1009F00065004E6F7A7A6C650046616E2073706593
:100A000065640046616E2073706565640054656DB1
:100A1000706572617475726500454550524F4D2086
:100A20006461746173697A65206572726F722E0AEF
:100A300000290A002062797465733B206372632089
:100A40000053657474696E67732053746F726564C4
:100A5000202800290A002062797465733B206372A4
:100A60006320002073746F72656420736574746909
:100A70006E677320726574726965766564202800FC
:100A8000202863616C63756C6174656429210A00B8
:100A900020213D2000454550524F4D2043524320D8
:100AA0006D69736D61746368202D202873746F7293
:100AB00065642920002053697A653A2000496E64F4
:100AC00065783A2000204D61726C696E3D5635356F
:100AD000290A0028454550524F4D3D00454550528A
:100AE0004F4D2076657273696F6E206D69736D610D
:100AF000746368200024F4D43050C38E20C2A24016
:100B000017828B7011127A910D816CD90AA861E15C
:100B100008C7586607615143061E4B5D05C145A7CE
:100B2000041A411104093D9803713931034036DB41
:100B30000265339102D4305402802E1D02632CEEE4
:100B400001752AC501B028A001102781018F2564F5
:100B5000012B244B01E0223401AC211F018D200D1B
:100B600001801FFC00841EED00971DDF00B81CD221
:100B700000E61BC600201BBC00641AB200B219A814
:100B8000000A19A0006A189900D117910040178B2C
:100B900000B516840031167E00B31579003A15733E
:100BA00000C7146F0058146A00EE136600881363C0
:100BB0000025135E00C7125B006C1257001512541B
:100BC00000C111510070114F0021114B00D6104986
:100BD000008D1047004610440002104200C00F4034
:100BE00000800F3E00420F3C00060F3B00CB0E384A
:100BF00000930E37005C0E3500270E3400F30D32E3
:100C000000C10D3100900D3000600D2E00320D2D11
:100C100000050D2C00D90C2B00AE0C2900850C29E9
:100C2000005C0C2700350C27000E0C2600E80B2476
:100C300000C40B2400A00B23007D0B23005A0B21C2
:100C400000390B2100180B2000F80A1F00D90A1EDA
:100C500000BB0A1E009D0A1D00800A1D00630A1CBD
:100C600000470A1B002C0A1B00110A1A00F7091A78
:100C700000DD091900C4091900AB09190092091710
:100C8000007B091800630917004C09160036091685
:100C900000200916000A091500F5081500E00814DF
:100CA00000CC081400B8081400A40814009008131D
:100CB000007D0812006B0813005808120046081245
:100CC0000034081100230811001208110001081156
:100CD00000F0071000E0071000D0071000C0071058
:100CE00000B0070F00A107100091070E0083070F47
:100CF0000074070F0065070E0057070E0049070E26
:100D0000003B070D002E070E0020070D0013070DF6
:100D10000006070D00F9060C00ED060D00E0060CBC
:100D200000D4060C00C8060C00BC060C00B0060C73
:100D300000A4060B0099060C008D060B0082060B22
:100D40000077060B006C060B0061060A0057060BC5
:100D5000004C060A0042060A0038060A002E060A5F
:100D60000024060A001A060A001006090007060AEF
:100D700000FD050900F4050900EB050900E205097D
:100D800000D9050900D0050900C7050900BE0509FD
:100D900000B5050800AD050800A50509009C05087B
:100DA00000940508008C050800840508007C0508EF
:100DB00000740508006C050700650508005D05075F
:100DC00000560508004E05070047050700400508C6
:100DD0000038050700310507002A0507002305072D
:100DE000001C050600160507000F0507000805068C
:100DF0000002050700FB040600F5040700EE0406E8
:100E000000E8040600E2040700DB040600D504063F
:100E100000CF040600C9040600C3040600BD040692
:100E200000B7040600B1040500AC040600A60406E1
:100E300000A00405009B040600950405009004062C
:100E4000008A04050085040500800406007A040574
:100E50000075040500700405006B040500660405B8
:100E600000610405005C04050057040500520405F8
:100E7000004D04050048040500430405003E040439
:100E8000003A04050035040500300404002C040574
:100E90000027040400230405001E0404001A0404AF
:100EA0000016040500110404000D040400090405E3
:100EB000000404040000040400FC030400F803041C
:100EC00000F4030400F0030400EC030400E803044E
:100ED00000E4030400E0030400DC030400D803047E
:100EE00000D4030400D0030400CC030400C80303AF
:100EF00000C503030024F404D9201BC40C5C0E9825
:100F000004C4095F0265077101F405F900FB04B32D
:100F10000048048700C103690058035500030345D6
:100F200000BE023A008402310053022A0029022541
:100F30000004022000E4011C00C8011900AF0117E1
:100F40000098011400840113007101100061011068
:100F50000051010E0043010D0036010B002B010B67
:100F60000020010B00150109000C01090003010814
:100F700000FB000800F3000800EB000700E4000697
:100F800000DE000600D8000600D2000600CC0005F6
:100F900000C7000500C2000500BD000400B9000440
:100FA00000B5000400B1000400AD000400A9000475
:100FB00000A5000300A20003009F0004009B0003A3
:100FC00000980003009500020093000300900003C6
:100FD000008D0002008B00030088000200860002E2
:100FE0000084000300810002007F0002007D0002F7
:100FF000007B000200790002007700010076000209
:10100000007400020072000100710002006F000213
:10101000006D0001006C0002006A0001006900021E
:101020000067000100660001006500010064000225
:10103000006200010061000100600001005F000229
:10104000005D0001005C0001005B0001005A00012E
:10105000005900010058000100570001005600012E
:10106000005500010054000100530000005300012E
:10107000005200010051000100500001004F00012A
:10108000004E0000004E0001004D0001004C000128
:10109000004B0000004B0001004A00010049000124
:1010A0000048000000480001004700010046000021
:1010B0000046000100450000004500010044000119
:1010C0000043000000430001004200000042000114
:1010D000004100000041000100400001003F00000D
:1010E000003F0001003E0000003E0001003D000006
:1010F000003D0001003C0000003C0000003C0001FD
:10110000003B0000003B0001003A0000003A0001F3
:1011100000390000003900010038000000380000EC
:1011200000380001003700000037000100360000E1
:1011300000360000003600010035000000350000D8
:1011400000350001003400000034000000340001CC
:1011500000330000003300000033000100320000C3
:1011600000320000003200010031000000310000B8
:1011700000310001003000000030000000300001AC
:10118000002F0000002F0000002F0000002F0001A2
:10119000002E0000002E0000002E0001002D000097
:1011A000002D0000002D0000002D0001002C00008B
:1011B000002C0000002C0000002C0001002B00007F
:1011C000002B0000002B0000002B0001002A000073
:1011D000002A0000002A0000002A00010029000067
:1011E000002900000029000000290000002900015A
:1011F000002800000028000000280000002800004F
:101200000028000100270000002700000027000040
:101210000027000000270001002600000026000033
:101220000026000000260000002600010025000026
:10123000002500000025000000250000002500001A
:10124000002500010024000000240000002400000C
:1012500000240000002400010023000000230000FF
:1012600000230000002300000023000000230000F2
:1012700000230001002200000022000000220000E4
:1012800000220000002200000022000100210000D6
:1012900000210000002100000021000000210000CA
:1012A00000210000002100010020000000200000BB
:1012B00000200000002000000020000000200000AE
:1012C0000020000000200001001F0000001F00009F
:1012D000001F0000001F0000001F0000001F000092
:1012E000001F0001001E0000001E0000001E000084
:1012F000001E00000039300000332500008719006F
:1013000000B00F0000DB080000BD04000074020004
:10131000003F01000000002100240027002A002DCA
:10132000003000330001010000040107010A0150F0
:10133000726F7465637465642050696E0A0053743B
:10134000616E6461726420446576696174696F6E70
:101350003A20002052616E67653A2000204D617886
:101360003A2000204D696E3A20004D65616E3A20AA
:101370000046696E6973686564210A002072616EB7
:1013800067653A2000206D61783A2000206D696E13
:101390003A2000207369676D613A2000206D656115
:1013A0006E3A20003A207A3A2000206F6620002012
:1013B0005A00205900205800476F696E6720746FEB
:1013C0003A00436C6F636B776973650A00436F750E
:1013D0006E7465722D0020446972656374696F6E66
:1013E0003A2000202020616E676C653A200053741B
:1013F000617274696E67207261646975733A200066
:10140000506F736974696F6E696E672074686520C8
:1014100070726F62652E2E2E0A003F4E756D6265EA
:1014200072206F66206C65677320696E206D6F7621
:10143000656D656E74206E6F7420706C6175736974
:10144000626C652028302D3135292E0A003F202876
:10145000582C5929206F7574206F6620626F756E45
:1014600064732E0A003F53616D706C652073697A56
:1014700065206E6F7420706C61757369626C652095
:1014800028342D3530292E0A004D3438205A2D505D
:10149000726F6265205265706561746162696C6922
:1014A000747920546573740A003F28562965726266
:1014B0006F7365206C6576656C20697320696D704B
:1014C0006C61757369626C652028302D34292E0A91
:1014D0000020573A004520436F6F6C696E672E2ECF
:1014E0002E00452048656174696E672E2E2E004DD2
:1014F00031343520533C696E6465783E206F7574D5
:10150000206F662072616E67652028302D31290AB0
:101510000000000A0B02090C0D0E0807030401006D
:1015200000000000000000000000000000000000BB
:101530000000000000000000000000000012111078
:10154000000000000000000000000000000000009B
:10155000000000000000000000000000000000008B
:10156000000000000000004B494C4C45442E200078
:10157000202D20496E76616C6964206578747275DF
:10158000646572206E756D62657220210A00001C10
:101590001F11111F00000006191803130C00040E80
:1015A0001F041C000000000E1315110E00001C107B
:1015B000181705060500040A0A0A0A11110E0C1272
:1015C000120C00000000001F1511151F00002D2D2A
:1015D0002D2D2D2D007C4D61726C696E7C002D2DA2
:1015E0002D2D2D2D00687474703A2F2F6D61726C43
:1015F000696E66772E6F726700687474703A2F2F69
:101600006D61726C696E66772E6F72670020312E85
:10161000312E39002020506C616E6E657242756605
:1016200066657242797465733A200020467265657A
:10163000204D656D6F72793A2000436F6D70696C53
:1016400065643A204D617920323820323031390AD0
:1016500000207C20417574686F723A205061756C6F
:101660002043686173652026204A6F686E204C69AC
:101670006E6B0A00323031382D30382D3031002079
:101680004C61737420557064617465643A20003154
:101690002E312E390A004D61726C696E0020536F35
:1016A0006674776172652052657365740A0020570D
:1016B00061746368646F672052657365740A002003
:1016C00042726F776E206F75742052657365740A6D
:1016D000002045787465726E616C20526573657484
:1016E0000A00506F77657255700A007374617274E6
:1016F0000A006175746F25692E67006572726F72DA
:101700002077726974696E6720746F2066696C65F2
:101710000A00456E6473746F70732025632025631F
:1017200020256320256300205A3A0020593A0020E2
:10173000583A00656E6473746F7073206869743A08
:101740002000446F6E6520736176696E672066695C
:101750006C652E0A004D3239004361726420726557
:101760006D6F766564004461746120496E6A6563DB
:101770007465640000000000010204040000001C05
:101780001C0C040404020100000000000408100006
:101790000000000025753A2530327500253032757D
:1017A0003A25303275002D2D2D0053440020202085
:1017B0002020200020202020004E4C2042473132A3
:1017C0002052656164792E005072696E74696E678B
:1017D0002E2E2E005072696E7420706175736564D0
:1017E000005072696E742061626F7274656400509B
:1017F00072696E742066726F6D2053440053746F6B
:1018000070207072696E7400526573756D6520701A
:1018100072696E74004E6F205344206361726400DD
:101820005061757365207072696E7400436F6E74D9
:10183000726F6C00507265706172650054756E65F0
:1018400000496E666F2073637265656E0056652D84
:101850006A65726B0056652D6A65726B0056652D60
:101860006A65726B00567A2D6A65726B00567A2D26
:101870006A65726B0056792D6A65726B0056792D18
:101880006A65726B0056792D6A65726B0056782D09
:101890006A65726B0056782D6A65726B0056782DFA
:1018A0006A65726B004D6F74696F6E004573746585
:1018B00070732F6D6D004573746570732F6D6D00BF
:1018C0005A73746570732F6D6D005A7374657073FD
:1018D0002F6D6D005973746570732F6D6D005973A2
:1018E000746570732F6D6D005873746570732F6D10
:1018F0006D005873746570732F6D6D004D6F746952
:101900006F6E0053746570732F6D6D004A65726B56
:1019100000416363656C65726174696F6E00566542
:101920006C6F636974790050726F6265205A204F42
:1019300066667365740050726F6265205A204F6648
:101940006673657400436F6E74726F6C0046696CE9
:101950002E204469612E0046696C2E204469612E58
:10196000004F6666004F6E20004520696E206D6D49
:101970003300436F6E74726F6C0043616E6E6F74F0
:1019800020656E746572207375626469723A200016
:10199000052E2E004D61696E00466C6F7700466C17
:1019A0006F770046616E2073706565640046616EF6
:1019B0002073706565640042656400426564004E92
:1019C0006F7A7A6C65004E6F7A7A6C650046616456
:1019D00065204865696768740046616465204865EC
:1019E0006967687400537065656400537065656469
:1019F000004D61696E005072656865617420504CDD
:101A00004120456E64005072656865617420504CD9
:101A10004120426564005072656865617420504CD5
:101A20004100507265706172650050726568656151
:101A3000742041425320456E6400507265686561B0
:101A400074204142532042656400507265686561AC
:101A500074204142530050726570617265004D34CC
:101A60003238005072656865617420504C41004303
:101A70006F6F6C646F776E0050726568656174207B
:101A80004142530044697361626C652073746570F0
:101A900070657273004D38340053657420686F6D43
:101AA00065206F66667365747300466164652048DF
:101AB00065696768740046616465204865696768A0
:101AC00074004F6666004F6E2000426564204C65CE
:101AD00076656C696E67004C6576656C206265643E
:101AE000004732380A473239004175746F20686FF9
:101AF0006D6500473238004D6F76652061786973F7
:101B0000004D61696E00526573656E643A20006F26
:101B10006B0020746F6F206C6F6E67206578747235
:101B20007573696F6E2070726576656E7465640A90
:101B30000020636F6C6420657874727573696F6ED2
:101B40002070726576656E7465640A0062757379DB
:101B50003A2070617573656420666F7220696E70DB
:101B600075740A00627573793A20706175736564E3
:101B700020666F7220757365720A00627573793A18
:101B80002070726F63657373696E670A004B494C0E
:101B90004C45442E20004B494C4C206361757365C5
:101BA00064206279204B494C4C20627574746F6ECE
:101BB0002F70696E0A004B494C4C45442E20004B57
:101BC000494C4C2063617573656420627920746FA1
:101BD0006F206D75636820696E6163746976652036
:101BE00074696D65202D2063757272656E74206353
:101BF0006F6D6D616E643A200020746F6F206C6FA2
:101C00006E6720657874727573696F6E2070726587
:101C100076656E7465640A0020636F6C6420657875
:101C200074727573696F6E2070726576656E746517
:101C3000640A0050726F62696E67206661696C6544
:101C4000640A0050726F62696E67206661696C6534
:101C50006400205A3A200020593A2000426564204E
:101C6000583A2000486F6D65202573257325732031
:101C70006669727374002066697273740A005A0090
:101C800059005800486F6D652000000020002300B7
:101C9000260029002C002F00320000010000030163
:101CA0000601090100002200250028002B002E005B
:101CB0003100340002010000050108010B01050597
:101CC0000505070508080808020202020A0A0808B2
:101CD00004040404010101010101010103030303E0
:101CE00003030303040707070C0C0C0C0C0C0C0C6F
:101CF0000202020206060606060606060B0B0B0B80
:101D00000B0B0B0B07070A0A0A0A0A0A050505044A
:101D100004040808010210202008081020401020A8
:101D2000408002010201080402010102040810209F
:101D3000408080402010080402018004020180409D
:101D40002010080402010804020101020408102006
:101D50004080010204081020408010080408801010
:101D60002040044080102040048043616E6E6F74F8
:101D7000206F70656E207375626469722000656300
:101D8000686F3A00453120544845524D414C20522D
:101D9000554E415741590042454420544845524D03
:101DA000414C2052554E4157415900546865726D5F
:101DB000616C2052756E61776179006F70656E207D
:101DC0006661696C65642C2046696C653A20004840
:101DD000617264636F6465642044656661756C74E8
:101DE0002053657474696E6773204C6F6164656419
:101DF0000A00DC050000580200000F000000102758
:101E000000000000FA430000C842000070410000DA
:101E1000C8410000A0420000A0420000C844008069
:101E20000D4320204D393036003A0A0020286D6DD0
:101E3000290020204D39313400205900205800530A
:101E4000656E736F726C65737320686F6D696E6712
:101E5000207468726573686F6C643A0A00205430AD
:101E6000204500205A002059002058005374657006
:101E7000706572206472697665722063757272652E
:101E80006E743A0A0020204D383531205A005A2D00
:101E900050726F6265204F6666736574002044005F
:101EA00020490020204D333031205000504944203B
:101EB00073657474696E67733A0A002046002042A5
:101EC0000020480020204D3134352053004D6174EE
:101ED000657269616C2068656174757020706172EB
:101EE000616D65746572733A0A00205A00204A00D9
:101EF00020204732392057204900205A0020204D09
:101F00003432302053004175746F20426564204C98
:101F10006576656C696E673A0A00205A00205900A0
:101F200020204D323036205800486F6D65206F6696
:101F3000667365743A0A00204500205A0020590053
:101F400020580020540020530020204D32303520EE
:101F5000510020453C6D61785F655F6A65726B3E3C
:101F60000020583C6D61785F785F6A65726B3E2037
:101F7000593C6D61785F795F6A65726B3E205A3CAF
:101F80006D61785F7A5F6A65726B3E00416476616D
:101F90006E6365643A20513C6D696E5F7365676D71
:101FA000656E745F74696D655F75733E20533C6D3B
:101FB000696E5F66656564726174653E20543C6D50
:101FC000696E5F74726176656C5F66656564726187
:101FD00074653E0020540020520020204D323034E1
:101FE000205000416363656C65726174696F6E2097
:101FF00028756E6974732F7332293A20503C7072C1
:10200000696E745F616363656C3E20523C726574F7
:10201000726163745F616363656C3E20543C7472EB
:102020006176656C5F616363656C3E0A0020450004
:10203000205A0020590020204D3230312058004DC8
:102040006178696D756D20416363656C657261745B
:10205000696F6E2028756E6974732F7332293A0A7E
:1020600000204500205A0020590020204D323033F6
:102070002058004D6178696D756D206665656472E4
:10208000617465732028756E6974732F73293A0A19
:1020900000204500205A0020590020204D393220D0
:1020A000580053746570732070657220756E697482
:1020B0003A0A0020204D3230302044300A002020DF
:1020C0004D3230302044002044697361626C656495
:1020D0000A0046696C616D656E742073657474697D
:1020E0006E67733A0020204D3134392043203B2065
:1020F000556E69747320696E2043656C73697573DE
:102100000A002020473231202020203B004E4C2066
:1021100042473132204F66662E00205A3A0020593D
:102120003A0020436F756E7420583A0020453A00FB
:10213000205A3A0020593A00583A002C20002C200E
:10214000003A004361703A00544845524D414C5F9B
:1021500050524F54454354494F4E004155544F52ED
:1021600045504F52545F53445F53544154555300AC
:10217000454D455247454E43595F50415253455294
:1021800000434153455F4C494748545F42524947D9
:1021900048544E45535300544F47474C455F4C49B4
:1021A0004748545300534F4654574152455F504F90
:1021B000574552004255494C445F50455243454EA5
:1021C00054004C4556454C494E475F4441544100EC
:1021D0005A5F50524F4245004155544F4C45564569
:1021E0004C005052494E545F4A4F420050524F47A4
:1021F00052455353004155544F5245504F52545F2E
:1022000054454D5000564F4C554D4554524943008E
:10221000454550524F4D0053455249414C5F584F30
:102220004E5F584F4646004649524D574152455F12
:102230004E414D453A4D61726C696E20312E312E02
:102240003920284769746875622920534F555243D5
:10225000455F434F44455F55524C3A687474707300
:102260003A2F2F6769746875622E636F6D2F4D6109
:10227000726C696E4669726D776172652F4D61721D
:102280006C696E2050524F544F434F4C5F5645522D
:1022900053494F4E3A312E30204D414348494E4527
:1022A0005F545950453A4E4C2042473132204558F0
:1022B0005452554445525F434F554E543A31205580
:1022C0005549443A63656465326132662D34316143
:1022D000322D343734382D396231322D6335356340
:1022E00036326633363766660A002F2F20002046C6
:1022F0006C6F773A2000000125311D40FFFFFF2958
:1023000024301C45FFFFFF27232F1B0AFFFFFFFF81
:1023100043FFFF040806FFFF222B1AFFFF42043889
:1023200003063653442063617264206F6B0A006FAA
:1023300070656E526F6F74206661696C65640A0027
:10234000766F6C756D652E696E6974206661696C57
:1023500065640A00534420696E6974206661696C83
:102360000A0057726974696E6720746F2066696C21
:10237000653A20006F70656E206661696C65642C3B
:102380002046696C653A20006F70656E2066616951
:102390006C65642C2046696C653A200046696C6562
:1023A0002073656C65637465640A002053697A65FF
:1023B0003A200046696C65206F70656E65643A204E
:1023C000002066696C653A2000646F696E6700667C
:1023D00072657368004E6F772000454E4420535558
:1023E00042524F5554494E450A002220706F7300E7
:1023F0002220706172656E743A2200535542524F2A
:102400005554494E452043414C4C207461726765D8
:10241000743A22004B494C4C45442E20007472798A
:10242000696E6720746F2063616C6C207375622D18
:1024300067636F64652066696C657320776974688B
:1024400020746F6F206D616E79206C6576656C739A
:102450002E204D4158206C6576656C2069733A00DA
:102460004572726F723A00486F6D696E67206661DF
:10247000696C656400202844525952554E29004722
:102480003239204175746F20426564204C65766551
:102490006C696E67003F20284C2C522C462C422938
:1024A000206F7574206F6620626F756E64732E0ADC
:1024B000003F2856296572626F7365206C657665EA
:1024C0006C20697320696D706C61757369626C65ED
:1024D0002028302D34292E0A00426164205A2076AB
:1024E000616C75650A004E6F2062696C696E65618A
:1024F0007220677269640A0046696C652064656CC5
:10250000657465643A0044656C6574696F6E206635
:1025100061696C65642C2046696C653A2000256908
:10252000730025696D202569730025696820256978
:102530006D20256973002569642025696820256957
:102540006D20256973002569792025696420256936
:10255000682025696D20256973005072696E7420AA
:1025600074696D653A200070012C0190012701B05B
:10257000012201C0011D01F00118011002130130F8
:10258000020E016002090190020401C002FF000076
:1025900003FA004003F5008003F000D003EB0020B5
:1025A00004E6007004E100E004DC004005D700C050
:1025B00005D2004006CD00D006C8008007C3003019
:1025C00008BE00F008B900C009B400B00AAF00B0FE
:1025D0000BAA00D00CA500000EA000500F9B00C05D
:1025E0001096005012910000148C00C0158700B0A6
:1025F000178200B0197D00D01B7800001E730040C8
:10260000206E0090226900F024640040275F009053
:10261000295A00E02B5500102E500020304B00109E
:10262000324600E033410090353C001037370070EF
:10263000383200A0392D00B03A2800A03B230060BA
:102640003C1E00103D1900903D1400103E0F00701C
:102650003E0A00C03E0500003F0000403FFBFF80F7
:102660003FF6FFC03FF1FF453400453300453200DF
:102670004531004530005A32005932005832005A74
:1026800000590058004531204572723A204D41589A
:1026900054454D50004572723A204D415854454DB5
:1026A0005020424544004D415854454D50207472CD
:1026B00069676765726564004531204572723A202A
:1026C0004D494E54454D50004572723A204D494E89
:1026D00054454D5020424544004D494E54454D50BF
:1026E00020747269676765726564004D38342058DC
:1026F0002059205A204500202F002042403A002037
:10270000403A00832681267F267C2679267626730A
:102710002670266D266A26672674727565006661C6
:102720006C7365002074656D706572617475726597
:10273000207072657761726E207472696767657266
:1027400065643A2000207072657761726E20666C55
:10275000616720636C65617265640A0020686F6D53
:10276000696E672073656E73697469766974793A06
:102770002000506C6561736520726573657400504C
:1027800052494E5445522048414C544544005072E1
:10279000696E7465722068616C7465642E206B6963
:1027A0006C6C28292063616C6C6564210A002064CC
:1027B00072697665722063757272656E743A200074
:1027C000656E7175657565696E6720220000000091
:1027D00000000040C1000000000000204200002076
:1027E0004200008040000000005761726E696E6711
:1027F0003A20486F6D696E672042756D702044699C
:102800007669736F72203C20310A000202040000D6
:10281000A0400000A040000000400000964300805F
:102820009D430000BE43FFFFFF00002110422063D4
:10283000308440A550C660E770088129914AA16B99
:10284000B18CC1ADD1CEE1EFF13112100273325231
:1028500022B5529442F772D662399318837BB35AE9
:10286000A3BDD39CC3FFF3DEE36224433420040101
:1028700014E664C774A44485546AA54BB528850939
:1028800095EEE5CFF5ACC58DD553367226111630D1
:1028900006D776F6669556B4465BB77AA719973889
:1028A00087DFF7FEE79DD7BCC7C448E5588668A711
:1028B000784008611802282338CCC9EDD98EE9AFD9
:1028C000F9488969990AA92BB9F55AD44AB77A9671
:1028D0006A711A500A333A122AFDDBDCCBBFFB9E29
:1028E000EB799B588B3BBB1AABA66C877CE44CC541
:1028F0005C222C033C600C411CAEED8FFDECCDCD79
:10290000DD2AAD0BBD688D499D977EB66ED55EF410
:102910004E133E322E511E700E9FFFBEEFDDDFFCC8
:10292000CF1BBF3AAF599F788F8891A981CAB1EB6D
:10293000A10CD12DC14EF16FE18010A100C230E396
:10294000200450254046706760B9839893FBA3DA52
:10295000B33DC31CD37FE35EF3B1029012F322D2E6
:10296000323542145277625672EAB5CBA5A89589E2
:10297000856EF54FE52CD50DC5E234C324A0148136
:10298000046674476424540544DBA7FAB79987B8F2
:10299000975FE77EF71DC73CD7D326F2369106B086
:1029A0001657667676154634564CD96DC90EF92FF2
:1029B000E9C899E9898AB9ABA944586548067827D6
:1029C00068C018E1088238A3287DCB5CDB3FEB1E92
:1029D000FBF98BD89BBBAB9ABB754A545A376A1626
:1029E0007AF10AD01AB32A923A2EFD0FED6CDD4D22
:1029F000CDAABD8BADE89DC98D267C076C645C4576
:102A00004CA23C832CE01CC10C1FEF3EFF5DCF7C31
:102A1000DF9BAFBABFD98FF89F176E367E554E74C5
:102A20005E932EB23ED10EF01E5654726176206D2A
:102A3000696E005654726176206D696E005654724C
:102A40006176206D696E00566D696E00566D696E17
:102A500000566D696E00566D6178204500566D61B7
:102A600078204500566D6178204500566D617820CC
:102A70005A00566D6178205A00566D6178205A00D0
:102A8000566D6178205900566D6178205900566D59
:102A90006178205900566D6178205800566D617834
:102AA000205800566D61782058004D6F74696F6E24
:102AB00000416D6178204500416D617820450041FD
:102AC0006D6178205A00416D6178205A00416D6136
:102AD00078205900416D6178205900416D6178205E
:102AE0005800416D6178205800412D7472617665FF
:102AF0006C00412D74726176656C00412D726574B5
:102B00007261637400412D72657472616374004177
:102B10006363656C00416363656C004D6F74696F3E
:102B20006E00545249474745524544006F70656EE8
:102B3000003A20007A5F6D696E00795F6D696E0002
:102B4000785F6D696E005265706F7274696E672090
:102B5000656E6473746F70207374617475730A00AA
:102B6000FFFDFCFAF8F6F4F2F0EEECEAE9E7E5E353
:102B7000E1E0DEDCDAD9D7D5D4D2D0CFCDCBCAC80C
:102B8000C7C5C3C2C0BFBDBCBAB9B7B6B4B3B2B093
:102B9000AFADACAAA9A8A6A5A4A2A1A09E9D9C9AEF
:102BA00099989795949392908F8E8D8B8A89888728
:102BB0008684838281807F7E7D7B7A797877767543
:102BC00074737271706F6E6D6C6B6A69686766653D
:102BD00064636261605F5E5D5C5B5A59585857562A
:102BE000555453525150504F4E4D4C4B4A4A494800
:102BF000474646454443424241403F3E3E3D3C3BC2
:102C00003B3A393838373635353433323231303073
:102C10002F2E2E2D2C2B2B2A292928272726252518
:102C200024232322212120201F1E1E1D1C1C1B1BB0
:102C30001A1919181817161615151413131212113C
:102C400011100F0F0E0E0D0D0C0C0B0A0A090908BE
:102C50000807070606050504040303020201000035
:102C600000000001000000010000800055555500E3
:102C70000000400033333300AAAA2A0049922400FE
:102C800000002000C7711C0099991900D145170058
:102C9000555515003BB113002449120011111100C4
:102CA000000010000F0F0F00E3380E0043790D00F5
:102CB000CCCC0C00C3300C00E8A20B0064210B004C
:102CC000AAAA0A00703D0A009DD80900427B0900AB
:102CD00092240900DCD3080088880800104208000C
:102CE00000000800F0C10700878707007550070043
:102CF000711C07003EEB0600A1BC060069900600AF
:102D000066660600703E06006118060017F40500AE
:102D100074D105005BB00500B29005006272050039
:102D20005555050078390500B81E05000505050054
:102D30004EEC040087D40400A1BD040090A7040059
:102D400049920400C17D0400EE690400C7560400E6
:102D5000444404005C3204000821040041100400D3
:102D6000000004003FF00300F8E0030026D2030057
:102D7000C3C30300CCB503003AA803000A9B0300B9
:102D8000388E0300C08103009F750300D0690300E3
:102D9000505E03001D53030034480300913D0300BF
:102DA0003333030016290300381F0300971503006F
:102DB000300C0300030303000BFA020049F1020088
:102DC000BAE802005CE002002DD802002DD002001B
:102DD00059C80200B0C0020031B90200DAB10200E5
:102DE000AAAA0200A0A30200BC9C0200FA9502005D
:102DF0005C8F0200DF88020082820200457C0200B4
:102E00002776020027700200436A02007C640200F9
:102E1000D05E02003F590200C85302004D32340018
:102E20004D323320257300556E6B6E6F776E2063C5
:102E30006F6D6D616E643A20220006FFFFFFFFFF99
:102E40000001010101016265640A002C207379739D
:102E500074656D2073746F707065642120486561BE
:102E60007465725F49443A20004265642068656178
:102E700074696E67206661696C6564004865617499
:102E8000696E67206661696C65640045312048653C
:102E90006174696E67206661696C6564004865618C
:102EA00074696E67206661696C6564004D6F766554
:102EB0002058004D6F76652059004D6F7665205A79
:102EC000004578747275646572004D6F76652030C8
:102ED0002E316D6D004D6F766520316D6D004D6F3B
:102EE00076652031306D6D004D6F766520617869B3
:102EF00073004578747275646572004D6F76652055
:102F00005A004D6F76652059004D6F766520580048
:102F1000F2FEBC0011241FBECFEFD1E2DEBFCDBF59
:102F200000E00CBF13E0A0E0B2E0E2E6FEE102E068
:102F30000BBF02C007900D92A035B107D9F725E16C
:102F4000A0E5B3E001C01D92A63EB207E1F717E18C
:102F5000C9E8D7E100E006C021970109802FFE01F2
:102F60000F94950EC838D10780E00807A9F70E9492
:102F700053F90D94200F0C9400002F923F924F9222
:102F80005F926F927F928F929F92AF92BF92CF92F9
:102F9000DF92EF92FF920F931F93CF93DF93CDB702
:102FA000DEB7C559D1090FB6F894DEBF0FBECDBF4D
:102FB00021E020933C078091A5068D3411F40C94F8
:102FC000AE21843511F40C94D431873411F00C9473
:102FD0001F328091A3069091A4068C31910509F4CB
:102FE00047C67CF4843091053CF48230910594F519
:102FF00097FF29C00C94AA21049709F4FBC50C94EF
:10300000AA218A32910511F40C9422204CF48D31BE
:10301000910509F43FC74E9709F440C70C94AA21C3
:103020008B35910511F40C94E4208C35910511F445
:103030000C94E8208A35910511F00C94AA21109285
:1030400054030C9421328091490281110C94263250
:103050000C94213220914902222311F40C94213244
:1030600011E0029709F010E00E947DCD82E50E94F8
:10307000513C882309F44AC10E94D73B6B017C0173
:103080004090A0075090A1076090A2077090A307FE
:103090002091A4073091A5074091A6075091A7075A
:1030A00028AF39AF4AAF5BAF8091130F9091140FE7
:1030B000A091150FB091160F8CAF9DAFAEAFBFAF03
:1030C0002091170F3091180F4091190F50911A0F3E
:1030D00028962CAF3DAF4EAF5FAF289720E030E091
:1030E000A901C701B6010F946D07882309F468C5CB
:1030F000A30192016CAD7DAD8EAD9FAD0F946D07B8
:1031000081110FC028AD39AD4AAD5BAD28966CADCD
:103110007DAD8EAD9FAD28970F946D07882309F480
:103120004FC520E030E0A901C701B6010F946D073B
:10313000881F8827881F18130BC080E090E0A0E844
:10314000BFE364968CAF9DAFAEAFBFAF64970AC0CC
:1031500020E030E040E85FEB64962CAF3DAF4EAF2F
:103160005FAF6497A30192016CAD7DAD8EAD9FAD55
:103170000F94A50B2C966CAF7DAF8EAF9FAF2C97A5
:1031800028AD39AD4AAD5BAD28966CAD7DAD8EAD49
:103190009FAD28970F94A50B60966CAF7DAF8EAF57
:1031A0009FAF60972C962CAD3DAD4EAD5FAD2C978B
:1031B000CA01B9010F94D2074B015C0160962CAD96
:1031C0003DAD4EAD5FAD6097CA01B9010F94D20716
:1031D0009B01AC01C501B4010F94A60B0F94110E15
:1031E00024966CAF7DAF8EAF9FAF249720E030E088
:1031F00040E05FE30F94D2074B015C01A701960109
:10320000C701B6010F94D2076B017C01A50194019F
:10321000C501B4010F94D2079B01AC01C701B601EF
:103220000F94A50B0F94110E9B01AC0164966CAD2D
:103230007DAD8EAD9FAD64970F94D2074B015C01BD
:103240002CAD3DAD4EAD5FADC301B2010F94A60BE9
:1032500020E030E040E05FE30F94D2076B017C0197
:1032600060966CAD7DAD8EAD9FAD60979058249605
:103270002CAD3DAD4EAD5FAD24970F94820C9B01FC
:10328000AC01C501B4010F94D2079B01AC01C70189
:10329000B6010F94A60BA30192010F94A50B6B012D
:1032A0007C0128962CAD3DAD4EAD5FAD289768AD45
:1032B00079AD8AAD9BAD0F94A60B20E030E040E0E5
:1032C0005FE30F94D2072B013C0124962CAD3DAD5A
:1032D0004EAD5FAD24972C966CAD7DAD8EAD9FADA0
:1032E0002C970F94820C9B01AC01C501B4010F9483
:1032F000D2079B01AC01C301B2010F94A60B28AD0C
:1033000039AD4AAD5BAD0F94A50B14C089E40E94A2
:10331000513C882329F00E94D73B6B017C0103C0FC
:10332000C12CD12C76018AE40E94513C8823F9F00B
:103330000E94D73B28966CAF7DAF8EAF9FAF28978A
:1033400020E030E0A901C701B6010F946D0781119B
:103350001EC020E030E0A90128966CAD7DAD8EAD99
:103360009FAD28970F946D07811111C029C420E0EB
:1033700030E0A901C701B6010F946D07882309F455
:103380001FC428961CAE1DAE1EAE1FAE2897D701D7
:10339000C601B05888AF99AFAAAFBBAF28962CAD85
:1033A0003DAD4EAD5FAD289750582CAF3DAF4EAF01
:1033B0005FAF9C01AD01BC01CD010F94D2074B0161
:1033C0005C012CAD3DAD4EAD5FADCA01B9010F94AE
:1033D000D2079B01AC01C501B4010F94A60B0F9459
:1033E000110EA0966CAF7DAF8EAF9FAFA09780916E
:1033F000A0079091A107A091A207B091A3072496DE
:103400008CAF9DAFAEAFBFAF2497A7019601BC01B3
:10341000CD010F94A60B64966CAF7DAF8EAF9FAFBE
:1034200064972091A4073091A5074091A607509179
:10343000A7072C962CAF3DAF4EAF5FAF2C972896C9
:103440002CAD3DAD4EAD5FAD28972C966CAD7DADEE
:103450008EAD9FAD2C970F94A60BA4966CAF7DAF4D
:103460008EAF9FAFA4978091130F9091140FA091EE
:10347000150FB091160F60968CAF9DAFAEAFBFAF7A
:10348000609764962CAD3DAD4EAD5FAD6497BC01C9
:10349000CD010F94A50B6B017C012091170F30918A
:1034A000180F4091190F50911A0F68962CAF3DAF2D
:1034B0004EAF5FAF6897A4962CAD3DAD4EAD5FADFE
:1034C000A49768966CAD7DAD8EAD9FAD68970F9457
:1034D000A50B4B015C018091A8079091A907A091D1
:1034E000AA07B091AB076C968CAF9DAFAEAFBFAFE4
:1034F0006C979C01AD0160911B0F70911C0F809126
:103500001D0F90911E0F0F94A50B2B013C012091D4
:103510001F0F3091200F4091210F5091220FAC9638
:103520002CAF3DAF4EAF5FAFAC978091AC079091A1
:10353000AD07A091AE07B091AF07A8968CAF9DAF35
:10354000AEAFBFAFA897A701960168AD79AD8AADC0
:103550009BAD0F94D207E0966CAF7DAF8EAF9FAF5F
:10356000E097A50194016CAD7DAD8EAD9FAD0F943C
:10357000D2079B01AC01E0966CAD7DAD8EAD9FADE9
:10358000E0970F94A60BE0966CAF7DAF8EAF9FAF28
:10359000E097A501940168AD79AD8AAD9BAD0F941C
:1035A000D2074B015C01A70196016CAD7DAD8EADDC
:1035B0009FAD0F94D2079B01AC01C501B4010F94DC
:1035C000A50BE0962CAD3DAD4EAD5FADE0970F94F1
:1035D000190C6B017C0120E030E0A9010F946D070C
:1035E00087FF0AC02BED3FE049EC50E4C701B6016C
:1035F0000F94A60B6B017C01112351F02BED3FE0E2
:1036000049EC50E4C701B6010F94A50B6B017C0196
:1036100020E030E0A901C701B6010F946D078111C8
:1036200028C060962CAD3DAD4EAD5FAD6097249641
:103630006CAD7DAD8EAD9FAD24970F946D0781115C
:1036400018C068962CAD3DAD4EAD5FAD68972C9619
:103650006CAD7DAD8EAD9FAD2C970F946D07811134
:1036600008C02BEDC22E2FE0D22E29ECE22E20E452
:10367000F22EA7019601A0966CAD7DAD8EAD9FADEB
:10368000A0970F94D2074B015C0120E030E0A90124
:10369000C301B2010F946D078823C9F0A5019401FD
:1036A000C501B4010F94D2074B015C01A301920143
:1036B000C301B2010F94D2079B01AC01C501B40153
:1036C0000F94A60B0F94110E4B015C010DC020E06E
:1036D00030E0A901C501B4010F94CC0D87FF04C0EF
:1036E000B7FAB094B7F8B0942FE632E143E85AE362
:1036F000C501B4010F946D0787FF02C00C942132FD
:10370000C501B4010F941B0D0F94EF0C1B01672B27
:1037100019F422242394312CB10180E090E00F941D
:1037200071074B015C019B01AC01C701B6010F940D
:10373000820C24966CAF7DAF8EAF9FAF2497A5010E
:103740009401C301B2010F94820CA0966CAF7DAFBF
:103750008EAF9FAFA097A8962CAD3DAD4EAD5FAD9F
:10376000A897AC966CAD7DAD8EAD9FADAC970F9428
:10377000A50BA50194010F94820CAC966CAF7DAFA4
:103780008EAF9FAFAC9724962CAD3DAD4EAD5FADE7
:103790002497CA01B9010F94D20720E030E040E03D
:1037A0005FE30F94D2079B01AC0160E070E080E81A
:1037B0009FE30F94A50B68966CAF7DAF8EAF9FAF64
:1037C00068976C962CAD3DAD4EAD5FAD6C9729877B
:1037D0003A874B875C87A8968CAD9DADAEADBFADEB
:1037E000A8978D879E87AF87B88B609124027091D0
:1037F0002502072E000C880B990B0F94730720915C
:103800003B0230913C0240913D0250913E020F94A8
:10381000D2072AE037ED43E25CE30F94D2076CABAA
:103820007DAB8EAB9FAB0E9417699B01AC01285307
:103830003F4F4F4F5F4F6C962CAF3DAF4EAF5FAFDA
:103840006C9748AC59AC6AAC7BAC41E050E02E962A
:103850005FAF4EAF2E9759E129965FAF29972E960D
:103860002EAD3FAD2E972215330509F44EC10E94AF
:10387000EFF10E941769DC01CB016C962CAD3DADD8
:103880004EAD5FAD6C97821B930BA40BB50BB7FDD0
:1038900010C00E9417699B01AC0128533F4F4F4F46
:1038A0005F4F6C962CAF3DAF4EAF5FAF6C970E94F1
:1038B000DE9629963FAD2997315029963FAF29973B
:1038C000332309F445C068962CAD3DAD4EAD5FADD8
:1038D00068976CAD7DAD8EAD9FAD0F94D2076B0137
:1038E0007C0124962CAD3DAD4EAD5FAD2497B20169
:1038F000C3010F94D207A70196010F94A60B7B0179
:103900008C0168962CAD3DAD4EAD5FAD6897B201B0
:10391000C3010F94D2074B015C0124962CAD3DAD41
:103920004EAD5FAD24976CAD7DAD8EAD9FAD0F9468
:10393000D2079B01AC01C501B4010F94A50B2B016B
:103940003C01C701D8018CAF9DAFAEAFBFAF5BC02C
:103950002E964EAD5FAD2E97BA0180E090E00F94A9
:10396000710724962CAD3DAD4EAD5FAD24970F94FD
:10397000D2074B015C010F947F0C6B017C01C501E8
:10398000B4010F94070E4B015C01A701960168ADCD
:1039900079AD8AAD9BAD0F94D2072B013C01A501F7
:1039A000940128966CAD7DAD8EAD9FAD28970F9498
:1039B000D2079B01AC01C301B2010F94A60B2B01EE
:1039C0003C01A501940168AD79AD8AAD9BAD0F9422
:1039D000D2074B015C01A701960128966CAD7DAD25
:1039E0008EAD9FAD28970F94D2079B01AC01C50106
:1039F000B4010F94A50B6CAF7DAF8EAF9FAF59E1B3
:103A000029965FAF29979201A30164966CAD7DADB5
:103A10008EAD9FAD64970F94A60B69837A838B83D9
:103A20009C832CAD3DAD4EAD5FADA4966CAD7DAD30
:103A30008EAD9FADA4970F94A60B6D837E838F836D
:103A40009887A0962CAD3DAD4EAD5FADA097698532
:103A50007A858B859C850F94A60B69877A878B87DF
:103A60009C87AC962CAD3DAD4EAD5FADAC976D85F2
:103A70007E858F8598890F94A60B6D877E878F87AB
:103A8000988B80915602882321F0CE0101960E94E6
:103A900044DBE090F8051CA61DA61EA61FA6898182
:103AA0009A81AB81BC8188A399A3AAA3BBA38D8172
:103AB0009E81AF81B8858CA39DA3AEA3BFA389854A
:103AC0009A85AB85BC8588A799A7AAA7BBA7AE0195
:103AD000485D5F4FBE016C5D7F4FCE0180960E94B6
:103AE00007B0CE018C966C018E010C5C1F4F9E01BD
:103AF000235F3F4FAE01485D5F4FBE016C5D7F4F5E
:103B00000C970E94D7A1811151C0E090F80518AA26
:103B100019AA1AAA1BAA8091130F9091140FA091B1
:103B2000150FB091160F88A399A3AAA3BBA38091E8
:103B3000170F9091180FA091190FB0911A0F8CA325
:103B40009DA3AEA3BFA380911B0F90911C0FA091CA
:103B50001D0FB0911E0F88A799A7AAA7BBA7AE01FA
:103B6000485D5F4FBE016C5D7F4FCE0180960E9425
:103B700007B0DE01D0966D018E010C5C1F4F2FE166
:103B80003FE0AE01485D5F4FBE016C5D7F4FCE01EF
:103B900080960E94D7A180E1E3E1FFE0A0EAB7E0D0
:103BA00001900D928A95E1F70C9421322E96EEAD9C
:103BB000FFAD2E9731962E96FFAFEEAF2E974FCEDC
:103BC000E0E6F4E284918F010F5F1F4F882321F01C
:103BD0000E946D3CF801F6CFEDEDF1E084918F018C
:103BE0000F5F1F4F882311F40C9421320E946D3C0B
:103BF000F801F4CF80E50E94513C882329F00E940F
:103C0000973B6B017C0103C0C12CD12C760183E56D
:103C10000E94513C882361F00E94D73B20E030E0B5
:103C20004AE754E40F94D2070F94EF0C6B017C0128
:103C30000E9482AF8091B407811105C060E083EFDC
:103C400091E00E94B47F0E941769C60ED71EE81E3D
:103C5000F91E0E941769DC01CB018C199D09AE0980
:103C6000BF09B7FD02C00C9421320E94DE96F1CF4D
:103C700080918F078770873071F48FE40E94513CE8
:103C8000882319F00E94C83B03C08FE40E940A3CBD
:103C900081110C9421320E9482AFB090820680E0A4
:103CA0000E94053A0E94493711E01093600488E5AC
:103CB0000E940A3C982E89E50E940A3C082F8AE55A
:103CC0000E940A3CA82E911004C0011104C01827BC
:103CD00005C0011102C010E001C0182F0E94633C12
:103CE00082E50E94513C882361F00E94D73B6B0122
:103CF0007C0120E030E0A9010F946D07882369F171
:103D000005C0C12CD12C80E4E82EFE2C111104C07A
:103D1000911002C0002391F1C0921B0FD0921C0F92
:103D2000E0921D0FF0921E0F2091A8073091A90775
:103D30004091AA075091AB07C701B6010F94CC0D73
:103D400018165CF419821A821B821C82BE016F5FF6
:103D50007F4F8BE19FE00E944538111105C0911003
:103D600003C0011106C00AC080E00E94D6DB112307
:103D7000C1F381E00E94D6DB111103C0AA2009F42F
:103D800077C080918F0783708330F1F060E08BE023
:103D900092E00E94B47FEEE7FDE184918F010F5F16
:103DA0001F4F882321F00E946D3CF801F6CFECEF05
:103DB000F1E084918F010F5F1F4F882309F458C0F1
:103DC0000E946D3CF801F5CF0E94BE3980E090E082
:103DD000A6E1B3E48093130F9093140FA093150FF3
:103DE000B093160F8091A8079091A907A091AA07F8
:103DF000B091AB0780931B0F90931C0FA0931D0FE6
:103E0000B0931E0F80E090E0A5E2B3E48093170F1B
:103E10009093180FA093190FB0931A0F64EF71E0ED
:103E200080E090E00E94077019821A821B821C8237
:103E3000E090A807F090A9070091AA071091AB079E
:103E40002091170F3091180F4091190F50911A0FB0
:103E50006091130F7091140F8091150F9091160FB0
:103E6000DE0111966D010E94683782E00E94D6DB68
:103E70000E94BE3980915F04809360048B2D0E9464
:103E8000053A0E94303783E080933F020E945DC470
:103E90000C9421320E9446CF0C942132C090A0078E
:103EA000D090A107E090A207F090A30788E50E94B8
:103EB000513C811108C020E030E0A901C701B601E2
:103EC0000F94A60B02C00E94D73B68A379A38AA3D4
:103ED0009BA3C090A407D090A507E090A607F09000
:103EE000A70789E50E94513C811109C020E030E01C
:103EF00040E751E4C701B6010F94A50B02C00E9430
:103F0000D73B9B01AC0169837A838B839C8368A137
:103F100079A18AA19BA10E942FDD882311F40C9422
:103F2000213280E00E94053A0E94493785E40E94D0
:103F3000513C882321F00E94C83B182F04C085E41F
:103F40000E940A3C11E086E50E94513C882321F042
:103F50000E94A73B262F01C021E0412FBE016F5FC9
:103F60007F4FCE0180960E9429B46B017C019B019A
:103F7000AC010F94520E81115FC088A099A0AAA035
:103F8000BBA020E030E0A901C501B4010F946D078A
:103F900087FD05C027E137EB41E558E304C027E181
:103FA00037EB41E558EBC501B4010F94A60BAB010B
:103FB000BC0183E292E00E94E1EC89809A80AB80B0
:103FC000BC8020E030E0A901C501B4010F946D0769
:103FD00087FD05C027E137EB41E558E304C027E141
:103FE00037EB41E558EBC501B4010F94A60BAB01CB
:103FF000BC018EE192E00E94E1EC20E030E0A901FA
:10400000C701B6010F946D0787FD05C027E137EBA7
:1040100041E558E304C027E137EB41E558EBC70120
:10402000B6010F94A60BAB01BC0189E192E00E949E
:10403000E1EC8AE00E946D3C0E9430370E945DC432
:104040000C94213280914902882311F40C9421327E
:1040500089E40E94513CF82E882321F00E94A73B5E
:10406000E62E01C0E12C8AE40E94513C182F8823DF
:1040700031F00E94A73B062FF11004C00BC000E0F6
:10408000FF20B9F0B2E0BE1510F00C942E36EBE232
:10409000F2E003C00330D8F70CC084918F010F5FAA
:1040A0001F4F882311F40C9421320E946D3CF801BB
:1040B000F4CF0E94633CFF20F1F020917A0630910A
:1040C0007B064E2D4203B001439F700D1124809159
:1040D000F2039091F303680F791F072E000C880BF1
:1040E000990B0F9473076093130F7093140F8093C1
:1040F000150F9093160F1123E9F020917C06309153
:104100007D060203B001039F700D11242091F4037A
:104110003091F503620F731F072E000C880B990B6B
:104120000F9473076093170F7093180F8093190FF4
:1041300090931A0F80E50E94513C8823E9F00E9479
:10414000C83B8823E9F01123D9F020E030E040E7B4
:1041500051E46091170F7091180F8091190F909191
:104160001A0F0F94A60B6093170F7093180F80937C
:10417000190F90931A0F04C080E50E940A3CE1CF0A
:1041800086E40E94513C8823D9F00E94D73B6B0102
:104190007C0120E030E0A9010F94CC0D181684F4C6
:1041A00020E030E040E752E4C701B6010F94820CF2
:1041B00060933B0270933C0280933D0290933E02D9
:1041C0000E94D4990C942132209354030C942132F0
:1041D0001BE5212E12E0312E07E0C02E0FE0D02E7D
:1041E000E12CF12C00E010E0D1018D911D010E9425
:1041F000513C882309F44EC00E94D73B2B013C015F
:10420000133059F0F701E057F84F20813181428196
:1042100053810F94A50B2B013C01F701E056F84F99
:104220002081318142815381C301B2010F94A50BDA
:104230004B015C012DEB37E346E855EB0F94CC0DB9
:1042400087FD0AC02DEB37E346E855E3C501B4010D
:104250000F946D071816F4F4133051F44092AC0724
:104260005092AD076092AE077092AF0701E012C0A6
:10427000A5019401F60160817181828193810F947F
:10428000A60BD6016D937D938D939C931397812FED
:104290000E9403391F5FB4E0CB0ED11CE4E0EE0EA8
:1042A000F11C143009F0A0CF002309F44FC020E026
:1042B00030E0A9016091AC077091AD078091AE0725
:1042C0009091AF070F94A60B20916D0630916E066A
:1042D00040916F06509170060F94D2070F94D70D3E
:1042E0006093EA097093EB098093EC099093ED09D0
:1042F0009091C8098091C909981719F00E9424AFBC
:1043000025C00E9482AF80916F0081FB992790F9B0
:1043100081FF05C080916F008D7F80936F00409179
:10432000EA095091EB096091EC097091ED09409315
:104330009E1550939F156093A0157093A115992316
:1043400029F080916F00826080936F000E945DC4AD
:104350000C9421320E94DFE80C9421328091A30654
:104360009091A4068637910509F4C8C40CF0CDC01D
:104370008C34910509F492C30CF05BC0893191052E
:1043800009F4B7C21CF58431910509F444C27CF4E8
:104390008131910509F434C22CF4029708F4B8C1B4
:1043A0000C94D131429709F47EC40C94D1318631FA
:1043B000910509F477C20CF471C28731910509F4B3
:1043C00077C2489709F48AC20C94D1318E31910595
:1043D00009F447C384F48B31910509F49EC20CF4AF
:1043E0008EC28C31910509F432C34D9711F40C94AF
:1043F00021320C94D1318A32910509F447C364F417
:104400008F31910509F43EC3809711F00C94D1319E
:104410000E94E1780C9421328033910509F43AC36B
:104420008B34910511F00C94D1310E9492F30C94CD
:1044300021328A36910509F426C4B4F584359105F4
:1044400009F431C4E4F48135910509F424C44CF431
:104450008D34910511F00C94D1310E94E0F30C944D
:1044600021328235910509F41AC48335910511F082
:104470000C94D13181E0809353030C9421328C351C
:10448000910509F42FC434F48535910509F40FC45E
:104490000C94D1318836910509F404C3893691050D
:1044A00009F49DC30C94D1318F36910509F411C3E1
:1044B00084F48C36910509F45AC30CF4E8C38D36A4
:1044C000910509F4A7C38E36910509F4EFC20C9447
:1044D000D1318237910509F409C454F4803791052C
:1044E00009F449C38137910509F44DC30C94D131C6
:1044F0008337910509F4FEC38537910511F00C94BB
:10450000D1310E9401C40C9421328F32F1E09F0717
:1045100011F40C94EE2A0CF06AC08B3C910509F45E
:104520004EC484F58139910509F4FDC384F48837BC
:10453000910509F4EBC30CF4E5C38937910509F43F
:10454000ECC38C38910509F469C30C94D1318E3BCE
:10455000910509F481C34CF48B39910511F00C9449
:10456000D1310E94D8720C942132883C910509F413
:10457000DEC3893C910511F00C94D1310E948AC3AD
:104580000C9421328C3D910509F4F6C694F48D3CCF
:10459000910509F490C40CF416C48E3C910509F4FD
:1045A0000BC5833D910511F00C94D131EEE7FDE18F
:1045B00004C68C3231E0930709F4F1C66CF48D3DEA
:1045C000910509F4E8C6823E910511F00C94D131B1
:1045D0000E948DC20C9421328D3251E0950709F46E
:1045E00008C78E32914009F4A5C70C94D131863F9B
:1045F000B1E09B0711F40C945B300CF04AC08A398F
:10460000F1E09F0709F4BBC214F5803931E093074C
:1046100011F40C94AC2E4CF48336914011F00C94B0
:10462000D131E0E6F4E20C94952E8139A1E09A07AD
:1046300011F40C94AF2E8239914011F00C94D131C9
:1046400080E00E9463380E945DC40C9421328C3A51
:10465000E1E09E0709F4D1C46CF4843A21E09207AA
:1046600011F40C94B52E853A914011F40C94C42F9A
:104670000C94D131843F41E0940711F40C945830EC
:10468000853F914011F00C94D1310E9472C10C947D
:1046900021328B38A3E09A0711F40C942132C4F430
:1046A000883FE1E09E0711F40C946A3014F40C94F6
:1046B0005E30833523E0920711F40C948D308A38F4
:1046C000934011F00C94D1310E94D7C10C94213247
:1046D000823943E0940711F40C946B316CF48F38F9
:1046E000A3E09A0711F40C94F3308039934011F44D
:1046F0000C94F6300C94D131803AE3E09E0709F433
:10470000B4C1873E934011F40C94BC310C94D13168
:10471000A090A106B090A20680E50E94513C88239B
:1047200059F00E94973B6B017C0111E0672B682BCD
:10473000692B31F410E004C010E0C12CD12C7601BB
:1047400083E50E94513C882311F40C942B320E9483
:10475000D73B20E030E04AE754E40F94D2070F94AF
:10476000EF0C6B017C0111110BC0672B682B692BBF
:1047700039F4A114B10421F0D5018C91811102C04A
:1047800010E001C011E00E9482AF112329F061E026
:10479000C5010E94EE7F05C060E08AE492E00E94BD
:1047A000B47F83E080933C0781E080930706C114C7
:1047B000D104E104F104E9F00E941769C60ED71E86
:1047C000E81EF91E0E941769DC01CB018C199D09B6
:1047D000AE09BF09B7FD06C00E94508310920706BC
:1047E0000C942132809107068823B1F30E94DE9653
:1047F000E9CF80910706882379F30E94DE96F9CFEE
:1048000060E08DE592E00E94B47F179816981598A5
:1048100014980C942132E5E7F2E084918F010F5F48
:104820001F4F882321F00E946D3CF801F6CF1092B3
:104830008B0C40E050E0BA018EE39AE00E940B44FA
:104840008BE1EEE3FAE0DE01159601900D928A9578
:10485000E1F780913C0A90913D0A9C838B8381E132
:1048600093E09A83898340E050E0BE016F5F7F4F01
:1048700080E090E00E9410B9CE0101960E94A8DD70
:10488000E6E6F2E084918F010F5F1F4F882311F459
:104890000C9421320E946D3CF801F4CF0E9402CAB0
:1048A0000C94213210920E0A10920F0A0C942132AD
:1048B000E091A106F091A2068081882329F0803240
:1048C00009F410823196F8CF40E061E08091A106B2
:1048D0009091A2060E9412C80C94213280910F0A76
:1048E000882319F081E080930E0A0E9492F30C94C1
:1048F000213210920E0A0E94CBF30C942132809147
:104900000F0A882311F40C94213283E50E94513C54
:1049100081110C9430320C94213283E40E940A3CC1
:10492000882309F454C0E3EBF2E084918F010F5F18
:104930001F4F882321F00E946D3CF801F6CF809133
:10494000D90B882391F0BE016F5F7F4F86ED9BE00E
:104950000E94FB4A8E010F5F1F4FF80181918F016A
:10496000882381F10E946D3CF8CFE6E8F2E0849163
:104970008F010F5F1F4F882329F10E946D3CF801C2
:10498000F6CF80918907882309F4E4C0B2ECCB2EDE
:10499000B2E0DB2EE12CF12C20E08091890790E041
:1049A0000E2C02C0959587950A94E2F780FDBAC057
:1049B000FFEFEF1AFF0A32E0C30ED11C45E0E41608
:1049C000F10459F78AE00E946D3C0C9421328091E9
:1049D0000F0A882371F180910E0A882351F1E0E9D2
:1049E000F2E084918F010F5F1F4F882321F00E9416
:1049F0006D3CF801F6CF6091870C7091880C809126
:104A0000890C90918A0C4AE00E940B3F8FE20E9431
:104A10006D3C6091830C7091840C8091850C909119
:104A2000860C4AE00E940B3F8AE00E946D3C0C9489
:104A30002132E2EAF2E084918F010F5F1F4F882359
:104A400011F40C9421320E946D3CF801F4CF40E047
:104A500060E08091A1069091A2060E9412C80C9479
:104A600021320E94CDCC0C9421328091A1069091EC
:104A7000A20621E020930D0A40E060E00E9412C8E7
:104A80000C9421320E94FECB0C9421320E94947827
:104A90000C9421320E9431730C9421320E94CBF38A
:104AA0000C9421320E9406730C9421328EE40E94F1
:104AB000513C882311F40C9421320E94A73B60934F
:104AC000DD0E7093DE0E8093DF0E9093E00E0C945B
:104AD000213283E50E940A3C882359F083E50E9435
:104AE000513C882319F00E94B73B01C080E08093BD
:104AF0008907EEE7FDE184918F010F5F1F4F882347
:104B000021F00E946D3CF801F6CFE0EDF2E08491D7
:104B10008F010F5F1F4F882309F433CF0E946D3C34
:104B2000F801F5CFBB24B394B20E222319F08CE226
:104B30000E946D3CF60125913491F901849189011F
:104B40000F5F1F4F882321F00E946D3C9801F5CF25
:104B50002B2D2ECFECECF2E084918F010F5F1F4FD5
:104B6000882309F42FCF0E946D3CF801F5CF1092F5
:104B70001B020C94213287ED92E00E94C4DD0E945A
:104B80004FC20C94213283E50E94513C882369F086
:104B90000E94B73B8D3320F4809330020C94213275
:104BA0008CE3809330020C942132EEE7FDE1849196
:104BB0008F010F5F1F4F882321F00E946D3CF80189
:104BC000F6CF4091300250E060E070E080EE92E07D
:104BD0000E94C4EC8AE00E946D3C0C94213289E66C
:104BE00090E00E94713F811111C0E7EEF2E08491E4
:104BF0008F010F5F1F4F882321F00E946D3CF80149
:104C0000F6CF0E94BBD58AE00E946D3C10923C0713
:104C10000C9440360E94CF700C9421328091890709
:104C200083FF02C00C94213283E50E94513C88230B
:104C300011F40C9421320E94D73B0F94EA0C623895
:104C4000710514F062E870E07093780F6093770F4D
:104C50000E94BBD70C9421328091890783FF02C048
:104C60000C94213283E50E94513C61968FAF61978D
:104C700081110C94413282E50E94513C81110C94C7
:104C800041320C9421320E94BC720C9421320E9459
:104C9000AD720C9421320E945AC60C9421321092AB
:104CA00053030C9421320E9401C60C94213283E5F7
:104CB0000E940A3C882311F40C9421320E94D73BB5
:104CC00020E030E04AE754E40F94D2070F94EF0C51
:104CD0006093410770934207809343079093440782
:104CE0000C9421320E9463C50C9421320E9428C585
:104CF0000C9421320E940EC40C9421320E94AFC346
:104D00000C9421320E94A9E80C94213281E0809316
:104D1000600480935F040C9421321092600410921E
:104D20005F040C9421320E9458700C94213288EC5C
:104D300090E00E94713F81110C94213284E40E9422
:104D40000A3C8823C1F10E94D73B11E020E030E00B
:104D5000A9010F946D07811101C010E01093750631
:104D6000112349F10E94D73BE091F20E24E0E29F2B
:104D7000F0011124EF58F94F60837183828393838C
:104D800020E030E0A9016091710670917206809177
:104D90007306909174060F946D0781110CC080E02A
:104DA00090E0A0EEBFE38093710690937206A0930B
:104DB0007306B09374060E9484E30C9421320E941F
:104DC00068C30C94213283E50E94513C8823A1F0F2
:104DD0000E94D73B6093530F7093540F8093550FED
:104DE0009093560F60934B0F70934C0F80934D0F21
:104DF00090934E0F10E001C011E080E50E94513CFD
:104E0000882359F00E94D73B6093530F7093540F3F
:104E10008093550F9093560F10E082E50E94513C0D
:104E2000882359F00E94D73B60934F0F7093500F27
:104E30008093510F9093520F10E084E50E94513CF3
:104E4000882361F00E94D73B60934B0F70934C0F07
:104E500080934D0F90934E0F0C942132112311F437
:104E60000C9421324091530F5091540F6091550F83
:104E70007091560F82E193E00E94E1EC40914F0F58
:104E80005091500F6091510F7091520F8FE093E04D
:104E90000E94E1EC40914B0F50914C0F60914D0FEF
:104EA00070914E0F8CE093E00E94E1EC8AE00E944A
:104EB0006D3C0C94213281E50E940A3C882351F01C
:104EC0000E94973B609384077093850780938607C1
:104ED0009093870783E50E940A3C882351F00E9443
:104EE000D73B6093270F7093280F8093290F9093DF
:104EF0002A0F84E50E940A3C882351F00E94D73B88
:104F00006093230F7093240F8093250F9093260FA7
:104F100088E50E940A3C882351F00E94D73B6093A9
:104F2000510670935206809353069093540689E578
:104F30000E940A3C882351F00E94D73B609355069B
:104F40007093560680935706909358068AE50E9400
:104F50000A3C8823F1F00E94D73B60935906709376
:104F60005A0680935B0690935C062DEC3CEC4CEC6F
:104F70005DE30F946D07181664F0E2E2F3E08491AC
:104F80008F010F5F1F4F882321F00E946D3CF801B5
:104F9000F6CF85E40E940A3C882311F40C94213258
:104FA0000E94D73B60935D0670935E0680935F0618
:104FB000909360060C9421327BE5C72E72E0D72EC9
:104FC000E2E6EE2EE4E0FE2E10E0D6018D916D01BA
:104FD0000E940A3C882351F00E94D73BF70160836E
:104FE000718382839383812F0E9403391F5FF4E0D2
:104FF000EF0EF11C133049F7A9C90E9488B3811143
:105000000C9421326DEC862E67E2962E20EA37E072
:1050100039AF28AFAE014F5F5F4F5A0106E218E289
:105020001A0153E0500F5CAFF401659175918591C1
:105030009491A8ADB9ADCD90DD90ED90FD90B9AF54
:10504000A8AFA70196010F94A50B2B013C0120E00E
:1050500030E040EA51EC0F94CC0D87FD10C020E009
:1050600030E040EA51E4C301B2010F946D07181615
:1050700034F0F10140825182628273820EC0F801E5
:1050800084911816B4F7F7FAF094F7F8F094D10178
:10509000CD92DD92ED92FC921397D101CD90DD90EF
:1050A000ED90FD901D0120E030E040EA51ECC70199
:1050B000B6010F94CC0D87FF03C0E0E6F4E20BC00D
:1050C00020E030E040EA51E4C701B6010F946D07DB
:1050D00018167CF5F2CF84918F010F5F1F4F882344
:1050E00021F00E946D3CF801F6CFE2E7F3E08491F5
:1050F0008F010F5F1F4F882321F00E946D3CF80144
:10510000F6CF61E084E693E00E94B47F0E94C883FA
:1051100088E290E099A388A388EC90E09DA78CA7F3
:10512000BE01605E7F4FCE018C960E9444CB0C94F2
:105130002132B4E08B0E911C0F5F1F4FECADE013DA
:1051400073CF52E6E52E54E0F52E10E0F501819183
:105150009191A191B1915F01F70181939193A193F5
:10516000B1937F01812F0E9403391F5F133071F7C4
:105170000E945DC460E084E593E00E94B47F83E90F
:1051800092E09DA78CA704E610E019A308A3BE0136
:10519000645D7F4FCE0180960E9444CB8AEB92E003
:1051A0009DA78CA719A308A3BE01645D7F4FCE0104
:1051B00080960E9444CB0C94213284918F010F5F22
:1051C0001F4F882321F00E946D3CF801F6CF83E544
:1051D0000E940A3C882321F00E94C83B809356021B
:1051E000E8EBF3E084918F010F5F1F4F882321F0DC
:1051F0000E946D3CF801F6CF80915602811103C0E8
:10520000E4EBF3E002C0E0EBF3E084918F010F5F89
:105210001F4F882321F00E946D3CF801F6CFE8EA89
:10522000F3E084918F010F5F1F4F882321F00E94CC
:105230006D3CF801F6CF2091900730919107409195
:105240009207509193076091CE157091CF15809180
:10525000D0159091D1150F94A60BAB01BC0186EA35
:1052600093E00E94E1EC20919407309195074091E2
:105270009607509197076091D2157091D315809140
:10528000D4159091D5150F94A60BAB01BC0183EA00
:1052900093E00E94E1EC20919807309199074091AA
:1052A0009A0750919B076091D6157091D715809100
:1052B000D8159091D9150F94A60BAB01BC0180EACB
:1052C00093E00E94E1ECE8E9F3E084918F010F5F45
:1052D0001F4F882321F00E946D3CF801F6CF2091EA
:1052E00090073091910740919207509193076091F8
:1052F0004A0270914B0280914C0290914D020F94A2
:10530000A60BAB01BC0186E993E00E94E1EC209181
:1053100094073091950740919607509197076091B7
:105320004E0270914F0280915002909151020F9461
:10533000A60BAB01BC0183E993E00E94E1EC209154
:1053400098073091990740919A0750919B07609177
:1053500052027091530280915402909155020F9421
:10536000A60BAB01BC0180E993E00E94E1EC8AE06E
:105370000E946D3C0C94213283E50E94513C8823AD
:1053800011F40C9421320E94A73B70932502609384
:1053900024020C9421320E94F3C20C94213283E542
:1053A0000E94513C882319F00E94A73B02C064E090
:1053B00071E079A368A380E50E94513C882339F00D
:1053C0000E94A73B6938F3E17F0730F402C068EE22
:1053D00073E07A83698304C088E893E19A838983C0
:1053E000BE01605E7F4FCE0101960E9444CB0C94BB
:1053F000213285E40E94513C811110C080E50E9459
:105400000A3C882391F00E94D73B6093D1037093AC
:10541000D2038093D3039093D40307C00E94B73B79
:10542000882361F3E0E6F4E26EC089E40E940A3C5E
:10543000882381F00E94D73B2CEA35EC47E25EE3FB
:105440000F94D2076093D9037093DA038093DB0340
:105450009093DC0384E40E940A3C882381F00E943C
:10546000D73B2CEA35EC47E25EE30F94820C609365
:10547000D5037093D6038093D7039093D803EEE7B8
:10548000FDE184918F010F5F1F4F882321F00E945F
:105490006D3CF801F6CF4091D1035091D203609159
:1054A000D3037091D40380ED93E00E94E1EC2CEAE9
:1054B00035EC47E25EE36091D9037091DA038091A5
:1054C000DB039091DC030F94820CAB01BC018CECEC
:1054D00093E00E94E1EC2CEA35EC47E25EE3609158
:1054E000D5037091D6038091D7039091D8030F9480
:1054F000D207AB01BC0188EC93E00E94E1EC8AE0AA
:105500000E946D3C9EC784918F010F5F1F4F8823BF
:1055100021F00E946D3CF801F6CFE4EDF3E08491B8
:105520008F010F5F1F4F882309F48BC70E946D3CCA
:10553000F801F5CF83E50E940A3C182F882371F00B
:105540000E94D73B0F94EA0C7093360260933502A9
:1055500021E0672B09F020E02093880780E50E9476
:105560000A3C882359F02091350230913602232BD2
:1055700011F00E94C83B8093880763C7111161C76F
:10558000EEE7FDE184918F010F5F1F4F882321F02B
:105590000E946D3CF801F6CF80918807811103C00D
:1055A00068E273E002C065E273E08BEF93E00E9473
:1055B00017ED60913502709136028AEE93E00E94F9
:1055C000FEECE6EEF3E084918F010F5F1F4F88231E
:1055D00009F437C70E946D3CF801F5CF85E40E94BD
:1055E000513C882321F00E94A73B7B0102C0E12CA3
:1055F000F12C83E40E94513C882331F00E94A73BA8
:10560000EA966FAFEA9704C025E0EA962FAFEA97D3
:1056100085E50E94513C882319F00E94C83B03C0D5
:1056200085E50E940A3CCB57DF4F8883C558D040A0
:10563000F7FC07C0812C912C46E1A42E43E4B42E44
:1056400006C0812C912C3CE8A32E32E4B32E83E5D6
:105650000E94513C882321F00E94D73B4B015C0102
:10566000E114F10411F41092F20E0E9417692B015B
:105670003C01DC01CB018C53964FAF4FBF4F809361
:10568000A2159093A315A093A415B093A515EE2091
:1056900069F0EDE7F5E084918F010F5F1F4F8823DC
:1056A00009F4CFC60E946D3CF801F5CFE7EAF5E0BA
:1056B00084917F013FEFE31AF30A882321F00E94CF
:1056C0006D3CF701F5CFC501B4010F94EA0C072E2C
:1056D000000C880B990B0F94730725966FAF2597D5
:1056E00021967FAF219729968FAF29972D969FAF4F
:1056F0002D97D301C201805E914BAF4FBF4FC25770
:10570000DF4F88839983AA83BB83CE58D0400E9401
:1057100051D88FE78093F00E81E080931B02C3582D
:10572000DF4F488259826A827B82CD57D040CA5768
:10573000DF4F488259826A827B82C658D040ED96FC
:105740001FAEED97C657DF4F188219821A821B824F
:10575000CA58D040A1961FAEA19790E465969FAF1E
:105760006597ACE16996AFAF6997B6E4A596BFAF10
:10577000A5976D961FAE6D97A9961FAEA997AD968A
:105780001FAEAD97E1961FAEE197E9961CAE1DAE38
:105790001EAE1FAEE997E5961CAE1DAE1EAE1FAE47
:1057A000E597C12CD12C76012FE730E040E050E0A6
:1057B0002CAF3DAF4EAF5FAF8FE790E0A0E0B0E021
:1057C00088AF99AFAAAFBBAFCF57DF4F188219820E
:1057D0001A821B82C158D04091E0EC969FAFEC97A3
:1057E00062961FAE1EAE629710E0212C312C00E0B5
:1057F000EA96AFADEA970A2E000CBB0BEB96BFAF53
:10580000AEAFEB9780911B02882309F433C10E944D
:1058100017694B015C018091ED0E882309F406C1E4
:105820000E9471D8109123062090240630902506FE
:1058300000912606212F322D432D502F6D966FADEE
:105840006D97A9967FADA997AD968FADAD97E1966F
:105850009FADE1970F946D0787FF0CC06D961FAF4A
:105860006D97A9962FAEA997AD963FAEAD97E196ED
:105870000FAFE197212F322D432D502FA1966FAD01
:10588000A19765967FAD659769968FAD6997A59647
:105890009FADA5970F94CC0D181664F4A1961FAF79
:1058A000A19765962FAE659769963FAE6997A596C5
:1058B0000FAFA5978091A2159091A315A091A41563
:1058C000B091A515A5019401281B390B4A0B5B0B60
:1058D00057FD10C00E9484F1D501C4018C53964F2E
:1058E000AF4FBF4F8093A2159093A315A093A4151B
:1058F000B093A515EC963FADEC9725962FAD259767
:10590000332309F46CC021963FAD219729964FAD02
:1059100029972D965FAD2D97612F722D832D902F96
:105920000F94CC0D18160CF081C0D501C401841958
:105930009509A609B709CE56DF4F88839983AA83B4
:10594000BB83C259D04088589341A109B109B7FD22
:105950006DC088AD99ADAAADBBAD2CAD3DAD4EAD22
:105960005FAD821B930BA40BB50BB595A7959795CF
:1059700087958093F00ECE56DF4F88819981AA815A
:10598000BB81C259D040CF57DF4F88839983AA8308
:10599000BB83C158D04025969FAD25976D969FAF8C
:1059A0006D972196AFAD2197A996AFAFA99729968C
:1059B000BFAD2997AD96BFAFAD972D96EFAD2D97A3
:1059C000E196EFAFE197C358DF4F88829982AA82B0
:1059D000BB82CD57D040EC961FAEEC9727C02196E6
:1059E0003FAD219729964FAD29972D965FAD2D9705
:1059F000612F722D832D902F0F946D0787FF16C096
:105A0000D501C401C358DF4F288139814A815B81A8
:105A1000CD57D040821B930BA40BB50BAC01BD013D
:105A2000485853416109710977FFE5C620E030E02D
:105A300040EA51E425966FAD259721967FAD2197D9
:105A400029968FAD29972D969FAD2D970F94A60B74
:105A50009B01AC01612F722D832D902F0F94CC0DE3
:105A600018167CF4E9E0F5E084918F010F5F1F4F79
:105A7000811103C00E9451D8E4C40E946D3CF8011A
:105A8000F3CFD501C401CA57DF4F288139814A813C
:105A90005B81C658D040821B930BA40BB50BB7FD9E
:105AA000A5C00E94BBD58AE00E946D3CD501C4010F
:105AB0008053984FAF4FBF4FCA57DF4F88839983AA
:105AC000AA83BB83C658D040ED969FADED97911148
:105AD0006AC0C657DF4F288139814A815B81CA5825
