:100000000C94DF1B0C94101C0C94101C0C94101CF2
:100010000C94101C0C94101C0C94101C0C94101CB0
:100020000C94101C0C94101C0C94101C0C94101CA0
:100030000C94101C0C94101C0C94101C0C94101C90
:100040000C94101C0D940C140C94101C0C94101C8B
:100050000C94101C0C94101C0C9413E00C94736AF8
:100060000C94101C0C9411490C94101C0C94101C32
:100070000C94101C0C94101C0C94101C0C94101C50
:100080000C94101C0C94101C0C94101C0C94101C40
:100090000C94101C0C94101C0C94101C0C94101C30
:1000A0000C94101C0C94101C0C94101C0C94101C20
:1000B0000C94101C0C94101C0C94101C0C94101C10
:1000C0000C94101C0C94101C0C94101C0C94101C00
:1000D0000C94101C0C94101C0C94101C0C94101CF0
:1000E0000C94101CF068F368E268E668EC682A6912
:1000F000F768FB680169056909690F691369176980
:100100002A691D69216925698F6994699969A369BB
:10011000AD69266AB769BF69C769D169DB69E569F5
:10012000F469FE69266A086A126A1C6A44942A9471
:100130002D94309433943F943694509439943C9455
:10014000084AD73B3BCE016E84BCBFFDC12F3D6C3E
:1001500074319ABD56833DDA3D00C77F11BED9E4A4
:10016000BB4C3E916BAAAABE000000803F05A84C84
:10017000CDB2D44EB93836A9020C50B99186880850
:100180003CA6AAAA2ABE000000803F000D9481066A
:100190000D94661A0D940E030D946E1A0D942E068E
:1001A0000D94DB180D94412C0D9424050D94961894
:1001B0000D947A050D949E030D94A1030D94F125E1
:1001C0000D94A4030D949B180D94A0180D94A703EF
:1001D0000D94D4060D94DB050D9427050D946A1A31
:1001E0006E616E00696E66004E414E494E4954592B
:1001F000494E46CDCCCC3D0AD7233C17B7D13877F2
:10020000CC2B329595E6241FB14F0A000020410007
:1002100000C84200401C4620BCBE4CCA1B0E5AAE51
:10022000C59D7400407A10F35A00A0724E18090060
:1002300010A5D4E80000E87648170000E40B54024B
:100240000000CA9A3B000000E1F505000080969886
:1002500000000040420F000000A0860100000010D6
:100260002700000000E80300000000640000000018
:10027000000A00000000000100000000002C76D8F9
:1002800088DC674F0823DFC1DFAE59E1B1B796E5DF
:10029000E3E453C63AE651997696E8E6C28426EB43
:1002A000898C9B62ED407C6FFCEFBC9C9F40F2BA56
:1002B000A56FA5F490055A2AF75C936B6CF9676DEE
:1002C000C11BFCE0E40D47FEF520E6B500D0ED9043
:1002D0002E0300943577050080841E080000204E10
:1002E0000A000000C80C333333330F986E128311A9
:1002F00041EF8D2114893BE65516CFFEE6DB18D180
:10030000844B381BF77C1D901DA4BBE42420328451
:10031000725E228100C9F124ECA1E53D27434F4DD7
:100320004D554E49434154494F4E00445259525540
:100330004E004552524F525300494E464F004543DE
:10034000484F0047322F473320626164207061724A
:10035000616D65746572730A00536C6565702E2E4D
:100360002E00486F6D652058592066697273740AB3
:1003700000486F6D652058592066697273740020BB
:100380005A3A200020593A200042656420583A2009
:10039000004D65736820706F696E742063616E6EC6
:1003A0006F74206265207265736F6C7665640A00F5
:1003B000436C69636B20746F20726573756D652E75
:1003C0002E2E004E6F206D6F76652E004D3132352A
:1003D000003E03390332032B031D036F666600449E
:1003E000454255473A004B494C4C45442E20004D60
:1003F0003131332053004D31343520533C696E6424
:1004000065783E206F7574206F662072616E676537
:100410002028302D31290A0020643A0020693A0052
:1004200020703A00496E76616C6964206578747258
:10043000756465720A0043290A0061626C65642074
:10044000286D696E2074656D702000436F6C6420A8
:1004500065787472756465732061726520004F66FB
:10046000660A004661646520486569676874200013
:10047000426564204C6576656C696E672000466154
:10048000696C656420746F20656E61626C652042E2
:100490006564204C6576656C696E670A004D65730E
:1004A0006820706F696E742063616E6E6F74206275
:1004B00065207265736F6C7665640A004D34323165
:1004C00020696E636F727265637420706172616D12
:1004D000657465722075736167650A004545505201
:1004E0004F4D204F4B0A00496E7365727420666948
:1004F0006C616D656E7420616E64207072657373DB
:1005000020627574746F6E0A005072657373206296
:100510007574746F6E20746F2068656174206E6FDF
:100520007A7A6C650A00496E736572742066696C2C
:10053000616D656E7420616E6420707265737320E6
:10054000627574746F6E20286F72204D31303829B7
:100550000A003A200050726F6265205A204F66668A
:10056000736574003F5A206F7574206F6620726146
:100570006E676520282D323020746F203230290AB2
:1005800000473238205A000A486F6D696E67205A5A
:100590002064756520746F206C6F737420737465AC
:1005A00070730A000A43616C6962726174696F6EEC
:1005B0002063757272656E743A205A000A506C6539
:1005C00061736520686F6D65205A206178697320BA
:1005D00066697273740A00416374697665204578B0
:1005E0007472756465723A2000496E76616C696454
:1005F0002065787472756465720A00256973002538
:10060000696D20256973002569682025696D20259D
:10061000697300256964202569682025696D202596
:10062000697300256979202569642025696820257A
:10063000696D20256973004E6F20436865636B7395
:10064000756D2077697468206C696E65206E756DB4
:100650006265722C204C617374204C696E653A207F
:10066000004B494C4C45442E200053544F505045AC
:10067000442E20005072696E7465722073746F701E
:100680007065642064756520746F206572726F7286
:10069000732E2046697820746865206572726F72C7
:1006A00020616E6420757365204D39393920746F6F
:1006B00020726573746172742E202854656D7065A4
:1006C0007261747572652069732072657365742E2A
:1006D00020536574206974206166746572207265A8
:1006E0007374617274696E67290A004E6F204368E3
:1006F00065636B73756D2077697468206C696E65CE
:10070000206E756D6265722C204C617374204C698B
:100710006E653A2000636865636B73756D206D6963
:10072000736D617463682C204C617374204C696E26
:10073000653A20004C696E65204E756D62657220C9
:100740006973206E6F74204C617374204C696E6500
:10075000204E756D6265722B312C204C61737420B4
:100760004C696E653A20004D313130004D33310017
:1007700053442072656164206572726F720A00448E
:100780006F6E65207072696E74696E672066696C41
:10079000650A0020496E76616C6964206578747220
:1007A00075646572200000000000000070C1000048
:1007B000000000009643000096430000BE434269DB
:1007C0006C696E656172204C6576656C696E672038
:1007D000477269643A0A00486F6D696E6720666106
:1007E000696C656400202844525952554E290047CF
:1007F0003239204175746F20426564204C657665FE
:100800006C696E67003F20284C2C522C462C4229E4
:10081000206F7574206F6620626F756E64732E0A88
:10082000003F2856296572626F7365206C65766596
:100830006C20697320696D706C61757369626C6599
:100840002028302D34292E0A00426164205A207657
:10085000616C75650A004E6F2062696C696E656136
:100860007220677269640A00486F74656E64207450
:100870006F6F20636F6C640A004572726F7220772D
:10088000726974696E6720746F20454550524F4DF0
:10089000210A00454550524F4D20646174617369CF
:1008A0007A65206572726F722E0A00290A00206232
:1008B000797465733B2063726320005365747469B7
:1008C0006E67732053746F7265642028004D363054
:1008D000303A20546F6F20636F6C6400486F74650A
:1008E0006E6420746F6F20636F6C640A00456E64E1
:1008F0002066696C65206C6973740A0042656769DB
:100900006E2066696C65206C6973740A00286E6FCE
:100910002066696C6529005344207072696E7469A1
:100920006E67206279746520004E6F7420534420F6
:100930007072696E74696E670A0043757272656ED3
:10094000742066696C653A200046696C65206465B0
:100950006C657465643A0044656C6574696F6E20FB
:100960006661696C65642C2046696C653A200050AC
:1009700072696E742074696D653A200050726F74EC
:1009800065637465642050696E0A005374616E6417
:1009900061726420446576696174696F6E3A200003
:1009A0002052616E67653A2000204D61783A200040
:1009B000204D696E3A20004D65616E3A200046690F
:1009C0006E6973686564210A002072616E67653A1A
:1009D0002000206D61783A2000206D696E3A200079
:1009E000207369676D613A2000206D65616E3A2061
:1009F000003A207A3A2000206F662000205A00201A
:100A00005900205800476F696E6720746F3A0043A1
:100A10006C6F636B776973650A00436F756E7465FD
:100A2000722D0020446972656374696F6E3A20000C
:100A3000202020616E676C653A20005374617274E7
:100A4000696E67207261646975733A2000506F7334
:100A50006974696F6E696E67207468652070726F63
:100A600062652E2E2E0A003F4E756D626572206FF4
:100A700066206C65677320696E206D6F76656D65A5
:100A80006E74206E6F7420706C61757369626C6532
:100A90002028302D3135292E0A003F2028582C5986
:100AA00029206F7574206F6620626F756E64732ED7
:100AB0000A003F53616D706C652073697A65206E22
:100AC0006F7420706C61757369626C652028342DB9
:100AD0003530292E0A004D3438205A2D50726F625D
:100AE00065205265706561746162696C6974792012
:100AF000546573740A003F2856296572626F7365E6
:100B0000206C6576656C20697320696D706C617509
:100B10007369626C652028302D34292E0A00506CD0
:100B200065617365207265736574005052494E5457
:100B300045522048414C544544005072696E7465DA
:100B4000722068616C7465642E206B696C6C282956
:100B50002063616C6C6564210A00206472697665AB
:100B6000722063757272656E743A2000207374652A
:100B7000616C746843686F70206D61782073706574
:100B800065643A2000656E7175657565696E6720EC
:100B9000220000000000000040C100000000000032
:100BA0002042000020420000804000000000576109
:100BB000726E696E673A20486F6D696E6720427584
:100BC0006D702044697669736F72203C20310A0091
:100BD00002020400000040000000400000803F00CE
:100BE00000964300809D430000BE43FFFFFF0000CE
:100BF0002110422063308440A550C660E770088110
:100C000029914AA16BB18CC1ADD1CEE1EFF1311286
:100C1000100273325222B5529442F772D66239935F
:100C200018837BB35AA3BDD39CC3FFF3DEE36224D6
:100C3000433420040114E664C774A44485546AA5AF
:100C40004BB528850995EEE5CFF5ACC58DD5533666
:100C5000722611163006D776F6669556B4465BB7FF
:100C60007AA719973887DFF7FEE79DD7BCC7C44836
:100C7000E5588668A7784008611802282338CCC94F
:100C8000EDD98EE9AFF9488969990AA92BB9F55AC6
:100C9000D44AB77A966A711A500A333A122AFDDB9F
:100CA000DCCBBFFB9EEB799B588B3BBB1AABA66C96
:100CB000877CE44CC55C222C033C600C411CAEEDEF
:100CC0008FFDECCDCDDD2AAD0BBD688D499D977EA6
:100CD000B66ED55EF44E133E322E511E700E9FFF3F
:100CE000BEEFDDDFFCCF1BBF3AAF599F788F8891F5
:100CF000A981CAB1EBA10CD12DC14EF16FE18010D9
:100D0000A100C230E3200450254046706760B983DB
:100D10009893FBA3DAB33DC31CD37FE35EF3B10228
:100D20009012F322D2323542145277625672EAB5EB
:100D3000CBA5A89589856EF54FE52CD50DC5E23478
:100D4000C324A01481046674476424540544DBA7BB
:100D5000FAB79987B8975FE77EF71DC73CD7D326C8
:100D6000F2369106B01657667676154634564CD94B
:100D70006DC90EF92FE9C899E9898AB9ABA9445818
:100D8000654806782768C018E1088238A3287DCB1B
:100D90005CDB3FEB1EFBF98BD89BBBAB9ABB754A68
:100DA000545A376A167AF10AD01AB32A923A2EFDAB
:100DB0000FED6CDD4DCDAABD8BADE89DC98D267CB8
:100DC000076C645C454CA23C832CE01CC10C1FEFFB
:100DD0003EFF5DCF7CDF9BAFBABFD98FF89F176E08
:100DE000367E554E745E932EB23ED10EF01E7C3C84
:100DF0003E5E2B3D3F2F5B5D3B2C2A225C000000BA
:100E00000000010204040000001C1C0C0404040285
:100E100001000000000004081000000000000000B5
:100E20002100240027002A002D003000330001019A
:100E30000000040107010A015654726176206D69B1
:100E40006E005654726176206D696E005654726160
:100E500076206D696E00566D696E00566D696E0084
:100E6000566D696E00566D6178204500566D61784B
:100E7000204500566D6178204500566D6178205AF6
:100E800000566D6178205A00566D6178205A0056E0
:100E90006D6178205900566D6178205900566D615A
:100EA00078205900566D6178205800566D61782081
:100EB0005800566D61782058004D6F74696F6E0050
:100EC000416D6178204500416D6178204500416D9C
:100ED0006178205A00416D6178205A00416D617837
:100EE000205900416D6178205900416D617820588A
:100EF00000416D6178205800412D74726176656CF7
:100F000000412D74726176656C00412D72657472BA
:100F100061637400412D7265747261637400416392
:100F200063656C00416363656C004D6F74696F6E3F
:100F30000056652D6A65726B0056652D6A65726B89
:100F40000056652D6A65726B00567A2D6A65726B64
:100F500000567A2D6A65726B0056792D6A65726B40
:100F60000056792D6A65726B0056792D6A65726B31
:100F70000056782D6A65726B0056782D6A65726B23
:100F80000056782D6A65726B004D6F74696F6E0044
:100F90004573746570732F6D6D0045737465707360
:100FA0002F6D6D005A73746570732F6D6D005A73D9
:100FB000746570732F6D6D005973746570732F6D48
:100FC0006D005973746570732F6D6D00587374657F
:100FD00070732F6D6D005873746570732F6D6D0095
:100FE0004D6F74696F6E0053746570732F6D6D0073
:100FF0004A65726B00416363656C65726174696F09
:101000006E0056656C6F636974790050726F62652B
:10101000205A204F666673657400436F6E74726F5A
:101020006C0050726F6265205A204F66667365745B
:10103000004368616E67652066696C616D656E74FA
:101040000050726F6265205A204F666673657400A7
:10105000466C6F7700466C6F770046616E20737048
:101060006565640046616E20737065656400426565
:101070006400426564004E6F7A7A6C65004E6F7A48
:101080007A6C65004661646520486569676874002C
:1010900046616465204865696768740053706565DA
:1010A00064005370656564004D61696E005072653F
:1010B0006865617420504C4120456E640050726533
:1010C0006865617420504C4120426564005072652F
:1010D0006865617420504C410050726570617265A2
:1010E0000050726568656174205045544720456E14
:1010F0006400507265686561742050455447204211
:1011000065640050726568656174205045544700FD
:1011100050726570617265004D34323800507265EE
:101120006865617420504C4100436F6F6C646F7749
:101130006E004368616E67652066696C616D656EFF
:10114000740044697361626C6520737465707065C6
:101150007273004D38340053657420686F6D6520DC
:101160006F6666736574730050726568656174209C
:101170005045544700466164652048656967687456
:10118000004661646520486569676874004F66665B
:10119000004F6E2000426564204C6576656C696E78
:1011A00067004C6576656C20626564004732380ADA
:1011B0004732390043616C696272617465205A007C
:1011C0004732380A4D393135004175746F20686FE8
:1011D0006D6500473238004D6F7665206178697320
:1011E000004D61696E004578747275646572004DDA
:1011F0006F7665205A004D6F76652059004D6F76E9
:10120000652058005072657061726500496E69749E
:1012100069616C697A6520454550524F4D00436FB6
:101220006E74726F6C00526573746F7265206661C4
:10123000696C73616665004C6F61642073657474DA
:10124000696E677300496E697469616C697A6520BB
:10125000454550524F4D0053746F7265207365744D
:1012600074696E67730046696C616D656E74004DDC
:101270006F74696F6E0054656D706572617475721C
:1012800065004D61696E005072656865617420503B
:1012900045544720636F6E660050726568656174DF
:1012A00020504C4120636F6E66005049442D44002D
:1012B0005049442D44005049442D49005049442D83
:1012C00049005049442D50005049442D50002002FF
:1012D000204661637400200220466163740020028E
:1012E000204D6178002002204D6178002002204DC1
:1012F0006178002002204D696E002002204D696E49
:10130000002002204D696E004F6666004F6E20007F
:101310004175746F74656D700046616E2073706501
:1013200065640046616E20737065656400426564A3
:1013300000426564004E6F7A7A6C65004E6F7A7A6F
:101340006C6500436F6E74726F6C0053746F7265DE
:101350002073657474696E6773004265640042654A
:1013600064004E6F7A7A6C65004E6F7A7A6C650015
:1013700046616E2073706565640046616E2073700F
:101380006565640054656D706572617475726500A1
:1013900020204E6F7A7A6C653A200066696C616D28
:1013A000656E742070757267650057616974206698
:1013B0006F7200746F20726573756D650057616997
:1013C0007420666F72207072696E7400436172647B
:1013D0002072656D6F766564004461746120496EAA
:1013E0006A65637465640024F4D43050C38E20C2EF
:1013F000A24017828B7011127A910D816CD90AA8C4
:1014000061E108C7586607615143061E4B5D05C17F
:1014100045A7041A411104093D980371393103406D
:1014200036DB0265339102D4305402802E1D0263F4
:101430002CEE01752AC501B028A001102781018F6B
:101440002564012B244B01E0223401AC211F018DC6
:10145000200D01801FFC00841EED00971DDF00B8E9
:101460001CD200E61BC600201BBC00641AB200B2EE
:1014700019A8000A19A0006A189900D11791004014
:10148000178B00B516840031167E00B31579003A2B
:10149000157300C7146F0058146A00EE13660088B5
:1014A00013630025135E00C7125B006C1257001512
:1014B000125400C111510070114F0021114B00D680
:1014C0001049008D1047004610440002104200C031
:1014D0000F4000800F3E00420F3C00060F3B00CB48
:1014E0000E3800930E37005C0E3500270E3400F3E3
:1014F0000D3200C10D3100900D3000600D2E003214
:101500000D2D00050D2C00D90C2B00AE0C290085EB
:101510000C29005C0C2700350C27000E0C2600E877
:101520000B2400C40B2400A00B23007D0B23005AC6
:101530000B2100390B2100180B2000F80A1F00D9DD
:101540000A1E00BB0A1E009D0A1D00800A1D0063C2
:101550000A1C00470A1B002C0A1B00110A1A00F77C
:10156000091A00DD091900C4091900AB0919009214
:101570000917007B091800630917004C091600368B
:10158000091600200916000A091500F5081500E0E3
:10159000081400CC081400B8081400A40814009023
:1015A0000813007D0812006B08130058081200464B
:1015B000081200340811002308110012081100015C
:1015C000081100F0071000E0071000D0071000C05D
:1015D000071000B0070F00A107100091070E00834D
:1015E000070F0074070F0065070E0057070E00492C
:1015F000070E003B070D002E070E0020070D0013FD
:10160000070D0006070D00F9060C00ED060D00E0C1
:10161000060C00D4060C00C8060C00BC060C00B07A
:10162000060C00A4060B0099060C008D060B008228
:10163000060B0077060B006C060B0061060A0057CC
:10164000060B004C060A0042060A0038060A002E65
:10165000060A0024060A001A060A001006090007F6
:10166000060A00FD050900F4050900EB050900E282
:10167000050900D9050900D0050900C7050900BE04
:10168000050900B5050800AD050800A50509009C81
:10169000050800940508008C050800840508007CF6
:1016A000050800740508006C050700650508005D65
:1016B000050700560508004E0507004705070040CE
:1016C00005080038050700310507002A0507002333
:1016D0000507001C050600160507000F0507000892
:1016E00005060002050700FB040600F5040700EEEE
:1016F000040600E8040600E2040700DB040600D547
:10170000040600CF040600C9040600C3040600BD99
:10171000040600B7040600B1040500AC040600A6E8
:10172000040600A00405009B040600950405009033
:101730000406008A04050085040500800406007A7A
:1017400004050075040500700405006B04050066BF
:10175000040500610405005C0405005704050052FF
:101760000405004D04050048040500430405003E3F
:101770000404003A04050035040500300404002C7C
:1017800004050027040400230405001E0404001AB5
:1017900004040016040500110404000D04040009EB
:1017A0000405000404040000040400FC030400F821
:1017B000030400F4030400F0030400EC030400E855
:1017C000030400E4030400E0030400DC030400D885
:1017D000030400D4030400D0030400CC030400C8B5
:1017E000030300C503030024F404D9201BC40C5CCC
:1017F0000E9804C4095F0265077101F405F900FB46
:1018000004B30048048700C103690058035500036E
:10181000034500BE023A008402310053022A002927
:1018200002250004022000E4011C00C8011900AFD9
:101830000117009801140084011300710110006168
:1018400001100051010E0043010D0036010B002B69
:10185000010B0020010B00150109000C0109000318
:10186000010800FB000800F3000800EB000700E49B
:10187000000600DE000600D8000600D2000600CCFC
:10188000000500C7000500C2000500BD000400B946
:10189000000400B5000400B1000400AD000400A97C
:1018A000000400A5000300A20003009F0004009BA9
:1018B00000030098000300950002009300030090CD
:1018C0000003008D0002008B0003008800020086E8
:1018D00000020084000300810002007F0002007DFE
:1018E0000002007B00020079000200770001007610
:1018F0000002007400020072000100710002006F1B
:101900000002006D0001006C0002006A0001006925
:10191000000200670001006600010065000100642C
:101920000002006200010061000100600001005F30
:101930000002005D0001005C0001005B0001005A34
:101940000001005900010058000100570001005635
:101950000001005500010054000100530000005335
:101960000001005200010051000100500001004F31
:101970000001004E0000004E0001004D0001004C2F
:101980000001004B0000004B0001004A000100492B
:101990000001004800000048000100470001004627
:1019A0000000004600010045000000450001004421
:1019B000000100430000004300010042000000421B
:1019C0000001004100000041000100400001003F13
:1019D0000000003F0001003E0000003E0001003D0D
:1019E0000000003D0001003C0000003C0000003C05
:1019F0000001003B0000003B0001003A0000003AFB
:101A000000010039000000390001003800000038F2
:101A100000000038000100370000003700010036E8
:101A200000000036000000360001003500000035DF
:101A300000000035000100340000003400000034D4
:101A400000010033000000330000003300010032C9
:101A500000000032000000320001003100000031BF
:101A600000000031000100300000003000000030B4
:101A70000001002F0000002F0000002F0000002FA9
:101A80000001002E0000002E0000002E0001002D9D
:101A90000000002D0000002D0000002D0001002C92
:101AA0000000002C0000002C0000002C0001002B86
:101AB0000000002B0000002B0000002B0001002A7A
:101AC0000000002A0000002A0000002A000100296E
:101AD0000000002900000029000000290000002962
:101AE0000001002800000028000000280000002855
:101AF0000000002800010027000000270000002748
:101B0000000000270000002700010026000000263A
:101B1000000000260000002600000026000100252D
:101B20000000002500000025000000250000002521
:101B30000000002500010024000000240000002413
:101B40000000002400000024000100230000002306
:101B500000000023000000230000002300000023F9
:101B600000000023000100220000002200000022EB
:101B700000000022000000220000002200010021DD
:101B800000000021000000210000002100000021D1
:101B900000000021000000210001002000000020C2
:101BA00000000020000000200000002000000020B5
:101BB00000000020000000200001001F0000001FA6
:101BC0000000001F0000001F0000001F0000001F99
:101BD0000000001F0001001E0000001E0000001E8B
:101BE0000000001E0000003930000033250000878F
:101BF000190000B00F0000DB080000BD04000074F5
:101C00000200003F01000000000A0B02090C0D0E4B
:101C100008070304010000000000000000000000AD
:101C200000000000000000000000000000000000B4
:101C30000000001211100000000000000000000071
:101C40000000000000000000000000000000000094
:101C5000000000000000000000000000004B494CA4
:101C60004C45442E2000202D20496E76616C69641D
:101C7000206578747275646572206E756D62657228
:101C800020210A00001C1F11111F00000006191856
:101C900003130C00040E1F041C000000000E13159B
:101CA000110E00001C10181705060500040A0A0A88
:101CB0000A11110E0C12120C00000000001F151169
:101CC000151F00002D2D2D2D2D2D007C4D61726CCA
:101CD000696E7C002D2D2D2D2D2D006E6F76612DC2
:101CE0006C6162732E6F7267006E6F76612D6C612E
:101CF00062732E6F72670020312E312E3900202042
:101D0000506C616E6E65724275666665724279747A
:101D100065733A20002046726565204D656D6F72CF
:101D2000793A2000436F6D70696C65643A204A759A
:101D30006C20313920323031390A00207C20417545
:101D400074686F723A205061756C204368617365E6
:101D50002026204A6F686E204C696E6B0A00323074
:101D600031382D30382D303100204C6173742055BE
:101D70007064617465643A2000312E312E390A0096
:101D80004D61726C696E0020536F66747761726585
:101D90002052657365740A00205761746368646F2C
:101DA000672052657365740A002042726F776E2057
:101DB0006F75742052657365740A002045787465E8
:101DC000726E616C2052657365740A00506F77659E
:101DD0007255700A0073746172740A006175746FD1
:101DE00025692E67006572726F7220777269746957
:101DF0006E6720746F2066696C650A00456E6473B7
:101E0000746F70732025632025632025632025636C
:101E100000205A3A0020593A0020583A00656E6472
:101E200073746F7073206869743A2000446F6E6534
:101E300020736176696E672066696C652E0A004DB5
:101E400032390043616E6E6F74206F70656E20735F
:101E5000756264697220006563686F3A00453120DD
:101E6000544845524D414C2052554E41574159001E
:101E700042454420544845524D414C2052554E4114
:101E800057415900546865726D616C2052756E61DE
:101E9000776179006F70656E206661696C65642C8E
:101EA0002046696C653A2000496E7365727420663D
:101EB000696C616D656E7420616E6420707265730B
:101EC0007320627574746F6E20286F72204D3130EC
:101ED00038290A0050726F62696E67206661696C0A
:101EE00065640A0050726F62696E67206661696C92
:101EF000656400205A3A200020593A200042656467
:101F000020583A2000486F6D65202573257325738E
:101F1000206669727374002066697273740A005ACD
:101F20000059005800486F6D652000000020002314
:101F300000260029002C002F0032000001000003C1
:101F4000010601090100002200250028002B002EB7
:101F5000003100340002010000050108010B0105F9
:101F6000050505070508080808020202020A0A0812
:101F70000804040404010101010101010103030338
:101F80000303030303040707070C0C0C0C0C0C0CD5
:101F90000C0202020206060606060606060B0B0BDC
:101FA0000B0B0B0B0B07070A0A0A0A0A0A050505A1
:101FB0000404040808010210202008081020401022
:101FC00020408002010201080402010102040810FD
:101FD000204080804020100804020180040201801B
:101FE0004020100804020108040201010204081044
:101FF000204080010204081020408010080408805E
:1020000010204004408010204004804C6F61642008
:102010006D6D004C6F6164206D6D004C6F616420CC
:102020006D6D00556E6C6F6164206D6D00556E6C4A
:102030006F6164206D6D00556E6C6F6164206D6D15
:102040000046696C2E204469612E0046696C2E2082
:102050004469612E004F6666004F6E20004520697E
:102060006E206D6D3300436F6E74726F6C00436150
:102070006E6E6F7420656E7465722073756264692C
:10208000723A2000052E2E004D61696E00004578E1
:1020900074727564656420746F74616C3A200025F5
:1020A0006C642E25696D00004C6F6E67657374203B
:1020B0006A6F622074696D653A200000546F746124
:1020C0006C207072696E742074696D653A200043EB
:1020D0006F6D706C657465643A20005072696E743F
:1020E00020436F756E743A20004D61782054656D01
:1020F000703A20313030004D696E2054656D703A71
:10210000203500544265643A4550434F53203130E6
:10211000304B004D61782054656D703A203238356F
:10212000004D696E2054656D703A20350054303A88
:10213000204550434F53203130304B005053553AD7
:102140002047656E657269630050726F746F636FCC
:102150006C3A20312E3000426175643A20313135BD
:102160003230300045696E73792052616D626F00C4
:1021700042696C696E656172204C6576656C696E4A
:1021800067004578747275646572733A2031006E29
:102190006F76612D6C6162732E6F7267004E4C20FA
:1021A0004247313200323031382D30382D30310055
:1021B000312E312E39004D61726C696E005072699A
:1021C0006E74657220537461747300546865726D27
:1021D0006973746F727300426F61726420496E6636
:1021E0006F005072696E74657220496E666F004DA3
:1021F00061696E004D363030204230205425640035
:102200004D37303120542564004D373032203B2586
:1022100064004D37303220542564002075736520EA
:10222000612073686F72746572206578747275735B
:10223000696F6E2076616C7565202D206D61782048
:102240006973203630306D6D0A0020686561742036
:102250006E6F7A7A6C6520616E6420747279206189
:102260006761696E0A0048617264636F6465642027
:1022700044656661756C742053657474696E677328
:10228000204C6F616465640A00DC050000580200A0
:10229000000F000000102700000000FA430000C8F3
:1022A00042000070410000C8410000A0420000A0B0
:1022B000420000C84400800D4320204D39303600D4
:1022C00020204D393133003A0A0020286D6D290055
:1022D00020204D3931340020204D3630332000206D
:1022E00055004C0046696C616D656E74206C6F61C1
:1022F000642F756E6C6F6164206C656E67746873B3
:102300003A0A0020590020580053656E736F726CB2
:1023100065737320686F6D696E672074687265738A
:10232000686F6C643A0A00205430204500205A003F
:1023300020590020580048796272696420546872FC
:102340006573686F6C643A0A0020543020450020A1
:102350005A0020590020580053746570706572202F
:102360006472697665722063757272656E743A0A7A
:102370000020204D383531205A005A2D50726F629E
:1023800065204F6666736574002044002049002074
:10239000204D33303120500050494420736574740F
:1023A000696E67733A0A0020460020420020480008
:1023B00020204D3134352053004D617465726961C0
:1023C0006C2068656174757020706172616D6574F0
:1023D0006572733A0A00205A00204A0020204732D2
:1023E000392057204900205A0020204D3432302017
:1023F00053004175746F20426564204C6576656CAE
:10240000696E673A0A00205A0020590020204D3298
:102410003036205800486F6D65206F6666736574AE
:102420003A0A00204500205A002059002058002078
:10243000540020530020204D3230352051002045DB
:102440003C6D61785F655F6A65726B3E0020583C49
:102450006D61785F785F6A65726B3E20593C6D6193
:10246000785F795F6A65726B3E205A3C6D61785F78
:102470007A5F6A65726B3E00416476616E63656483
:102480003A20513C6D696E5F7365676D656E745F70
:1024900074696D655F75733E20533C6D696E5F6650
:1024A000656564726174653E20543C6D696E5F744D
:1024B000726176656C5F66656564726174653E0025
:1024C00020540020520020204D3230342050004152
:1024D0006363656C65726174696F6E2028756E69DF
:1024E00074732F7332293A20503C7072696E745F96
:1024F000616363656C3E20523C7265747261637403
:102500005F616363656C3E20543C74726176656CF8
:102510005F616363656C3E0A00204500205A00201D
:10252000590020204D3230312058004D6178696DBE
:10253000756D20416363656C65726174696F6E20AF
:1025400028756E6974732F7332293A0A002045008A
:10255000205A0020590020204D3230332058004DA1
:102560006178696D756D2066656564726174657307
:102570002028756E6974732F73293A0A002045006C
:10258000205A0020590020204D3932205800537421
:102590006570732070657220756E69743A0A002048
:1025A000204D3230302044300A0020204D3230306F
:1025B0002044002044697361626C65640A004669C6
:1025C0006C616D656E742073657474696E67733ABF
:1025D0000020204D3134392043203B20556E697452
:1025E0007320696E2043656C736975730A0020203F
:1025F000473231202020203B0046696C616D656EBA
:102600007420757365643A200053746174733A20C2
:10261000002C204C6F6E67657374206A6F623A20DD
:1026200000546F74616C2074696D653A20005374B6
:102630006174733A20002C204661696C65643A200D
:10264000002C2046696E69736865643A20005072F8
:10265000696E74733A200053746174733A20006F8A
:102660006B0020573A004520436F6F6C696E672EF0
:102670002E2E00452048656174696E672E2E2E004F
:1026800020573A0042656420636F6F6C696E672E55
:102690002E2E004265642068656174696E672E2E77
:1026A0002E004E4C2042473132204F66662E0020CD
:1026B0005A3A0020593A0020436F756E7420583AF8
:1026C0000020453A00205A3A0020593A00583A0072
:1026D0002C20002C20003A004361703A00544845F9
:1026E000524D414C5F50524F54454354494F4E0058
:1026F0004155544F5245504F52545F53445F5354C9
:102700004154555300454D455247454E43595F503E
:10271000415253455200434153455F4C4947485449
:102720005F4252494748544E45535300544F474720
:102730004C455F4C494748545300534F465457410A
:1027400052455F504F574552004255494C445F50E7
:10275000455243454E54004C4556454C494E475F03
:1027600044415441005A5F50524F42450041555434
:102770004F4C4556454C005052494E545F4A4F42CB
:102780000050524F4752455353004155544F524504
:10279000504F52545F54454D5000564F4C554D4587
:1027A0005452494300454550524F4D0053455249FC
:1027B000414C5F584F4E5F584F4646004649524D78
:1027C000574152455F4E414D453A4D61726C696EBD
:1027D00020312E312E3920284769746875622920EE
:1027E000534F555243455F434F44455F55524C3A12
:1027F00068747470733A2F2F6769746875622E63FA
:102800006F6D2F6E6F76612D6C6162732F4E6F76D8
:10281000612D49332050524F544F434F4C5F564522
:102820005253494F4E3A312E30204D414348494E84
:10283000455F545950453A4E4C204247313220456D
:10284000585452554445525F434F554E543A3120E7
:10285000555549443A63656465326132662D3431B9
:1028600061322D343734382D396231322D633535AC
:102870006336326633363766660A002F2F20002013
:102880005400205200416363656C65726174696F26
:102890006E3A2050005741524E494E4721204C6F0E
:1028A00077205A204A65726B206D6179206C6561D2
:1028B0006420746F20756E77616E7465642070613A
:1028C000757365732E0A00205A00205900580020A5
:1028D000204D61783A2000205A00205900580020ED
:1028E000204D696E3A20004F6E20004F66660053FF
:1028F0006F667420656E6473746F70733A20002085
:10290000466C6F773A2000000125311D40FFFFFF24
:102910002924301C45FFFFFF27232F1B0AFFFFFF41
:10292000FF43FFFF040806FFFF222B1AFFFF4204AC
:102930003803063650726F6265205A204F66667300
:1029400065743A200023646566696E6520444546D7
:1029500041554C545F4B64200023646566696E6585
:102960002044454641554C545F4B69200023646523
:1029700066696E652044454641554C545F4B702056
:1029800000504944204175746F74756E6520666906
:102990006E697368656421205075742074686520C1
:1029A0006C617374204B702C204B6920616E642025
:1029B0004B6420636F6E7374616E74732066726F04
:1029C0006D2062656C6F7720696E746F20436F6E47
:1029D00066696775726174696F6E2E680A00504986
:1029E00044204175746F74756E65206661696C650D
:1029F00064212074696D656F75740A004531205437
:102A00004845524D414C2052554E41574159005472
:102A10006865726D616C2052756E617761790045F1
:102A2000312048656174696E67206661696C656410
:102A30000048656174696E67206661696C65640051
:102A4000504944204175746F74756E6520666169E4
:102A50006C6564212054656D706572617475726572
:102A600020746F6F20686967680A00204B643A2001
:102A700000204B693A2000204B703A20000A204386
:102A80006C617373696320504944200A00205475B7
:102A90003A2000204B753A2000206D61783A2000E2
:102AA000206D696E3A200020643A2000206269613E
:102AB000733A2000504944204175746F74756E65F7
:102AC000206661696C6564212042616420657874C8
:102AD0007275646572206E756D6265720A00504988
:102AE00044204175746F74756E65207374617274DF
:102AF0000A004F666673657473206170706C696557
:102B000064004572723A20546F6F20666172210032
:102B1000546F6F206661722066726F6D20726566F9
:102B20006572656E636520706F696E740A004E6F22
:102B30002063617365206C696768740A004534001E
:102B40004533004532004531004530005A320059C6
:102B500032005832005A005900580042656420681B
:102B6000656174696E67206661696C6564004865BB
:102B70006174696E67206661696C65640045312027
:102B800048656174696E67206661696C65640048B8
:102B9000656174696E67206661696C6564007001C7
:102BA0002C0190012701B0012201C0011D01F0019B
:102BB00018011002130130020E0160020901900297
:102BC0000401C002FF000003FA004003F500800387
:102BD000F000D003EB002004E6007004E100E00404
:102BE000DC004005D700C005D2004006CD00D0066D
:102BF000C8008007C3003008BE00F008B900C00953
:102C0000B400B00AAF00B00BAA00D00CA500000EB3
:102C1000A000500F9B00C0109600501291000014AD
:102C20008C00C0158700B0178200B0197D00D01B42
:102C30007800001E730040206E0090226900F0248E
:102C4000640040275F0090295A00E02B5500102EA9
:102C5000500020304B0010324600E03341009035E8
:102C60003C001037370070383200A0392D00B03AE0
:102C70002800A03B2300603C1E00103D1900903D41
:102C80001400103E0F00703E0A00C03E0500003FD9
:102C90000000403FFBFF803FF6FFC03FF1FF4531A2
:102CA000204572723A204D415854454D50004572AE
:102CB000723A204D415854454D5020424544004DF4
:102CC000415854454D502074726967676572656458
:102CD000004531204572723A204D494E54454D50C1
:102CE000004572723A204D494E54454D50204245A0
:102CF00044004D494E54454D5020747269676765D4
:102D0000726564004D383420582059205A204500FF
:102D1000202F002042403A0020403A0025753A25F5
:102D200030327500253032753A2530327500257500
:102D30006420253032753A2530327500592B572BD7
:102D4000552B522B4F2B4C2B492B462B432B402BD7
:102D50003D2B747275650066616C73650020746547
:102D60006D706572617475726520707265776172DD
:102D70006E207472696767657265643A200020701E
:102D800072657761726E20666C616720636C656145
:102D90007265640A0020686F6D696E672073656EE6
:102DA00073697469766974793A20002D2D2D00536A
:102DB00044002020202020200020202020004E4CF5
:102DC00020424731322052656164792E0050726989
:102DD0006E74696E672E2E2E005072696E742070AC
:102DE0006175736564004D313235004D32340050E9
:102DF00072696E742061626F72746564004E6F2038
:102E000053442063617264005072696E742066726C
:102E10006F6D2053440053746F70207072696E742C
:102E200000526573756D65207072696E7400416241
:102E30006F7574205072696E74657200506175739D
:102E400065207072696E7400436F6E74726F6C00EF
:102E5000507265706172650054756E6500496E66EA
:102E60006F2073637265656E006F6B00207573650C
:102E700020612073686F7274657220657874727552
:102E800073696F6E2076616C7565202D206D617899
:102E9000206973203630306D6D0A002068656174DA
:102EA000206E6F7A7A6C6520616E6420747279206E
:102EB000616761696E0A00627573793A20706175A5
:102EC00073656420666F7220696E7075740A0062A3
:102ED0007573793A2070617573656420666F72202E
:102EE000757365720A00627573793A2070726F6348
:102EF000657373696E670A004B494C4C45442E203C
:102F0000004B494C4C2063617573656420627920E5
:102F10004B494C4C20627574746F6E2F70696E0A49
:102F2000004B494C4C45442E20004B494C4C2063EF
:102F3000617573656420627920746F6F206D7563AD
:102F40006820696E6163746976652074696D6520B7
:102F50002D2063757272656E7420636F6D6D616E86
:102F6000643A20004D36303000290A00206279741E
:102F700065733B2063726320002073746F72656415
:102F80002073657474696E67732072657472696505
:102F9000766564202800202863616C63756C617419
:102FA000656429210A0020213D2000454550524FEB
:102FB0004D20435243206D69736D61746368202D09
:102FC000202873746F7265642920002053697A6524
:102FD0003A2000496E6465783A2000204D61726C99
:102FE000696E3D563535290A0028454550524F4DEA
:102FF0003D00454550524F4D2076657273696F6EA6
:10300000206D69736D61746368200020637572724E
:10301000656E742064656372656173656420746FA6
:1030200020006D41290A0020647269766572206F64
:1030300076657274656D70657261747572652077FE
:1030400061726E696E67212028003A20004472691F
:10305000766572206572726F720073686F72742089
:10306000746F2067726F756E642028636F696C20BF
:1030700042290A0073686F727420746F2067726F40
:10308000756E642028636F696C2041290A006F7691
:10309000657274656D70657261747572650A002081
:1030A000647269766572206572726F7220646574ED
:1030B00065637465643A0A00534420636172642056
:1030C0006F6B0A006F70656E526F6F742066616976
:1030D0006C65640A00766F6C756D652E696E697437
:1030E000206661696C65640A00534420696E6974E6
:1030F000206661696C0A004265616D696E672074C3
:103100006F2066696C653A20006F70656E2066619D
:10311000696C65642C2046696C653A20006F7065A7
:103120006E206661696C65642C2046696C653A2086
:103130000046696C652073656C65637465640A009C
:103140002053697A653A200046696C65206F706586
:103150006E65643A20002066696C653A2000646FF1
:10316000696E67006672657368004E6F7720004570
:103170004E4420535542524F5554494E450A002261
:1031800020706F73002220706172656E743A2200A5
:10319000535542524F5554494E452043414C4C20C3
:1031A0007461726765743A22004B494C4C45442E59
:1031B0002000747279696E6720746F2063616C6C93
:1031C000207375622D67636F64652066696C657333
:1031D000207769746820746F6F206D616E79206C40
:1031E0006576656C732E204D4158206C6576656C54
:1031F0002069733A004572726F723A00556E6C6FB7
:1032000061642066696C616D656E7400556E6C6FEB
:1032100061642066696C616D656E74004D37303293
:10322000004D373031004C6F61642066696C616D10
:10323000656E74004D363030204230004368616E58
:1032400067652066696C616D656E740050726570AB
:10325000617265005052494E5420504155534544C7
:1032600000554E4C4F41442046494C414D454E542B
:10327000004C4F41442046494C414D454E5400506E
:1032800075726765206D6F726500436F6E74696E4D
:10329000756500524553554D45204F5054494F4E8A
:1032A000533A0020204E6F7A7A6C653A20006368AA
:1032B000616E6765006F66207468652066696C6181
:1032C0006D656E74005761697420666F7220737447
:1032D0006172740020204E6F7A7A6C653A20006625
:1032E000696C616D656E7420756E6C6F61640057FA
:1032F00061697420666F720020204E6F7A7A6C6567
:103300003A2000506C6561736520776169742E2ED8
:103310002E0048656174696E67206E6F7A7A6C65FD
:103320000020204E6F7A7A6C653A200068656174DF
:10333000206E6F7A7A6C652E00507265737320620E
:103340007574746F6E20746F0020204E6F7A7A6CE3
:10335000653A2000746F20636F6E74696E75652E18
:103360002E2E00616E642070726573732062757416
:10337000746F6E00496E736572742066696C616D5E
:10338000656E740020204E6F7A7A6C653A20006674
:10339000696C616D656E74206C6F61640057616962
:1033A0007420666F72004368616E67652066696CA1
:1033B000616D656E7400556E6C6F61642066696C3A
:1033C000616D656E74004C6F61642066696C616D3F
:1033D000656E74005072656865617420504554478D
:1033E000005072656865617420504C41004368610B
:1033F0006E67652066696C616D656E74004D323470
:10340000004D323320257300556E6B6E6F776E2042
:10341000636F6D6D616E643A2022005452494747D4
:1034200045524544006F70656E003A200066696C35
:10343000616D656E74007A5F6D696E00795F6D69AC
:103440006E00785F6D696E005265706F7274696EA0
:103450006720656E6473746F702073746174757324
:103460000A00FFFDFCFAF8F6F4F2F0EEECEAE9E708
:10347000E5E3E1E0DEDCDAD9D7D5D4D2D0CFCDCBCD
:10348000CAC8C7C5C3C2C0BFBDBCBAB9B7B6B4B35A
:10349000B2B0AFADACAAA9A8A6A5A4A2A1A09E9DBA
:1034A0009C9A99989795949392908F8E8D8B8A89F8
:1034B00088878684838281807F7E7D7B7A79787716
:1034C000767574737271706F6E6D6C6B6A69686714
:1034D000666564636261605F5E5D5C5B5A59585803
:1034E0005756555453525150504F4E4D4C4B4A4ADB
:1034F0004948474646454443424241403F3E3E3D9F
:103500003C3B3B3A39383837363535343332323153
:1035100030302F2E2E2D2C2B2B2A292928272726F9
:10352000252524232322212120201F1E1E1D1C1C93
:103530001B1B1A1919181817161615151413131220
:10354000121111100F0F0E0E0D0D0C0C0B0A0A09A3
:10355000090808070706060505040403030202011B
:10356000000000000001000000010000800055552F
:1035700055000000400033333300AAAA2A004992C4
:10358000240000002000C7711C0099991900D14542
:103590001700555515003BB11300244912001111B5
:1035A0001100000010000F0F0F00E3380E004379E8
:1035B0000D00CCCC0C00C3300C00E8A20B00642141
:1035C0000B00AAAA0A00703D0A009DD80900427BA0
:1035D000090092240900DCD3080088880800104202
:1035E000080000000800F0C1070087870700755039
:1035F0000700711C07003EEB0600A1BC06006990A5
:10360000060066660600703E06006118060017F4A4
:10361000050074D105005BB00500B2900500627230
:1036200005005555050078390500B81E050005054B
:1036300005004EEC040087D40400A1BD040090A74F
:10364000040049920400C17D0400EE690400C756DD
:103650000400444404005C320400082104004110CA
:103660000400000004003FF00300F8E0030026D24D
:103670000300C3C30300CCB503003AA803000A9BB0
:103680000300388E0300C08103009F750300D069DA
:103690000300505E03001D53030034480300913DB6
:1036A00003003333030016290300381F0300971566
:1036B0000300300C0300030303000BFA020049F17E
:1036C0000200BAE802005CE002002DD802002DD012
:1036D000020059C80200B0C0020031B90200DAB1DC
:1036E0000200AAAA0200A0A30200BC9C0200FA9554
:1036F00002005C8F0200DF88020082820200457CAB
:1037000002002776020027700200436A02007C64F0
:103710000200D05E02003F590200C85302004D6F04
:1037200076652058004D6F76652059004D6F76659F
:10373000205A004578747275646572004D6F766525
:1037400020302E316D6D004D6F766520316D6D002E
:103750004D6F76652031306D6D004D6F766520615F
:10376000786973004578747275646572004D6F7680
:1037700065205A004D6F76652059004D6F766520A3
:10378000580006FFFFFFFFFF000101010101626514
:10379000640A002C2073797374656D2073746F70E4
:1037A00070656421204865617465725F49443A2000
:1037B00000526573656E643A2000D200DE00112469
:1037C0001FBECFEFD1E2DEBFCDBF00E00CBF13E0E4
:1037D000A0E0B2E0EAE4F8E702E00BBF02C0079025
:1037E0000D92A833B107D9F726E1A8E3B3E001C0F1
:1037F0001D92A933B207E1F71BE1CEEDDBE100E05A
:1038000006C021970109802FFE010F94893BCD3D11
:10381000D10780E00807A9F70F94E4260D94143C23
:103820000C9400002F923F924F925F926F927F9282
:103830008F929F92AF92BF92CF92DF92EF92FF92C0
:103840000F931F93CF93DF93CDB7DEB7C454D10945
:103850000FB6F894DEBF0FBECDBF21E02093B20BB0
:103860008091B0158D3409F4DFC7843511F40C94C0
:103870000534873411F00C944F348091AE1590913B
:10388000AF158B31910509F489C4A4F484309105F6
:103890004CF4823091056CF597FDC2C70E94B03D93
:1038A0000C9451348430910509F4BCC10C9709F48F
:1038B000F8C1B6C78A32910509F476C654F48D3141
:1038C000910509F499C50CF499C44E9709F498C56B
:1038D000A7C78B35910509F429C78C35910509F4E3
:1038E00029C78A35910509F09BC710923C030C94B7
:1038F000513420915602222311F40C94513411E0DA
:10390000029709F010E00E94023D19821A821B8280
:103910001C821D821E821F82188682E50E94F63C50
:10392000882309F432C10E947C3C6B017C018091A8
:10393000C50B9091C60BA091C70BB091C80B89A77E
:103940009AA7ABA7BCA78090C90B9090CA0BA09078
:10395000CB0BB090CC0B8091870B9091880BA091F2
:10396000890BB0918A0B8DA79EA7AFA7B8AB8091AA
:103970008B0B90918C0BA0918D0BB0918E0B89AB22
:103980009AABABABBCAB20E030E0A901C701B601FC
:103990000F94CA36882309F40EC129A53AA54BA570
:1039A0005CA56DA57EA58FA598A90F94CA36811137
:1039B0000BC0A501940169A97AA98BA99CA90F94B0
:1039C000CA36882309F4F7C020E030E0A901C70116
:1039D000B6010F94CA36881F8827881F181305C0A0
:1039E00080E090E0A0E8BFE304C080E090E0A0E8C1
:1039F000BFEB25968CAF9DAFAEAFBFAF259729A586
:103A00003AA54BA55CA56DA57EA58FA598A90F9499
:103A1000993869AF7AAF8BAF9CAFA501940169A9C2
:103A20007AA98BA99CA90F94993821966CAF7DAF88
:103A30008EAF9FAF219729AD3AAD4BAD5CADCA01BA
:103A4000B9010F942F372B013C0121962CAD3DADD0
:103A50004EAD5FAD2197CA01B9010F942F379B017D
:103A6000AC01C301B2010F949A380F94053B6DABC2
:103A70007EAB8FAB98AF20E030E040E05FE30F9487
:103A80002F372B013C01A7019601C701B6010F9406
:103A90002F376B017C01A3019201C301B2010F9486
:103AA0002F379B01AC01C701B6010F9499380F94D1
:103AB000053B9B01AC0125966CAD7DAD8EAD9FADF8
:103AC00025970F942F376B017C012DA53EA54FA59F
:103AD00058A969A57AA58BA59CA50F949A3820E0D2
:103AE00030E040E05FE30F942F372B013C0121963B
:103AF0006CAD7DAD8EAD9FAD219790582DA93EA99F
:103B00004FA958AD0F9476399B01AC01C701B6019E
:103B10000F942F379B01AC01C301B2010F949A3867
:103B200029A53AA54BA55CA50F94993869837A839A
:103B30008B839C8329A93AA94BA95CA9C501B4012F
:103B40000F949A3820E030E040E05FE30F942F3785
:103B50002B013C012DA93EA94FA958AD69AD7AAD05
:103B60008BAD9CAD0F9476399B01AC01C701B601BA
:103B70000F942F379B01AC01C301B2010F949A3807
:103B8000A50194010F94993812C089E40E94F63C73
:103B9000882331F00E947C3C69837A838B839C83E9
:103BA0008AE40E94F63C882331F00E947C3C6D83BD
:103BB0007E838F83988720E030E0A90169817A8134
:103BC0008B819C810F94CA3681110BC020E030E0BC
:103BD000A9016D817E818F8198850F94CA368823D3
:103BE00039F0612FCE0101960F9435070C945134B2
:103BF000E5EFF1E384918F010F5F1F4F882321F0E0
:103C00000E94123FF801F6CFE3E4F3E084918F01C4
:103C10000F5F1F4F882311F40C9451340E94123F00
:103C2000F801F4CF80E50E94F63C882329F00E9439
:103C30003C3C6B017C0103C0C12CD12C760183E597
:103C40000E94F63C882361F00E947C3C20E030E03A
:103C50004AE754E40F942F370F94E3396B017C014A
:103C60000E945AC180918D06811105C060E089E5EE
:103C700093E00E9445900E94676AC60ED71EE81E18
:103C8000F91E0E94676ADC01CB018C199D09AE09FF
:103C9000BF09B7FD02C00C94513480E00E945CE97A
:103CA000F0CF0E946FA781110C94513480E50E94DF
:103CB000F63C882321F00E944C3C162F01C010E0F6
:103CC00083E50E94F63C882321F00E944C3C1B01B6
:103CD00003C0BCE02B2E312C29A684E50E94F63CC3
:103CE000882321F00E944C3C762E02C0A3E07A2E5D
:103CF00082E50E94F63C882329F00E947C3C4B011F
:103D00005C0106C0812C912CF0EDAF2EF0E4BF2EAB
:103D1000113021F0123009F4F7C0B5C180E090E015
:103D2000A8ECB2E48D879E87AF87B88B80E090E0E7
:103D3000A0E7B2E4898B9A8BAB8BBC8B80E090E0E0
:103D4000A0E8BFE38D8B9E8BAF8BB88F40E050E037
:103D500060EF71E449835A836B837C834D835E8378
:103D60006F83788789879A87AB87BC878091C50BDB
:103D70009091C60BA091C70BB091C80B8DAB9EABB9
:103D8000AFABB8AF8090C90B9090CA0BA090CB0B93
:103D9000B090CC0B2090CD0B3090CE0B4090CF0B41
:103DA0005090D00B198E1A8E1B8E1C8EDE015996E8
:103DB0006D01E12CF12C00E81FE39A01AB01CA016F
:103DC000B9010E941E37770C7DA6E72DF0E0FAAB13
:103DD000E9ABBF01FF0F880B990B0F94D0369B0105
:103DE000AC0160E070E08CE892E40F9476396B01EE
:103DF0007C0100E039A5031708F073C010E0812FA3
:103E0000012E000C990BA9A9BAA98A179B0794F552
:103E100010FD05C09E012F5F3F4F390103C0CE0149
:103E20000D963C011D8E1E8E1F8E18A2612F012E35
:103E3000000C770B880B990B0F94D036A7019601D5
:103E40000F942F379B01AC0169817A818B819C8112
:103E50000F949A38698F7A8F8B8F9C8FB3016C5F28
:103E60007F4FAE01435E5F4FCE0149960E94FB3704
:103E70001F5FC5CF1DA517FD32C010FD04C0FE0198
:103E800031963F0104C09E01235F3F4F39011D8ED3
:103E90001E8E1F8E18A2612F012E000C770B880B2F
:103EA000990B0F94D036A70196010F942F379B01E1
:103EB000AC0169817A818B819C810F949A38698FDA
:103EC0007A8F8B8F9C8FB3016C5F7F4FAE01435E07
:103ED0005F4FCE0149960E94FB371150CCCF0F5F48
:103EE00089CF198E1A8E1B8E1C8ECE0149966C01BD
:103EF00082017101A50194016DA97EA98FA998ADD8
:103F00000E941E370C94513480E090E0A0EFB1E4A1
:103F100089839A83AB83BC838D839E83AF83B88769
:103F200080E090E0A0E8BFE389879A87AB87BC87F1
:103F300099A5992311F40C9451348091C50B90915B
:103F4000C60BA091C70BB091C80B8DA79EA7AFA7BA
:103F5000B8AB8091C90B9091CA0BA091CB0BB091DB
:103F6000CC0B89AB9AABABABBCAB4090CD0B5090BC
:103F7000CE0B6090CF0B7090D00B1D861E861F86D7
:103F8000188ADE011D966D01E12CF12C00E81FE37B
:103F900020E030E040EF51E4CA01B9010E941E3731
:103FA00010E0212C312C1D861E861F86188AB10137
:103FB000032C000C880B990B0F94D0362CE739EDAD
:103FC00040E25FE30F942F376B017C010F9473394C
:103FD000A50194010F942F3720E030E040EF51E429
:103FE0000F949A38698F7A8F8B8F9C8FC701B60197
:103FF0000F94FB3AA50194010F942F3720E030E095
:1040000040EF51E40F949A386D8F7E8F8F8F98A375
:10401000AE01435F5F4FBE01675E7F4FCE014D969D
:104020000E94FB37BFEF2B1A3B0AEAE02E16310441
:1040300009F0B9CF1F5FF9A51F1708F4B2CF1D868D
:104040001E861F86188AAE01435F5F4FBE016B5FFD
:104050007F4FCE0101960E94FB371D861E861F866C
:10406000188A9E01235F3F4F69018301720129A9CC
:104070003AA94BA95CA96DA57EA58FA598A90E9418
:104080001E370C94513480E090E0A8ECB2E48983B0
:104090009A83AB83BC8380E090E0A0E7B2E48D8399
:1040A0009E83AF83B88780E090E0A0E8BFE3898774
:1040B0009A87AB87BC8740E050E060EF71E44D87A2
:1040C0005E876F87788B498B5A8B6B8B7C8B8D8B44
:1040D0009E8BAF8BB88F8091C50B9091C60BA09132
:1040E000C70BB091C80B89A79AA7ABA7BCA78090B4
:1040F000C90B9090CA0BA090CB0BB090CC0B40900A
:10410000CD0B5090CE0B6090CF0B7090D00B198ED2
:104110001A8E1B8E1C8EDE0159966D01E12CF12C3E
:1041200000E81FE39A01AB01CA01B9010E941E37E2
:1041300033243594279410E0812F90E0198E1A8E45
:104140001B8E1C8E82159305D4F4AE01475E5F4F23
:10415000BE016B5F7F4FCE0101960E94FB37198E27
:104160001A8E1B8E1C8EAE01475E5F4FBE016F5EC6
:104170007F4FCE010D960E94FB371F5FDDCFFE0102
:1041800079966F0183017201A501940169A57AA551
:104190008BA59CA50E941E370C9451340E946FA7DA
:1041A00081110C94513480E090E0A0E2B1E4898365
:1041B0009A83AB83BC8380E090E0A1E9B3E48D8374
:1041C0009E83AF83B88780E090E0A0EAB1E489875E
:1041D0009A87AB87BC8780E50E94F63C882319F05C
:1041E0000E944C3C01C060E06D87BE016F5F7F4F55
:1041F000CE010D960F94DB120C9451348091B40BC8
:104200008770873071F48FE40E94F63C882319F0A0
:104210000E946D3C03C08FE40E94AF3C81110C945E
:1042200051340E945AC1B090360480E00E94AA3AEC
:104230000E94FF3611E01093F10488E50E94AF3C24
:10424000982E89E50E94AF3C082F8AE50E94AF3C7A
:10425000A82E911004C0011104C0182705C0011137
:1042600002C010E001C0182F0E947E3E82E50E942D
:10427000F63C882361F00E947C3C6B017C0120E0CD
:1042800030E0A9010F94CA36882369F105C0C12C1A
:10429000D12CE12C20E4F22E111104C0911002C0A7
:1042A000002391F1C0928F0BD092900BE092910B72
:1042B000F092920B2091CD0B3091CE0B4091CF0B11
:1042C0005091D00BC701B6010F94C03A18165CF498
:1042D00019821A821B821C82BE016F5F7F4F8FE89A
:1042E0009BE00E941C38111105C0911003C0011100
:1042F00006C00AC080E00E9422661123C1F381E05B
:104300000E942266111103C0AA2009F463C08091A3
:10431000B40B83708330F1F060E081E793E00E949A
:104320004590E7E5FEE184918F010F5F1F4F8823E1
:1043300021F00E94123FF801F6CFE2E6F3E084910B
:104340008F010F5F1F4F882309F444C00E94123F62
:10435000F801F5CF0E948D3980E090E0A6E1B3E44A
:104360008093870B9093880BA093890BB0938A0B53
:104370008091CD0B9091CE0BA091CF0BB091D00B33
:1043800080938F0B9093900BA093910BB093920B13
:1043900080E090E0A5E2B3E480938B0B90938C0BCC
:1043A000A0938D0BB0938E0B64EF71E080E090E0F2
:1043B0000E948A7119821A821B821C82AE014F5F91
:1043C0005F4F6BE87BE087E89BE00E94FB3782E071
:1043D0000E9422660E948D398091F0048093F1043E
:1043E0008B2D0E94AA3A0E94E63683E080932E022B
:1043F0000E9452CB0C9451340E9487440C94513447
:10440000C090C50BD090C60BE090C70BF090C80BC6
:1044100088E50E94F63C811108C020E030E0A90147
:10442000C701B6010F949A3802C00E947C3C6D8788
:104430007E878F87988BC090C90BD090CA0BE09075
:10444000CB0BF090CC0B89E50E94F63C811109C0A2
:1044500020E030E040E751E4C701B6010F949938FD
:1044600002C00E947C3C9B01AC0169837A838B83F0
:104470009C836D857E858F8598890E947B678823C4
:1044800011F40C94513480E00E94AA3A0E94FF3645
:1044900085E40E94F63C882321F00E946D3C182F91
:1044A00004C085E40E94AF3C11E086E50E94F63C22
:1044B000882321F00E944C3C262F01C021E0412F8F
:1044C000BE016F5F7F4FCE010D960E945BA86B010E
:1044D0007C019B01AC010F94463B81115FC08D8430
:1044E0009E84AF84B88820E030E0A901C501B40102
:1044F0000F94CA3687FD05C027E137EB41E558E345
:1045000004C027E137EB41E558EBC501B4010F9436
:104510009A38AB01BC0189E893E00F946315898058
:104520009A80AB80BC8020E030E0A901C501B401D5
:104530000F94CA3687FD05C027E137EB41E558E304
:1045400004C027E137EB41E558EBC501B4010F94F6
:104550009A38AB01BC0184E893E00F94631520E026
:1045600030E0A901C701B6010F94CA3687FD05C026
:1045700027E137EB41E558E304C027E137EB41E59C
:1045800058EBC701B6010F949A38AB01BC018FE715
:1045900093E00F9463158AE00E94123F0E94E63672
:1045A0000E9452CB0C94513480915602882311F40E
:1045B0000C94513489E40E94F63CF82E882321F0B3
:1045C0000E944C3CE62E01C0E12C8AE40E94F63C9D
:1045D000182F882331F00E944C3C062FF11004C0A4
:1045E0000BC000E0FF20B9F0F2E0FE1510F00C94D3
:1045F000C234E1E9F3E003C00330D8F70CC0849182
:104600008F010F5F1F4F882311F40C9451340E94C7
:10461000123FF801F4CF0E947E3EFF20F1F020917E
:104620002E0430912F044E2D4203B001439F700D94
:1046300011248091EE0C9091EF0C680F791F072EDA
:10464000000C880B990B0F94D0366093870B7093F6
:10465000880B8093890B90938A0B1123E9F02091AA
:104660003004309131040203B001039F700D112416
:104670002091F00C3091F10C620F731F072E000C8B
:10468000880B990B0F94D03660938B0B70938C0B27
:1046900080938D0B90938E0B80E50E94F63C8823CF
:1046A000E9F00E946D3C8823E9F01123D9F020E065
:1046B00030E040E751E460918B0B70918C0B80915E
:1046C0008D0B90918E0B0F949A3860938B0B709397
:1046D0008C0B80938D0B90938E0B04C080E50E9411
:1046E000AF3CE1CF86E40E94F63C8823D9F00E94DB
:1046F0007C3C6B017C0120E030E0A9010F94C03AC2
:10470000181684F420E030E040E752E4C701B60117
:104710000F94763960932A0270932B0280932C02B7
:1047200090932D020E944FED0C94513420933C0342
:104730000C9451348BE5282E82E0382E9EEBC92E46
:1047400093E0D92EE12CF12C00E010E0D1018D9105
:104750001D010E94F63C882309F44EC00E947C3C57
:104760002B013C01133059F0F701EB54F44F208139
:104770003181428153810F9499382B013C01F7011B
:10478000EB53F44F2081318142815381C301B20147
:104790000F9499384B015C012DEB37E346E855EB5C
:1047A0000F94C03A87FD0AC02DEB37E346E855E386
:1047B000C501B4010F94CA361816F4F4133051F43D
:1047C0004092D10B5092D20B6092D30B7092D40BCB
:1047D00001E012C0A5019401F6016081718182811E
:1047E00093810F949A38D6016D937D938D939C930A
:1047F0001397812F0E94DA381F5FB4E0CB0ED11CD3
:10480000E4E0EE0EF11C143009F0A0CF002321F0FB
:1048100081ED9BE00E9410A80E9452CB0C94513471
:104820000F94730B0C9451348091AE159091AF1589
:104830008D37910509F436C40CF01CC18E349105F6
:1048400009F40DC30CF089C08A31910509F4E7C25F
:10485000ECF58431910509F4D2C27CF481319105E3
:1048600009F4C2C22CF4029708F444C20C94023436
:10487000429709F4A7C40C9402348731910509F4D6
:10488000C6C274F48531910509F4BDC2469711F092
:104890000C9402341092F7081092F8080C945134DA
:1048A0008831910509F4B7C2499711F00C9402348C
:1048B0001092F7080F94421E8CEC93E090935A0FDD
:1048C0008093590F0E942E390C94513480329105F7
:1048D00009F4B1C224F58D31910511F40C945134D1
:1048E00094F48B31910509F49EC24C9711F00C940D
:1048F000023440E060E08091AC159091AD150E94CB
:1049000090FF0C9451348E31910509F490C24F9769
:1049100011F00C9402340E94915C0C9451348B344D
:10492000910509F494C264F48A32910509F48BC2AA
:10493000C09711F00C9402340E9483560C945134A9
:104940008C34910509F487C28D34910511F00C94D3
:1049500002340F941F160C9451348D36910509F4CE
:104960006DC30CF045C08C35910509F42FC4FCF4DF
:104970008335910509F421C46CF48135910509F45E
:1049800018C48235910511F00C94023410923B0347
:104990000C9451348435910509F414C4853591057E
:1049A00011F00C9402340E94F6CC0C9451348A36E7
:1049B000910509F447C37CF48836910509F453C284
:1049C0008936910511F00C9402340E9471D1109235
:1049D000B20B0C94D5348B36910509F451C38C3647
:1049E000910511F00C940234109223020C9451346E
:1049F0008337910509F4EEC3E4F48037910509F497
:104A0000E5C254F48E36910509F45CC28F369105E7
:104A100009F46BC20C9402348137910509F4DEC2AB
:104A20008237910511F00C9402340E941DCC0C9435
:104A300051348737910509F4D5C36CF48537910556
:104A400009F4CCC38637910511F00C9402340E940E
:104A5000A4CA0C9451348837910509F4C7C3893727
:104A6000910511F00C9402341092F1041092F004AC
:104A70000C9451348239F1E09F0709F4A2C50CF07F
:104A800090C0833D910509F48AC40CF03FC0883C76
:104A9000910509F42CC4DCF48139910509F4ADC306
:104AA0004CF48C38910511F00C9402340E944BCFD9
:104AB0000C9451348B39910509F4BCC28E3B91059D
:104AC00011F00C9402340E947ACD0C9451348C3C39
:104AD000910509F458C46CF4893C910509F44FC45C
:104AE0008B3C910511F00C9402340E9414DC0C9460
:104AF00051348D3C910509F44AC48E3C910511F066
:104B00000C9402340E94F3DA0C9451348D3231E06B
:104B1000930709F454C404F5823E910509F447C48F
:104B20006CF48C3D910509F43EC48D3D910511F066
:104B30000C9402340E9494D90C9451348232A1E036
:104B40009A0709F438C48C32914011F00C94023465
:104B50000E9463D80C9451348336E1E09E0709F437
:104B600028C574F48E3221E0920709F4CBC48F3249
:104B7000914011F00C9402340E9411D40C945134E1
:104B8000803941E0940709F418C58139914011F04A
:104B90000C94023481E00E943A380E9452CB0C946B
:104BA00051348D3BB2E09B0711F40C94402F0CF074
:104BB00045C0853FF1E09F0709F4DEC6FCF4853A65
:104BC00031E0930709F445C65CF48A39A1E09A07FD
:104BD00009F400C2843A914009F4FAC40C940234F6
:104BE0008C3AE1E09E0709F4D6C3843F914011F06E
:104BF0000C9402340E94D4490C945134883F21E033
:104C0000920709F4BFC674F4863F41E0940709F4A3
:104C1000B6C6873F914011F00C9402340E94C2D274
:104C20000C9451348835B2E09B0709F4CEC68B351D
:104C3000924011F40C94B72E0C9402348039F3E0B6
:104C40009F0711F40C94DC31ACF58A3833E09307FC
:104C500011F40C947B316CF48E3BA2E09A0711F4B2
:104C60000C944E308335934011F40C9415310C9410
:104C700002348B38E3E09E0711F40C9451348F38E2
:104C8000934011F00C94023460913A0880E00E9445
:104C9000BADC6091C10781E00E94BADC60914807EC
:104CA00082E00E94BADC6091CF0686E00E94BADC06
:104CB0000C945134833923E0920711F40C946F3330
:104CC0006CF4813943E0940711F40C945132823929
:104CD000934011F40C941E330C940234803AB3E0E8
:104CE0009B0709F4ACC0873E934011F40C94ED335C
:104CF0000C940234A090AC15B090AD1580E50E94E4
:104D0000F63C882359F00E943C3C6B017C0111E089
:104D1000672B682B692B31F410E004C010E0C12C24
:104D2000D12C760183E50E94F63C882311F40C9483
:104D300056340E947C3C20E030E04AE754E40F9473
:104D40002F370F94E3396B017C0111110BC0672BD6
:104D5000682B692B39F4A114B10421F0D5018C9191
:104D6000811102C010E001C011E00E945AC111235C
:104D700029F061E0C5010E947F9005C060E080EBF2
:104D800093E00E94459083E08093B20B81E0809392
:104D9000B10BC114D104E104F104F1F00E94676A7F
:104DA000C60ED71EE81EF91E0E94676ADC01CB0101
:104DB0008C199D09AE09BF09B7FD06C00E94FFE628
:104DC0001092B10B0C9451348091B10B8823B1F344
:104DD00080E00E945CE9E8CF8091B10B882371F3F9
:104DE00080E00E945CE9F8CF60E083EC93E00E94F1
:104DF000459017981698159814980C9451340E9461
:104E00006E5E0C9451340F9480010C9451340E94C6
:104E10005A5E0C9451340E941F5E0C9451340E94CF
:104E2000055E0C9451340E947E5D0C9451340E94B6
:104E3000D05C0C9451340E94505C0C9451340E940C
:104E4000455C0C9451340E94F85B0C9451340F94DF
:104E5000C1150C9451340F94421E0C9451340E948D
:104E60008ED10C94513488E690E00E943943811130
:104E70000C9451348091080C83FF02C00C9451347F
:104E800083E50E94F63C8823C9F00E947C3C0F9485
:104E9000DE3970934E0F60934D0F80E00E9495E0D5
:104EA0000E947C3C20E030E04AEA52E40F94CA368B
:104EB000181624F00F941F160E94FFE60F949C16FC
:104EC0000C9451348EE40E94F63C882311F40C9427
:104ED00051340E944C3C60932D0F70932E0F8093A1
:104EE0002F0F9093300F0C94513483E50E94AF3C08
:104EF000882359F083E50E94F63C882319F00E942C
:104F00005C3C01C080E08093080CE7E5FEE1849101
:104F10008F010F5F1F4F882321F00E94123FF8017D
:104F2000F6CFEFEDF3E084918F010F5F1F4F8823E1
:104F300021F00E94123FF801F6CF8091080C8823DF
:104F4000A1F101EDC02E03E0D02EE12CF12C20E0E8
:104F50008091080C90E00E2C02C0959587950A94DC
:104F6000E2F780FF17C0BB24B394B20E222319F0DE
:104F70008CE20E94123FF60125913491F90184914F
:104F800089010F5F1F4F882321F00E94123F980173
:104F9000F5CF2B2DFFEFEF1AFF0A32E0C30ED11C25
:104FA00045E0E416F104A1F60CC0EBEDF3E08491CA
:104FB0008F010F5F1F4F882321F00E94123FF801DD
:104FC000F6CF8AE00E94123F0C94513486EE93E0B3
:104FD0000E9443680E94D3D30C94513483E50E940D
:104FE000F63C882369F00E945C3C8D3320F480936A
:104FF0003C020C9451348CE380933C020C94513469
:10500000E7E5FEE184918F010F5F1F4F882321F0B8
:105010000E94123FF801F6CF40913C0250E060E060
:1050200070E08FEE93E00F9446158AE00E94123FE5
:105030000C9451340E9443D10C9451340E9464CF9B
:105040000C94513480E50E94F63C811106C083E542
:105050000E94F63C882361F006C00E945C3C8111EE
:105060000C945134F4CF0E944C3C6F3F710510F00A
:105070006FEF70E07093500F60934F0F0C945134AA
:1050800080E50E94F63C811106C01092500F1092EC
:105090004F0F0C9451340E944C3C672B11F00C9430
:1050A0005134F3CF8CE40E94AF3C882381F00E94FE
:1050B0007C3C6B017C0120E030E0A9010F94C03AF8
:1050C00087FF0AC0F7FAF094F7F8F09405C0C12CF6
:1050D000D12CE12C10E4F12EF7FAF094F7F8F094CB
:1050E000C98EDA8EEB8EFC8E80E090E0A0E2B1E417
:1050F00089839A83AB83BC8380E090E0A1E9B3E429
:105100008D839E83AF83B88780E090E0A0EAB1E40E
:1051100089879A87AB87BC8788E50E94F63C8823FD
:1051200079F088E50E94F63C882319F00E947C3CC7
:1051300003C060E070E0CB0169837A838B839C833A
:1051400089E50E94F63C882379F089E50E94F63CC7
:10515000882319F00E947C3C03C060E070E0CB0122
:105160006D837E838F8398878AE50E94F63C88232F
:1051700079F08AE50E94F63C882319F00E947C3C75
:1051800003C060E070E0CB0169877A878B879C87DA
:105190001D861E861F86188A20E0AE01435F5F4F82
:1051A000BE016F5F7F4FCE0149960E94C65E0C9490
:1051B00051340E9467CD0C94513481E080933B03BD
:1051C0000C9451340E940ECD0C9451340E9458CC52
:1051D0000C9451340E9403CB0C9451340E94F6CAB3
:1051E0000C9451340F94DA130C94513481E0809371
:1051F000F1048093F0040C94513483E50E94F63C52
:10520000882319F00E944C3C02C060E070E08B01E2
:10521000112702301105D4F0E5EFF1E384918F01FD
:105220000F5F1F4F882321F00E94123FF801F6CF35
:10523000E6EFF3E084918F010F5F1F4F882311F495
:105240000C9451340E94123FF801F4CF88E40E947C
:10525000F63C8823A9F00E944C3C6A3A71053CF068
:105260006F3081E078072CF06EE071E002C06AEAEE
:1052700070E0F801EE0FFF1FE85BFB4F7183608366
:1052800086E40E94F63C8823A9F00E944C3CF80179
:10529000EE0FFF1FE45BFB4F718360836F3F71056F
:1052A00019F014F06FEF70E077FF02C060E070E07B
:1052B0007183608382E40E94F63C882311F40C948D
:1052C00051340E944C3C6530710534F066357105EF
:1052D0002CF065E570E002C065E070E0000F111F82
:1052E000F801EC5BFB4F718360830C94513488ECC4
:1052F00090E00E94394381110C94513484E40E945F
:10530000AF3C8823C1F10E947C3C11E020E030E0FA
:10531000A9010F94CA36811101C010E01093030C4B
:10532000112349F10E947C3CE0913F0CA4E0EA9FEC
:10533000F0011124E150F44F6083718382839383E1
:1053400020E030E0A9016091FF0B7091000C80918A
:10535000010C9091020C0F94CA3681110CC080E0B0
:1053600090E0A0EEBFE38093FF0B9093000CA0931E
:10537000010CB093020C0E9448B30C9451340E946B
:1053800036DC0C9451340E949DDB0C9451340E9405
:105390001CDB0C9451340E94CDD20C9451340E94E9
:1053A00015DA0C9451340E9409DA0C9451340E949D
:1053B0002DD90C9451340E9498D80C94513485E422
:1053C0000E94F63C811110C080E50E94AF3C88230A
:1053D00091F00E947C3C6093370470933804809372
:1053E000390490933A0407C00E945C3C882361F31F
:1053F000E5EFF1E36FC089E40E94AF3C882381F0C0
:105400000E947C3C2CEA35EC47E25EE30F942F3798
:1054100060933F047093400480934104909342044E
:1054200084E40E94AF3C882381F00E947C3C2CEAFB
:1054300035EC47E25EE30F94763960933B0470935A
:105440003C0480933D0490933E04E7E5FEE18491A3
:105450008F010F5F1F4F882321F00E94123FF80138
:10546000F6CF40913704509138046091390470911F
:105470003A0480E294E00F9463152CEA35EC47E29D
:105480005EE360913F0470914004809141049091EB
:1054900042040F947639AB01BC018CE194E00F9487
:1054A00063152CEA35EC47E25EE360913B047091B2
:1054B0003C0480913D0490913E040F942F37AB0142
:1054C000BC0188E194E00F9463158AE00E94123FCA
:1054D0000C94513484918F010F5F1F4F882321F06A
:1054E0000E94123FF801F6CFE4E2F4E084918F01CC
:1054F0000F5F1F4F882311F40C9451340E94123F08
:10550000F801F4CF83E50E94AF3C182F882371F097
:105510000E947C3C0F94DE39709325026093240234
:1055200021E0672B09F020E02093A70B80E50E9483
:10553000AF3C882361F02091240230912502232B77
:1055400011F00E946D3C8093A70B0C945134111103
:105550000C945134E7E5FEE184918F010F5F1F4FFA
:10556000882321F00E94123FF801F6CF8091A70B0B
:10557000811103C060E173E002C06DE073E08BE471
:1055800094E00F94991560912402709125028AE3AA
:1055900094E00F948015E6E3F4E084918F010F5FAF
:1055A0001F4F882311F40C9451340E94123FF801CC
:1055B000F4CF0E94A7D20C9451340E945AC10C948B
:1055C000513480E00E943A380E9452CB0C945134FE
:1055D00083E50E94AF3C882349F00E946D3CB82EC1
:1055E000811106C080E00E94AA3A02C0B090360441
:1055F0008091C50B9091C60BA091C70BB091C80BC1
:1056000089839A83AB83BC838091C90B9091CA0B29
:10561000A091CB0BB091CC0B8D839E83AF83B887C9
:105620008091CD0B9091CE0BA091CF0BB091D00B70
:1056300089879A87AB87BC8780912E0490912F042D
:10564000892B09F463C083E40E94AF3C81110C9460
:105650005B345CC0F401E00FF11DEE0FFF1FEE0F95
:10566000FF1FED5EF34F508061807280A380252D77
:10567000362D472D5A2D69A5742D8DA599A90F9406
:10568000C03A181624F459A6462C7DA6A9AA252DA1
:10569000362D472D5A2DB1018DA999AD0F94CA36DB
:1056A00087FF04C0252C362C7DAAA9AE015090F6A8
:1056B00011110C946C3491014DA959AD69A5742D4B
:1056C0008DA599A90F949A3820E030E040E05FE37F
:1056D0000F942F37A70196010F949A386B017C0124
:1056E0002DEB37E346E855EB0F94C03A87FF02C035
:1056F0000C9477342DEB37E346E855E3C701B60148
:105700000F94CA36181614F40C94773486E50E9468
:10571000AF3C882341F080912E0490912F04892B77
:1057200011F00E9400448AE50E94AF3C882329F0D2
:105730000E947C3C40E00E94343B8B2D0E94AA3AA0
:10574000B11003C0E7E5FEE11CC080913604811171
:10575000F9CFE5EFF1E384918F010F5F1F4F8823AD
:1057600021F00E94123FF801F6CFEEE7F4E08491B9
:105770008F010F5F1F4F882329F30E94123FF8010A
:10578000F6CF84918F010F5F1F4F882321F00E9475
:10579000123FF801F6CF80913604811103C068E111
:1057A00073E002C064E173E080E794E00F94991520
:1057B0008AE00E94123FE7E5FEE184918F010F5FCE
:1057C0001F4F882321F00E94123FF801F6CFE3E635
:1057D000F4E084918F010F5F1F4F882321F00E9416
:1057E000123FF801F6CFC090F30CD090F40CE0908B
:1057F000F50CF090F60C20E030E0A901C701B601ED
:105800000F94C03A18164CF442E0C701B6010E944A
:105810008F438AE00E94123F0CC0EEE5F4E08491D1
:105820008F010F5F1F4F882321F00E94123FF80164
:10583000F6CF4CE050E065EC7BE0CE0101960F9492
:105840009D3B892B11F40C9451340E9452CB0C9443
:10585000513489E40E94F63C882321F00E944C3C9C
:10586000062F01C00FEF8AE40E94F63C882321F046
:105870000E944C3C162F01C01FEF8AE50E94AF3CEE
:10588000F82E811105C081E50E94AF3CD82E01C0E1
:10589000D12C07FD02C017FF03C0E5EFF1E305C0FF
:1058A000F1101AC0D11018C0F8CF84918F010F5F8A
:1058B0001F4F882321F00E94123FF801F6CFECEB36
:1058C000F4E084918F010F5F1F4F882309F4E9C72B
:1058D0000E94123FF801F5CF033018F0E5EFF1E335
:1058E00006C01330D8F716C00E94123FF801849109
:1058F0008F010F5F1F4F8111F7CFEDE9F4E0849125
:105900008F010F5F1F4F882309F4CBC70E94123FFE
:10591000F801F5CFE02E000FFF08012F110F110B3A
:105920000E947C3CD701AA0FBB1FDD2081F0FD0146
:10593000EE0DFF1DE00FF11FEE0FFF1FEE0FFF1F1B
:10594000ED5EF34F208131814281538103C020E01D
:1059500030E0A901EA0EFB1E0E0D1F1D000F111FE6
:10596000000F111F0D5E134F0F949A38F8016083DA
:1059700071838283938395C70E9453CA92C70E9402
:105980000EC98FC781E080930E0C0E949CF3109289
:105990000E0C882309F485C7E7E5FEE184918F01A9
:1059A0000F5F1F4F882321F00E94123FF801F6CFAE
:1059B000ECEDF4E084918F010F5F1F4F882309F411
:1059C00070C70E94123FF801F5CF80E090E0A0E29E
:1059D000B1E489839A83AB83BC8380E090E0A1E942
:1059E000B3E48D839E83AF83B88780E090E0A0EA24
:1059F000B1E489879A87AB87BC8788E592E00E94EB
:105A0000394381114EC740913F0C60E00E941794CA
:105A100085E40E94AF3C882381F00E947C3C6B01AE
:105A20007C0120E030E0A9010F94C03A87FF0AC052
:105A3000F7FAF094F7F8F09405C0C12CD12CE12CC2
:105A4000A0E4FA2EF7FAF094F7F8F094CDA2DEA2D3
:105A5000EFA2F8A68AE50E94F63C882379F08AE551
:105A60000E94F63C882319F00E947C3C03C060E051
:105A700070E0CB0169877A878B879C8788E50E94D5
:105A8000F63C882379F088E50E94F63C882319F0DB
:105A90000E947C3C03C060E070E0CB0169837A83A4
:105AA0008B839C8389E50E94F63C882379F089E505
:105AB0000E94F63C882319F00E947C3C03C060E001
:105AC00070E0CB016D837E838F83988785E50E948C
:105AD000AF3C882329F00E947C3C6B017C010CC008
