:100000000C94841B0C94B51B0C94B51B0C94B51B61
:100010000C94B51B0C94B51B0C94B51B0C94B51B20
:100020000C94B51B0C94B51B0C94B51B0C94B51B10
:100030000C94B51B0C94B51B0C94B51B0C94B51B00
:100040000C94B51B0D9426000C94B51B0C94B51B99
:100050000C94B51B0C94B51B0C943EEB0C94F78ED2
:100060000C94B51B0C94ECDA0C94B51B0C94B51BDA
:100070000C94B51B0C94B51B0C94B51B0C94B51BC0
:100080000C94B51B0C94B51B0C94B51B0C94B51BB0
:100090000C94B51B0C94B51B0C94B51B0C94B51BA0
:1000A0000C94B51B0C94B51B0C94B51B0C94B51B90
:1000B0000C94B51B0C94B51B0C94B51B0C94B51B80
:1000C0000C94B51B0C94B51B0C94B51B0C94B51B70
:1000D0000C94B51B0C94B51B0C94B51B0C94B51B60
:1000E0000C94B51BB0A09CA09FA0A2A0BEA0ABA0EA
:1000F00099A0BCA0A5A0A8A00201F200E200D8002F
:10010000EC00E000D000E600FC00F400DE00D600C9
:100110000401F000E00006010E01C600DC00C8008A
:10012000E800CA000C01DA000001FA00D200E40085
:100130000A01FE00CC00EA00DA000801F800EE0037
:10014000084AD73B3BCE016E84BCBFFDC12F3D6C3E
:1001500074319ABD56833DDA3D00C77F11BED9E4A4
:10016000BB4C3E916BAAAABE000000803F05A84C84
:10017000CDB2D44EB93836A9020C50B99186880850
:100180003CA6AAAA2ABE000000803F000D940314DA
:100190000D943D170D944C170D949D170D946D05FE
:1001A0000D94D5130D9470170D949B290D94ED1398
:1001B0000D94C4130D94CF170D9438170D94E713B5
:1001C0000D9408140D94C0130D947A170D94D9133F
:1001D0000D9442170D94A7170D94CA130D94C517CB
:1001E0000D94F5130D94D1130D94E3130D94042184
:1001F0000D94BB170D9468170D94DF130D948E1793
:100200000D9460170D94CE130D94F1130D94FB1300
:100210000D94B1170D9484170D9456170D94FF1378
:100220004E414E494E495459494E46CDCCCC3D0ADB
:10023000D7233C17B7D13877CC2B329595E6241FBE
:10024000B14F0A000020410000C84200401C462077
:10025000BCBE4CCA1B0E5AAEC59D74434F4D4D5586
:100260004E49434154494F4E0044525952554E0055
:100270004552524F525300494E464F004543484F56
:100280000047322F47332062616420706172616DD4
:1002900065746572730A00536C6565702E2E2E00AE
:1002A000486F6D652058592066697273740A00485A
:1002B0006F6D6520585920666972737400205A3A30
:1002C000200020593A200042656420583A20004D11
:1002D00065736820706F696E742063616E6E6F74F1
:1002E000206265207265736F6C7665640A00436CEA
:1002F00069636B20746F20726573756D652E2E2E89
:10030000004E6F206D6F76652E00456E6420666925
:100310006C65206C6973740A00426567696E2066BB
:10032000696C65206C6973740A004D3132350028A0
:100330006E6F2066696C6529005344207072696E87
:1003400074696E67206279746520004E6F74205363
:1003500044207072696E74696E670A004375727228
:10036000656E742066696C653A20005072696E741F
:100370002074696D653A20007C0277027002690280
:100380005B026F66660044454255473A004B494C54
:100390004C45442E20004D3131332053006F6B000B
:1003A0004E4C2042473132204F66662E002C2000F2
:1003B0002C2000544845524D414C5F50524F5445FB
:1003C0004354494F4E004155544F5245504F52549B
:1003D0005F53445F53544154555300454D45524774
:1003E000454E43595F504152534552004341534596
:1003F0005F4C494748545F4252494748544E455321
:100400005300544F47474C455F4C494748545300AD
:10041000534F4654574152455F504F574552004243
:1004200055494C445F50455243454E54004C455647
:10043000454C494E475F44415441005A5F50524F2A
:100440004245004155544F4C4556454C0050524989
:100450004E545F4A4F420050524F4752455353004B
:100460004155544F5245504F52545F54454D5000E2
:10047000564F4C554D455452494300454550524FF7
:100480004D0053455249414C5F584F4E5F584F46BF
:1004900046004649524D574152455F4E414D453AFF
:1004A0004D61726C696E20312E312E3920284769DA
:1004B000746875622920534F555243455F434F443A
:1004C000455F55524C3A68747470733A2F2F6769C0
:1004D000746875622E636F6D2F6E6F76612D6C611F
:1004E00062732F4E6F76612D49332050524F544F17
:1004F000434F4C5F56455253494F4E3A312E3020B0
:100500004D414348494E455F545950453A4E4C2061
:10051000424731322045585452554445525F434F6B
:10052000554E543A3120555549443A636564653215
:100530006132662D343161322D343734382D3962D1
:1005400031322D6335356336326633363766660AA7
:10055000002F2F20004D31343520533C696E6465E7
:10056000783E206F7574206F662072616E6765201B
:1005700028302D31290A00205400205200416363A5
:10058000656C65726174696F6E3A20500020466C2C
:100590006F773A2000000125311D40FFFFFF29241D
:1005A000301C45FFFFFF27232F1B0AFFFFFFFF43E0
:1005B000FFFF040806FFFF222B1AFFFF4204380347
:1005C000063650726F6265205A204F6666736574F6
:1005D0003A200043290A0061626C656420286D6935
:1005E0006E2074656D702000436F6C6420657874B4
:1005F00072756465732061726520004E6F206361BF
:100600007365206C696768740A00454550524F4D08
:10061000204F4B0A003F5A206F7574206F6620727E
:10062000616E676520282D323020746F20323029AA
:100630000A003A200050726F6265205A204F6666A9
:1006400073657400416374697665204578747275CA
:100650006465723A2000496E76616C696420657841
:100660007472756465720A000000211042206330C4
:100670008440A550C660E770088129914AA16BB1FA
:100680008CC1ADD1CEE1EFF13112100273325222A2
:10069000B5529442F772D662399318837BB35AA34A
:1006A000BDD39CC3FFF3DEE3622443342004011472
:1006B000E664C774A44485546AA54BB5288509959A
:1006C000EEE5CFF5ACC58DD5533672261116300642
:1006D000D776F6669556B4465BB77AA719973887EA
:1006E000DFF7FEE79DD7BCC7C448E5588668A77802
:1006F0004008611802282338CCC9EDD98EE9AFF93A
:10070000488969990AA92BB9F55AD44AB77A966AE1
:10071000711A500A333A122AFDDBDCCBBFFB9EEB89
:10072000799B588B3BBB1AABA66C877CE44CC55CB1
:10073000222C033C600C411CAEED8FFDECCDCDDDD9
:100740002AAD0BBD688D499D977EB66ED55EF44E81
:10075000133E322E511E700E9FFFBEEFDDDFFCCF29
:100760001BBF3AAF599F788F8891A981CAB1EBA17D
:100770000CD12DC14EF16FE18010A100C230E320F9
:100780000450254046706760B9839893FBA3DAB3A1
:100790003DC31CD37FE35EF3B1029012F322D23249
:1007A0003542145277625672EAB5CBA5A895898571
:1007B0006EF54FE52CD50DC5E234C324A014810499
:1007C0006674476424540544DBA7FAB79987B89741
:1007D0005FE77EF71DC73CD7D326F2369106B016E9
:1007E00057667676154634564CD96DC90EF92FE901
:1007F000C899E9898AB9ABA9445865480678276839
:10080000C018E1088238A3287DCB5CDB3FEB1EFBE0
:10081000F98BD89BBBAB9ABB754A545A376A167A88
:10082000F10AD01AB32A923A2EFD0FED6CDD4DCDB0
:10083000AABD8BADE89DC98D267C076C645C454CD8
:10084000A23C832CE01CC10C1FEF3EFF5DCF7CDF80
:100850009BAFBABFD98FF89F176E367E554E745E28
:10086000932EB23ED10EF01E7C3C3E5E2B3D3F2FC0
:100870005B5D3B2C2A225C00207573652061207330
:10088000686F7274657220657874727573696F6EC3
:100890002076616C7565202D206D6178206973204C
:1008A0003630306D6D0A002068656174206E6F7A95
:1008B0007A6C6520616E6420747279206167616969
:1008C0006E0A00627573793A2070617573656420F1
:1008D000666F7220696E7075740A00627573793A7A
:1008E0002070617573656420666F72207573657220
:1008F0000A00627573793A2070726F636573736969
:100900006E670A004B494C4C45442E20004B494C25
:100910004C20636175736564206279204B494C4CAF
:1009200020627574746F6E2F70696E0A004B494CAB
:100930004C45442E20004B494C4C20636175736537
:100940006420627920746F6F206D75636820696E12
:100950006163746976652074696D65202D20637507
:100960007272656E7420636F6D6D616E643A200003
:100970004D36303000506C6561736520726573656B
:1009800074005052494E5445522048414C544544FD
:10099000005072696E7465722068616C7465642EB3
:1009A000206B696C6C28292063616C6C6564210A7A
:1009B00000206472697665722063757272656E7468
:1009C0003A200020737465616C746843686F70200E
:1009D0006D61782073706565643A2000656E71758D
:1009E000657565696E672022000000000000004008
:1009F000C1000000000000204200002042000080F2
:100A000040000000005761726E696E673A20486FBF
:100A10006D696E672042756D702044697669736FE9
:100A200072203C20310A0002020400000040000055
:100A300000400000803F0000964300809D4300007E
:100A4000BE43FFFFFF24F4D43050C38E20C2A24027
:100A500017828B7011127A910D816CD90AA861E10D
:100A600008C7586607615143061E4B5D05C145A77F
:100A7000041A411104093D9803713931034036DBF2
:100A80000265339102D4305402802E1D02632CEE95
:100A900001752AC501B028A001102781018F2564A6
:100AA000012B244B01E0223401AC211F018D200DCC
:100AB00001801FFC00841EED00971DDF00B81CD2D2
:100AC00000E61BC600201BBC00641AB200B219A8C5
:100AD000000A19A0006A189900D117910040178BDD
:100AE00000B516840031167E00B31579003A1573EF
:100AF00000C7146F0058146A00EE13660088136371
:100B00000025135E00C7125B006C125700151254CB
:100B100000C111510070114F0021114B00D6104936
:100B2000008D1047004610440002104200C00F40E4
:100B300000800F3E00420F3C00060F3B00CB0E38FA
:100B400000930E37005C0E3500270E3400F30D3293
:100B500000C10D3100900D3000600D2E00320D2DC2
:100B600000050D2C00D90C2B00AE0C2900850C299A
:100B7000005C0C2700350C27000E0C2600E80B2427
:100B800000C40B2400A00B23007D0B23005A0B2173
:100B900000390B2100180B2000F80A1F00D90A1E8B
:100BA00000BB0A1E009D0A1D00800A1D00630A1C6E
:100BB00000470A1B002C0A1B00110A1A00F7091A29
:100BC00000DD091900C4091900AB091900920917C1
:100BD000007B091800630917004C09160036091636
:100BE00000200916000A091500F5081500E0081490
:100BF00000CC081400B8081400A4081400900813CE
:100C0000007D0812006B08130058081200460812F5
:100C10000034081100230811001208110001081106
:100C200000F0071000E0071000D0071000C0071008
:100C300000B0070F00A107100091070E0083070FF7
:100C40000074070F0065070E0057070E0049070ED6
:100C5000003B070D002E070E0020070D0013070DA7
:100C60000006070D00F9060C00ED060D00E0060C6D
:100C700000D4060C00C8060C00BC060C00B0060C24
:100C800000A4060B0099060C008D060B0082060BD3
:100C90000077060B006C060B0061060A0057060B76
:100CA000004C060A0042060A0038060A002E060A10
:100CB0000024060A001A060A001006090007060AA0
:100CC00000FD050900F4050900EB050900E205092E
:100CD00000D9050900D0050900C7050900BE0509AE
:100CE00000B5050800AD050800A50509009C05082C
:100CF00000940508008C050800840508007C0508A0
:100D000000740508006C050700650508005D05070F
:100D100000560508004E0507004705070040050876
:100D20000038050700310507002A050700230507DD
:100D3000001C050600160507000F0507000805063C
:100D40000002050700FB040600F5040700EE040698
:100D500000E8040600E2040700DB040600D50406F0
:100D600000CF040600C9040600C3040600BD040643
:100D700000B7040600B1040500AC040600A6040692
:100D800000A00405009B04060095040500900406DD
:100D9000008A04050085040500800406007A040525
:100DA0000075040500700405006B04050066040569
:100DB00000610405005C04050057040500520405A9
:100DC000004D04050048040500430405003E0404EA
:100DD000003A04050035040500300404002C040525
:100DE0000027040400230405001E0404001A040460
:100DF0000016040500110404000D04040009040594
:100E0000000404040000040400FC030400F80304CC
:100E100000F4030400F0030400EC030400E80304FE
:100E200000E4030400E0030400DC030400D803042E
:100E300000D4030400D0030400CC030400C803035F
:100E400000C503030024F404D9201BC40C5C0E98D5
:100E500004C4095F0265077101F405F900FB04B3DE
:100E60000048048700C10369005803550003034587
:100E700000BE023A008402310053022A00290225F2
:100E80000004022000E4011C00C8011900AF011792
:100E90000098011400840113007101100061011019
:100EA0000051010E0043010D0036010B002B010B18
:100EB0000020010B00150109000C010900030108C5
:100EC00000FB000800F3000800EB000700E4000648
:100ED00000DE000600D8000600D2000600CC0005A7
:100EE00000C7000500C2000500BD000400B90004F1
:100EF00000B5000400B1000400AD000400A9000426
:100F000000A5000300A20003009F0004009B000353
:100F10000098000300950002009300030090000376
:100F2000008D0002008B0003008800020086000292
:100F30000084000300810002007F0002007D0002A7
:100F4000007B0002007900020077000100760002B9
:100F5000007400020072000100710002006F0002C4
:100F6000006D0001006C0002006A000100690002CF
:100F700000670001006600010065000100640002D6
:100F8000006200010061000100600001005F0002DA
:100F9000005D0001005C0001005B0001005A0001DF
:100FA00000590001005800010057000100560001DF
:100FB00000550001005400010053000000530001DF
:100FC000005200010051000100500001004F0001DB
:100FD000004E0000004E0001004D0001004C0001D9
:100FE000004B0000004B0001004A000100490001D5
:100FF00000480000004800010047000100460000D2
:1010000000460001004500000045000100440001C9
:1010100000430000004300010042000000420001C4
:10102000004100000041000100400001003F0000BD
:10103000003F0001003E0000003E0001003D0000B6
:10104000003D0001003C0000003C0000003C0001AD
:10105000003B0000003B0001003A0000003A0001A4
:10106000003900000039000100380000003800009D
:101070000038000100370000003700010036000092
:101080000036000000360001003500000035000089
:10109000003500010034000000340000003400017D
:1010A0000033000000330000003300010032000074
:1010B0000032000000320001003100000031000069
:1010C000003100010030000000300000003000015D
:1010D000002F0000002F0000002F0000002F000153
:1010E000002E0000002E0000002E0001002D000048
:1010F000002D0000002D0000002D0001002C00003C
:10110000002C0000002C0000002C0001002B00002F
:10111000002B0000002B0000002B0001002A000023
:10112000002A0000002A0000002A00010029000017
:10113000002900000029000000290000002900010A
:1011400000280000002800000028000000280000FF
:1011500000280001002700000027000000270000F1
:1011600000270000002700010026000000260000E4
:1011700000260000002600000026000100250000D7
:1011800000250000002500000025000000250000CB
:1011900000250001002400000024000000240000BD
:1011A00000240000002400010023000000230000B0
:1011B00000230000002300000023000000230000A3
:1011C0000023000100220000002200000022000095
:1011D0000022000000220000002200010021000087
:1011E000002100000021000000210000002100007B
:1011F000002100000021000100200000002000006C
:10120000002000000020000000200000002000005E
:101210000020000000200001001F0000001F00004F
:10122000001F0000001F0000001F0000001F000042
:10123000001F0001001E0000001E0000001E000034
:10124000001E00000039300000332500008719001F
:1012500000B00F0000DB080000BD040000740200B5
:10126000003F01000000000000000070C10000000D
:101270000000009643000096430000BE4342696CA4
:10128000696E656172204C6576656C696E67204792
:101290007269643A0A00486F6D696E672066616919
:1012A0006C656400202844525952554E290047323B
:1012B00039204175746F20426564204C6576656CF9
:1012C000696E67003F20284C2C522C462C42292066
:1012D0006F7574206F6620626F756E64732E0A00DE
:1012E0003F2856296572626F7365206C6576656C60
:1012F00020697320696D706C61757369626C65201B
:1013000028302D34292E0A00426164205A2076614B
:101310006C75650A004E6F2062696C696E6561725A
:1013200020677269640A0020757365206120736804
:101330006F7274657220657874727573696F6E2050
:1013400076616C7565202D206D617820697320367B
:1013500030306D6D0A002068656174206E6F7A7A96
:101360006C6520616E642074727920616761696EBA
:101370000A002D2D2D005344002020202020200085
:1013800020202020004E4C204247313220526561FF
:1013900064792E005072696E74696E672E2E2E006D
:1013A0005072696E7420706175736564004D3132DE
:1013B00035004D3234005072696E742061626F7274
:1013C000746564004E6F2053442063617264005062
:1013D00072696E742066726F6D2053440053746F8F
:1013E00070207072696E7400526573756D6520703F
:1013F00072696E740041626F7574205072696E7408
:101400006572005061757365207072696E74004377
:101410006F6E74726F6C005072657061726500540B
:10142000756E6500496E666F2073637265656E0048
:1014300050726F6265205A204F6666736574004370
:1014400068616E67652066696C616D656E740050D9
:10145000726F6265205A204F666673657400466C31
:101460006F7700466C6F7700466C6F770046616E51
:101470002073706565640046616E207370656564F5
:101480000046616E207370656564004265640042C9
:10149000656400426564004E6F7A7A6C65004E6F39
:1014A0007A7A6C65004E6F7A7A6C65004661646585
:1014B000204865696768740046616465204865690D
:1014C00067687400466164652048656967687400F0
:1014D000537065656400537065656400537065659D
:1014E00064004D61696E00205A3A0020593A00208C
:1014F000436F756E7420583A0020453A00205A3ADE
:101500000020593A00583A003A004361703A0057B7
:1015100041524E494E4721204C6F77205A204A6550
:10152000726B206D6179206C65616420746F207529
:101530006E77616E746564207061757365732E0AD1
:1015400000205A00205900580020204D61783A2090
:1015500000205A00205900580020204D696E3A2082
:10156000004F6E20004F666600536F667420656EF4
:101570006473746F70733A200020643A0020693AF3
:101580000020703A00496E76616C69642065787459
:1015900072756465720A0023646566696E6520442D
:1015A000454641554C545F4B642000236465666991
:1015B0006E652044454641554C545F4B69200023DD
:1015C000646566696E652044454641554C545F4BE1
:1015D000702000504944204175746F74756E652009
:1015E00066696E697368656421205075742074683B
:1015F00065206C617374204B702C204B6920616EE8
:1016000064204B6420636F6E7374616E7473206624
:10161000726F6D2062656C6F7720696E746F204306
:101620006F6E66696775726174696F6E2E680A0005
:10163000504944204175746F74756E652066616908
:101640006C6564212074696D656F75740A0045319D
:1016500020544845524D414C2052554E4157415916
:1016600000546865726D616C2052756E61776179A6
:101670000045312048656174696E67206661696C58
:1016800065640048656174696E67206661696C65B0
:101690006400504944204175746F74756E6520660E
:1016A00061696C6564212054656D70657261747543
:1016B000726520746F6F20686967680A00204B6448
:1016C0003A2000204B693A2000204B703A20000A53
:1016D00020436C617373696320504944200A0020E1
:1016E00054753A2000204B753A2000206D61783AFD
:1016F0002000206D696E3A200020643A20002062AC
:101700006961733A2000504944204175746F7475C3
:101710006E65206661696C656421204261642065A4
:1017200078747275646572206E756D6265720A00F8
:10173000504944204175746F74756E6520737461EF
:1017400072740A004F66660A004661646520486547
:10175000696768742000426564204C6576656C6931
:101760006E6720004661696C656420746F20656E49
:1017700061626C6520426564204C6576656C696EBB
:10178000670A00486F74656E6420746F6F20636F22
:101790006C640A004D3630303A20546F6F20636F0E
:1017A0006C6400486F74656E6420746F6F20636FA3
:1017B0006C640A0046696C652064656C65746564D8
:1017C0003A0044656C6574696F6E206661696C658A
:1017D000642C2046696C653A200050726F74656312
:1017E0007465642050696E0A005374616E6461729E
:1017F0006420446576696174696F6E3A20002052F6
:10180000616E67653A2000204D61783A2000204DD6
:10181000696E3A20004D65616E3A200046696E6936
:1018200073686564210A002072616E67653A200062
:10183000206D61783A2000206D696E3A2000207397
:1018400069676D613A2000206D65616E3A20003A4B
:10185000207A3A2000206F662000205A002059008C
:10186000205800476F696E6720746F3A00436C6FB1
:10187000636B776973650A00436F756E7465722DCB
:101880000020446972656374696F6E3A20002020FD
:1018900020616E676C653A20005374617274696EE2
:1018A00067207261646975733A2000506F736974C0
:1018B000696F6E696E67207468652070726F62650B
:1018C0002E2E2E0A003F4E756D626572206F6620C7
:1018D0006C65677320696E206D6F76656D656E74DB
:1018E000206E6F7420706C61757369626C6520285E
:1018F000302D3135292E0A003F2028582C59292017
:101900006F7574206F6620626F756E64732E0A00A7
:101910003F53616D706C652073697A65206E6F74DA
:1019200020706C61757369626C652028342D3530C8
:10193000292E0A004D3438205A2D50726F626520CE
:101940005265706561746162696C6974792054656F
:1019500073740A003F2856296572626F7365206CA4
:101960006576656C20697320696D706C617573694B
:10197000626C652028302D34292E0A0070012C015C
:1019800090012701B0012201C0011D01F0011801E1
:101990001002130130020E016002090190020401DD
:1019A000C002FF000003FA004003F5008003F000CE
:1019B000D003EB002004E6007004E100E004DC004A
:1019C0004005D700C005D2004006CD00D006C800B3
:1019D0008007C3003008BE00F008B900C009B40099
:1019E000B00AAF00B00BAA00D00CA500000EA000FA
:1019F000500F9B00C01096005012910000148C00F4
:101A0000C0158700B0178200B0197D00D01B780088
:101A1000001E730040206E0090226900F0246400D4
:101A200040275F0090295A00E02B5500102E5000EF
:101A300020304B0010324600E033410090353C002E
:101A40001037370070383200A0392D00B03A280026
:101A5000A03B2300603C1E00103D1900903D140087
:101A6000103E0F00703E0A00C03E0500003F00001F
:101A7000403FFBFF803FF6FFC03FF1FF453400458C
:101A800033004532004531004530005A32005932AA
:101A9000005832005A0059005800202F00204240C0
:101AA0003A0020403A0025753A253032750025303D
:101AB00032753A253032750025756420253032752F
:101AC0003A2530327500981A961A941A911A8E1A7D
:101AD0008B1A881A851A821A7F1A7C1A7472756595
:101AE0000066616C7365002074656D706572617469
:101AF000757265207072657761726E2074726967A5
:101B000067657265643A2000207072657761726E55
:101B100020666C616720636C65617265640A0020F1
:101B2000686F6D696E672073656E73697469766935
:101B300074793A20002063757272656E7420646552
:101B40006372656173656420746F20006D41290ABA
:101B50000020647269766572206F76657274656DB7
:101B60007065726174757265207761726E696E67F7
:101B7000212028003A20004472697665722065723F
:101B8000726F720073686F727420746F2067726F67
:101B9000756E642028636F696C2042290A0073689F
:101BA0006F727420746F2067726F756E6420286383
:101BB0006F696C2041290A006F76657274656D70DB
:101BC000657261747572650A002064726976657267
:101BD000206572726F722064657465637465643A1F
:101BE0000A0000000000010204040000001C1C0C9C
:101BF00004040402010000000000040810000000BA
:101C000000002D2D2D2D2D2D007C4D61726C696EE7
:101C10007C002D2D2D2D2D2D006E6F76612D6C618C
:101C200062732E6F7267006E6F76612D6C616273E6
:101C30002E6F72670020312E312E39002020506C1B
:101C4000616E6E657242756666657242797465731F
:101C50003A20002046726565204D656D6F72793AB5
:101C60002000436F6D70696C65643A204A756C2082
:101C7000313720323031390A00207C2041757468B8
:101C80006F723A205061756C20436861736520263D
:101C9000204A6F686E204C696E6B0A003230313812
:101CA0002D30382D303100204C6173742055706414
:101CB000617465643A2000312E312E390A004D617D
:101CC000726C696E0020536F667477617265205282
:101CD000657365740A00205761746368646F6720D8
:101CE00052657365740A002042726F776E206F75BB
:101CF000742052657365740A002045787465726EAD
:101D0000616C2052657365740A00506F7765725577
:101D1000700A0073746172740A006175746F2569CA
:101D20002E67006572726F722077726974696E67D0
:101D300020746F2066696C650A00456E6473746F69
:101D400070732025632025632025632025630020F0
:101D50005A3A0020593A0020583A00656E6473746C
:101D60006F7073206869743A2000446F6E65207349
:101D70006176696E672066696C652E0A004D32399E
:101D800000556E6B6E6F776E20636F6D6D616E6464
:101D90003A202200496E736572742066696C616D29
:101DA000656E7420616E6420707265737320627555
:101DB00074746F6E20286F72204D313038290A00FC
:101DC00050726F62696E67206661696C65640A00B3
:101DD00050726F62696E67206661696C656400208D
:101DE0005A3A200020593A200042656420583A208F
:101DF00000000020002300260029002C002F0032C4
:101E00000000010000030106010901000022002575
:101E10000028002B002E00310034000201000005D4
:101E20000108010B0105050505070508080808025A
:101E30000202020A0A080804040404010101010163
:101E40000101010303030303030303040707070C52
:101E50000C0C0C0C0C0C0C02020202060606060608
:101E60000606060B0B0B0B0B0B0B0B0102102020B5
:101E700008081020401020408002010201080402DE
:101E80000101020408102040808040201008040254
:101E900001800402018040201008040201080402AD
:101EA00001010204081020408001020408102040B3
:101EB0008020204E6F7A7A6C653A200066696C61EA
:101EC0006D656E7420707572676500576169742066
:101ED000666F7200746F20726573756D650057616F
:101EE000697420666F72207072696E74004361724B
:101EF000642072656D6F7665640044617461204989
:101F00006E6A6563746564004578747275646572A1
:101F1000004D6F7665205A004D6F76652059004D53
:101F20006F76652058005072657061726500496E69
:101F3000697469616C697A6520454550524F4D005E
:101F4000436F6E74726F6C00526573746F726520AC
:101F50006661696C73616665004C6F6164207365CE
:101F60007474696E677300496E697469616C697A2B
:101F70006520454550524F4D0053746F7265207374
:101F8000657474696E67730046696C616D656E7423
:101F9000004D6F74696F6E0054656D706572617489
:101FA000757265004D61696E005072656865617497
:101FB000205045544720636F6E6600507265686517
:101FC000617420504C4120636F6E66005049442D6F
:101FD00044005049442D44005049442D4900504983
:101FE000442D49005049442D50005049442D500083
:101FF0002002204661637400200220466163740061
:102000002002204D6178002002204D6178002002DE
:10201000204D6178002002204D696E002002204D85
:10202000696E002002204D696E004F6666004F6E9B
:1020300020004175746F74656D700046616E207389
:10204000706565640046616E207370656564004666
:10205000616E20737065656400426564004265646A
:1020600000426564004E6F7A7A6C65004E6F7A7A32
:102070006C65004E6F7A7A6C6500436F6E74726F98
:102080006C0053746F72652073657474696E677346
:10209000004265640042656400426564004E6F7AE8
:1020A0007A6C65004E6F7A7A6C65004E6F7A7A6C46
:1020B000650046616E2073706565640046616E2040
:1020C00073706565640046616E20737065656400B9
:1020D00054656D70657261747572650043616E6EF2
:1020E0006F74206F70656E20737562646972200072
:1020F0006563686F3A00453120544845524D414C64
:102100002052554E415741590042454420544845BC
:10211000524D414C2052554E41574159005468652B
:10212000726D616C2052756E6177617900001C1FC1
:1021300011111F00000006191803130C00040E1FD4
:10214000041C000000000E1315110E00001C1018D6
:102150001705060500040A0A0A0A11110E0C1212CC
:102160000C00000000001F1511151F0000507265C3
:102170006865617420504C4120456E640050726562
:102180006865617420504C4120426564005072655E
:102190006865617420504C410050726570617265D1
:1021A0000050726568656174205045544720456E43
:1021B0006400507265686561742050455447204240
:1021C000656400507265686561742050455447002D
:1021D00050726570617265004D343238005072651E
:1021E0006865617420504C4100436F6F6C646F7779
:1021F0006E00507265686561742050455447004315
:1022000068616E67652066696C616D656E74004417
:10221000697361626C6520737465707065727300B8
:102220004D38340053657420686F6D65206F6666A5
:1022300073657473004661646520486569676874F6
:10224000004661646520486569676874004661649A
:102250006520486569676874004F6666004F6E20A8
:1022600000426564204C6576656C696E67004C655C
:1022700076656C20626564004732380A473239005F
:1022800043616C696272617465205A004732380A92
:102290004D393135004175746F20686F6D650047A9
:1022A0003238004D6F76652061786973004D616941
:1022B0006E004D6F76652058004D6F766520590091
:1022C0004D6F7665205A00457874727564657200AA
:1022D0004D6F766520302E316D6D004D6F76652027
:1022E000316D6D004D6F76652031306D6D004D6F35
:1022F00076652061786973004578747275646572DB
:10230000004D6F7665205A004D6F76652059004D5F
:102310006F76652058004D61782054656D703A20C5
:10232000313030004D696E2054656D703A203500B3
:10233000544265643A4550434F53203130304B008E
:102340004D61782054656D703A20323835004D6902
:102350006E2054656D703A20350054303A20455057
:10236000434F53203130304B005053553A2047658E
:102370006E657269630050726F746F636F6C3A20A0
:10238000312E3000426175643A20313135323030BF
:102390000045696E73792052616D626F0042696C0D
:1023A000696E656172204C6576656C696E67004583
:1023B00078747275646572733A2031006E6F76615D
:1023C0002D6C6162732E6F7267004E4C2042473154
:1023D0003200323031382D30382D303100312E314D
:1023E0002E39004D61726C696E005072696E7465B1
:1023F0007220537461747300546865726D697374EC
:102400006F727300426F61726420496E666F005094
:1024100072696E74657220496E666F004D61696EF7
:10242000004D37303220542564004D363030204284
:102430003020542564004D373032203B2564004D58
:102440003730312054256400556E6C6F616420660E
:10245000696C616D656E7400556E6C6F61642066A9
:10246000696C616D656E74004D373032004D3730E8
:1024700031004C6F61642066696C616D656E74003B
:102480004D363030204230004368616E676520660B
:10249000696C616D656E7400507265706172650083
:1024A0005052494E542050415553454400554E4CCE
:1024B0004F41442046494C414D454E54004C4F41FC
:1024C000442046494C414D454E5400507572676555
:1024D000206D6F726500436F6E74696E7565005292
:1024E0004553554D45204F5054494F4E533A0020C7
:1024F000204E6F7A7A6C653A20006368616E67657A
:10250000006F66207468652066696C616D656E7425
:10251000005761697420666F722073746172740071
:1025200020204E6F7A7A6C653A200066696C616D86
:10253000656E7420756E6C6F6164005761697420FC
:10254000666F720020204E6F7A7A6C653A200050D8
:102550006C6561736520776169742E2E2E00486565
:102560006174696E67206E6F7A7A6C650020204E08
:102570006F7A7A6C653A200068656174206E6F7AB4
:102580007A6C652E00507265737320627574746F77
:102590006E20746F0020204E6F7A7A6C653A2000AE
:1025A000746F20636F6E74696E75652E2E2E0061D8
:1025B0006E6420707265737320627574746F6E0040
:1025C000496E736572742066696C616D656E740026
:1025D00020204E6F7A7A6C653A200066696C616DD6
:1025E000656E74206C6F6164005761697420666F5A
:1025F000720048617264636F64656420446566615B
:10260000756C742053657474696E6773204C6F61C8
:102610006465640A00DC050000580200000F000039
:1026200000102700000000FA430000C842000070BC
:10263000410000C8410000A0420000A0420000C8C4
:102640004400800D4320204D3930360020204D3984
:102650003133003A0A0020286D6D290020204D39C1
:1026600031340020204D36303320002055004C00FE
:1026700046696C616D656E74206C6F61642F756E58
:102680006C6F6164206C656E677468733A0A002031
:10269000590020580053656E736F726C6573732018
:1026A000686F6D696E67207468726573686F6C64BB
:1026B0003A0A00205430204500205A0020590020BA
:1026C0005800487962726964205468726573686F53
:1026D0006C643A0A00205430204500205A002059EA
:1026E00000205800537465707065722064726976BA
:1026F00065722063757272656E743A0A0020204D0F
:10270000383531205A005A2D50726F6265204F665D
:10271000667365740020440020490020204D33304A
:10272000312050005049442073657474696E67739A
:102730003A0A0020460020420020480020204D3167
:1027400034352053004D6174657269616C20686591
:102750006174757020706172616D65746572733A31
:102760000A00205A00204A002020473239205720F2
:102770004900205A0020204D34323020530041754A
:10278000746F20426564204C6576656C696E673AAB
:102790000A00205A0020590020204D32303620589F
:1027A00000486F6D65206F66667365743A0A002095
:1027B0004500205A00205900205800205400205382
:1027C0000020204D32303520510020453C6D61788D
:1027D0005F655F6A65726B3E0020583C6D61785F93
:1027E000785F6A65726B3E20593C6D61785F795FF6
:1027F0006A65726B3E205A3C6D61785F7A5F6A65EC
:10280000726B3E00416476616E6365643A20513CB0
:102810006D696E5F7365676D656E745F74696D6514
:102820005F75733E20533C6D696E5F6665656472CB
:102830006174653E20543C6D696E5F7472617665AB
:102840006C5F66656564726174653E0020540020AB
:10285000520020204D323034205000416363656CBB
:1028600065726174696F6E2028756E6974732F7359
:1028700032293A20503C7072696E745F61636365FF
:102880006C3E20523C726574726163745F61636375
:10289000656C3E20543C74726176656C5F61636365
:1028A000656C3E0A00204500205A00205900202077
:1028B0004D3230312058004D6178696D756D204181
:1028C0006363656C65726174696F6E2028756E69EB
:1028D00074732F7332293A0A00204500205A0020D1
:1028E000590020204D3230332058004D6178696DF9
:1028F000756D206665656472617465732028756EF8
:102900006974732F73293A0A00204500205A002069
:10291000590020204D3932205800537465707320BF
:1029200070657220756E69743A0A0020204D32304D
:10293000302044300A0020204D3230302044002026
:1029400044697361626C65640A0046696C616D6517
:102950006E742073657474696E67733A0020204D3D
:102960003134392043203B20556E69747320696EE1
:102970002043656C736975730A002020473231204B
:102980002020203B004573746570732F6D6D0045EA
:1029900073746570732F6D6D005A73746570732F47
:1029A0006D6D005A73746570732F6D6D005973747B
:1029B0006570732F6D6D005973746570732F6D6D35
:1029C000005873746570732F6D6D00587374657063
:1029D000732F6D6D004D6F74696F6E005374657069
:1029E000732F6D6D004A65726B00416363656C65A2
:1029F000726174696F6E0056656C6F6369747900FB
:102A000050726F6265205A204F666673657400438A
:102A10006F6E74726F6C004C6F6164206D6D004C52
:102A20006F6164206D6D004C6F6164206D6D0055A9
:102A30006E6C6F6164206D6D00556E6C6F6164200B
:102A40006D6D00556E6C6F6164206D6D0046696C34
:102A50002E204469612E0046696C2E204469612E47
:102A6000004F6666004F6E20004520696E206D6D38
:102A70003300436F6E74726F6C0043616E6E6F74DF
:102A800020656E746572207375626469723A200005
:102A9000052E2E004D61696E0000457874727564D4
:102AA000656420746F74616C3A2000256C642E2577
:102AB000696D00004C6F6E67657374206A6F6220E9
:102AC00074696D653A200000546F74616C207072F7
:102AD000696E742074696D653A2000436F6D706C87
:102AE000657465643A20005072696E7420436F7596
:102AF0006E743A20004D65736820706F696E7420A3
:102B000063616E6E6F74206265207265736F6C76A0
:102B100065640A004D34323120696E636F727265EC
:102B2000637420706172616D657465722075736184
:102B300067650A004F666673657473206170706C18
:102B4000696564004572723A20546F6F2066617245
:102B50002100546F6F206661722066726F6D207263
:102B600065666572656E636520706F696E740A00D4
:102B7000496E736572742066696C616D656E742050
:102B8000616E6420707265737320627574746F6E09
:102B90000A00507265737320627574746F6E2074CE
:102BA0006F2068656174206E6F7A7A6C650A0049DF
:102BB0006E736572742066696C616D656E742061F8
:102BC0006E6420707265737320627574746F6E200A
:102BD000286F72204D313038290A00473238205A88
:102BE000000A486F6D696E67205A2064756520740D
:102BF0006F206C6F73742073746570730A000A43DE
:102C0000616C6962726174696F6E2063757272655E
:102C10006E743A205A000A506C6561736520686FC3
:102C20006D65205A20617869732066697273740A31
:102C3000002569730025696D202569730025696881
:102C40002025696D20256973002569642025696840
:102C50002025696D2025697300256979202569641F
:102C6000202569682025696D20256973004B494C32
:102C70004C45442E200053544F505045442E2000C4
:102C80005072696E7465722073746F707065642021
:102C900064756520746F206572726F72732E2046A2
:102CA000697820746865206572726F7220616E6445
:102CB00020757365204D39393920746F2072657322
:102CC000746172742E202854656D7065726174751C
:102CD00072652069732072657365742E2053657464
:102CE0002069742061667465722072657374617204
:102CF00074696E67290A004E6F20436865636B73C1
:102D0000756D2077697468206C696E65206E756DCD
:102D10006265722C204C617374204C696E653A2098
:102D2000004E6F20436865636B73756D207769741F
:102D300068206C696E65206E756D6265722C204C22
:102D4000617374204C696E653A2000636865636B3B
:102D500073756D206D69736D617463682C204C61AF
:102D60007374204C696E653A20004C696E65204E84
:102D7000756D626572206973206E6F74204C61738B
:102D800074204C696E65204E756D6265722B312C16
:102D9000204C617374204C696E653A20004D3131CE
:102DA00030004D33310053442072656164206572F8
:102DB000726F720A00446F6E65207072696E74697A
:102DC0006E672066696C650A0020496E76616C69E1
:102DD0006420657874727564657220004572726F44
:102DE000722077726974696E6720746F2045455050
:102DF000524F4D210A00454550524F4D2064617499
:102E00006173697A65206572726F722E0A00290AF1
:102E1000002062797465733B206372632000536500
:102E20007474696E67732053746F72656420280030
:102E3000486F6D652025732573257320666972734D
:102E400074002066697273740A005A0059005800B1
:102E5000486F6D65200053442063617264206F6B7E
:102E60000A006F70656E526F6F74206661696C65E1
:102E7000640A00766F6C756D652E696E69742066E4
:102E800061696C65640A00534420696E6974206648
:102E900061696C0A004265616D696E6720746F201C
:102EA00066696C653A20006F70656E206661696CBA
:102EB00065642C2046696C653A20006F70656E2051
:102EC0006661696C65642C2046696C653A20004631
:102ED000696C652073656C65637465640A002053D2
:102EE000697A653A200046696C65206F70656E6589
:102EF000643A20002066696C653A2000646F696E50
:102F000067006672657368004E6F772000454E4417
:102F100020535542524F5554494E450A00222070C5
:102F20006F73002220706172656E743A22005355EF
:102F300042524F5554494E452043414C4C207461F8
:102F4000726765743A22004B494C4C45442E200070
:102F5000747279696E6720746F2063616C6C207382
:102F600075622D67636F64652066696C6573207791
:102F700069746820746F6F206D616E79206C65765E
:102F8000656C732E204D4158206C6576656C206908
:102F9000733A004572726F723A006F70656E206608
:102FA00061696C65642C2046696C653A200006FFF7
:102FB000FFFFFFFF0001010101016265640A002CAF
:102FC0002073797374656D2073746F7070656421FC
:102FD000204865617465725F49443A200042656427
:102FE0002068656174696E67206661696C6564005C
:102FF00048656174696E67206661696C6564004547
:10300000312048656174696E67206661696C65642A
:103010000048656174696E67206661696C6564006B
:103020004531204572723A204D415854454D50006B
:103030004572723A204D415854454D502042454406
:10304000004D415854454D50207472696767657250
:103050006564004531204572723A204D494E544511
:103060004D50004572723A204D494E54454D502006
:10307000424544004D494E54454D50207472696795
:103080006765726564004D383420582059205A20F5
:1030900045005654726176206D696E005654726117
:1030A00076206D696E005654726176206D696E00EF
:1030B000566D696E00566D696E00566D696E0056EC
:1030C0006D6178204500566D6178204500566D6130
:1030D00078204500566D6178205A00566D61782041
:1030E0005A00566D6178205A00566D61782059005B
:1030F000566D6178205900566D6178205900566DE3
:103100006178205800566D6178205800566D6178BE
:103110002058004D6F74696F6E00416D61782045D5
:1031200000416D6178204500416D6178205A004171
:103130006D6178205A00416D6178205900416D61C0
:1031400078205900416D6178205800416D617820E8
:103150005800412D74726176656C00412D74726166
:1031600076656C00412D7265747261637400412D47
:103170007265747261637400416363656C004163DE
:1031800063656C004D6F74696F6E0056652D6A65DE
:10319000726B0056652D6A65726B0056652D6A6507
:1031A000726B00567A2D6A65726B00567A2D6A65CD
:1031B000726B0056792D6A65726B0056792D6A65BF
:1031C000726B0056792D6A65726B0056782D6A65B0
:1031D000726B0056782D6A65726B0056782D6A65A1
:1031E000726B004D6F74696F6E00FFFDFCFAF8F6AC
:1031F000F4F2F0EEECEAE9E7E5E3E1E0DEDCDAD96F
:10320000D7D5D4D2D0CFCDCBCAC8C7C5C3C2C0BF13
:10321000BDBCBAB9B7B6B4B3B2B0AFADACAAA9A889
:10322000A6A5A4A2A1A09E9D9C9A999897959493D7
:1032300092908F8E8D8B8A89888786848382818005
:103240007F7E7D7B7A797877767574737271706F13
:103250006E6D6C6B6A696867666564636261605F06
:103260005E5D5C5B5A5958585756555453525150ED
:10327000504F4E4D4C4B4A4A4948474646454443B9
:10328000424241403F3E3E3D3C3B3B3A3938383775
:10329000363535343332323130302F2E2E2D2C2B23
:1032A0002B2A2929282727262525242323222121C3
:1032B00020201F1E1E1D1C1C1B1B1A191918181755
:1032C0001616151514131312121111100F0F0E0EDE
:1032D0000D0D0C0C0B0A0A0909080807070606055C
:1032E0000504040303020201000054524947474504
:1032F000524544006F70656E003A200066696C614B
:103300006D656E74007A5F6D696E00795F6D696ED0
:1033100000785F6D696E005265706F7274696E67D8
:1033200020656E6473746F70207374617475730AB2
:10333000000000000100000001000080005555550C
:10334000000000400033333300AAAA2A0049922427
:103350000000002000C7711C0099991900D1451781
:1033600000555515003BB1130024491200111111ED
:1033700000000010000F0F0F00E3380E0043790D1E
:1033800000CCCC0C00C3300C00E8A20B0064210B75
:1033900000AAAA0A00703D0A009DD80900427B09D4
:1033A0000092240900DCD308008888080010420835
:1033B0000000000800F0C10700878707007550076C
:1033C00000711C07003EEB0600A1BC0600699006D8
:1033D0000066660600703E06006118060017F405D8
:1033E0000074D105005BB00500B290050062720563
:1033F000005555050078390500B81E05000505057E
:10340000004EEC040087D40400A1BD040090A70482
:103410000049920400C17D0400EE690400C756040F
:1034200000444404005C32040008210400411004FC
:1034300000000004003FF00300F8E0030026D20380
:1034400000C3C30300CCB503003AA803000A9B03E2
:1034500000388E0300C08103009F750300D069030C
:1034600000505E03001D53030034480300913D03E8
:10347000003333030016290300381F030097150398
:1034800000300C0300030303000BFA020049F102B1
:1034900000BAE802005CE002002DD802002DD00244
:1034A0000059C80200B0C0020031B90200DAB1020E
:1034B00000AAAA0200A0A30200BC9C0200FA950286
:1034C000005C8F0200DF88020082820200457C02DD
:1034D000002776020027700200436A02007C640223
:1034E00000D05E02003F590200C8530200290A00C2
:1034F0002062797465733B206372632000207374CB
:103500006F7265642073657474696E677320726589
:1035100074726965766564202800202863616C6395
:10352000756C6174656429210A0020213D200045E5
:103530004550524F4D20435243206D69736D617465
:103540006368202D202873746F7265642920002021
:1035500053697A653A2000496E6465783A20002004
:103560004D61726C696E3D563535290A0028454516
:1035700050524F4D3D00454550524F4D207665729B
:1035800073696F6E206D69736D61746368200000EC
:10359000002100240027002A002D00300033000104
:1035A000010000040107010A0100000A0B02090CD6
:1035B0000D0E0807030401000000000000000000D9
:1035C00000000000000000000000000000000000FB
:1035D00000000000001211100000000000000000B8
:1035E0000000000000000000000000000000004398
:1035F00068616E67652066696C616D656E74005503
:103600006E6C6F61642066696C616D656E74004CF0
:103610006F61642066696C616D656E7400507265DF
:103620006865617420504554470050726568656153
:103630007420504C41004368616E67652066696C78
:10364000616D656E74004D3234004D323320257348
:103650000046696C616D656E7420757365643A200F
:103660000053746174733A20002C204C6F6E6765B0
:103670007374206A6F623A2000546F74616C207416
:10368000696D653A200053746174733A20002C20F0
:103690004661696C65643A20002C2046696E697346
:1036A0006865643A20005072696E74733A20005362
:1036B000746174733A200020573A004520436F6FBD
:1036C0006C696E672E2E2E00452048656174696E08
:1036D000672E2E2E0020573A0042656420636F6FDC
:1036E0006C696E672E2E2E004265642068656174D9
:1036F000696E672E2E2E00526573656E643A200047
:103700006F6B0000D400F60011241FBECFEFD1E292
:10371000DEBFCDBF00E00CBF13E0A0E0B2E0E6E703
:10372000F4E702E00BBF02C007900D92AA33B10785
:10373000D9F726E1AAE3B3E001C01D92AE32B20789
:10374000E1F71BE1C3E8DBE100E006C021970109D6
:10375000802FFE010F949F39C238D10780E00807FF
:10376000A9F70F94E7230D942A3A0C9400002F92A6
:103770003F924F925F926F927F928F929F92AF9201
:10378000BF92CF92DF92EF92FF920F931F93CF934E
:10379000DF93CDB7DEB7CB56D1090FB6F894DEBFB5
:1037A0000FBECDBF91E090932806809179158D349E
:1037B00011F40C94CA24843511F40C942631873406
:1037C00011F00C94723120907715309078152BE120
:1037D0002216310409F47BC6CCF444E024163104EB
:1037E0004CF452E0251631040CF041C037FE38C0CD
:1037F0000C94C62484E02816310409F4E7C59CE043
:103800002916310409F421C60C94C624AAE22A160A
:10381000310409F47BC774F4EDE12E16310409F488
:103820009DC60CF484C62EE12216310409F49AC612
:103830000C94C6243BE52316310411F40C94442463
:103840004CE52416310411F40C9448245AE525164D
:10385000310411F00C94C62410923E030C94743180
:103860008091430281110C9479310C9474318091D0
:103870004302882311F40C9474310E94DC5282E5D7
:103880000E9413D6882309F44CC10E9497D54B019E
:103890005C0120E030E0A9010F943332882309F461
:1038A00070C18091480690914906A0914A06B09156
:1038B0004B0688AF99AFAAAFBBAF20914C063091B1
:1038C0004D0640914E0650914F062CAF3DAF4EAF86
:1038D0005FAF8091FD059091FE05A091FF05B0912D
:1038E00000062C968CAF9DAFAEAFBFAF2C9720914A
:1038F0000106309102064091030650910406289675
:103900002CAF3DAF4EAF5FAF28979C01AD0168ADC6
:1039100079AD8AAD9BAD0F94333281110FC02896DB
:103920002CAD3DAD4EAD5FAD28976CAD7DAD8EAD90
:103930009FAD0F943332882309F423C111E032E0A4
:103940002316310409F010E020E030E0A901C501A0
:10395000B4010F943332881F8827881F181759F035
:1039600080E090E0A0E8BFEB64968CAF9DAFAEAF77
:10397000BFAF64970AC020E030E040E85FE36496A0
:103980002CAF3DAF4EAF5FAF649728AD39AD4AADB8
:103990005BAD2C966CAD7DAD8EAD9FAD2C970F942D
:1039A000AF3660966CAF7DAF8EAF9FAF60972CAD9A
:1039B0003DAD4EAD5FAD28966CAD7DAD8EAD9FAD8E
:1039C00028970F94AF366B017C0160962CAD3DAD0E
:1039D0004EAD5FAD6097CA01B9010F9498322B01CB
:1039E0003C01A7019601C701B6010F9498329B01D3
:1039F000AC01C301B2010F94B0360F941B39249669
:103A00006CAF7DAF8EAF9FAF249720E030E040E0F9
:103A10005FE30F9498322B013C01A5019401C5018D
:103A2000B4010F9498324B015C01A3019201C301D0
:103A3000B2010F9498329B01AC01C501B4010F94FF
:103A4000AF360F941B3964962CAD3DAD4EAD5FADD6
:103A500064970F9498324B015C01C701B6019058EE
:103A600024962CAD3DAD4EAD5FAD24970F948C37B1
:103A7000A50194010F9498326B017C012C962CAD1A
:103A80003DAD4EAD5FAD2C9768AD79AD8AAD9BADC8
:103A90000F94B03620E030E040E05FE30F949832BE
:103AA0009B01AC01C701B6010F94B03628AD39AD0A
:103AB0004AAD5BAD0F94AF366B017C0128962CADFF
:103AC0003DAD4EAD5FAD28976CAD7DAD8EAD9FAD7C
:103AD0000F94B03620E030E040E05FE30F9498327E
:103AE0002B013C0124962CAD3DAD4EAD5FAD24972E
:103AF00060966CAD7DAD8EAD9FAD60970F948C37A9
:103B0000A50194010F9498329B01AC01C301B2014D
:103B10000F94B0362CAD3DAD4EAD5FAD0F94AF36CA
:103B200014C089E40E9413D6882329F00E9497D5F7
:103B30006B017C0103C0C12CD12C76018AE40E9468
:103B400013D6882309F10E9497D52C966CAF7DAFD0
:103B50008EAF9FAF2C9720E030E0A901C701B601DE
:103B60000F94333281111FC020E030E0A9012C9660
:103B70006CAD7DAD8EAD9FAD2C970F94333281111E
:103B800012C0E3E9FFE20EC420E030E0A901C70162
:103B9000B6010F9433328823A1F32C961CAE1DAED0
:103BA0001EAE1FAE2C97D701C601B05888AF99AF93
:103BB000AAAFBBAF2C962CAD3DAD4EAD5FAD2C97F3
:103BC00050582CAF3DAF4EAF5FAF9C01AD01BC0173
:103BD000CD010F9498324B015C012CAD3DAD4EAD43
:103BE0005FADCA01B9010F9498329B01AC01C501C8
:103BF000B4010F94B0360F941B39A0966CAF7DAF13
:103C00008EAF9FAFA0978091480690914906A091F2
:103C10004A06B0914B0628968CAF9DAFAEAFBFAFB2
:103C20002897A7019601BC01CD010F94B036649688
:103C30006CAF7DAF8EAF9FAF649720914C063091F3
:103C40004D0640914E0650914F0660962CAF3DAF09
:103C50004EAF5FAF60972C962CAD3DAD4EAD5FADD6
:103C60002C9760966CAD7DAD8EAD9FAD60970F9437
:103C7000B036A4966CAF7DAF8EAF9FAFA497809106
:103C8000FD059091FE05A091FF05B0910006689694
:103C90008CAF9DAFAEAFBFAF689764962CAD3DAD16
:103CA0004EAD5FAD6497BC01CD010F94AF366B0193
:103CB0007C0120910106309102064091030650914B
:103CC00004066C962CAF3DAF4EAF5FAF6C97A496D9
:103CD0002CAD3DAD4EAD5FADA4976C966CAD7DAD9A
:103CE0008EAD9FAD6C970F94AF364B015C01809108
:103CF000500690915106A0915206B0915306A89695
:103D00008CAF9DAFAEAFBFAFA8979C01AD016091E6
:103D100005067091060680910706909108060F949B
:103D2000AF3624966CAF7DAF8EAF9FAF2497A701BF
:103D3000960168AD79AD8AAD9BAD0F9498322B0199
:103D40003C01A50194016CAD7DAD8EAD9FAD0F948E
:103D500098329B01AC01C301B2010F94B0362B0124
:103D60003C01A501940168AD79AD8AAD9BAD0F947E
:103D700098324B015C01A70196016CAD7DAD8EAD13
:103D80009FAD0F9498329B01AC01C501B4010F9413
:103D9000AF36A30192010F9423376B017C0120E021
:103DA00030E0A9010F94333287FF0AC02BED3FE0CA
:103DB00049EC50E4C701B6010F94B0366B017C01A9
:103DC00092E02916310451F42BED3FE049EC50E428
:103DD000C701B6010F94AF366B017C0120E030E0E3
:103DE000A901C701B6010F943332811128C068962A
:103DF0002CAD3DAD4EAD5FAD689728966CAD7DADF9
:103E00008EAD9FAD28970F943332811118C06C96F8
:103E10002CAD3DAD4EAD5FAD6C9760966CAD7DAD9C
:103E20008EAD9FAD60970F943332811108C00BEDBA
:103E3000C02E0FE0D02E09ECE02E00E4F02EA701FA
:103E40009601A0966CAD7DAD8EAD9FADA0970F9401
:103E500098324B015C0120E030E0A90124966CAD62
:103E60007DAD8EAD9FAD24970F9433328823E9F05A
:103E7000A5019401C501B4010F9498324B015C0176
:103E800024962CAD3DAD4EAD5FAD2497CA01B9016E
:103E90000F9498329B01AC01C501B4010F94B03668
:103EA0000F941B394B015C010DC020E030E0A901EB
:103EB000C501B4010F94D63887FF04C0B7FAB09497
:103EC000B7F8B0942FE632E143E85AE3C501B401F4
:103ED0000F94333287FF02C00C947431C501B401D2
:103EE0000F9425380F94F9372E967FAF6EAF2E972B
:103EF000DB01AB2B31F4E1E0F0E02E96FFAFEEAF4B
:103F00002E9740905406509055066090560670903B
:103F100057062E962EAD3FAD2E97B90180E090E06A
:103F20000F9437324B015C019B01AC01C701B60114
:103F30000F948C3728966CAF7DAF8EAF9FAF2897CC
:103F4000A501940124966CAD7DAD8EAD9FAD2497F7
:103F50000F948C37A0966CAF7DAF8EAF9FAFA097BC
:103F6000A30192016091090670910A0680910B06E7
:103F700090910C060F94AF36A50194010F948C37E5
:103F8000AC966CAF7DAF8EAF9FAFAC9728962CAD43
:103F90003DAD4EAD5FAD2897CA01B9010F9498327F
:103FA00020E030E040E05FE30F9498329B01AC01E9
:103FB00060E070E080E89FE30F94AF3668966CAFE6
:103FC0007DAF8EAF9FAF6897A8968CAD9DADAEAD1F
:103FD000BFADA89789879A87AB87BC874D865E86D9
:103FE0006F86788A6091140270911502072E000C7A
:103FF000880B990B0F9439322091230230912402BF
:1040000040912502509126020F9498322AE037ED14
:1040100043E25CE30F9498326CAB7DAB8EAB9FAB0D
:104020000E94EB8E9B01AC0128533F4F4F4F5F4FD7
:104030006C962CAF3DAF4EAF5FAF6C9748AC59ACB0
:104040006AAC7BAC22242394312C39E121963FAF1A
:1040500021972E964EAD5FAD2E974215530509F46C
:104060004DC10E942CEF0E94EB8EDC01CB016C96BF
:104070002CAD3DAD4EAD5FAD6C97821B930BA40B89
:10408000B50BB7FD11C00E94EB8E9B01AC0128530C
:104090003F4F4F4F5F4F6C962CAF3DAF4EAF5FAF72
:1040A0006C9780E00E94524021963FAD219731509D
:1040B00021963FAF2197332309F445C02CAD3DAD88
:1040C0004EAD5FAD68966CAD7DAD8EAD9FAD689722
:1040D0000F9498326B017C019201A30128966CAD7C
:1040E0007DAD8EAD9FAD28970F949832A7019601B4
:1040F0000F94B0367B018C019201A30168966CADE0
:104100007DAD8EAD9FAD68970F9498324B015C01E9
:104110002CAD3DAD4EAD5FAD28966CAD7DAD8EAD99
:104120009FAD28970F9498329B01AC01C501B40153
:104130000F94AF362B013C01C701D8018CAF9DAF66
:10414000AEAFBFAF55C0B10180E090E00F94373201
:1041500028962CAD3DAD4EAD5FAD28970F949832AB
:104160004B015C010F9489376B017C01C501B401DF
:104170000F9411394B015C01A701960168AD79AD2F
:104180008AAD9BAD0F9498322B013C012C962CAD3F
:104190003DAD4EAD5FAD2C97C501B4010F94983283
:1041A000A30192010F94B0362B013C01A5019401AB
:1041B00068AD79AD8AAD9BAD0F9498324B015C012F
:1041C0002C962CAD3DAD4EAD5FAD2C97C701B60121
:1041D0000F9498329B01AC01C501B4010F94AF3626
:1041E0006CAF7DAF8EAF9FAF49E121964FAF219766
:1041F0009201A30164966CAD7DAD8EAD9FAD6497C9
:104200000F94B03669837A838B839C832CAD3DAD4C
:104210004EAD5FADA4966CAD7DAD8EAD9FADA49758
:104220000F94B0366D837E838F839887A0962CADD4
:104230003DAD4EAD5FADA09769857A858B859C8538
:104240000F94B03669877A878B879C87AC962CADA4
:104250003DAD4EAD5FADAC976D857E858F85988900
:104260000F94B0366D877E878F87988B809141023F
:10427000882321F0CE0101960E94DA3CE0902906C5
:104280001CA61DA61EA61FA689819A81AB81BC8192
:1042900088A399A3AAA3BBA38D819E81AF81B88572
:1042A0008CA39DA3AEA3BFA389859A85AB85BC854E
:1042B00088A799A7AAA7BBA7AE01485D5F4FBE011B
:1042C0006C5D7F4FCE0180960E94DC6BCE018C9698
:1042D0006C018E010C5C1F4F9E01235F3F4FAE01AE
:1042E000485D5F4FBE016C5D7F4F0C970E945B5D28
:1042F000882321F09FEF291A390AABCEE0902906D6
:1043000018AA19AA1AAA1BAA8091FD059091FE0568
:10431000A091FF05B091000688A399A3AAA3BBA30F
:104320008091010690910206A0910306B0910406C7
:104330008CA39DA3AEA3BFA3809105069091060612
:10434000A0910706B091080688A799A7AAA7BBA7BE
:10435000AE01485D5F4FBE016C5D7F4FCE01809620
:104360000E94DC6BDE01D0966D018E010C5C1F4F4C
:1043700029E036E0AE01485D5F4FBE016C5D7F4FC6
:10438000CE0180960E945B5D80E1EDEFF5E0A8E450
:10439000B6E001900D928A95E1F70C9474310E9479
:1043A00015D7F80184918F010F5F1F4F8111F7CF4F
:1043B000E1E8F2E084918F010F5F1F4F882311F431
:1043C0000C9474310E9415D7F801F4CF80E50E9457
:1043D00013D6882329F00E9457D56B017C0103C0B6
:1043E000C12CD12C760183E50E9413D6882361F07D
:1043F0000E9497D520E030E04AE754E40F949832C9
:104400000F94F9376B017C010E94286B8091AE06F6
:10441000811105C060E087E992E00E94A0F80E9447
:10442000EB8EC60ED71EE81EF91E0E94EB8EDC0135
:10443000CB018C199D09AE09BF09B7FD02C00C94D0
:10444000743180E00E945240F0CF0E94E8E7811171
:104450000C94743180E50E9413D6882319F00E94D1
:1044600067D501C060E068AB83E50E9413D688235E
:1044700019F00E9467D501C06CE06CA784E50E942A
:1044800013D6882319F00E9467D501C063E068A3A2
:1044900082E50E9413D6882319F00E9497D504C0A4
:1044A00060E070E080ED90E469837A838B839C8385
:1044B0009E01205E3F4FAE014F5F5F4FBE01645DC6
:1044C0007F4FCE01C0960F94CE090C9474310E9498
:1044D000E8E781110C94743180E090E0A0E2B1E44F
:1044E00089839A83AB83BC8380E090E0A1E9B3E445
:1044F0008D839E83AF83B88780E090E0A0EAB1E42B
:1045000089879A87AB87BC8780E50E9413D688236A
:1045100019F00E9467D501C060E068A3BE016F5F1B
:104520007F4FCE0180960F9438090C94743180919E
:1045300037068770873011F00C947E318FE40E942B
:1045400013D6882319F00E9488D503C08FE40E94F7
:10455000CAD581110C9474310C947E310E94AC58F0
:104560000C947431C0904806D0904906E0904A06F9
:10457000F0904B0688E50E9413D6811108C020E018
:1045800030E0A901C701B6010F94B03602C00E9405
:1045900097D568A379A38AA39BA3C0904C06D0901B
:1045A0004D06E0904E06F0904F0689E50E9413D626
:1045B000811109C020E030E040E751E4C701B601B5
:1045C0000F94AF3602C00E9497D59B01AC0169835E
:1045D0007A838B839C8368A179A18AA19BA10E9485
:1045E000CC3E882311F40C94743180E00E94635512
:1045F0000E94BE5685E40E9413D6882321F00E94B3
:1046000088D5182F04C085E40E94CAD511E086E53C
:104610000E9413D6882321F00E9467D5262F01C05F
:1046200021E0412FBE016F5F7F4FCE0180960E9437
:1046300086926B017C019B01AC010F945C39811166
:104640005FC088A099A0AAA0BBA020E030E0A9018B
:10465000C501B4010F94333287FF05C027E137EB62
:1046600041E558EB04C027E137EB41E558E3C501CC
:10467000B4010F94B036AB01BC0187EC92E00F940B
:104680007D0189809A80AB80BC8020E030E0A90168
:10469000C501B4010F94333287FF05C027E137EB22
:1046A00041E558EB04C027E137EB41E558E3C5018C
:1046B000B4010F94B036AB01BC0182EC92E00F94D0
:1046C0007D0120E030E0A901C701B6010F9433322B
:1046D00087FF05C027E137EB41E558EB04C027E130
:1046E00037EB41E558E3C701B6010F94B036AB0193
:1046F000BC018DEB92E00F947D018AE00E9415D7FA
:104700000E94A5560E94E37C0C9474318091430270
:10471000882311F40C94743189E40E9413D6E82E96
:10472000882321F00E9467D5F62E01C0F12C8AE47F
:104730000E9413D6182F882321F00E9467D5062FD8
:1047400001C000E0EE2019F0B2E0BF1520F0112307
:1047500081F0033070F0EFECF2E084918F010F5F95
:104760001F4F882311F40C9474310E9415D7F8015F
:10477000F4CF0E9401D7EE20F1F02091920B3091FE
:10478000930B4F2D4203B001439F700D1124809174
:10479000291590912A15680F791F072E000C880B98
:1047A000990B0F9439326093FD057093FE05809349
:1047B000FF05909300061123E9F02091940B3091AE
:1047C000950B0203B001039F700D112480912B15EE
:1047D00090912C15680F791F072E000C880B990BF0
:1047E0000F9439326093010670930206809303069A
:1047F0009093040680E50E9413D68823E9F00E9476
:1048000088D58823E9F01123D9F020E030E040E793
:1048100051E4609101067091020680910306909127
:1048200004060F94B03660930106709302068093DD
:1048300003069093040604C080E50E94CAD5E1CF28
:1048400086E40E9413D68823D9F00E9497D56B0185
:104850007C0120E030E0A9010F94D638181684F4CA
:1048600020E030E040E752E4C701B6010F948C37F6
:104870006093230270932402809325029093260272
:104880000E9442440C94743190933E030C94743112
:10489000EBE52E2EE2E03E2EFCE4EF2EF3E0FF2EC1
:1048A00088E496E099AF88AFA8E3CA2EA6E0DA2E96
:1048B00000E010E0D1018D911D010E9413D68823E4
:1048C00009F44BC00E9497D52B013C01133049F0ED
:1048D000F60120813181428153810F94AF362B0143
:1048E0003C01A8ADB9AD2D913D914D915C91C301B5
:1048F000B2010F94AF364B015C012DEB37E346E874
:1049000055EB0F94D63887FD0AC02DEB37E346E808
:1049100055E3C501B4010F9433321816F4F4133083
:1049200051F4409254065092550660925606709289
:10493000570601E012C0A5019401F7016081718161
:10494000828193810F94B036D7016D937D938D93BF
:104950009C931397812F0E941B5D1F5FB4E0EB0EA9
:10496000F11CE8ADF9AD3496F9AFE8AFF4E0CF0E45
:10497000D11C143009F09ECF002321F084E596E08D
:104980000E9485E70E94E37C0C9474310E94999602
:104990000C94743180917715909178158D3791052D
:1049A00009F413C60CF025C18E34910509F4C4C472
:1049B0000CF09AC08A31910509F478C3ECF5843182
:1049C000910509F46BC27CF48131910509F4E1C2CF
:1049D0002CF4029708F465C20C942331429709F431
:1049E0000FC60C9423318731910509F41FC374F469
:1049F0008531910509F416C3469711F00C942331C3
:104A000010920809109209090C94743188319105AB
:104A100009F422C3499711F00C942331109208092C
:104A20000E9429F28AE293E09093561580935515DF
:104A30000E94B1D40C9474318032910509F4E0C322
:104A4000ACF58D31910511F40C94743194F48B31E3
:104A5000910509F439C34C9711F00C94233140E0CF
:104A600060E080917515909176150E948FE90C9405
:104A700074318E31910509F4BFC34F9711F00C9436
:104A800023310E94DAF168A379A38AA39BA3BE0114
:104A90006F5F7F4FCE0180960E941FD660E0CE01EF
:104AA00001960E94DAF8E0EFF0E2F6C38B3491054C
:104AB00009F43CC464F48A32910509F403C4C09734
:104AC00011F00C9423310E94CB7F0C9474318C3400
:104AD000910509F42EC48D34910511F00C94233105
:104AE0000F9415020C9474318D36910509F424C588
:104AF000ECF58C35910509F49FC5E4F483359105F7
:104B000009F47AC56CF48135910509F461C58235E3
:104B1000910511F00C94233110923D030C947431E3
:104B20008435910509F46CC58535910509F46BC58B
:104B30000C9423318A36910509F41BC554F4883648
:104B4000910509F4FCC38936910509F4B5C40C94A8
:104B500023318B36910509F428C58C36910511F067
:104B60000C94233110921C020C94743183379105FC
:104B700009F491C1CCF48037910509F46CC454F464
:104B80008E36910509F403C48F36910509F410C4DB
:104B90000C9423318137910509F464C4823791055F
:104BA00009F4D2C50C9423318737910509F4B9C6AD
:104BB0008CF48537910509F45FC68637910511F0AD
:104BC0000C942331009175151091761583E0D12C4A
:104BD00040E067C68837910509F4A6C68937910574
:104BE00011F00C94233110925404109253040C943D
:104BF0007431823921E0920711F40C947B2F0CF070
:104C000097C0833D910511F40C942F2E0CF045C0F4
:104C1000883C910509F406C7C4F48139910509F46B
:104C200089C634F48C38910509F489C40C94233175
:104C30008B39910509F45BC48E3B910511F00C94FE
:104C400023310F943D180C9474318C3C910509F478
:104C500071C784F4893C910509F434C78B3C9105F4
:104C600011F00C9423310BE5E02E02E0F02E0CEF56
:104C70001EE051C78D3C910509F4D1C78E3C9105CA
:104C800011F00C942331BBE5CB2EB2E0DB2E16E500
:104C9000E12E14E0F12E10E0CDC78D3241E09407F3
:104CA00011F40C940B2FECF4823E910511F40C944A
:104CB000AE2E54F48C3D910509F4D4C78D3D910579
:104CC00009F4DDC70C9423318232A1E09A0711F474
:104CD0000C94D72E8C32914011F40C94E22E0C944B
:104CE00023318336E1E09E0709F4D1C07CF48E3293
:104CF00021E0920711F40C940E2F8F32914011F0A5
:104D00000C9423310E94AC750C947431803941E0CD
:104D1000940711F40C94782F8139914011F00C9480
:104D2000233181E00E940C580E94E37C0C94743182
:104D30008D3BA2E09A0711F40C9446300CF04BC066
:104D4000853FE1E09E0711F40C94842F1CF5853A11
:104D500021E0920711F40C94812F74F48A3941E018
:104D6000940709F47CC3843A914011F00C942331E8
:104D70000E94AD7D0C9474318C3AA1E09A0709F43D
:104D80006BC7843F914011F00C9423310E94B9DB32
:104D90000C947431883FE1E09E0711F40C94962F37
:104DA0006CF4863F21E0920711F40C94872F873F23
:104DB000914011F40C948A2F0C942331883542E0F1
:104DC000940711F40C94BA2F8B35924011F40C9483
:104DD000BD2F0C9423318039A3E09A0711F40C9471
:104DE000B430ACF58A38E3E09E0711F40C94B1308E
:104DF0006CF48E3B22E0920711F40C944930833519
:104E0000934011F40C944C300C9423318B3843E0D4
:104E1000940711F40C9474318F38934011F00C9472
:104E2000233160914B0880E00E946B8B6091D20728
:104E300081E00E946B8B6091590782E00E946B8B2E
:104E40006091E00686E00E946B8B0C94743183398C
:104E5000A3E09A0711F40C940B316CF48139E3E070
:104E60009E0711F40C94B7308239934011F40C94DE
:104E7000BA300C942331803A23E0920709F4FFC141
:104E8000873E934011F40C940E310C942331E3E9E6
:104E9000FFE20C94652FE2E9F4E093C4E9E1F3E06A
:104EA00083C0A0907515B090761580E50E9413D64A
:104EB000882359F00E9457D56B017C0111E0672BC4
:104EC000682B692B31F410E004C010E0C12CD12C08
:104ED000760183E50E9413D6882311F40C9469327D
:104EE0000E9497D520E030E04AE754E40F949832CE
:104EF0000F94F9376B017C0111110BC0672B682BE4
:104F0000692B39F4A114B10421F0D5018C918111E0
:104F100002C010E001C011E00E94286B112329F0AB
:104F200061E0C5010E94DAF805C060E08EEE92E013
:104F30000E94A0F883E08093280681E080932706F2
:104F4000C114D104E104F104B1F00E94EB8EC60E4D
:104F5000D71EE81EF91E0E94EB8EDC01CB018C19D6
:104F60009D09AE09BF09B7FF0EC0809127068111C8
:104F70000C946E3208C080912706882321F080E0CF
:104F80000E945240F8CF0E94CC70109227060C94D9
:104F9000743160E081E093E00E94A0F817981698C1
:104FA000159814980C94743184918F010F5F1F4FE2
:104FB000882321F00E9415D7F801F6CF1092850BB7
:104FC00088E399E00E94EB358BE1E8E3F9E0DE014C
:104FD000159601900D928A95E1F78091360990918E
:104FE00037099C838B8381E992E09A83898340E02F
:104FF00050E0BE016F5F7F4F80E090E00E9497AC71
:10500000CE0101960E94453FEAE0F3E084918F01D2
:105010000F5F1F4F882311F40C9474310E9415D731
:10502000F801F4CF0E9410E60C947431E0917515EC
:10503000F09176158081882329F0803209F410825E
:105040003196F8CF40E061E080917515909176152A
:105050000E948FE90C94743180E090E0A8E4B2E4FF
:1050600089839A83AB83BC8318A219A21AA21BA2BC
:105070001CA61DA61EA61FA680918B0E882359F084
:1050800020E0AE014F5F5F4FBE01605E7F4FCE01FB
:105090008C960E94C29580910909882319F081E0BD
:1050A000809308090F94CE010C9474318091090902
:1050B000882311F40C94743183E50E9413D6811176
:1050C0000C9473320C94743183E40E94CAD5882303
:1050D00009F450C0ECE5F3E084918F010F5F1F4F9E
:1050E000882321F00E9415D7F801F6CF8091D30ACA
:1050F000811103C0EFE2F3E012C0BE016F5F7F4F8A
:1051000080ED9AE00E94B8358E010F5F1F4FF801C5
:1051100081918F01882349F10E9415D7F8CF84919E
:105120008F010F5F1F4F882301F10E9415D7F801EF
:10513000F6CF78E7C72E73E0D72EE12CF12C20E0D4
:105140008091E10390E00E2C02C0959587950A941A
:10515000E2F780FD5DC1FFEFEF1AFF0A32E0C30EF8
:10516000D11C45E0E416F10459F78AE00E9415D7F6
:105170000C94743180910909882339F080910809D1
:10518000882319F0E9E3F3E003C0EBE4F3E028C07F
:1051900084918F010F5F1F4F882321F00E9415D744
:1051A000F801F6CF6091810B7091820B8091830B97
:1051B0009091840B4AE00E94BAD98FE20E9415D7E1
:1051C00060917D0B70917E0B80917F0B9091800B95
:1051D0004AE00E94BAD98AE00E9415D70C94743133
:1051E00084918F010F5F1F4F882311F40C94743149
:1051F0000E9415D7F801F4CF0E94C0870C94743137
:105200008091080981110E94286B809109098823E7
:1052100011F40C94743180E50E9413D6882319F0A0
:105220000E9488D503C080E50E94CAD5182F482F58
:1052300061E080917515909176150E948FE983E564
:105240000E9413D6882381F00E9467D5AB01BC0170
:105250004093810B5093820B6093830B7093840B6C
:1052600080ED9AE00E94783480910909882319F032
:1052700081E08093080911110C94743113CF80914F
:1052800075159091761521E02093070940E060E0C4
:105290000E948FE90C94743184918F010F5F1F4F2E
:1052A000882321F00E9415D7F801F6CFBE016F5F69
:1052B0007F4F8BE693E00F94B3018AE00E9415D7ED
:1052C0000C94743183E50E9413D6882311F40C9456
:1052D00074310E9477D5E82E80E50E9413D688238A
:1052E00031F00E9477D5182F87FF02C0FDC71DE05F
:1052F00089E40E9413D6882351F00E9488D5811139
:105300000C942933E5E9F5E082EC95E00AC089E4E4
:105310000E94CAD5F4CF31968E179F0711F40C94D2
:10532000293324911213F7CF0C9483320F94CE01BA
:10533000DBC70E9429F2D8C70F94071CD5C788E69F
:1053400090E00E9425DA8111CFC78091E10383FFAD
:1053500001C0CAC783E50E9413D68823A9F00E9422
:1053600097D50F94F437CB010E9441F80E9497D54E
:1053700020E030E04AEA52E40F943332181624F069
:105380000F9415020E94CC700F949703ADC78EE462
:105390000E9413D6882309F4A7C70E9467D560939B
:1053A000870E7093880E8093890E90938A0E9CC707
:1053B00083E50E94CAD5882359F083E50E9413D65D
:1053C000882319F00E9477D501C080E08093E10323
:1053D000E0EFF0E284918F010F5F1F4F811103C056
:1053E000E6E8F3E004C00E9415D7F801F3CF8491FA
:1053F0008F010F5F1F4F882321F00E9415D7F801FE
:10540000F6CF8091E103811194CEE2E8F3E018C079
:10541000BB24B394B20E222319F08CE20E9415D75C
:10542000F60185919491FC0184918F010F5F1F4FCC
:10543000882321F00E9415D7F801F6CF2B2D8BCEB3
:1054400084918F010F5F1F4F882309F48ECE0E9435
:1054500015D7F801F5CF8DE893E00E9403400E9434
:105460006F7542C783E50E9413D6811103C0E0EF38
:10547000F0E20BC00E9477D58D3318F480930002C0
:1054800033C78CE3809300022FC784918F010F5F95
:105490001F4F882321F00E9415D7F801F6CF4091C5
:1054A000000250E060E070E086E993E00F94600154
:1054B0008AE00E9415D718C789E690E00E9425DA95
:1054C000811111C0EDE9F3E084918F010F5F1F4F4F
:1054D000882321F00E9415D7F801F6CF0E94018E93
:1054E0008AE00E9415D7109228060C943E3383E57B
:1054F0000E9413D6882309F4F7C60E9477D5182F87
:105500008D3308F01CE310934B030E94EB8E6B016C
:105510007C01212F30E0A8EEB3E00F94A036C60E38
:10552000D71EE81EF91EC0924703D0924803E092AE
:105530004903F0924A03D8C60F94171AD5C6809132
:10554000E10383FDD1C683E50E9413D6882309F4C5
:10555000CBC60E9497D50F94F4376436710514F0CA
:1055600064E670E070934A15609349150E9475EBEC
:10557000BBC680E50E9413D6811106C083E50E9458
:1055800013D6882359F005C00E9477D58111ACC687
:10559000F5CF0E9467D56F3F710510F06FEF70E097
:1055A00070934C1560934B159FC680E50E9413D6EF
:1055B000811105C010924C1510924B1595C60E9492
:1055C00067D5672B09F090C6F5CF0E940C7C8CC67E
:1055D0000E94C1EB0E94666B10924C1510924B1505
:1055E00068EE73E080E090E00E941DF860E080EAE1
:1055F00093E00E94A0F878C681E080933D0374C6D2
:105600000E94727F71C683E50E94CAD5882309F47F
:105610006BC60E9497D520E030E04AE754E40F942F
:1056200098320F94F9376093430370934403809347
:1056300045039093460358C65BE5C52E52E0D52E30
:105640006AE6E62E6CE0F62E10E0D6018D916D0133
:105650000E94CAD5882309F46DC0133009F063C0D5
:105660000E9497D54B015C0120E030E040EA51E414
:105670000F94333287FF4EC0A50194016091760CE0
:105680007091770C8091780C9091790C0F948C37F5
:105690002B013C019B01AC016091300F7091310FE7
:1056A0008091320F9091330F0F9498326093300FA6
:1056B0007093310F8093320F9093330FA3019201B7
:1056C0006091080F7091090F80910A0F90910B0F54
:1056D0000F9498326093080F7093090F80930A0F0C
:1056E00090930B0F6091440F7091450F8091460F7E
:1056F0009091470F0F943732A30192010F94983283
:105700000F94F9376093440F7093450F8093460FC1
:105710009093470F8092760C9092770CA092780C21
:10572000B092790C07C00E9497D5F701608371830E
:10573000828393831F5FF4E0EF0EF11C143009F0B5
:1057400084CF0F94FC04D0C50E94286B83E50E948F
:1057500013D6882309F416C90E9467D562307105F3
:1057600009F010C90E941A488BE50E9415D7609174
:105770002A0670912B0680912C0690912D0642E00E
:105780000E947BDA40912E0650912F0660913006E0
:105790007091310680EB93E00F947D0140913206C9
:1057A0005091330660913406709135068DEA93E08E
:1057B0000F947D018DE50E9415D78AE00E9415D7D0
:1057C00093C584918F010F5F1F4F882321F00E94A2
:1057D00015D7F801F6CF60E082E894E00E94AC7C37
:1057E00061E08BE794E00E94AC7C61E080E794E0AC
:1057F0000E94AC7C61E080E694E00E94AC7C60E0BA
:1058000087E594E00E94AC7C61E08DE494E00E9426
:10581000AC7C61E083E494E00E94AC7C61E08BE3CB
:1058200094E00E94AC7C61E08DE294E00E94AC7C4C
:1058300060E08FE194E00E94AC7C60E080E194E065
:105840000E94AC7C60E082E094E00E94AC7C60E06E
:105850008CEE93E00E94AC7C60E08BED93E00E94C4
:10586000AC7C60E086EC93E00E94AC7C61E083EB72
:1058700093E00E94AC7C38C58091751590917615A7
:10588000DC012C91222321F060E00E94DAF82CC583
:105890000E94CC7029C5F8019081292F2B7F2134DB
:1058A00019F08150C1F716C021812133D1F791340D
:1058B00021F0953421F441E002C0DD24D394980115
:1058C0002E5F3F4F89012F5F3F4FD8019C9190324F
:1058D000C9F3E7CF442369F0E0EFF0E284917F0160
:1058E000BFEFEB1AFB0A882321F00E9415D7F701BE
:1058F000F5CFDD2069F0E1E5F5E084917F012FEF40
:10590000E21AF20A882321F00E9415D7F701F5CF99
:10591000D8018D918D01882309F427CC0E9415D7D9
:10592000F7CF0F94B30CE0C481E0809354048093CC
:105930005304DAC483E50E9413D6882319F00E9429
:1059400067D502C060E070E08B01112702301105BD
:10595000D4F0E3E9FFE284918F010F5F1F4F8111C3
:1059600003C0E5E5F5E004C00E9415D7F801F3CFC8
:1059700084918F010F5F1F4F882309F4B5C40E94E3
:1059800015D7F801F5CF88E40E9413D68823A9F033
:105990000E9467D56A3A71053CF06F30B1E07B0731
:1059A0002CF06EE071E002C06AEA70E0F801EE0FE0
:1059B000FF1FE557F94F7183608386E40E9413D679
:1059C0008823A9F00E9467D5F801EE0FFF1FE15769
:1059D000F94F718360836F3F710519F014F06FEF19
:1059E00070E077FF02C060E070E07183608382E462
:1059F0000E9413D6882309F477C40E9467D56530C6
:105A0000710534F0663571052CF065E570E002C073
:105A100065E070E0000F111FF801E957F94F71833D
:105A2000608362C488EC90E00E9425DA81115CC436
:105A300084E40E94CAD5882309F441C00E9497D506
:105A40006B017C0111E020E030E0A9010F943332BA
:105A5000811101C010E01093E10B20E030E0A901BA
:105A6000C701B6010F943332882349F10E9497D5BC
:105A7000E0910D0424E0E29FF0011124E352F44F81
:105A8000608371838283938320E030E0A901609179
:105A9000DD0B7091DE0B8091DF0B9091E00B0F948A
:105AA000333281110CC080E090E0A0EEBFE3809320
:105AB000DD0B9093DE0BA093DF0BB093E00B0F9404
:105AC0006D0512C48BE5E82E82E0F82E0CE01FE095
:105AD0009CE1C92E9FE0D92ED7018D917D010E94B6
