:100000000C94D01E0C94011F0C94011F0C94011F22
:100010000C94011F0C94011F0C94011F0C94011FE0
:100020000C94011F0C94011F0C94011F0C94011FD0
:100030000C94011F0C94011F0C94011F0C94011FC0
:100040000C94011F0C941AFF0C94011F0C94011FB7
:100050000C94011F0C94011F0C9407680D94FD1360
:100060000C94011F0C94A3E70C94011F0C94011F26
:100070000C94011F0C94011F0C94011F0C94011F80
:100080000C94011F0C94011F0C94011F0C94011F70
:100090000C94011F0C94011F0C94011F0C94011F60
:1000A0000C94011F0C94011F0C94011F0C94011F50
:1000B0000C94011F0C94011F0C94011F0C94011F40
:1000C0000C94011F0C94011F0C94011F0C94011F30
:1000D0000C94011F0C94011F0C94011F0C94011F20
:1000E0000C94011FA086A386AA86AD86B186A7863A
:1000F000B486B786BB86BE86C186C586C886CB86D3
:10010000A786CF86D286D586EE880D892C894F8921
:100110007289118B9589B689D789FA891D8A408A97
:10012000638A868A118BA98ACC8AEF8AD1A5B7A562
:10013000BAA5BDA5C0A5CCA5C3A5DDA5C6A5C9A565
:10014000F5E708E81BE820E835E845E85EE870E8F0
:1001500080E989E880E99CE880E9A0E8A5E8F0E882
:1001600003E914E921E940E961E924016601180184
:100170002801600154013601340156010E01640169
:100180002E012A01460154016A016201220168011F
:1001900040011C014C01120132015A013A011E01B9
:1001A00052015C010C015001260132015801140179
:1001B0006C012C0138015E0148011A01440116014D
:1001C0004A013E0142013E013E012001084AD73B5F
:1001D0003BCE016E84BCBFFDC12F3D6C74319ABD16
:1001E00056833DDA3D00C77F11BED9E4BB4C3E913A
:1001F0006BAAAABE000000803F05A84CCDB2D44E29
:10020000B93836A9020C50B9918688083CA6AAAA2A
:100210002ABE000000803F000D9450130D9443113E
:100220000D9471140D9418130D947D130D940217F1
:100230000D9420110D94F6160D9404130D943213A1
:100240000D9425170D9463110D942E110D946913BF
:100250000D9424110D9451110D94D8160D944D1137
:100260000D94FC210D9491130D9439110D943511B9
:100270000D94E3160D942A130D94570A0D948C17C0
:100280000D94FF120D940E170D94FC160D9455113C
:100290000D94F0160D9408170D940E130D94602A0A
:1002A0000D945F130D943C130D9468110D943F1140
:1002B0000D9473130D9422130D9446130D94EA16A6
:1002C0000D942A110D945F110D9447110D94311165
:1002D0000D94FA120D945B110D9487134E414E4903
:1002E0004E495459494E46CDCCCC3D0AD7233C17F4
:1002F000B7D13877CC2B329595E6241FB14F0A0041
:100300000020410000C84200401C4620BCBE4CCA30
:100310001B0E5AAEC59D74434F4D4D554E4943413A
:1003200054494F4E0044525952554E004552524F77
:10033000525300494E464F004543484F0047322F25
:1003400047332062616420706172616D657465720B
:10035000730A00536C6565702E2E2E00486F6D6514
:100360002058592066697273740A00486F6D6520C1
:10037000585920666972737400205A3A2000205937
:100380003A200042656420583A20004D6573682089
:10039000706F696E742063616E6E6F742062652089
:1003A0007265736F6C7665640A00436C69636B20D9
:1003B000746F20726573756D652E2E2E004E6F2042
:1003C0006D6F76652E00456E642066696C65206CE5
:1003D0006973740A00426567696E2066696C6520FE
:1003E0006C6973740A00286E6F2066696C65290059
:1003F0005344207072696E74696E67206279746507
:1004000020004E6F74205344207072696E74696EC0
:10041000670A0043757272656E742066696C653A8E
:1004200020005072696E742074696D653A2000383E
:100430000333032C03250317036F6666004445420C
:1004400055473A004B494C4C45442E20004D313124
:10045000332053006F6B004D4B53204E6F7661205D
:100460004933204F66662E002C20002C2000544873
:1004700045524D414C5F50524F54454354494F4EA5
:10048000004155544F5245504F52545F53445F53AF
:10049000544154555300454D455247454E43595FCD
:1004A00050415253455200434153455F4C494748E0
:1004B000545F4252494748544E45535300544F47A6
:1004C000474C455F4C494748545300534F46545797
:1004D0004152455F504F574552004255494C445F89
:1004E00050455243454E54004C4556454C494E47A5
:1004F0005F44415441005A5F50524F4245004155BC
:10050000544F4C4556454C005052494E545F4A4F4B
:10051000420050524F4752455353004155544F5299
:1005200045504F52545F54454D5000564F4C554D19
:10053000455452494300454550524F4D0053455292
:1005400049414C5F584F4E5F584F4646004649520E
:100550004D574152455F4E414D453A4D61726C6970
:100560006E20312E312E3920284769746875622932
:1005700020534F555243455F434F44455F55524CBE
:100580003A68747470733A2F2F6769746875622EB5
:10059000636F6D2F4D61726C696E4669726D776124
:1005A00072652F4D61726C696E2050524F544F43EB
:1005B0004F4C5F56455253494F4E3A312E30204DE5
:1005C000414348494E455F545950453A4D4B53209D
:1005D0004E6F766120493320455854525544455258
:1005E0005F434F554E543A3120555549443A63655F
:1005F0006465326132662D343161322D34373438DE
:100600002D396231322D63353563363266333637F4
:1006100066660A002F2F20004D31343520533C6987
:100620006E6465783E206F7574206F662072616E0F
:1006300067652028302D31290A00205400205200FF
:10064000416363656C65726174696F6E3A20500036
:1006500020466C6F773A200050726F6265205A20F6
:100660004F66667365743A200043290A0061626C24
:10067000656420286D696E2074656D702000436F7D
:100680006C6420657874727564657320617265208E
:100690000020643A0020693A0020703A004E6F2032
:1006A00063617365206C696768740A004545505240
:1006B0004F4D204F4B0A003F5A206F7574206F66D4
:1006C0002072616E676520282D323020746F2032D1
:1006D00030290A003A200050726F6265205A204F7C
:1006E000666673657400617869733A70776D5F73DD
:1006F00063616C65207C7374617475735F7265737C
:10070000706F6E73657C0A0041637469766520457D
:10071000787472756465723A2000496E76616C690E
:10072000642065787472756465720A00506C656146
:100730007365207265736574005052494E5445527A
:100740002048414C544544005072696E74657220D3
:1007500068616C7465642E206B696C6C2829206359
:10076000616C6C6564210A00206472697665722090
:1007700063757272656E743A2000656E7175657589
:1007800065696E67202200000020C1000040C100A2
:100790000000000000F0410000F041000040400077
:1007A0000000005761726E696E673A20486F6D698C
:1007B0006E672042756D702044697669736F722090
:1007C0003C20310A0002020400000000000000008A
:1007D0000000000000005443000057430000C843DD
:1007E000FFFFFF00002110422063308440A550C667
:1007F00060E770088129914AA16BB18CC1ADD1CE5F
:10080000E1EFF13112100273325222B5529442F7E5
:1008100072D662399318837BB35AA3BDD39CC3FFAE
:10082000F3DEE36224433420040114E664C774A4B5
:100830004485546AA54BB528850995EEE5CFF5ACFE
:10084000C58DD55336722611163006D776F66695C5
:1008500056B4465BB77AA719973887DFF7FEE79D4E
:10086000D7BCC7C448E5588668A778400861180215
:10087000282338CCC9EDD98EE9AFF9488969990A9E
:10088000A92BB9F55AD44AB77A966A711A500A3325
:100890003A122AFDDBDCCBBFFB9EEB799B588B3BEE
:1008A000BB1AABA66C877CE44CC55C222C033C6075
:1008B0000C411CAEED8FFDECCDCDDD2AAD0BBD683E
:1008C0008D499D977EB66ED55EF44E133E322E5105
:1008D0001E700E9FFFBEEFDDDFFCCF1BBF3AAF598E
:1008E0009F788F8891A981CAB1EBA10CD12DC14EFF
:1008F000F16FE18010A100C230E320045025404692
:10090000706760B9839893FBA3DAB33DC31CD37FB0
:10091000E35EF3B1029012F322D2323542145277E1
:10092000625672EAB5CBA5A89589856EF54FE52C80
:10093000D50DC5E234C324A0148104667447642431
:10094000540544DBA7FAB79987B8975FE77EF71D90
:10095000C73CD7D326F2369106B016576676761581
:100960004634564CD96DC90EF92FE9C899E9898AE0
:10097000B9ABA94458654806782768C018E10882D1
:1009800038A3287DCB5CDB3FEB1EFBF98BD89BBBF0
:10099000AB9ABB754A545A376A167AF10AD01AB321
:1009A0002A923A2EFD0FED6CDD4DCDAABD8BADE840
:1009B0009DC98D267C076C645C454CA23C832CE071
:1009C0001CC10C1FEF3EFF5DCF7CDF9BAFBABFD9D0
:1009D0008FF89F176E367E554E745E932EB23ED1C1
:1009E0000EF01E7C3C3E5E2B3D3F2F5B5D3B2C2A78
:1009F000225C00526573656E643A20006F6B0020C4
:100A0000746F6F206C6F6E67206578747275736990
:100A10006F6E2070726576656E7465640A0020637F
:100A20006F6C6420657874727573696F6E20707274
:100A30006576656E7465640A00627573793A207034
:100A4000617573656420666F7220696E7075740AD3
:100A500000627573793A2070617573656420666F02
:100A60007220757365720A00627573793A2070722C
:100A70006F63657373696E670A004B494C4C45445C
:100A80002E20004B494C4C206361757365642062D5
:100A900079204B494C4C20627574746F6E2F7069CD
:100AA0006E0A004B494C4C45442E20004B494C4C9F
:100AB0002063617573656420627920746F6F206DA7
:100AC00075636820696E6163746976652074696D09
:100AD00065202D2063757272656E7420636F6D6D75
:100AE000616E643A20004D3630300024F4D430502A
:100AF000C38E20C2A24017828B7011127A910D8191
:100B00006CD90AA861E108C7586607615143061EFF
:100B10004B5D05C145A7041A411104093D980371B5
:100B20003931034036DB0265339102D43054028000
:100B30002E1D02632CEE01752AC501B028A00110FC
:100B40002781018F2564012B244B01E0223401AC65
:100B5000211F018D200D01801FFC00841EED0097D8
:100B60001DDF00B81CD200E61BC600201BBC0064C1
:100B70001AB200B219A8000A19A0006A189900D187
:100B800017910040178B00B516840031167E00B314
:100B90001579003A157300C7146F0058146A00EEF7
:100BA0001366008813630025135E00C7125B006C98
:100BB00012570015125400C111510070114F00213D
:100BC000114B00D61049008D10470046104400021A
:100BD000104200C00F4000800F3E00420F3C000654
:100BE0000F3B00CB0E3800930E37005C0E3500270C
:100BF0000E3400F30D3200C10D3100900D30006055
:100C00000D2E00320D2D00050D2C00D90C2B00AE41
:100C10000C2900850C29005C0C2700350C27000EE0
:100C20000C2600E80B2400C40B2400A00B23007D3D
:100C30000B23005A0B2100390B2100180B2000F860
:100C40000A1F00D90A1E00BB0A1E009D0A1D008053
:100C50000A1D00630A1C00470A1B002C0A1B001116
:100C60000A1A00F7091A00DD091900C4091900ABB6
:100C7000091900920917007B091800630917004C35
:100C800009160036091600200916000A091500F594
:100C9000081500E0081400CC081400B8081400A4DB
:100CA000081400900813007D0812006B0813005808
:100CB000081200460812003408110023081100121F
:100CC00008110001081100F0071000E0071000D023
:100CD000071000C0071000B0070F00A10710009117
:100CE000070E0083070F0074070F0065070E0057FB
:100CF000070E0049070E003B070D002E070E0020CF
:100D0000070D0013070D0006070D00F9060C00ED96
:100D1000060D00E0060C00D4060C00C8060C00BC52
:100D2000060C00B0060C00A4060B0099060C008D02
:100D3000060B0082060B0077060B006C060B0061A9
:100D4000060A0057060B004C060A0042060A003845
:100D5000060A002E060A0024060A001A060A0010D7
:100D600006090007060A00FD050900F4050900EB65
:100D7000050900E2050900D9050900D0050900C7E9
:100D8000050900BE050900B5050800AD050800A568
:100D90000509009C050800940508008C05080084DE
:100DA0000508007C050800740508006C050700654F
:100DB0000508005D050700560508004E05070047B9
:100DC0000507004005080038050700310507002A1F
:100DD000050700230507001C050600160507000F80
:100DE0000507000805060002050700FB040600F5DC
:100DF000040700EE040600E8040600E2040700DB36
:100E0000040600D5040600CF040600C9040600C38A
:100E1000040600BD040600B7040600B1040500ACDA
:100E2000040600A6040600A00405009B0406009525
:100E3000040500900406008A04050085040500806E
:100E40000406007A04050075040500700405006BB3
:100E500004050066040500610405005C04050057F4
:100E6000040500520405004D040500480405004334
:100E70000405003E0404003A040500350405003072
:100E80000404002C04050027040400230405001EAC
:100E90000404001A04040016040500110404000DE3
:100EA000040400090405000404040000040400FC18
:100EB000030400F8030400F4030400F0030400EC4E
:100EC000030400E8030400E4030400E0030400DC7E
:100ED000030400D8030400D4030400D0030400CCAE
:100EE000030400C8030300C503030024F404D9204D
:100EF0001BC40C5C0E9804C4095F0265077101F401
:100F000005F900FB04B30048048700C103690058D9
:100F100003550003034500BE023A0084023100532A
:100F2000022A002902250004022000E4011C00C856
:100F3000011900AF0117009801140084011300711A
:100F40000110006101100051010E0043010D003637
:100F5000010B002B010B0020010B00150109000CF7
:100F600001090003010800FB000800F3000800EB82
:100F7000000700E4000600DE000600D8000600D2EC
:100F8000000600CC000500C7000500C2000500BD3A
:100F9000000400B9000400B5000400B1000400AD75
:100FA000000400A9000400A5000300A20003009FA4
:100FB0000004009B000300980003009500020093CA
:100FC000000300900003008D0002008B00030088E6
:100FD0000002008600020084000300810002007FFE
:100FE0000002007D0002007B000200790002007711
:100FF000000100760002007400020072000100711E
:101000000002006F0002006D0001006C0002006A27
:101010000001006900020067000100660001006530
:101020000001006400020062000100610001006034
:101030000001005F0002005D0001005C0001005B38
:101040000001005A0001005900010058000100573A
:10105000000100560001005500010054000100533A
:101060000000005300010052000100510001005037
:101070000001004F0001004E0000004E0001004D35
:101080000001004C0001004B0000004B0001004A31
:10109000000100490001004800000048000100472D
:1010A0000001004600000046000100450000004528
:1010B0000001004400010043000000430001004221
:1010C000000000420001004100000041000100401A
:1010D0000001003F0000003F0001003E0000003E14
:1010E0000001003D0000003D0001003C0000003C0C
:1010F0000000003C0001003B0000003B0001003A02
:101100000000003A000100390000003900010038F9
:1011100000000038000000380001003700000037F0
:1011200000010036000000360000003600010035E6
:1011300000000035000000350001003400000034DC
:1011400000000034000100330000003300000033D1
:1011500000010032000000320000003200010031C6
:1011600000000031000000310001003000000030BC
:10117000000000300001002F0000002F0000002FB1
:101180000000002F0001002E0000002E0000002EA5
:101190000001002D0000002D0000002D0000002D9A
:1011A0000001002C0000002C0000002C0000002C8E
:1011B0000001002B0000002B0000002B0000002B82
:1011C0000001002A0000002A0000002A0000002A76
:1011D000000100290000002900000029000000296A
:1011E000000000290001002800000028000000285D
:1011F0000000002800000028000100270000002750
:101200000000002700000027000000270001002642
:101210000000002600000026000000260000002636
:101220000001002500000025000000250000002529
:10123000000000250000002500010024000000241B
:10124000000000240000002400000024000100230E
:101250000000002300000023000000230000002302
:1012600000000023000000230001002200000022F3
:1012700000000022000000220000002200000022E6
:1012800000010021000000210000002100000021D9
:1012900000000021000000210000002100010020CA
:1012A00000000020000000200000002000000020BE
:1012B0000000002000000020000000200001001FAE
:1012C0000000001F0000001F0000001F0000001FA2
:1012D0000000001F0000001F0001001E0000001E93
:1012E0000000001E0000001E000000393000003326
:1012F00025000087190000B00F0000DB080000BDCA
:10130000040000740200003F010000454550524FA8
:101310004D206461746173697A65206572726F72C1
:101320002E0A00290A002062797465733B206372DB
:1013300063200053657474696E67732053746F7211
:101340006564202800290A002062797465733B20B7
:1013500063726320002073746F7265642073657418
:1013600074696E677320726574726965766564204E
:101370002800202863616C63756C617465642921A1
:101380000A0020213D2000454550524F4D20435238
:1013900043206D69736D61746368202D2028737418
:1013A0006F7265642920002053697A653A200049EC
:1013B0006E6465783A2000204D61726C696E3D560E
:1013C0003535290A0028454550524F4D3D004545C9
:1013D00050524F4D2076657273696F6E206D697340
:1013E0006D6174636820001000C90210012C014077
:1013F00001220170011801B0010E01F00104015039
:1014000002FA00B002F0003003E600D003DC0090E6
:1014100004D2007005C800A006BE000008B400B0E9
:1014200009AA00D00BA000600E960060118C00008D
:1014300015820020197800C01D6E00A0226400B043
:10144000275A00902C500000314600E0343C001038
:10145000383200903A2800603C1E00A03D14008005
:101460003E0A00203F00004534004533004532006D
:101470004531004530005A32005932005832005A86
:101480000059005800453120544845524D414C20E8
:1014900052554E4157415900424544205448455207
:1014A0004D414C2052554E41574159005468657288
:1014B0006D616C2052756E61776179004531204510
:1014C00072723A204D415854454D50004572723A5F
:1014D000204D415854454D5020424544004D4158FF
:1014E00054454D50207472696767657265640045A4
:1014F00031204572723A204D494E54454D500045B9
:1015000072723A204D494E54454D50204245440098
:101510004D494E54454D5020747269676765726538
:1015200064004D383420582059205A204500202F7F
:10153000002042403A0020403A0025753A253032DA
:101540007500253032753A253032750025756420D6
:10155000253032753A2530327500831481147F149A
:101560007C1479147614731470146D146A1467144F
:10157000747275650066616C7365002074656D70CA
:1015800065726174757265207072657761726E2024
:101590007472696767657265643A200020707265CD
:1015A0007761726E20666C616720636C656172653D
:1015B000640A0020686F6D696E672073656E7369D9
:1015C0007469766974793A2000447269766572208C
:1015D0007265676973746572733A006F7409006F9E
:1015E00074707709007332676109007332676209AA
:1015F000006F6C6109006F6C620900737473740989
:10160000006673616374697665090073675F72656C
:1016100073756C7409007374616C6C6775617264C6
:101620000900445256535441545553005374616C4D
:101630006C67756172642074687273002D737461D5
:1016400072740900687973746572657369730A2D21
:10165000656E640900626C616E6B2074696D650073
:101660006F66662074696D6509004F54207072655D
:101670007761726E206861730A6265656E207472AC
:1016800069676765726564004F54207072657761A1
:10169000726E005B6D6D2F735D090070776D0A745B
:1016A00068726573686F6C6409007473746570099F
:1016B000006D73746570730900737465616C746890
:1016C00043686F70007673656E7365090050574DFF
:1016D000207363616C650900435320616374756115
:1016E0006C0900486F6C642063757272656E7400DB
:1016F00052756E2063757272656E74004D4158208C
:1017000063757272656E7400524D53206375727208
:10171000656E74005365742063757272656E740033
:10172000456E61626C65640900090020746F6F206A
:101730006C6F6E6720657874727573696F6E207058
:10174000726576656E7465640A0020636F6C642050
:10175000657874727573696F6E2070726576656EE8
:101760007465640A00000000000102040400000027
:101770001C1C0C04040402010000000000040810FA
:1017800000000000002D2D2D2D2D2D007C4D6172AF
:101790006C696E7C002D2D2D2D2D2D0068747470BC
:1017A0003A2F2F6D61726C696E66772E6F726700CB
:1017B000687474703A2F2F6D61726C696E66772E43
:1017C0006F72670020312E312E39002020506C615D
:1017D0006E6E657242756666657242797465733ABB
:1017E00020002046726565204D656D6F72793A2044
:1017F00000436F6D70696C65643A204E6F762020EF
:101800003420323031390A00207C20417574686FF1
:10181000723A20287061656E69616E2C204D4B53C1
:101820002047454E204C20312E30290A00323031DD
:10183000382D30382D303100204C617374205570B4
:1018400064617465643A2000312E312E390A004DEE
:1018500061726C696E0020536F66747761726520E7
:1018600052657365740A00205761746368646F671A
:101870002052657365740A002042726F776E206F84
:1018800075742052657365740A002045787465721A
:101890006E616C2052657365740A00506F776572D3
:1018A00055700A0073746172740A006175746F2553
:1018B000692E67006572726F722077726974696E43
:1018C0006720746F2066696C650A00456E647374E6
:1018D0006F70732025632025632025632025630016
:1018E000205A3A0020593A0020583A00656E647335
:1018F000746F7073206869743A2000446F6E6520BD
:10190000736176696E672066696C652E0A004D32D8
:101910003900436172642072656D6F7665640043BF
:1019200061726420696E736572746564005A5F53F6
:101930005445505F50494E005A5F4D494E5F5049E3
:101940004E005A5F454E41424C455F50494E005A49
:101950005F4449525F50494E005A5F43535F5049BC
:101960004E00595F535445505F50494E00595F4DEA
:10197000494E5F50494E00595F454E41424C455FCC
:1019800050494E00595F4449525F50494E00595FDB
:1019900043535F50494E00585F535445505F504980
:1019A0004E00585F4D494E5F50494E00585F454EBE
:1019B00041424C455F50494E00585F4449525F5088
:1019C000494E00585F43535F50494E0053535F5098
:1019D000494E00534552564F335F50494E005345D0
:1019E00052564F325F50494E00534552564F315F69
:1019F00050494E00534552564F305F50494E0053A8
:101A00004453530053445F4445544543545F504945
:101A10004E0053434B5F50494E0052414D50535F6F
:101A200044395F50494E0052414D50535F44385F36
:101A300050494E0052414D50535F4431305F504940
:101A40004E0050535F4F4E5F50494E004D4F53492B
:101A50005F50494E004D4F534645545F445F5049D7
:101A60004E004D49534F5F50494E004D4158363658
:101A700037355F5353004C45445F50494E004C434B
:101A8000445F50494E535F5253004C43445F5049AA
:101A90004E535F454E41424C45004C43445F5049D4
:101AA0004E535F4437004C43445F50494E535F44AC
:101AB00036004C43445F50494E535F4435004C431D
:101AC000445F50494E535F4434004B494C4C5F5087
:101AD000494E004845415445525F4245445F504994
:101AE0004E004845415445525F305F50494E0046D4
:101AF000494C5F52554E4F55545F50494E00464138
:101B00004E315F50494E0046414E5F50494E0045B0
:101B1000315F535445505F50494E0045315F454E4B
:101B200041424C455F50494E0045315F4449525F48
:101B300050494E0045315F43535F50494E00453098
:101B40005F535445505F50494E0045305F454E410C
:101B5000424C455F50494E0045305F4449525F500A
:101B6000494E0045305F43535F50494E0045305F5A
:101B70004155544F5F46414E5F50494E00455F4DC1
:101B80005558325F50494E00455F4D5558315F50B2
:101B9000494E00455F4D5558305F50494E00544DF9
:101BA000435F53575F53434B00544D435F53575F5D
:101BB0004D4F534900544D435F53575F4D49534F69
:101BC0000042544E5F454E430042544E5F454E32F4
:101BD0000042544E5F454E31004245455045525FEC
:101BE00050494E004156525F53535F50494E004199
:101BF00056525F53434B5F50494E004156525F4D22
:101C00004F53495F50494E004156525F4D49534F23
:101C10005F50494E0054454D505F4245445F504926
:101C20004E0054454D505F315F50494E0054454D74
:101C3000505F305F50494E0046494C574944544824
:101C40005F50494E00545844005258440046696C55
:101C5000652064656C657465643A0044656C657400
:101C6000696F6E206661696C65642C2046696C65DD
:101C70003A2000000136372603FFFFFF3B3C3D388A
:101C80000EFFFFFF3F2E303E12FFFFFFFF28FF0C2D
:101C9000080907FFFF1A1C18FFFF2A08440A074318
:101CA00050726F7465637465642050696E0A002019
:101CB00020206E6F6E2D7374616E646172642050AB
:101CC000574D206D6F646500433A2000423A200072
:101CD000413A200020202020434F4D002020206347
:101CE0006F6D7061726520696E7465727275707463
:101CF00020656E61626C6564002020206F766572DD
:101D0000666C6F7720696E74657272757074206589
:101D10006E61626C6564003A2000202020205449E6
:101D20004D534B00423A2000202020205443435280
:101D300000413A200020202020544343520020201C
:101D4000202043533A20002020202057474D3A209E
:101D50000050574D3A20202534640050574D3A200A
:101D6000202534640047004800000088008A008C69
:101D700000B300B400000098009A009C00A800AADC
:101D800000AC0028012A012C012020202054494DBC
:101D9000455200440045006E00800081006F00B095
:101DA00000B1007000900091007100A000A10072CD
:101DB0000020012101730020697320616C736F2082
:101DC0007469656420746F20746869732070696E2B
:101DD0000054494D45523143000A202E0020200076
:101DE0002020506F72743A20004F75747075742003
:101DF0003D2000496E70757420203D200050574DE5
:101E00003A20202534640050574D3A202025346470
:101E10000050574D3A20202534640050574D3A2049
:101E2000202534640050574D3A202025346400505A
:101E3000574D3A20202534640050574D3A20202534
:101E400034640050574D3A20202534640050574DDB
:101E50003A20202534640050574D3A202025346420
:101E60000050574D3A20202534640050574D3A20F9
:101E7000202534640050574D3A202025346400500A
:101E8000574D3A20202534640050574D3A202025E4
:101E900034640050574D3A2020253464002020201F
:101EA00000202020416E616C6F6720696E203D200C
:101EB000253564003C756E757365642F756E6B6EA9
:101EC0006F776E3E002028412532642920200025AE
:101ED0007350494E3A202533642000416E616C6F87
:101EE0006720696E203D202535640070726F74652F
:101EF0006374656420002028412532642920200075
:101F0000257350494E3A202533642000491C0001B6
:101F1000451C0101381C3B002D1C4300221C4500C0
:101F2000151C4400081C3201FB1B3301EF1B34015C
:101F3000E41B3501D91B2501D11B1F01C91B210140
:101F4000C11B2301B51B2C01A91B42019E1B400193
:101F5000931B2801881B2A017D1B2C016D1B070187
:101F6000631B2A01581B1C014A1B18013E1B1A0146
:101F7000341B2C01291B22011B1B1E010F1B2401DA
:101F8000071B0901FE1A0701EF1A0401E21A0A01F0
:101F9000D31A0801CA1A2901BE1A1701B21A190167
:101FA000A61A1B019A1A1D018A1A11017E1A100124
:101FB000761A0D016B1A4201621A3201551A070195
:101FC0004C1A3301421A0C01341A0A01271A08016B
:101FD0001A1A0901121A3401041A3101FF193501C4
:101FE000F4190B01E9190601DE190501D3190401E1
:101FF000CC193501C3193B01B9193701AC192601B8
:10200000A2190301971936018E193F0184193D0168
:10201000771938016D190E0162193C01591928010F
:102020004F19300142193E01381912012D192E01A4
:102030002D2D2D0053440020202020202000202082
:102040002020004D4B53204E6F76612049332052A3
:10205000656164792E005072696E74696E672E2E08
:102060002E005072696E7420706175736564005043
:1020700072696E742061626F727465640050726977
:102080006E742066726F6D2053440053746F70201D
:102090007072696E7400526573756D652070726937
:1020A0006E74004E6F20534420636172640050616F
:1020B000757365207072696E7400436F6E74726F11
:1020C0006C00507265706172650054756E650049F0
:1020D0006E666F2073637265656E0050726F626525
:1020E000205A204F6666736574004368616E6765A9
:1020F0002066696C616D656E74004368616E67652A
:102100002066696C616D656E74004D36303020421A
:10211000300050726F6265205A204F666673657496
:1021200000466C6F7700466C6F7700466C6F7700E7
:1021300046616E2073706565640046616E20737041
:102140006565640046616E20737065656400426574
:10215000640042656400426564004E6F7A7A6C6583
:10216000004E6F7A7A6C65004E6F7A7A6C65004625
:10217000616465204865696768740046616465202C
:1021800048656967687400466164652048656967E9
:10219000687400537065656400537065656400532E
:1021A00070656564004D61696E00000040C100000B
:1021B00070C10000000000004843000048430000D8
:1021C000C84342696C696E656172204C6576656CC6
:1021D000696E6720477269643A0A00486F6D696EDC
:1021E00067206661696C6564002028445259525525
:1021F0004E2900473239204175746F2042656420B2
:102200004C6576656C696E67003F20284C2C522C1B
:10221000462C4229206F7574206F6620626F756EA0
:1022200064732E0A003F2856296572626F73652019
:102230006C6576656C20697320696D706C6175736F
:1022400069626C652028302D34292E0A00426164B1
:10225000205A2076616C75650A004E6F2062696CA9
:10226000696E65617220677269640A004D323400DC
:102270004D323320257300556E6B6E6F776E206381
:102280006F6D6D616E643A202200486F74656E64F4
:1022900020746F6F20636F6C640A0050726F626904
:1022A0006E67206661696C65640A0050726F6269CE
:1022B0006E67206661696C656400205A3A200020D0
:1022C000593A200042656420583A2000000020005E
:1022D0002300260029002C002F00320000010000FE
:1022E00003010601090100002200250028002B003F
:1022F0002E003100340002010000050108010B012D
:1023000005050505070508080808020202020A0A71
:10231000080804040404010101010101010103038F
:10232000030303030303040707070C0C0C0C0C0C3A
:102330000C0C0202020206060606060606060B0B37
:102340000B0B0B0B0B0B0102102020080810204078
:102350001020408002010201080402010102040869
:1023600010204080804020100804020180040201F7
:102370008040201008040201080402010102040840
:102380001020408001020408102040806F70656EAC
:10239000206661696C65642C2046696C653A200092
:1023A00043616E6E6F74206F70656E20737562642A
:1023B000697220006563686F3A00001C1F11111FCD
:1023C00000000006191803130C00040E1F041C0063
:1023D0000000000E1315110E00001C101817050642
:1023E0000500040A0A0A0A11110E0C12120C000050
:1023F0000000001F1511151F00005072656865610F
:102400007420504C4120456E6400507265686561CF
:102410007420504C412042656400507265686561CB
:102420007420504C410050726570617265005072AA
:1024300065686561742041425320456E64005072A6
:1024400065686561742041425320426564005072A2
:102450006568656174204142530050726570617215
:1024600065004D34323800507265686561742050E3
:102470004C4100436F6F6C646F776E0050726568FB
:1024800065617420414253004368616E6765206650
:10249000696C616D656E74004368616E6765206686
:1024A000696C616D656E74004D36303020423000CD
:1024B00044697361626C65207374657070657273D2
:1024C000004D38340053657420686F6D65206F6669
:1024D0006673657473004661646520486569676862
:1024E00074004661646520486569676874004661E8
:1024F000646520486569676874004F6666004F6EC2
:102500002000426564204C6576656C696E67004CFE
:102510006576656C20626564004732380A47323957
:102520000043616C696272617465205A00473238F9
:102530000A4D393135004175746F20686F6D650043
:10254000473238004D6F76652061786973004D61C0
:10255000696E004D6F76652058004D6F7665205985
:10256000004D6F7665205A00457874727564657207
:10257000004D6F766520302E316D6D004D6F7665A4
:1025800020316D6D004D6F76652031306D6D004DE1
:102590006F7665206178697300457874727564653B
:1025A00072004D6F7665205A004D6F766520590098
:1025B0004D6F7665205800205A3A0020593A002085
:1025C000436F756E7420583A0020453A00205A3AFD
:1025D0000020593A00583A003A004361703A0057D7
:1025E00041524E494E4721204C6F77205A204A6570
:1025F000726B206D6179206C65616420746F207549
:102600006E77616E746564207061757365732E0AF0
:1026100000205A00205900580020204D61783A20AF
:1026200000205A00205900580020204D696E3A20A1
:10263000004F6E20004F666600536F667420656E13
:102640006473746F70733A200020643A0020693A12
:102650000020703A00496E76616C69642065787478
:1026600072756465720A004B6420002364656669B4
:102670006E652044454641554C545F004B6920002F
:1026800023646566696E652044454641554C545F38
:10269000004B70200023646566696E6520444546E2
:1026A00041554C545F00504944204175746F747516
:1026B0006E652066696E6973686564212050757463
:1026C00020746865206C617374204B702C204B69FA
:1026D00020616E64204B6420636F6E7374616E744E
:1026E000732066726F6D2062656C6F7720696E74FF
:1026F0006F20436F6E66696775726174696F6E2EC5
:10270000680A00504944204175746F74756E6520E5
:102710006661696C6564212074696D656F75740A02
:1027200000453120544845524D414C2052554E41B0
:102730005741590042454420544845524D414C2090
:1027400052554E4157415900546865726D616C2075
:1027500052756E6177617900453120486561746911
:102760006E67206661696C65640042656420686517
:102770006174696E67206661696C656400486561B3
:1027800074696E67206661696C6564005049442015
:102790004175746F74756E65206661696C6564213E
:1027A0002054656D706572617475726520746F6F09
:1027B00020686967680A00204B643A2000204B6952
:1027C0003A2000204B703A20000A20436C6173735A
:1027D000696320504944200A002054753A200020A3
:1027E0004B753A2000206D61783A2000206D696EAB
:1027F0003A200020643A200020626961733A200088
:10280000504944204175746F74756E652066616926
:102810006C6564212042616420657874727564651A
:1028200072206E756D6265720A00504944204175D0
:10283000746F74756E652073746172740A004F66EC
:10284000660A00466164652048656967687420000F
:10285000426564204C6576656C696E672000466150
:10286000696C656420746F20656E61626C652042DE
:102870006564204C6576656C696E670A0020204EA1
:102880006F7A7A6C653A20006368616E6765006FE5
:1028900066207468652066696C616D656E740057AA
:1028A00061697420666F72207374617274002020F5
:1028B0004E6F7A7A6C653A200066696C616D656E60
:1028C0007420756E6C6F6164005761697420666F67
:1028D000720020204E6F7A7A6C653A2000506C6549
:1028E00061736520776169742E2E2E0048656174CE
:1028F000696E67206E6F7A7A6C650020204E6F7A61
:102900007A6C653A200068656174206E6F7A7A6C23
:10291000652E00507265737320627574746F6E203B
:10292000746F0020204E6F7A7A6C653A2000746FC5
:1029300020636F6E74696E75652E2E2E00616E6455
:1029400020707265737320627574746F6E00496EC7
:10295000736572742066696C616D656E7400202009
:102960004E6F7A7A6C653A200066696C616D656EAF
:1029700074206C6F6164005761697420666F720027
:1029800020204E6F7A7A6C653A200066696C616D22
:10299000656E742070757267650057616974206692
:1029A0006F7200746F20726573756D650057616991
:1029B0007420666F72207072696E7400457874724C
:1029C00075646572004D6F7665205A004D6F7665AF
:1029D0002059004D6F766520580050726570617205
:1029E0006500496E697469616C697A652045455076
:1029F000524F4D00436F6E74726F6C00526573746A
:102A00006F7265206661696C73616665004C6F6109
:102A1000642073657474696E677300496E697469C4
:102A2000616C697A6520454550524F4D0053746F73
:102A300072652073657474696E67730046696C61B2
:102A40006D656E74004D6F74696F6E0054656D70C6
:102A500065726174757265004D61696E00507265D2
:102A6000686561742041425320636F6E6600507246
:102A7000656865617420504C4120636F6E6600503C
:102A800049442D44005049442D44005049442D49A7
:102A9000005049442D49005049442D5000504944AC
:102AA0002D50002002204661637400200220466100
:102AB0006374002002204D6178002002204D61786F
:102AC000002002204D6178002002204D696E002018
:102AD00002204D696E002002204D696E004F66662F
:102AE000004F6E20004175746F74656D7000466113
:102AF0006E2073706565640046616E207370656555
:102B0000640046616E207370656564004265640010
:102B100042656400426564004E6F7A7A6C65004ECF
:102B20006F7A7A6C65004E6F7A7A6C6500436F6ECF
:102B300074726F6C0053746F72652073657474697E
:102B40006E6773004265640042656400426564001C
:102B50004E6F7A7A6C65004E6F7A7A6C65004E6FB4
:102B60007A7A6C650046616E207370656564004614
:102B7000616E2073706565640046616E20737065D8
:102B800065640054656D7065726174757265005698
:102B900054726176206D696E005654726176206DB4
:102BA000696E005654726176206D696E00566D69CB
:102BB0006E00566D696E00566D696E00566D6178D7
:102BC000204500566D6178204500566D617820459E
:102BD00000566D6178205A00566D6178205A005673
:102BE0006D6178205A00566D6178205900566D61EC
:102BF00078205900566D6178205900566D61782013
:102C00005800566D6178205800566D617820580044
:102C10004D6F74696F6E00416D6178204500416DA4
:102C20006178204500416D6178205A00416D6178DE
:102C3000205A00416D6178205900416D617820591A
:102C400000416D6178205800416D61782058004145
:102C50002D74726176656C00412D74726176656CBD
:102C600000412D7265747261637400412D72657448
:102C70007261637400416363656C00416363656CFA
:102C8000004D6F74696F6E0056652D6A65726B003A
:102C900056652D6A65726B0056652D6A65726B000C
:102CA000567A2D6A65726B00567A2D6A65726B00D2
:102CB00056792D6A65726B0056792D6A65726B00C4
:102CC00056792D6A65726B0056782D6A65726B00B5
:102CD00056782D6A65726B0056782D6A65726B00A6
:102CE0004D6F74696F6E004573746570732F6D6DF1
:102CF000004573746570732F6D6D005A7374657041
:102D0000732F6D6D005A73746570732F6D6D00595C
:102D100073746570732F6D6D005973746570732FC4
:102D20006D6D005873746570732F6D6D00587374FA
:102D30006570732F6D6D004D6F74696F6E004D651A
:102D4000736820706F696E742063616E6E6F74209B
:102D50006265207265736F6C7665640A004D34326B
:102D60003120696E636F7272656374207061726185
:102D70006D657465722075736167650A004F6666DC
:102D800073657473206170706C696564004572725C
:102D90003A20546F6F206661722100546F6F206675
:102DA00061722066726F6D207265666572656E6312
:102DB0006520706F696E740A004D3630303A2054C9
:102DC0006F6F20636F6C6400486F74656E6420746D
:102DD0006F6F20636F6C640A00496E7365727420B4
:102DE00066696C616D656E7420616E6420707265D9
:102DF000737320627574746F6E0A0050726573731A
:102E000020627574746F6E20746F20686561742021
:102E10006E6F7A7A6C650A00496E7365727420660B
:102E2000696C616D656E7420616E6420707265738B
:102E30007320627574746F6E20286F72204D31306C
:102E400038290A00496E736572742066696C616D79
:102E5000656E7420616E6420707265737320627594
:102E600074746F6E20286F72204D313038290A003B
:102E7000473238205A000A486F6D696E67205A2021
:102E800064756520746F206C6F7374207374657043
:102E9000730A000A43616C6962726174696F6E2023
:102EA00063757272656E743A205A000A506C6561DF
:102EB000736520686F6D65205A206178697320669C
:102EC000697273740A002569730025696D2025698C
:102ED00073002569682025696D20256973002569BF
:102EE00064202569682025696D202569730025699E
:102EF0007920256964202569682025696D20256968
:102F000073004B494C4C45442E200053544F5050B5
:102F100045442E20005072696E7465722073746F80
:102F2000707065642064756520746F206572726FBF
:102F300072732E2046697820746865206572726FFE
:102F40007220616E6420757365204D3939392074A3
:102F50006F20726573746172742E202854656D70D1
:102F6000657261747572652069732072657365742A
:102F70002E20536574206974206166746572207216
:102F8000657374617274696E67290A004E6F20431D
:102F90006865636B73756D2077697468206C696E02
:102FA00065206E756D6265722C204C617374204CC7
:102FB000696E653A20004E6F20436865636B7375D8
:102FC0006D2077697468206C696E65206E756D621E
:102FD00065722C204C617374204C696E653A200038
:102FE000636865636B73756D206D69736D61746380
:102FF000682C204C617374204C696E653A20004C3B
:10300000696E65204E756D626572206973206E6F02
:1030100074204C617374204C696E65204E756D622E
:1030200065722B312C204C617374204C696E653AAB
:1030300020004D313130004D333100534420726552
:103040006164206572726F720A00446F6E65207051
:1030500072696E74696E672066696C650A00204942
:103060006E76616C6964206578747275646572202F
:10307000007C2000207C3062003A00206375727270
:10308000656E742064656372656173656420746F36
:1030900020006D41290A0020647269766572206FF4
:1030A00076657274656D706572617475726520778E
:1030B00061726E696E67212028003A2000447269AF
:1030C000766572206572726F720073686F72742019
:1030D000746F2067726F756E642028636F696C204F
:1030E00042290A0073686F727420746F2067726FD0
:1030F000756E642028636F696C2041290A006F7621
:10310000657274656D70657261747572650A002010
:10311000647269766572206572726F72206465747C
:1031200065637465643A0A00747275650066616C63
:10313000736500747275650066616C736500747206
:1031400075650066616C736500313D2E3138003065
:103150003D2E333235002F3331002F3331002F33E2
:103160003100747275650066616C73650048617248
:1031700064636F6465642044656661756C74205394
:10318000657474696E6773204C6F616465640A00CE
:10319000E8030000F4010000140000001027000004
:1031A000000096430000C842000040400000C841B3
:1031B0000000A0420000A0420000FA4400801A4330
:1031C00020204D393036003A0A0020286D6D290044
:1031D00020204D3931340020204D3630332000205E
:1031E00055004C0046696C616D656E74206C6F61B2
:1031F000642F756E6C6F6164206C656E67746873A4
:103200003A0A0020590020580053656E736F726CA3
:1032100065737320686F6D696E672074687265737B
:10322000686F6C643A0A00205430204500205A0030
:1032300020590020580053746570706572206472C4
:10324000697665722063757272656E743A0A002041
:10325000204D383531205A005A2D50726F6265204A
:103260004F66667365740020440020490020204D9D
:1032700033303420500020440020490020204D33BA
:1032800030312050005049442073657474696E6772
:10329000733A0A0020460020420020480020204DBA
:1032A0003134352053004D6174657269616C20685A
:1032B000656174757020706172616D65746572739B
:1032C0003A0A00205A00204A00202047323920576D
:1032D000204900205A0020204D3432302053004134
:1032E00075746F20426564204C6576656C696E6705
:1032F0003A0A00205A0020590020204D3230362052
:103300005800486F6D65206F66667365743A0A00F1
:10331000204500205A002059002058002054002049
:10332000530020204D32303520510020453C6D6146
:10333000785F655F6A65726B3E0020583C6D61780E
:103340005F785F6A65726B3E20593C6D61785F798A
:103350005F6A65726B3E205A3C6D61785F7A5F6A86
:1033600065726B3E00416476616E6365643A20511C
:103370003C6D696E5F7365676D656E745F74696DD2
:10338000655F75733E20533C6D696E5F666565646D
:10339000726174653E20543C6D696E5F7472617633
:1033A000656C5F66656564726174653E00205400FB
:1033B00020520020204D323034205000416363659C
:1033C0006C65726174696F6E2028756E6974732FF5
:1033D0007332293A20503C7072696E745F61636386
:1033E000656C3E20523C726574726163745F616308
:1033F00063656C3E20543C74726176656C5F6163FA
:1034000063656C3E0A00204500205A0020590020C8
:10341000204D3230312058004D6178696D756D2036
:10342000416363656C65726174696F6E2028756EA7
:103430006974732F7332293A0A00204500205A001C
:1034400020590020204D3230332058004D617869DA
:103450006D756D206665656472617465732028758D
:103460006E6974732F73293A0A00204500205A00B0
:1034700020590020204D3932205800537465707354
:103480002070657220756E69743A0A0020204D32F2
:1034900030302044300A0020204D323030204400AB
:1034A0002044697361626C65640A0046696C616DF1
:1034B000656E742073657474696E67733A002020BA
:1034C0004D3134392043203B20556E697473206997
:1034D0006E2043656C736975730A00202047323192
:1034E000202020203B0053746570732F6D6D004ABF
:1034F00065726B00416363656C65726174696F6EC0
:103500000056656C6F636974790050726F62652054
:103510005A204F666673657400436F6E74726F6CE9
:10352000004C6F6164206D6D004C6F6164206D6DA7
:10353000004C6F6164206D6D00556E6C6F6164208E
:103540006D6D00556E6C6F6164206D6D00556E6C15
:103550006F6164206D6D0046696C2E204469612E98
:103560000046696C2E204469612E004F6666004F4C
:103570006E20004520696E206D6D3300436F6E74C0
:10358000726F6C0043616E6E6F7420656E7465724D
:10359000207375626469723A2000052E2E004D6119
:1035A000696E004D37303220542564004D3630307E
:1035B00020423020542564004D373032203B2564B2
:1035C000004D37303120542564004368616E6765D3
:1035D0002066696C616D656E740050726568656126
:1035E0007420414253005072656865617420504CEC
:1035F00041004368616E67652066696C616D656E48
:1036000074005052494E5420504155534544005582
:103610004E4C4F41442046494C414D454E54004C80
:103620004F41442046494C414D454E54005075721F
:103630006765206D6F726500436F6E74696E7565A6
:1036400000524553554D45204F5054494F4E533A23
:1036500000486F6D65202573257325732066697298
:103660007374002066697273740A005A0059005816
:1036700000486F6D65200053442063617264206FC1
:103680006B0A006F70656E526F6F74206661696CB3
:1036900065640A00766F6C756D652E696E697420BD
:1036A0006661696C65640A00534420696E69742020
:1036B0006661696C0A0057726974696E6720746F7D
:1036C0002066696C653A20006F70656E20666169DE
:1036D0006C65642C2046696C653A20006F70656EDD
:1036E000206661696C65642C2046696C653A20002F
:1036F00046696C652073656C65637465640A0020B7
:1037000053697A653A200046696C65206F70656E72
:1037100065643A20002066696C653A2000646F6930
:103720006E67006672657368004E6F772000454EC5
:103730004420535542524F5554494E450A002220C9
:10374000706F73002220706172656E743A220053AC
:103750005542524F5554494E452043414C4C2074DC
:1037600061726765743A22004B494C4C45442E20E7
:1037700000747279696E6720746F2063616C6C20CD
:103780007375622D67636F64652066696C6573206D
:103790007769746820746F6F206D616E79206C6535
:1037A00076656C732E204D4158206C6576656C20D3
:1037B00069733A004572726F723A00FFFDFCFAF8C5
:1037C000F6F4F2F0EEECEAE9E7E5E3E1E0DEDCDA7C
:1037D000D9D7D5D4D2D0CFCDCBCAC8C7C5C3C2C024
:1037E000BFBDBCBAB9B7B6B4B3B2B0AFADACAAA99D
:1037F000A8A6A5A4A2A1A09E9D9C9A9998979594ED
:103800009392908F8E8D8B8A89888786848382811C
:10381000807F7E7D7B7A797877767574737271702C
:103820006F6E6D6C6B6A6968676665646362616020
:103830005F5E5D5C5B5A5958585756555453525108
:1038400050504F4E4D4C4B4A4A49484746464544D6
:1038500043424241403F3E3E3D3C3B3B3A39383893
:1038600037363535343332323130302F2E2E2D2C41
:103870002B2B2A29292827272625252423232221E3
:103880002120201F1E1E1D1C1C1B1B1A1919181875
:10389000171616151514131312121111100F0F0EFF
:1038A0000E0D0D0C0C0B0A0A09090808070706067D
:1038B00005050404030302020100004572726F72E1
:1038C0002077726974696E6720746F204545505285
:1038D0004F4D210A00446F6E652E0A0061626C65CF
:1038E000640A0064697300656E00656E6473746FCA
:1038F00070206D6F6E69746F722000534552564F81
:10390000206E6F742073657475700A00576174635C
:1039100068696E672070696E730A0046696C616D34
:10392000656E7420757365643A2000537461747316
:103930003A20002C204C6F6E67657374206A6F62AA
:103940003A2000546F74616C2074696D653A2000F0
:1039500053746174733A20002C204661696C65646D
:103960003A20002C2046696E69736865643A20002D
:103970005072696E74733A200053746174733A2004
:103980000020573A004520436F6F6C696E672E2EFA
:103990002E00452048656174696E672E2E2E00202A
:1039A000573A0042656420636F6F6C696E672E2E14
:1039B0002E004265642068656174696E672E2E2E44
:1039C0000000002100240027002A002D00300033D1
:1039D0000001010000040107010A0100000A0B02B6
:1039E000090C0D0E08070304010000000000000090
:1039F00000000000000000000000000000000000C7
:103A00000000000000000012111000000000000083
:103A100000000000000000000000000000000000A6
:103A200000203D2030780007FFFFFFFFFF0001016D
:103A30000101016265640A002C2073797374656D5D
:103A40002073746F707065642120486561746572BD
:103A50005F49443A20004265642068656174696E7C
:103A600067206661696C65640048656174696E67AA
:103A7000206661696C656400453120486561746940
:103A80006E67206661696C65640048656174696E83
:103A900067206661696C65640070012C01900127E4
:103AA00001B0012201C0011D01F001180110021333
:103AB0000130020E016002090190020401C002FF00
:103AC000000003FA004003F5008003F000D003EB90
:103AD000002004E6007004E100E004DC004005D7AB
:103AE00000C005D2004006CD00D006C8008007C344
:103AF000003008BE00F008B900C009B400B00AAF39
:103B000000B00BAA00D00CA500000EA000500F9B27
:103B100000C01096005012910000148C00C0158750
:103B200000B0178200B0197D00D01B7800001E7312
:103B30000040206E0090226900F024640040275F5E
:103B40000090295A00E02B5500102E500020304BD9
:103B50000010324600E033410090353C001037370A
:103B60000070383200A0392D00B03A2800A03B2365
:103B700000603C1E00103D1900903D1400103E0FE7
:103B800000703E0A00C03E0500003F0000403FFBC1
:103B9000FF803FF6FFC03FF1FF545249474745526F
:103BA0004544006F70656E003A200066696C616D77
:103BB000656E74007A5F6D696E00795F6D696E0085
:103BC000785F6D696E005265706F7274696E672000
:103BD000656E6473746F70207374617475730A001A
:103BE0000000000100000001000080005555550054
:103BF0000000400033333300AAAA2A00499224006F
:103C000000002000C7711C0099991900D1451700C8
:103C1000555515003BB11300244912001111110034
:103C2000000010000F0F0F00E3380E0043790D0065
:103C3000CCCC0C00C3300C00E8A20B0064210B00BC
:103C4000AAAA0A00703D0A009DD80900427B09001B
:103C500092240900DCD3080088880800104208007C
:103C600000000800F0C107008787070075500700B3
:103C7000711C07003EEB0600A1BC0600699006001F
:103C800066660600703E06006118060017F405001F
:103C900074D105005BB00500B290050062720500AA
:103CA0005555050078390500B81E050005050500C5
:103CB0004EEC040087D40400A1BD040090A70400CA
:103CC00049920400C17D0400EE690400C756040057
:103CD000444404005C320400082104004110040044
:103CE000000004003FF00300F8E0030026D20300C8
:103CF000C3C30300CCB503003AA803000A9B03002A
:103D0000388E0300C08103009F750300D069030053
:103D1000505E03001D53030034480300913D03002F
:103D20003333030016290300381F030097150300DF
:103D3000300C0300030303000BFA020049F10200F8
:103D4000BAE802005CE002002DD802002DD002008B
:103D500059C80200B0C0020031B90200DAB1020055
:103D6000AAAA0200A0A30200BC9C0200FA950200CD
:103D70005C8F0200DF88020082820200457C020024
:103D80002776020027700200436A02007C6402006A
:103D9000D05E02003F590200C85302004E013001BC
:103DA00011241FBECFEFD1E2DEBFCDBF00E00CBFBC
:103DB00013E0A0E0B2E0E6E5F5E702E00BBF02C0E9
:103DC00007900D92A038B107D9F726E1A0E8B3E03B
:103DD00001C01D92A83BB207E1F71EE1CFECDEE186
:103DE00000E006C021970109802FFE010F94093AD7
:103DF000CE3CD10780E00807A9F70F943E220D942E
:103E00009A3A0C9400002F923F924F925F926F92D9
:103E10007F928F929F92AF92BF92CF92DF92EF925A
:103E2000FF920F931F93CF93DF93CDB7DEB7CB569F
:103E3000D1090FB6F894DEBF0FBECDBF21E02093AD
:103E40004E048091C3038D3411F40C94EB27843518
:103E500011F40C94C534873411F00C941135209072
:103E6000C1033090C2033CE12316310409F465C656
:103E7000CCF454E0251631044CF482E028163104C9
:103E80000CF03DC037FE34C00C94E72794E02916AF
:103E9000310409F4E3C5ABE12A16310409F41DC667
:103EA0000C94E727BAE22B16310409F436C764F400
:103EB000FDE12F16310409F457C62EE12216310414
:103EC00009F456C60C94E7273BE52316310409F4A0
:103ED000FCC74CE52416310409F4FBC75AE5251646
:103EE000310411F00C94E727109284030C941335DD
:103EF0008091520281110C9418350C9413358091E5
:103F00005202882311F40C9413350E94579682E5CF
:103F10000E94CCE2882309F44CC10E9450E24B017C
:103F20005C0120E030E0A9010F94A332882309F45A
:103F300070C180917A0790917B07A0917C07B09126
:103F40007D0788AF99AFAAAFBBAF20917E073091B4
:103F50007F0740918007509181072CAF3DAF4EAF56
:103F60005FAF8091910390919203A0919303B091E0
:103F700094032C968CAF9DAFAEAFBFAF2C97209122
:103F8000950330919603409197035091980328969A
:103F90002CAF3DAF4EAF5FAF28979C01AD0168AD30
:103FA00079AD8AAD9BAD0F94A33281110FC02896D5
:103FB0002CAD3DAD4EAD5FAD28976CAD7DAD8EADFA
:103FC0009FAD0F94A332882309F423C111E032E09E
:103FD0002316310409F010E020E030E0A901C5010A
:103FE000B4010F94A332881F8827881F181759F02F
:103FF00080E090E0A0E8BFEB64968CAF9DAFAEAFE1
:10400000BFAF64970AC020E030E040E85FE3649609
:104010002CAF3DAF4EAF5FAF649728AD39AD4AAD21
:104020005BAD2C966CAD7DAD8EAD9FAD2C970F9496
:10403000FD3660966CAF7DAF8EAF9FAF60972CADB5
:104040003DAD4EAD5FAD28966CAD7DAD8EAD9FADF7
:1040500028970F94FD366B017C0160962CAD3DAD29
:104060004EAD5FAD6097CA01B9010F9408332B01C3
:104070003C01A7019601C701B6010F9408339B01CB
:10408000AC01C301B2010F94FE360F946939249636
:104090006CAF7DAF8EAF9FAF249720E030E040E063
:1040A0005FE30F9408332B013C01A5019401C50186
:1040B000B4010F9408334B015C01A3019201C301C9
:1040C000B2010F9408339B01AC01C501B4010F94F8
:1040D000FD360F94693964962CAD3DAD4EAD5FADA4
:1040E00064970F9408334B015C01C701B6019058E7
:1040F00024962CAD3DAD4EAD5FAD24970F94DA37CD
:10410000A50194010F9408336B017C012C962CAD12
:104110003DAD4EAD5FAD2C9768AD79AD8AAD9BAD31
:104120000F94FE3620E030E040E05FE30F94083368
:104130009B01AC01C701B6010F94FE3628AD39AD25
:104140004AAD5BAD0F94FD366B017C0128962CAD1A
:104150003DAD4EAD5FAD28976CAD7DAD8EAD9FADE5
:104160000F94FE3620E030E040E05FE30F94083328
:104170002B013C0124962CAD3DAD4EAD5FAD249797
:1041800060966CAD7DAD8EAD9FAD60970F94DA37C4
:10419000A50194010F9408339B01AC01C301B20146
:1041A0000F94FE362CAD3DAD4EAD5FAD0F94FD3698
:1041B00014C089E40E94CCE2882329F00E9450E2D6
:1041C0006B017C0103C0C12CD12C76018AE40E94D2
:1041D000CCE2882309F10E9450E22C966CAF7DAFAF
:1041E0008EAF9FAF2C9720E030E0A901C701B60148
:1041F0000F94A33281111FC020E030E0A9012C965A
:104200006CAD7DAD8EAD9FAD2C970F94A332811117
:1042100012C0E4EBF7E30EC420E030E0A901C701CF
:10422000B6010F94A3328823A1F32C961CAE1DAEC9
:104230001EAE1FAE2C97D701C601B05888AF99AFFC
:10424000AAAFBBAF2C962CAD3DAD4EAD5FAD2C975C
:1042500050582CAF3DAF4EAF5FAF9C01AD01BC01DC
:10426000CD010F9408334B015C012CAD3DAD4EAD3B
:104270005FADCA01B9010F9408339B01AC01C501C0
:10428000B4010F94FE360F946939A0966CAF7DAFE0
:104290008EAF9FAFA09780917A0790917B07A091F6
:1042A0007C07B0917D0728968CAF9DAFAEAFBFAFB6
:1042B0002897A7019601BC01CD010F94FE366496A4
:1042C0006CAF7DAF8EAF9FAF649720917E0730912A
:1042D0007F07409180075091810760962CAF3DAFDA
:1042E0004EAF5FAF60972C962CAD3DAD4EAD5FAD40
:1042F0002C9760966CAD7DAD8EAD9FAD60970F94A1
:10430000FE36A4966CAF7DAF8EAF9FAFA497809121
:10431000910390919203A0919303B09194036896B6
:104320008CAF9DAFAEAFBFAF689764962CAD3DAD7F
:104330004EAD5FAD6497BC01CD010F94FD366B01AE
:104340007C01209195033091960340919703509101
:1043500098036C962CAF3DAF4EAF5FAF6C97A496B1
:104360002CAD3DAD4EAD5FADA4976C966CAD7DAD03
:104370008EAD9FAD6C970F94FD364B015C01809123
:10438000820790918307A0918407B0918507A89632
:104390008CAF9DAFAEAFBFAFA8979C01AD01609150
:1043A000990370919A0380919B0390919C030F94C1
:1043B000FD3624966CAF7DAF8EAF9FAF2497A701DB
:1043C000960168AD79AD8AAD9BAD0F9408332B0192
:1043D0003C01A50194016CAD7DAD8EAD9FAD0F94F8
:1043E00008339B01AC01C301B2010F94FE362B01CF
:1043F0003C01A501940168AD79AD8AAD9BAD0F94E8
:1044000008334B015C01A70196016CAD7DAD8EAD0B
:104410009FAD0F9408339B01AC01C501B4010F940B
:10442000FD36A30192010F9471376B017C0120E0EE
:1044300030E0A9010F94A33287FF0AC02BED3FE0C3
:1044400049EC50E4C701B6010F94FE366B017C01C4
:1044500092E02916310451F42BED3FE049EC50E491
:10446000C701B6010F94FD366B017C0120E030E0FE
:10447000A901C701B6010F94A332811128C0689623
:104480002CAD3DAD4EAD5FAD689728966CAD7DAD62
:104490008EAD9FAD28970F94A332811118C06C96F2
:1044A0002CAD3DAD4EAD5FAD6C9760966CAD7DAD06
:1044B0008EAD9FAD60970F94A332811108C01BEDA4
:1044C000C12E1FE0D12E19ECE12E10E4F12EA70130
:1044D0009601A0966CAD7DAD8EAD9FADA0970F946B
:1044E00008334B015C0120E030E0A90124966CAD5B
:1044F0007DAD8EAD9FAD24970F94A3328823E9F054
:10450000A5019401C501B4010F9408334B015C016E
:1045100024962CAD3DAD4EAD5FAD2497CA01B901D7
:104520000F9408339B01AC01C501B4010F94FE3612
:104530000F9469394B015C010DC020E030E0A90106
:10454000C501B4010F94243987FF04C0B7FAB094B1
:10455000B7F8B0942FE632E143E85AE3C501B4015D
:104560000F94A33287FF02C00C941335C501B40128
:104570000F9473380F9447382E967FAF6EAF2E97F7
:10458000DB01AB2B31F4E1E0F0E02E96FFAFEEAFB4
:104590002E9740908607509087076090880770900C
:1045A00089072E962EAD3FAD2E97B90180E090E0A1
:1045B0000F94A7324B015C019B01AC01C701B6010E
:1045C0000F94DA3728966CAF7DAF8EAF9FAF2897E8
:1045D000A501940124966CAD7DAD8EAD9FAD249761
:1045E0000F94DA37A0966CAF7DAF8EAF9FAFA097D8
:1045F000A301920160919D0370919E0380919F039E
:104600009091A0030F94FD36A50194010F94DA3721
:10461000AC966CAF7DAF8EAF9FAFAC9728962CADAC
:104620003DAD4EAD5FAD2897CA01B9010F94083377
:1046300020E030E040E05FE30F9408339B01AC01E1
:1046400060E070E080E89FE30F94FD3668966CAF01
:104650007DAF8EAF9FAF6897A8968CAD9DADAEAD88
:10466000BFADA89789879A87AB87BC874D865E8642
:104670006F86788A6091280270912902072E000CBB
:10468000880B990B0F94A93220913102309132029C
:1046900040913302509134020F9408332AE037EDF1
:1046A00043E25CE30F9408336CAB7DAB8EAB9FAB06
:1046B0000F94F1139B01AC0128533F4F4F4F5F4FB5
:1046C0006C962CAF3DAF4EAF5FAF6C9748AC59AC1A
:1046D0006AAC7BAC22242394312C39E121963FAF84
:1046E00021972E964EAD5FAD2E974215530509F4D6
:1046F0004DC10F9438190F94F113DC01CB016C9666
:104700002CAD3DAD4EAD5FAD6C97821B930BA40BF2
:10471000B50BB7FD11C00F94F1139B01AC012853E9
:104720003F4F4F4F5F4F6C962CAF3DAF4EAF5FAFDB
:104730006C9780E00E94DB4021963FAD219731507D
:1047400021963FAF2197332309F445C02CAD3DADF1
:104750004EAD5FAD68966CAD7DAD8EAD9FAD68978B
:104760000F9408336B017C019201A30128966CAD74
:104770007DAD8EAD9FAD28970F940833A7019601AC
:104780000F94FE367B018C019201A30168966CADFB
:104790007DAD8EAD9FAD68970F9408334B015C01E2
:1047A0002CAD3DAD4EAD5FAD28966CAD7DAD8EAD03
:1047B0009FAD28970F9408339B01AC01C501B4014C
:1047C0000F94FD362B013C01C701D8018CAF9DAF82
:1047D000AEAFBFAF55C0B10180E090E00F94A732FB
:1047E00028962CAD3DAD4EAD5FAD28970F940833A4
:1047F0004B015C010F94D7376B017C01C501B401FB
:104800000F945F394B015C01A701960168AD79AD4A
:104810008AAD9BAD0F9408332B013C012C962CAD37
:104820003DAD4EAD5FAD2C97C501B4010F9408337B
:10483000A30192010F94FE362B013C01A5019401C6
:1048400068AD79AD8AAD9BAD0F9408334B015C0127
:104850002C962CAD3DAD4EAD5FAD2C97C701B6018A
:104860000F9408339B01AC01C501B4010F94FD36D0
:104870006CAF7DAF8EAF9FAF49E121964FAF2197CF
:104880009201A30164966CAD7DAD8EAD9FAD649732
:104890000F94FE3669837A838B839C832CAD3DAD68
:1048A0004EAD5FADA4966CAD7DAD8EAD9FADA497C2
:1048B0000F94FE366D837E838F839887A0962CADF0
:1048C0003DAD4EAD5FADA09769857A858B859C85A2
:1048D0000F94FE3669877A878B879C87AC962CADC0
:1048E0003DAD4EAD5FADAC976D857E858F8598896A
:1048F0000F94FE366D877E878F87988B809141025B
:10490000882321F0CE0101960E941B3DE0905307C1
:104910001CA61DA61EA61FA689819A81AB81BC81FB
:1049200088A399A3AAA3BBA38D819E81AF81B885DB
:104930008CA39DA3AEA3BFA389859A85AB85BC85B7
:1049400088A799A7AAA7BBA7AE01485D5F4FBE0184
:104950006C5D7F4FCE0180960E94F678CE018C96DA
:104960006C018E010C5C1F4F9E01235F3F4FAE0117
:10497000485D5F4FBE016C5D7F4F0C970E94716A6E
:10498000882321F09FEF291A390AABCEE090530714
:1049900018AA19AA1AAA1BAA8091910390919203AE
:1049A000A0919303B091940388A399A3AAA3BBA356
:1049B0008091950390919603A0919703B0919803ED
:1049C0008CA39DA3AEA3BFA38091990390919A035A
:1049D000A0919B03B0919C0388A799A7AAA7BBA706
:1049E000AE01485D5F4FBE016C5D7F4FCE0180968A
:1049F0000E94F678DE01D0966D018E010C5C1F4F8F
:104A00002DE933E0AE01485D5F4FBE016C5D7F4F25
:104A1000CE0180960E94716A80E1E1E9F3E0AAE7A5
:104A2000B7E001900D928A95E1F70C9413350E943E
:104A3000CEE3F80184918F010F5F1F4F8111F7CFF3
:104A4000EDE3F3E084918F010F5F1F4F882311F492
:104A50000C9413350E94CEE3F801F4CF80E50E9458
:104A6000CCE2882329F00E9410E26B017C0103C094
:104A7000C12CD12C760183E50E94CCE2882361F021
:104A80000E9450E220E030E04AE754E40F940833FB
:104A90000F9447386B017C010E94427880919A07FD
:104AA000811105C060E083E593E00E9416810F94B8
:104AB000F113C60ED71EE81EF91E0F94F113DC0188
:104AC000CB018C199D09AE09BF09B7FD02C00C943A
:104AD000133580E00E94DB40F0CF0E9471FE81110F
:104AE0000C94133580E090E0A0E0B0EC89839A83C9
:104AF000AB83BC8380E090E0AEE3B3E48D839E8320
:104B0000AF83B88780E090E0A0EAB1E489879A8714
:104B1000AB87BC8780E50E94CCE2882319F00E9415
:104B200020E201C060E068A3BE016F5F7F4FCE014D
:104B300080960F94D0200C9413358091690787706C
:104B4000873011F00C941D358FE40E94CCE288234D
:104B500019F00E9441E203C08FE40E9483E28111B8
:104B60000C9413350C941D350E94279C0C9413351E
:104B7000C0907A07D0907B07E0907C07F0907D078B
:104B800088E50E94CCE2811109C020E030E040EFCE
:104B900051E4C701B6010F94FD3602C00E9450E2F5
:104BA00068A379A38AA39BA3C0907E07D0907F07B8
:104BB000E0908007F090810789E50E94CCE28111A6
:104BC00009C020E030E040E451E4C701B6010F9491
:104BD000FD3602C00E9450E29B01AC0169837A83DA
:104BE0008B839C8368A179A18AA19BA10E94FE3E30
:104BF000882311F40C94133580E00E94DE980E9403
:104C0000399A85E40E94CCE2882321F00E9441E297
:104C1000182F04C085E40E9483E211E086E50E941B
:104C2000CCE2882321F00E9420E2262F01C021E05F
:104C3000412FBE016F5F7F4FCE0180960E940AA375
:104C40006B017C019B01AC010F94AA3981115FC0FB
:104C500088A099A0AAA0BBA020E030E0A901C501CE
:104C6000B4010F94A33287FF05C027E137EB41E57C
:104C700058EB04C027E137EB41E558E3C501B40127
:104C80000F94FE36AB01BC0183E893E00F94620001
:104C900089809A80AB80BC8020E030E0A901C5010A
:104CA000B4010F94A33287FF05C027E137EB41E53C
:104CB00058EB04C027E137EB41E558E3C501B401E7
:104CC0000F94FE36AB01BC018EE793E00F946200B7
:104CD00020E030E0A901C701B6010F94A33287FF9D
:104CE00005C027E137EB41E558EB04C027E137EB7E
:104CF00041E558E3C701B6010F94FE36AB01BC0194
:104D000089E793E00F9462008AE00E94CEE30E945C
:104D1000209A0E94FFBC0C94133580915202882384
:104D200011F40C94133589E40E94CCE2082F8823F7
:104D300021F00E9420E2E62E01C0E12C8AE40E94CC
:104D4000CCE2182F882321F00E9420E2F62E01C029
:104D5000F12C002319F0B2E0BE1528F0112389F0E0
:104D6000E2E0EF1570F4EBE8F3E084918F010F5F60
:104D70001F4F882311F40C9413350E94CEE3F801E1
:104D8000F4CF0E94BAE30023F1F020919F0C309100
:104D9000A00C4E2D4203B001439F700D1124809151
:104DA000050590910605680F791F072E000C880BEA
:104DB000990B0F94A932609391037093920380939F
:104DC0009303909394031123F1F02091A10C30915F
:104DD000A20C5F2D5203B001539F700D11248091DE
:104DE000070590910805680F791F072E000C880BA6
:104DF000990B0F94A9326093950370939603809357
:104E000097039093980380E50E94CCE28823E9F011
:104E10000E9441E28823A9F10023D9F020E030E08C
:104E200040EF51E46091910370919203809193035C
:104E3000909194030F94FE366093910370939203C4
:104E4000809393039093940304C080E50E9483E2CF
:104E5000E1CF1123B1F020E030E040E451E4609173
:104E600095037091960380919703909198030F9406
:104E7000FE36609395037093960380939703909307
:104E8000980386E40E94CCE28823D9F00E9450E285
:104E90006B017C0120E030E0A9010F942439181641
:104EA00084F420E030E040E752E4C701B6010F94FB
:104EB000DA37609331027093320280933302909319
:104EC00034020E942A450C941335209384030C94D9
:104ED000133577E5272E72E0372EE5E8EE2EE3E076
:104EE000FE2E8AE797E099AF88AFFAE6CF2EF7E07B
:104EF000DF2E00E010E0D1018D911D010E94CCE277
:104F0000882309F44BC00E9450E22B013C0113306E
:104F100049F0F60120813181428153810F94FD36A1
:104F20002B013C01A8ADB9AD2D913D914D915C9106
:104F3000C301B2010F94FD364B015C012DEB37E349
:104F400046E855EB0F94243987FD0AC02DEB37E373
:104F500046E855E3C501B4010F94A3321816F4F4E2
:104F6000133051F440928607509287076092880769
:104F70007092890701E012C0A5019401F7016081D8
:104F80007181828193810F94FE36D7016D937D9359
:104F90008D939C931397812F0E9495A01F5FB4E07F
:104FA000EB0EF11CE8ADF9AD3496F9AFE8AFF4E0E3
:104FB000CF0ED11C143009F09ECF002321F086E8DB
:104FC00097E00E940EFE0E94FFBC0C9413350E94D5
:104FD0005EA60C9413358091C1039091C20389376A
:104FE000910509F490C70CF022C18E34910509F4A3
:104FF00094C40CF092C08A31910509F426C3ACF533
:105000008431910509F434C27CF48131910509F4AD
:10501000AAC22CF4029708F42EC20C94C234429710
:1050200009F4D7C50C94C2348731910509F4ECC258
:1050300074F48531910509F4E3C2469711F00C949C
:10504000C2341092F4091092F5090C94133588318A
:10505000910509F4EFC2499711F00C94C2341092F3
:10506000F4090F94F51C0C9413358032910509F462
:1050700096C3ACF58D31910511F40C94133594F46D
:105080008B31910509F4EFC24C9711F00C94C234A6
:1050900040E060E08091BF039091C0030E94BCFAA1
:1050A0000C9413358E31910509F475C34F9711F0A7
:1050B0000C94C2340F94A61C68A379A38AA39BA363
:1050C000BE016F5F7F4FCE0180960E94D8E260E004
:1050D000CE0101960E945081E4EBF3E2ACC38B3425
:1050E000910509F412C464F48A32910509F4B9C334
:1050F0008B9711F00C94C2340F943F0F0C9413351E
:105100008C34910509F405C48D34910511F00C948B
:10511000C2340F94FA000C9413358C36910509F4BF
:1051200091C40CF047C08535910509F455C54CF57F
:105130008235910509F446C5D4F48135910511F005
:105140000C94C2340E94A0690E94807810921E16AE
:1051500010921D1668EE73E080E090E00E94978048
:1051600060E087E594E00E9416810C941335833546
:10517000910509F42AC58435910509F42AC50C94D2
:10518000C2348936910509F491C454F48C359105E3
:1051900009F43BC58836910509F4C3C30C94C234A5
:1051A0008A36910509F4E2C48B36910509F4FAC4F4
:1051B0000C94C2348237910509F4AFC5CCF48F3614
:1051C000910509F4ECC354F48D36910509F4AEC48D
:1051D0008E36910509F4D0C30C94C2348037910502
:1051E00009F433C48137910509F436C40C94C234F0
:1051F0008637910509F438C654F48337910509F4CC
:1052000034C18537910509F420C60C94C234873720
:10521000910509F475C68837910511F00C94C234D4
:1052200081E080935B0580935A050C941335803997
:1052300031E0930711F40C94EA320CF086C08E3CF6
:10524000910509F4D6C7ECF58E3B910509F48BC4A2
:10525000B4F48C38910509F46CC43CF48A37910598
:1052600011F40C9422340C94C2348139910509F460
:105270004FC68B39910509F434C40C94C2348B3C6D
:10528000910509F426C784F4883C910509F4B8C651
:10529000893C910511F00C94C23487E5E82E82E038
:1052A000F82E0AEF1CE0FCC68C3C910509F42CC7D3
:1052B0008D3C910511F00C94C2340E9447BC0C94B3
:1052C00013358C3251E0950711F40C94D431D4F499
:1052D0008D3D910509F4C2C754F4833D910509F44D
:1052E000ADC78C3D910509F4ACC70C94C234823E25
:1052F000910509F4E2C28232914011F40C94C93153
:105300000C94C2348F32E1E09E0711F40C945432B5
:105310006CF48D3221E0920711F40C94FD318E3241
:10532000914011F40C9400320C94C234803341E06B
:10533000940711F40C9457328336914011F00C9479
:10534000C234E4EBF7E30C94D732883FA1E09A072C
:1053500011F40C940E330CF040C0853AE1E09E0746
:1053600011F40C94F932BCF4823921E0920711F463
:105370000C94F33214F40C94ED328A3941E0940722
:1053800009F467C3843A914011F00C94C2340E942E
:10539000C9BD0C941335853FA1E09A0711F40C9414
:1053A000FC3274F48C3AE1E09E0709F444C7843F70
:1053B000914011F00C94C2340E94535D0C9413354B
:1053C000863F21E0920711F40C94FF32873F914011
:1053D00011F40C9402330C94C2348F3843E09407D8
:1053E00011F40C9441340CF58335A3E09A0711F4C1
:1053F0000C94BD336CF48835E2E09E0711F40C94F4
:1054000031338B35924011F40C9434330C94C23404
:105410008A3823E0920711F40C943E348B38934081
:1054200011F40C9413350C94C234833943E094077F
:1054300011F40C94AA346CF48039A3E09A0711F4A7
:105440000C9456348239934011F40C9459340C94D2
:10545000C234803AE3E09E0709F4E0C1873E9340FE
:1054600011F40C94AD340C94C234EDE4F5E092C424
:10547000E5EDF3E087C0A090BF03B090C00380E5E6
:105480000E94CCE2882359F00E9410E26B017C015B
:1054900011E0672B682B692B31F410E004C010E099
:1054A000C12CD12C760183E50E94CCE2882311F433
:1054B0000C9407360E9450E220E030E04AE754E4C2
:1054C0000F9408330F9447386B017C0111110BC006
:1054D000672B682B692B39F4A114B10421F0D50195
:1054E0008C91811102C010E001C011E00E9442784D
:1054F000112329F061E0C5010E94508105C060E0E0
:105500008AEA93E00E94168183E080934E0481E052
:1055100080930207C114D104E104F104B1F00F94A7
:10552000F113C60ED71EE81EF91E0F94F113DC010D
:10553000CB018C199D09AE09BF09B7FF0EC0809140
:10554000020781110C940C3608C080910207882351
:1055500021F080E00E94DB40F8CF0E94DB901092A7
:1055600002070C94133560E08DEB93E00E941681E6
:105570005F988A9880910801817080930601129843
:105580000C94133584918F010F5F1F4F882321F0F6
:105590000E94CEE3F801F6CF1092980C8BE49AE0CB
:1055A0000E947B388BE1EBE4FAE0DE011596019076
:1055B0000D928A95E1F78091490A90914A0A9C835D
:1055C0008B838FE193E09A83898340E050E0BE01B2
:1055D0006F5F7F4F80E090E00E947BAACE01019632
:1055E0000E94D340E6ECF3E084918F010F5F1F4FE0
:1055F000882311F40C9413350E94CEE3F801F4CF04
:105600000E9498FC0C941335E091BF03F091C00305
:105610008081882329F0803209F410823196F8CFF6
:1056200040E061E08091BF039091C0030E94BCFA0A
:105630000C9413358091F509882319F081E080934B
:10564000F4090F94B3000C9413358091F509882365
:1056500011F40C94133583E50E94CCE281110C9473
:1056600011360C94133583E40E9483E2882309F4F5
:1056700050C0E3E1F4E084918F010F5F1F4F882356
:1056800021F00E94CEE3F801F6CF8091E60B811164
:1056900003C0E6EEF3E012C0BE016F5F7F4F83EE02
:1056A0009BE00E9443378E010F5F1F4FF8018191ED
:1056B0008F01882349F10E94CEE3F8CF84918F01B6
:1056C0000F5F1F4F882301F10E94CEE3F801F6CF50
:1056D0006FE2C62E64E0D62EE12CF12C20E0809102
:1056E000570790E00E2C02C0959587950A94E2F733
:1056F00080FD85C1FFEFEF1AFF0A32E0C30ED11C17
:1057000045E0E416F10459F78AE00E94CEE30C94D8
:1057100013358091F509882339F08091F4098823A5
:1057200019F0E0EFF3E003C0E2E0F4E028C0849178
:105730008F010F5F1F4F882321F00E94CEE3F801F5
:10574000F6CF6091940C7091950C8091960C90918D
:10575000970C4AE00E94ADE68FE20E94CEE3609192
:10576000900C7091910C8091920C9091930C4AE066
:105770000E94ADE68AE00E94CEE30C94133584913A
:105780008F010F5F1F4F882311F40C9413350E9473
:10579000CEE3F801F4CF0E94C18B0C9413358091B5
:1057A000F40981110E9442788091F509882311F44F
:1057B0000C94133580E50E94CCE2882319F00E94F6
:1057C00041E203C080E50E9483E2182F482F61E088
:1057D0008091BF039091C0030E94BCFA83E50E94B0
:1057E000CCE2882381F00E9420E2AB01BC0140930F
:1057F000940C5093950C6093960C7093970C83EED9
:105800009BE00F9444088091F509882319F081E00A
:105810008093F40911110C94133513CF8091BF03B9
:105820009091C00321E02093F30940E060E00E94E2
:10583000BCFA0C94133584918F010F5F1F4F88239E
:1058400021F00E94CEE3F801F6CFBE016F5F7F4FDB
:1058500082E294E00F9498008AE00E94CEE30C94D8
:10586000133583E50E94CCE2882311F40C941335A0
:105870000E9430E2E82E80E50E94CCE2882339F0D5
:105880000E9430E2182F87FF03C00C9413351DE0EF
:1058900089E40E94CCE2882361F00E9441E28111F8
:1058A0000C942236812F0E94248781112AC00C94E7
:1058B000223689E40E9483E2F2CF80E50E9483E2EF
:1058C000882311F40C9413350E9420E26B017C01B3
:1058D00083E50E94CCE2882309F42FC50E9420E2D0
:1058E0008B01C8010196039710F00C941335D7FE75
:1058F00002C00C9413358C2D0E942487882309F450
:105900001FC50F94B0270C9413350F94B3000C945B
:1059100013350F94F51C0C9413350F94300E0C9422
:10592000133588E690E00E94D5E381110C9413357D
:105930008091570783FF02C00C94133583E50E94C2
:10594000CCE28823A9F00E9450E20F944238CB01A8
:105950000E94BB800E9450E220E030E040EA52E426
:105960000F94A332181624F00F94FA000E94DB90D3
:105970000F947C020C9413358EE40E94CCE28823B1
:1059800011F40C9413350E9420E26093151070936B
:10599000161080931710909318100C94133583E50C
:1059A0000E9483E2882359F083E50E94CCE2882399
:1059B00019F00E9430E201C080E080935707E4EBC9
:1059C000F3E284918F010F5F1F4F811103C0EDE35C
:1059D000F4E004C00E94CEE3F801F3CF84918F017C
:1059E0000F5F1F4F882321F00E94CEE3F801F6CF0E
:1059F0008091570781116CCEE9E3F4E018C0BB2415
:105A0000B394B20E222319F08CE20E94CEE3F60189
:105A100085919491FC0184918F010F5F1F4F882322
:105A200021F00E94CEE3F801F6CF2B2D63CE8491B6
:105A30008F010F5F1F4F882309F466CE0E94CEE3CB
:105A4000F801F5CF10922A02EEC784E494E00E9498
:105A5000953F0E94F2B4E7C783E50E94CCE2811132
:105A600003C0E4EBF3E20BC00E9430E28D3318F484
:105A700080930A02D8C78CE380930A02D4C784912A
:105A80008F010F5F1F4F882321F00E94CEE3F801A2
:105A9000F6CF40910A0250E060E070E08DE494E0BF
:105AA0000F9445008AE00E94CEE3BDC789E690E0EE
:105AB0000E94D5E3811111C0E4E5F4E084918F01E7
:105AC0000F5F1F4F882321F00E94CEE3F801F6CF2D
:105AD0000E94DE658AE00E94CEE310924E040C9490
