:100000000C94A61B0C94D71B0C94D71B0C94D71BD9
:100010000C94D71B0C94D71B0C94D71B0C94D71B98
:100020000C94D71B0C94D71B0C94D71B0C94D71B88
:100030000C94D71B0C94D71B0C94D71B0C94D71B78
:100040000C94D71B0D948A000C94D71B0C94D71BCF
:100050000C94D71B0C94D71B0C94A2EB0C94149605
:100060000C94D71B0C9450DB0C94D71B0C94D71B0F
:100070000C94D71B0C94D71B0C94D71B0C94D71B38
:100080000C94D71B0C94D71B0C94D71B0C94D71B28
:100090000C94D71B0C94D71B0C94D71B0C94D71B18
:1000A0000C94D71B0C94D71B0C94D71B0C94D71B08
:1000B0000C94D71B0C94D71B0C94D71B0C94D71BF8
:1000C0000C94D71B0C94D71B0C94D71B0C94D71BE8
:1000D0000C94D71B0C94D71B0C94D71B0C94D71BD8
:1000E0000C94D71B13A1FFA002A105A121A10EA171
:1000F000FCA01FA108A10BA10201F200E200D800A0
:10010000EC00E000D000E600FC00F400DE00D600C9
:100110000401F000E00006010E01C600DC00C8008A
:10012000E800CA000C01DA000001FA00D200E40085
:100130000A01FE00CC00EA00DA000801F800EE0037
:10014000084AD73B3BCE016E84BCBFFDC12F3D6C3E
:1001500074319ABD56833DDA3D00C77F11BED9E4A4
:10016000BB4C3E916BAAAABE000000803F05A84C84
:10017000CDB2D44EB93836A9020C50B99186880850
:100180003CA6AAAA2ABE000000803F000D94671476
:100190000D94A1170D94B0170D9401180D94D1056D
:1001A0000D9439140D94D4170D94D2290D94511433
:1001B0000D9428140D9433180D949C170D944B1422
:1001C0000D946C140D9424140D94DE170D943D14AD
:1001D0000D94A6170D940B180D942E140D94291838
:1001E0000D9459140D9435140D9447140D946121F8
:1001F0000D941F180D94CC170D9443140D94F21701
:100200000D94C4170D9432140D9455140D945F146D
:100210000D9415180D94E8170D94BA170D946314E6
:100220004E414E494E495459494E46CDCCCC3D0ADB
:10023000D7233C17B7D13877CC2B329595E6241FBE
:10024000B14F0A000020410000C84200401C462077
:10025000BCBE4CCA1B0E5AAEC59D74434F4D4D5586
:100260004E49434154494F4E0044525952554E0055
:100270004552524F525300494E464F004543484F56
:100280000047322F47332062616420706172616DD4
:1002900065746572730A00536C6565702E2E2E00AE
:1002A000486F6D652058592066697273740A00485A
:1002B0006F6D6520585920666972737400205A3A30
:1002C000200020593A200042656420583A20004D11
:1002D00065736820706F696E742063616E6E6F74F1
:1002E000206265207265736F6C7665640A00436CEA
:1002F00069636B20746F20726573756D652E2E2E89
:10030000004E6F206D6F76652E00456E6420666925
:100310006C65206C6973740A00426567696E2066BB
:10032000696C65206C6973740A004D3132350028A0
:100330006E6F2066696C6529005344207072696E87
:1003400074696E67206279746520004E6F74205363
:1003500044207072696E74696E670A004375727228
:10036000656E742066696C653A20005072696E741F
:100370002074696D653A20007C0277027002690280
:100380005B026F66660044454255473A004B494C54
:100390004C45442E20004D3131332053006F6B000B
:1003A0004E6F76613330302042657461204F66664F
:1003B0002E002C20002C2000544845524D414C5F0B
:1003C00050524F54454354494F4E004155544F529B
:1003D00045504F52545F53445F535441545553005A
:1003E000454D455247454E43595F50415253455242
:1003F00000434153455F4C494748545F4252494787
:1004000048544E45535300544F47474C455F4C4961
:100410004748545300534F4654574152455F504F3D
:10042000574552004255494C445F50455243454E52
:1004300054004C4556454C494E475F444154410099
:100440005A5F50524F4245004155544F4C45564516
:100450004C005052494E545F4A4F420050524F4751
:1004600052455353004155544F5245504F52545FDB
:1004700054454D5000564F4C554D4554524943003C
:10048000454550524F4D0053455249414C5F584FDE
:100490004E5F584F4646004649524D574152455FC0
:1004A0004E414D453A4D61726C696E20312E312EB0
:1004B0003920284769746875622920534F55524383
:1004C000455F434F44455F55524C3A6874747073AE
:1004D0003A2F2F6769746875622E636F6D2F6E6F88
:1004E00076612D6C6162732F4E6F76612D493320DA
:1004F00050524F544F434F4C5F56455253494F4E05
:100500003A312E30204D414348494E455F545950B1
:10051000453A4E6F76613330302042657461204534
:10052000585452554445525F434F554E543A31202A
:10053000555549443A63656465326132662D3431FC
:1005400061322D343734382D396231322D633535EF
:100550006336326633363766660A002F2F20004D29
:1005600031343520533C696E6465783E206F757474
:10057000206F662072616E67652028302D31290A50
:1005800000205400205200416363656C6572617401
:10059000696F6E3A20500020466C6F773A20000059
:1005A0000125311D40FFFFFF2924301C45FFFFFFBF
:1005B00027232F1B0AFFFFFFFF43FFFF040806FF4F
:1005C000FF222B1AFFFF42043803063650726F6277
:1005D00065205A204F66667365743A200043290AE5
:1005E0000061626C656420286D696E2074656D70B1
:1005F0002000436F6C6420657874727564657320A5
:1006000061726520004E6F2063617365206C6967BD
:1006100068740A00454550524F4D204F4B0A003F29
:100620005A206F7574206F662072616E676520288E
:100630002D323020746F203230290A003A200050C9
:10064000726F6265205A204F66667365740041635D
:10065000746976652045787472756465723A200015
:10066000496E76616C696420657874727564657230
:100670000A0000002110422063308440A550C6606B
:10068000E770088129914AA16BB18CC1ADD1CEE14F
:10069000EFF13112100273325222B5529442F772C6
:1006A000D662399318837BB35AA3BDD39CC3FFF39F
:1006B000DEE36224433420040114E664C774A444D6
:1006C00085546AA54BB528850995EEE5CFF5ACC5EF
:1006D0008DD55336722611163006D776F6669556A6
:1006E000B4465BB77AA719973887DFF7FEE79DD73F
:1006F000BCC7C448E5588668A77840086118022836
:100700002338CCC9EDD98EE9AFF9488969990AA98E
:100710002BB9F55AD44AB77A966A711A500A333A05
:10072000122AFDDBDCCBBFFB9EEB799B588B3BBBDE
:100730001AABA66C877CE44CC55C222C033C600C95
:10074000411CAEED8FFDECCDCDDD2AAD0BBD688D2E
:10075000499D977EB66ED55EF44E133E322E511EE5
:10076000700E9FFFBEEFDDDFFCCF1BBF3AAF599F7E
:10077000788F8891A981CAB1EBA10CD12DC14EF11E
:100780006FE18010A100C230E32004502540467084
:100790006760B9839893FBA3DAB33DC31CD37FE3AF
:1007A0005EF3B1029012F322D232354214527762D4
:1007B0005672EAB5CBA5A89589856EF54FE52CD57F
:1007C0000DC5E234C324A014810466744764245424
:1007D0000544DBA7FAB79987B8975FE77EF71DC78F
:1007E0003CD7D326F2369106B01657667676154674
:1007F00034564CD96DC90EF92FE9C899E9898AB9DF
:10080000ABA94458654806782768C018E1088238C3
:10081000A3287DCB5CDB3FEB1EFBF98BD89BBBABEE
:100820009ABB754A545A376A167AF10AD01AB32A13
:10083000923A2EFD0FED6CDD4DCDAABD8BADE89D3E
:10084000C98D267C076C645C454CA23C832CE01C63
:10085000C10C1FEF3EFF5DCF7CDF9BAFBABFD98FCE
:10086000F89F176E367E554E745E932EB23ED10EB3
:10087000F01E7C3C3E5E2B3D3F2F5B5D3B2C2A22D5
:100880005C002075736520612073686F72746572F7
:1008900020657874727573696F6E2076616C75650A
:1008A000202D206D6178206973203630306D6D0AFF
:1008B000002068656174206E6F7A7A6C6520616EC5
:1008C000642074727920616761696E0A00627573D1
:1008D000793A2070617573656420666F7220696E65
:1008E0007075740A00627573793A2070617573656A
:1008F0006420666F7220757365720A006275737981
:100900003A2070726F63657373696E670A004B49B2
:100910004C4C45442E20004B494C4C206361757370
:100920006564206279204B494C4C20627574746F69
:100930006E2F70696E0A004B494C4C45442E2000C6
:100940004B494C4C20636175736564206279207457
:100950006F6F206D75636820696E61637469766579
:100960002074696D65202D2063757272656E742028
:10097000636F6D6D616E643A20004D36303000500B
:100980006C65617365207265736574005052494EE1
:100990005445522048414C544544005072696E748D
:1009A00065722068616C7465642E206B696C6C28BC
:1009B000292063616C6C6564210A00206472697689
:1009C00065722063757272656E743A2000207374CC
:1009D00065616C746843686F70206D617820737016
:1009E0006565643A2000656E7175657565696E6749
:1009F0002022000000A0C0000040C1000000000054
:100A0000002042000020420000004100000000578A
:100A100061726E696E673A20486F6D696E67204239
:100A2000756D702044697669736F72203C20310ABD
:100A30000002020400000040000000400000803F6F
:100A40000080984300809D430000BE43FFFFFF24C9
:100A5000F4D43050C38E20C2A24017828B70111282
:100A60007A910D816CD90AA861E108C758660761BF
:100A70005143061E4B5D05C145A7041A41110409E7
:100A80003D9803713931034036DB0265339102D45E
:100A9000305402802E1D02632CEE01752AC501B070
:100AA00028A001102781018F2564012B244B01E030
:100AB000223401AC211F018D200D01801FFC008418
:100AC0001EED00971DDF00B81CD200E61BC60020FB
:100AD0001BBC00641AB200B219A8000A19A0006A6F
:100AE000189900D117910040178B00B5168400317A
:100AF000167E00B31579003A157300C7146F0058BD
:100B0000146A00EE1366008813630025135E00C7A5
:100B1000125B006C12570015125400C11151007085
:100B2000114F0021114B00D61049008D104700468F
:100B300010440002104200C00F4000800F3E0042EF
:100B40000F3C00060F3B00CB0E3800930E37005CC5
:100B50000E3500270E3400F30D3200C10D31009028
:100B60000D3000600D2E00320D2D00050D2C00D92A
:100B70000C2B00AE0C2900850C29005C0C270035DD
:100B80000C27000E0C2600E80B2400C40B2400A048
:100B90000B23007D0B23005A0B2100390B21001879
:100BA0000B2000F80A1F00D90A1E00BB0A1E009D78
:100BB0000A1D00800A1D00630A1C00470A1B002C46
:100BC0000A1B00110A1A00F7091A00DD091900C4EE
:100BD000091900AB091900920917007B0918006375
:100BE0000917004C09160036091600200916000ADC
:100BF000091500F5081500E0081400CC081400B829
:100C0000081400A4081400900813007D0812006B5B
:100C10000813005808120046081200340811002377
:100C20000811001208110001081100F0071000E07F
:100C3000071000D0071000C0071000B0070F00A178
:100C400007100091070E0083070F0074070F00655F
:100C5000070E0057070E0049070E003B070D002E38
:100C6000070E0020070D0013070D0006070D00F901
:100C7000060C00ED060D00E0060C00D4060C00C8C2
:100C8000060C00BC060C00B0060C00A4060B009974
:100C9000060C008D060B0082060B0077060B006C1D
:100CA000060B0061060A0057060B004C060A0042BC
:100CB000060A0038060A002E060A0024060A001A50
:100CC000060A001006090007060A00FD050900F4DF
:100CD000050900EB050900E2050900D9050900D066
:100CE000050900C7050900BE050900B5050800ADE6
:100CF000050800A50509009C050800940508008C5E
:100D0000050800840508007C050800740508006CCF
:100D1000050700650508005D050700560508004E3B
:100D200005070047050700400508003805070031A2
:100D30000507002A050700230507001C0506001605
:100D40000507000F0507000805060002050700FB60
:100D5000040600F5040700EE040600E8040600E2BD
:100D6000040700DB040600D5040600CF040600C912
:100D7000040600C3040600BD040600B7040600B163
:100D8000040500AC040600A6040600A00405009BB0
:100D900004060095040500900406008A04050085F9
:100DA000040500800406007A04050075040500703F
:100DB0000405006B04050066040500610405005C81
:100DC00004050057040500520405004D04050048C1
:100DD000040500430405003E0404003A0405003500
:100DE000040500300404002C04050027040400233B
:100DF0000405001E0404001A040400160405001172
:100E00000404000D040400090405000404040000A7
:100E1000040400FC030400F8030400F4030400F0DD
:100E2000030400EC030400E8030400E4030400E00E
:100E3000030400DC030400D8030400D4030400D03E
:100E4000030400CC030400C8030300C5030300240B
:100E5000F404D9201BC40C5C0E9804C4095F02651D
:100E6000077101F405F900FB04B30048048700C1D1
:100E70000369005803550003034500BE023A00848D
:100E800002310053022A002902250004022000E456
:100E9000011C00C8011900AF01170098011400845B
:100EA000011300710110006101100051010E004397
:100EB000010D0036010B002B010B0020010B00156A
:100EC0000109000C01090003010800FB000800F300
:100ED000000800EB000700E4000600DE000600D872
:100EE000000600D2000600CC000500C7000500C2C5
:100EF000000500BD000400B9000400B5000400B105
:100F0000000400AD000400A9000400A5000300A235
:100F10000003009F0004009B00030098000300955D
:100F200000020093000300900003008D0002008B7C
:100F30000003008800020086000200840003008194
:100F40000002007F0002007D0002007B00020079A9
:100F500000020077000100760002007400020072B7
:100F6000000100710002006F0002006D0001006CC2
:100F70000002006A000100690002006700010066CB
:100F800000010065000100640002006200010061D0
:100F9000000100600001005F0002005D0001005CD4
:100FA0000001005B0001005A0001005900010058D7
:100FB00000010057000100560001005500010054D7
:100FC00000010053000000530001005200010051D5
:100FD000000100500001004F0001004E0000004ED3
:100FE0000001004D0001004C0001004B0000004BCF
:100FF0000001004A000100490001004800000048CB
:1010000000010047000100460000004600010045C5
:1010100000000045000100440001004300000043BF
:1010200000010042000000420001004100000041B8
:10103000000100400001003F0000003F0001003EB1
:101040000000003E0001003D0000003D0001003CAA
:101050000000003C0000003C0001003B0000003BA1
:101060000001003A0000003A000100390000003998
:10107000000100380000003800000038000100378F
:101080000000003700010036000000360000003686
:10109000000100350000003500000035000100347B
:1010A0000000003400000034000100330000003371
:1010B0000000003300010032000000320000003266
:1010C000000100310000003100000031000100305B
:1010D00000000030000000300001002F0000002F51
:1010E0000000002F0000002F0001002E0000002E45
:1010F0000000002E0001002D0000002D0000002D3A
:101100000000002D0001002C0000002C0000002C2D
:101110000000002C0001002B0000002B0000002B21
:101120000000002B0001002A0000002A0000002A15
:101130000000002A00010029000000290000002909
:1011400000000029000000290001002800000028FC
:1011500000000028000000280000002800010027EF
:1011600000000027000000270000002700000027E3
:1011700000010026000000260000002600000026D6
:1011800000000026000100250000002500000025C9
:1011900000000025000000250000002500010024BB
:1011A00000000024000000240000002400000024AF
:1011B00000010023000000230000002300000023A2
:1011C0000000002300000023000000230001002293
:1011D0000000002200000022000000220000002287
:1011E0000000002200010021000000210000002179
:1011F000000000210000002100000021000000216B
:10120000000100200000002000000020000000205D
:10121000000000200000002000000020000000204E
:101220000001001F0000001F0000001F0000001F41
:101230000000001F0000001F0000001F0001001E32
:101240000000001E0000001E0000001E000000390B
:101250003000003325000087190000B00F0000DBCC
:10126000080000BD040000740200003F01000000FF
:1012700000A0C0000070C100000000000096430004
:101280000096430000BE4342696C696E656172203E
:101290004C6576656C696E6720477269643A0A002E
:1012A000486F6D696E67206661696C65640020280F
:1012B00044525952554E2900473239204175746FB6
:1012C00020426564204C6576656C696E67003F203E
:1012D000284C2C522C462C4229206F7574206F66A6
:1012E00020626F756E64732E0A003F28562965725E
:1012F000626F7365206C6576656C20697320696D1B
:10130000706C61757369626C652028302D34292EEC
:101310000A00426164205A2076616C75650A004EAD
:101320006F2062696C696E65617220677269640A18
:1013300000556E6B6E6F776E20636F6D6D616E64BE
:101340003A202200496E736572742066696C616D83
:10135000656E7420616E64207072657373206275AF
:1013600074746F6E20286F72204D313038290A0056
:1013700050726F62696E67206661696C65640A000D
:1013800050726F62696E67206661696C65640020E7
:101390005A3A200020593A200042656420583A20E9
:1013A00000000020002300260029002C002F00321E
:1013B00000000100000301060109010000220025D0
:1013C0000028002B002E003100340002010000052F
:1013D0000108010B010505050507050808080802B5
:1013E0000202020A0A0808040404040101010101BE
:1013F0000101010303030303030303040707070CAD
:101400000C0C0C0C0C0C0C02020202060606060662
:101410000606060B0B0B0B0B0B0B0B07070A0A0A36
:101420000A0A0A0505050404040808010210202020
:101430000808102040102040800201020108040228
:10144000010102040810204080804020100804029E
:1014500001800402018040201008040201080402F7
:1014600001010204081020408001020408102040FD
:1014700080100804088010204004408010204004A0
:10148000802075736520612073686F7274657220A7
:10149000657874727573696F6E2076616C756520FE
:1014A0002D206D6178206973203630306D6D0A0013
:1014B0002068656174206E6F7A7A6C6520616E6455
:1014C0002074727920616761696E0A002D2D2D00EC
:1014D0005344002020202020200020202020004EE7
:1014E0006F766133303020426574612052656164EB
:1014F000792E005072696E74696E672E2E2E005020
:1015000072696E7420706175736564004D31323597
:10151000004D3234005072696E742061626F7274D3
:101520006564004E6F205344206361726400507202
:10153000696E742066726F6D2053440053746F702F
:10154000207072696E7400526573756D65207072DB
:10155000696E740041626F7574205072696E7465B3
:1015600072005061757365207072696E7400436F0C
:101570006E74726F6C0050726570617265005475A4
:101580006E6500496E666F2073637265656E00500C
:10159000726F6265205A204F6666736574004368F7
:1015A000616E67652066696C616D656E740050726E
:1015B0006F6265205A204F666673657400466C6FD3
:1015C0007700466C6F7700466C6F770046616E203F
:1015D00073706565640046616E20737065656400B4
:1015E00046616E2073706565640042656400426503
:1015F0006400426564004E6F7A7A6C65004E6F7AC3
:101600007A6C65004E6F7A7A6C650046616465207D
:101610004865696768740046616465204865696764
:1016200068740046616465204865696768740053A2
:10163000706565640053706565640053706565642A
:10164000004D61696E00205A3A0020593A0020434B
:101650006F756E7420583A0020453A00205A3A00BF
:1016600020593A00583A003A004361703A00574115
:10167000524E494E4721204C6F77205A204A6572BE
:101680006B206D6179206C65616420746F20756ECC
:1016900077616E746564207061757365732E0A00DE
:1016A000205A00205900580020204D61783A20002F
:1016B000205A00205900580020204D696E3A200021
:1016C0004F6E20004F666600536F667420656E642F
:1016D00073746F70733A200020643A0020693A00F6
:1016E00020703A00496E76616C6964206578747286
:1016F000756465720A0023646566696E65204445F9
:101700004641554C545F4B64200023646566696E06
:10171000652044454641554C545F4B692000236485
:101720006566696E652044454641554C545F4B7073
:101730002000504944204175746F74756E652066B1
:10174000696E6973686564212050757420746865DA
:10175000206C617374204B702C204B6920616E6487
:10176000204B6420636F6E7374616E7473206672B5
:101770006F6D2062656C6F7720696E746F20436FA8
:101780006E66696775726174696F6E2E680A0050C3
:101790004944204175746F74756E65206661696C8B
:1017A0006564212074696D656F75740A0045312088
:1017B000544845524D414C2052554E4157415900D5
:1017C000546865726D616C2052756E617761790045
:1017D00045312048656174696E67206661696C6592
:1017E000640048656174696E67206661696C656450
:1017F00000504944204175746F74756E65206661B0
:10180000696C6564212054656D70657261747572D0
:101810006520746F6F20686967680A00204B643A1E
:101820002000204B693A2000204B703A20000A200B
:10183000436C617373696320504944200A0020544B
:10184000753A2000204B753A2000206D61783A20CF
:1018500000206D696E3A200020643A200020626901
:1018600061733A2000504944204175746F74756E5D
:1018700065206661696C6564212042616420657839
:10188000747275646572206E756D6265720A0050BF
:101890004944204175746F74756E6520737461726C
:1018A000740A004F66660A004661646520486569EF
:1018B0006768742000426564204C6576656C696ECB
:1018C0006720004661696C656420746F20656E61F5
:1018D000626C6520426564204C6576656C696E6754
:1018E0000A00486F74656E6420746F6F20636F6CBC
:1018F000640A004D3630303A20546F6F20636F6CAD
:101900006400486F74656E6420746F6F20636F6C41
:10191000640A0046696C652064656C657465643AA8
:101920000044656C6574696F6E206661696C6564FE
:101930002C2046696C653A200050726F74656374A0
:1019400065642050696E0A005374616E646172644C
:1019500020446576696174696F6E3A200020526197
:101960006E67653A2000204D61783A2000204D696D
:101970006E3A20004D65616E3A200046696E6973CB
:10198000686564210A002072616E67653A20002054
:101990006D61783A2000206D696E3A2000207369ED
:1019A000676D613A2000206D65616E3A20003A2033
:1019B0007A3A2000206F662000205A00205900202B
:1019C0005800476F696E6720746F3A00436C6F630D
:1019D0006B776973650A00436F756E7465722D00CD
:1019E00020446972656374696F6E3A20002020207C
:1019F000616E676C653A20005374617274696E673A
:101A0000207261646975733A2000506F736974695C
:101A10006F6E696E67207468652070726F62652EE4
:101A20002E2E0A003F4E756D626572206F66206C27
:101A300065677320696E206D6F76656D656E7420C5
:101A40006E6F7420706C61757369626C65202830EC
:101A50002D3135292E0A003F2028582C5929206F76
:101A60007574206F6620626F756E64732E0A003F76
:101A700053616D706C652073697A65206E6F742098
:101A8000706C61757369626C652028342D3530295E
:101A90002E0A004D3438205A2D50726F6265205244
:101AA00065706561746162696C69747920546573ED
:101AB000740A003F2856296572626F7365206C6551
:101AC00076656C20697320696D706C6175736962ED
:101AD0006C652028302D34292E0A0070012C0190CD
:101AE000012701B0012201C0011D01F00118011000
:101AF00002130130020E016002090190020401C0CC
:101B000002FF000003FA004003F5008003F000D05C
:101B100003EB002004E6007004E100E004DC004078
:101B200005D700C005D2004006CD00D006C8008011
:101B300007C3003008BE00F008B900C009B400B007
:101B40000AAF00B00BAA00D00CA500000EA00050F8
:101B50000F9B00C01096005012910000148C00C022
:101B6000158700B0178200B0197D00D01B780000E7
:101B70001E730040206E0090226900F02464004033
:101B8000275F0090295A00E02B5500102E500020AE
:101B9000304B0010324600E033410090353C0010DD
:101BA00037370070383200A0392D00B03A2800A035
:101BB0003B2300603C1E00103D1900903D140010B6
:101BC0003E0F00703E0A00C03E0500003F0000408E
:101BD0003FFBFF803FF6FFC03FF1FF453400453338
:101BE000004532004531004530005A32005932007C
:101BF0005832005A0059005800202F002042403A25
:101C00000020403A0025753A2530327500253032E3
:101C1000753A253032750025756420253032753AC5
:101C20002530327500F71BF51BF31BF01BED1BEA8B
:101C30001BE71BE41BE11BDE1BDB1B7472756500DD
:101C400066616C7365002074656D70657261747592
:101C50007265207072657761726E20747269676751
:101C6000657265643A2000207072657761726E203B
:101C7000666C616720636C65617265640A00206848
:101C80006F6D696E672073656E73697469766974C8
:101C9000793A20002063757272656E742064656302
:101CA00072656173656420746F20006D41290A00BC
:101CB00020647269766572206F76657274656D70E6
:101CC00065726174757265207761726E696E6721E5
:101CD0002028003A2000447269766572206572728D
:101CE0006F720073686F727420746F2067726F7503
:101CF0006E642028636F696C2042290A0073686F44
:101D0000727420746F2067726F756E642028636F21
:101D1000696C2041290A006F76657274656D706583
:101D20007261747572650A0020647269766572204A
:101D30006572726F722064657465637465643A0AD3
:101D40000000000000010204040000001C1C0C0440
:101D5000040402010000000000040810000000005C
:101D6000002D2D2D2D2D2D007C4D61726C696E7C0A
:101D7000002D2D2D2D2D2D006E6F76612D6C616245
:101D8000732E6F7267006E6F76612D6C6162732EB9
:101D90006F72670020312E312E39002020506C6187
:101DA0006E6E657242756666657242797465733AE5
:101DB00020002046726565204D656D6F72793A206E
:101DC00000436F6D70696C65643A204F6374202026
:101DD0003720323031390A00207C20417574686F19
:101DE000723A205061756C2043686173652026202B
:101DF0004A6F686E204C696E6B0A00323031382DA4
:101E000030382D303100204C61737420557064617E
:101E10007465643A2000312E312E390A004D61720A
:101E20006C696E0020536F6674776172652052652D
:101E30007365740A00205761746368646F67205289
:101E4000657365740A002042726F776E206F757437
:101E50002052657365740A002045787465726E615E
:101E60006C2052657365740A00506F776572557007
:101E70000A0073746172740A006175746F25692EAB
:101E800067006572726F722077726974696E67207D
:101E9000746F2066696C650A00456E6473746F70B8
:101EA0007320256320256320256320256300205AA5
:101EB0003A0020593A0020583A00656E6473746FF6
:101EC0007073206869743A2000446F6E65207361F6
:101ED00076696E672066696C652E0A004D3239009E
:101EE00020204E6F7A7A6C653A200066696C616DCD
:101EF000656E74207075726765005761697420663D
:101F00006F7200746F20726573756D65005761693B
:101F10007420666F72207072696E7400436172641F
:101F20002072656D6F766564004461746120496E4E
:101F30006A656374656400457874727564657200DF
:101F40004D6F7665205A004D6F76652059004D6FB4
:101F500076652058005072657061726500496E693F
:101F60007469616C697A6520454550524F4D004354
:101F70006F6E74726F6C00526573746F7265206659
:101F800061696C73616665004C6F61642073657490
:101F900074696E677300496E697469616C697A650A
:101FA00020454550524F4D0053746F726520736544
:101FB0007474696E67730046696C616D656E740058
:101FC0004D6F74696F6E0054656D706572617475E4
:101FD0007265004D61696E005072656865617420BC
:101FE0005045544720636F6E6600507265686561A6
:101FF0007420504C4120636F6E66005049442D445C
:10200000005049442D44005049442D490050494452
:102010002D49005049442D50005049442D50002076
:102020000220466163740020022046616374002030
:1020300002204D6178002002204D617800200220AE
:102040004D6178002002204D696E002002204D690C
:102050006E002002204D696E004F6666004F6E20B4
:10206000004175746F74656D700046616E20737009
:102070006565640046616E20737065656400466145
:102080006E2073706565640042656400426564009B
:10209000426564004E6F7A7A6C65004E6F7A7A6C96
:1020A00065004E6F7A7A6C6500436F6E74726F6C68
:1020B0000053746F72652073657474696E67730082
:1020C0004265640042656400426564004E6F7A7A3E
:1020D0006C65004E6F7A7A6C65004E6F7A7A6C652B
:1020E0000046616E2073706565640046616E207302
:1020F000706565640046616E2073706565640054A8
:10210000656D70657261747572650043616E6E6FA6
:1021100074206F70656E207375626469722000654B
:1021200063686F3A00453120544845524D414C2078
:1021300052554E415741590042454420544845525A
:102140004D414C2052554E415741590054686572DB
:102150006D616C2052756E6177617900001C1F11F2
:10216000111F00000006191803130C00040E1F04B1
:102170001C000000000E1315110E00001C10181793
:1021800005060500040A0A0A0A11110E0C12120CA7
:1021900000000000001F1511151F00005072656837
:1021A00065617420504C4120456E64005072656832
:1021B00065617420504C412042656400507265682E
:1021C00065617420504C4100507265706172650009
:1021D00050726568656174205045544720456E64AF
:1021E000005072656865617420504554472042650F
:1021F0006400507265686561742050455447005012
:10220000726570617265004D3432380050726568D5
:1022100065617420504C4100436F6F6C646F776E42
:1022200000507265686561742050455447004368EA
:10223000616E67652066696C616D656E74004469E6
:102240007361626C65207374657070657273004DA4
:1022500038340053657420686F6D65206F6666734F
:102260006574730046616465204865696768740039
:102270004661646520486569676874004661646505
:1022800020486569676874004F6666004F6E2000DD
:10229000426564204C6576656C696E67004C6576B6
:1022A000656C20626564004732380A473239004362
:1022B000616C696272617465205A004732380A4D58
:1022C000393135004175746F20686F6D6500473294
:1022D00038004D6F76652061786973004D61696ED5
:1022E000004D6F76652058004D6F76652059004D82
:1022F0006F7665205A004578747275646572004D7A
:102300006F766520302E316D6D004D6F7665203112
:102310006D6D004D6F76652031306D6D004D6F76BF
:102320006520617869730045787472756465720020
:102330004D6F7665205A004D6F76652059004D6FC0
:1023400076652058004D61782054656D703A2031D3
:102350003030004D696E2054656D703A2035005460
:102360004265643A4550434F53203130304B004D65
:1023700061782054656D703A20323835004D696EB1
:102380002054656D703A20350054303A2045504352
:102390004F53203130304B005053553A2047656E33
:1023A000657269630050726F746F636F6C3A2031AD
:1023B0002E3000426175643A2031313532303000C0
:1023C00045696E73792052616D626F0042696C6974
:1023D0006E656172204C6576656C696E6700457844
:1023E000747275646572733A2031006E6F76612D78
:1023F0006C6162732E6F7267004E6F76613330309E
:10240000204265746100323031382D30382D303142
:1024100000312E312E39004D61726C696E005072A0
:10242000696E7465722053746174730054686572C8
:102430006D6973746F727300426F61726420496ECC
:10244000666F005072696E74657220496E666F0027
:102450004D61696E004D37303220542564004D3691
:10246000303020423020542564004D373032203B3C
:102470002564004D3730312054256400556E6C6F53
:1024800061642066696C616D656E7400556E6C6F79
:1024900061642066696C616D656E74004D37303221
:1024A000004D373031004C6F61642066696C616D9E
:1024B000656E74004D363030204230004368616EE6
:1024C00067652066696C616D656E74005072657039
:1024D000617265005052494E542050415553454455
:1024E00000554E4C4F41442046494C414D454E54B9
:1024F000004C4F41442046494C414D454E540050FC
:1025000075726765206D6F726500436F6E74696EDA
:10251000756500524553554D45204F5054494F4E17
:10252000533A0020204E6F7A7A6C653A2000636837
:10253000616E6765006F66207468652066696C610E
:102540006D656E74005761697420666F72207374D4
:102550006172740020204E6F7A7A6C653A200066B2
:10256000696C616D656E7420756E6C6F6164005787
:1025700061697420666F720020204E6F7A7A6C65F4
:102580003A2000506C6561736520776169742E2E66
:102590002E0048656174696E67206E6F7A7A6C658B
:1025A0000020204E6F7A7A6C653A2000686561746D
:1025B000206E6F7A7A6C652E00507265737320629C
:1025C0007574746F6E20746F0020204E6F7A7A6C71
:1025D000653A2000746F20636F6E74696E75652EA6
:1025E0002E2E00616E6420707265737320627574A4
:1025F000746F6E00496E736572742066696C616DEC
:10260000656E740020204E6F7A7A6C653A20006601
:10261000696C616D656E74206C6F616400576169EF
:102620007420666F720048617264636F6465642031
:1026300044656661756C742053657474696E677364
:10264000204C6F616465640A00DC050000580200DC
:102650000014000000E80300000000FA430000C876
:10266000420000E0400000C8410000A0420000A07D
:10267000420000C8440080124320204D393036000B
:1026800020204D393133003A0A0020286D6D290091
:1026900020204D3931340020204D363033200020A9
:1026A00055004C0046696C616D656E74206C6F61FD
:1026B000642F756E6C6F6164206C656E67746873EF
:1026C0003A0A0020590020580053656E736F726CEF
:1026D00065737320686F6D696E67207468726573C7
:1026E000686F6C643A0A00205430204500205A007C
:1026F0002059002058004879627269642054687239
:102700006573686F6C643A0A0020543020450020DD
:102710005A0020590020580053746570706572206B
:102720006472697665722063757272656E743A0AB6
:102730000020204D383531205A005A2D50726F62DA
:1027400065204F66667365740020440020490020B0
:10275000204D33303120500050494420736574744B
:10276000696E67733A0A0020460020420020480044
:1027700020204D3134352053004D617465726961FC
:102780006C2068656174757020706172616D65742C
:102790006572733A0A00205A00204A00202047320E
:1027A000392057204900205A0020204D3432302053
:1027B00053004175746F20426564204C6576656CEA
:1027C000696E673A0A00205A0020590020204D32D5
:1027D0003036205800486F6D65206F6666736574EB
:1027E0003A0A00204500205A0020590020580020B5
:1027F000540020530020204D323035205100204518
:102800003C6D61785F655F6A65726B3E0020583C85
:102810006D61785F785F6A65726B3E20593C6D61CF
:10282000785F795F6A65726B3E205A3C6D61785FB4
:102830007A5F6A65726B3E00416476616E636564BF
:102840003A20513C6D696E5F7365676D656E745FAC
:1028500074696D655F75733E20533C6D696E5F668C
:10286000656564726174653E20543C6D696E5F7489
:10287000726176656C5F66656564726174653E0061
:1028800020540020520020204D323034205000418E
:102890006363656C65726174696F6E2028756E691B
:1028A00074732F7332293A20503C7072696E745FD2
:1028B000616363656C3E20523C726574726163743F
:1028C0005F616363656C3E20543C74726176656C35
:1028D0005F616363656C3E0A00204500205A00205A
:1028E000590020204D3230312058004D6178696DFB
:1028F000756D20416363656C65726174696F6E20EC
:1029000028756E6974732F7332293A0A00204500C6
:10291000205A0020590020204D3230332058004DDD
:102920006178696D756D2066656564726174657343
:102930002028756E6974732F73293A0A00204500A8
:10294000205A0020590020204D393220580053745D
:102950006570732070657220756E69743A0A002084
:10296000204D3230302044300A0020204D323030AB
:102970002044002044697361626C65640A00466902
:102980006C616D656E742073657474696E67733AFB
:102990000020204D3134392043203B20556E69748E
:1029A0007320696E2043656C736975730A0020207B
:1029B000473231202020203B004573746570732F0F
:1029C0006D6D004573746570732F6D6D005A73746F
:1029D0006570732F6D6D005A73746570732F6D6D14
:1029E000005973746570732F6D6D00597374657041
:1029F000732F6D6D005873746570732F6D6D005873
:102A000073746570732F6D6D004D6F74696F6E0018
:102A100053746570732F6D6D004A65726B0041636E
:102A200063656C65726174696F6E0056656C6F6387
:102A30006974790050726F6265205A204F66667320
:102A4000657400436F6E74726F6C004C6F6164202C
:102A50006D6D004C6F6164206D6D004C6F61642082
:102A60006D6D00556E6C6F6164206D6D00556E6C00
:102A70006F6164206D6D00556E6C6F6164206D6DCB
:102A80000046696C2E204469612E0046696C2E2038
:102A90004469612E004F6666004F6E200045206934
:102AA0006E206D6D3300436F6E74726F6C00436106
:102AB0006E6E6F7420656E746572207375626469E2
:102AC000723A2000052E2E004D61696E0000457897
:102AD00074727564656420746F74616C3A200025AB
:102AE0006C642E25696D00004C6F6E6765737420F1
:102AF0006A6F622074696D653A200000546F7461DA
:102B00006C207072696E742074696D653A200043A0
:102B10006F6D706C657465643A20005072696E74F4
:102B200020436F756E743A20004D65736820706F96
:102B3000696E742063616E6E6F74206265207265C9
:102B4000736F6C7665640A004D34323120696E63B0
:102B50006F727265637420706172616D6574657205
:102B60002075736167650A004F666673657473202C
:102B70006170706C696564004572723A20546F6FC1
:102B8000206661722100546F6F2066617220667248
:102B90006F6D207265666572656E636520706F6922
:102BA0006E740A00496E736572742066696C616D9B
:102BB000656E7420616E6420707265737320627537
:102BC00074746F6E0A00507265737320627574744A
:102BD0006F6E20746F2068656174206E6F7A7A6CF6
:102BE000650A00496E736572742066696C616D6573
:102BF0006E7420616E6420707265737320627574E8
:102C0000746F6E20286F72204D313038290A0047CA
:102C10003238205A000A486F6D696E67205A206466
:102C2000756520746F206C6F737420737465707396
:102C30000A000A43616C6962726174696F6E206395
:102C4000757272656E743A205A000A506C65617331
:102C50006520686F6D65205A206178697320666908
:102C60007273740A002569730025696D20256973E4
:102C7000002569682025696D202569730025696430
:102C8000202569682025696D2025697300256979EB
:102C900020256964202569682025696D20256973D0
:102CA000004B494C4C45442E200053544F50504546
:102CB000442E20005072696E7465722073746F70B8
:102CC0007065642064756520746F206572726F7220
:102CD000732E2046697820746865206572726F7261
:102CE00020616E6420757365204D39393920746F09
:102CF00020726573746172742E202854656D70653E
:102D00007261747572652069732072657365742EC3
:102D10002053657420697420616674657220726541
:102D20007374617274696E67290A004E6F2043687C
:102D300065636B73756D2077697468206C696E6567
:102D4000206E756D6265722C204C617374204C6925
:102D50006E653A20004E6F20436865636B73756D36
:102D60002077697468206C696E65206E756D626588
:102D7000722C204C617374204C696E653A2000639C
:102D80006865636B73756D206D69736D61746368DD
:102D90002C204C617374204C696E653A20004C699C
:102DA0006E65204E756D626572206973206E6F745A
:102DB000204C617374204C696E65204E756D6265A0
:102DC000722B312C204C617374204C696E653A2053
:102DD000004D313130004D33310053442072656174
:102DE00064206572726F720A00446F6E65207072A3
:102DF000696E74696E672066696C650A0020496EA9
:102E000076616C69642065787472756465722000FF
:102E10004572726F722077726974696E6720746F81
:102E200020454550524F4D210A00454550524F4DC7
:102E3000206461746173697A65206572726F722EA5
:102E40000A00290A002062797465733B206372636B
:102E5000200053657474696E67732053746F7265D4
:102E600064202800486F6D65202573257325732025
:102E70006669727374002066697273740A005A007E
:102E800059005800486F6D652000534420636172FB
:102E900064206F6B0A006F70656E526F6F742066EE
:102EA00061696C65640A00766F6C756D652E696E7C
:102EB0006974206661696C65640A00534420696E18
:102EC0006974206661696C0A004265616D696E67AC
:102ED00020746F2066696C653A20006F70656E2003
:102EE0006661696C65642C2046696C653A20006FE8
:102EF00070656E206661696C65642C2046696C653E
:102F00003A200046696C652073656C65637465647E
:102F10000A002053697A653A200046696C65206F83
:102F200070656E65643A20002066696C653A200021
:102F3000646F696E67006672657368004E6F772014
:102F400000454E4420535542524F5554494E450A70
:102F5000002220706F73002220706172656E743AD7
:102F60002200535542524F5554494E452043414C3F
:102F70004C207461726765743A22004B494C4C4591
:102F8000442E2000747279696E6720746F2063612B
:102F90006C6C207375622D67636F64652066696C65
:102FA0006573207769746820746F6F206D616E7926
:102FB000206C6576656C732E204D4158206C6576CB
:102FC000656C2069733A004572726F723A006F70D7
:102FD000656E206661696C65642C2046696C653A93
:102FE000200006FFFFFFFFFF0001010101016265F4
:102FF000640A002C2073797374656D2073746F708C
:1030000070656421204865617465725F49443A20A7
:10301000004265642068656174696E672066616955
:103020006C65640048656174696E67206661696CEF
:1030300065640045312048656174696E672066618A
:10304000696C65640048656174696E6720666169D2
:103050006C6564004531204572723A204D415854E8
:10306000454D50004572723A204D415854454D50DF
:1030700020424544004D415854454D5020747269DA
:10308000676765726564004531204572723A204D6C
:10309000494E54454D50004572723A204D494E54A8
:1030A000454D5020424544004D494E54454D502019
:1030B000747269676765726564004D383420582002
:1030C00059205A2045005654726176206D696E0071
:1030D0005654726176206D696E0056547261762086
:1030E0006D696E00566D696E00566D696E00566DA5
:1030F000696E00566D6178204500566D61782045F7
:1031000000566D6178204500566D6178205A005652
:103110006D6178205A00566D6178205A00566D61B5
:1031200078205900566D6178205900566D617820DD
:103130005900566D6178205800566D61782058000E
:10314000566D61782058004D6F74696F6E00416D47
:103150006178204500416D6178204500416D6178BE
:10316000205A00416D6178205A00416D61782059E4
:1031700000416D6178205900416D6178205800410F
:103180006D6178205800412D74726176656C004144
:103190002D74726176656C00412D72657472616385
:1031A0007400412D726574726163740041636365DC
:1031B0006C00416363656C004D6F74696F6E0056FF
:1031C000652D6A65726B0056652D6A65726B0056D7
:1031D000652D6A65726B00567A2D6A65726B0056B2
:1031E0007A2D6A65726B0056792D6A65726B00568E
:1031F000792D6A65726B0056792D6A65726B00567F
:10320000782D6A65726B0056782D6A65726B005670
:10321000782D6A65726B004D6F74696F6E00FFFDEB
:10322000FCFAF8F6F4F2F0EEECEAE9E7E5E3E1E0C7
:10323000DEDCDAD9D7D5D4D2D0CFCDCBCAC8C7C57A
:10324000C3C2C0BFBDBCBAB9B7B6B4B3B2B0AFADFC
:10325000ACAAA9A8A6A5A4A2A1A09E9D9C9A999853
:103260009795949392908F8E8D8B8A898887868488
:10327000838281807F7E7D7B7A797877767574739F
:103280007271706F6E6D6C6B6A6968676665646396
:103290006261605F5E5D5C5B5A5958585756555481
:1032A00053525150504F4E4D4C4B4A4A4948474655
:1032B00046454443424241403F3E3E3D3C3B3B3A13
:1032C00039383837363535343332323130302F2EC5
:1032D0002E2D2C2B2B2A2929282727262525242368
:1032E0002322212120201F1E1E1D1C1C1B1B1A19FE
:1032F0001918181716161515141313121211111088
:103300000F0F0E0E0D0D0C0C0B0A0A090908080709
:1033100007060605050404030302020100005452D7
:1033200049474745524544006F70656E003A20009A
:1033300066696C616D656E74007A5F6D696E0079A7
:103340005F6D696E00785F6D696E005265706F72B7
:1033500074696E6720656E6473746F702073746136
:103360007475730A00000000010000000100008075
:1033700000555555000000400033333300AAAA2AF7
:10338000004992240000002000C7711C009999197F
:1033900000D1451700555515003BB11300244912C3
:1033A0000011111100000010000F0F0F00E3380E84
:1033B0000043790D00CCCC0C00C3300C00E8A20B0C
:1033C0000064210B00AAAA0A00703D0A009DD809DA
:1033D00000427B090092240900DCD3080088880899
:1033E000001042080000000800F0C10700878707AE
:1033F0000075500700711C07003EEB0600A1BC06DB
:10340000006990060066660600703E0600611806B8
:103410000017F4050074D105005BB00500B29005FB
:1034200000627205005555050078390500B81E0583
:1034300000050505004EEC040087D40400A1BD047E
:103440000090A7040049920400C17D0400EE6904C5
:1034500000C7560400444404005C32040008210400
:103460000041100400000004003FF00300F8E003F6
:103470000026D20300C3C30300CCB503003AA8035F
:10348000000A9B0300388E0300C08103009F750370
:1034900000D0690300505E03001D5303003448034D
:1034A00000913D03003333030016290300381F0346
:1034B0000097150300300C0300030303000BFA020E
:1034C0000049F10200BAE802005CE002002DD802D7
:1034D000002DD0020059C80200B0C0020031B9026C
:1034E00000DAB10200AAAA0200A0A30200BC9C025A
:1034F00000FA9502005C8F0200DF880200828202DF
:1035000000457C02002776020027700200436A0211
:10351000007C640200D05E02003F590200C85302E2
:1035200000290A002062797465733B20637263206E
:10353000002073746F7265642073657474696E67BC
:10354000732072657472696576656420280020288E
:1035500063616C63756C6174656429210A002021C4
:103560003D2000454550524F4D20435243206D6948
:10357000736D61746368202D202873746F726564A5
:103580002920002053697A653A2000496E646578E5
:103590003A2000204D61726C696E3D563535290A1E
:1035A0000028454550524F4D3D00454550524F4D26
:1035B0002076657273696F6E206D69736D617463D7
:1035C00068200000002100240027002A002D003080
:1035D00000330001010000040107010A0100000A94
:1035E0000B02090C0D0E0807030401000000000087
:1035F00000000000000000000000000000000000CB
:103600000000000000000000001211100000000087
:1036100000000000000000000000000000000000AA
:10362000000000000000000000000000000000009A
:103630000000004368616E67652066696C616D65B6
:103640006E7400556E6C6F61642066696C616D65A7
:103650006E74004C6F61642066696C616D656E7498
:10366000005072656865617420504554470050727F
:10367000656865617420504C41004368616E676500
:103680002066696C616D656E74004D3234004D3298
:10369000332025730046696C616D656E7420757307
:1036A00065643A200053746174733A20002C204CF6
:1036B0006F6E67657374206A6F623A2000546F748E
:1036C000616C2074696D653A200053746174733ABB
:1036D00020002C204661696C65643A20002C20464D
:1036E000696E69736865643A20005072696E74731C
:1036F0003A200053746174733A200020573A004511
:1037000020436F6F6C696E672E2E2E004520486532
:103710006174696E672E2E2E0020573A0042656450
:1037200020636F6F6C696E672E2E2E0042656420D9
:1037300068656174696E672E2E2E00526573656E22
:10374000643A20006F6B0000D400F60011241FBE05
:10375000CFEFD1E2DEBFCDBF00E00CBF13E0A0E0B1
:10376000B2E0E4EEF4E702E00BBF02C007900D9276
:10377000AA33B107D9F726E1AAE3B3E001C01D924D
:10378000AA34B207E1F71BE1C5EADBE100E006C0BD
:1037900021970109802FFE010F94D639C43AD10731
:1037A00080E00807A9F70F941E240D94613A0C9449
:1037B00000002F923F924F925F926F927F928F9272
:1037C0009F92AF92BF92CF92DF92EF92FF920F93B0
:1037D0001F93CF93DF93CDB7DEB7CB56D1090FB68A
:1037E000F894DEBF0FBECDBF91E09093110480919D
:1037F00095158D3411F40C94EC24843511F40C944B
:103800004831873411F00C94943120909315309006
:1038100094152BE12216310409F47BC6CCF444E064
:10382000241631044CF452E0251631040CF041C04A
:1038300037FE38C00C94E82484E02816310409F4DB
:10384000E7C59CE02916310409F421C60C94E8244C
:10385000AAE22A16310409F47BC774F4EDE12E16AE
:10386000310409F49DC60CF484C62EE122163104FD
:1038700009F49AC60C94E8243BE52316310411F4AC
:103880000C9466244CE52416310411F40C946A243B
:103890005AE52516310411F00C94E82410923E03E9
:1038A0000C9496318091430281110C949B310C94BD
:1038B000963180914302882311F40C9496310E9432
:1038C000FF5282E50E9477D6882309F44CC10E94FA
:1038D000FBD54B015C0120E030E0A9010F946A3276
:1038E000882309F470C18091310490913204A09131
:1038F0003304B091340488AF99AFAAAFBBAF209125
:1039000035043091360440913704509138042CAF7F
:103910003DAF4EAF5FAF8091E6039091E703A0917A
:10392000E803B091E9032C968CAF9DAFAEAFBFAF6B
:103930002C972091EA033091EB034091EC035091D6
:10394000ED0328962CAF3DAF4EAF5FAF28979C019B
:10395000AD0168AD79AD8AAD9BAD0F946A3281112E
:103960000FC028962CAD3DAD4EAD5FAD28976CAD28
:103970007DAD8EAD9FAD0F946A32882309F423C1CB
:1039800011E032E02316310409F010E020E030E0CD
:10399000A901C501B4010F946A32881F8827881FC6
:1039A000181759F080E090E0A0E8BFEB64968CAF68
:1039B0009DAFAEAFBFAF64970AC020E030E040E8F3
:1039C0005FE364962CAF3DAF4EAF5FAF649728AD19
:1039D00039AD4AAD5BAD2C966CAD7DAD8EAD9FAD76
:1039E0002C970F94E63660966CAF7DAF8EAF9FAF8D
:1039F00060972CAD3DAD4EAD5FAD28966CAD7DAD05
:103A00008EAD9FAD28970F94E6366B017C016096D2
:103A10002CAD3DAD4EAD5FAD6097CA01B9010F94BD
:103A2000CF322B013C01A7019601C701B6010F94CB
:103A3000CF329B01AC01C301B2010F94E7360F9462
:103A4000523924966CAF7DAF8EAF9FAF249720E0A4
:103A500030E040E05FE30F94CF322B013C01A50141
:103A60009401C501B4010F94CF324B015C01A30155
:103A70009201C301B2010F94CF329B01AC01C50189
:103A8000B4010F94E6360F94523964962CAD3DADD7
:103A90004EAD5FAD64970F94CF324B015C01C7010F
:103AA000B601905824962CAD3DAD4EAD5FAD249738
:103AB0000F94C337A50194010F94CF326B017C01A1
:103AC0002C962CAD3DAD4EAD5FAD2C9768AD79AD6C
:103AD0008AAD9BAD0F94E73620E030E040E05FE335
:103AE0000F94CF329B01AC01C701B6010F94E736AA
:103AF00028AD39AD4AAD5BAD0F94E6366B017C0164
:103B000028962CAD3DAD4EAD5FAD28976CAD7DAD2B
:103B10008EAD9FAD0F94E73620E030E040E05FE3EC
:103B20000F94CF322B013C0124962CAD3DAD4EAD10
:103B30005FAD249760966CAD7DAD8EAD9FAD609707
:103B40000F94C337A50194010F94CF329B01AC01B0
:103B5000C301B2010F94E7362CAD3DAD4EAD5FAD64
:103B60000F94E63614C089E40E9477D6882329F0A2
:103B70000E94FBD56B017C0103C0C12CD12C7601C6
:103B80008AE40E9477D6882309F10E94FBD52C96FF
:103B90006CAF7DAF8EAF9FAF2C9720E030E0A901D6
:103BA000C701B6010F946A3281111FC020E030E0D6
:103BB000A9012C966CAD7DAD8EAD9FAD2C970F9469
:103BC0006A32811112C0E7ECFFE20EC420E030E05F
:103BD000A901C701B6010F946A328823A1F32C967C
:103BE0001CAE1DAE1EAE1FAE2C97D701C601B0583D
:103BF00088AF99AFAAAFBBAF2C962CAD3DAD4EAD03
:103C00005FAD2C9750582CAF3DAF4EAF5FAF9C01CE
:103C1000AD01BC01CD010F94CF324B015C012CAD45
:103C20003DAD4EAD5FADCA01B9010F94CF329B01DE
:103C3000AC01C501B4010F94E7360F945239A09638
:103C40006CAF7DAF8EAF9FAFA09780913104909104
:103C50003204A0913304B091340428968CAF9DAF08
:103C6000AEAFBFAF2897A7019601BC01CD010F945D
:103C7000E73664966CAF7DAF8EAF9FAF64972091AF
:103C800035043091360440913704509138046096E1
:103C90002CAF3DAF4EAF5FAF60972C962CAD3DADD6
:103CA0004EAD5FAD2C9760966CAD7DAD8EAD9FAD8A
:103CB00060970F94E736A4966CAF7DAF8EAF9FAF41
:103CC000A4978091E6039091E703A091E803B09157
:103CD000E90368968CAF9DAFAEAFBFAF68976496AF
:103CE0002CAD3DAD4EAD5FAD6497BC01CD010F94E1
:103CF000E6366B017C012091EA033091EB034091A1
:103D0000EC035091ED036C962CAF3DAF4EAF5FAF1F
:103D10006C97A4962CAD3DAD4EAD5FADA4976C965F
:103D20006CAD7DAD8EAD9FAD6C970F94E6364B01BB
:103D30005C018091390490913A04A0913B04B091C8
:103D40003C04A8968CAF9DAFAEAFBFAFA8979C01C7
:103D5000AD016091EE037091EF038091F0039091BB
:103D6000F1030F94E63624966CAF7DAF8EAF9FAF14
:103D70002497A701960168AD79AD8AAD9BAD0F94EC
:103D8000CF322B013C01A50194016CAD7DAD8EAD10
:103D90009FAD0F94CF329B01AC01C301B2010F94D0
:103DA000E7362B013C01A501940168AD79AD8AADE0
:103DB0009BAD0F94CF324B015C01A70196016CAD16
:103DC0007DAD8EAD9FAD0F94CF329B01AC01C5018F
:103DD000B4010F94E636A30192010F945A376B0198
:103DE0007C0120E030E0A9010F946A3287FF0AC00D
:103DF0002BED3FE049EC50E4C701B6010F94E736E4
:103E00006B017C0192E02916310451F42BED3FE067
:103E100049EC50E4C701B6010F94E6366B017C0112
:103E200020E030E0A901C701B6010F946A32811188
:103E300028C068962CAD3DAD4EAD5FAD6897289615
:103E40006CAD7DAD8EAD9FAD28970F946A32811118
:103E500018C06C962CAD3DAD4EAD5FAD6C976096C5
:103E60006CAD7DAD8EAD9FAD60970F946A328111C0
:103E700008C00BEDC02E0FE0D02E09ECE02E00E4C0
:103E8000F02EA7019601A0966CAD7DAD8EAD9FADD5
:103E9000A0970F94CF324B015C0120E030E0A901E4
:103EA00024966CAD7DAD8EAD9FAD24970F946A3294
:103EB0008823E9F0A5019401C501B4010F94CF3224
:103EC0004B015C0124962CAD3DAD4EAD5FAD24970A
:103ED000CA01B9010F94CF329B01AC01C501B401F5
:103EE0000F94E7360F9452394B015C010DC020E06E
:103EF00030E0A901C501B4010F940D3987FF04C05A
:103F0000B7FAB094B7F8B0942FE632E143E85AE339
:103F1000C501B4010F946A3287FF02C00C94963138
:103F2000C501B4010F945C380F9430382E967FAFE2
:103F30006EAF2E97DB01AB2B31F4E1E0F0E02E9673
:103F4000FFAFEEAF2E9740903D0450903E0460903E
:103F50003F04709040042E962EAD3FAD2E97B901D0
:103F600080E090E00F946E324B015C019B01AC014C
:103F7000C701B6010F94C33728966CAF7DAF8EAFE3
:103F80009FAF2897A501940124966CAD7DAD8EADB1
:103F90009FAD24970F94C337A0966CAF7DAF8EAFC3
:103FA0009FAFA097A30192016091F2037091F30378
:103FB0008091F4039091F5030F94E636A5019401E6
:103FC0000F94C337AC966CAF7DAF8EAF9FAFAC97FD
:103FD00028962CAD3DAD4EAD5FAD2897CA01B90115
:103FE0000F94CF3220E030E040E05FE30F94CF3217
:103FF0009B01AC0160E070E080E89FE30F94E6363F
:1040000068966CAF7DAF8EAF9FAF6897A8968CAD6A
:104010009DADAEADBFADA89789879A87AB87BC87AA
:104020004D865E866F86788A60911E0270911F02AF
:10403000072E000C880B990B0F94703220911402FC
:104040003091150240911602509117020F94CF3211
:104050002AE037ED43E25CE30F94CF326CAB7DABEB
:104060008EAB9FAB0E9408969B01AC0128533F4F3B
:104070004F4F5F4F6C962CAF3DAF4EAF5FAF6C971D
:1040800048AC59AC6AAC7BAC22242394312C39E186
:1040900021963FAF21972E964EAD5FAD2E974215DC
:1040A000530509F44DC10E9490EF0E940896DC016F
:1040B000CB016C962CAD3DAD4EAD5FAD6C97821BC8
:1040C000930BA40BB50BB7FD11C00E9408969B0182
:1040D000AC0128533F4F4F4F5F4F6C962CAF3DAF15
:1040E0004EAF5FAF6C9780E00E94754021963FAD68
:1040F0002197315021963FAF2197332309F445C0D2
:104100002CAD3DAD4EAD5FAD68966CAD7DAD8EAD69
:104110009FAD68970F94CF326B017C019201A30190
:1041200028966CAD7DAD8EAD9FAD28970F94CF32A4
:10413000A70196010F94E7367B018C019201A30140
:1041400068966CAD7DAD8EAD9FAD68970F94CF3204
:104150004B015C012CAD3DAD4EAD5FAD28966CAD15
:104160007DAD8EAD9FAD28970F94CF329B01AC01F2
:10417000C501B4010F94E6362B013C01C701D801FB
:104180008CAF9DAFAEAFBFAF55C0B10180E090E046
:104190000F946E3228962CAD3DAD4EAD5FAD289795
:1041A0000F94CF324B015C010F94C0376B017C013F
:1041B000C501B4010F9448394B015C01A701960178
:1041C00068AD79AD8AAD9BAD0F94CF322B013C0128
:1041D0002C962CAD3DAD4EAD5FAD2C97C501B40115
:1041E0000F94CF32A30192010F94E7362B013C01CB
:1041F000A501940168AD79AD8AAD9BAD0F94CF3226
:104200004B015C012C962CAD3DAD4EAD5FAD2C97B6
:10421000C701B6010F94CF329B01AC01C501B401B7
:104220000F94E6366CAF7DAF8EAF9FAF49E121961C
:104230004FAF21979201A30164966CAD7DAD8EAD19
:104240009FAD64970F94E73669837A838B839C8351
:104250002CAD3DAD4EAD5FADA4966CAD7DAD8EADDC
:104260009FADA4970F94E7366D837E838F839887E5
:10427000A0962CAD3DAD4EAD5FADA09769857A851A
:104280008B859C850F94E73669877A878B879C8717
:10429000AC962CAD3DAD4EAD5FADAC976D857E85DA
:1042A0008F8598890F94E7366D877E878F87988BE7
:1042B00080914102882321F0CE0101960E94FC3CAE
:1042C000E09012041CA61DA61EA61FA689819A8135
:1042D000AB81BC8188A399A3AAA3BBA38D819E8136
:1042E000AF81B8858CA39DA3AEA3BFA389859A8512
:1042F000AB85BC8588A799A7AAA7BBA7AE01485DD7
:104300005F4FBE016C5D7F4FCE0180960E94FC72B4
:10431000CE018C966C018E010C5C1F4F9E01235FB9
:104320003F4FAE01485D5F4FBE016C5D7F4F0C9704
:104330000E947B64882321F09FEF291A390AABCEB3
:10434000E090120418AA19AA1AAA1BAA8091E603DF
:104350009091E703A091E803B091E90388A399A3A2
:10436000AAA3BBA38091EA039091EB03A091EC0375
:10437000B091ED038CA39DA3AEA3BFA38091EE03E8
:104380009091EF03A091F003B091F10388A799A752
:10439000AAA7BBA7AE01485D5F4FBE016C5D7F4F12
:1043A000CE0180960E94FC72DE01D0966D018E01D6
:1043B0000C5C1F4F22EF33E0AE01485D5F4FBE0142
:1043C0006C5D7F4FCE0180960E947B6480E1E6EEBB
:1043D000F3E0A1E3B4E001900D928A95E1F70C942B
:1043E00096310E9479D7F80184918F010F5F1F4F9A
:1043F0008111F7CFE1E8F2E084918F010F5F1F4F49
:10440000882311F40C9496310E9479D7F801F4CFE7
:1044100080E50E9477D6882329F00E94BBD56B01E6
:104420007C0103C0C12CD12C760183E50E9477D694
:10443000882361F00E94FBD520E030E04AE754E495
:104440000F94CF320F9430386B017C010E94487278
:104450008091AE06811105C060E087E992E00E947C
:1044600004F90E940896C60ED71EE81EF91E0E9487
:104470000896DC01CB018C199D09AE09BF09B7FD77
:1044800002C00C94963180E00E947540F0CF0E94EB
:104490004CE881110C94963180E50E9477D68823F0
:1044A00019F00E94CBD501C060E068AB83E50E94A3
:1044B00077D6882319F00E94CBD501C06CE06CA799
:1044C00084E50E9477D6882319F00E94CBD501C0DD
:1044D00063E068A382E50E9477D6882319F00E94E2
:1044E000FBD504C060E070E080ED90E469837A83DE
:1044F0008B839C839E01205E3F4FAE014F5F5F4FD9
:10450000BE01645D7F4FCE01C0960F94320A0C94B9
:1045100096310E944CE881110C94963180E090E035
:10452000A0EAB0E489839A83AB83BC8380E090E007
:10453000A1E9B3E48D839E83AF83B88780E090E0E8
:10454000A0EAB1E489879A87AB87BC8780E50E949F
:1045500077D6882319F00E94CBD501C060E068A30C
:10456000BE016F5F7F4FCE0180960F949C090C9423
:104570009631809120048770873011F00C94A0311F
:104580008FE40E9477D6882319F00E94ECD503C0EF
:104590008FE40E942ED681110C9496310C94A03198
:1045A0000E94D3580C949631C0903104D0903204BC
:1045B000E0903304F090340488E50E9477D68111AE
:1045C00008C020E030E0A901C701B6010F94E7362A
:1045D00002C00E94FBD568A379A38AA39BA3C090C5
:1045E0003504D0903604E0903704F090380489E523
:1045F0000E9477D6811109C020E030E040E751E405
:10460000C701B6010F94E63602C00E94FBD59B019C
:10461000AC0169837A838B839C8368A179A18AA189
:104620009BA10E94EF3E882311F40C94963180E008
:104630000E9486550E94E55685E40E9477D688231D
:1046400021F00E94ECD5182F04C085E40E942ED6DC
:1046500011E086E50E9477D6882321F00E94CBD511
:10466000262F01C021E0412FBE016F5F7F4FCE0199
:1046700080960E94FD5F6B017C019B01AC010F9451
:10468000933981115FC088A099A0AAA0BBA020E0A7
:1046900030E0A901C501B4010F946A3287FF05C05B
:1046A00027E137EB41E558EB04C027E137EB41E563
:1046B00058E3C501B4010F94E736AB01BC0187ECA8
:1046C00092E00F94E10189809A80AB80BC8020E069
:1046D00030E0A901C501B4010F946A3287FF05C01B
:1046E00027E137EB41E558EB04C027E137EB41E523
:1046F00058E3C501B4010F94E736AB01BC0182EC6D
:1047000092E00F94E10120E030E0A901C701B60179
:104710000F946A3287FF05C027E137EB41E558EB7C
:1047200004C027E137EB41E558E3C701B6010F9418
:10473000E736AB01BC018DEB92E00F94E1018AE01A
:104740000E9479D70E94CC560E9403840C94963123
:1047500080914302882311F40C94963189E40E94DD
:1047600077D6E82E882321F00E94CBD5F62E01C003
:10477000F12C8AE40E9477D6182F882321F00E941A
:10478000CBD5062F01C000E0EE2019F0B3E0BF1535
:1047900020F0112381F0043070F0EFECF2E084910E
:1047A0008F010F5F1F4F882311F40C9496310E94E4
:1047B00079D7F801F4CF0E9465D7EE20F1F020916F
:1047C000920B3091930B4F2D4203B001439F700D1C
:1047D00011248091451590914615680F791F072E79
:1047E000000C880B990B0F9470326093E603709362
:1047F000E7038093E8039093E9031123E9F0209104
:10480000940B3091950B0203B001039F700D11249E
:104810008091471590914815680F791F072E000C5D
:10482000880B990B0F9470326093EA037093EB033B
:104830008093EC039093ED0380E50E9477D6882364
:10484000E9F00E94ECD58823E9F01123D9F020E0AB
:1048500030E040E751E46091EA037091EB0380910E
:10486000EC039091ED030F94E7366093EA037093A5
:10487000EB038093EC039093ED0304C080E50E946A
:104880002ED6E1CF86E40E9477D68823D9F00E9405
:10489000FBD56B017C0120E030E0A9010F940D39BC
:1048A000181684F420E030E040E752E4C701B60176
:1048B0000F94C3376093140270931502809316020D
:1048C000909317020E9465440C94963190933E0396
:1048D0000C949631EBE52E2EE2E03E2EFCE4EF2E1A
:1048E000F3E0FF2E81E394E099AF88AFA1E2CA2EF6
:1048F000A4E0DA2E00E010E0D1018D911D010E94AC
:1049000077D6882309F44BC00E94FBD52B013C01CC
:10491000133049F0F60120813181428153810F9497
:10492000E6362B013C01A8ADB9AD2D913D914D91DD
:104930005C91C301B2010F94E6364B015C012DEB93
:1049400037E346E855EB0F940D3987FD0AC02DEB90
:1049500037E346E855E3C501B4010F946A321816EF
:10496000F4F4133051F440923D0450923E046092AE
:104970003F047092400401E012C0A5019401F701C8
:1049800060817181828193810F94E736D7016D93A5
:104990007D938D939C931397812F0E94395D1F5FA8
:1049A000B4E0EB0EF11CE8ADF9AD3496F9AFE8AF29
:1049B000F4E0CF0ED11C143009F09ECF002321F07B
:1049C0008DE394E00E94E9E70E9403840C94963101
:1049D0000E945E640C949631809193159091941589
:1049E0008D37910509F413C60CF025C18E3491055D
:1049F00009F4C4C40CF09AC08A31910509F478C353
:104A0000ECF58431910509F46BC27CF48131910598
:104A100009F4E1C22CF4029708F465C20C94453104
:104A2000429709F40FC60C9445318731910509F47A
:104A30001FC374F48531910509F416C3469711F02C
:104A40000C94453110920809109209090C94963182
:104A50008831910509F422C3499711F00C9445312E
:104A6000109208090E948DF28AE293E090937215E9
:104A7000809371150E9415D50C9496318032910562
:104A800009F4E0C3ACF58D31910511F40C94963125
:104A900094F48B31910509F439C34C9711F00C94BF
:104AA000453140E060E080919115909192150E940F
:104AB000F3E90C9496318E31910509F4BFC34F97F9
:104AC00011F00C9445310E943EF268A379A38AA3A9
:104AD0009BA3BE016F5F7F4FCE0180960E9483D65D
:104AE00060E0CE0101960E943EF9EFE1F1E2F6C3EB
:104AF0008B34910509F43CC464F48A32910509F4BD
:104B000003C4C09711F00C9445310E94E4860C94C4
:104B100096318C34910509F42EC48D34910511F031
:104B20000C9445310F9479020C9496318D36910591
:104B300009F424C5ECF58C35910509F49FC5E4F41E
:104B40008335910509F47AC56CF48135910509F432
:104B500061C58235910511F00C94453110923D03E9
:104B60000C9496318435910509F46CC58535910511
:104B700009F46BC50C9445318A36910509F41BC5BF
:104B800054F48836910509F4FCC38936910509F47B
:104B9000B5C40C9445318B36910509F428C58C3683
:104BA000910511F00C944531109226020C94963127
:104BB0008337910509F491C1CCF48037910509F44C
:104BC0006CC454F48E36910509F403C48F369105F4
:104BD00009F410C40C9445318137910509F464C47B
:104BE0008237910509F4D2C50C9445318737910578
:104BF00009F4B9C68CF48537910509F45FC6863788
:104C0000910511F00C944531009191151091921578
:104C100083E0D12C40E067C68837910509F4A6C629
:104C20008937910511F00C9445311092B804109217
:104C3000B7040C949631823921E0920711F40C9458
:104C40009D2F0CF097C0833D910511F40C94512ECB
:104C50000CF045C0883C910509F406C7C4F48139BD
:104C6000910509F489C634F48C38910509F489C496
:104C70000C9445318B39910509F45BC48E3B910549
:104C800011F00C9445310F94A1180C9496318C3C82
:104C9000910509F471C784F4893C910509F434C77E
:104CA0008B3C910511F00C9445310BE5E02E02E0B0
:104CB000F02E08E11FE051C78D3C910509F4D1C7E2
:104CC0008E3C910511F00C944531BBE5CB2EB2E042
:104CD000DB2E1AEBE12E14E0F12E10E0CDC78D3261
:104CE00041E0940711F40C942D2FECF4823E9105D1
:104CF00011F40C94D02E54F48C3D910509F4D4C7D2
:104D00008D3D910509F4DDC70C9445318232A1E057
:104D10009A0711F40C94F92E8C32914011F40C94F2
:104D2000042F0C9445318336E1E09E0709F4D1C08D
:104D30007CF48E3221E0920711F40C94302F8F32E4
:104D4000914011F00C9445310E94CC7C0C9496312A
:104D5000803941E0940711F40C949A2F81399140E5
:104D600011F00C94453181E00E9433580E94038475
:104D70000C9496318D3BA2E09A0711F40C946830A4
:104D80000CF04BC0853FE1E09E0711F40C94A62F78
:104D90001CF5853A21E0920711F40C94A32F74F4CA
:104DA0008A3941E0940709F47CC3843A914011F0B8
:104DB0000C9445310E94CD840C9496318C3AA1E03C
:104DC0009A0709F46BC7843F914011F00C94453168
:104DD0000E941DDC0C949631883FE1E09E0711F49F
:104DE0000C94B82F6CF4863F21E0920711F40C94D8
:104DF000A92F873F914011F40C94AC2F0C944531AE
:104E0000883542E0940711F40C94DC2F8B359240E6
:104E100011F40C94DF2F0C9445318039A3E09A07EC
:104E200011F40C94D630ACF58A38E3E09E0711F407
:104E30000C94D3306CF48E3B22E0920711F40C9466
:104E40006B308335934011F40C946E300C944531E3
:104E50008B3843E0940711F40C9496318F389340CB
:104E600011F00C94453160914B0880E00E948892CB
:104E70006091D20781E00E9488926091590782E098
:104E80000E9488926091E00686E00E9488920C94CD
:104E900096318339A3E09A0711F40C942D316CF408
:104EA0008139E3E09E0711F40C94D93082399340A4
:104EB00011F40C94DC300C944531803A23E09207D5
:104EC00009F4FFC1873E934011F40C9430310C94E7
:104ED0004531E7ECFFE20C94872FE7E9F4E093C457
:104EE000E9E1F3E083C0A0909115B090921580E5C0
:104EF0000E9477D6882359F00E94BBD56B017C01B4
:104F000011E0672B682B692B31F410E004C010E02E
:104F1000C12CD12C760183E50E9477D6882311F429
:104F20000C948B320E94FBD520E030E04AE754E439
:104F30000F94CF320F9430386B017C0111110BC0EC
:104F4000672B682B692B39F4A114B10421F0D5012A
:104F50008C91811102C010E001C011E00E944872E2
:104F6000112329F061E0C5010E943EF905C060E00F
:104F70008EEE92E00E9404F983E08093110481E0B8
:104F800080931004C114D104E104F104B1F00E9433
:104F90000896C60ED71EE81EF91E0E940896DC0170
:104FA000CB018C199D09AE09BF09B7FF0EC08091D6
:104FB000100481110C94903208C080911004882351
:104FC00021F080E00E947540F8CF0E94EC771092AB
:104FD00010040C94963160E081E093E00E9404F9A3
:104FE00017981698159814980C94963184918F01FF
:104FF0000F5F1F4F882321F00E9479D7F801F6CF69
:105000001092850B88E399E00E940D368BE1E8E36E
:10501000F9E0DE01159601900D928A95E1F78091F5
:105020003609909137099C838B8381E992E09A83BA
:10503000898340E050E0BE016F5F7F4F80E090E0E9
:105040000E94FAACCE0101960E94683FEAE0F3E0CC
:1050500084918F010F5F1F4F882311F40C949631B8
:105060000E9479D7F801F4CF0E9474E60C9496312F
:10507000E0919115F09192158081882329F080327A
:1050800009F410823196F8CF40E061E080919115EB
:10509000909192150E94F3E90C94963180E090E093
:1050A000A8E4B2E489839A83AB83BC8318A219A2D3
:1050B0001AA21BA21CA61DA61EA61FA68091A70EA3
:1050C000882359F020E0AE014F5F5F4FBE01605E64
:1050D0007F4FCE018C960E948763809109098823B7
:1050E00019F081E0809308090F9432020C949631F4
:1050F00080910909882311F40C94963183E50E946C
:1051000077D681110C9495320C94963183E40E94E9
:105110002ED6882309F450C0ECE5F3E084918F018A
:105120000F5F1F4F882321F00E9479D7F801F6CF37
:105130008091D30A811103C0EFE2F3E012C0BE01F7
:105140006F5F7F4F80ED9AE00E94DA358E010F5F2E
:105150001F4FF80181918F01882349F10E9479D76F
:10516000F8CF84918F010F5F1F4F882301F10E94B8
:1051700079D7F801F6CF78E7C72E73E0D72EE12C68
:10518000F12C20E08091450490E00E2C02C0959512
:1051900087950A94E2F780FD5DC1FFEFEF1AFF0AE1
:1051A00032E0C30ED11C45E0E416F10459F78AE061
:1051B0000E9479D70C94963180910909882339F09F
:1051C00080910809882319F0E9E3F3E003C0EBE4D8
:1051D000F3E028C084918F010F5F1F4F882321F0D7
:1051E0000E9479D7F801F6CF6091810B7091820B04
:1051F0008091830B9091840B4AE00E941EDA8FE22B
:105200000E9479D760917D0B70917E0B80917F0B0E
:105210009091800B4AE00E941EDA8AE00E9479D7C2
:105220000C94963184918F010F5F1F4F882311F4E6
:105230000C9496310E9479D7F801F4CF0E94DD8E4C
:105240000C9496318091080981110E9448728091D6
:105250000909882311F40C94963180E50E9477D6D1
:10526000882319F00E94ECD503C080E50E942ED659
:10527000182F482F61E080919115909192150E940E
:10528000F3E983E50E9477D6882381F00E94CBD58D
:10529000AB01BC014093810B5093820B6093830B55
:1052A0007093840B80ED9AE00E949A3480910909F2
:1052B000882319F081E08093080911110C9496312C
:1052C00013CF809191159091921521E020930709B9
:1052D00040E060E00E94F3E90C94963184918F01E4
:1052E0000F5F1F4F882321F00E9479D7F801F6CF76
:1052F000BE016F5F7F4F8BE693E00F9417028AE049
:105300000E9479D70C94963183E50E9477D6882342
:1053100011F40C9496310E94DBD5E82E80E50E94B2
:1053200077D6882331F00E94DBD5182F87FF02C083
:10533000FDC71DE089E40E9477D6882351F00E94C2
:10534000ECD581110C944B33EFE9F5E08CEC95E052
:105350000AC089E40E942ED6F4CF31968E179F079B
:1053600011F40C944B3324911213F7CF0C94A53203
:105370000F943202DBC70E948DF2D8C70F946B1CCA
:10538000D5C788E690E00E9489DA8111CFC7809165
:10539000450483FF01C0CAC783E50E9477D68823EE
:1053A000A9F00E94FBD50F942B38CB010E94A5F8E1
:1053B0000E94FBD520E030E04AEA52E40F946A32C2
:1053C000181624F00F9479020E94EC770F94FB03D7
:1053D000ADC78EE40E9477D6882309F4A7C70E9440
:1053E000CBD56093A30E7093A40E8093A50E9093DB
:1053F000A60E9CC783E50E942ED6882359F083E52C
:105400000E9477D6882319F00E94DBD501C080E086
:1054100080934504EFE1F1E284918F010F5F1F4F0C
:10542000811103C0E6E8F3E004C00E9479D7F801D7
:10543000F3CF84918F010F5F1F4F882321F00E94CB
:1054400079D7F801F6CF80914504811194CEE2E836
:10545000F3E018C0BB24B394B20E222319F08CE2FF
:105460000E9479D7F60185919491FC0184918F0176
:105470000F5F1F4F882321F00E9479D7F801F6CFE4
:105480002B2D8BCE84918F010F5F1F4F882309F442
:105490008ECE0E9479D7F801F5CF8DE893E00E9477
:1054A00026400E948F7C42C783E50E9477D68111F7
:1054B00003C0EFE1F1E20BC00E94DBD58D3318F49D
:1054C0008093000233C78CE3809300022FC784913E
:1054D0008F010F5F1F4F882321F00E9479D7F801B9
:1054E000F6CF4091000250E060E070E086E993E082
:1054F0000F94C4018AE00E9479D718C789E690E02A
:105500000E9489DA811111C0EDE9F3E084918F01E5
:105510000F5F1F4F882321F00E9479D7F801F6CF43
:105520000E941E958AE00E9479D7109211040C9473
:10553000603383E50E9477D6882309F4F7C60E947A
:10554000DBD5182F8D3308F01CE310934B030E941A
:1055500008966B017C01212F30E0A8EEB3E00F9498
:10556000D736C60ED71EE81EF91EC0924703D0924A
:105570004803E0924903F0924A03D8C60F947B1A7D
:10558000D5C68091450483FDD1C683E50E9477D6B8
:10559000882309F4CBC60E94FBD50F942B386436C0
:1055A000710514F064E670E07093661560936515FC
:1055B0000E94D9EBBBC680E50E9477D6811106C058
:1055C00083E50E9477D6882359F005C00E94DBD579
:1055D0008111ACC6F5CF0E94CBD56F3F710510F09D
:1055E0006FEF70E070936815609367159FC680E554
:1055F0000E9477D6811105C0109268151092671528
:1056000095C60E94CBD5672B09F090C6F5CF0E94B6
:105610002C838CC60E9425EC0E948672109268151D
:105620001092671568EE73E080E090E00E9481F8C8
:1056300060E080EA93E00E9404F978C681E08093FC
:105640003D0374C60E948B8671C683E50E942ED6E8
:10565000882309F46BC60E94FBD520E030E04AE7BE
:1056600054E40F94CF320F94303860934303709317
:105670004403809345039093460358C65BE5C52ECB
:1056800052E0D52E66E8E62E6CE0F62E10E0D6014C
:105690008D916D010E942ED6882309F46DC01330C0
:1056A00009F063C00E94FBD54B015C0120E030E0B3
:1056B00040EA51E40F946A3287FF4EC0A50194017D
:1056C0006091920C7091930C8091940C9091950C38
:1056D0000F94C3372B013C019B01AC0160914C0F2F
:1056E00070914D0F80914E0F90914F0F0F94CF32CC
:1056F00060934C0F70934D0F80934E0F90934F0F0C
:10570000A30192016091240F7091250F8091260FC3
:105710009091270F0F94CF326093240F7093250F31
:105720008093260F9093270F6091600F7091610F07
:105730008091620F9091630F0F946E32A3019201DA
:105740000F94CF320F9430386093600F7093610FD5
:105750008093620F9093630F8092920C9092930CBF
:10576000A092940CB092950C07C00E94FBD5F70153
:1057700060837183828393831F5FF4E0EF0EF11CDB
:10578000143009F084CF0F946005D0C50E94487290
:1057900083E50E9477D6882309F416C90E94CBD5E9
:1057A0006230710509F010C90E943D488BE50E94E6
:1057B00079D760911304709114048091150490912D
:1057C000160442E00E94DFDA409117045091180459
:1057D0006091190470911A0485EB93E00F94E10134
:1057E00040911B0450911C0460911D0470911E0493
:1057F00082EB93E00F94E1018DE50E9479D78AE076
:105800000E9479D793C584918F010F5F1F4F882322
:1058100021F00E9479D7F801F6CF60E087E894E0A4
:105820000E94CC8361E080E894E00E94CC8361E038
:1058300085E794E00E94CC8361E085E694E00E94D5
:10584000CC8360E08CE594E00E94CC8361E082E54B
:1058500094E00E94CC8361E088E494E00E94CC83D1
:1058600061E080E494E00E94CC8361E082E394E014
:105870000E94CC8360E084E294E00E94CC8360E0EC
:1058800085E194E00E94CC8360E087E094E00E9490
:10589000CC8360E081EF93E00E94CC8360E080EEF7
:1058A00093E00E94CC8360E08BEC93E00E94CC8379
:1058B00061E088EB93E00E94CC8338C5809191151C
:1058C00090919215DC012C91222321F060E00E943E
:1058D0003EF92CC50E94EC7729C5F8019081292F4B
:1058E0002B7F213419F08150C1F716C0218121335B
:1058F000D1F7913421F0953421F441E002C0DD2448
:10590000D39498012E5F3F4F89012F5F3F4FD801FD
:105910009C919032C9F3E7CF442369F0EFE1F1E2C3
:1059200084917F01BFEFEB1AFB0A882321F00E94CC
:1059300079D7F701F5CFDD2069F0EBE5F5E084914B
:105940007F012FEFE21AF20A882321F00E9479D713
:10595000F701F5CFD8018D918D01882309F427CC6B
:105960000E9479D7F7CF0F94170DE0C481E08093A0
:10597000B8048093B704DAC483E50E9477D68823FD
:1059800019F00E94CBD502C060E070E08B011127B6
:1059900002301105D4F0E7ECFFE284918F010F5F34
:1059A0001F4F811103C0EFE5F5E004C00E9479D7D5
:1059B000F801F3CF84918F010F5F1F4F882309F403
:1059C000B5C40E9479D7F801F5CF88E40E9477D654
:1059D0008823A9F00E94CBD56A3A71053CF06F305C
:1059E000B1E07B072CF06EE071E002C06AEA70E083
:1059F000F801EE0FFF1FE557F94F7183608386E4CE
:105A00000E9477D68823A9F00E94CBD5F801EE0F2B
:105A1000FF1FE157F94F718360836F3F710519F0E4
:105A200014F06FEF70E077FF02C060E070E0718308
:105A3000608382E40E9477D6882309F477C40E94A9
:105A4000CBD56530710534F0663571052CF065E510
:105A500070E002C065E070E0000F111FF801E95727
:105A6000F94F7183608362C488EC90E00E9489DA08
:105A700081115CC484E40E942ED6882309F441C0BD
:105A80000E94FBD56B017C0111E020E030E0A90110
:105A90000F946A32811101C010E01093FD0B20E0D9
:105AA00030E0A901C701B6010F946A32882349F199
:105AB0000E94FBD5E091710424E0E29FF0011124E3
:105AC000E750F44F608371838283938320E030E05A
:105AD000A9016091F90B7091FA0B8091FB0B9091E9
