:100000000C94711A0C94A21A0C94A21A0C94A21AB1
:100010000C94A21A0C94A21A0C94A21A0C94A21A70
:100020000C94A21A0C94A21A0C94A21A0C94A21A60
:100030000C94A21A0C94A21A0C94A21A0C94A21A50
:100040000C94A21A0C94ECA20C94A21A0C94A21A6E
:100050000C94A21A0C94A21A0C9421650D94520BC4
:100060000C94A21A0C94B23A0C94A83A0C94A21ACA
:100070000C94A21A0C94A21A0C94A21A0C94A21A10
:100080000C94A21A0C94A21A0C94A21A0C94A21A00
:100090000C94A21A0C94A21A0C94A21A0C94A21AF0
:1000A0000C94A21A0C94A21A0C94A21A0C94A21AE0
:1000B0000C94A21A0C94A21A0C94A21A0C94A21AD0
:1000C0000C94A21A0C94A21A0C94A21A0C94A21AC0
:1000D0000C94A21A0C94A21A0C94A21A0C94A21AB0
:1000E0000C94A21ABB939E93A193BE93A493A7933F
:1000F000AA93B693AD93C993B093B3935201CC0036
:10010000C8004001C201A60116019A01D0008E016B
:100110003C010001EE007201A601E6000E02D201D0
:10012000A801BA018C01B001C80128015A0160017F
:100130005601740112013E015401EC012801200115
:10014000E0015001084AD73B3BCE016E84BCBFFDA5
:10015000C12F3D6C74319ABD56833DDA3D00C77F97
:1001600011BED9E4BB4C3E916BAAAABE0000008030
:100170003F05A84CCDB2D44EB93836A9020C50B9BF
:10018000918688083CA6AAAA2ABE000000803F00EB
:100190000D948F090C94E48F0D94A0090C946AF6C9
:1001A0000D94AE090C9462440C94DCE00C948E77B0
:1001B0000C944AD30C94CF440C9484F60C94887716
:1001C0000C9496F60C94C6620C94E5770D94CA09CB
:1001D0000C9448AA0C94B3930C94BC8F0D94C00952
:1001E0000C9402F30C94AD930C9460F60C94D8C567
:1001F0000C94AB8D0C94EF960C94CB440C94D2F6EB
:100200000D94BC090C9408F30C940BC50C94D7986E
:100210000C9477C50C9400F30C94C48F0C9430C6E6
:100220000C949ACB0D94B80A0C94CBF00D94A409BD
:100230000C9463C50C94057A0C94E1F80C948E44EC
:100240000D94E50A0C94CC8F0C94DC8F0C9433C580
:100250000D94030B0C9441C50C9404F30C94A793D8
:100260000C94EFC50C94B0930C94ABAC0C94C48D6F
:100270000C9485F10C949DD30D94B6090D94C20A8B
:100280000D9493090C94D48F0C948BF80C94D9F89A
:100290000C9481F80C9462450C949E930C945BF63C
:1002A0000D94F90A0D949D090D94D10A0D94A40A98
:1002B0000C9490F60D94940A0C9441780C949EC57D
:1002C0000D949C0A0C94D3980C9465E10C94A87D31
:1002D0000C94C0980C94D1C70C941C940C9427D304
:1002E0000C94BBC50D94C4090D94AE0A0C941FC5A3
:1002F0000C9454A90C947CF80C94EC960C949E7776
:100300000C94C88F0C94C08F0C94D08F0C940CC696
:100310000C94A2440C9428940D94760A0D94B2097E
:100320000C9494770C94D1980C9494CB0C94E996FB
:100330000C94ACCB0D94A8090C94E78F0C94CF9837
:100340000C9482CB0C9488CB0D942F160D94D70966
:100350000D946C0A0C94E08F0C94F7C40C94F0E0AC
:100360000D94800A0C9429C60C9498C50C949BC5D6
:100370000C944BA90D94710A0C9429AB0C9463D383
:100380000C94CC440D9499090C94B6930C94E17799
:100390000D948A0A0C9485C50C942C760C948AF6DC
:1003A0000D9490130D94D2090C94C9930C94A493BA
:1003B0000C94A0CB0C94AFF90C945AA90C94BE9356
:1003C0000D94EF0A0C94BE440C9465F60C94ED8FDA
:1003D0000C944AA20C94657B0D94DB0A0C94279232
:1003E0000C94A1930C94BB930C94A6CB0C944876DC
:1003F0000C9456D90C94D88F0C9486F80C9467A959
:100400000C94EA8F0C941CF60C9406F30C94A798A9
:100410000C948ECB0C945CA90C94D5980D94CE09B9
:100420000C944FC50C94AA934E414E494E495459D1
:10043000494E46CDCCCC3D0AD7233C17B7D13877AF
:10044000CC2B329595E6241FB14F0A0000204100C5
:1004500000C84200401C4620BCBE4CCA1B0E5AAE0F
:10046000C59D7400407A10F35A00A0724E1809001E
:1004700010A5D4E80000E87648170000E40B540209
:100480000000CA9A3B000000E1F505000080969844
:1004900000000040420F000000A086010000001094
:1004A0002700000000E803000000006400000000D6
:1004B000000A00000000000100000000002C76D8B7
:1004C00088DC674F0823DFC1DFAE59E1B1B796E59D
:1004D000E3E453C63AE651997696E8E6C28426EB01
:1004E000898C9B62ED407C6FFCEFBC9C9F40F2BA14
:1004F000A56FA5F490055A2AF75C936B6CF9676DAC
:10050000C11BFCE0E40D47FEF520E6B500D0ED9000
:100510002E0300943577050080841E080000204ECD
:100520000A000000C80C333333330F986E12831166
:1005300041EF8D2114893BE65516CFFEE6DB18D13D
:10054000844B381BF77C1D901DA4BBE4242032840F
:10055000725E228100C9F124ECA1E53D2700000074
:10056000000000000000000000FFFFFF970592055B
:100570008B0584057605434F4D4D554E49434154F7
:10058000494F4E0044525952554E004552524F5217
:100590005300494E464F004543484F006F6B00459E
:1005A0004550524F4D204F4B0A004F66667365749D
:1005B00073204170706C696564004572723A205412
:1005C0006F6F206661722100546F6F206661722028
:1005D00066726F6D207265666572656E6365207008
:1005E0006F696E740A004D34323120696E636F7228
:1005F0007265637420706172616D657465722075D7
:10060000736167650A006469730043290A006162C7
:100610006C656420286D696E2074656D70200043E0
:100620006F6C64206578747275646573206172659F
:100630002000496E76616C69642065787472756417
:1006400065720A0020643A0020693A0020703A007E
:1006500020466C6F773A20003F4A206F7574206FF8
:10066000662072616E67652028302E303120746FED
:1006700020302E33290A004D31343520533C696E29
:100680006465783E206F7574206F662072616E67B6
:10069000652028302D31290A002F2F2000434841A2
:1006A0004D4245525F54454D504552415455524577
:1006B000004D4F54494F4E5F4D4F444553005448F1
:1006C00045524D414C5F50524F54454354494F4E53
:1006D000004155544F5245504F52545F53445F535D
:1006E00054415455530050524F4D50545F53555040
:1006F000504F525400454D455247454E43595F5067
:10070000415253455200434153455F4C4947485479
:100710005F4252494748544E45535300544F474750
:100720004C455F4C494748545300534F465457413A
:1007300052455F504F574552004255494C445F5017
:10074000455243454E54004C4556454C494E475F33
:1007500044415441005A5F50524F42450041555464
:100760004F4C4556454C005052494E545F4A4F42FB
:100770000050524F4752455353004155544F524534
:10078000504F52545F54454D5000564F4C554D45B7
:10079000545249430042494E4152595F46494C45E3
:1007A0005F5452414E534645520053455249414CC5
:1007B0005F584F4E5F584F4646004649524D57418D
:1007C00052455F4E414D453A4D61726C696E203223
:1007D0002E302E3320284769744875622920534FE4
:1007E000555243455F434F44455F55524C3A6874F8
:1007F0007470733A2F2F6769746875622E636F6D1A
:100800002F4D61726C696E4669726D776172652FEA
:100810004D61726C696E2050524F544F434F4C5F84
:1008200056455253494F4E3A312E30204D414348A0
:10083000494E455F545950453A4372617A79205484
:100840007261696E2045585452554445525F434F7A
:10085000554E543A3120555549443A6365646532E2
:100860006132662D343161322D343734382D39629E
:1008700031322D6335356336326633363766660A74
:10088000004372617A7920547261696E204F464646
:100890002E004D3131332053004D31313220536819
:1008A0007574646F776E006F666600444542554705
:1008B0003A0045202553000A53746174733A204668
:1008C000696C616D656E7420757365643A20002CE7
:1008D000204C6F6E67657374206A6F623A20005413
:1008E0006F74616C2074696D653A20002C2046613C
:1008F000696C65643A20002C2046696E69736865EE
:10090000643A20005072696E74733A200053746127
:1009100074733A200050726F74656374656420507C
:10092000696E0A005072696E742074696D653A20B0
:100930000044656C6574696F6E206661696C6564FE
:100940002C2046696C653A200046696C6520646518
:100950006C657465643A00286E6F2066696C652961
:100960000043757272656E742066696C653A20008A
:100970005344207072696E74696E67206279746581
:1009800020004E6F74205344207072696E74696E3B
:10099000670A00456E642066696C65206C69737433
:1009A0000A00426567696E2066696C65206C697330
:1009B000740A004E6F204D6F76652E00436C69639C
:1009C0006B20746F20526573756D652E2E2E004D51
:1009D00065736820706F696E742063616E6E6F74EA
:1009E000206265207265736F6C7665640A005A2018
:1009F00050726F62652050617374204265640A0012
:100A00005A2050726F626520506173742042656491
:100A100000486F6D652058592066697273740A002A
:100A2000486F6D6520585920466972737400536C85
:100A30006565702E2E2E0047322F47332062616489
:100A400020706172616D65746572730A004572721F
:100A50006F722077726974696E6720746F204545E4
:100A600050524F4D210A00627573793A20706175BA
:100A700073656420666F7220696E7075740A006217
:100A80007573793A2070617573656420666F7220A2
:100A9000757365720A00627573793A2070726F63BC
:100AA000657373696E670A0053544F505045442E66
:100AB00020005072696E7465722073746F70706577
:100AC000642064756520746F206572726F72732E76
:100AD0002046697820746865206572726F722061A3
:100AE0006E6420757365204D39393920746F20721A
:100AF0006573746172742E202854656D706572611F
:100B0000747572652069732072657365742E205345
:100B100065742069742061667465722072657374EF
:100B2000617274696E67290A004E6F2043686563BD
:100B30006B73756D2077697468206C696E65206EC3
:100B4000756D6265722C204C617374204C696E6502
:100B50003A2000636865636B73756D206D69736D12
:100B6000617463682C204C617374204C696E653A23
:100B700020004C696E65204E756D62657220697348
:100B8000206E6F74204C617374204C696E65204E2A
:100B9000756D6265722B312C204C617374204C6929
:100BA0006E653A20004D313130004D313137004D06
:100BB00033310053442072656164206572726F7234
:100BC0000A00446F6E65207072696E74696E6720EA
:100BD00066696C650A002121204B494C4C206361F9
:100BE00075736564206279204B494C4C20627574A2
:100BF000746F6E2F70696E0A002121204B494C4C96
:100C00002063617573656420627920746F6F206D55
:100C100075636820696E6163746976652074696DB7
:100C200065202D2063757272656E7420636F6D6D23
:100C3000616E643A2000506C656173652052657383
:100C40006574005052494E5445522048414C544519
:100C5000440025533A202553004B494C4C45442E23
:100C600020005072696E7465722068616C746564EE
:100C70002E206B696C6C28292063616C6C65642183
:100C80000A003637260305063C3D380E3B3A2E3027
:100C90003E1216271A1C18403F08440A0743080949
:100CA00007000124F4D43050C38E20C2A240178222
:100CB0008B7011127A910D816CD90AA861E108C775
:100CC000586607615143061E4B5D05C145A7041ACE
:100CD000411104093D9803713931034036DB026547
:100CE000339102D4305402802E1D02632CEE017524
:100CF0002AC501B028A001102781018F2564012B8E
:100D0000244B01E0223401AC211F018D200D018014
:100D10001FFC00841EED00971DDF00B81CD200E60A
:100D20001BC600201BBC00641AB200B219A8000A3E
:100D300019A0006A189900D117910040178B00B5CF
:100D400016840031167E00B31579003A157300C77A
:100D5000146F0058146A00EE1366008813630025B0
:100D6000135E00C7125B006C12570015125400C1CD
:100D700011510070114F0021114B00D61049008D08
:100D80001047004610440002104200C00F4000808F
:100D90000F3E00420F3C00060F3B00CB0E38009385
:100DA0000E37005C0E3500270E3400F30D3200C103
:100DB0000D3100900D3000600D2E00320D2D00051C
:100DC0000D2C00D90C2B00AE0C2900850C29005CE1
:100DD0000C2700350C27000E0C2600E80B2400C45D
:100DE0000B2400A00B23007D0B23005A0B2100399C
:100DF0000B2100180B2000F80A1F00D90A1E00BBA7
:100E00000A1E009D0A1D00800A1D00630A1C00477F
:100E10000A1B002C0A1B00110A1A00F7091A00DD30
:100E2000091900C4091900AB091900920917007BC0
:100E3000091800630917004C09160036091600202E
:100E40000916000A091500F5081500E0081400CC81
:100E5000081400B8081400A4081400900813007DBA
:100E60000812006B081300580812004608120034DC
:100E7000081100230811001208110001081100F0E8
:100E8000071000E0071000D0071000C0071000B0E6
:100E9000070F00A107100091070E0083070F0074D1
:100EA000070F0065070E0057070E0049070E003BAD
:100EB000070D002E070E0020070D0013070D00067A
:100EC000070D00F9060C00ED060D00E0060C00D43D
:100ED000060C00C8060C00BC060C00B0060C00A4F2
:100EE000060B0099060C008D060B0082060B00779E
:100EF000060B006C060B0061060A0057060B004C3F
:100F0000060A0042060A0038060A002E060A0024D5
:100F1000060A001A060A001006090007060A00FD64
:100F2000050900F4050900EB050900E2050900D9EF
:100F3000050900D0050900C7050900BE050900B56F
:100F4000050800AD050800A50509009C05080094EA
:100F50000508008C050800840508007C050800745D
:100F60000508006C050700650508005D05070056CB
:100F70000508004E05070047050700400508003832
:100F8000050700310507002A050700230507001C97
:100F9000050600160507000F0507000805060002F4
:100FA000050700FB040600F5040700EE040600E850
:100FB000040600E2040700DB040600D5040600CFA7
:100FC000040600C9040600C3040600BD040600B7F9
:100FD000040600B1040500AC040600A6040600A047
:100FE0000405009B04060095040500900406008A91
:100FF00004050085040500800406007A04050075D8
:10100000040500700405006B04050066040500611A
:101010000405005C04050057040500520405004D5A
:1010200004050048040500430405003E0404003A9A
:1010300004050035040500300404002C04050027D5
:10104000040400230405001E0404001A040400160E
:10105000040500110404000D040400090405000443
:1010600004040000040400FC030400F8030400F47A
:10107000030400F0030400EC030400E8030400E4AC
:10108000030400E0030400DC030400D8030400D4DC
:10109000030400D0030400CC030400C8030300C50C
:1010A00003030024F404D9201BC40C5C0E9804C470
:1010B000095F0265077101F405F900FB04B30048FC
:1010C000048700C10369005803550003034500BEAF
:1010D000023A008402310053022A0029022500044A
:1010E000022000E4011C00C8011900AF011700989C
:1010F00001140084011300710110006101100051FE
:10110000010E0043010D0036010B002B010B0020E6
:10111000010B00150109000C01090003010800FB87
:10112000000800F3000800EB000700E4000600DE02
:10113000000600D8000600D2000600CC000500C75B
:10114000000500C2000500BD000400B9000400B5A0
:10115000000400B1000400AD000400A9000400A5D3
:10116000000300A20003009F0004009B00030098FE
:101170000003009500020093000300900003008D1F
:101180000002008B00030088000200860002008439
:10119000000300810002007F0002007D0002007B4E
:1011A000000200790002007700010076000200745E
:1011B00000020072000100710002006F0002006D69
:1011C0000001006C0002006A000100690002006773
:1011D0000001006600010065000100640002006279
:1011E00000010061000100600001005F0002005D7D
:1011F0000001005C0001005B0001005A0001005981
:101200000001005800010057000100560001005580
:10121000000100540001005300000053000100527F
:1012200000010051000100500001004F0001004E7C
:101230000000004E0001004D0001004C0001004B79
:101240000000004B0001004A000100490001004875
:101250000000004800010047000100460000004671
:10126000000100450000004500010044000100436A
:101270000000004300010042000000420001004164
:1012800000000041000100400001003F0000003F5D
:101290000001003E0000003E0001003D0000003D56
:1012A0000001003C0000003C0000003C0001003B4D
:1012B0000000003B0001003A0000003A0001003944
:1012C000000000390001003800000038000000383C
:1012D0000001003700000037000100360000003632
:1012E0000000003600010035000000350000003528
:1012F000000100340000003400000034000100331D
:101300000000003300000033000100320000003212
:101310000000003200010031000000310000003107
:101320000001003000000030000000300001002FFC
:101330000000002F0000002F0000002F0001002EF1
:101340000000002E0000002E0001002D0000002DE6
:101350000000002D0000002D0001002C0000002CDA
:101360000000002C0000002C0001002B0000002BCE
:101370000000002B0000002B0001002A0000002AC2
:101380000000002A0000002A0001002900000029B6
:1013900000000029000000290000002900010028A9
:1013A000000000280000002800000028000000289D
:1013B0000001002700000027000000270000002790
:1013C0000000002700010026000000260000002683
:1013D0000000002600000026000100250000002576
:1013E0000000002500000025000000250000002569
:1013F000000100240000002400000024000000245C
:10140000000000240001002300000023000000234E
:101410000000002300000023000000230000002340
:101420000001002200000022000000220000002233
:101430000000002200000022000100210000002125
:101440000000002100000021000000210000002118
:10145000000000210001002000000020000000200A
:1014600000000020000000200000002000000020FC
:10147000000000200001001F0000001F0000001FEE
:101480000000001F0000001F0000001F0000001FE0
:101490000001001E0000001E0000001E0000001ED3
:1014A000000000393000003325000087190000B02B
:1014B0000F0000DB080000BD040000740200003FC4
:1014C000010000687474703A2F2F6D61726C696E40
:1014D00066772E6F72670020322E302E3300202068
:1014E000506C616E6E6572427566666572427974A3
:1014F00065733A20002046726565204D656D6F72F8
:10150000793A2000436F6D70696C65643A204665D6
:101510006220313020323032300A00204C61737446
:1015200020557064617465643A20323032302D3059
:10153000312D3331207C20417574686F723A202838
:101540007061656E69616E2C204372617A792054F6
:101550007261696E20636F6E666967290A00322EB8
:10156000302E330A004D61726C696E0020536F6635
:1015700074776172652052657365740A0020576143
:10158000746368646F672052657365740A00204253
:10159000726F776E206F75742052657365740A00E0
:1015A0002045787465726E616C2052657365740AAB
:1015B00000506F77657255700A006175746F25630E
:1015C0002E67004732385859006572726F72207763
:1015D000726974696E6720746F2066696C650A00B1
:1015E000446F6E6520736176696E672066696C650D
:1015F0002E0A004D323900456E6473746F707300AB
:1016000025532025632025632025632025630020A2
:101610005A3A0020593A00656E6473746F707320F3
:101620006869743A20002053697A653A2000436162
:101630006E6E6F74206F70656E2073756264697270
:10164000200053442063617264206F6B0A006F7046
:10165000656E526F6F74206661696C65640A00760E
:101660006F6C756D652E696E6974206661696C6555
:10167000640A00534420696E6974206661696C0ACB
:10168000004D3234004D32332025730046696C65BD
:101690002073656C65637465640A0046696C652037
:1016A0006F70656E65643A2000454E442053554284
:1016B000524F5554494E450A002220706F73002244
:1016C00020706172656E743A2200535542524F5534
:1016D00054494E452043414C4C20746172676574F7
:1016E0003A2200747279696E6720746F2063616CAE
:1016F0006C207375622D67636F64652066696C6525
:1017000073207769746820746F6F206D616E792023
:101710006C6576656C732E204D4158206C6576653E
:101720006C2069733A310A0057726974696E6720D8
:10173000746F2066696C653A200066726573680094
:10174000646F696E67004E6F772000206279746560
:10175000733B20637263200053657474696E677312
:101760002053746F726564202800454550524F4DD8
:10177000206461746173697A65206572726F722E7C
:101780000A002073746F7265642073657474696EE7
:10179000677320726574726965766564202800201D
:1017A0002863616C63756C6174656429210A00208B
:1017B000213D2000454550524F4D20435243206D5E
:1017C00069736D61746368202D202873746F72656E
:1017D00064292000496E6465783A2000204D6172CA
:1017E0006C696E3D563735290A00454550524F4DBC
:1017F0002076657273696F6E206D69736D617463B5
:10180000682028454550524F4D3D00206D61783A83
:101810002000206D696E3A20003F5A206F757420B9
:101820006F662072616E67652028003F59206F75D2
:1018300074206F662072616E676520282D00207409
:101840006F20003F58206F7574206F662072616EA4
:10185000676520282D0050726F6265204F666673A1
:101860006574205800656E7175657565696E6720D1
:101870002200526573656E643A200025697920253F
:101880006964202569682025696D202569730042F7
:10189000656420436F6F6C696E672E2E2E00426563
:1018A000642048656174696E672E2E2E002364657E
:1018B00066696E652044454641554C545F004B6453
:1018C00020004B6920004B70200050494420417596
:1018D000746F74756E652066696E697368656421DE
:1018E0002050757420746865206C617374204B708F
:1018F0002C204B6920616E64204B6420636F6E73F3
:1019000074616E74732066726F6D2062656C6F77A0
:1019100020696E746F20436F6E66696775726174BB
:10192000696F6E2E680A00504944204175746F74C7
:10193000756E65206661696C6564212074696D65EA
:101940006F75740A000A20436C61737369632050D9
:101950004944200A00204B643A2000204B693A2079
:1019600000204B703A20002054753A2000204B751F
:101970003A200020643A200020626961733A200016
:10198000504944204175746F74756E65207374619D
:1019900072740A00504944204175746F74756E6505
:1019A000206661696C6564212054656D70657261A3
:1019B0007475726520746F6F20686967680A0050DB
:1019C0004944204175746F74756E65206661696C59
:1019D0006564212042616420657874727564657263
:1019E000206E756D6265720A0048656174696E6784
:1019F000206661696C656400453100626564002C95
:101A00002073797374656D2073746F7070656421D1
:101A1000204865617465725F49443A2000486561F9
:101A200074696E67204661696C656400202D2049E9
:101A30006E76616C69642065787472756465722075
:101A40006E756D62657220210A004572723A204DF2
:101A5000415854454D50004D415854454D50207407
:101A60007269676765726564004572723A204D4914
:101A70004E54454D50004D494E54454D50207472C2
:101A800069676765726564004D38342058205920B5
:101A90005A204500202F002042403A0020403A00C2
:101AA00020573A001000C90210012C014001220108
:101AB00070011801B0010E01F00104015002FA009A
:101AC000B002F0003003E600D003DC009004D20046
:101AD0007005C800A006BE000008B400B009AA0046
:101AE000D00BA000600E960060118C0000158200E3
:101AF00020197800C01D6E00A0226400B0275A0093
:101B0000902C500000314600E0343C001038320088
:101B1000903A2800603C1E00A03D1400803E0A0060
:101B2000203F000070012C0190012701B00122012B
:101B3000C0011D01F00118011002130130020E0155
:101B40006002090190020401C002FF000003FA00D4
:101B50004003F5008003F000D003EB002004E60012
:101B60007004E100E004DC004005D700C005D200AD
:101B70004006CD00D006C8008007C3003008BE0074
:101B8000F008B900C009B400B00AAF00B00BAA0059
:101B9000D00CA500000EA000500F9B00C0109600B6
:101BA0005012910000148C00C0158700B0178200FD
:101BB000B0197D00D01B7800001E730040206E001D
:101BC00090226900F024640040275F0090295A00A9
:101BD000E02B5500102E500020304B0010324600F4
:101BE000E033410090353C00103737007038320048
:101BF000A0392D00B03A2800A03B2300603C1E0015
:101C0000103D1900903D1400103E0F00703E0A0078
:101C1000C03E0500003F0000403FFBFF803FF6FF55
:101C2000C03FF1FF0050726F62696E6720506F69AC
:101C30006E740025532025692F25690050726F624C
:101C4000696E67206D65736820706F696E7420001F
:101C5000202844525952554E2900473239204175A7
:101C6000746F20426564204C6576656C696E670010
:101C70003F20284C2C522C462C4229206F75742072
:101C80006F6620626F756E64732E0A003F285629B6
:101C90006572626F7365206C6576656C20696D7026
:101CA0006C61757369626C652028302D34292E0AA9
:101CB00000426164205A2076616C75650A004E6F9F
:101CC0002062696C696E65617220677269640A00DE
:101CD000446576696174696F6E0025533A202573F7
:101CE000005374616E646172642044657669617446
:101CF000696F6E3A20002052616E67653A20004D90
:101D000065616E3A200046696E6973686564210AF0
:101D1000002072616E67653A2000207369676D610B
:101D20003A2000206D65616E3A20003A207A3A2010
:101D300000206F662000476F696E6720746F3A203D
:101D4000580043570A00206469723A0020616E67A8
:101D50006C653A00537461727420726164697573C2
:101D60003A004D343820506F696E740025533A2084
:101D700025642F256400506F736974696F6E696EF6
:101D800067207468652070726F62652E2E2E0A00BF
:101D90003F4E756D626572206F66206C65677320BB
:101DA000696E206D6F76656D656E74206E6F742040
:101DB000706C61757369626C652028302D3135292E
:101DC0002E0A003F2028582C5929206F7574206F47
:101DD0006620626F756E64732E0A003F53616D70EA
:101DE0006C652073697A65206E6F7420706C617504
:101DF0007369626C652028342D3530292E0A004D18
:101E00003438205A2D50726F6265205265706561BA
:101E1000746162696C69747920546573740A004C4A
:101E20006F6164206D6D00556E6C6F6164206D6D27
:101E30000046696C2E204469612E004520696E20A1
:101E40006D6DC2B300200220466163740020022041
:101E50004D6178002002204D696E004175746F74E9
:101E6000656D70005654726176204D696E00566D36
:101E7000696E00566D6178204500566D6178205A74
:101E800000566D6178205900566D61782058002009
:101E9000746F6F206C6F6E672065787472757369EC
:101EA0006F6E2070726576656E7465640A002063DB
:101EB0006F6C6420657874727573696F6E207072D0
:101EC0006576656E7465640A00554E4C4F4144203A
:101ED00046494C414D454E540046494C414D454EB6
:101EE00054204348414E474500436F6E666967750D
:101EF000726174696F6E004D373032205425640072
:101F00004D36303020423020542564004D37303279
:101F1000203B2564004D37303120542564004D3777
:101F20003032004D373031004D36303020423000F5
:101F3000436F6E74696E7565005075726765206DCC
:101F40006F726500524553554D45204F5054494FCF
:101F50004E533A005052494E542050415553454437
:101F60000020204E6F7A7A6C653A200053746F70AF
:101F7000004D3231004368616E6765204D656469CC
:101F80006100526573756D65205072696E74004E04
:101F90006F204D656469610054756E650053746F00
:101FA00070205072696E7400496E666F20536372C0
:101FB00065656E005061726B696E672E2E2E000093
:101FC000005761697420666F720066696C616D65A7
:101FD0006E74206368616E676500746F207374614E
:101FE0007274005761697420666F720066696C6173
:101FF0006D656E7420756E6C6F616400004E6F7A53
:102000007A6C652068656174696E6700506C656103
:10201000736520776169742E2E2E000050726573EF
:102020007320627574746F6E00746F2068656174DC
:10203000206E6F7A7A6C650000496E736572742049
:1020400066696C616D656E7400616E6420707265A6
:10205000737320627574746F6E00746F20636F6E9B
:1020600074696E7565005761697420666F720066E9
:10207000696C616D656E74206C6F616400005072F4
:1020800065737320427574746F6E00746F2072658F
:1020900073756D65207072696E74000057616974A4
:1020A00020666F72207072696E7400746F207265A2
:1020B00073756D652E2E2E00005761697420666F52
:1020C000720066696C616D656E742070757267650B
:1020D00000004573746570732F6D6D005A737465DD
:1020E00070732F6D6D005973746570732F6D6D0073
:1020F0005873746570732F6D6D00416476616E6303
:1021000065642053657474696E677300496E697401
:10211000004D34323800496E697469616C697A65C2
:1021200020454550524F4D0053746570732F6D6DAF
:102130000050726F6265204F666673657473004A63
:1021400065726B00416363656C65726174696F6E83
:102150000056656C6F636974790053657420486F2D
:102160006D65204F66667365747300526573746F96
:102170007265206661696C73616665004C6F6164AD
:102180002053657474696E67730053746F726520B1
:1021900053657474696E6773005072656865617425
:1021A0002041425320436F6E66005072656865613E
:1021B0007420504C4120436F6E66007C3C3E5E2B89
:1021C0003D3F2F5B5D3B2C2A225C00FFFDFCFAF8B3
:1021D000F6F4F2F0EEECEAE9E7E5E3E1E0DEDCDA82
:1021E000D9D7D5D4D2D0CFCDCBCAC8C7C5C3C2C02A
:1021F000BFBDBCBAB9B7B6B4B3B2B0AFADACAAA9A3
:10220000A8A6A5A4A2A1A09E9D9C9A9998979594F2
:102210009392908F8E8D8B8A898887868483828122
:10222000807F7E7D7B7A7978777675747372717032
:102230006F6E6D6C6B6A6968676665646362616026
:102240005F5E5D5C5B5A595858575655545352510E
:1022500050504F4E4D4C4B4A4A49484746464544DC
:1022600043424241403F3E3E3D3C3B3B3A39383899
:1022700037363535343332323130302F2E2E2D2C47
:102280002B2B2A29292827272625252423232221E9
:102290002120201F1E1E1D1C1C1B1B1A191918187B
:1022A000171616151514131312121111100F0F0E05
:1022B0000E0D0D0C0C0B0A0A090908080707060683
:1022C00005050404030302020100004F6666004F87
:1022D0006E0054656D7065726174757265004D387D
:1022E000340044697361626C652053746570706575
:1022F0007273004732380A4D343820503130004D67
:1023000034382050726F62652054657374004661E2
:10231000646520486569676874004732380A473247
:1023200039004C6576656C204265640047323800A0
:102330004175746F20486F6D650050726568656106
:102340007420504C4120426564005072656865619C
:102350007420504C4120456E640050726568656180
:102360007420414253204265640050726568656183
:10237000742041425320456E6400436F6F6C646F5C
:10238000776E0000004843000048430000484300C7
:10239000004842000048420000A040020204000041
:1023A000A0400000A040000000400000000100002C
:1023B00000010000800055555500000040003333F7
:1023C0003300AAAA2A004992240000002000C77105
:1023D0001C0099991900D1451700555515003BB1BE
:1023E00013002449120011111100000010000F0FFA
:1023F0000F00E3380E0043790D00CCCC0C00C33045
:102400000C00E8A20B0064210B00AAAA0A00703D90
:102410000A009DD80900427B090092240900DCD300
:102420000800888808001042080000000800F0C179
:1024300007008787070075500700711C07003EEBF7
:102440000600A1BC06006990060066660600703EA4
:1024500006006118060017F4050074D105005BB092
:102460000500B290050062720500555505007839E7
:102470000500B81E0500050505004EEC040087D4D4
:102480000400A1BD040090A7040049920400C17D8E
:102490000400EE690400C7560400444404005C32A2
:1024A00004000821040041100400000004003FF073
:1024B0000300F8E0030026D20300C3C30300CCB539
:1024C00003003AA803000A9B0300388E0300C08172
:1024D00003009F750300D0690300505E03001D5385
:1024E000030034480300913D0300333303001629F1
:1024F0000300381F030097150300300C030003038B
:1025000003000BFA020049F10200BAE802005CE0A5
:1025100002002DD802002DD0020059C80200B0C020
:10252000020031B90200DAB10200AAAA0200A0A397
:102530000200BC9C0200FA9502005C8F0200DF885A
:10254000020082820200457C02002776020027708A
:102550000200436A02007C640200D05E02003F5920
:102560000200C853020020436F756E7420583A0071
:1025700020453A00486F6D696E67204661696C6559
:1025800064005761726E696E673A20486F6D696EBC
:10259000672042756D702044697669736F72203CC4
:1025A00020310A006563686F3A004572726F723AB3
:1025B0000042696C696E656172204C6576656C6974
:1025C0006E6720477269643A0A004F46460A004621
:1025D000616465204865696768742000426564200D
:1025E0004C6576656C696E6720004661696C656450
:1025F00020746F20656E61626C6520426564204CBA
:102600006576656C696E670A00496E76616C69640F
:10261000206D6573682E0A00A10000006900A20009
:1026200000006300B00000000900C100000041008C
:10263000C20000004100C30000004100C4000000CF
:102640004100C50000004100C60000004145C70030
:1026500000004300C80000004500C900000045001C
:10266000CD0000004900D10000004E00D500000060
:102670004F00D60000004F00D70000007800DC00BB
:1026800000005500DD0000005900E000000061007E
:10269000E10000006100E20000006100E3000000D2
:1026A0006100E40000006100E50000006100E60058
:1026B00000006165E70000006300E80000006500BD
:1026C000E90000006500EA0000006500EB00000082
:1026D0006500EC0000006900ED0000006900EE00FC
:1026E00000006900EF0000006900F10000006E00CA
:1026F000F20000006F00F30000006F00F400000023
:102700006F00F50000006F00F60000006F00F80099
:1027100000006F00F90000007500FA00000075006D
:10272000FB0000007500FC0000007500FD000000CB
:102730007900FF000000790004010000410005015C
:102740000000610006010000430007010000630073
:102750000C01000043000D01000063000E010000A9
:1027600044000F0100006400110100006400190121
:10277000000065001F0100006700300100004900F3
:10278000310100006900410100004C0042010000DD
:102790006C00430100004E00440100006E0048013F
:1027A00000006E005901000072005A010000530041
:1027B0005B01000073005F01000073006001000016
:1027C00053006101000073006501000074006F0197
:1027D000000075007C0100007A007D0100005A00B5
:1027E0007E0100007A00920100006600E302000012
:1027F0007800222000002E001E21000050782221A7
:102800000000544D902100003C2D922100002D3EEF
:10281000B02100000300BB21000004003C220000A6
:102820007E00482200007E3D60220000213D6122A2
:1028300000003D00642200003C3D652200003E3D5A
:10284000F12300000700A03000003D0021F301004B
:102850000200C2F401000500A2000000EC00B0007C
:102860000000DF00E4000000E100F6000000EF00DF
:10287000F7000000FD00FC000000F500E30200008E
:10288000EB0087030000A5008F030000F40098030D
:102890000000F2009E030000E300A3030000F60026
:1028A000A9030000F400AC030000E000AD03000049
:1028B000E300B1030000E000B2030000E200B50352
:1028C0000000E300B8030000F200BC030000E400D5
:1028D000BE030000E300C0030000F700C1030000D6
:1028E000E600C3030000E500902100007F00922174
:1028F00000007E001A220000E8001E220000F30003
:1029000088250000FF0002300000A1000C3000000C
:10291000A2000D300000A3009B300000DE009C30C0
:102920000000DF00A03000003D00A1300000A70043
:10293000A2300000B100A3300000A800A4300000C5
:10294000B200A5300000A900A6300000B300A730F7
:102950000000AA00A8300000B400A9300000AB00BD
:10296000AA300000B500AB300000B600AC3000006B
:10297000B6DEAD300000B700AE300000B7DEAF30DD
:102980000000B800B0300000B8DEB1300000B9007F
:10299000B2300000B9DEB3300000BA00B43000003D
:1029A000BADEB5300000BB00B6300000BBDEB73089
:1029B0000000BC00B8300000BCDEB9300000BD0033
:1029C000BA300000BDDEBB300000BE00BC300000ED
:1029D000BEDEBD300000BF00BE300000BFDEBF3035
:1029E0000000C000C0300000C0DEC1300000C100E7
:1029F000C2300000C1DEC3300000AF00C4300000B0
:102A0000C200C5300000C2DEC6300000C300C730BF
:102A10000000C3DEC8300000C400C9300000C4DEBE
:102A2000CA300000C500CB300000C600CC3000002A
:102A3000C700CD300000C800CE300000C900CF3044
:102A40000000CA00D0300000CADED1300000CADF6A
:102A5000D2300000CB00D3300000CBDED4300000F9
:102A6000CBDFD5300000CC00D6300000CCDED73034
:102A70000000CCDFD8300000CD00D9300000CDDE22
:102A8000DA300000CDDFDB300000CE00DC300000AB
:102A9000CEDEDD300000CEDFDE300000CF00DF30E4
:102AA0000000D000E0300000D100E1300000D20092
:102AB000E2300000D300E3300000AC00E43000005E
:102AC000D400E5300000AD00E6300000D500E7306E
:102AD0000000AE00E8300000D600E9300000D7006A
:102AE000EA300000D800EB300000D900EC300000E4
:102AF000DA00ED300000DB00EF300000DC00F230E7
:102B00000000A600F3300000DD00F4300000B3DE6A
:102B1000F7300000DCDEFA300000A6DEFB300000FB
:102B2000A500FC300000B000FD300000A400074EFE
:102B30000000FB0086510000FC0043530000FA0037
:102B400064FF0000A40065FF0000A50066FF000010
:102B5000A60067FF0000A70068FF0000A80069FF4B
:102B60000000A9006AFF0000AA006BFF0000AB0094
:102B70006CFF0000AC006DFF0000AD006EFF0000B8
:102B8000AE006FFF0000AF0070FF0000B00071FFEB
:102B90000000B10072FF0000B20073FF0000B3003C
:102BA00074FF0000B40075FF0000B50076FF000060
:102BB000B60077FF0000B70078FF0000B80079FF8B
:102BC0000000B9007AFF0000BA007BFF0000BB00E4
:102BD0007CFF0000BC007DFF0000BD007EFF000008
:102BE000BE007FFF0000BF0080FF0000C00081FF2B
:102BF0000000C10082FF0000C20083FF0000C3008C
:102C000084FF0000C40085FF0000C50086FF0000AF
:102C1000C60087FF0000C70088FF0000C80089FFCA
:102C20000000C9008AFF0000CA008BFF0000CB0033
:102C30008CFF0000CC008DFF0000CD008EFF000057
:102C4000CE008FFF0000CF0090FF0000D00091FF6A
:102C50000000D10092FF0000D20093FF0000D300DB
:102C600094FF0000D40095FF0000D50096FF0000FF
:102C7000D60097FF0000D70098FF0000D80099FF0A
:102C80000000D9009AFF0000DA009BFF0000DB0083
:102C90009CFF0000DC009DFF0000DD009EFF0000A7
:102CA000DE009FFF0000DF00E5FF00005C00001C6D
:102CB0001F11111F00000006191803130C00040E49
:102CC0001F041C000000000E1315110E00001C1044
:102CD000181705060500040A0A0A0A11110E0C123B
:102CE000120C00000000001F1511151F000000004D
:102CF0000000010204040000001C1C0C0404040277
:102D000001000000000004081000000000007C4DDD
:102D100061726C696E7C002D2D2D2D2D2D00507251
:102D2000696E742066726F6D204D65646961004D37
:102D30006F76652025736D6D004D6F766520302EA2
:102D4000316D6D004D6F766520316D6D004D6F7684
:102D5000652031306D6D004D6F7665204178697367
:102D600000486F74656E6420746F6F20636F6C64CD
:102D7000004578747275646572004D6F7665205AEF
:102D8000004D6F76652059004D6F766520580043E1
:102D900068616E67652046696C616D656E7400558B
:102DA0006E6C6F61642046696C616D656E74004C79
:102DB0006F61642046696C616D656E740050726568
:102DC00068656174204142530050726568656174A2
:102DD00020504C41005072656865617420437573E2
:102DE000746F6D004261636B0000002000230026B9
:102DF0000029002C002F0032000001000003010612
:102E00000109010505050507050808080802020271
:102E1000020A0A0808040404040101010101010175
:102E2000010303030303030303040707070C0C0C4C
:102E30000C0C0C0C0C020202020606060606060624
:102E4000060B0B0B0B0B0B0B0B01021020200808C1
:102E500010204010204080020102010804020101FC
:102E600002040810204080804020100804020180E5
:102E7000040201804020100804020108040201013C
:102E80000204081020408001020408102040800045
:102E9000000A0B02090C0D0E0807030401000000D4
:102EA0000000000000000000000000000000000022
:102EB00000000000000000000000001211100000DF
:102EC0000000000000000000000000000000000002
:102ED000000000000050726F6265205A204F666645
:102EE0007365740046616E205370656564004E6FB3
:102EF0007A7A6C65004D61696E00466C6F770025CB
:102F000068753A25303268750025303268753A2583
:102F100030326875005344002020202020202000FB
:102F20005072696E742050617573656400506175EC
:102F30007365205072696E74004D6564696120523A
:102F4000656D6F766564004D6564696120496E73D7
:102F50006572746564004372617A792054726169A4
:102F60006E2052656164792E005072696E74696ECC
:102F7000672E2E2E005072696E742041626F72743B
:102F80006564004D323500416363656C6572617440
:102F9000696F6E3A205000204D39322058002020B1
:102FA0004D61783A200020204D696E3A2000536F21
:102FB000667420656E6473746F70733A2000576195
:102FC000726E696E67203A20436C65616E204369BA
:102FD00072636C65207265717569726573205859EA
:102FE0000A00486F74656E6420746F6F20636F6CA5
:102FF000640A004D3630303A20546F6F20436F6CB6
:103000006400507265737320627574746F6E2074FF
:103010006F2068656174206E6F7A7A6C650A002093
:10302000496E76616C696420657874727564657246
:1030300020004361703A0050726F6265204F6666EF
:10304000736574205A0050726F6265204F66667314
:1030500065745A3A2000416D6178204500416D61E8
:1030600078205A00416D6178205900416D617820C7
:103070005800412D54726176656C00412D52657483
:103080007261637400416363656C004A756E6374BA
:10309000696F6E204465760050726F62652059201A
:1030A0004F66667365740050726F62652058204FDA
:1030B0006666736574003F0043616E63656C004D26
:1030C0006F74696F6E005374617274205072696E10
:1030D000740043616E6E6F7420656E746572207348
:1030E00075626469723A2000052E2E00205400207B
:1030F000520048617264636F646564204465666170
:10310000756C742053657474696E6773204C6F61BD
:103110006465640A0020204D3630332000205500BD
:1031200046696C616D656E74206C6F61642F756E9D
:103130006C6F6164206C656E677468733A0A002076
:10314000204D3835312058005A2D50726F6265205D
:103150004F66667365740020204D33303120500077
:103160005049442073657474696E67733A0A00208D
:10317000460020480020204D3134352053004D6159
:1031800074657269616C2068656174757020706126
:1031900072616D65746572733A0A00202047323996
:1031A000205720490020204D3432302053004175F3
:1031B000746F20426564204C6576656C696E673A71
:1031C0000A0020204D323036205800486F6D6520AF
:1031D0006F66667365743A0A00204A0020204D32FB
:1031E0003035204200204A3C6A756E635F64657624
:1031F0003E00416476616E6365643A20423C6D69CD
:103200006E5F7365676D656E745F74696D655F751C
:10321000733E20533C6D696E5F66656564726174D0
:10322000653E20543C6D696E5F74726176656C5FBB
:1032300066656564726174653E0020204D323034ED
:10324000205000416363656C65726174696F6E2024
:1032500028756E6974732F7332293A20503C70724E
:10326000696E745F616363656C3E20523C72657485
:10327000726163745F616363656C3E20543C747279
:103280006176656C5F616363656C3E0A0020204D6A
:103290003230312058004D6178696D756D20416381
:1032A00063656C65726174696F6E2028756E6974F0
:1032B000732F7332293A0A0020204D3230332058C0
:1032C000004D6178696D756D206665656472617425
:1032D00065732028756E6974732F73293A0A005339
:1032E000746570732070657220756E69743A0A0097
:1032F00020204D3230302044300A0020204D323022
:10330000302044002044697361626C65640A0046A1
:10331000696C616D656E742073657474696E677332
:103320003A0020204D3134392043203B20556E692E
:10333000747320696E2043656C736975730A00208D
:10334000286D6D29002020473231202020203B208D
:10335000556E69747320696E206D6D006F70656EB7
:1033600000545249474745524544007A5F6D696EA3
:1033700000795F6D696E00785F6D696E00526570EF
:103380006F7274696E6720656E6473746F702073FA
:1033900074617475730A0000009643000096430040
:1033A00000A0400000C8410000A0420000A0420070
:1033B000007A4500001B43E8030000E803000032E8
:1033C000000000E80300006F70656E206661696CA4
:1033D00065642C2046696C653A2000544845524D7E
:1033E000414C2052554E4157415900546865726D09
:1033F000616C2052756E6177617900205A3A200025
:1034000020593A200042656420583A200050726FDB
:1034100062696E67204661696C65640A0050726F6C
:1034200062696E67204661696C656400486F6D650E
:103430002025732573257320466972737400496EC5
:10344000736572742066696C616D656E7420616E5F
:103450006420707265737320627574746F6E0A00F5
:10346000220A00556E6B6E6F776E20636F6D6D6113
:103470006E643A20220000002100240027002A0068
:103480002D003000330001010000040107010A0192
:1034900000002200250028002B002E0031003400FF
:1034A00002010000050108010B014D6963726F7391
:1034B0007465707320756E617661696C61626C65AC
:1034C0000A0045313A200045303A20004D53317C06
:1034D0004D53327C4D53332050696E730A00A40162
:1034E000D00111241FBECFEFD1E2DEBFCDBF00E07F
:1034F0000CBF13E0A0E0B2E0E2ECFDE402E00BBFA1
:1035000002C007900D92A03AB107D9F724E1A0EAD2
:10351000B3E001C01D92A83DB207E1F71AE1C0E790
:10352000DAE100E006C021970109802FFE010F9427
:103530003023CF36D10780E00807A9F70F94F10CAC
:103540000D94CF260C9400002F923F924F925F92E1
:103550006F927F928F929F92AF92BF92CF92DF92A3
:10356000EF92FF920F931F93CF93DF93CDB7DEB708
:10357000C055D1090FB6F894DEBF0FBECDBF209164
:10358000961421962FAF219781E080939614809115
:10359000E5048D3409F4DEC3843511F40C942C2B2E
:1035A000873411F00C94472B2090E3043090E4040E
:1035B0003BE12316310409F421C1ECF454E0251653
:1035C000310444F482E0281631040CF046C037FE82
:1035D00038C0BCC39CE02916310409F40BC1A5E135
:1035E0002A16310411F40C94492BB4E02B16310443
:1035F00009F0ACC3C0C0EAE22E16310409F47FC260
:103600006CF42DE12216310409F422C10CF410C12E
:103610004EE12416310409F42FC198C35BE5251649
:10362000310409F4E9C18CE52816310409F4E9C133
:103630009AE52916310409F089C31092E2040C942A
:10364000492B80910B02882311F40C94492B0E9482
:10365000D6EA0E9431B30C94492B80910B02882347
:1036600011F40C94492B0E94D6EA82E50E94BDBB5E
:10367000882309F44EC00E943DBB6B017C0120E011
:1036800030E0A9010F94431C882311F40C94252CDD
:1036900020919A1430919B1440919C1450919D1448
:1036A00028A339A34AA35BA380919E1490919F14F1
:1036B000A091A014B091A1148CA39DA3AEA3BFA30D
:1036C0008090D2049090D304A090D404B090D504FC
:1036D0004090D6045090D7046090D8047090D904DC
:1036E000A501940168A179A18AA19BA10F94431C13
:1036F00081110C946A2BA30192016CA17DA18EA172
:103700009FA10F94431C882311F40C94252C0C9436
:103710006A2B89E40E94BDBB882329F00E943DBB2F
:103720006B017C0103C0C12CD12C76018AE40E947C
:10373000BDBB882311F40C942C2C0E943DBB68A7C0
:1037400079A78AA79BA720E030E0A901C701B601AD
:103750000F94431C81110C94392C20E030E0A90116
:1037600068A579A58AA59BA50F94431C81110C948B
:10377000392C0C94252C80E50E94BDBB882329F0B0
:103780000E94C6E96B017C0103C0C12CD12C7601DB
:1037900083E50E94BDBB882361F00E943DBB20E011
:1037A00030E04AE754E40F94A91C0F94AC246B0159
:1037B0007C010E9459A780917D04811105C060E0C1
:1037C0008EE29AE00E94A3E00F94460BC60ED71E2D
:1037D000E81EF91E0F94460BDC01CB018C199D09E4
:1037E000AE09BF09B7FD02C00C94492B80E00E94CE
:1037F0001635F0CF0E94AFE40C94492B0F94D506F8
:1038000081110C94492B8CE0E7E6F2E0DE01119681
:1038100001900D928A95E1F760E070E080E50E94EA
:103820009CE4BE016F5F7F4F0E9476DF0C94492BB2
:10383000809193148770873011F00C94CA2F60E048
:103840008FE40E94E5BB81110C94492B0C94CA2F84
:103850000F94D50681110C94492B80917C04882308
:1038600011F40C940F3160E08FE40E94E5BB8111EC
:103870000C94492B0C940F312091871430918814AB
:103880004091891450918A1460919A1470919B14FC
:1038900080919C1490919D140F943923AB01BC012D
:1038A00088E50E94775769837A838B839C83209174
:1038B0008B1430918C1440918D1450918E14609122
:1038C0009E1470919F148091A0149091A1140F9454
:1038D0003923AB01BC0189E50E9477576D837E8354
:1038E0008F839887BE016B5F7F4FCE0101960E9448
:1038F000D0B9882311F40C94492B80E00E9490BE2B
:103900000E9425B661E085E40E94E5BB21E0482FD6
:10391000BE016B5F7F4FCE0101960F9448076B018C
:103920007C019B01AC010F942B2681115FC0898023
:103930009A80AB80BC8020E030E0A901C501B401D1
:103940000F94431C87FF05C027E137EB41E558EB97
:1039500004C027E137EB41E558E3C501B4010F94FA
:103960003923AB01BC0185E094E30E94B7C28D808E
:103970009E80AF80B88420E030E0A901C501B40189
:103980000F94431C87FF05C027E137EB41E558EB57
:1039900004C027E137EB41E558E3C501B4010F94BA
:1039A0003923AB01BC0180E094E30E94B7C220E060
:1039B00030E0A901C701B6010F94431C87FF05C081
:1039C00067E177EB81E598EB04C067E177EB81E590
:1039D00098E3A70196010F943923AB01BC018BEF4B
:1039E00093E30E94B7C28AE00E94EA330E940CB6B9
:1039F0000E941BB90C94492B8FE08093E2040C9435
:103A0000492B73E7272E72E0372EEEE6EE2EE4E028
:103A1000FE2EAAE9B4E1B9A3A8A3FBE7CF2EF4E1F7
:103A2000DF2E00E010E0F10181911F010E94BDBB7B
:103A3000882309F44AC00E943DBB2B013C0113308E
:103A400049F0D6012D913D914D915C910F94382311
:103A50002B013C01E8A1F9A12081318142815381F0
:103A6000C301B2010F9438234B015C012DEB37E306
:103A700046E855EB0F94992587FD0AC02DEB37E3F7
:103A800046E855E3C501B4010F94431C1816ECF445
:103A9000133051F44092A6145092A7146092A814C7
:103AA0007092A91401E011C0A5019401D7016D9194
:103AB0007D918D919C910F943923F70160837183DF
:103AC00082839383812F0E9470B21F5FF4E0EF0E18
:103AD000F11C28A139A12C5F3F4F39A328A334E062
:103AE000C30ED11C143009F09ECF002321F086EACA
:103AF00094E10E946AA70E941BB90C94492B809103
:103B00000B02882311F40C94492B89E40E94BDBB5D
:103B1000E82E882321F00E9439BB082F01C000E065
:103B20008AE40E94BDBBF82E882321F00E9439BB95
:103B3000182F01C010E0EE2011F0033020F4FF2018
:103B400041F0133030F08FEC99E00E94FFC10C94EB
:103B5000492B80E1EAE9F4E1A2EDB4E001900D9295
:103B60008A95E1F7EE2019F1602F000F770B880B93
:103B7000990B0F944A1C20915E0430915F04409190
:103B80006004509161040F94A91C20916604309147
:103B9000670440916804509169040F94392360933D
:103BA000D2047093D3048093D4049093D504FF205F
:103BB00019F1612F110F770B880B990B0F944A1C89
:103BC0002091620430916304409164045091650433
:103BD0000F94A91C20916A0430916B0440916C04ED
:103BE00050916D040F9439236093D6047093D704D9
:103BF0008093D8049093D90460E080E50E94E5BBEF
:103C00008823C1F1EE20D1F02091871430918814DF
:103C10004091891450918A146091D2047091D30418
:103C20008091D4049091D5040F9438236093D204EA
:103C30007093D3048093D4049093D504FF20D1F0E3
:103C400020918B1430918C1440918D1450918E14CE
:103C50006091D6047091D7048091D8049091D904D2
:103C60000F9438236093D6047093D7048093D804BC
:103C70009093D90440E050E0BA0186E40E9477575F
:103C80006B017C0120E030E0A9010F949925181602
:103C90005CF420E030E040E752E4C701B6010F9445
:103CA00033246B017C0103C0C12CD12C76018090A0
:103CB0005F0290906002A0906102B090620220E0EA
:103CC00030E0A901C701B6010F94431C882341F0DD
:103CD000C0925F02D0926002E0926102F0926202B2
:103CE0000091090210910A0284E690E090930A0282
:103CF00080930902C0901D02D0901E02E0901F0226
:103D0000F090200280E090E0A0E8BFE380931D02E5
:103D100090931E02A0931F02B09320020E9431B321
:103D200080925F0290926002A0926102B092620261
:103D300010930A0200930902C0921D02D0921E0243
:103D4000E0921F02F09220020C94492B0F9433054D
:103D50000C94492B0091E3041091E40406371105FB
:103D600009F4C8C70CF0DEC00C34110509F453C4C3
:103D70000CF070C00A31110509F4D8C2BCF5043149
:103D8000110509F480C28CF40131110509F467C2F0
:103D900034F40230110508F4E6C10C94292B0231E9
:103DA000110509F44FC60C94292B0731110509F4AC
:103DB0008FC294F40531110509F486C2063111054C
:103DC00011F00C94292B0E94FC4580912914877FC7
:103DD000809329140C94492B0831110509F48DC2E4
:103DE0000931110509F495C20C94292B0F311105E5
:103DF00009F4C5C384F40C31110509F40DC30CF4A6
:103E0000A3C20D31110509F40FC30E31110509F4D8
:103E100012C30C94292B0A32110509F4D0C36CF497
:103E20000032110509F468C30132110511F00C9438
:103E3000292B0E94535E0C94492B0033110509F481
:103E4000E6C30B34110511F00C94292B0E94BCA47D
:103E50000C94492B0A36110509F4ECC4ACF5033572
:103E6000110509F4E8C5BCF40E34110509F4DBC3EF
:103E70000CF4D5C30135110509F4C9C50235110586
:103E800011F00C94292B8091E2048F7D8061809346
:103E9000E2040C94492B0C35110509F423C654F4A3
:103EA0000435110509F4CEC50535110509F4F7C52A
:103EB0000C94292B0836110509F446C4093611055E
:103EC00009F4A8C40C94292B0F36110509F4E9C490
:103ED00084F40C36110509F429C50CF4C8C40D3658
:103EE000110509F44CC40E36110509F4C9C40C942B
:103EF000292B0237110509F47FC654F40037110548
:103F000009F419C50137110509F420C50C94292BB2
:103F10000337110509F475C60537110509F4DAC62A
:103F20000C94292B0F3241E0140711F40C947629DC
:103F30000CF072C00C3C110511F40C94B3278CF5F5
:103F40000139110509F422C784F40837110509F471
:103F50000EC70CF409C70937110509F410C70C384E
:103F6000110509F415C50C94292B083C110509F419
:103F700068C76CF40B39110509F423C50E3B110514
:103F800011F00C94292B0E94A55B0C94492B093C41
:103F9000110509F4A3C70B3C110509F4C2C70C9421
:103FA000292B0D3D110511F40C94FB279CF40E3CBC
:103FB000110511F40C94C9270CF4D8C7033D110561
:103FC00011F40C94EB270C3D110511F40C94EE2721
:103FD0000C94292B0C3281E0180711F40C949D28C5
:103FE00074F4023E110511F40C9451280232114070
:103FF00011F00C94292B0E94EFE90C94492B0D32FF
:10400000B1E01B0711F40C94B2280E32114011F4E8
:104010000C9432290C94292B053FF1E01F0711F471
:104020000C94452A0CF04BC0023931E0130711F40F
:104030000C947C2904F50F3551E0150711F40C940C
:10404000182B3CF40E35114011F40C94E32A0C9417
:10405000292B0039A1E01A0711F40C9479290139B0
:10406000114011F00C94292B81E00E9418A40E94A9
:104070001BB90C94492B053AE1E01E0711F40C948E
:10408000822974F40A3921E0120709F45CC4043A65
:10409000114011F00C94292B0E94F0C20C94492B72
:1040A0000C3A41E0140711F40C94E729043F114045
:1040B00011F00C94292B0E94804C0C94492B0B3549
:1040C00082E0180711F40C94642A5CF5083FA1E023
:1040D0001A0711F40C944B2AACF4063FE1E01E07DA
:1040E00011F40C94482A073F114011F00C94292B2D
:1040F00061E083E50E94E5BB91E089270E944EFDC7
:104100000C94492B0C3022E0120711F40C945C2A19
:104110000835124011F00C94292B0E9406EE0C94E5
:10412000492B033543E0140711F40C94E02A7CF486
:104130000D3B82E0180711F40C94DD2A0E3B12406F
:1041400011F00C94292B0E94E5EB0C94492B003ABA
:10415000A3E01A0709F405C2073E134011F40C94BA
:104160001B2B0C94292BA0905C04B0905D0480E57F
:104170000E94BDBB882359F00E94C6E96B017C01F7
:1041800011E0672B682B692B31F410E004C010E0BC
:10419000C12CD12C760183E50E94BDBB882311F48C
:1041A0000C9412310E943DBB20E030E04AE754E419
:1041B0000F94A91C0F94AC246B017C0111110BC04E
:1041C000672B682B692B39F4A114B10421F0F50198
:1041D0008081811102C010E001C011E00E9459A746
:1041E000112329F061E0C5010E941DE105C060E0D6
:1041F0008CEB99E00E94A3E01091961483E08093E9
:10420000961481E080939514C114D104E104F10463
:10421000B1F00F94460BC60ED71EE81EF91E0F9480
:10422000460BDC01CB018C199D09AE09BF09B7FF14
:104230000EC08091951481110C94173108C08091A3
:104240009514882321F080E00E941635F8CF0E9453
:1042500042E110929514109396140C94492B80917E
:10426000580484FF02C00C941C3180915A0487FFCB
:1042700002C00C941C3180915B04837011F00C948B
:104280001C310C94383182EA99E00E94FFC183E925
:1042900092E10E94959C8BE1E3E9F2E1DE01119647
:1042A00001900D928A95E1F760E070E0CE010196F1
:1042B0000E94C347CE0101960E949A9C83E999E02F
:1042C0000E94FFC10C94492B0E946D460C94492B0F
:1042D000E0915C04F0915D048081882329F08032B4
:1042E00009F410823196F8CF60E080915C049091DF
:1042F0005D040E946E490C94492B0E94353388233B
:1043000021F00E940D460E94BCA40E9442E10C9440
:10431000492B8091291482FF03C08B7F809329143D
:104320000E9462570E9442E10C94492B809129140B
:1043300083FD02C00C94492B83E50E94BDBB811113
:104340000C9446310C94492B83E40E9474BB88235F
:10435000C1F181E699E00E94FFC180913D1288235E
:1043600039F1BE016F5F7F4F8AE392E10E945C9B4F
:104370008E010F5F1F4FD8018D918D01882319F099
:104380000E94EA33F8CFCE0101960E94F248809154
:104390001604882389F080E20E94EA3306E114E0E3
:1043A000F80181918F01882339F00E94EA33F8CF18
:1043B00087E599E00E94FFC18AE00E94EA330C94ED
:1043C000492B8091291482FF21C080E799E00E9447
:1043D000FFC160912514709126148091271490914B
:1043E00028144AE00E94F1338FE20E94EA33609180
:1043F00021147091221480912314909124144AE086
:104400000E94F1330E94EF340C94492B82E899E02A
:104410000E94FFC10C94492B80915C0490915D0433
:104420000E9420490C94492B809129148E7F8093FF
:1044300029140C94492B8091291483FD02C00C94FB
:10444000492B0F941C058091291483FD02C00C9404
:10445000492B40915C0450915D04BE01645E7F4F26
:1044600080E00F94F0028C01009711F40C94492B1A
:104470006C8D7D8D19821C8222E0AC01CE010196EB
:104480000E9449A1811102C0F12C14C0CE010196F5
:104490000F945E028823C1F361E0CE0101960E9471
:1044A000049B009789F325EEDC012C931C820E946B
:1044B0008D4AF82ECE0101960E949A9CB801FF20E9
:1044C00089F089E499E00E94D5C28AE00E94EA332B
:1044D000109225141092261410922714109228146A
:1044E0000C94492B81E399E00E94D5C28CEF9DE1A9
:1044F0000E94FFC10C94492B8091291482FD0E94D7
:1045000059A78091291483FD02C00C94492B60E0C7
:1045100080E50E94E5BB182F682F80915C04909184
:104520005D040E946E4983E50E94BDBB882381F033
:104530000E9405BBAB01BC01409325145093261487
:1045400060932714709328148AE392E10E941A9AC8
:104550000E940D4611110C94492B0E94BCA40C948E
:10456000492B20915C0430915D0490912914926054
:1045700090932914C9010E9420490C94492B0E9450
:1045800013576C8F7D8F8E8F9F8FBE016F5F7F4F14
:10459000CE014C960E94745D60E0CE0101960E94AF
:1045A0001DE10E94ECC2BE016F5F7F4F84E299E083
:1045B0000E94D5C28AE00E94EA330C94492B83E51D
:1045C0000E94BDBB882311F40C94492B0E9415BB9B
:1045D000F82E6DE070E080E50E94CABB8C0197FF69
:1045E00002C00C94492B893021F4F09212120C94E1
:1045F000492B60E089E40E94E5BB81110C9457319E
:10460000802F0F94CC0C811169C50C9457310E94F6
:10461000A26C0C94492B0E9462570C94492B0E9467
:1046200018A50C94492B60E070E083E50E94CABB9A
:104630008E34910531F40E9489A50E9442E10C94C8
:10464000492B8DE099E00E94FFC1609106047091B2
:10465000070484E099E00E94AAC260910804709166
:10466000090487EF98E00E94AAC260910604709145
:1046700007048091080490910904681B790B8091CC
:104680000504815021E030E0823010F020E030E07D
:10469000621B730B8CEE98E00E94AAC28AE00E9413
:1046A000EA338DE099E00E94FFC180910A04909165
:1046B0000B04A0910C04B0910D048C8F9D8FAE8FD4
:1046C000BF8FBE016F5F7F4FCE014C960E94745D1D
:1046D000BE016F5F7F4F8FED98E00E94D5C2809141
:1046E0000E0490910F04A0911004B09111048C8FCE
:1046F0009D8FAE8FBF8FBE016F5F7F4FCE014C96F7
:104700000E94745DBE016F5F7F4F8FEC98E00E9446
:10471000D5C220E030E04AE754E460911204709181
:10472000130480911404909115040F943324AB0169
:10473000BC0187EB98E00E94B7C28DE60E94EA3385
:104740008AE00E94EA33A5C78091810E83FDA1C74C
:104750000E94BCEB87FD9DC783E50E94BDBB8823FB
:1047600059F00E943DBB0F94A524CB010E943AA2B0
:1047700061E080E00E9459650F94AA138AC7809176
:10478000810E83FD86C70E94BCEBF82E87FD81C792
:1047900083E50E94BDBB082F811106C082E50E94FF
:1047A000BDBB182F882361F10E943DBB0F94A52447
:1047B000CB010E943AA261E081E00E9459656091BC
:1047C0002B1270912C12072E000C880B990B0F9452
:1047D0004A1C4B015C0140902712509028126090B7
:1047E000291270902A12A30192010F94992518168C
:1047F00014F40C947F31002311F40C94653111E012
:104800000F94AA13112309F444C7602F8F2D0E941F
:10481000A6633FC70E94BCEB182F87FD3CC78CE9FD
:1048200095E00E94FFC1812F0E942F638AE00E94C1
:10483000EA3331C760E080E50E94D9BB811129C706
:1048400081E40E9474BB882321F06091121270E011
:1048500002C06FEF70E083E50E949CE48F3F9105FA
:1048600019F010F08FEF90E08093121212C760E001
:1048700080E50E94D9BB81110CC71092121209C7A2
:104880008EE40E94BDBB882309F403C70E9405BBC8
:1048900060930104709302048093030490930404D2
:1048A000F8C683E50E9474BB882331F060E083E59D
:1048B0000E94D9BB8093810E0E94ECC28BEA98E0E3
:1048C0000E94FFC18091810E882369F16CE6E62E7B
:1048D00065E0F62E00E010E020E08091810E90E08F
:1048E000A0E0B0E0002E04C0B695A79597958795F7
:1048F0000A94D2F780FF0EC0DD24D394D20E222377
:1049000019F08CE20E94EA33F701859194910E949C
:10491000FFC12D2D0F5F1F4FE2E0EE0EF11C0530A1
:104920001105D9F649CD87EA98E044CD1092951447
:1049300010920702AEC641E060E070E089E998E0BD
:104940000E948632A6C60E94F532A3C683E50E9465
:10495000BDBB882371F00E9415BB282F30E02D339A
:1049600031051CF48093060294C68CE38093060202
:1049700090C60E94ECC24091060250E060E070E0F8
:1049800082E998E00E9499C28AE00E94EA3381C6D7
:104990008091810E83FD7DC683E50E94BDBB882387
:1049A00009F477C60E943DBB0F94A5246C387105AD
:1049B0000CF48B011093FF030093FE030E94C66268
:1049C00068C683E50E94BDBB882309F462C60E94C5
:1049D00015BB182F90E0CD970CF01CE31093F50356
:1049E0000F94460B6B017C01212F30E0A8EEB3E061
:1049F0000F94ED22C60ED71EE81EF91EC092F103D9
:104A0000D092F203E092F303F092F40342C60E94C4
:104A100071650E9418A50E94D5A80E94323368EEE5
:104A200073E080E090E00E94DBC160E081E898E004
:104A30000E94A3E02EC68091E2048F7E8062809364
:104A4000E20427C683E50E94BDBB882399F00E943B
:104A50003DBB20E030E04AE754E40F94A91C0F94DA
:104A6000AC2460930202709303028093040290933B
:104A700005020FC68091580484FF02C00C94823155
:104A800080915A0487FF02C00C94823180915B04AC
:104A9000837011F00C9482310E94D5A8FAC583E589
:104AA0000E9474BB882309F4F4C50F94460B6093ED
:104AB000CE047093CF048093D0049093D1040E94CD
:104AC0003DBB20E030E04AE754E40F94A91C0F946A
:104AD000AC246093ED037093EE038093EF03909307
:104AE000F003D7C50E94BCEB87FDD3C59091580455
:104AF00094FD04C090915A0497FF0AC043E7C42E66
:104B000042E0D42E52E8E52E5EE0F52E10E009C01A
:104B100090915B04937091F7682F81E00E9415E9F2
:104B2000B8C5D6018D916D010E94BDBB882309F4E3
:104B300059C0133009F04FC00E943DBB4B015C01CE
:104B400020E030E040EA51E40F94431C87FF3AC074
:104B5000A50194016091A20E7091A30E8091A40E04
:104B60009091A50E0F9433242B013C019B01AC01C5
:104B70006091B20E7091B30E8091B40E9091B50E0B
:104B80000F94A91C6093B20E7093B30E8093B40E71
:104B90009093B50E6091B2087091B3088091B408FB
:104BA0009091B5080F94481CA30192010F94A91C81
:104BB0000F94AC246093B2087093B3088093B40848
:104BC0009093B5088092A20E9092A30EA092A40E8C
:104BD000B092A50E07C00E943DBBF701648B758B98
:104BE000868B978B1F5FF4E0EF0EF11C143009F0F9
:104BF00098CF0E9435A74DC50E9459A70E941BB9A6
:104C000048C58AEB97E00E94FFC160E08AEA97E01E
:104C10000E94A2EA60E085E997E00E94A2EA61E0D2
:104C200081E291E20E94A2EA61E08AE897E00E94B4
:104C3000A2EA61E08AE797E00E94A2EA60E081E7E9
:104C400097E00E94A2EA61E087E697E00E94A2EA6C
:104C500061E08DE597E00E94A2EA61E085E597E0DA
:104C60000E94A2EA61E087E497E00E94A2EA60E085
:104C700089E397E00E94A2EA60E08AE297E00E945E
:104C8000A2EA60E08CE197E00E94A2EA60E086E0A0
:104C900097E00E94A2EA60E085EF96E00E94A2EA17
:104CA00060E086EE96E00E94A2EA60E081ED96E088
:104CB0000E94A2EA61E08EEB96E00E94A2EA60E028
:104CC00081EB96E00E94A2EA60E08DE996E00E9406
:104CD000A2EADFC480915C0490915D04009709F41E
:104CE00014CBDC012C91222309F40FCB60E00E944D
:104CF0001DE1CFC400915C0410915D0494E0F12C9F
:104D000040E0915021F1F8018081282F2B7F213440
:104D100021F421812133D9F407C08035C1F4818188
:104D200080538A3048F013C0813421F0853421F457
:104D300041E002C0FF24F39498012E5F3F4F8901A8
:104D40002F5F3F4FF80180818032C9F3DACF4111E4
:104D50000E94ECC2FF2021F089E996E00E94FFC189
:104D6000C8010E94F53495C40E94D8FB92C481E02A
:104D700080937A0480937B040E94F6FB8AC410928D
:104D80007A0410927B040E94F6FB83C460E070E01A
:104D900083E50E94CABB8C011127023011053CF04B
:104DA0000E94E8C287E796E00E94FFC172C488E4CF
:104DB0000E94BDBB8823A9F00E9439BB8A3A9105A5
:104DC0003CF08530F1E09F072CF084E091E002C0D8
:104DD0008AEA90E0F801EE0FFF1FE751FC4F918344
:104DE000808386E40E94BDBB882381F00E9439BB8A
:104DF00097FD07C08F3F910529F024F08FEF90E0D9
:104E000001C080E0F801E951FC4F808382E40E94F8
:104E1000BDBB882309F43DC40E9439BB8530910590
:104E200034F08D3891052CF08CE890E002C085E0DC
:104E300090E0000F111FF801ED51FC4F918380832A
:104E400028C40E94BCEB182F87FD23C484E40E9471
:104E500074BB882309F43FC00E943DBB6B017C01F9
:104E600001E020E030E0A9010F94431C811101C052
:104E700000E00093E20320E030E0A901C701B601A1
:104E80000F94431C882339F10E943DBB24E0120299
:104E9000F0011124E252FC4F60837183828393837B
:104EA00020E030E0A9016091DE037091DF03809182
:104EB000E0039091E1030F94431C81110CC080E04A
:104EC00090E0A0EEBFE38093DE039093DF03A09316
:104ED000E003B093E1030E944AA2DBC30E94BCEB53
:104EE00087FDD7C3B3E7EB2EB2E0FB2E02E81EE04E
:104EF000D7018D917D010E9474BB882359F00E94D7
:104F00003DBB0F94AC24F80160837183828393834B
:104F10000E94EEA60C5F1F4FFEE002391F0741F70B
:104F2000B8C30E94BCEB87FDB4C3F3E7EF2EF2E0F9
:104F3000FF2E02E81EE0A2E9CA2EAEE0DA2ED7016B
:104F40008D917D010E9474BB882339F00E943DBB86
:104F5000F80164A375A386A397A30C5F1F4FC01627
:104F6000D10669F796C30E9450E993C38091580413
:104F700081FF02C00C94AE318091590481FF02C0C0
:104F80000C94AE3180915A048C7011F00C94AE31B7
:104F900080C373E7C72E72E0D72EE2EDEE2EE3E07A
:104FA000FE2E10E0D6018D916D010E9474BB882306
:104FB00051F00E943DBBF70160837183828393832C
:104FC000812F0E9470B21F5FF4E0EF0EF11C1330CE
:104FD00049F70C947B1D0E9426E85BC383E50E9481
:104FE000BDBB882309F455C30E9439BB90930A02C4
:104FF000809309024EC30E94BCEBF82E87FD49C383
:1050000083E50E94BDBB0F2D0F2C000C110B8823D4
:1050100069F10E9439BBF801EE0FFF1FE050FE4F0F
:1050200091838083000F111F000F111F9801235ED1
:105030003D4F7901BC01990F880B990B0F944A1CC5
:105040002AE037ED43E25CE30F94A91CF801E25338
:10505000FC4F20813181428153810F94A91CD701DB
:105060006D937D938D939C93139713C30E94ECC211
:1050700085E40E94EA3380E38F0D0E94EA33000F3B
:10508000111FF801E050FE4F6081718180E596E0CC
:105090000E94C8C285E20E94EA338AE00E94EA3395
:1050A000F8C280E50E9474BB882309F4F2C260E074
:1050B00070E080E50E94CABBF82E6FEF7FEF83E5BA
:1050C0000E94CABB8C010196039708F0E2C2F7FC6C
:1050D000E0C28F2D0F94CC0C882339F00E94E8C2D7
:1050E00085E199E00E94FFC1D4C20E9459A760E007
:1050F0008F2D0F94070A0F3FBFEF1B0731F00130D0
:10510000110571F000E010E00DC08F2D0F94061610
:1051100031E020E0892B09F030E0032F122F02C08C
:1051200001E010E08F2D0F9406168017910709F407
:10513000B0C280E00E941635F5CF64E071E083E5EF
:105140000E949CE48C0168EE73E080E50E949CE480
:105150008938E3E19E0710F088E893E1B8010E94E6
:1051600076E097C260E085E40E94D9BB811173C0EC
:1051700080E50E9474BB882351F00E943DBB609380
:105180002E1270932F12809330129093311289E473
:105190000E9474BB882381F00E943DBB2CEA35EC51
:1051A00047E25EE30F94A91C6093321270933312AE
:1051B000809334129093351284E40E9474BB882348
:1051C00081F00E943DBB2CEA35EC47E25EE30F9490
:1051D0003324609336127093371280933812909371
:1051E00039120E94ECC240912E1250912F12609100
:1051F0003012709131128CE496E00E94B7C22CEA12
:1052000035EC47E25EE36091321270913312809187
:105210003412909135120F943324AB01BC0188E411
:1052200096E00E94B7C22CEA35EC47E25EE360915B
:1052300036127091371280913812909139120F9472
:10524000A91CAB01BC0184E496E00E94B7C28AE0CD
:105250000E94EA331EC20E94E8C282E396E00E94E6
:10526000FFC117C283E50E9474BB182F882371F019
:105270000E943DBB0F94A5247093220260932102EB
:1052800021E0672B09F020E02093CE0880E50E9402
:1052900074BB882359F02091210230912202232BE4
:1052A00011F00E9429BB8093CE08F3C11111F1C106
:1052B0000E94ECC28FE196E00E94FFC18091CE086F
:1052C000882319F081EB9FE102C086E096E00E94FE
:1052D000FFC160912102709122028EE096E00E944F
:1052E000C8C28AE096E00E94FFC1D3C10E948E57D7
:1052F000D0C10E9459A7CDC180E00E9418A40E948D
:105300001BB9C7C16FEF7FEF89E40E94CABB182F9A
:105310006FEF7FEF8AE40E94CABB082F8AE50E94E4
:1053200074BBF82E811105C081E50E9474BBD82E94
:1053300001C0D12C17FD06C007FD04C0F11009C043
:10534000D11007C00E94E8C286EE95E00E94FFC11E
:10535000A0C1133010F4033038F00E94E8C28FEC83
:1053600099E00E94FFC195C1E12E110FFF08002EA8
:10537000000C110B0E943DBBD701AA0FBB1FDD2003
:1053800081F0FD01EE0DFF1DE00FF11FEE0FFF1F7D
:10539000EE0FFF1FE655FC4F208131814281538182
:1053A00003C020E030E0A901EA0EFB1E0E0D1F1D18
:1053B000000F111F000F111F06551C4F0F943923AA
:1053C000D8016D937D938D939C93139762C10F9435
:1053D000D50681115EC10DE515E0EAE9F4E1F9A316
:1053E000E8A39E012F5F3F4F190149E6C42E45E017
:1053F000D42E7901F8016591759185919491A8A1B8
:10540000B9A18D909D90AD90BD90B9A3A8A3A50121
:1054100094010F9438232B013C01F70160837183C1
:105420008283938320E030E040EA51EC0F94992589
:1054300087FD0AC020E030E040EA51E4C301B20138
:105440000F94431C18162CF4F601849118160CF4D2
:10545000DEC7D7018D909D90AD90BD907D0120E07D
:1054600030E040EA51ECC501B4010F94992587FD65
:10547000D9C720E030E040EA51E4C501B4010F94FF
:10548000431C18160CF0E2C7CDC70E9440FD01C1B5
:105490000E9405FCFEC081E08093A9030E9419517F
:1054A0001092A903882309F4F4C00E94ECC28FE98A
:1054B00095E00E94FFC1EDC08091291482FFE9C0F0
:1054C000806480932914E5C00E94BCEB082F87FDFF
:1054D000E0C085E50E9474BB8823B1F1E02E002E68
:1054E000000CFF080E943DBB4B015C0120E030E056
:1054F000A9010F94992587FF04C0B7FAB094B7F8B3
:10550000B094C70123E0880F991F2A95E1F79C0109
:105510002F553C4F7901D9018D929D92AD92BC924D
:10552000139720E030E048E453E4C501B4010F9440
:10553000992518164CF480E090E0A8E4B3E4F70154
:1055400080839183A283B3838CE40E9474BB8823FD
:1055500009F49FC0002E000C110B0E943DBB6B0193
:105560007C0120E030E0A9010F94992587FF04C059
:10557000F7FAF094F7F8F09420E030E048E453E4D0
:10558000C701B6010F949925980193E0220F331FAC
:105590009A95E1F7F901EF55FC4F18162CF0C482EB
:1055A000D582E682F78275C080E090E0A8E4B3E49B
:1055B00084839583A683B7836CC00E94C7EC69C0BF
:1055C0000E941A6066C083E50E9474BB811106C008
:1055D00083E7E82E82E0F82E10E00EC010E00E9473
:1055E00015BB682F812F0F946E0C1F5F1530B9F714
:1055F000EFCF1F5F143071F0D7018D917D010E94B4
:1056000074BB8823B1F30E9415BB682F812F0F94C0
:105610006E0CEFCF82E40E9474BB882331F00E94AD
:1056200015BB682F84E00F946E0C0F949C0B31C057
:105630000E94B6E72EC081E080930B021092A00377
:1056400060E083E50E94E5BB811123C00E94335FC7
:1056500020C00F9433051DC00091E3041091E404B1
:105660000023B9F00E94ECC284E50E94EA33B8013D
:105670007727072E000C880B990B0E945E3480E27E
:105680000E94EA3382E396E00E94FFC102C00F94B9
:1056900033050E94235F2196BFAD2197B0939614E6
:1056A000C05BDF4F0FB6F894DEBF0FBECDBFDF91FA
:1056B000CF911F910F91FF90EF90DF90CF90BF900F
:1056C000AF909F908F907F906F905F904F903F90A2
:1056D0002F90089511E0E2E02E16310409F010E059
:1056E00020E030E0A901C701B6010F94431C881FD8
:1056F0008827881F1813A4C020E030E040E85FE34B
:1057000028A739A74AA75BA728A139A14AA15BA16D
:10571000C501B4010F94382320E030E040E05FE39E
:105720000F94A91C68A379A38AA39BA32CA13DA1D4
:105730004EA15FA1C301B2010F94382320E030E0F5
:1057400040E05FE30F94A91C6CA37DA38EA39FA3ED
:1057500028A139A14AA15BA1CA01B9010F94A91CD2
:105760004B015C012CA13DA14EA15FA1CA01B90171
:105770000F94A91C9B01AC01C501B4010F943923FE
:105780000F94E7254B015C019B01AC01C701B601F9
:105790000F9438232B013C01A5019401C701B601E8
:1057A0000F9439239B01AC01C301B2010F94A91CD2
:1057B0006B017C0120E030E0A9010F94992587FD61
:1057C00007C0C701B6010F94E7252B013C0103C0B8
:1057D000412C512C32016CA17DA18EA19FA190582A
:1057E000A50194010F94332428A539A54AA55BA5EA
:1057F0000F94A91CA30192010F94A91C28A139A1FF
:105800004AA15BA10F9439236B017C01A50194018E
:1058100068A179A18AA19BA10F94332428A539A559
:105820004AA55BA50F94A91CA30192010F94A91C82
:105830002CA13DA14EA15FA10F9439230C949F1B75
:1058400020E030E040E85FEB5BCF0E94E8C287E3F6
:105850009AE00E94FFC11DCF20E030E0A901C701FE
:10586000B6010F94431C882381F318A619A61AA623
:105870001BA6D701C601B05888A399A3AAA3BBA3AE
:1058800028A539A54AA55BA550582CA33DA34EA336
:105890005FA39C01AD01BC01CD010F94A91C4B017C
:1058A0005C012CA13DA14EA15FA1CA01B9010F94D9
:1058B000A91C9B01AC01C501B4010F9439230F94BD
:1058C000E7256CAF7DAF8EAF9FAF80919A1490911A
:1058D0009B14A0919C14B0919D148CA79DA7AEA77A
:1058E000BFA7A7019601BC01CD010F9439232596CE
:1058F0006CAF7DAF8EAF9FAF259720919E143091F6
:105900009F144091A0145091A11428AB39AB4AAB1D
:105910005BAB28A539A54AA55BA568A979A98AA981
:105920009BA90F94392329966CAF7DAF8EAF9FAFA3
:1059300029978091D2049091D304A091D404B0917E
:10594000D5048CAB9DABAEABBFAB25962CAD3DADBE
:105950004EAD5FAD2597BC01CD010F9438236B018F
:105960007C012091D6043091D7044091D804509105
:10597000D90428AF39AF4AAF5BAF29962CAD3DAD06
:105980004EAD5FAD299768AD79AD8AAD9BAD0F94F3
:1059900038234B015C01A701960168A179A18AA176
:1059A0009BA10F94A91C2B013C01A50194016CA1A2
:1059B0007DA18EA19FA10F94A91C9B01AC01C301E5
:1059C000B2010F9439232B013C01A501940168A178
:1059D00079A18AA19BA10F94A91C4B015C01A7018D
:1059E00096016CA17DA18EA19FA10F94A91C9B0182
:1059F000AC01C501B4010F943823A30192010F94A7
:105A0000B8236B017C0120E030E0A9010F94431C16
:105A100087FF0AC02BED3FE049EC50E4C701B60117
:105A20000F9439236B017C012BED3FE049EC50E4EE
:105A3000C701B6010F94332420E030E040EC51E47C
:105A40000F94A91C0F9417240F94AC248B01672B7F
:105A500011F401E010E032E02316310451F42BED93
:105A60003FE049EC50E4C701B6010F9438236B01C5
:105A70007C0120E030E0A901C701B6010F94431C6E
:105A8000811122C02CA93DA94EA95FA96CA57DA5B5
:105A90008EA59FA50F94431C811116C028AD39AD6A
:105AA0004AAD5BAD68A979A98AA99BA90F94431C4B
:105AB00081110AC008E110E08BEDC82E8FE0D82ECE
:105AC00089ECE82E80E4F82E8091A2149091A31422
:105AD000A091A414B091A51488AB99ABAAABBBABB1
