:100000000C946F1A0C94A01A0C94A01A0C94A01AB9
:100010000C94A01A0C94A01A0C94A01A0C94A01A78
:100020000C94A01A0C94A01A0C94A01A0C94A01A68
:100030000C94A01A0C94A01A0C94A01A0C94A01A58
:100040000C94A01A0C94EAA20C94A01A0C94A01A76
:100050000C94A01A0C94A01A0C941F650D94500BCC
:100060000C94A01A0C94B03A0C94A63A0C94A01AD2
:100070000C94A01A0C94A01A0C94A01A0C94A01A18
:100080000C94A01A0C94A01A0C94A01A0C94A01A08
:100090000C94A01A0C94A01A0C94A01A0C94A01AF8
:1000A0000C94A01A0C94A01A0C94A01A0C94A01AE8
:1000B0000C94A01A0C94A01A0C94A01A0C94A01AD8
:1000C0000C94A01A0C94A01A0C94A01A0C94A01AC8
:1000D0000C94A01A0C94A01A0C94A01A0C94A01AB8
:1000E0000C94A01AB9939C939F93BC93A293A5934D
:1000F000A893B493AB93C793AE93B1935201CC0042
:10010000C8004001C201A60116019A01D0008E016B
:100110003C010001EE007201A601E6000E02D201D0
:10012000A801BA018C01B001C80128015A0160017F
:100130005601740112013E015401EC012801200115
:10014000E0015001084AD73B3BCE016E84BCBFFDA5
:10015000C12F3D6C74319ABD56833DDA3D00C77F97
:1001600011BED9E4BB4C3E916BAAAABE0000008030
:100170003F05A84CCDB2D44EB93836A9020C50B9BF
:10018000918688083CA6AAAA2ABE000000803F00EB
:100190000D948D090C94E28F0D949E090C9468F6D1
:1001A0000D94AC090C9460440C94DAE00C948C77B8
:1001B0000C9448D30C94CD440C9482F60C9486771E
:1001C0000C9494F60C94C4620C94E3770D94C809D3
:1001D0000C9446AA0C94B1930C94BA8F0D94BE095A
:1001E0000C9400F30C94AB930C945EF60C94D6C56F
:1001F0000C94A98D0C94ED960C94C9440C94D0F6F3
:100200000D94BA090C9406F30C9409C50C94D59876
:100210000C9475C50C94FEF20C94C28F0C942EC6EF
:100220000C9498CB0D94B60A0C94C9F00D94A209C5
:100230000C9461C50C94037A0C94DFF80C948C44F4
:100240000D94E30A0C94CA8F0C94DA8F0C9431C588
:100250000D94010B0C943FC50C9402F30C94A593E0
:100260000C94EDC50C94AE930C94A9AC0C94C28D77
:100270000C9483F10C949BD30D94B4090D94C00A93
:100280000D9491090C94D28F0C9489F80C94D7F8A2
:100290000C947FF80C9460450C949C930C9459F644
:1002A0000D94F70A0D949B090D94CF0A0D94A20AA0
:1002B0000C948EF60D94920A0C943F780C949CC585
:1002C0000D949A0A0C94D1980C9463E10C94A67D39
:1002D0000C94BE980C94CFC70C941A940C9425D30C
:1002E0000C94B9C50D94C2090D94AC0A0C941DC5AB
:1002F0000C9452A90C947AF80C94EA960C949C777E
:100300000C94C68F0C94BE8F0C94CE8F0C940AC69E
:100310000C94A0440C9426940D94740A0D94B00986
:100320000C9492770C94CF980C9492CB0C94E79603
:100330000C94AACB0D94A6090C94E58F0C94CD983F
:100340000C9480CB0C9486CB0D942D160D94D5096E
:100350000D946A0A0C94DE8F0C94F5C40C94EEE0B4
:100360000D947E0A0C9427C60C9496C50C9499C5DE
:100370000C9449A90D946F0A0C9427AB0C9461D38B
:100380000C94CA440D9497090C94B4930C94DF77A1
:100390000D94880A0C9483C50C942A760C9488F6E4
:1003A0000D948E130D94D0090C94C7930C94A293C2
:1003B0000C949ECB0C94ADF90C9458A90C94BC935E
:1003C0000D94ED0A0C94BC440C9463F60C94EB8FE2
:1003D0000C9448A20C94637B0D94D90A0C9425923A
:1003E0000C949F930C94B9930C94A4CB0C944676E4
:1003F0000C9454D90C94D68F0C9484F80C9465A961
:100400000C94E88F0C941AF60C9404F30C94A598B1
:100410000C948CCB0C945AA90C94D3980D94CC09C1
:100420000C944DC50C94A8934E414E494E495459D5
:10043000494E46CDCCCC3D0AD7233C17B7D13877AF
:10044000CC2B329595E6241FB14F0A0000204100C5
:1004500000C84200401C4620BCBE4CCA1B0E5AAE0F
:10046000C59D7400407A10F35A00A0724E1809001E
:1004700010A5D4E80000E87648170000E40B540209
:100480000000CA9A3B000000E1F505000080969844
:1004900000000040420F000000A086010000001094
:1004A0002700000000E803000000006400000000D6
:1004B000000A00000000000100000000002C76D8B7
:1004C00088DC674F0823DFC1DFAE59E1B1B796E59D
:1004D000E3E453C63AE651997696E8E6C28426EB01
:1004E000898C9B62ED407C6FFCEFBC9C9F40F2BA14
:1004F000A56FA5F490055A2AF75C936B6CF9676DAC
:10050000C11BFCE0E40D47FEF520E6B500D0ED9000
:100510002E0300943577050080841E080000204ECD
:100520000A000000C80C333333330F986E12831166
:1005300041EF8D2114893BE65516CFFEE6DB18D13D
:10054000844B381BF77C1D901DA4BBE4242032840F
:10055000725E228100C9F124ECA1E53D2700000074
:10056000000000000000000000FFFFFF970592055B
:100570008B0584057605434F4D4D554E49434154F7
:10058000494F4E0044525952554E004552524F5217
:100590005300494E464F004543484F006F6B00459E
:1005A0004550524F4D204F4B0A004F66667365749D
:1005B00073204170706C696564004572723A205412
:1005C0006F6F206661722100546F6F206661722028
:1005D00066726F6D207265666572656E6365207008
:1005E0006F696E740A004D34323120696E636F7228
:1005F0007265637420706172616D657465722075D7
:10060000736167650A006469730043290A006162C7
:100610006C656420286D696E2074656D70200043E0
:100620006F6C64206578747275646573206172659F
:100630002000496E76616C69642065787472756417
:1006400065720A0020643A0020693A0020703A007E
:1006500020466C6F773A20003F4A206F7574206FF8
:10066000662072616E67652028302E303120746FED
:1006700020302E33290A004D31343520533C696E29
:100680006465783E206F7574206F662072616E67B6
:10069000652028302D31290A002F2F2000434841A2
:1006A0004D4245525F54454D504552415455524577
:1006B000004D4F54494F4E5F4D4F444553005448F1
:1006C00045524D414C5F50524F54454354494F4E53
:1006D000004155544F5245504F52545F53445F535D
:1006E00054415455530050524F4D50545F53555040
:1006F000504F525400454D455247454E43595F5067
:10070000415253455200434153455F4C4947485479
:100710005F4252494748544E45535300544F474750
:100720004C455F4C494748545300534F465457413A
:1007300052455F504F574552004255494C445F5017
:10074000455243454E54004C4556454C494E475F33
:1007500044415441005A5F50524F42450041555464
:100760004F4C4556454C005052494E545F4A4F42FB
:100770000050524F4752455353004155544F524534
:10078000504F52545F54454D5000564F4C554D45B7
:10079000545249430042494E4152595F46494C45E3
:1007A0005F5452414E534645520053455249414CC5
:1007B0005F584F4E5F584F4646004649524D57418D
:1007C00052455F4E414D453A4D61726C696E203223
:1007D0002E302E3320284769744875622920534FE4
:1007E000555243455F434F44455F55524C3A6874F8
:1007F0007470733A2F2F6769746875622E636F6D1A
:100800002F4D61726C696E4669726D776172652FEA
:100810004D61726C696E2050524F544F434F4C5F84
:1008200056455253494F4E3A312E30204D414348A0
:10083000494E455F545950453A50727573696E611F
:100840006E74652045585452554445525F434F5588
:100850004E543A3120555549443A636564653261D6
:1008600032662D343161322D343734382D396231CE
:10087000322D6335356336326633363766660A00A5
:1008800050727573696E616E7465204F46462E0016
:100890004D3131332053004D31313220536875745E
:1008A000646F776E006F66660044454255473A00B4
:1008B00045202553000A53746174733A2046696CCD
:1008C000616D656E7420757365643A20002C204C50
:1008D0006F6E67657374206A6F623A2000546F749C
:1008E000616C2074696D653A20002C204661696C4A
:1008F00065643A20002C2046696E69736865643A25
:1009000020005072696E74733A20005374617473DE
:100910003A200050726F7465637465642050696E8C
:100920000A005072696E742074696D653A20004443
:10093000656C6574696F6E206661696C65642C20F6
:1009400046696C653A200046696C652064656C6593
:100950007465643A00286E6F2066696C65290043EF
:10096000757272656E742066696C653A2000534436
:10097000207072696E74696E6720627974652000F8
:100980004E6F74205344207072696E74696E670AEA
:1009900000456E642066696C65206C6973740A009A
:1009A000426567696E2066696C65206C6973740ABC
:1009B000004E6F204D6F76652E00436C69636B208F
:1009C000746F20526573756D652E2E2E004D657304
:1009D0006820706F696E742063616E6E6F74206240
:1009E00065207265736F6C7665640A005A205072D8
:1009F0006F62652050617374204265640A005A205A
:100A000050726F62652050617374204265640048C3
:100A10006F6D652058592066697273740A00486FBB
:100A20006D6520585920466972737400536C656572
:100A3000702E2E2E0047322F4733206261642070C3
:100A40006172616D65746572730A004572726F72CE
:100A50002077726974696E6720746F204545505223
:100A60004F4D210A00627573793A20706175736584
:100A70006420666F7220696E7075740A0062757307
:100A8000793A2070617573656420666F72207573A2
:100A900065720A00627573793A2070726F636573CC
:100AA00073696E670A0053544F505045442E20001E
:100AB0005072696E7465722073746F707065642013
:100AC00064756520746F206572726F72732E204694
:100AD000697820746865206572726F7220616E6437
:100AE00020757365204D39393920746F2072657314
:100AF000746172742E202854656D7065726174750E
:100B000072652069732072657365742E2053657455
:100B100020697420616674657220726573746172F5
:100B200074696E67290A004E6F20436865636B73B2
:100B3000756D2077697468206C696E65206E756DBF
:100B40006265722C204C617374204C696E653A208A
:100B500000636865636B73756D206D69736D617497
:100B600063682C204C617374204C696E653A2000D8
:100B70004C696E65204E756D626572206973206EDA
:100B80006F74204C617374204C696E65204E756DD6
:100B90006265722B312C204C617374204C696E6538
:100BA0003A20004D313130004D313137004D333175
:100BB0000053442072656164206572726F720A008E
:100BC000446F6E65207072696E74696E6720666925
:100BD0006C650A002121204B494C4C2063617573E0
:100BE0006564206279204B494C4C20627574746FA7
:100BF0006E2F70696E0A002121204B494C4C2063F6
:100C0000617573656420627920746F6F206D756300
:100C10006820696E6163746976652074696D65200A
:100C20002D2063757272656E7420636F6D6D616ED9
:100C3000643A2000506C6561736520526573657479
:100C4000005052494E5445522048414C54454400AE
:100C500025533A202553004B494C4C45442E200047
:100C60005072696E7465722068616C7465642E20C0
:100C70006B696C6C28292063616C6C6564210A00C7
:100C80003637260305063C3D380E3B3A2E303E12E1
:100C9000162724221E390408440A074308090700BE
:100CA0000124F4D43050C38E20C2A24017828B702E
:100CB00011127A910D816CD90AA861E108C75866B2
:100CC00007615143061E4B5D05C145A7041A41113A
:100CD00004093D9803713931034036DB02653391D5
:100CE00002D4305402802E1D02632CEE01752AC5F9
:100CF00001B028A001102781018F2564012B244B0E
:100D000001E0223401AC211F018D200D01801FFC68
:100D100000841EED00971DDF00B81CD200E61BC644
:100D200000201BBC00641AB200B219A8000A19A066
:100D3000006A189900D117910040178B00B51684EE
:100D40000031167E00B31579003A157300C7146F91
:100D50000058146A00EE1366008813630025135EC2
:100D600000C7125B006C12570015125400C11151DC
:100D70000070114F0021114B00D61049008D104713
:100D8000004610440002104200C00F4000800F3E99
:100D900000420F3C00060F3B00CB0E3800930E378D
:100DA000005C0E3500270E3400F30D3200C10D310A
:100DB00000900D3000600D2E00320D2D00050D2C21
:100DC00000D90C2B00AE0C2900850C29005C0C27E7
:100DD00000350C27000E0C2600E80B2400C40B2461
:100DE00000A00B23007D0B23005A0B2100390B219F
:100DF00000180B2000F80A1F00D90A1E00BB0A1EAB
:100E0000009D0A1D00800A1D00630A1C00470A1B82
:100E1000002C0A1B00110A1A00F7091A00DD091933
:100E200000C4091900AB091900920917007B0918C1
:100E300000630917004C0916003609160020091630
:100E4000000A091500F5081500E0081400CC081484
:100E500000B8081400A4081400900813007D0812BC
:100E6000006B0813005808120046081200340811DD
:100E700000230811001208110001081100F00710EA
:100E800000E0071000D0071000C0071000B0070FE7
:100E900000A107100091070E0083070F0074070FD1
:100EA0000065070E0057070E0049070E003B070DAF
:100EB000002E070E0020070D0013070D0006070D7A
:100EC00000F9060C00ED060D00E0060C00D4060C3F
:100ED00000C8060C00BC060C00B0060C00A4060BF3
:100EE0000099060C008D060B0082060B0077060B9E
:100EF000006C060B0061060A0057060B004C060A40
:100F00000042060A0038060A002E060A0024060AD5
:100F1000001A060A001006090007060A00FD050966
:100F200000F4050900EB050900E2050900D90509EF
:100F300000D0050900C7050900BE050900B5050870
:100F400000AD050800A50509009C050800940508EA
:100F5000008C050800840508007C0508007405085D
:100F6000006C050700650508005D050700560508CB
:100F7000004E050700470507004005080038050733
:100F800000310507002A050700230507001C050698
:100F900000160507000F05070008050600020507F3
:100FA00000FB040600F5040700EE040600E8040652
:100FB00000E2040700DB040600D5040600CF0406A7
:100FC00000C9040600C3040600BD040600B70406F9
:100FD00000B1040500AC040600A6040600A0040548
:100FE000009B04060095040500900406008A040591
:100FF0000085040500800406007A040500750405D8
:1010000000700405006B040500660405006104051A
:10101000005C04050057040500520405004D04055A
:101020000048040500430405003E0404003A04059A
:101030000035040500300404002C040500270404D6
:1010400000230405001E0404001A0404001604050D
:1010500000110404000D0404000904050004040444
:101060000000040400FC030400F8030400F403047B
:1010700000F0030400EC030400E8030400E40304AC
:1010800000E0030400DC030400D8030400D40304DC
:1010900000D0030400CC030400C8030300C503030D
:1010A0000024F404D9201BC40C5C0E9804C4095F0E
:1010B0000265077101F405F900FB04B300480487D9
:1010C00000C10369005803550003034500BE023AFE
:1010D000008402310053022A002902250004022064
:1010E00000E4011C00C8011900AF011700980114A9
:1010F0000084011300710110006101100051010E04
:101100000043010D0036010B002B010B0020010BE9
:1011100000150109000C01090003010800FB00088B
:1011200000F3000800EB000700E4000600DE000604
:1011300000D8000600D2000600CC000500C700055C
:1011400000C2000500BD000400B9000400B50004A1
:1011500000B1000400AD000400A9000400A50003D4
:1011600000A20003009F0004009B000300980003FE
:10117000009500020093000300900003008D000220
:10118000008B000300880002008600020084000338
:1011900000810002007F0002007D0002007B00024F
:1011A000007900020077000100760002007400025E
:1011B0000072000100710002006F0002006D00016A
:1011C000006C0002006A0001006900020067000173
:1011D0000066000100650001006400020062000179
:1011E0000061000100600001005F0002005D00017D
:1011F000005C0001005B0001005A00010059000181
:101200000058000100570001005600010055000180
:10121000005400010053000000530001005200017F
:101220000051000100500001004F0001004E00007D
:10123000004E0001004D0001004C0001004B000079
:10124000004B0001004A0001004900010048000075
:101250000048000100470001004600000046000170
:10126000004500000045000100440001004300006B
:101270000043000100420000004200010041000064
:101280000041000100400001003F0000003F00015C
:10129000003E0000003E0001003D0000003D000156
:1012A000003C0000003C0000003C0001003B00004E
:1012B000003B0001003A0000003A00010039000044
:1012C000003900010038000000380000003800013B
:1012D0000037000000370001003600000036000033
:1012E0000036000100350000003500000035000127
:1012F000003400000034000000340001003300001E
:101300000033000000330001003200000032000012
:101310000032000100310000003100000031000106
:10132000003000000030000000300001002F0000FD
:10133000002F0000002F0000002F0001002E0000F1
:10134000002E0000002E0001002D0000002D0000E6
:10135000002D0000002D0001002C0000002C0000DA
:10136000002C0000002C0001002B0000002B0000CE
:10137000002B0000002B0001002A0000002A0000C2
:10138000002A0000002A00010029000000290000B6
:1013900000290000002900000029000100280000A9
:1013A000002800000028000000280000002800019C
:1013B0000027000000270000002700000027000091
:1013C0000027000100260000002600000026000083
:1013D0000026000000260001002500000025000076
:1013E0000025000000250000002500000025000168
:1013F000002400000024000000240000002400005D
:10140000002400010023000000230000002300004E
:10141000002300000023000000230000002300013F
:101420000022000000220000002200000022000034
:101430000022000000220001002100000021000025
:101440000021000000210000002100000021000018
:10145000002100010020000000200000002000000A
:1014600000200000002000000020000000200000FC
:1014700000200001001F0000001F0000001F0000EE
:10148000001F0000001F0000001F0000001F0001DF
:10149000001E0000001E0000001E0000001E0000D4
:1014A00000393000003325000087190000B00F001C
:1014B00000DB080000BD040000740200003F0100D2
:1014C00000687474703A2F2F6D61726C696E667764
:1014D0002E6F72670020322E302E33002020506C89
:1014E000616E6E6572427566666572427974657387
:1014F0003A20002046726565204D656D6F72793A1D
:101500002000436F6D70696C65643A204665622007
:10151000323020323032300A00204C617374205552
:101520007064617465643A20323032302D30312D70
:101530003331207C20417574686F723A20287061C5
:10154000656E69616E2C2050727573696E616E7480
:101550006520636F6E666967290A00322E302E336C
:101560000A004D61726C696E0020536F667477617A
:1015700072652052657365740A0020576174636850
:10158000646F672052657365740A002042726F773A
:101590006E206F75742052657365740A002045785B
:1015A0007465726E616C2052657365740A00506FC9
:1015B00077657255700A006175746F25632E670038
:1015C0004732385859006572726F722077726974A9
:1015D000696E6720746F2066696C650A00446F6EDF
:1015E0006520736176696E672066696C652E0A00F6
:1015F0004D323900456E6473746F7073002553204B
:10160000256320256320256320256300205A3A00A6
:1016100020593A00656E6473746F70732068697442
:101620003A20002053697A653A200043616E6E6F5C
:1016300074206F70656E2073756264697220005348
:10164000442063617264206F6B0A006F70656E5294
:101650006F6F74206661696C65640A00766F6C75E3
:101660006D652E696E6974206661696C65640A0037
:10167000534420696E6974206661696C0A004D32BA
:1016800034004D32332025730046696C6520736544
:101690006C65637465640A0046696C65206F7065EB
:1016A0006E65643A2000454E4420535542524F55D2
:1016B00054494E450A002220706F73002220706149
:1016C00072656E743A2200535542524F5554494E3A
:1016D000452043414C4C207461726765743A220086
:1016E000747279696E6720746F2063616C6C20730B
:1016F00075622D67636F64652066696C657320771A
:1017000069746820746F6F206D616E79206C6576E6
:10171000656C732E204D4158206C6576656C206990
:10172000733A310A0057726974696E6720746F20CA
:1017300066696C653A2000667265736800646F695B
:101740006E67004E6F7720002062797465733B20CE
:10175000637263200053657474696E6773205374F9
:101760006F726564202800454550524F4D206461DA
:10177000746173697A65206572726F722E0A002037
:1017800073746F7265642073657474696E67732017
:10179000726574726965766564202800202863612B
:1017A0006C63756C6174656429210A0020213D20F9
:1017B00000454550524F4D20435243206D69736D93
:1017C00061746368202D202873746F72656429200A
:1017D00000496E6465783A2000204D61726C696E34
:1017E0003D563735290A00454550524F4D20766504
:1017F0007273696F6E206D69736D61746368202800
:10180000454550524F4D3D00206D61783A200020F3
:101810006D696E3A20003F5A206F7574206F662004
:1018200072616E67652028003F59206F7574206FC4
:10183000662072616E676520282D0020746F20007D
:101840003F58206F7574206F662072616E67652047
:10185000282D0050726F6265204F66667365742094
:101860005800656E7175657565696E672022005256
:101870006573656E643A20002569792025696420C6
:101880002569682025696D202569730042656420FB
:10189000436F6F6C696E672E2E2E00426564204880
:1018A000656174696E672E2E2E0023646566696E0D
:1018B000652044454641554C545F004B6420004B25
:1018C0006920004B702000504944204175746F74AA
:1018D000756E652066696E69736865642120507550
:1018E0007420746865206C617374204B702C204BDD
:1018F0006920616E64204B6420636F6E7374616E47
:1019000074732066726F6D2062656C6F7720696EEC
:10191000746F20436F6E66696775726174696F6E6C
:101920002E680A00504944204175746F74756E65C5
:10193000206661696C6564212074696D656F7574DA
:101940000A000A20436C6173736963205049442084
:101950000A00204B643A2000204B693A2000204BBB
:10196000703A20002054753A2000204B753A200030
:1019700020643A200020626961733A200050494493
:10198000204175746F74756E652073746172740A8A
:1019900000504944204175746F74756E652066610E
:1019A000696C6564212054656D706572617475722F
:1019B0006520746F6F20686967680A005049442089
:1019C0004175746F74756E65206661696C6564211C
:1019D00020426164206578747275646572206E754A
:1019E0006D6265720A0048656174696E67206661A0
:1019F000696C656400453100626564002C20737970
:101A00007374656D2073746F707065642120486510
:101A1000617465725F49443A200048656174696E7B
:101A200067204661696C656400202D20496E7661EF
:101A30006C6964206578747275646572206E756D6A
:101A400062657220210A004572723A204D41585455
:101A5000454D50004D415854454D502074726967B2
:101A60006765726564004572723A204D494E54456F
:101A70004D50004D494E54454D5020747269676772
:101A800065726564004D383420582059205A20452D
:101A900000202F002042403A0020403A0020573AD0
:101AA000001000C90210012C014001220170011830
:101AB00001B0010E01F00104015002FA00B002F081
:101AC000003003E600D003DC009004D2007005C8AB
:101AD00000A006BE000008B400B009AA00D00BA008
:101AE00000600E960060118C0000158200201978AD
:101AF00000C01D6E00A0226400B0275A00902C5038
:101B00000000314600E0343C0010383200903A28A2
:101B100000603C1E00A03D1400803E0A00203F00F3
:101B20000070012C0190012701B0012201C0011DAC
:101B300001F00118011002130130020E01600209C8
:101B40000190020401C002FF000003FA004003F507
:101B5000008003F000D003EB002004E6007004E1F5
:101B600000E004DC004005D700C005D2004006CDEF
:101B700000D006C8008007C3003008BE00F008B9D6
:101B800000C009B400B00AAF00B00BAA00D00CA589
:101B900000000EA000500F9B00C010960050129144
:101BA0000000148C00C0158700B0178200B0197DAA
:101BB00000D01B7800001E730040206E0090226948
:101BC00000F024640040275F0090295A00E02B5564
:101BD00000102E500020304B0010324600E0334100
:101BE0000090353C001037370070383200A0392D96
:101BF00000B03A2800A03B2300603C1E00103D19B5
:101C000000903D1400103E0F00703E0A00C03E05DB
:101C100000003F0000403FFBFF803FF6FFC03FF168
:101C2000FF0050726F62696E6720506F696E7400BA
:101C300025532025692F25690050726F62696E67F0
:101C4000206D65736820706F696E742000202844D1
:101C5000525952554E2900473239204175746F2030
:101C6000426564204C6576656C696E67003F20288C
:101C70004C2C522C462C4229206F7574206F662004
:101C8000626F756E64732E0A003F28562965726272
:101C90006F7365206C6576656C20696D706C61751D
:101CA0007369626C652028302D34292E0A00426148
:101CB00064205A2076616C75650A004E6F20626957
:101CC0006C696E65617220677269640A00446576AA
:101CD000696174696F6E0025533A2025730053744F
:101CE000616E6461726420446576696174696F6EC7
:101CF0003A20002052616E67653A20004D65616EA2
:101D00003A200046696E6973686564210A00207292
:101D1000616E67653A2000207369676D613A200043
:101D2000206D65616E3A20003A207A3A2000206FDB
:101D3000662000476F696E6720746F3A2058004331
:101D4000570A00206469723A0020616E676C653A38
:101D5000005374617274207261646975733A004D46
:101D6000343820506F696E740025533A2025642F53
:101D7000256400506F736974696F6E696E672074B3
:101D800068652070726F62652E2E2E0A003F4E75B8
:101D90006D626572206F66206C65677320696E20C6
:101DA0006D6F76656D656E74206E6F7420706C61FA
:101DB000757369626C652028302D3135292E0A0033
:101DC0003F2028582C5929206F7574206F66206297
:101DD0006F756E64732E0A003F53616D706C6520E1
:101DE00073697A65206E6F7420706C6175736962B7
:101DF0006C652028342D3530292E0A004D343820CA
:101E00005A2D50726F62652052657065617461620F
:101E1000696C69747920546573740A004C6F61644D
:101E2000206D6D00556E6C6F6164206D6D004669AC
:101E30006C2E204469612E004520696E206D6DC2B4
:101E4000B30020022046616374002002204D6178B7
:101E5000002002204D696E004175746F74656D70CD
:101E6000005654726176204D696E00566D696E00A1
:101E7000566D6178204500566D6178205A00566D88
:101E80006178205900566D617820580020746F6F7A
:101E9000206C6F6E6720657874727573696F6E2041
:101EA00070726576656E7465640A0020636F6C6499
:101EB00020657874727573696F6E207072657665CF
:101EC0006E7465640A00554E4C4F41442046494C9F
:101ED000414D454E540046494C414D454E542043DA
:101EE00048414E474500436F6E666967757261747D
:101EF000696F6E004D37303220542564004D363006
:101F00003020423020542564004D373032203B25AC
:101F100064004D37303120542564004D3730320095
:101F20004D373031004D36303020423000436F6E37
:101F300074696E7565005075726765206D6F7265A6
:101F400000524553554D45204F5054494F4E533A3A
:101F5000005052494E5420504155534544002020D2
:101F60004E6F7A7A6C653A200053746F70004D3270
:101F700031004368616E6765204D65646961005298
:101F80006573756D65205072696E74004E6F204DDB
:101F9000656469610054756E650053746F702050FC
:101FA00072696E7400496E666F2053637265656E68
:101FB000005061726B696E672E2E2E000000576113
:101FC000697420666F720066696C616D656E74205D
:101FD0006368616E676500746F207374617274006A
:101FE0005761697420666F720066696C616D656E19
:101FF0007420756E6C6F616400004E6F7A7A6C6548
:102000002068656174696E6700506C656173652056
:10201000776169742E2E2E000050726573732062F2
:102020007574746F6E00746F2068656174206E6FD4
:102030007A7A6C650000496E736572742066696C0B
:10204000616D656E7400616E6420707265737320DB
:10205000627574746F6E00746F20636F6E74696E56
:102060007565005761697420666F720066696C61FE
:102070006D656E74206C6F616400005072657373DF
:1020800020427574746F6E00746F20726573756D85
:1020900065207072696E7400005761697420666F04
:1020A00072207072696E7400746F20726573756D42
:1020B000652E2E2E00005761697420666F720066CF
:1020C000696C616D656E742070757267650000459E
:1020D00073746570732F6D6D005A73746570732F10
:1020E0006D6D005973746570732F6D6D0058737446
:1020F0006570732F6D6D00416476616E6365642059
:1021000053657474696E677300496E6974004D3469
:10211000323800496E697469616C697A6520454599
:1021200050524F4D0053746570732F6D6D00507297
:102130006F6265204F666673657473004A65726BE3
:1021400000416363656C65726174696F6E0056650A
:102150006C6F636974790053657420486F6D6520F6
:102160004F66667365747300526573746F72652091
:102170006661696C73616665004C6F6164205365CC
:102180007474696E67730053746F7265205365745D
:1021900074696E67730050726568656174204142AE
:1021A0005320436F6E6600507265686561742050FD
:1021B0004C4120436F6E66007C3C3E5E2B3D3F2FC2
:1021C0005B5D3B2C2A225C00FFFDFCFAF8F6F4F282
:1021D000F0EEECEAE9E7E5E3E1E0DEDCDAD9D7D5D9
:1021E000D4D2D0CFCDCBCAC8C7C5C3C2C0BFBDBC77
:1021F000BAB9B7B6B4B3B2B0AFADACAAA9A8A6A5E8
:10220000A4A2A1A09E9D9C9A999897959493929030
:102210008F8E8D8B8A8988878684838281807F7E5A
:102220007D7B7A797877767574737271706F6E6D65
:102230006C6B6A696867666564636261605F5E5D56
:102240005C5B5A5958585756555453525150504F39
:102250004E4D4C4B4A4A4948474646454443424204
:1022600041403F3E3E3D3C3B3B3A393838373635BE
:1022700035343332323130302F2E2E2D2C2B2B2A69
:102280002929282727262525242323222121202008
:102290001F1E1E1D1C1C1B1B1A1919181817161699
:1022A000151514131312121111100F0F0E0E0D0D20
:1022B0000C0C0B0A0A09090808070706060505049D
:1022C00004030302020100004F6666004F6E0054D3
:1022D000656D7065726174757265004D38340044C7
:1022E000697361626C652053746570706572730008
:1022F0004732380A4D343820503130004D343820C0
:1023000050726F6265205465737400466164652085
:10231000486569676874004732380A473239004CAB
:102320006576656C204265640047323800417574FB
:102330006F20486F6D65005072656865617420504C
:102340004C4120426564005072656865617420509C
:102350004C4120456E64005072656865617420418F
:102360004253204265640050726568656174204183
:10237000425320456E6400436F6F6C646F776E004C
:102380000000484300004843000048430000484222
:10239000000048420000A0400202040000A04000EB
:1023A00000A040000000400000000100000001000B
:1023B000008000555555000000400033333300AA1B
:1023C000AA2A004992240000002000C7711C00992D
:1023D000991900D1451700555515003BB11300243C
:1023E00049120011111100000010000F0F0F00E33F
:1023F000380E0043790D00CCCC0C00C3300C00E843
:10240000A20B0064210B00AAAA0A00703D0A009DDD
:10241000D80900427B090092240900DCD308008817
:102420008808001042080000000800F0C10700877B
:1024300087070075500700711C07003EEB0600A1DE
:10244000BC06006990060066660600703E060061E4
:1024500018060017F4050074D105005BB00500B242
:10246000900500627205005555050078390500B8E1
:102470001E0500050505004EEC040087D40400A1EC
:10248000BD040090A7040049920400C17D0400EE41
:10249000690400C7560400444404005C3204000888
:1024A00021040041100400000004003FF00300F884
:1024B000E0030026D20300C3C30300CCB503003AF7
:1024C000A803000A9B0300388E0300C08103009F0D
:1024D000750300D0690300505E03001D53030034F0
:1024E000480300913D0300333303001629030038ED
:1024F0001F030097150300300C0300030303000BB8
:10250000FA020049F10200BAE802005CE002002D84
:10251000D802002DD0020059C80200B0C00200311C
:10252000B90200DAB10200AAAA0200A0A30200BC0C
:102530009C0200FA9502005C8F0200DF8802008294
:10254000820200457C0200277602002770020043C9
:102550006A02007C640200D05E02003F590200C89B
:1025600053020020436F756E7420583A0020453A9C
:1025700000486F6D696E67204661696C656400573D
:1025800061726E696E673A20486F6D696E672042AE
:10259000756D702044697669736F72203C20310A32
:1025A000006563686F3A004572726F723A00426963
:1025B0006C696E656172204C6576656C696E67202A
:1025C000477269643A0A004F46460A0046616465EC
:1025D000204865696768742000426564204C657610
:1025E000656C696E6720004661696C656420746F74
:1025F00020656E61626C6520426564204C6576657D
:102600006C696E670A00496E76616C6964206D655D
:1026100073682E0A00A10000006900A20000006398
:1026200000B00000000900C10000004100C200002D
:10263000004100C30000004100C40000004100C58B
:102640000000004100C60000004145C700000043F3
:1026500000C80000004500C90000004500CD000092
:10266000004900D10000004E00D50000004F00D608
:102670000000004F00D70000007800DC000000558B
:1026800000DD0000005900E00000006100E10000F2
:10269000006100E20000006100E30000006100E46E
:1026A0000000006100E50000006100E6000000613C
:1026B00065E70000006300E80000006500E9000035
:1026C000006500EA0000006500EB0000006500EC1A
:1026D0000000006900ED0000006900EE00000069E4
:1026E00000EF0000006900F10000006E00F2000041
:1026F000006F00F30000006F00F40000006F00F5B1
:102700000000006F00F60000006F00F80000006F8E
:1027100000F90000007500FA0000007500FB0000E1
:10272000007500FC0000007500FD0000007900FF4E
:102730000000007900040100004100050100006173
:10274000000601000043000701000063000C0100C7
:102750000043000D01000063000E01000044000F63
:10276000010000640011010000640019010000650F
:10277000001F010000670030010000490031010026
:10278000006900410100004C00420100006C004360
:102790000100004E00440100006E00480100006E80
:1027A000005901000072005A01000053005B010053
:1027B0000073005F010000730060010000530061BE
:1027C00001000073006501000074006F01000075D6
:1027D000007C0100007A007D0100005A007E0100AB
:1027E000007A00920100006600E3020000780022F7
:1027F0002000002E001E21000050782221000054ED
:102800004D902100003C2D922100002D3EB0210072
:10281000000300BB21000004003C2200007E0048B1
:102820002200007E3D60220000213D612200003D2B
:1028300000642200003C3D652200003E3DF1230083
:10284000000700A03000003D0021F301000200C29B
:10285000F401000500A2000000EC00B0000000DF61
:1028600000E4000000E100F6000000EF00F70000C7
:1028700000FD00FC000000F500E3020000EB008713
:10288000030000A5008F030000F40098030000F28D
:10289000009E030000E300A3030000F600A903006C
:1028A00000F400AC030000E000AD030000E300B161
:1028B000030000E000B2030000E200B5030000E303
:1028C00000B8030000F200BC030000E400BE0300F7
:1028D00000E300C0030000F700C1030000E600C3EE
:1028E000030000E500902100007F00922100007E9F
:1028F000001A220000E8001E220000F300882500D4
:1029000000FF0002300000A1000C300000A2000D0A
:10291000300000A3009B300000DE009C300000DF90
:1029200000A03000003D00A1300000A700A2300050
:1029300000B100A3300000A800A4300000B200A540
:10294000300000A900A6300000B300A7300000AAA4
:1029500000A8300000B400A9300000AB00AA30008D
:1029600000B500AB300000B600AC300000B6DEAD04
:10297000300000B700AE300000B7DEAF300000B866
:1029800000B0300000B8DEB1300000B900B2300055
:1029900000B9DEB3300000BA00B4300000BADEB5D2
:1029A000300000BB00B6300000BBDEB7300000BC1A
:1029B00000B8300000BCDEB9300000BD00BA300005
:1029C00000BDDEBB300000BE00BC300000BEDEBD7E
:1029D000300000BF00BE300000BFDEBF300000C0CE
:1029E00000C0300000C0DEC1300000C100C23000B5
:1029F00000C1DEC3300000AF00C4300000C200C51B
:102A0000300000C2DEC6300000C300C7300000C383
:102A1000DEC8300000C400C9300000C4DECA300087
:102A200000C500CB300000C600CC300000C700CD90
:102A3000300000C800CE300000C900CF300000CA0E
:102A400000D0300000CADED1300000CADFD2300032
:102A500000CB00D3300000CBDED4300000CBDFD57C
:102A6000300000CC00D6300000CCDED7300000CCE7
:102A7000DFD8300000CD00D9300000CDDEDA3000E4
:102A800000CDDFDB300000CE00DC300000CEDEDD2C
:102A9000300000CEDFDE300000CF00DF300000D09D
:102AA00000E0300000D100E1300000D200E2300050
:102AB00000D300E3300000AC00E4300000D400E5B7
:102AC000300000AD00E6300000D500E7300000AE79
:102AD00000E8300000D600E9300000D700EA3000FE
:102AE00000D800EB300000D900EC300000DA00ED37
:102AF000300000DB00EF300000DC00F2300000A608
:102B000000F3300000DD00F4300000B3DEF73000E9
:102B100000DCDEFA300000A6DEFB300000A500FC81
:102B2000300000B000FD300000A400074E0000FBA4
:102B30000086510000FC0043530000FA0064FF00CF
:102B400000A40065FF0000A50066FF0000A6006766
:102B5000FF0000A70068FF0000A80069FF0000A9AF
:102B6000006AFF0000AA006BFF0000AB006CFF00D2
:102B700000AC006DFF0000AD006EFF0000AE006F06
:102B8000FF0000AF0070FF0000B00071FF0000B157
:102B90000072FF0000B20073FF0000B30074FF007A
:102BA00000B40075FF0000B50076FF0000B60077A6
:102BB000FF0000B70078FF0000B80079FF0000B9FF
:102BC000007AFF0000BA007BFF0000BB007CFF0022
:102BD00000BC007DFF0000BD007EFF0000BE007F46
:102BE000FF0000BF0080FF0000C00081FF0000C1A7
:102BF0000082FF0000C20083FF0000C30084FF00CA
:102C000000C40085FF0000C50086FF0000C60087E5
:102C1000FF0000C70088FF0000C80089FF0000C94E
:102C2000008AFF0000CA008BFF0000CB008CFF0071
:102C300000CC008DFF0000CD008EFF0000CE008F85
:102C4000FF0000CF0090FF0000D00091FF0000D1F6
:102C50000092FF0000D20093FF0000D30094FF0019
:102C600000D40095FF0000D50096FF0000D6009725
:102C7000FF0000D70098FF0000D80099FF0000D99E
:102C8000009AFF0000DA009BFF0000DB009CFF00C1
:102C900000DC009DFF0000DD009EFF0000DE009FC5
:102CA000FF0000DF00E5FF00005C00001C1F1111A9
:102CB0001F00000006191803130C00040E1F041C4B
:102CC000000000000E1315110E00001C101817054F
:102CD000060500040A0A0A0A11110E0C12120C0051
:102CE000000000001F1511151F000000000000016A
:102CF0000204040000001C1C0C0404040201000077
:102D000000000004081000000000007C4D61726C9F
:102D1000696E7C002D2D2D2D2D2D005072696E7445
:102D20002066726F6D204D65646961004D6F766538
:102D30002025736D6D004D6F766520302E316D6DE1
:102D4000004D6F766520316D6D004D6F76652031D9
:102D5000306D6D004D6F7665204178697300486F66
:102D600074656E6420746F6F20636F6C64004578C7
:102D7000747275646572004D6F7665205A004D6FF0
:102D800076652059004D6F76652058004368616E66
:102D900067652046696C616D656E7400556E6C6F79
:102DA00061642046696C616D656E74004C6F61648E
:102DB0002046696C616D656E74005072656865616E
:102DC0007420414253005072656865617420504C14
:102DD00041005072656865617420437573746F6D4E
:102DE000004261636B0000002000230026002900E0
:102DF0002C002F0032000001000003010601090130
:102E000005050505070508080808020202020A0A66
:102E10000808040404040101010101010101030384
:102E2000030303030303040707070C0C0C0C0C0C2F
:102E30000C0C0202020206060606060606060B0B2C
:102E40000B0B0B0B0B0B010210202008081020406D
:102E5000102040800201020108040201010204085E
:102E600010204080804020100804020180040201EC
:102E70008040201008040201080402010102040835
:102E800010204080010204081020408000000A0B3E
:102E900002090C0D0E0807030401000000000000E9
:102EA0000000000000000000000000000000000022
:102EB00000000000000000001211100000000000DF
:102EC0000000000000000000000000000000000002
:102ED000000050726F6265205A204F6666736574F9
:102EE0000046616E205370656564004E6F7A7A6C9F
:102EF00065004D61696E00466C6F77002568753A14
:102F000025303268750025303268753A25303268D0
:102F1000750053440020202020202020005072699A
:102F20006E7420506175736564005061757365201F
:102F30005072696E74004D656469612052656D6FF1
:102F4000766564004D6564696120496E73657274CD
:102F500065640050727573696E616E7465205265A8
:102F60006164792E005072696E74696E672E2E2E20
:102F7000005072696E742041626F72746564004D16
:102F8000323500416363656C65726174696F6E3AD6
:102F9000205000204D393220580020204D61783AD1
:102FA000200020204D696E3A2000536F6674206522
:102FB0006E6473746F70733A20005761726E696E3D
:102FC00067203A20436C65616E20436972636C65CB
:102FD0002072657175697265732058590A00486FCF
:102FE00074656E6420746F6F20636F6C640A004DAB
:102FF0003630303A20546F6F20436F6C640050724B
:1030000065737320627574746F6E20746F206865C9
:103010006174206E6F7A7A6C650A0020496E766161
:103020006C69642065787472756465722000436110
:10303000703A0050726F6265204F66667365742047
:103040005A0050726F6265204F66667365745A3A13
:103050002000416D6178204500416D6178205A0063
:10306000416D6178205900416D6178205800412DF3
:1030700054726176656C00412D526574726163749F
:1030800000416363656C004A756E6374696F6E20FE
:103090004465760050726F62652059204F666673F2
:1030A00065740050726F62652058204F66667365C4
:1030B00074003F0043616E63656C004D6F74696F0F
:1030C0006E005374617274205072696E74004361B3
:1030D0006E6E6F7420656E746572207375626469BC
:1030E000723A2000052E2E00205400205200486124
:1030F0007264636F6465642044656661756C7420F6
:1031000053657474696E6773204C6F616465640AFB
:103110000020204D363033200020550046696C6178
:103120006D656E74206C6F61642F756E6C6F616479
:10313000206C656E677468733A0A0020204D38353C
:10314000312058005A2D50726F6265204F666673A9
:1031500065740020204D3330312050005049442008
:1031600073657474696E67733A0A002046002048DC
:103170000020204D3134352053004D617465726953
:10318000616C2068656174757020706172616D6535
:10319000746572733A0A002020473239205720495B
:1031A0000020204D3432302053004175746F20428E
:1031B0006564204C6576656C696E673A0A0020206C
:1031C0004D323036205800486F6D65206F6666734B
:1031D00065743A0A00204A0020204D3230352042E2
:1031E00000204A3C6A756E635F6465763E00416408
:1031F00076616E6365643A20423C6D696E5F73650B
:10320000676D656E745F74696D655F75733E20539D
:103210003C6D696E5F66656564726174653E2054DD
:103220003C6D696E5F74726176656C5F666565643E
:10323000726174653E0020204D32303420500041D0
:103240006363656C65726174696F6E2028756E6961
:1032500074732F7332293A20503C7072696E745F18
:10326000616363656C3E20523C7265747261637485
:103270005F616363656C3E20543C74726176656C7B
:103280005F616363656C3E0A0020204D323031205F
:1032900058004D6178696D756D20416363656C659B
:1032A000726174696F6E2028756E6974732F733242
:1032B000293A0A0020204D3230332058004D6178E1
:1032C000696D756D2066656564726174657320282B
:1032D000756E6974732F73293A0A0053746570739D
:1032E0002070657220756E69743A0A0020204D3294
:1032F00030302044300A0020204D3230302044004D
:103300002044697361626C65640A0046696C616D92
:10331000656E742073657474696E67733A0020205B
:103320004D3134392043203B20556E697473206938
:103330006E2043656C736975730A0020286D6D29D2
:10334000002020473231202020203B20556E697418
:103350007320696E206D6D006F70656E0054524968
:10336000474745524544007A5F6D696E00795F6D4D
:10337000696E00785F6D696E005265706F72746976
:103380006E6720656E6473746F70207374617475FA
:10339000730A0000009643000096430000A040001E
:1033A00000C8410000A0420000A04200007A450091
:1033B000001B43E8030000E803000032000000E8BF
:1033C0000300006F70656E206661696C65642C2077
:1033D00046696C653A2000544845524D414C205294
:1033E000554E4157415900546865726D616C2052C9
:1033F000756E6177617900205A3A200020593A2091
:103400000042656420583A200050726F62696E670E
:10341000204661696C65640A0050726F62696E676C
:10342000204661696C656400486F6D6520257325D1
:1034300073257320466972737400496E73657274E4
:103440002066696C616D656E7420616E64207072B7
:1034500065737320627574746F6E0A00220A0055DA
:103460006E6B6E6F776E20636F6D6D616E643A2068
:10347000220000002100240027002A002D00300037
:10348000330001010000040107010A0100002200CD
:10349000250028002B002E0031003400020100001E
:1034A000050108010B014D6963726F7374657073D8
:1034B00020756E617661696C61626C650A004531E8
:1034C0003A200045303A20004D53317C4D53327C38
:1034D0004D53332050696E730A00A401D0011124AA
:1034E0001FBECFEFD1E2DEBFCDBF00E00CBF13E0C7
:1034F000A0E0B2E0EEEBFDE402E00BBF02C00790FB
:103500000D92A03AB107D9F724E1A0EAB3E001C0D7
:103510001D92A83DB207E1F71AE1CEE6DAE100E03C
:1035200006C021970109802FFE010F942E23CD366E
:10353000D10780E00807A9F70F94EF0C0D94CD2672
:103540000C9400002F923F924F925F926F927F9265
:103550008F929F92AF92BF92CF92DF92EF92FF92A3
:103560000F931F93CF93DF93CDB7DEB7C055D1092B
:103570000FB6F894DEBF0FBECDBF209196142196F2
:103580002FAF219781E0809396148091E5048D34CC
:1035900009F4DEC3843511F40C942A2B873411F01E
:1035A0000C94452B2090E3043090E4043BE1231677
:1035B000310409F421C1ECF454E02516310444F43B
:1035C00082E0281631040CF046C037FE38C0BCC378
:1035D0009CE02916310409F40BC1A5E12A16310437
:1035E00011F40C94472BB4E02B16310409F0ACC352
:1035F000C0C0EAE22E16310409F47FC26CF42DE15A
:103600002216310409F422C10CF410C14EE1241633
:10361000310409F42FC198C35BE52516310409F480
:10362000E9C18CE52816310409F4E9C19AE52916A7
:10363000310409F089C31092E2040C94472B809165
:103640000B02882311F40C94472B0E94D4EA0E94A9
:103650002FB30C94472B80910B02882311F40C9408
:10366000472B0E94D4EA82E50E94BBBB882309F461
:103670004EC00E943BBB6B017C0120E030E0A90101
:103680000F94411C882311F40C94232C20919A143C
:1036900030919B1440919C1450919D1428A339A300
:1036A0004AA35BA380919E1490919F14A091A014B3
:1036B000B091A1148CA39DA3AEA3BFA38090D2040C
:1036C0009090D304A090D404B090D5044090D60438
:1036D0005090D7046090D8047090D904A50194014B
:1036E00068A179A18AA19BA10F94411C81110C941E
:1036F000682BA30192016CA17DA18EA19FA10F94C3
:10370000411C882311F40C94232C0C94682B89E41D
:103710000E94BBBB882329F00E943BBB6B017C014C
:1037200003C0C12CD12C76018AE40E94BBBB882344
:1037300011F40C942A2C0E943BBB68A779A78AA796
:103740009BA720E030E0A901C701B6010F94411CFE
:1037500081110C94372C20E030E0A90168A579A5EF
:103760008AA59BA50F94411C81110C94372C0C94B5
:10377000232C80E50E94BBBB882329F00E94C4E96A
:103780006B017C0103C0C12CD12C760183E50E9422
:10379000BBBB882361F00E943BBB20E030E04AE7DE
:1037A00054E40F94A71C0F94AA246B017C010E947F
:1037B00057A780917D04811105C060E08CE29AE0FA
:1037C0000E94A1E00F94440BC60ED71EE81EF91EFE
:1037D0000F94440BDC01CB018C199D09AE09BF0984
:1037E000B7FD02C00C94472B80E00E941435F0CF47
:1037F0000E94ADE40C94472B0F94D30681110C94D6
:10380000472B8CE0E7E6F2E0DE01119601900D9285
:103810008A95E1F760E070E080E50E949AE4BE01DD
:103820006F5F7F4F0E9474DF0C94472B809193143D
:103830008770873011F00C94C82F60E08FE40E94ED
:10384000E3BB81110C94472B0C94C82F0F94D30623
:1038500081110C94472B80917C04882311F40C94E3
:103860000D3160E08FE40E94E3BB81110C94472B83
:103870000C940D3120918714309188144091891453
:1038800050918A1460919A1470919B1480919C14A9
:1038900090919D140F943723AB01BC0188E50E94E1
:1038A000755769837A838B839C8320918B14309125
:1038B0008C1440918D1450918E1460919E147091CF
:1038C0009F148091A0149091A1140F943723AB0101
:1038D000BC0189E50E9475576D837E838F8398872D
:1038E000BE016B5F7F4FCE0101960E94CEB9882347
:1038F00011F40C94472B80E00E948EBE0E9423B6E8
:1039000061E085E40E94E3BB21E0482FBE016B5FCC
:103910007F4FCE0101960F9446076B017C019B01FE
:10392000AC010F94292681115FC089809A80AB80F9
:10393000BC8020E030E0A901C501B4010F94411C16
:1039400087FF05C027E137EB41E558EB04C027E1CD
:1039500037EB41E558E3C501B4010F943723AB01C0
:10396000BC0181E094E30E94B5C28D809E80AF804F
:10397000B88420E030E0A901C501B4010F94411CD6
:1039800087FF05C027E137EB41E558EB04C027E18D
:1039900037EB41E558E3C501B4010F943723AB0180
:1039A000BC018CEF93E30E94B5C220E030E0A90196
:1039B000C701B6010F94411C87FF05C067E177EB93
:1039C00081E598EB04C067E177EB81E598E3A70117
:1039D00096010F943723AB01BC0187EF93E30E945C
:1039E000B5C28AE00E94E8330E940AB60E9419B963
:1039F0000C94472B8FE08093E2040C94472B73E7E1
:103A0000272E72E0372EEEE6EE2EE4E0FE2EAAE937
:103A1000B4E1B9A3A8A3FBE7CF2EF4E1DF2E00E0C9
:103A200010E0F10181911F010E94BBBB882309F4C2
:103A30004AC00E943BBB2B013C01133049F0D60128
:103A40002D913D914D915C910F9436232B013C01BA
:103A5000E8A1F9A12081318142815381C301B201E2
:103A60000F9436234B015C012DEB37E346E855EB11
:103A70000F94972587FD0AC02DEB37E346E855E301
:103A8000C501B4010F94411C1816ECF4133051F425
:103A90004092A6145092A7146092A8147092A91490
:103AA00001E011C0A5019401D7016D917D918D9127
:103AB0009C910F943723F7016083718382839383F2
:103AC000812F0E946EB21F5FF4E0EF0EF11C28A15F
:103AD00039A12C5F3F4F39A328A334E0C30ED11C7A
:103AE000143009F09ECF002321F086EA94E10E9471
:103AF00068A70E9419B90C94472B80910B02882368
:103B000011F40C94472B89E40E94BBBBE82E882358
:103B100021F00E9437BB082F01C000E08AE40E9418
:103B2000BBBBF82E882321F00E9437BB182F01C0A1
:103B300010E0EE2011F0033020F4FF2041F01330AC
:103B400030F08DEC99E00E94FDC10C94472B80E190
:103B5000EAE9F4E1A2EDB4E001900D928A95E1F773
:103B6000EE2019F1602F000F770B880B990B0F9443
:103B7000481C20915E0430915F0440916004509194
:103B800061040F94A71C2091660430916704409152
:103B90006804509169040F9437236093D2047093A2
:103BA000D3048093D4049093D504FF2019F1612F9E
:103BB000110F770B880B990B0F94481C209162040E
:103BC0003091630440916404509165040F94A71CE4
:103BD00020916A0430916B0440916C0450916D0403
:103BE0000F9437236093D6047093D7048093D8043E
:103BF0009093D90460E080E50E94E3BB8823C1F183
:103C0000EE20D1F0209187143091881440918914CE
:103C100050918A146091D2047091D3048091D4049D
:103C20009091D5040F9436236093D2047093D304FB
:103C30008093D4049093D504FF20D1F020918B146D
:103C400030918C1440918D1450918E146091D60453
:103C50007091D7048091D8049091D9040F943623A1
:103C60006093D6047093D7048093D8049093D904BA
:103C700040E050E0BA0186E40E9475576B017C0178
:103C800020E030E0A9010F94972518165CF420E09D
:103C900030E040E752E4C701B6010F9431246B01D4
:103CA0007C0103C0C12CD12C760180905F029090E2
:103CB0006002A0906102B090620220E030E0A901B1
:103CC000C701B6010F94411C882341F0C0925F02E6
:103CD000D0926002E0926102F092620200910902C9
:103CE00010910A0284E690E090930A028093090200
:103CF000C0901D02D0901E02E0901F02F0902002A2
:103D000080E090E0A0E8BFE380931D0290931E0244
:103D1000A0931F02B09320020E942FB380925F02F3
:103D200090926002A0926102B092620210930A0225
:103D300000930902C0921D02D0921E02E0921F025F
:103D4000F09220020C94472B0F9431050C94472BD2
:103D50000091E3041091E4040637110509F4C8C783
:103D60000CF0DEC00C34110509F453C40CF070C023
:103D70000A31110509F4D8C2BCF50431110509F462
:103D800080C28CF40131110509F467C234F40230A9
:103D9000110508F4E6C10C94272B0231110509F432
:103DA0004FC60C94272B0731110509F48FC294F4E8
:103DB0000531110509F486C20631110511F00C9484
:103DC000272B0E94FA4580912914877F809329141C
:103DD0000C94472B0831110509F48DC209311105E6
:103DE00009F495C20C94272B0F31110509F4C5C3B2
:103DF00084F40C31110509F40DC30CF4A3C20D3188
:103E0000110509F40FC30E31110509F412C30C9406
:103E1000272B0A32110509F4D0C36CF400321105C6
:103E200009F468C30132110511F00C94272B0E948C
:103E3000515E0C94472B0033110509F4E6C30B3493
:103E4000110511F00C94272B0E94BAA40C94472B57
:103E50000A36110509F4ECC4ACF50335110509F473
:103E6000E8C5BCF40E34110509F4DBC30CF4D5C36A
:103E70000135110509F4C9C50235110511F00C947D
:103E8000272B8091E2048F7D80618093E2040C9463
:103E9000472B0C35110509F423C654F404351105DC
:103EA00009F4CEC50535110509F4F7C50C94272B87
:103EB0000836110509F446C40936110509F4A8C4E9
:103EC0000C94272B0F36110509F4E9C484F40C3641
:103ED000110509F429C50CF4C8C40D36110509F4FF
:103EE0004CC40E36110509F4C9C40C94272B0237B3
:103EF000110509F47FC654F40037110509F419C5FA
:103F00000137110509F420C50C94272B033711053F
:103F100009F475C60537110509F4DAC60C94272B88
:103F20000F3241E0140711F40C9474290CF072C0A4
:103F30000C3C110511F40C94B1278CF501391105D5
:103F400009F422C784F40837110509F40EC70CF4EC
:103F500009C70937110509F410C70C38110509F410
:103F600015C50C94272B083C110509F468C76CF49F
:103F70000B39110509F423C50E3B110511F00C9402
:103F8000272B0E94A35B0C94472B093C110509F4D5
:103F9000A3C70B3C110509F4C2C70C94272B0D3D98
:103FA000110511F40C94F9279CF40E3C110511F441
:103FB0000C94C7270CF4D8C7033D110511F40C94D9
:103FC000E9270C3D110511F40C94EC270C94272BD8
:103FD0000C3281E0180711F40C949B2874F4023E13
:103FE000110511F40C944F280232114011F00C9479
:103FF000272B0E94EDE90C94472B0D32B1E01B07F3
:1040000011F40C94B0280E32114011F40C943029A4
:104010000C94272B053FF1E01F0711F40C94432A61
:104020000CF04BC0023931E0130711F40C947A29DB
:1040300004F50F3551E0150711F40C94162B3CF4E0
:104040000E35114011F40C94E12A0C94272B003901
:10405000A1E01A0711F40C9477290139114011F0ED
:104060000C94272B81E00E9416A40E9419B90C948D
:10407000472B053AE1E01E0711F40C94802974F4F3
:104080000A3921E0120709F45CC4043A114011F026
:104090000C94272B0E94EEC20C94472B0C3A41E063
:1040A000140711F40C94E529043F114011F00C940D
:1040B000272B0E947E4C0C94472B0B3582E018076F
:1040C00011F40C94622A5CF5083FA1E01A0711F480
:1040D0000C94492AACF4063FE1E01E0711F40C945D
:1040E000462A073F114011F00C94272B61E083E52D
:1040F0000E94E3BB91E089270E944CFD0C94472B62
:104100000C3022E0120711F40C945A2A08351240A0
:1041100011F00C94272B0E9404EE0C94472B0335CE
:1041200043E0140711F40C94DE2A7CF40D3B82E08A
:10413000180711F40C94DB2A0E3B124011F00C947A
:10414000272B0E94E3EB0C94472B003AA3E01A07BD
:1041500009F405C2073E134011F40C94192B0C947A
:10416000272BA0905C04B0905D0480E50E94BBBB4F
:10417000882359F00E94C4E96B017C0111E0672B90
:10418000682B692B31F410E004C010E0C12CD12C55
:10419000760183E50E94BBBB882311F40C94103197
:1041A0000E943BBB20E030E04AE754E40F94A71C98
:1041B0000F94AA246B017C0111110BC0672B682B93
:1041C000692B39F4A114B10421F0F501808181112A
:1041D00002C010E001C011E00E9457A7112329F08E
:1041E00061E0C5010E941BE105C060E08AEB99E037
:1041F0000E94A1E01091961483E08093961481E0D0
:1042000080939514C114D104E104F104B1F00F942A
:10421000440BC60ED71EE81EF91E0F94440BDC019A
:10422000CB018C199D09AE09BF09B7FF0EC0809163
:10423000951481110C94153108C080919514882330
:1042400021F080E00E941435F8CF0E9440E11092E6
:104250009514109396140C94472B8091580484FF66
:1042600002C00C941A3180915A0487FF02C00C944A
:104270001A3180915B04837011F00C941A310C9404
:10428000363180EA99E00E94FDC183E992E10E9403
:10429000939C8BE1E3E9F2E1DE01119601900D922E
:1042A0008A95E1F760E070E0CE0101960E94C14777
:1042B000CE0101960E94989C81E999E00E94FDC17F
:1042C0000C94472B0E946B460C94472BE0915C04A6
:1042D000F0915D048081882329F0803209F41082F6
:1042E0003196F8CF60E080915C0490915D040E946B
:1042F0006C490C94472B0E943333882321F00E9491
:104300000B460E94BAA40E9440E10C94472B809176
:10431000291482FF03C08B7F809329140E94605769
:104320000E9440E10C94472B8091291483FD02C028
:104330000C94472B83E50E94BBBB81110C94443144
:104340000C94472B83E40E9472BB8823C1F18FE554
:1043500099E00E94FDC180913D12882339F1BE0190
:104360006F5F7F4F8AE392E10E945A9B8E010F5F3D
:104370001F4FD8018D918D01882319F00E94E833D9
:10438000F8CFCE0101960E94F04880911604882350
:1043900089F080E20E94E83306E114E0F80181919F
:1043A0008F01882339F00E94E833F8CF85E599E042
:1043B0000E94FDC18AE00E94E8330C94472B809153
:1043C000291482FF21C08EE699E00E94FDC1609110
:1043D00025147091261480912714909128144AE096
:1043E0000E94EF338FE20E94E833609121147091B4
:1043F000221480912314909124144AE00E94EF33F8
:104400000E94ED340C94472B80E899E00E94FDC196
:104410000C94472B80915C0490915D040E941E498E
:104420000C94472B809129148E7F809329140C942F
:10443000472B8091291483FD02C00C94472B0F94C5
:104440001A058091291483FD02C00C94472B4091DA
:104450005C0450915D04BE01645E7F4F80E00F9468
:10446000EE028C01009711F40C94472B6C8D7D8D1E
:1044700019821C8222E0AC01CE0101960E9447A164
:10448000811102C0F12C14C0CE0101960F945C0280
:104490008823C1F361E0CE0101960E94029B009740
:1044A00089F325EEDC012C931C820E948B4AF82EA6
:1044B000CE0101960E94989CB801FF2089F087E404
:1044C00099E00E94D3C28AE00E94E833109225143A
:1044D0001092261410922714109228140C94472B33
:1044E0008FE299E00E94D3C289EF9DE10E94FDC155
:1044F0000C94472B8091291482FD0E9457A780912C
:10450000291483FD02C00C94472B60E080E50E94D3
:10451000E3BB182F682F80915C0490915D040E948A
:104520006C4983E50E94BBBB882381F00E9403BBDA
:10453000AB01BC01409325145093261460932714BB
:10454000709328148AE392E10E94189A0E940B4605
:1045500011110C94472B0E94BAA40C94472B209164
:104560005C0430915D049091291492609093291419
:10457000C9010E941E490C94472B0E9411576C8F51
:104580007D8F8E8F9F8FBE016F5F7F4FCE014C96C8
:104590000E94725D60E0CE0101960E941BE10E94C4
:1045A000EAC2BE016F5F7F4F82E299E00E94D3C2F0
:1045B0008AE00E94E8330C94472B83E50E94BBBB42
:1045C000882311F40C94472B0E9413BBF82E6DE046
:1045D00070E080E50E94C8BB8C0197FF02C00C947C
:1045E000472B893021F4F09212120C94472B60E093
:1045F00089E40E94E3BB81110C945531802F0F9404
:10460000CA0C811169C50C9455310E94A06C0C94A0
:10461000472B0E9460570C94472B0E9416A50C94C0
:10462000472B60E070E083E50E94C8BB8E349105A3
:1046300031F40E9487A50E9440E10C94472B8BE047
:1046400099E00E94FDC1609106047091070482E028
:1046500099E00E94A8C2609108047091090485EF56
:1046600098E00E94A8C260910604709107048091AE
:10467000080490910904681B790B8091050481500E
:1046800021E030E0823010F020E030E0621B730B5C
:104690008AEE98E00E94A8C28AE00E94E8338BE08C
:1046A00099E00E94FDC180910A0490910B04A091B1
:1046B0000C04B0910D048C8F9D8FAE8FBF8FBE0107
:1046C0006F5F7F4FCE014C960E94725DBE016F5F9F
:1046D0007F4F8DED98E00E94D3C280910E0490919F
:1046E0000F04A0911004B09111048C8F9D8FAE8F98
:1046F000BF8FBE016F5F7F4FCE014C960E94725DEF
:10470000BE016F5F7F4F8DEC98E00E94D3C220E026
:1047100030E04AE754E460911204709113048091F0
:104720001404909115040F943124AB01BC0185EB66
:1047300098E00E94B5C28DE60E94E8338AE00E94AC
:10474000E833A5C78091810E83FDA1C70E94BAEB13
:1047500087FD9DC783E50E94BBBB882359F00E945B
:104760003BBB0F94A324CB010E9438A261E080E000
:104770000E9457650F94A8138AC78091810E83FD0C
:1047800086C70E94BAEBF82E87FD81C783E50E9499
:10479000BBBB082F811106C082E50E94BBBB182F4E
:1047A000882361F10E943BBB0F94A324CB010E949C
:1047B00038A261E081E00E94576560912B127091F0
:1047C0002C12072E000C880B990B0F94481C4B01E0
:1047D0005C0140902712509028126090291270902E
:1047E0002A12A30192010F949725181614F40C9421
:1047F0007D31002311F40C94633111E00F94A81360
:10480000112309F444C7602F8F2D0E94A4633FC772
:104810000E94BAEB182F87FD3CC78CE995E00E94F7
:10482000FDC1812F0E942D638AE00E94E83331C7C9
:1048300060E080E50E94D7BB811129C781E40E9416
:1048400072BB882321F06091121270E002C06FEFFA
:1048500070E083E50E949AE48F3F910519F010F013
:104860008FEF90E08093121212C760E080E50E9403
:10487000D7BB81110CC71092121209C78EE40E9497
:10488000BBBB882309F403C70E9403BB60930104E8
:10489000709302048093030490930404F8C683E5A4
:1048A0000E9472BB882331F060E083E50E94D7BB91
:1048B0008093810E0E94EAC289EA98E00E94FDC1BD
:1048C0008091810E882369F16CE6E62E65E0F62E74
:1048D00000E010E020E08091810E90E0A0E0B0E0E8
:1048E000002E04C0B695A795979587950A94D2F7A0
:1048F00080FF0EC0DD24D394D20E222319F08CE267
:104900000E94E833F701859194910E94FDC12D2DFD
:104910000F5F1F4FE2E0EE0EF11C05301105D9F6D6
:1049200049CD85EA98E044CD109295141092070283
:10493000AEC641E060E070E087E998E00E94843212
:10494000A6C60E94F332A3C683E50E94BBBB8823A0
:1049500071F00E9413BB282F30E02D3331051CF479
:104960008093060294C68CE38093060290C60E9450
:10497000EAC24091060250E060E070E080E998E011
:104980000E9497C28AE00E94E83381C68091810E1E
:1049900083FD7DC683E50E94BBBB882309F477C6EF
:1049A0000E943BBB0F94A3246C3871050CF48B015F
:1049B0001093FF030093FE030E94C46268C683E560
:1049C0000E94BBBB882309F462C60E9413BB182F48
:1049D00090E0CD970CF01CE31093F5030F94440B7B
:1049E0006B017C01212F30E0A8EEB3E00F94EB22A5
:1049F000C60ED71EE81EF91EC092F103D092F20334
:104A0000E092F303F092F40342C60E946F650E94A5
:104A100016A50E94D3A80E94303368EE73E080E0B0
:104A200090E00E94D9C160E080E898E00E94A1E097
:104A30002EC68091E2048F7E80628093E20427C6B6
:104A400083E50E94BBBB882399F00E943BBB20E01A
:104A500030E04AE754E40F94A71C0F94AA24609313
:104A600002027093030280930402909305020FC622
:104A70008091580484FF02C00C94803180915A04C4
:104A800087FF02C00C94803180915B04837011F029
:104A90000C9480310E94D3A8FAC583E50E9472BBB2
:104AA000882309F4F4C50F94440B6093CE047093EB
:104AB000CF048093D0049093D1040E943BBB20E0AC
:104AC00030E04AE754E40F94A71C0F94AA246093A3
:104AD000ED037093EE038093EF039093F003D7C53B
:104AE0000E94BAEB87FDD3C59091580494FD04C091
:104AF00090915A0497FF0AC043E7C42E42E0D42E97
:104B000052E8E52E5EE0F52E10E009C090915B04BE
:104B1000937091F7682F81E00E9413E9B8C5D60120
:104B20008D916D010E94BBBB882309F459C01330DD
:104B300009F04FC00E943BBB4B015C0120E030E01C
:104B400040EA51E40F94411C87FF3AC0A50194014B
:104B50006091A20E7091A30E8091A40E9091A50E6B
:104B60000F9431242B013C019B01AC016091B20EEA
:104B70007091B30E8091B40E9091B50E0F94A71C56
:104B80006093B20E7093B30E8093B40E9093B50EF3
:104B90006091B2087091B3088091B4089091B50803
:104BA0000F94461CA30192010F94A71C0F94AA24F2
:104BB0006093B2087093B3088093B4089093B508DB
:104BC0008092A20E9092A30EA092A40EB092A50E77
:104BD00007C00E943BBBF701648B758B868B978B5C
:104BE0001F5FF4E0EF0EF11C143009F098CF0E9423
:104BF00033A74DC50E9457A70E9419B948C58AEB33
:104C000097E00E94FDC160E08AEA97E00E94A0EA76
:104C100060E085E997E00E94A0EA61E08EE191E220
:104C20000E94A0EA61E08AE897E00E94A0EA61E0C1
:104C30008AE797E00E94A0EA60E081E797E00E949F
:104C4000A0EA61E087E697E00E94A0EA61E08DE5D6
:104C500097E00E94A0EA61E085E597E00E94A0EA63
:104C600061E087E497E00E94A0EA60E089E397E0D2
:104C70000E94A0EA60E08AE297E00E94A0EA60E079
:104C80008CE197E00E94A0EA60E086E097E00E9455
:104C9000A0EA60E085EF96E00E94A0EA60E086EE80
:104CA00096E00E94A0EA60E081ED96E00E94A0EA12
:104CB00061E08EEB96E00E94A0EA60E081EB96E076
:104CC0000E94A0EA60E08DE996E00E94A0EADFC4BD
:104CD00080915C0490915D04009709F414CBDC0191
:104CE0002C91222309F40FCB60E00E941BE1CFC47A
:104CF00000915C0410915D0494E0F12C40E091502F
:104D000021F1F8018081282F2B7F213421F421818A
:104D10002133D9F407C08035C1F4818180538A30B2
:104D200048F013C0813421F0853421F441E002C001
:104D3000FF24F39498012E5F3F4F89012F5F3F4F6F
:104D4000F80180818032C9F3DACF41110E94EAC2B2
:104D5000FF2021F089E996E00E94FDC1C8010E9470
:104D6000F33495C40E94D6FB92C481E080937A0408
:104D700080937B040E94F4FB8AC410927A04109200
:104D80007B040E94F4FB83C460E070E083E50E9432
:104D9000C8BB8C011127023011053CF00E94E6C20D
:104DA00087E796E00E94FDC172C488E40E94BBBB05
:104DB0008823A9F00E9437BB8A3A91053CF08530E0
:104DC000F1E09F072CF084E091E002C08AEA90E0D5
:104DD000F801EE0FFF1FE751FC4F9183808386E4BB
:104DE0000E94BBBB882381F00E9437BB97FD07C0A0
:104DF0008F3F910529F024F08FEF90E001C080E013
:104E0000F801E951FC4F808382E40E94BBBB8823F8
:104E100009F43DC40E9437BB8530910534F08D38CC
:104E200091052CF08CE890E002C085E090E0000F46
:104E3000111FF801ED51FC4F9183808328C40E941B
:104E4000BAEB182F87FD23C484E40E9472BB882329
:104E500009F43FC00E943BBB6B017C0101E020E0F4
:104E600030E0A9010F94411C811101C000E00093C2
:104E7000E20320E030E0A901C701B6010F94411C14
:104E8000882339F10E943BBB24E01202F001112477
:104E9000E252FC4F608371838283938320E030E091
:104EA000A9016091DE037091DF038091E00390918E
:104EB000E1030F94411C81110CC080E090E0A0EE52
:104EC000BFE38093DE039093DF03A093E003B093EE
:104ED000E1030E9448A2DBC30E94BAEB87FDD7C35F
:104EE000B3E7EB2EB2E0FB2E02E81EE0D7018D9176
:104EF0007D010E9472BB882359F00E943BBB0F9436
:104F0000AA24F80160837183828393830E94ECA6B4
:104F10000C5F1F4FFEE002391F0741F7B8C30E9424
:104F2000BAEB87FDB4C3F3E7EF2EF2E0FF2E02E801
:104F30001EE0A2E9CA2EAEE0DA2ED7018D917D01E6
:104F40000E9472BB882339F00E943BBBF80164A326
:104F500075A386A397A30C5F1F4FC016D10669F7F0
:104F600096C30E944EE993C38091580481FF02C00A
:104F70000C94AC318091590481FF02C00C94AC3187
:104F800080915A048C7011F00C94AC3180C373E79B
:104F9000C72E72E0D72EE2EDEE2EE3E0FE2E10E0FB
:104FA000D6018D916D010E9472BB882351F00E9441
:104FB0003BBBF7016083718382839383812F0E94BF
:104FC0006EB21F5FF4E0EF0EF11C133049F70C9442
:104FD000791D0E9424E85BC383E50E94BBBB882344
:104FE00009F455C30E9437BB90930A0280930902CB
:104FF0004EC30E94BAEBF82E87FD49C383E50E9499
:10500000BBBB0F2D0F2C000C110B882369F10E94E4
:1050100037BBF801EE0FFF1FE050FE4F91838083F6
:10502000000F111F000F111F9801235E3D4F7901E2
:10503000BC01990F880B990B0F94481C2AE037ED9F
:1050400043E25CE30F94A71CF801E253FC4F20817C
:105050003181428153810F94A71CD7016D937D93B9
:105060008D939C93139713C30E94EAC285E40E9418
:10507000E83380E38F0D0E94E833000F111FF80121
:10508000E050FE4F6081718180E596E00E94C6C2CB
:1050900085E20E94E8338AE00E94E833F8C280E5A6
:1050A0000E9472BB882309F4F2C260E070E080E5E0
:1050B0000E94C8BBF82E6FEF7FEF83E50E94C8BB4C
:1050C0008C010196039708F0E2C2F7FCE0C28F2D35
:1050D0000F94CA0C882339F00E94E6C283E199E05C
:1050E0000E94FDC1D4C20E9457A760E08F2D0F948B
:1050F000050A0F3FBFEF1B0731F00130110571F0BA
:1051000000E010E00DC08F2D0F94041631E020E078
:10511000892B09F030E0032F122F02C001E010E0CC
:105120008F2D0F9404168017910709F4B0C280E008
:105130000E941435F5CF64E071E083E50E949AE4A3
:105140008C0168EE73E080E50E949AE48938E3E11F
:105150009E0710F088E893E1B8010E9474E097C2BE
:1051600060E085E40E94D7BB811173C080E50E9496
:1051700072BB882351F00E943BBB60932E12709348
:105180002F12809330129093311289E40E9472BBE7
:10519000882381F00E943BBB2CEA35EC47E25EE3BA
:1051A0000F94A71C609332127093331280933412C1
:1051B0009093351284E40E9472BB882381F00E9490
:1051C0003BBB2CEA35EC47E25EE30F94312460935D
:1051D00036127093371280933812909339120E94CE
:1051E000EAC240912E1250912F12609130127091AC
:1051F00031128CE496E00E94B5C22CEA35EC47E20D
:105200005EE360913212709133128091341290916A
:1052100035120F943124AB01BC0188E496E00E9462
:10522000B5C22CEA35EC47E25EE36091361270912C
:10523000371280913812909139120F94A71CAB014C
:10524000BC0184E496E00E94B5C28AE00E94E83383
:105250001EC20E94E6C282E396E00E94FDC117C210
:1052600083E50E9472BB182F882371F00E943BBB1C
:105270000F94A324709322026093210221E0672BF4
:1052800009F020E02093CE0880E50E9472BB8823BD
:1052900059F02091210230912202232B11F00E941B
:1052A00027BB8093CE08F3C11111F1C10E94EAC25D
:1052B0008FE196E00E94FDC18091CE08882319F00D
:1052C0008EEA9FE102C086E096E00E94FDC16091F7
:1052D0002102709122028EE096E00E94C6C28AE00E
:1052E00096E00E94FDC1D3C10E948C57D0C10E949C
:1052F00057A7CDC180E00E9416A40E9419B9C7C16A
:105300006FEF7FEF89E40E94C8BB182F6FEF7FEF2C
:105310008AE40E94C8BB082F8AE50E9472BBF82E5F
:10532000811105C081E50E9472BBD82E01C0D12C2D
:1053300017FD06C007FD04C0F11009C0D11007C059
:105340000E94E6C286EE95E00E94FDC1A0C1133026
:1053500010F4033038F00E94E6C28DEC99E00E9410
:10536000FDC195C1E12E110FFF08002E000C110B9D
:105370000E943BBBD701AA0FBB1FDD2081F0FD01BE
:10538000EE0DFF1DE00FF11FEE0FFF1FEE0FFF1FD1
:10539000E655FC4F208131814281538103C020E0DA
:1053A00030E0A901EA0EFB1E0E0D1F1D000F111F9C
:1053B000000F111F06551C4F0F943723D8016D9312
:1053C0007D938D939C93139762C10F94D3068111A3
:1053D0005EC10DE515E0EAE9F4E1F9A3E8A39E0159
:1053E0002F5F3F4F190149E6C42E45E0D42E7901C5
:1053F000F8016591759185919491A8A1B9A18D90BD
:105400009D90AD90BD90B9A3A8A3A50194010F9460
:1054100036232B013C01F7016083718382839383E0
:1054200020E030E040EA51EC0F94972587FD0AC058
:1054300020E030E040EA51E4C301B2010F94411C86
:1054400018162CF4F601849118160CF4DEC7D70157
:105450008D909D90AD90BD907D0120E030E040EAC0
:1054600051ECC501B4010F94972587FDD9C720E001
:1054700030E040EA51E4C501B4010F94411C181614
:105480000CF0E2C7CDC70E943EFD01C10E9403FCA3
:10549000FEC081E08093A9030E9417511092A903D6
:1054A000882309F4F4C00E94EAC28FE995E00E94C3
:1054B000FDC1EDC08091291482FFE9C08064809312
:1054C0002914E5C00E94BAEB082F87FDE0C085E5EE
:1054D0000E9472BB8823B1F1E02E002E000CFF0861
:1054E0000E943BBB4B015C0120E030E0A9010F941E
:1054F000972587FF04C0B7FAB094B7F8B094C701F6
:1055000023E0880F991F2A95E1F79C012F553C4F06
:105510007901D9018D929D92AD92BC92139720E0B2
:1055200030E048E453E4C501B4010F949725181600
:105530004CF480E090E0A8E4B3E4F7018083918329
:10554000A283B3838CE40E9472BB882309F49FC0BA
:10555000002E000C110B0E943BBB6B017C0120E074
:1055600030E0A9010F94972587FF04C0F7FAF09463
:10557000F7F8F09420E030E048E453E4C701B601C6
:105580000F949725980193E0220F331F9A95E1F726
:10559000F901EF55FC4F18162CF0C482D582E68233
:1055A000F78275C080E090E0A8E4B3E4848395833B
:1055B000A683B7836CC00E94C5EC69C00E941860C6
:1055C00066C083E50E9472BB811106C083E7E82EA6
:1055D00082E0F82E10E00EC010E00E9413BB682F8E
:1055E000812F0F946C0C1F5F1530B9F7EFCF1F5F41
:1055F000143071F0D7018D917D010E9472BB882318
:10560000B1F30E9413BB682F812F0F946C0CEFCF66
:1056100082E40E9472BB882331F00E9413BB682F82
:1056200084E00F946C0C0F949A0B31C00E94B4E785
:105630002EC081E080930B021092A00360E083E50E
:105640000E94E3BB811123C00E94315F20C00F94F0
:1056500031051DC00091E3041091E4040023B9F06A
:105660000E94EAC284E50E94E833B8017727072E3A
:10567000000C880B990B0E945C3480E20E94E83396
:1056800082E396E00E94FDC102C00F9431050E94A2
:10569000215F2196BFAD2197B0939614C05BDF4F79
:1056A0000FB6F894DEBF0FBECDBFDF91CF911F9133
:1056B0000F91FF90EF90DF90CF90BF90AF909F90B1
:1056C0008F907F906F905F904F903F902F900895B4
:1056D00011E0E2E02E16310409F010E020E030E0A5
:1056E000A901C701B6010F94411C881F8827881F94
:1056F0001813A4C020E030E040E85FE328A739A7F2
:105700004AA75BA728A139A14AA15BA1C501B401A1
:105710000F94362320E030E040E05FE30F94A71CB5
:1057200068A379A38AA39BA32CA13DA14EA15FA14D
:10573000C301B2010F94362320E030E040E05FE384
:105740000F94A71C6CA37DA38EA39FA328A139A1AE
:105750004AA15BA1CA01B9010F94A71C4B015C01CE
:105760002CA13DA14EA15FA1CA01B9010F94A71CB4
:105770009B01AC01C501B4010F9437230F94E525BB
:105780004B015C019B01AC01C701B6010F943623AC
:105790002B013C01A5019401C701B6010F943723E9
:1057A0009B01AC01C301B2010F94A71C6B017C01EA
:1057B00020E030E0A9010F94972587FD07C0C701BD
:1057C000B6010F94E5252B013C0103C0412C512C5F
:1057D00032016CA17DA18EA19FA19058A5019401D9
:1057E0000F94312428A539A54AA55BA50F94A71CC1
:1057F000A30192010F94A71C28A139A14AA15BA182
:105800000F9437236B017C01A501940168A179A154
:105810008AA19BA10F94312428A539A54AA55BA58F
:105820000F94A71CA30192010F94A71C2CA13DA1CA
:105830004EA15FA10F9437230C949D1B20E030E014
:1058400040E85FEB5BCF0E94E6C285E39AE00E94EE
:10585000FDC11DCF20E030E0A901C701B6010F94C2
:10586000411C882381F318A619A61AA61BA6D701E6
:10587000C601B05888A399A3AAA3BBA328A539A59C
:105880004AA55BA550582CA33DA34EA35FA39C0142
:10589000AD01BC01CD010F94A71C4B015C012CA1F3
:1058A0003DA14EA15FA1CA01B9010F94A71C9B01A4
:1058B000AC01C501B4010F9437230F94E5256CAFFB
:1058C0007DAF8EAF9FAF80919A1490919B14A09161
:1058D0009C14B0919D148CA79DA7AEA7BFA7A7014C
:1058E0009601BC01CD010F94372325966CAF7DAF97
:1058F0008EAF9FAF259720919E1430919F144091B9
:10590000A0145091A11428AB39AB4AAB5BAB28A5CE
:1059100039A54AA55BA568A979A98AA99BA90F946D
:10592000372329966CAF7DAF8EAF9FAF29978091BB
:10593000D2049091D304A091D404B091D5048CAB3F
:105940009DABAEABBFAB25962CAD3DAD4EAD5FADC7
:105950002597BC01CD010F9436236B017C0120916A
:10596000D6043091D7044091D8045091D90428AF7F
:1059700039AF4AAF5BAF29962CAD3DAD4EAD5FADB3
:10598000299768AD79AD8AAD9BAD0F9436234B0155
:105990005C01A701960168A179A18AA19BA10F943E
:1059A000A71C2B013C01A50194016CA17DA18EA136
:1059B0009FA10F94A71C9B01AC01C301B2010F94DE
:1059C00037232B013C01A501940168A179A18AA18B
:1059D0009BA10F94A71C4B015C01A70196016CA130
:1059E0007DA18EA19FA10F94A71C9B01AC01C501B5
:1059F000B4010F943623A30192010F94B6236B01D7
:105A00007C0120E030E0A9010F94411C87FF0AC00F
:105A10002BED3FE049EC50E4C701B6010F9437236A
:105A20006B017C012BED3FE049EC50E4C701B6016E
:105A30000F94312420E030E040EC51E40F94A71C97
:105A40000F9415240F94AA248B01672B11F401E005
:105A500010E032E02316310451F42BED3FE049EC25
:105A600050E4C701B6010F9436236B017C0120E09E
:105A700030E0A901C701B6010F94411C811122C079
:105A80002CA93DA94EA95FA96CA57DA58EA59FA5B2
:105A90000F94411C811116C028AD39AD4AAD5BADE4
:105AA00068A979A98AA99BA90F94411C81110AC0F0
:105AB00008E110E08BEDC82E8FE0D82E89ECE82E9F
:105AC00080E4F82E8091A2149091A314A091A414C4
:105AD000B091A51488AB99ABAAABBBAB9C01AD014F
