:100000000C94611A0C94921A0C94921A0C94921AF1
:100010000C94921A0C94921A0C94921A0C94921AB0
:100020000C94921A0C94921A0C94921A0C94921AA0
:100030000C94921A0C94921A0C94921A0C94921A90
:100040000C94921A0C94FBF60C94921A0C94921A3B
:100050000C94921A0C94921A0C9434E70C94387500
:100060000C94921A0C94573D0C94921A0C94921A78
:100070000C94921A0C94921A0C94921A0C94921A50
:100080000C94921A0C94921A0C94921A0C94921A40
:100090000C94921A0C94921A0C94921A0C94921A30
:1000A0000C94921A0C94921A0C94921A0C94921A20
:1000B0000C94921A0C94921A0C94921A0C94921A10
:1000C0000C94921A0C94921A0C94921A0C94921A00
:1000D0000C94921A0C94921A0C94921A0C94921AF0
:1000E0000C94921A315F115F345F145F175F235FC6
:1000F0001A5F2F5F1D5F205FE400D800DE00020161
:100100000601D600F4000401EA00E200FE000C0142
:10011000EE00D400D600DC00EC00C6000001CA00EE
:100120000A01CE00E600F800E800D200FA00F00074
:10013000C800D000F6000801F800CC00FC00E00088
:10014000084AD73B3BCE016E84BCBFFDC12F3D6C3E
:1001500074319ABD56833DDA3D00C77F11BED9E4A4
:10016000BB4C3E916BAAAABE000000803F05A84C84
:10017000CDB2D44EB93836A9020C50B99186880850
:100180003CA6AAAA2ABE000000803F000D940304EA
:100190000D9426070D94DF060D9453070D94EE067B
:1001A0000D9430070D940A070D94F5030D9408047F
:1001B0000D94D1030D9472200D94FB030D94C00394
:1001C0000D9467070D94E3030D94CE030D94F80688
:1001D0000D9402070D94DF030D94FF030D94F103BA
:1001E0000D941C070D94441F0D94D5030D943F07E7
:1001F0000D9471070D9412070D945D070D94E7039C
:100200000D94DA060D94C4030D94D9030D94CA031A
:100210000D9449070D94E4060D94ED034E414E49AB
:100220004E495459494E46CDCCCC3D0AD7233C17B4
:10023000B7D13877CC2B329595E6241FB14F0A0001
:100240000020410000C84200401C4620BCBE4CCAF1
:100250001B0E5AAEC59D74434F4D4D554E494341FB
:1002600054494F4E0044525952554E004552524F38
:10027000525300494E464F004543484F0047322FE6
:1002800047332062616420706172616D65746572CC
:10029000730A00536C6565702E2E2E00486F6D65D5
:1002A0002058592066697273740A00486F6D652082
:1002B000585920666972737400205A3A20002059F8
:1002C0003A200042656420583A20004D657368204A
:1002D000706F696E742063616E6E6F74206265204A
:1002E0007265736F6C7665640A00436C69636B209A
:1002F000746F20726573756D652E2E2E004E6F2003
:100300006D6F76652E00456E642066696C65206CA5
:100310006973740A00426567696E2066696C6520BE
:100320006C6973740A004D31323500286E6F206697
:10033000696C6529005344207072696E74696E6738
:10034000206279746520004E6F74205344207072CF
:10035000696E74696E670A0043757272656E742007
:1003600066696C653A20005072696E742074696D1C
:10037000653A2000780273026C02650257026F66CC
:10038000660044454255473A004B494C4C45442E83
:1003900020004D3131332053006F6B004E4C204212
:1003A000473132204F66662E002C20002C2000544E
:1003B0004845524D414C5F50524F54454354494F6C
:1003C0004E004155544F5245504F52545F53445F75
:1003D00053544154555300454D455247454E43599A
:1003E0005F50415253455200434153455F4C49478A
:1003F00048545F4252494748544E45535300544F66
:1004000047474C455F4C494748545300534F465467
:10041000574152455F504F574552004255494C4451
:100420005F50455243454E54004C4556454C494E4D
:10043000475F44415441005A5F50524F424500418A
:1004400055544F4C4556454C005052494E545F4A06
:100450004F420050524F4752455353004155544F5D
:100460005245504F52545F54454D5000564F4C55D5
:100470004D455452494300454550524F4D00534558
:100480005249414C5F584F4E5F584F4646004649CF
:10049000524D574152455F4E414D453A4D61726C48
:1004A000696E20312E312E392028476974687562B3
:1004B0002920534F555243455F434F44455F5552A2
:1004C0004C3A68747470733A2F2F67697468756258
:1004D0002E636F6D2F4D61726C696E4669726D7718
:1004E0006172652F4D61726C696E2050524F544F8E
:1004F000434F4C5F56455253494F4E3A312E3020B0
:100500004D414348494E455F545950453A4E4C2061
:10051000424731322045585452554445525F434F6B
:10052000554E543A3120555549443A636564653215
:100530006132662D343161322D343734382D3962D1
:1005400031322D6335356336326633363766660AA7
:10055000002F2F20004D31343520533C696E6465E7
:10056000783E206F7574206F662072616E6765201B
:1005700028302D31290A00205400205200416363A5
:10058000656C65726174696F6E3A20500020466C2C
:100590006F773A2000000125311D40FFFFFF29241D
:1005A000301C45FFFFFF27232F1B0AFFFFFFFF43E0
:1005B000FFFF040806FFFF222B1AFFFF4204380347
:1005C000063650726F6265205A204F6666736574F6
:1005D0003A200043290A0061626C656420286D6935
:1005E0006E2074656D702000436F6C6420657874B4
:1005F00072756465732061726520004E6F206361BF
:100600007365206C696768740A00454550524F4D08
:10061000204F4B0A003F5A206F7574206F6620727E
:10062000616E676520282D323020746F20323029AA
:100630000A003A200050726F6265205A204F6666A9
:1006400073657400416374697665204578747275CA
:100650006465723A2000496E76616C696420657841
:100660007472756465720A002569730025696D20CE
:10067000256973002569682025696D202569730047
:10068000256964202569682025696D202569730026
:1006900025697920256964202569682025696D20F0
:1006A000256973004B494C4C45442E200053544F50
:1006B000505045442E20005072696E74657220734C
:1006C000746F707065642064756520746F20657246
:1006D000726F72732E204669782074686520657287
:1006E000726F7220616E6420757365204D393939DF
:1006F00020746F20726573746172742E20285465A3
:100700006D706572617475726520697320726573AE
:1007100065742E2053657420697420616674657257
:100720002072657374617274696E67290A004E6F76
:1007300020436865636B73756D2077697468206CFE
:10074000696E65206E756D6265722C204C617374E4
:10075000204C696E653A20004E6F20436865636BDC
:1007600073756D2077697468206C696E65206E758D
:100770006D6265722C204C617374204C696E653A11
:100780002000636865636B73756D206D69736D61BF
:100790007463682C204C617374204C696E653A2038
:1007A000004C696E65204E756D626572206973201C
:1007B0006E6F74204C617374204C696E65204E75A9
:1007C0006D6265722B312C204C617374204C696E04
:1007D000653A20004D313130004D33310053442013
:1007E00072656164206572726F720A00446F6E6593
:1007F000207072696E74696E672066696C650A00A4
:1008000020496E76616C69642065787472756465E0
:1008100072200000000000000070C1000000000015
:10082000009643000096430000BE4342696C696E27
:10083000656172204C6576656C696E6720477269E8
:10084000643A0A0024F4D43050C38E20C2A2401768
:10085000828B7011127A910D816CD90AA861E1081E
:10086000C7586607615143061E4B5D05C145A70485
:100870001A411104093D9803713931034036DB02F6
:1008800065339102D4305402802E1D02632CEE0198
:10089000752AC501B028A001102781018F256401A8
:1008A0002B244B01E0223401AC211F018D200D01CE
:1008B000801FFC00841EED00971DDF00B81CD200D5
:1008C000E61BC600201BBC00641AB200B219A800C7
:1008D0000A19A0006A189900D117910040178B00DF
:1008E000B516840031167E00B31579003A157300F1
:1008F000C7146F0058146A00EE1366008813630073
:1009000025135E00C7125B006C12570015125400CD
:10091000C111510070114F0021114B00D610490038
:100920008D1047004610440002104200C00F4000E6
:10093000800F3E00420F3C00060F3B00CB0E3800FC
:10094000930E37005C0E3500270E3400F30D320095
:10095000C10D3100900D3000600D2E00320D2D00C4
:10096000050D2C00D90C2B00AE0C2900850C29009C
:100970005C0C2700350C27000E0C2600E80B240029
:10098000C40B2400A00B23007D0B23005A0B210075
:10099000390B2100180B2000F80A1F00D90A1E008D
:1009A000BB0A1E009D0A1D00800A1D00630A1C0070
:1009B000470A1B002C0A1B00110A1A00F7091A002B
:1009C000DD091900C4091900AB09190092091700C3
:1009D0007B091800630917004C0916003609160038
:1009E000200916000A091500F5081500E008140092
:1009F000CC081400B8081400A408140090081300D0
:100A00007D0812006B0813005808120046081200F7
:100A10003408110023081100120811000108110008
:100A2000F0071000E0071000D0071000C00710000A
:100A3000B0070F00A107100091070E0083070F00F9
:100A400074070F0065070E0057070E0049070E00D8
:100A50003B070D002E070E0020070D0013070D00A9
:100A600006070D00F9060C00ED060D00E0060C006F
:100A7000D4060C00C8060C00BC060C00B0060C0026
:100A8000A4060B0099060C008D060B0082060B00D5
:100A900077060B006C060B0061060A0057060B0078
:100AA0004C060A0042060A0038060A002E060A0012
:100AB00024060A001A060A001006090007060A00A2
:100AC000FD050900F4050900EB050900E205090030
:100AD000D9050900D0050900C7050900BE050900B0
:100AE000B5050800AD050800A50509009C0508002E
:100AF000940508008C050800840508007C050800A2
:100B0000740508006C050700650508005D05070011
:100B1000560508004E050700470507004005080078
:100B200038050700310507002A05070023050700DF
:100B30001C050600160507000F050700080506003E
:100B400002050700FB040600F5040700EE0406009A
:100B5000E8040600E2040700DB040600D5040600F2
:100B6000CF040600C9040600C3040600BD04060045
:100B7000B7040600B1040500AC040600A604060094
:100B8000A00405009B0406009504050090040600DF
:100B90008A04050085040500800406007A04050027
:100BA00075040500700405006B040500660405006B
:100BB000610405005C0405005704050052040500AB
:100BC0004D04050048040500430405003E040400EC
:100BD0003A04050035040500300404002C04050027
:100BE00027040400230405001E0404001A04040062
:100BF00016040500110404000D0404000904050096
:100C00000404040000040400FC030400F8030400CE
:100C1000F4030400F0030400EC030400E803040000
:100C2000E4030400E0030400DC030400D803040030
:100C3000D4030400D0030400CC030400C803030061
:100C4000C503030024F404D9201BC40C5C0E9804D3
:100C5000C4095F0265077101F405F900FB04B300E4
:100C600048048700C1036900580355000303450089
:100C7000BE023A008402310053022A0029022500F4
:100C800004022000E4011C00C8011900AF01170094
:100C9000980114008401130071011000610110001B
:100CA00051010E0043010D0036010B002B010B001A
:100CB00020010B00150109000C01090003010800C7
:100CC000FB000800F3000800EB000700E40006004A
:100CD000DE000600D8000600D2000600CC000500A9
:100CE000C7000500C2000500BD000400B9000400F3
:100CF000B5000400B1000400AD000400A900040028
:100D0000A5000300A20003009F0004009B00030055
:100D10009800030095000200930003009000030078
:100D20008D0002008B000300880002008600020094
:100D300084000300810002007F0002007D000200A9
:100D40007B000200790002007700010076000200BB
:100D50007400020072000100710002006F000200C6
:100D60006D0001006C0002006A00010069000200D1
:100D700067000100660001006500010064000200D8
:100D80006200010061000100600001005F000200DC
:100D90005D0001005C0001005B0001005A000100E1
:100DA00059000100580001005700010056000100E1
:100DB00055000100540001005300000053000100E1
:100DC0005200010051000100500001004F000100DD
:100DD0004E0000004E0001004D0001004C000100DB
:100DE0004B0000004B0001004A00010049000100D7
:100DF00048000000480001004700010046000000D4
:100E000046000100450000004500010044000100CB
:100E100043000000430001004200000042000100C6
:100E20004100000041000100400001003F000000BF
:100E30003F0001003E0000003E0001003D000000B8
:100E40003D0001003C0000003C0000003C000100AF
:100E50003B0000003B0001003A0000003A000100A6
:100E6000390000003900010038000000380000009F
:100E70003800010037000000370001003600000094
:100E8000360000003600010035000000350000008B
:100E9000350001003400000034000000340001007F
:100EA0003300000033000000330001003200000076
:100EB000320000003200010031000000310000006B
:100EC000310001003000000030000000300001005F
:100ED0002F0000002F0000002F0000002F00010055
:100EE0002E0000002E0000002E0001002D0000004A
:100EF0002D0000002D0000002D0001002C0000003E
:100F00002C0000002C0000002C0001002B00000031
:100F10002B0000002B0000002B0001002A00000025
:100F20002A0000002A0000002A0001002900000019
:100F3000290000002900000029000000290001000C
:100F40002800000028000000280000002800000001
:100F500028000100270000002700000027000000F3
:100F600027000000270001002600000026000000E6
:100F700026000000260000002600010025000000D9
:100F800025000000250000002500000025000000CD
:100F900025000100240000002400000024000000BF
:100FA00024000000240001002300000023000000B2
:100FB00023000000230000002300000023000000A5
:100FC0002300010022000000220000002200000097
:100FD0002200000022000000220001002100000089
:100FE000210000002100000021000000210000007D
:100FF000210000002100010020000000200000006E
:101000002000000020000000200000002000000060
:1010100020000000200001001F0000001F00000051
:101020001F0000001F0000001F0000001F00000044
:101030001F0001001E0000001E0000001E00000036
:101040001E00000039300000332500008719000021
:10105000B00F0000DB080000BD04000074020000B7
:101060003F01000020746F6F206C6F6E6720657801
:1010700074727573696F6E2070726576656E7465D3
:10108000640A0020636F6C642065787472757369FC
:101090006F6E2070726576656E7465640A0020203C
:1010A0004E6F7A7A6C653A20006368616E676500FE
:1010B0006F66207468652066696C616D656E74008A
:1010C0005761697420666F722073746172740020B6
:1010D000204E6F7A7A6C653A200066696C616D65A6
:1010E0006E7420756E6C6F61640057616974206660
:1010F0006F720020204E6F7A7A6C653A2000506C37
:101100006561736520776169742E2E2E00486561D4
:1011100074696E67206E6F7A7A6C650020204E6F5E
:101120007A7A6C653A200068656174206E6F7A7A0D
:101130006C652E00507265737320627574746F6EE7
:1011400020746F0020204E6F7A7A6C653A2000740C
:101150006F20636F6E74696E75652E2E2E00616E42
:101160006420707265737320627574746F6E0049C9
:101170006E736572742066696C616D656E740020B3
:10118000204E6F7A7A6C653A200066696C616D65F5
:101190006E74206C6F6164005761697420666F72B1
:1011A0000020204E6F7A7A6C653A200066696C6187
:1011B0006D656E7420707572676500576169742083
:1011C000666F7200746F20726573756D650057618C
:1011D000697420666F72207072696E740043617268
:1011E000642072656D6F76656400446174612049A6
:1011F0006E6A6563746564004D3234004D3233208D
:10120000257300556E6B6E6F776E20636F6D6D6129
:101210006E643A202200496E736572742066696CB0
:10122000616D656E7420616E6420707265737320E9
:10123000627574746F6E20286F72204D31303829BA
:101240000A0050726F62696E67206661696C65643E
:101250000A0050726F62696E67206661696C65642E
:1012600000205A3A200020593A2000426564205854
:101270003A2000000020002300260029002C002F27
:1012800000320000010000030106010901000022F4
:1012900000250028002B002E003100340002010040
:1012A00000050108010B01050505050705080808EB
:1012B00008020202020A0A080804040404010101E7
:1012C00001010101010303030303030303040707EF
:1012D000070C0C0C0C0C0C0C0C020202020606068D
:1012E00006060606060B0B0B0B0B0B0B0B01021075
:1012F0002020080810204010204080020102010830
:1013000004020101020408102040808040201008DF
:101310000402018004020180402010080402010838
:101320000402010102040810204080010204081098
:1013300020408070012C0190012701B0012201C0E2
:10134000011D01F00118011002130130020E0160AD
:1013500002090190020401C002FF000003FA0040EC
:1013600003F5008003F000D003EB002004E60070DA
:1013700004E100E004DC004005D700C005D20040D5
:1013800006CD00D006C8008007C3003008BE00F0BC
:1013900008B900C009B400B00AAF00B00BAA00D071
:1013A0000CA500000EA000500F9B00C0109600502E
:1013B00012910000148C00C0158700B0178200B095
:1013C000197D00D01B7800001E730040206E009035
:1013D000226900F024640040275F0090295A00E051
:1013E0002B5500102E500020304B0010324600E0EC
:1013F00033410090353C001037370070383200A080
:10140000392D00B03A2800A03B2300603C1E00109C
:101410003D1900903D1400103E0F00703E0A00C0C0
:101420003E0500003F0000403FFBFF803FF6FFC04D
:101430003FF1FF453400453300453200453100455A
:1014400030005A32005932005832005A00590058C0
:1014500000202F002042403A0020403A0025753AF3
:101460002530327500253032753A25303275002529
:10147000756420253032753A25303275004F144D91
:10148000144B144814451442143F143C14391436B8
:10149000143314747275650066616C736500207492
:1014A000656D7065726174757265207072657761C3
:1014B000726E207472696767657265643A200020F5
:1014C0007072657761726E20666C616720636C650F
:1014D000617265640A0020686F6D696E67207365CC
:1014E0006E73697469766974793A20002063757245
:1014F00072656E74206465637265617365642074DF
:101500006F20006D41290A0020647269766572209F
:101510006F76657274656D70657261747572652041
:101520007761726E696E67212028003A200044724C
:1015300069766572206572726F720073686F72747B
:1015400020746F2067726F756E642028636F696CFA
:101550002042290A0073686F727420746F206772CA
:101560006F756E642028636F696C2041290A006FD3
:1015700076657274656D70657261747572650A0066
:1015800020647269766572206572726F722064657C
:101590007465637465643A0A000000000001020487
:1015A000040000001C1C0C040404020100000000E4
:1015B0000004081000000000002D2D2D2D2D2D0001
:1015C0007C4D61726C696E7C002D2D2D2D2D2D00B2
:1015D000687474703A2F2F6D61726C696E66772E25
:1015E0006F726700687474703A2F2F6D61726C6946
:1015F0006E66772E6F72670020312E312E390020F3
:1016000020506C616E6E65724275666665724279D5
:101610007465733A20002046726565204D656D6FD4
:1016200072793A2000436F6D70696C65643A204AA4
:10163000756C20203920323031390A00207C20415D
:101640007574686F723A205061756C2043686173DD
:10165000652026204A6F686E204C696E6B0A003246
:101660003031382D30382D303100204C61737420EA
:10167000557064617465643A2000312E312E390A48
:10168000004D61726C696E0020536F6674776172F1
:10169000652052657365740A00205761746368643D
:1016A0006F672052657365740A002042726F776E0F
:1016B000206F75742052657365740A002045787434
:1016C00065726E616C2052657365740A00506F77A5
:1016D000657255700A0073746172740A00617574E2
:1016E0006F25692E67006572726F72207772697458
:1016F000696E6720746F2066696C650A00456E64C8
:1017000073746F7073202563202563202563202563
:101710006300205A3A0020593A0020583A00656E7A
:101720006473746F7073206869743A2000446F6E3C
:101730006520736176696E672066696C652E0A00A4
:101740004D3239002D2D2D00534400202020202023
:10175000200020202020004E4C20424731322052D1
:10176000656164792E005072696E74696E672E2E01
:101770002E005072696E7420706175736564004D3F
:10178000313235004D3234005072696E742061621E
:101790006F72746564005072696E742066726F6D4A
:1017A0002053440053746F70207072696E7400523D
:1017B0006573756D65207072696E74004E6F20538D
:1017C00044206361726400506175736520707269B2
:1017D0006E7400436F6E74726F6C0050726570614E
:1017E00072650054756E6500496E666F2073637292
:1017F00065656E0050726F6265205A204F66667391
:101800006574004368616E67652066696C616D652B
:101810006E740050726F6265205A204F6666736561
:101820007400466C6F7700466C6F7700466C6F777C
:101830000046616E2073706565640046616E2073BA
:10184000706565640046616E207370656564004272
:1018500065640042656400426564004E6F7A7A6C8C
:1018600065004E6F7A7A6C65004E6F7A7A6C65000F
:10187000466164652048656967687400466164650F
:101880002048656967687400466164652048656939
:101890006768740053706565640053706565640023
:1018A0005370656564004D61696E004578747275AA
:1018B000646572004D6F7665205A004D6F76652025
:1018C00059004D6F766520580050726570617265E1
:1018D00000496E697469616C697A652045455052AA
:1018E0004F4D00436F6E74726F6C00526573746F6E
:1018F0007265206661696C73616665004C6F616436
:101900002073657474696E677300496E69746961E8
:101910006C697A6520454550524F4D0053746F7283
:10192000652073657474696E67730046696C616DD8
:10193000656E74004D6F74696F6E0054656D7065EF
:10194000726174757265004D61696E0050726568F0
:10195000656174205045544720636F6E6600507275
:10196000656865617420504C4120636F6E6600505D
:1019700049442D44005049442D44005049442D49C8
:10198000005049442D49005049442D5000504944CD
:101990002D50002002204661637400200220466121
:1019A0006374002002204D6178002002204D617890
:1019B000002002204D6178002002204D696E002039
:1019C00002204D696E002002204D696E004F666650
:1019D000004F6E20004175746F74656D7000466134
:1019E0006E2073706565640046616E207370656576
:1019F000640046616E207370656564004265640032
:101A000042656400426564004E6F7A7A6C65004EF0
:101A10006F7A7A6C65004E6F7A7A6C6500436F6EF0
:101A200074726F6C0053746F72652073657474699F
:101A30006E6773004265640042656400426564003D
:101A40004E6F7A7A6C65004E6F7A7A6C65004E6FD5
:101A50007A7A6C650046616E207370656564004635
:101A6000616E2073706565640046616E20737065F9
:101A700065640054656D70657261747572650056B9
:101A800054726176206D696E005654726176206DD5
:101A9000696E005654726176206D696E00566D69EC
:101AA0006E00566D696E00566D696E00566D6178F8
:101AB000204500566D6178204500566D61782045BF
:101AC00000566D6178205A00566D6178205A005694
:101AD0006D6178205A00566D6178205900566D610D
:101AE00078205900566D6178205900566D61782034
:101AF0005800566D6178205800566D617820580066
:101B00004D6F74696F6E00416D6178204500416DC5
:101B10006178204500416D6178205A00416D6178FF
:101B2000205A00416D6178205900416D617820593B
:101B300000416D6178205800416D61782058004166
:101B40002D74726176656C00412D74726176656CDE
:101B500000412D7265747261637400412D72657469
:101B60007261637400416363656C00416363656C1B
:101B7000004D6F74696F6E0056652D6A65726B005B
:101B800056652D6A65726B0056652D6A65726B002D
:101B9000567A2D6A65726B00567A2D6A65726B00F3
:101BA00056792D6A65726B0056792D6A65726B00E5
:101BB00056792D6A65726B0056782D6A65726B00D6
:101BC00056782D6A65726B0056782D6A65726B00C7
:101BD0004D6F74696F6E004573746570732F6D6D12
:101BE000004573746570732F6D6D005A7374657062
:101BF000732F6D6D005A73746570732F6D6D00597E
:101C000073746570732F6D6D005973746570732FE5
:101C10006D6D005873746570732F6D6D005873741B
:101C20006570732F6D6D004D6F74696F6E00436149
:101C30006E6E6F74206F70656E207375626469726A
:101C400020006563686F3A00453120544845524D85
:101C5000414C2052554E4157415900424544205471
:101C60004845524D414C2052554E41574159005420
:101C70006865726D616C2052756E617761790000E4
:101C80001C1F11111F00000006191803130C00047B
:101C90000E1F041C000000000E1315110E00001C86
:101CA00010181705060500040A0A0A0A11110E0C7D
:101CB00012120C00000000001F1511151F0000502B
:101CC000726F7465637465642050696E0A005374A2
:101CD000616E6461726420446576696174696F6ED7
:101CE0003A20002052616E67653A2000204D6178ED
:101CF0003A2000204D696E3A20004D65616E3A2011
:101D00000046696E6973686564210A002072616E1D
:101D100067653A2000206D61783A2000206D696E79
:101D20003A2000207369676D613A2000206D65617B
:101D30006E3A20003A207A3A2000206F6620002078
:101D40005A00205900205800476F696E6720746F51
:101D50003A00436C6F636B776973650A00436F7574
:101D60006E7465722D0020446972656374696F6ECC
:101D70003A2000202020616E676C653A2000537481
:101D8000617274696E67207261646975733A2000CC
:101D9000506F736974696F6E696E6720746865202F
:101DA00070726F62652E2E2E0A003F4E756D626551
:101DB00072206F66206C65677320696E206D6F7688
:101DC000656D656E74206E6F7420706C61757369DB
:101DD000626C652028302D3135292E0A003F2028DD
:101DE000582C5929206F7574206F6620626F756EAC
:101DF00064732E0A003F53616D706C652073697ABD
:101E000065206E6F7420706C61757369626C6520FB
:101E100028342D3530292E0A004D3438205A2D50C3
:101E2000726F6265205265706561746162696C6988
:101E3000747920546573740A003F285629657262CC
:101E40006F7365206C6576656C20697320696D70B1
:101E50006C61757369626C652028302D34292E0AF7
:101E60000046696C616D656E7420757365643A2017
:101E70000053746174733A20002C204C6F6E6765B8
:101E80007374206A6F623A2000546F74616C20741E
:101E9000696D653A200053746174733A20002C20F8
:101EA0004661696C65643A20002C2046696E69734E
:101EB0006865643A20005072696E74733A2000536A
:101EC000746174733A200020573A004520436F6FC5
:101ED0006C696E672E2E2E00452048656174696E10
:101EE000672E2E2E007C3C3E5E2B3D3F2F5B5D3BE4
:101EF0002C2A225C0020573A0042656420636F6FF1
:101F00006C696E672E2E2E004265642068656174D0
:101F1000696E672E2E2E00205A3A0020593A002072
:101F2000436F756E7420583A0020453A00205A3AA3
:101F30000020593A00583A003A004361703A00577D
:101F400041524E494E4721204C6F77205A204A6516
:101F5000726B206D6179206C65616420746F2075EF
:101F60006E77616E746564207061757365732E0A97
:101F700000205A00205900580020204D61783A2056
:101F800000205A00205900580020204D696E3A2048
:101F9000004F6E20004F666600536F667420656EBA
:101FA0006473746F70733A200020643A0020693AB9
:101FB0000020703A00496E76616C6964206578741F
:101FC00072756465720A0023646566696E652044F3
:101FD000454641554C545F4B642000236465666957
:101FE0006E652044454641554C545F4B69200023A3
:101FF000646566696E652044454641554C545F4BA7
:10200000702000504944204175746F74756E6520CE
:1020100066696E6973686564212050757420746800
:1020200065206C617374204B702C204B6920616EAD
:1020300064204B6420636F6E7374616E74732066EA
:10204000726F6D2062656C6F7720696E746F2043CC
:102050006F6E66696775726174696F6E2E680A00CB
:10206000504944204175746F74756E6520666169CE
:102070006C6564212074696D656F75740A00453163
:1020800020544845524D414C2052554E41574159DC
:1020900000546865726D616C2052756E617761796C
:1020A0000045312048656174696E67206661696C1E
:1020B00065640048656174696E67206661696C6576
:1020C0006400504944204175746F74756E652066D4
:1020D00061696C6564212054656D70657261747509
:1020E000726520746F6F20686967680A00204B640E
:1020F0003A2000204B693A2000204B703A20000A19
:1021000020436C617373696320504944200A0020A6
:1021100054753A2000204B753A2000206D61783AC2
:102120002000206D696E3A200020643A2000206271
:102130006961733A2000504944204175746F747589
:102140006E65206661696C6564212042616420656A
:1021500078747275646572206E756D6265720A00BE
:10216000504944204175746F74756E6520737461B5
:1021700072740A005072656865617420504C412089
:10218000456E64005072656865617420504C412052
:10219000426564005072656865617420504C41006E
:1021A0005072657061726500507265686561742077
:1021B0005045544720456E640050726568656174EF
:1021C000205045544720426564005072656865613F
:1021D0007420504554470050726570617265004D1F
:1021E000343238005072656865617420504C41008B
:1021F000436F6F6C646F776E0050726568656174D1
:102200002050455447004368616E67652066696CDD
:10221000616D656E740044697361626C65207374EE
:10222000657070657273004D3834005365742068B2
:102230006F6D65206F6666736574730046616465D3
:10224000204865696768740046616465204865696F
:102250006768740046616465204865696768740052
:102260004F6666004F6E2000426564204C657665BF
:102270006C696E67004C6576656C2062656400472A
:1022800032380A473239004175746F20686F6D65C6
:1022900000473238004D6F76652061786973004DD4
:1022A00061696E004D6F76652058004D6F76652030
:1022B00059004D6F7665205A0045787472756465D3
:1022C00072004D6F766520302E316D6D004D6F764A
:1022D0006520316D6D004D6F76652031306D6D007C
:1022E0004D6F766520617869730045787472756406
:1022F0006572004D6F7665205A004D6F76652059E6
:10230000004D6F766520580053746570732F6D6DA6
:10231000004A65726B00416363656C657261746944
:102320006F6E0056656C6F636974790050726F62EE
:1023300065205A204F666673657400436F6E747231
:102340006F6C004C6F6164206D6D004C6F61642098
:102350006D6D004C6F6164206D6D00556E6C6F612A
:1023600064206D6D00556E6C6F6164206D6D00555D
:102370006E6C6F6164206D6D0046696C2E2044693F
:10238000612E0046696C2E204469612E004F6666FE
:10239000004F6E20004520696E206D6D3300436F45
:1023A0006E74726F6C0043616E6E6F7420656E7434
:1023B0006572207375626469723A2000052E2E00E2
:1023C0004D61696E004D37303220542564004D3622
:1023D000303020423020542564004D373032203BCD
:1023E0002564004D3730312054256400556E6C6FE4
:1023F00061642066696C616D656E7400556E6C6F0A
:1024000061642066696C616D656E74004D373032B1
:10241000004D373031004C6F61642066696C616D2E
:10242000656E74004D363030204230004368616E76
:1024300067652066696C616D656E740050726570C9
:10244000617265005052494E5420504155534544E5
:1024500000554E4C4F41442046494C414D454E5449
:10246000004C4F41442046494C414D454E5400508C
:1024700075726765206D6F726500436F6E74696E6B
:10248000756500524553554D45204F5054494F4EA8
:10249000533A004F66660A004661646520486569E4
:1024A0006768742000426564204C6576656C696ECF
:1024B0006720004661696C656420746F20656E61F9
:1024C000626C6520426564204C6576656C696E6758
:1024D0000A004D65736820706F696E742063616EC9
:1024E0006E6F74206265207265736F6C7665640A26
:1024F000004D34323120696E636F727265637420EF
:10250000706172616D657465722075736167650ACB
:10251000004F666673657473206170706C696564E2
:10252000004572723A20546F6F2066617221005428
:102530006F6F206661722066726F6D2072656665CE
:1025400072656E636520706F696E740A00496E7300
:102550006572742066696C616D656E7420616E646D
:1025600020707265737320627574746F6E0A005008
:102570007265737320627574746F6E20746F206857
:10258000656174206E6F7A7A6C650A00496E7365B6
:1025900072742066696C616D656E7420616E642072
:1025A000707265737320627574746F6E20286F7219
:1025B000204D313038290A00486F6D696E672066FA
:1025C00061696C656400202844525952554E2900B7
:1025D000473239204175746F20426564204C65761E
:1025E000656C696E67003F20284C2C522C462C42AB
:1025F00029206F7574206F6620626F756E64732E6C
:102600000A003F2856296572626F7365206C6576F3
:10261000656C20697320696D706C61757369626C9B
:10262000652028302D34292E0A00426164205A206A
:1026300076616C75650A004E6F2062696C696E6523
:10264000617220677269640A00486F74656E642065
:10265000746F6F20636F6C640A004D3630303A201F
:10266000546F6F20636F6C6400486F74656E6420F4
:10267000746F6F20636F6C640A0046696C65206438
:10268000656C657465643A0044656C6574696F6E69
:10269000206661696C65642C2046696C653A20008F
:1026A000627573793A2070617573656420666F7224
:1026B00020696E7075740A00627573793A207061D2
:1026C0007573656420666F7220757365720A0062A7
:1026D0007573793A2070726F63657373696E670AF8
:1026E000004B494C4C45442E20004B494C4C206338
:1026F0006175736564206279204B494C4C2062758A
:1027000074746F6E2F70696E0A004B494C4C4544CF
:102710002E20004B494C4C20636175736564206228
:102720007920746F6F206D75636820696E616374C2
:102730006976652074696D65202D206375727265F8
:102740006E7420636F6D6D616E643A2000506C652D
:10275000617365207265736574005052494E54452B
:10276000522048414C544544005072696E74657261
:102770002068616C7465642E206B696C6C2829205C
:1027800063616C6C6564210A00206472697665720D
:102790002063757272656E743A2000656E7175659E
:1027A0007565696E6720220000000000000040C1CE
:1027B0000000000000002042000020420000804095
:1027C000000000005761726E696E673A20486F6DB5
:1027D000696E672042756D702044697669736F7207
:1027E000203C20310A0002020400000040000000EA
:1027F00040000000400000964300809D430000BE62
:1028000043FFFFFF00002110422063308440A550A9
:10281000C660E770088129914AA16BB18CC1ADD126
:10282000CEE1EFF13112100273325222B5529442CE
:10283000F772D662399318837BB35AA3BDD39CC376
:10284000FFF3DEE36224433420040114E664C7741A
:10285000A44485546AA54BB528850995EEE5CFF5C6
:10286000ACC58DD55336722611163006D776F6666E
:102870009556B4465BB77AA719973887DFF7FEE716
:102880009DD7BCC7C448E5588668A778400861183A
:1028900002282338CCC9EDD98EE9AFF94889699966
:1028A0000AA92BB9F55AD44AB77A966A711A500A0E
:1028B000333A122AFDDBDCCBBFFB9EEB799B588BB6
:1028C0003BBB1AABA66C877CE44CC55C222C033C5A
:1028D000600C411CAEED8FFDECCDCDDD2AAD0BBD06
:1028E000688D499D977EB66ED55EF44E133E322EAE
:1028F000511E700E9FFFBEEFDDDFFCCF1BBF3AAF56
:10290000599F788F8891A981CAB1EBA10CD12DC1B3
:102910004EF16FE18010A100C230E3200450254049
:1029200046706760B9839893FBA3DAB33DC31CD3A9
:102930007FE35EF3B1029012F322D2323542145299
:1029400077625672EAB5CBA5A89589856EF54FE5F5
:102950002CD50DC5E234C324A014810466744764E9
:1029600024540544DBA7FAB79987B8975FE77EF749
:102970001DC73CD7D326F2369106B0165766767639
:10298000154634564CD96DC90EF92FE9C899E98915
:102990008AB9ABA94458654806782768C018E10889
:1029A0008238A3287DCB5CDB3FEB1EFBF98BD89BE9
:1029B000BBAB9ABB754A545A376A167AF10AD01AD9
:1029C000B32A923A2EFD0FED6CDD4DCDAABD8BAD35
:1029D000E89DC98D267C076C645C454CA23C832C29
:1029E000E01CC10C1FEF3EFF5DCF7CDF9BAFBABF89
:1029F000D98FF89F176E367E554E745E932EB23E79
:102A0000D10EF01E48617264636F64656420446592
:102A10006661756C742053657474696E6773204CBD
:102A20006F616465640A00DC050000580200000F55
:102A3000000000102700000000FA430000C8420018
:102A40000070410000C8410000A0420000A0420008
:102A500000C84400800D4320204D393036003A0A2A
:102A60000020286D6D290020204D393134002020B0
:102A70004D36303320002055004C0046696C616DA6
:102A8000656E74206C6F61642F756E6C6F6164206D
:102A90006C656E677468733A0A002059002058000C
:102AA00053656E736F726C65737320686F6D696EBA
:102AB00067207468726573686F6C643A0A0020540A
:102AC00030204500205A00205900205800537465DA
:102AD00070706572206472697665722063757272B7
:102AE000656E743A0A0020204D383531205A005A5C
:102AF0002D50726F6265204F6666736574002044C6
:102B00000020490020204D333031205000504944EE
:102B10002073657474696E67733A0A00204600205A
:102B2000420020480020204D3134352053004D61B3
:102B300074657269616C206865617475702070617C
:102B400072616D65746572733A0A00205A00204AFA
:102B50000020204732392057204900205A002020E9
:102B60004D3432302053004175746F20426564202B
:102B70004C6576656C696E673A0A00205A002059E8
:102B80000020204D323036205800486F6D65206F90
:102B900066667365743A0A00204500205A00205981
:102BA0000020580020540020530020204D323035A2
:102BB00020510020453C6D61785F655F6A65726BEE
:102BC0003E0020583C6D61785F785F6A65726B3EAD
:102BD00020593C6D61785F795F6A65726B3E205A5F
:102BE0003C6D61785F7A5F6A65726B3E0041647626
:102BF000616E6365643A20513C6D696E5F73656711
:102C00006D656E745F74696D655F75733E20533CCE
:102C10006D696E5F66656564726174653E20543CE3
:102C20006D696E5F74726176656C5F66656564720E
:102C30006174653E0020540020520020204D323047
:102C400034205000416363656C65726174696F6E16
:102C50002028756E6974732F7332293A20503C70A6
:102C600072696E745F616363656C3E20523C72658D
:102C700074726163745F616363656C3E20543C747D
:102C8000726176656C5F616363656C3E0A00204526
:102C900000205A0020590020204D323031205800A9
:102CA0004D6178696D756D20416363656C65726116
:102CB00074696F6E2028756E6974732F7332293AA8
:102CC0000A00204500205A0020590020204D3230B3
:102CD000332058004D6178696D756D2066656564B7
:102CE00072617465732028756E6974732F73293A45
:102CF0000A00204500205A0020590020204D39327A
:102D000020580053746570732070657220756E6969
:102D1000743A0A0020204D3230302044300A00201E
:102D2000204D3230302044002044697361626C656C
:102D3000640A0046696C616D656E74207365747415
:102D4000696E67733A0020204D3134392043203BAF
:102D500020556E69747320696E2043656C736975C4
:102D6000730A002020473231202020203B00486F8A
:102D70006D65202573257325732066697273740051
:102D80002066697273740A005A0059005800486F2F
:102D90006D65200053442063617264206F6B0A00EC
:102DA0006F70656E526F6F74206661696C65640A3E
:102DB00000766F6C756D652E696E69742066616949
:102DC0006C65640A00534420696E69742066616909
:102DD0006C0A0057726974696E6720746F206669A7
:102DE0006C653A20006F70656E206661696C656481
:102DF0002C2046696C653A20006F70656E20666114
:102E0000696C65642C2046696C653A200046696CE3
:102E1000652073656C65637465640A002053697A84
:102E2000653A200046696C65206F70656E65643A8E
:102E300020002066696C653A2000646F696E670047
:102E40006672657368004E6F772000454E442053CC
:102E50005542524F5554494E450A002220706F7317
:102E6000002220706172656E743A220053554252FE
:102E70004F5554494E452043414C4C207461726774
:102E800065743A22004B494C4C45442E2000747224
:102E900079696E6720746F2063616C6C2073756252
:102EA0002D67636F64652066696C6573207769744C
:102EB0006820746F6F206D616E79206C6576656C2B
:102EC000732E204D4158206C6576656C2069733AED
:102ED000004572726F723A006F70656E20666169AC
:102EE0006C65642C2046696C653A200006FFFFFF84
:102EF000FFFF0001010101016265640A002C2073DB
:102F0000797374656D2073746F70706564212048E7
:102F100065617465725F49443A20004265642068C7
:102F2000656174696E67206661696C6564004865F7
:102F30006174696E67206661696C65640045312063
:102F400048656174696E67206661696C65640048F4
:102F5000656174696E67206661696C6564004531FE
:102F6000204572723A204D415854454D50004572EB
:102F7000723A204D415854454D5020424544004D31
:102F8000415854454D502074726967676572656495
:102F9000004531204572723A204D494E54454D50FE
:102FA000004572723A204D494E54454D50204245DD
:102FB00044004D494E54454D502074726967676511
:102FC000726564004D383420582059205A2045003D
:102FD0004572726F722077726974696E6720746FC0
:102FE00020454550524F4D210A00454550524F4D06
:102FF000206461746173697A65206572726F722EE4
:103000000A00290A002062797465733B20637263A9
:10301000200053657474696E67732053746F726512
:1030200064202800FFFDFCFAF8F6F4F2F0EEECEA7A
:10303000E9E7E5E3E1E0DEDCDAD9D7D5D4D2D0CFD9
:10304000CDCBCAC8C7C5C3C2C0BFBDBCBAB9B7B66D
:10305000B4B3B2B0AFADACAAA9A8A6A5A4A2A1A0D2
:103060009E9D9C9A99989795949392908F8E8D8B14
:103070008A8988878684838281807F7E7D7B7A7936
:103080007877767574737271706F6E6D6C6B6A6938
:103090006867666564636261605F5E5D5C5B5A5928
:1030A00058585756555453525150504F4E4D4C4B03
:1030B0004A4A4948474646454443424241403F3ECA
:1030C0003E3D3C3B3B3A3938383736353534333280
:1030D000323130302F2E2E2D2C2B2B2A2929282728
:1030E0002726252524232322212120201F1E1E1DC3
:1030F0001C1C1B1B1A191918181716161515141352
:103100001312121111100F0F0E0E0D0D0C0C0B0AD5
:103110000A0909080807070606050504040303024F
:1031200002010000545249474745524544006F7020
:10313000656E003A20007A5F6D696E00795F6D6997
:103140006E00785F6D696E005265706F7274696EA3
:103150006720656E6473746F702073746174757327
:103160000A00000000010000000100008000555529
:1031700055000000400033333300AAAA2A004992C8
:10318000240000002000C7711C0099991900D14546
:103190001700555515003BB11300244912001111B9
:1031A0001100000010000F0F0F00E3380E004379EC
:1031B0000D00CCCC0C00C3300C00E8A20B00642145
:1031C0000B00AAAA0A00703D0A009DD80900427BA4
:1031D000090092240900DCD3080088880800104206
:1031E000080000000800F0C107008787070075503D
:1031F0000700711C07003EEB0600A1BC06006990A9
:10320000060066660600703E06006118060017F4A8
:10321000050074D105005BB00500B2900500627234
:1032200005005555050078390500B81E050005054F
:1032300005004EEC040087D40400A1BD040090A753
:10324000040049920400C17D0400EE690400C756E1
:103250000400444404005C320400082104004110CE
:103260000400000004003FF00300F8E0030026D251
:103270000300C3C30300CCB503003AA803000A9BB4
:103280000300388E0300C08103009F750300D069DE
:103290000300505E03001D53030034480300913DBA
:1032A00003003333030016290300381F030097156A
:1032B0000300300C0300030303000BFA020049F182
:1032C0000200BAE802005CE002002DD802002DD016
:1032D000020059C80200B0C0020031B90200DAB1E0
:1032E0000200AAAA0200A0A30200BC9C0200FA9558
:1032F00002005C8F0200DF88020082820200457CAF
:1033000002002776020027700200436A02007C64F4
:103310000200D05E02003F590200C85302000000C4
:103320002100240027002A002D0030003300010175
:103330000000040107010A0100000A0B02090C0D3C
:103340000E08070304010000000000000000000058
:10335000000000000000000000000000000000006D
:10336000000000001211100000000000000000002A
:1033700000000000000000000000000000004368A2
:10338000616E67652066696C616D656E7400556E6F
:103390006C6F61642066696C616D656E74004C6F62
:1033A00061642066696C616D656E74005072656859
:1033B00065617420504554470050726568656174BA
:1033C00020504C41004368616E67652066696C61FE
:1033D0006D656E7400290A002062797465733B2064
:1033E00063726320002073746F7265642073657468
:1033F00074696E677320726574726965766564209E
:103400002800202863616C63756C617465642921F0
:103410000A0020213D2000454550524F4D20435287
:1034200043206D69736D61746368202D2028737467
:103430006F7265642920002053697A653A2000493B
:103440006E6465783A2000204D61726C696E3D565D
:103450003535290A0028454550524F4D3D00454518
:1034600050524F4D2076657273696F6E206D69738F
:103470006D617463682000526573656E643A200064
:103480006F6B0020746F6F206C6F6E6720657874AF
:10349000727573696F6E2070726576656E7465649F
:1034A0000A0020636F6C6420657874727573696FAD
:1034B0006E2070726576656E7465640A0000F200B5
:1034C000DA0011241FBECFEFD1E2DEBFCDBF00E096
:1034D0000CBF13E0A0E0B2E0E6E1FEE502E00BBFC6
:1034E00002C007900D92A435B107D9F726E1A4E5F3
:1034F000B3E001C01D92A634B207E1F71AE1C0E6BD
:10350000DAE100E006C021970109802FFE010F9447
:103510006F2ECF35D10780E00807A9F70F94EA197D
:103520000D94FA2E0C9400002F923F924F925F92CE
:103530006F927F928F929F92AF92BF92CF92DF92C3
:10354000EF92FF920F931F93CF93DF93CDB7DEB728
:10355000CB56D1090FB6F894DEBF0FBECDBF91E0B8
:1035600090938804809185158D3411F40C94A723D1
:10357000843511F40C94E52F873411F00C942F301E
:1035800020908315309084152BE12216310409F424
:103590007BC6CCF444E0241631044CF452E02516EA
:1035A00031040CF041C037FE38C00C94A32384E0F2
:1035B0002816310409F4E7C59CE02916310409F402
:1035C00021C60C94A323AAE22A16310409F47BC76E
:1035D00074F4EDE12E16310409F49DC60CF484C692
:1035E0002EE12216310409F49AC60C94A3233BE57C
:1035F0002316310411F40C9421234CE524163104D4
:1036000011F40C9425235AE52516310411F00C947D
:10361000A323109258030C943130809143028111FE
:103620000C9436300C94313080914302882311F48D
:103630000C9431300E94B1CA82E50E94F53788238C
:1036400009F44CC10E9479374B015C0120E030E065
:10365000A9010F940327882309F470C18091A8045D
:103660009091A904A091AA04B091AB0488AF99AF3E
:10367000AAAFBBAF2091AC043091AD044091AE0431
:103680005091AF042CAF3DAF4EAF5FAF80915D0462
:1036900090915E04A0915F04B09160042C968CAF71
:1036A0009DAFAEAFBFAF2C97209161043091620403
:1036B000409163045091640428962CAF3DAF4EAF07
:1036C0005FAF28979C01AD0168AD79AD8AAD9BAD28
:1036D0000F94032781110FC028962CAD3DAD4EAD40
:1036E0005FAD28976CAD7DAD8EAD9FAD0F94032778
:1036F000882309F423C111E032E02316310409F0D4
:1037000010E020E030E0A901C501B4010F940327C7
:10371000881F8827881F181759F080E090E0A0E8DC
:10372000BFEB64968CAF9DAFAEAFBFAF64970AC0DE
:1037300020E030E040E85FE364962CAF3DAF4EAF51
:103740005FAF649728AD39AD4AAD5BAD2C966CADDB
:103750007DAD8EAD9FAD2C970F947F2B60966CAF97
:103760007DAF8EAF9FAF60972CAD3DAD4EAD5FADE1
:1037700028966CAD7DAD8EAD9FAD28970F947F2BB5
:103780006B017C0160962CAD3DAD4EAD5FAD609799
:10379000CA01B9010F9468272B013C01A7019601CA
:1037A000C701B6010F9468279B01AC01C301B201A8
:1037B0000F94802B0F94EB2D24966CAF7DAF8EAFC2
:1037C0009FAF249720E030E040E05FE30F9468274C
:1037D0002B013C01A5019401C501B4010F94682798
:1037E0004B015C01A3019201C301B2010F94682750
:1037F0009B01AC01C501B4010F947F2B0F94EB2DFD
:1038000064962CAD3DAD4EAD5FAD64970F946827C7
:103810004B015C01C701B601905824962CAD3DAD1B
:103820004EAD5FAD24970F945C2CA50194010F94CD
:1038300068276B017C012C962CAD3DAD4EAD5FAD84
:103840002C9768AD79AD8AAD9BAD0F94802B20E0AD
:1038500030E040E05FE30F9468279B01AC01C701B3
:10386000B6010F94802B28AD39AD4AAD5BAD0F94F6
:103870007F2B6B017C0128962CAD3DAD4EAD5FAD2D
:1038800028976CAD7DAD8EAD9FAD0F94802B20E061
:1038900030E040E05FE30F9468272B013C01249661
:1038A0002CAD3DAD4EAD5FAD249760966CAD7DAD5A
:1038B0008EAD9FAD60970F945C2CA50194010F9481
:1038C00068279B01AC01C301B2010F94802B2CAD82
:1038D0003DAD4EAD5FAD0F947F2B14C089E40E94C7
:1038E000F537882329F00E9479376B017C0103C0EA
:1038F000C12CD12C76018AE40E94F537882309F186
:103900000E9479372C966CAF7DAF8EAF9FAF2C970E
:1039100020E030E0A901C701B6010F94032781110F
:103920001FC020E030E0A9012C966CAD7DAD8EADBE
:103930009FAD2C970F940327811112C0E1EDFEE299
:103940000EC420E030E0A901C701B6010F9403279F
:103950008823A1F32C961CAE1DAE1EAE1FAE2C9775
:10396000D701C601B05888AF99AFAAAFBBAF2C96AC
:103970002CAD3DAD4EAD5FAD2C9750582CAF3DAF4B
:103980004EAF5FAF9C01AD01BC01CD010F94682724
:103990004B015C012CAD3DAD4EAD5FADCA01B9012F
:1039A0000F9468279B01AC01C501B4010F94802BD3
:1039B0000F94EB2DA0966CAF7DAF8EAF9FAFA0970D
:1039C0008091A8049091A904A091AA04B091AB049D
:1039D00028968CAF9DAFAEAFBFAF2897A7019601D9
:1039E000BC01CD010F94802B64966CAF7DAF8EAF80
:1039F0009FAF64972091AC043091AD044091AE0428
:103A00005091AF0460962CAF3DAF4EAF5FAF609763
:103A10002C962CAD3DAD4EAD5FAD2C9760966CAD48
:103A20007DAD8EAD9FAD60970F94802BA4966CAF4B
:103A30007DAF8EAF9FAFA49780915D0490915E049F
:103A4000A0915F04B091600468968CAF9DAFAEAF5B
:103A5000BFAF689764962CAD3DAD4EAD5FAD64973A
:103A6000BC01CD010F947F2B6B017C01209161047F
:103A70003091620440916304509164046C962CAFC1
:103A80003DAF4EAF5FAF6C97A4962CAD3DAD4EAD44
:103A90005FADA4976C966CAD7DAD8EAD9FAD6C9710
:103AA0000F947F2B4B015C018091B0049091B10485
:103AB000A091B204B091B304A8968CAF9DAFAEAF05
:103AC000BFAFA8979C01AD01609165047091660439
:103AD00080916704909168040F947F2B24966CAFBB
:103AE0007DAF8EAF9FAF2497A701960168AD79ADEA
:103AF0008AAD9BAD0F9468272B013C01A501940171
:103B00006CAD7DAD8EAD9FAD0F9468279B01AC0170
:103B1000C301B2010F94802B2B013C01A50194013C
:103B200068AD79AD8AAD9BAD0F9468274B015C0100
:103B3000A70196016CAD7DAD8EAD9FAD0F9468274A
:103B40009B01AC01C501B4010F947F2BA30192012D
:103B50000F94F32B6B017C0120E030E0A9010F945E
:103B6000032787FF0AC02BED3FE049EC50E4C70173
:103B7000B6010F94802B6B017C0192E02916310471
:103B800051F42BED3FE049EC50E4C701B6010F942E
:103B90007F2B6B017C0120E030E0A901C701B60159
:103BA0000F940327811128C068962CAD3DAD4EAD12
:103BB0005FAD689728966CAD7DAD8EAD9FAD2897B3
:103BC0000F940327811118C06C962CAD3DAD4EADFE
:103BD0005FAD6C9760966CAD7DAD8EAD9FAD60971F
:103BE0000F940327811108C00BEDC02E0FE0D02EDB
:103BF00009ECE02E00E4F02EA7019601A0966CAD32
:103C00007DAD8EAD9FADA0970F9468274B015C01F1
:103C100020E030E0A90124966CAD7DAD8EAD9FAD66
:103C200024970F9403278823E9F0A5019401C50187
:103C3000B4010F9468274B015C0124962CAD3DAD77
:103C40004EAD5FAD2497CA01B9010F9468279B015F
:103C5000AC01C501B4010F94802B0F94EB2D4B01E7
:103C60005C010DC020E030E0A901C501B4010F9452
:103C7000A62D87FF04C0B7FAB094B7F8B0942FE62A
:103C800032E143E85AE3C501B4010F94032787FFEB
:103C900002C00C943130C501B4010F94F52C0F947F
:103CA000C92C2E967FAF6EAF2E97DB01AB2B31F474
:103CB000E1E0F0E02E96FFAFEEAF2E974090B40417
:103CC0005090B5046090B6047090B7042E962EAD57
:103CD0003FAD2E97B90180E090E00F9407274B018C
:103CE0005C019B01AC01C701B6010F945C2C2896C6
:103CF0006CAF7DAF8EAF9FAF2897A501940124963E
:103D00006CAD7DAD8EAD9FAD24970F945C2CA096CD
:103D10006CAF7DAF8EAF9FAFA097A3019201609172
:103D2000690470916A0480916B0490916C040F9403
:103D30007F2BA50194010F945C2CAC966CAF7DAFEA
:103D40008EAF9FAFAC9728962CAD3DAD4EAD5FAD1D
:103D50002897CA01B9010F94682720E030E040E0BD
:103D60005FE30F9468279B01AC0160E070E080E89E
:103D70009FE30F947F2B68966CAF7DAF8EAF9FAFA4
:103D80006897A8968CAD9DADAEADBFADA89789875D
:103D90009A87AB87BC874D865E866F86788A6091EE
:103DA000220270912302072E000C880B990B0F94AE
:103DB0000927209111023091120240911302509173
:103DC00014020F9468272AE037ED43E25CE30F9476
:103DD00068276CAB7DAB8EAB9FAB0E942C759B01B3
:103DE000AC0128533F4F4F4F5F4F6C962CAF3DAF08
:103DF0004EAF5FAF6C9748AC59AC6AAC7BAC222439
:103E00002394312C39E121963FAF21972E964EAD68
:103E10005FAD2E974215530509F44DC10E9422EB68
:103E20000E942C75DC01CB016C962CAD3DAD4EADE6
:103E30005FAD6C97821B930BA40BB50BB7FD11C044
:103E40000E942C759B01AC0128533F4F4F4F5F4F91
:103E50006C962CAF3DAF4EAF5FAF6C9780E00E9489
:103E6000C6D521963FAD2197315021963FAF21977E
:103E7000332309F445C02CAD3DAD4EAD5FAD689622
:103E80006CAD7DAD8EAD9FAD68970F9468276B01CB
:103E90007C019201A30128966CAD7DAD8EAD9FADE6
:103EA00028970F946827A70196010F94802B7B0118
:103EB0008C019201A30168966CAD7DAD8EAD9FAD76
:103EC00068970F9468274B015C012CAD3DAD4EAD5A
:103ED0005FAD28966CAD7DAD8EAD9FAD28970F94EC
:103EE00068279B01AC01C501B4010F947F2B2B0106
:103EF0003C01C701D8018CAF9DAFAEAFBFAF55C07D
:103F0000B10180E090E00F94072728962CAD3DADDD
:103F10004EAD5FAD28970F9468274B015C010F945D
:103F2000592C6B017C01C501B4010F94E12D4B01AB
:103F30005C01A701960168AD79AD8AAD9BAD0F9488
:103F400068272B013C012C962CAD3DAD4EAD5FADED
:103F50002C97C501B4010F946827A30192010F9417
:103F6000802B2B013C01A501940168AD79AD8AAD90
:103F70009BAD0F9468274B015C012C962CAD3DAD99
:103F80004EAD5FAD2C97C701B6010F9468279B011A
:103F9000AC01C501B4010F947F2B6CAF7DAF8EAF28
:103FA0009FAF49E121964FAF21979201A3016496FB
:103FB0006CAD7DAD8EAD9FAD64970F94802B698302
:103FC0007A838B839C832CAD3DAD4EAD5FADA496C3
:103FD0006CAD7DAD8EAD9FADA4970F94802B6D839E
:103FE0007E838F839887A0962CAD3DAD4EAD5FAD9F
:103FF000A09769857A858B859C850F94802B69872E
:104000007A878B879C87AC962CAD3DAD4EAD5FAD6E
:10401000AC976D857E858F8598890F94802B6D87F1
:104020007E878F87988B80913C02882321F0CE0178
:1040300001960E94DAD2E09089041CA61DA61EA655
:104040001FA689819A81AB81BC8188A399A3AAA369
:10405000BBA38D819E81AF81B8858CA39DA3AEA3A8
:10406000BFA389859A85AB85BC8588A799A7AAA790
:10407000BBA7AE01485D5F4FBE016C5D7F4FCE01B7
:1040800080960E94C555CE018C966C018E010C5C09
:104090001F4F9E01235F3F4FAE01485D5F4FBE0142
:1040A0006C5D7F4F0C970E944447882321F09FEF5F
:1040B000291A390AABCEE090890418AA19AA1AAABB
:1040C0001BAA80915D0490915E04A0915F04B09161
:1040D000600488A399A3AAA3BBA3809161049091D3
:1040E0006204A0916304B09164048CA39DA3AEA369
:1040F000BFA38091650490916604A0916704B0917C
:10410000680488A799A7AAA7BBA7AE01485D5F4F1F
:10411000BE016C5D7F4FCE0180960E94C555DE01C9
:10412000D0966D018E010C5C1F4F29E634E0AE0184
:10413000485D5F4FBE016C5D7F4FCE0180960E944F
:10414000444780E1EDE5F4E0A8EAB4E001900D9287
:104150008A95E1F70C9431300E94F738F801849188
:104160008F010F5F1F4F8111F7CFEDE7F2E08491D0
:104170008F010F5F1F4F882311F40C9431300E9480
:10418000F738F801F4CF80E50E94F537882329F04D
:104190000E9439376B017C0103C0C12CD12C760100
:1041A00083E50E94F537882361F00E94793720E08B
:1041B00030E04AE754E40F9468270F94C92C6B0150
:1041C0007C010E94115580913407811105C060E087
:1041D00083E992E00E94E9640E942C75C60ED71E06
:1041E000E81EF91E0E942C75DC01CB018C199D097B
:1041F000AE09BF09B7FD02C00C94313080E00E94C7
:10420000C6D5F0CF0E94DEE381110C94313080E5F9
:104210000E94F537882319F00E94493701C060E0F9
:1042200068AB83E50E94F537882319F00E9449376F
:1042300001C06CE06CA784E50E94F537882319F073
:104240000E94493701C063E068A382E50E94F53708
:10425000882319F00E94793704C060E070E080ED97
:1042600090E469837A838B839C839E01205E3F4F19
:10427000AE014F5F5F4FBE01645D7F4FCE01C096C0
:104280000F94A3000C9431300E94DEE381110C9452
:10429000313080E090E0A0E2B1E489839A83AB837F
:1042A000BC8380E090E0A1E9B3E48D839E83AF837B
:1042B000B88780E090E0A0EAB1E489879A87AB876D
:1042C000BC8780E50E94F537882319F00E944937A2
:1042D00001C060E068A3BE016F5F7F4FCE01809692
:1042E0000F940D000C9431308091970487708730C3
:1042F00011F00C943B308FE40E94F537882319F0BD
:104300000E946A3703C08FE40E94AC3781110C947D
:1043100031300C943B300E94A6CC0C943130C090CC
:10432000A804D090A904E090AA04F090AB0488E51A
:104330000E94F537811108C020E030E0A901C701D3
:10434000B6010F94802B02C00E94793768A379A32D
:104350008AA39BA3C090AC04D090AD04E090AE04BF
:10436000F090AF0489E50E94F537811109C020E083
:1043700030E040E751E4C701B6010F947F2B02C043
:104380000E9479379B01AC0169837A838B839C837C
:1043900068A179A18AA19BA10E94CCD4882311F4A1
:1043A0000C94313080E00E94F8350E94103385E48F
:1043B0000E94F537882321F00E946A37182F04C025
:1043C00085E40E94AC3711E086E50E94F53788232A
:1043D00021F00E944937262F01C021E0412FBE0164
:1043E0006F5F7F4FCE0180960E94236A6B017C0134
:1043F0009B01AC010F942C2E81115FC088A099A065
:10440000AAA0BBA020E030E0A901C501B4010F942F
:10441000032787FF05C027E137EB41E558EB04C0D0
:1044200027E137EB41E558E3C501B4010F94802B38
:10443000AB01BC0183EC92E00E9452F889809A8023
:10444000AB80BC8020E030E0A901C501B4010F942D
:10445000032787FF05C027E137EB41E558EB04C090
:1044600027E137EB41E558E3C501B4010F94802BF8
:10447000AB01BC018EEB92E00E9452F820E030E0EC
:10448000A901C701B6010F94032787FF05C027E1E3
:1044900037EB41E558EB04C027E137EB41E558E342
:1044A000C701B6010F94802BAB01BC0189EB92E0F0
:1044B0000E9452F88AE00E94F7380E94F7320E9468
:1044C0008EAD0C94313080914302882311F40C940A
:1044D000313089E40E94F537E82E882321F00E94CC
:1044E0004937F62E01C0F12C8AE40E94F537182FC7
:1044F000882321F00E944937062F01C000E0EE20FA
:1045000019F0B2E0BF1520F0112381F0033070F0F4
:10451000EBECF2E084918F010F5F1F4F882311F4C1
:104520000C9431300E94F738F801F4CF0E94E33840
:10453000EE20F1F02091180C3091190C4F2D420310
:10454000B001439F700D112480915D1590915E150F
:10455000680F791F072E000C880B990B0F94092701
:1045600060935D0470935E0480935F049093600495
:104570001123E9F020911A0C30911B0C0203B001B9
:10458000039F700D112480915F1590916015680F45
:10459000791F072E000C880B990B0F940927609345
:1045A000610470936204809363049093640480E5D3
:1045B0000E94F5378823E9F00E946A378823E9F0E2
:1045C0001123D9F020E030E040E751E4609161042C
:1045D0007091620480916304909164040F94802B25
:1045E0006093610470936204809363049093640405
:1045F00004C080E50E94AC37E1CF86E40E94F53725
:104600008823D9F00E9479376B017C0120E030E0EB
:10461000A9010F94A62D181684F420E030E040E79D
:1046200052E4C701B6010F945C2C609311027093A1
:10463000120280931302909314020F94140E0C94A0
:104640003130909358030C943130EBE52E2EE2E09C
:104650003E2EF2E5EF2EFCE0FF2E88EA94E099AFC3
:1046600088AFA8E9CA2EA4E0DA2E00E010E0D1015C
:104670008D911D010E94F537882309F44BC00E94DB
:1046800079372B013C01133049F0F601208131814B
:10469000428153810F947F2B2B013C01A8ADB9AD12
:1046A0002D913D914D915C91C301B2010F947F2BEF
:1046B0004B015C012DEB37E346E855EB0F94A62D3B
:1046C00087FD0AC02DEB37E346E855E3C501B40189
:1046D0000F9403271816F4F4133051F44092B404E5
:1046E0005092B5046092B6047092B70401E012C013
:1046F000A5019401F70160817181828193810F94FA
:10470000802BD7016D937D938D939C931397812F6D
:104710000E94FE341F5FB4E0EB0EF11CE8ADF9AD72
:104720003496F9AFE8AFF4E0CF0ED11C143009F0A5
:104730009ECF002321F084EB94E00E947BE30E9453
:104740008EAD0C9431300E94326E0C9431308091D9
:104750008315909184158937910509F4A6C70CF04B
:104760002AC18E34910509F4B0C40CF09AC08A3184
:10477000910509F464C3ECF58431910509F457C23D
:104780007CF48131910509F4CDC22CF4029708F430
:1047900051C20C94E22F429709F4EDC50C94E22F1C
:1047A0008731910509F40BC374F48531910509F43F
:1047B00002C3469711F00C94E22F10928E091092CA
:1047C0008F090C9431308831910509F40EC3499753
:1047D00011F00C94E22F10928E090E941FEE86E2D7
:1047E00093E090935504809354040E9452350C94A6
:1047F00031308032910509F4CCC3ACF58D3191058F
:1048000011F40C94313094F48B31910509F425C3E3
:104810004C9711F00C94E22F40E060E080918115FC
:10482000909182150E9485E50C9431308E3191056E
:1048300009F4ABC34F9711F00C94E22F0E94D0ED16
:1048400068A379A38AA39BA3BE016F5F7F4FCE01AC
:1048500080960E94013860E0CE0101960E94236597
:10486000E2E4FCE1E2C38B34910509F428C464F46A
:104870008A32910509F4EFC3C09711F00C94E22F2E
:104880000E946D980C9431308C34910509F41AC44F
:104890008D34910511F00C94E22F0E94EAF80C94EB
:1048A00031308C36910509F49FC40CF047C0853532
:1048B000910509F463C54CF58235910509F454C599
:1048C000D4F48135910511F00C94E22F0E94B7E7E2
:1048D0000E944F55109254151092531568EE73E0D4
:1048E00080E090E00E94666460E08CE993E00E94C2
:1048F000E9640C9431308335910509F438C5843569
:10490000910509F438C50C94E22F8936910509F414
:104910009FC454F48C35910509F449C58836910536
:1049200009F4D6C30C94E22F8A36910509F4F0C439
:104930008B36910509F408C50C94E22F8237910556
:1049400009F4BDC5CCF48F36910509F4FAC354F4CB
:104950008D36910509F4BCC48E36910509F4E0C387
:104960000C94E22F8037910509F441C481379105F9
:1049700009F444C40C94E22F8637910509F446C625
:1049800054F48337910509F44FC18537910509F433
:104990002EC60C94E22F8737910509F483C6883719
:1049A000910511F00C94E22F81E080930105809332
:1049B00000050C943130813921E0920711F40C94F8
:1049C0003B2E0CF08DC08E3C910509F4E3C70CF032
:1049D00043C08E3B910509F498C4C4F48C3891050A
:1049E00009F479C44CF48D37910511F00C94E22F41
:1049F0000E94B7AC0C9431308139910509F45AC644
:104A00008B39910509F43FC40C94E22F8B3C91053E
:104A100009F430C7A4F4883C910509F4C3C6893C65
:104A2000910511F00C94E22F8BE5E82E82E0F82E30
:104A300009EF16E099E0C92E97E0D92E03C78C3C08
:104A4000910509F432C78D3C910511F00C94E22FC9
:104A50000E9436AC0C9431308C3241E0940711F452
:104A60000C94A22DDCF48D3D910509F4C8C754F4D3
:104A7000833D910509F4B3C78C3D910509F4B2C794
:104A80000C94E22F823E910511F40C946E2D82322B
:104A9000914011F40C94972D0C94E22F8F32B1E0D9
:104AA0009B0711F40C94222E6CF48D32F1E09F07D9
:104AB00011F40C94CB2D8E32914011F40C94CE2D28
:104AC0000C94E22F833631E0930709F4A9C08039B2
:104AD000914011F00C94E22F0E9411550C9431304A
:104AE000883552E0950711F40C94792E0CF04AC0E9
:104AF0008C3AB1E09B0709F46FC70CF58A39F1E0F5
:104B00009F0709F478C364F48239914011F00C9442
:104B1000E22F80E00E945E340E948EAD0C94313012
:104B2000843A41E0940711F40C94402E853A914068
:104B300011F00C94E22F0E940BC50C943130863F8B
:104B4000A1E09A0711F40C94462E7CF4843FE1E036
:104B50009E0711F40C94432E853F914011F00C9464
:104B6000E22F0F94080E0C943130873F21E092071A
:104B700011F40C94492E883F914011F40C94552E59
:104B80000C94E22F8B3843E0940711F40C943130ED
:104B90002CF58E3BA2E09A0711F40C94052F7CF4BF
:104BA0008B35E2E09E0711F40C947C2E8D3B9240F5
:104BB00011F00C94E22F0E94DCC00C94313083354C
:104BC00023E0920711F40C94082F8A38934011F0D7
:104BD0000C94E22F0E9479BF0C943130823943E06B
:104BE000940711F40C94822F7CF48F38A3E09A0779
:104BF00011F40C946D2F8039934011F00C94E22F36
:104C00000E94E0BE0C943130803AE3E09E0709F444
:104C1000FFC1873E934011F40C94CF2F0C94E22FE8
:104C2000E1EDFEE20C94282EEEE8F4E085C4E5E127
:104C3000F3E083C0A0908115B090821580E50E94BA
:104C4000F537882359F00E9439376B017C0111E058
:104C5000672B682B692B31F410E004C010E0C12CE5
:104C6000D12C760183E50E94F537882311F40C944A
:104C700019310E94793720E030E04AE754E40F947C
:104C800068270F94C92C6B017C0111110BC0672B95
:104C9000682B692B39F4A114B10421F0D5018C9152
:104CA000811102C010E001C011E00E9411551123D2
:104CB00029F061E0C5010E94236505C060E08AEE2D
:104CC00092E00E94E96483E08093880481E080930D
:104CD0008704C114D104E104F104B1F00E942C75E1
:104CE000C60ED71EE81EF91E0E942C75DC01CB01F2
:104CF0008C199D09AE09BF09B7FF0EC080918704CA
:104D000081110C941E3108C080918704882321F002
:104D100080E00E94C6D5F8CF0E94A37A1092870443
:104D20000C94313060E08DEF92E00E94E9641798B6
:104D30001698159814980C94313084918F010F5F58
:104D40001F4F882321F00E94F738F801F6CF109208
:104D50000B0C8EEB99E00E947CA18BE1EEEBF9E06D
:104D6000DE01159601900D928A95E1F78091BC09BC
:104D70009091BD099C838B8381E992E09A8389831A
:104D800040E050E0BE016F5F7F4F80E090E00E9406
:104D90009F93CE0101960E9445D5E6E0F3E0849111
:104DA0008F010F5F1F4F882311F40C9431300E9444
:104DB000F738F801F4CF0E9406E20C943130E0910C
:104DC0008115F09182158081882329F0803209F4C1
:104DD00010823196F8CF40E061E08091811590918A
:104DE00082150E9485E50C94313080E090E0A8E4C3
:104DF000B2E489839A83AB83BC8318A219A21AA256
:104E00001BA21CA61DA61EA61FA68091E30E88232A
:104E100059F020E0AE014F5F5F4FBE01605E7F4FF3
:104E2000CE018C960E945F6D80918F09882319F0C6
:104E300081E080938E090E94A3F80C943130809118
:104E40008F09882311F40C94313083E50E94F537E3
:104E500081110C9423310C94313083E40E94AC37DF
:104E6000882309F450C0E8E5F3E084918F010F5FD7
:104E70001F4F882321F00E94F738F801F6CF809168
:104E8000590B811103C0EBE2F3E012C0BE016F5F6A
:104E90007F4F86E59BE00E9449A18E010F5F1F4F67
:104EA000F80181918F01882349F10E94F738F8CFEA
:104EB00084918F010F5F1F4F882301F10E94F73803
:104EC000F801F6CF74E7C72E73E0D72EE12CF12C52
:104ED00020E08091220490E00E2C02C095958795E9
:104EE0000A94E2F780FD5DC1FFEFEF1AFF0A32E09E
:104EF000C30ED11C45E0E416F10459F78AE00E9484
:104F0000F7380C94313080918F09882339F08091E3
:104F10008E09882319F0E5E3F3E003C0E7E4F3E04A
:104F200028C084918F010F5F1F4F882321F00E94BA
:104F3000F738F801F6CF6091070C7091080C80915A
:104F4000090C90910A0C4AE00E949F3B8FE20E945C
:104F5000F7386091030C7091040C8091050C9091CE
:104F6000060C4AE00E949F3B8AE00E94F7380C94AE
:104F7000313084918F010F5F1F4F882311F40C94FF
:104F800031300E94F738F801F4CF0E941ED10C9402
:104F9000313080918E0981110E94115580918F09C5
:104FA000882311F40C94313080E50E94F537882372
:104FB00019F00E946A3703C080E50E94AC37182FB1
:104FC000482F61E080918115909182150E9485E5BE
:104FD00083E50E94F537882381F00E944937AB01B1
:104FE000BC014093070C5093080C6093090C70931C
:104FF0000A0C86E59BE00E94E59E80918F0988233C
:1050000019F081E080938E0911110C94313013CF87
:10501000809181159091821521E020938D0940E0C7
:1050200060E00E9485E50C94313084918F010F5F20
:105030001F4F882321F00E94F738F801F6CFBE01F8
:105040006F5F7F4F87E693E00E9488F88AE00E94B6
:10505000F7380C94313083E50E94F537882311F43A
:105060000C9431300E945937E82E80E50E94F537C4
:10507000882331F00E945937182F87FF02C0F1C7EB
:105080001DE089E40E94F537882351F00E946A37B9
:1050900081110C94D231E5E9F5E082EC95E00AC08B
:1050A00089E40E94AC37F4CF31968E179F0711F434
:1050B0000C94D23124911213F7CF0C9433310E9407
:1050C000A3F8CFC70E941FEECCC70E945597C9C74F
:1050D00088E690E00E940A3C8111C3C780912204B7
:1050E00083FF01C0BEC783E50E94F5378823A9F07E
:1050F0000E9479370F94C42CCB010E948A640E94CD
:10510000793720E030E04AEA52E40F94032718167A
:1051100024F00E94EAF80E94A37A0E946CFAA1C7C8
:105120008EE40E94F537882309F49BC70E94493713
:105130006093DF0E7093E00E8093E10E9093E20E89
:1051400090C783E50E94AC37882359F083E50E941D
:10515000F537882319F00E94593701C080E0809309
:105160002204E2E4FCE184918F010F5F1F4F811163
:1051700003C0E2E8F3E004C00E94F738F801F3CF7F
:1051800084918F010F5F1F4F882321F00E94F73811
:10519000F801F6CF80912204811194CEEEE7F3E07E
:1051A00018C0BB24B394B20E222319F08CE20E94E3
:1051B000F738F60185919491FC0184918F010F5F7E
:1051C0001F4F882321F00E94F738F801F6CF2B2DCE
:1051D0008BCE84918F010F5F1F4F882309F48ECEF1
:1051E0000E94F738F801F5CF10921B023AC789E800
:1051F00093E00E9477D50E9469C733C783E50E9478
:10520000F537811103C0E2E4FCE10BC00E9459377D
:105210008D3318F480933D0224C78CE380933D02C4
:1052200020C784918F010F5F1F4F882321F00E94B8
:10523000F738F801F6CF40913D0250E060E070E0B1
:1052400082E993E00E9435F88AE00E94F73809C7A6
:1052500089E690E00E940A3C811111C0E9E9F3E07F
:1052600084918F010F5F1F4F882321F00E94F73830
:10527000F801F6CF0E9442748AE00E94F73810923B
:1052800088040C94E73183E50E94F537882309F4FC
:10529000E8C60E945937182F8D3308F01CE310938D
:1052A000510C0E942C756B017C01212F30E0A8EE7F
:1052B000B3E00F94702BC60ED71EE81EF91EC092E5
:1052C0004D0CD0924E0CE0924F0CF092500CC9C68F
:1052D0000E946595C6C68091220483FDC2C683E5FF
:1052E0000E94F537882309F4BCC60E9479370F94D1
:1052F000C42C6436710514F064E670E070935215A6
:10530000609351150E946BE7ACC60E94B1AEA9C66E
:1053100080E50E94F537811106C083E50E94F537CC
:10532000882359F005C00E94593781119AC6F5CFDC
:105330000E9449376F3F710510F06FEF70E0709376
:105340005415609353158DC680E50E94F537811181
:1053500005C0109254151092531583C60E94493708
:10536000672B09F07EC6F5CF109257037AC681E00D
:105370008093570376C60E9458AE73C683E50E9499
:10538000AC37882309F46DC60E94793720E030E0FD
:105390004AE754E40F9468270F94C92C6093490C92
:1053A00070934A0C80934B0C90934C0C5AC65BE55F
:1053B000C52E52E0D52E62ECE62E6CE0F62E10E003
:1053C000D6018D916D010E94AC37882309F46DC020
:1053D000133009F063C00E9479374B015C0120E073
:1053E00030E040EA51E40F94032787FF4EC0A50147
:1053F00094016091CE0C7091CF0C8091D00C909163
:10540000D10C0F945C2C2B013C019B01AC016091F1
:105410001D0770911E0780911F07909120070F9420
:10542000682760931D0770931E0780931F07909352
:105430002007A30192016091F5067091F606809114
:10544000F7069091F8060F9468276093F50670931D
:10545000F6068093F7069093F8066091520F7091CC
:10546000530F8091540F9091550F0F940727A3016C
:1054700092010F9468270F94C92C6093520F709378
:10548000530F8093540F9093550F8092CE0C9092AF
:10549000CF0CA092D00CB092D10C07C00E947937EB
:1054A000F70160837183828393831F5FF4E0EF0EC3
:1054B000F11C143009F084CF0E94D1FBD2C50E94A8
:1054C000115583E50E94F537882309F438C90E94F5
:1054D00049376230710509F032C90F94EE118BE53E
:1054E0000E94F73860918A0470918B0480918C043B
:1054F00090918D0442E00E94603C40918E04509156
:105500008F0460919004709191048CEA93E00E9462
:1055100052F84091920450919304609194047091D8
:10552000950489EA93E00E9452F88DE50E94F738CD
:105530008AE00E94F73895C584918F010F5F1F4F55
:10554000882321F00E94F738F801F6CF60E08EE75B
:1055500094E00E9457AD61E087E794E00E9457AD68
:1055600061E08CE694E00E9457AD61E08CE594E048
:105570000E9457AD60E083E594E00E9457AD61E082
:1055800089E494E00E9457AD61E08FE394E00E94CB
:1055900057AD61E087E394E00E9457AD61E089E296
:1055A00094E00E9457AD60E08BE194E00E9457AD1B
:1055B00060E08CE094E00E9457AD60E08EEF93E0F5
:1055C0000E9457AD60E088EE93E00E9457AD60E026
:1055D00087ED93E00E9457AD60E082EC93E00E947B
:1055E00057AD61E08FEA93E00E9457AD3AC58091D4
:1055F000811590918215DC012C91222321F060E02D
:105600000E9423652EC50E94A37A2BC500918115A7
:105610001091821583E0D12C40E08150E1F0F80137
:105620009081292F2B7F2134C1F721812133A9F7C4
:10563000913421F0953421F441E002C0DD24D3946B
:1056400098012E5F3F4F89012F5F3F4FD8019C91FA
:105650009032C9F3E2CF442369F0E2E4FCE18491A3
:105660007F01BFEFEB1AFB0A882321F00E94F73875
:10567000F701F5CFDD2069F0E1E5F5E084917F01E8
:105680002FEFE21AF20A882321F00E94F738F7017F
:10569000F5CFD8018D918D01882309F42FCC0E947C
:1056A000F738F7CF0F948803DCC4109201051092ED
:1056B0000005D7C483E50E94F537882319F00E94BE
:1056C000493702C060E070E08B01112702301105FC
:1056D000D4F0E1EDFEE284918F010F5F1F4F811145
:1056E00003C0E5E5F5E004C00E94F738F801F3CF08
:1056F00084918F010F5F1F4F882309F4B2C40E9469
:10570000F738F801F5CF88E40E94F5378823A9F02F
:105710000E9449376A3A71053CF06F30B1E07B076F
:105720002CF06EE071E002C06AEA70E0F801EE0F62
:10573000FF1FEF52F94F7183608386E40E94F537B3
:105740008823A9F00E944937F801EE0FFF1FEB52A2
:10575000F94F718360836F3F710519F014F06FEF9B
:1057600070E077FF02C060E070E07183608382E4E4
:105770000E94F537882309F474C40E9449376530C4
:10578000710534F0663571052CF065E570E002C0F6
:1057900065E070E0000F111FF801E353F94F7183CA
:1057A00060835FC488EC90E00E940A3C811159C478
:1057B00084E40E94AC37882309F441C00E94793701
:1057C0006B017C0111E020E030E0A9010F94032778
:1057D000811101C010E010933F0C20E030E0A901DE
:1057E000C701B6010F940327882349F10E94793736
:1057F000E091BA0424E0E29FF0011124E55CF34F4C
:10580000608371838283938320E030E0A9016091FB
:105810003B0C70913C0C80913D0C90913E0C0F9490
:10582000032781110CC080E090E0A0EEBFE38093DD
:105830003B0C90933C0CA0933D0CB0933E0C0E940B
:1058400042FC0FC4D7018D917D010E94AC378823A3
:1058500049F00E9479370F94C92CF8016083718355
:10586000828393830C5F1F4FC016D10659F70E94A5
:105870009CFAF7C30BE5E02E02E0F02E09EE16E0ED
:10588000D7018D917D010E94AC37882339F00E94A9
:105890007937F80160837183828393830C5F1F4F94
:1058A000F6E0093F1F0761F7DCC383E50E94F53787
:1058B0008823A1F00E94793760930D0770930E073B
:1058C00080930F07909310076093090770930A075E
:1058D00080930B0790930C0710E001C011E080E566
:1058E0000E94F537882359F00E94793760930D079D
:1058F00070930E0780930F079093100710E082E5D6
:105900000E94F537882359F00E9479376093830409
:1059100070938404809385049093860410E084E55A
:105920000E94F537882359F00E9479376093090760
:1059300070930A0780930B0790930C0792C311236F
:1059400009F48FC340910D0750910E0760910F0726
:10595000709110078DE795E00E9452F84091830402
:105960005091840460918504709186048AE795E0E3
:105970000E9452F84091090750910A0760910B0765
:1059800070910C0787E795E00E9452F88AE00E9428
:10599000F73867C3BBE5CB2EB2E0DB2E13E0E12E78
:1059A00015E0F12E10E0D6018D916D010E94AC370B
:1059B000882351F00E947937F701608371838283D5
:1059C0009383812F0E94FE341F5FF4E0EF0EF11CE1
:1059D000133049F70C949F230E9405C442C30E94D0
:1059E00058AB3FC383E50E94F537882309F439C3D8
:1059F0000E944937709323026093220232C38DEDD7
:105A000090E00E940A3C81112CC383E50E94F53787
:105A1000811103C0E2E4FCE13BC00091BA0410E054
:105A20000E944937000F111FF801E05EFD4F71839E
:105A300060838091BA0490E08C01000F111F000F69
:105A4000111F9801245E3D4F7901880F991FFC01B9
:105A5000E05EFD4F60817181072E000C880B990B71
:105A60000F9409272AE037ED43E25CE30F9468279F
:105A7000F801E454F94F20813181428153810F9420
:105A80006827D7016D937D938D939C931397E9C2FB
:105A900084918F010F5F1F4F882321F00E94F738F8
:105AA000F801F6CF85E40E94F7388091BA04805D52
:105AB0000E94F738E091BA04F0E0EE0FFF1FE05EBD
:105AC000FD4F608171818DE895E00E946FF885E25D
:105AD0000E94F7388AE00E94F738C3C280E50E942E
