:100000000C944F1A0C94801A0C94801A0C94801A39
:100010000C94801A0C94801A0C94801A0C94801AF8
:100020000C94801A0C9418C60C9418C60C9418C61C
:100030000C94801A0C94801A0C94801A0C94801AD8
:100040000C94801A0C9468D80C94801A0C94801A22
:100050000C94801A0C94801A0C9453EE0D94ED0CB1
:100060000C94801A0C9443390C9439390C94801AEE
:100070000C94801A0C94801A0C94801A0C94801A98
:100080000C94801A0C94801A0C94801A0C94801A88
:100090000C94801A0C94801A0C94801A0C94801A78
:1000A0000C94801A0C94801A0C94801A0C94801A68
:1000B0000C94801A0C94801A0C94801A0C94801A58
:1000C0000C94801A0C94801A0C94801A0C94801A48
:1000D0000C94801A0C94801A0C94801A0C94801A38
:1000E0000C94801A60C363C352C356C35CC39AC3E3
:1000F00067C36BC371C375C379C37FC383C387C32E
:100100009AC38DC391C395C3E20144019C011801B8
:10011000D00022017801EA01320112012401AC0170
:100120004A01FE0022018C01D800E800084AD73BB2
:100130003BCE016E84BCBFFDC12F3D6C74319ABDB6
:1001400056833DDA3D00C77F11BED9E4BB4C3E91DA
:100150006BAAAABE000000803F05A84CCDB2D44EC9
:10016000B93836A9020C50B9918688083CA6AAAACB
:100170002ABE000000803F000C948F6E0C9425E690
:100180000C94FE970C9436750C945CC30C942A75F1
:100190000C9495C30C948D390C94C0740C94C8AC19
:1001A0000D94250C0C948B510C94536C0C94B999B0
:1001B0000D948A0C0C9473780C94626C0C9412BDA0
:1001C0000C9467C30C94A6EA0C9462650C9475C3F6
:1001D0000D94940C0C949F6E0C94A5980C946F6DD8
:1001E0000C947F6E0C9452C30C94BB780C9497BF04
:1001F0000C9455980C947B650C94C3AE0D94760CBE
:100200000C944AC00C94736C0C94F5720D94AA185B
:100210000C947FC30C94BCAC0C9493AC0C94BEAE09
:100220000C94CBD70D94490C0C9406980C941D9803
:100230000D941B0C0C94F8780C9411AF0C94CB9883
:100240000C9460C30D949E0C0D94530C0C94B9AE99
:100250000C9477980C9449AC0C94FA710C9400753A
:100260000C9488AC0D943F0C0C94C9720C9494655A
:100270000C942DBE0C94BAEA0C9419AF0C94776AC6
:100280000C94DFB00C94F8790D940C0C0C949AC378
:100290000C9472510D946C0C0D94DB160C944F5110
:1002A0000C941BEE0C94776E0C94C08C0C940499F7
:1002B0000C94ABB10C94A3780C944CC00C9464785F
:1002C0000C9484720C94B4AE0C9480550C944875C4
:1002D0000C94BE980C94DC720C947E550C94B672FF
:1002E0000C9471C30C94756D0C94A2AC0C9498ACE6
:1002F0000D942F0C0C94B9570C946B720C94CEACDB
:100300000C94077A0C942BBE0C947B6D0C946BC3ED
:100310000C942FBE0C9456C30D94800C0C94FE725A
:100320000C9491780C94746A0C9479C30C94C779EA
:100330000C949DAC0C9487C30D94110C0C94EC9B05
:100340000C9433980C9445720C94C1760C940AADBD
:100350000C94716A0C9424750D945D0C0C94A09807
:100360000C941F700C94CC980C9483C30C9442751D
:100370000C944C990C9448C00C9446C00C94AF78E3
:100380000C94B4670C94F0980C9458720C941275F9
:100390000C94B0770C9413720C9436590C94DF7152
:1003A0000C949D720C94F4780C94D4980C94307541
:1003B0000C9418750C9406750C94C2AC0C940C75C6
:1003C0000C94FE700D94070C0C94876E0C942C7298
:1003D0000C949B980D94370C0C9491C30C94B89882
:1003E0000C949D6E0C948DC30C9482780C94976E33
:1003F0000C94C5770C943C750C94AE980C948A3987
:100400000C9444C00C9427BE0C941E750C9463C3CA
:100410000C9429BE4E414E494E495459494E46CD41
:10042000CCCC3D0AD7233C17B7D13877CC2B3295AB
:1004300095E6241FB14F0A000020410000C8420089
:10044000401C4620BCBE4CCA1B0E5AAEC59D740053
:10045000407A10F35A00A0724E18090010A5D4E893
:100460000000E87648170000E40B54020000CA9A26
:100470003B000000E1F50500008096980000004078
:10048000420F000000A086010000001027000000BD
:1004900000E803000000006400000000000A000003
:1004A0000000000100000000002C76D888DC674FB7
:1004B0000823DFC1DFAE59E1B1B796E5E3E453C6E7
:1004C0003AE651997696E8E6C28426EB898C9B62DF
:1004D000ED407C6FFCEFBC9C9F40F2BAA56FA5F489
:1004E00090055A2AF75C936B6CF9676DC11BFCE0B1
:1004F000E40D47FEF520E6B500D0ED902E03009404
:100500003577050080841E080000204E0A00000098
:10051000C80C333333330F986E12831141EF8D21A2
:1005200014893BE65516CFFEE6DB18D1844B381B09
:10053000F77C1D901DA4BBE424203284725E2281CE
:1005400000C9F124ECA1E53D27434F4D4D554E49DF
:10055000434154494F4E0044525952554E00455262
:10056000524F525300494E464F004543484F0053A7
:100570006C6565702E2E2E005A2050726F626520B9
:1005800050617374204265640A005A2050726F6291
:100590006520506173742042656400486F6D65206A
:1005A00058592066697273740A00486F6D65205847
:1005B00059204669727374004D65736820706F69C5
:1005C0006E742063616E6E6F742062652072657355
:1005D0006F6C7665640A00436C69636B20746F20EE
:1005E000526573756D652E2E2E004E6F204D6F7601
:1005F000652E00456E642066696C65206C697374B5
:100600000A00426567696E2066696C65206C6973D3
:10061000740A00286E6F2066696C65290043757244
:1006200072656E742066696C653A200053442070D0
:1006300072696E74696E67206279746520004E6F0E
:1006400074205344207072696E74696E670A0044A6
:10065000656C6574696F6E206661696C65642C20D9
:1006600046696C653A200046696C652064656C6576
:100670007465643A005072696E742074696D653AED
:100680002000496E76616C69642050696E204D6F60
:1006900064650A000A53746174733A2046696C6198
:1006A0006D656E7420757365643A20002C204C6F64
:1006B0006E67657374206A6F623A2000546F7461CC
:1006C0006C2074696D653A20002C204661696C6568
:1006D000643A20002C2046696E69736865643A208C
:1006E000005072696E74733A200053746174733AE7
:1006F00020006F66660044454255473A004D31314F
:10070000322053687574646F776E004D3131332039
:10071000530053696C656E74206275742044616582
:1007200064616C7573204F46462E004348414D422C
:1007300045525F54454D5045524154555245004D28
:100740004F54494F4E5F4D4F444553005448455216
:100750004D414C5F50524F54454354494F4E004118
:1007600055544F5245504F52545F53445F53544178
:100770005455530050524F4D50545F535550504FA5
:10078000525400454D455247454E43595F504152E2
:1007900053455200434153455F4C494748545F42DB
:1007A00052494748544E45535300544F47474C45D0
:1007B0005F4C494748545300534F465457415245A4
:1007C0005F504F574552004255494C445F50455287
:1007D00043454E54004C4556454C494E475F4441B5
:1007E0005441005A5F50524F4245004155544F4CBE
:1007F0004556454C005052494E545F4A4F420050B6
:10080000524F4752455353004155544F5245504F54
:1008100052545F54454D5000564F4C554D4554521F
:1008200049430042494E4152595F46494C455F5445
:1008300052414E534645520053455249414C5F5830
:100840004F4E5F584F4646004649524D574152451C
:100850005F4E414D453A4D61726C696E20322E30CB
:100860002E352E3320284769744875622920534F4E
:10087000555243455F434F44455F55524C3A687467
:100880007470733A2F2F6769746875622E636F6D89
:100890002F4D61726C696E4669726D776172652F5A
:1008A0004D61726C696E2050524F544F434F4C5FF4
:1008B00056455253494F4E3A312E30204D41434810
:1008C000494E455F545950453A53696C656E7420E2
:1008D0006275742044616564616C75732045585479
:1008E00052554445525F434F554E543A3120555569
:1008F00049443A63656465326132662D3431613250
:100900002D343734382D396231322D633535633625
:10091000326633363766660A002F2F20004D313499
:100920003520533C696E6465783E206F7574206F86
:10093000662072616E67652028302D31290A0041DA
:100940006363656C65726174696F6E3A2050003F35
:100950004A206F7574206F662072616E676520286B
:10096000302E303120746F20302E33290A00465249
:100970003A0020466C6F773A200050726F746563BE
:100980007465642050696E0A00496E76616C696412
:100990002065787472756465720A0020643A0020DC
:1009A000693A0020703A006469730043290A0061C3
:1009B000626C656420286D696E2074656D7020001E
:1009C000436F6C642065787472756465732061721E
:1009D0006520004D34323120696E636F7272656339
:1009E0007420706172616D657465722075736167E2
:1009F000650A004F666673657473204170706C6998
:100A00006564004572723A20546F6F2066617221EE
:100A100000546F6F206661722066726F6D20726580
:100A2000666572656E636520706F696E740A004555
:100A30004550524F4D204F4B0A0020647269766535
:100A4000722063757272656E743A20002074656D51
:100A50007065726174757265207072657761726E0F
:100A6000207472696767657265643A200020686F58
:100A70006D696E672073656E7369746976697479E0
:100A80003A2000446F6E65207072696E74696E67FB
:100A90002066696C650A004D3737004D3331006AB6
:100AA0000565055E05570549054572726F72207729
:100AB000726974696E6720746F20454550524F4DBE
:100AC000210A00627573793A20706175736564203C
:100AD000666F7220696E7075740A00627573793A78
:100AE0002070617573656420666F7220757365721E
:100AF0000A00627573793A2070726F636573736967
:100B00006E670A006D41290A002064726976657279
:100B1000206F76657274656D70657261747572654B
:100B2000207761726E696E672120280020637572DC
:100B300072656E74206465637265617365642074A8
:100B40006F200053544F505045442E20005072697E
:100B50006E7465722073746F70706564206475655F
:100B600020746F206572726F72732E204669782030
:100B7000746865206572726F7220616E642075738F
:100B800065204D39393920746F2072657374617234
:100B9000742E202854656D706572617475726520BD
:100BA00069732072657365742E20536574206974AF
:100BB0002061667465722072657374617274696E07
:100BC00067290A004E6F20436865636B73756D205B
:100BD00077697468206C696E65206E756D626572E8
:100BE0002C204C617374204C696E653A2000636858
:100BF00065636B73756D206D69736D617463682CCB
:100C0000204C617374204C696E653A20004C696E0B
:100C100065204E756D626572206973206E6F742059
:100C20004C617374204C696E65204E756D626572FF
:100C30002B312C204C617374204C696E653A200076
:100C40004D31313000534420726561642065727209
:100C50006F720A002121204B494C4C20636175734F
:100C60006564206279204B494C4C20627574746F26
:100C70006E2F70696E0A002121204B494C4C206375
:100C8000617573656420627920746F6F206D756380
:100C90006820696E6163746976652074696D65208A
:100CA0002D2063757272656E7420636F6D6D616E59
:100CB000643A2000506C65617365205265736574F9
:100CC000005052494E5445522048414C544544002E
:100CD00025533A202553004B494C4C45442E2000C7
:100CE0005072696E7465722068616C7465642E2040
:100CF0006B696C6C28292063616C6C6564210A0047
:100D0000363726033B3C3D380E3F2E303E12281A24
:100D10001C182A08440A07430809070001206D61CE
:100D2000783A2000206D696E3A2000236465666978
:100D30006E652044454641554C545F004B6420008D
:100D40004B6920004B702000504944204175746F5E
:100D500074756E652066696E6973686564212050DC
:100D6000757420746865206C617374204B702C203E
:100D70004B6920616E64204B6420636F6E737461F5
:100D80006E74732066726F6D2062656C6F77206978
:100D90006E746F20436F6E66696775726174696FF8
:100DA0006E2E680A00504944204175746F74756E48
:100DB00065206661696C6564212074696D656F7575
:100DC000740A000A20436C617373696320504944BC
:100DD000200A00204B643A2000204B693A20002072
:100DE0004B703A20002054753A2000204B753A2071
:100DF0000020643A200020626961733A2000504963
:100E000044204175746F74756E65207374617274DB
:100E10000A00504944204175746F74756E652066F0
:100E200061696C6564212054656D706572617475CB
:100E3000726520746F6F20686967680A00504944C2
:100E4000204175746F74756E65206661696C6564A8
:100E50002120426164206578747275646572206E29
:100E6000756D6265720A007C4D61726C696E7C0002
:100E70002D2D2D2D2D2D00A10000006900A20000B8
:100E8000006300B00000000900C10000004100C282
:100E90000000004100C30000004100C40000004108
:100EA00000C50000004100C60000004145C7000029
:100EB000004300C80000004500C90000004500CD07
:100EC0000000004900D10000004E00D50000004F96
:100ED00000D60000004F00D70000007800DC0000C2
:100EE000005500DD0000005900E00000006100E155
:100EF0000000006100E20000006100E3000000610A
:100F000000E40000006100E50000006100E6000070
:100F1000006165E70000006300E80000006500E98B
:100F20000000006500EA0000006500EB00000065BD
:100F300000EC0000006900ED0000006900EE000018
:100F4000006900EF0000006900F10000006E00F28F
:100F50000000006F00F30000006F00F40000006F5D
:100F600000F50000006F00F60000006F00F80000C0
:100F7000006F00F90000007500FA0000007500FB2A
:100F80000000007500FC0000007500FD0000007905
:100F900000FF00000079000401000041000501008D
:100FA0000061000601000043000701000063000C1F
:100FB00001000043000D01000063000E0100004429
:100FC000000F01000064001101000064001901001D
:100FD0000065001F0100006700300100004900317A
:100FE0000100006900410100004C00420100006C5A
:100FF00000430100004E00440100006E0048010063
:10100000006E005901000072005A01000053005B9D
:1010100001000073005F01000073006001000053D5
:10102000006101000073006501000074006F0100A1
:101030000075007C0100007A007D0100005A007EEE
:101040000100007A00920100006600E302000078CF
:1010500000222000002E001E2100005078222100D6
:1010600000544D902100003C2D922100002D3EB0F7
:101070002100000300BB21000004003C2200007E90
:1010800000482200007E3D60220000213D612200D8
:10109000003D00642200003C3D652200003E3DF121
:1010A0002300000700A03000003D0021F3010002F2
:1010B00000C2F401000500A2000000EC00B0000036
:1010C00000DF00E4000000E100F6000000EF00F7A0
:1010D000000000FD00FC000000F500E3020000EB52
:1010E0000087030000A5008F030000F400980300B0
:1010F00000F2009E030000E300A3030000F600A935
:10110000030000F400AC030000E000AD030000E3C6
:1011100000B1030000E000B2030000E200B50300EC
:1011200000E300B8030000F200BC030000E400BECE
:10113000030000E300C0030000F700C1030000E665
:1011400000C3030000E500902100007F0092210011
:10115000007E001A220000E8001E220000F3008832
:10116000250000FF0002300000A1000C300000A2AA
:10117000000D300000A3009B300000DE009C30001A
:1011800000DF00A03000003D00A1300000A700A259
:10119000300000B100A3300000A800A4300000B26D
:1011A00000A5300000A900A6300000B300A7300061
:1011B00000AA00A8300000B400A9300000AB00AACB
:1011C000300000B500AB300000B600AC300000B617
:1011D000DEAD300000B700AE300000B7DEAF30004B
:1011E00000B800B0300000B8DEB1300000B900B285
:1011F000300000B9DEB3300000BA00B4300000BAED
:10120000DEB5300000BB00B6300000BBDEB73000FA
:1012100000BC00B8300000BCDEB9300000BD00BA30
:10122000300000BDDEBB300000BE00BC300000BEA0
:10123000DEBD300000BF00BE300000BFDEBF3000AA
:1012400000C000C0300000C0DEC1300000C100C2DC
:10125000300000C1DEC3300000AF00C4300000C267
:1012600000C5300000C2DEC6300000C300C7300039
:1012700000C3DEC8300000C400C9300000C4DECAAC
:10128000300000C500CB300000C600CC300000C7E5
:1012900000CD300000C800CE300000C900CF3000C3
:1012A00000CA00D0300000CADED1300000CADFD250
:1012B000300000CB00D3300000CBDED4300000CBB8
:1012C000DFD5300000CC00D6300000CCDED73000B7
:1012D00000CCDFD8300000CD00D9300000CDDEDA00
:1012E000300000CDDFDB300000CE00DC300000CE6F
:1012F000DEDD300000CEDFDE300000CF00DF30006A
:1013000000D000E0300000D100E1300000D200E267
:10131000300000D300E3300000AC00E4300000D423
:1013200000E5300000AD00E6300000D500E73000F9
:1013300000AE00E8300000D600E9300000D700EA37
:10134000300000D800EB300000D900EC300000DAAB
:1013500000ED300000DB00EF300000DC00F2300078
:1013600000A600F3300000DD00F4300000B3DEF72B
:10137000300000DCDEFA300000A6DEFB300000A505
:1013800000FC300000B000FD300000A400074E005B
:1013900000FB0086510000FC0043530000FA00648B
:1013A000FF0000A40065FF0000A50066FF0000A686
:1013B0000067FF0000A70068FF0000A80069FF00A9
:1013C00000A9006AFF0000AA006BFF0000AB006CE0
:1013D000FF0000AC006DFF0000AD006EFF0000AE2E
:1013E000006FFF0000AF0070FF0000B00071FF0051
:1013F00000B10072FF0000B20073FF0000B3007480
:10140000FF0000B40075FF0000B50076FF0000B6D5
:101410000077FF0000B70078FF0000B80079FF00F8
:1014200000B9007AFF0000BA007BFF0000BB007C1F
:10143000FF0000BC007DFF0000BD007EFF0000BE7D
:10144000007FFF0000BF0080FF0000C00081FF00A0
:1014500000C10082FF0000C20083FF0000C30084BF
:10146000FF0000C40085FF0000C50086FF0000C625
:101470000087FF0000C70088FF0000C80089FF0048
:1014800000C9008AFF0000CA008BFF0000CB008C5F
:10149000FF0000CC008DFF0000CD008EFF0000CECD
:1014A000008FFF0000CF0090FF0000D00091FF00F0
:1014B00000D10092FF0000D20093FF0000D30094FF
:1014C000FF0000D40095FF0000D50096FF0000D675
:1014D0000097FF0000D70098FF0000D80099FF0098
:1014E00000D9009AFF0000DA009BFF0000DB009C9F
:1014F000FF0000DC009DFF0000DD009EFF0000DE1D
:10150000009FFF0000DF00E5FF00005C00001C1FE3
:1015100011111F00000006191803130C00040E1F00
:10152000041C000000000E1315110E00001C101802
:101530001705060500040A0A0A0A11110E0C1212F8
:101540000C00000000001F1511151F000000000016
:1015500000010204040000001C1C0C04040402012D
:101560000000000000040810000000000050726F2E
:1015700062696E6720506F696E740025532025697B
:101580002F25690050726F62696E67206D65736800
:1015900020706F696E742000202844525952554EB5
:1015A0002900473239204175746F20426564204C10
:1015B0006576656C696E67003F20284C2C522C467E
:1015C0002C4229206F7574206F6620626F756E64DF
:1015D000732E0A003F2856296572626F7365206C6E
:1015E0006576656C20696D706C61757369626C6598
:1015F0002028302D34292E0A00426164205A20769A
:10160000616C75650A004E6F2062696C696E656178
:101610007220677269640A00446576696174696F53
:101620006E0025533A202573005374616E64617215
:101630006420446576696174696F6E3A20002052B7
:10164000616E67653A20004D65616E3A200046691B
:101650006E6973686564210A002072616E67653A7D
:101660002000207369676D613A2000206D65616E0E
:101670003A20003A207A3A2000206F662000476F17
:10168000696E6720746F3A20580043570A0020643F
:1016900069723A0020616E676C653A00537461723A
:1016A00074207261646975733A004D343820506F4C
:1016B000696E740025533A2025642F256400506F0D
:1016C000736974696F6E696E6720746865207072E3
:1016D0006F62652E2E2E0A003F4E756D6265722078
:1016E0006F66206C65677320696E206D6F76656D1F
:1016F000656E74206E6F7420706C61757369626CB6
:10170000652028302D3135292E0A003F2028582CFD
:101710005929206F7574206F6620626F756E64732F
:101720002E0A003F53616D706C652073697A6520E5
:101730006E6F7420706C61757369626C65202834FB
:101740002D3530292E0A004D3438205A2D50726F15
:101750006265205265706561746162696C69747953
:1017600020546573740A004F6666004F6E00544D36
:101770004320447269766572730050726F6265200F
:101780005A204F66667365740046616E205370651B
:101790006564004E6F7A7A6C65004D61696E005326
:1017A0007465616C746843686F7020456E61626C2B
:1017B0006564005374657070696E67204D6F646571
:1017C0000053656E736F726C65737320486F6D693B
:1017D0006E67004472697665722043757272656E39
:1017E0007400436F6E74726F6C00466C6F770053B9
:1017F000440020202020202020002062797465737E
:101800003B20637263200053657474696E677320B4
:1018100053746F726564202800454550524F4D2027
:101820006461746173697A65206572726F722E0AE1
:10183000002073746F7265642073657474696E67D9
:10184000732072657472696576656420280045723C
:10185000723A20454550524F4D20435243002028B4
:1018600063616C63756C6174656429210A002021D1
:101870003D2000454550524F4D20435243206D6955
:10188000736D61746368202D202873746F726564B2
:101890002920004572723A20454550524F4D20494B
:1018A0006E64657800496E6465783A20004572720E
:1018B0003A20454550524F4D2056657273696F6E00
:1018C00000204D61726C696E3D563736290A00451D
:1018D0004550524F4D2076657273696F6E206D6969
:1018E000736D617463682028454550524F4D3D002B
:1018F00000004843000048430000484341647661CB
:101900006E6365642053657474696E677300496E15
:101910006974004D34323800496E697469616C69CC
:101920007A6520454550524F4D0046696C616D65A2
:101930006E740053746570732F6D6D0050726F621A
:1019400065204F666673657473004A65726B00416B
:101950006363656C65726174696F6E0056656C6F68
:10196000636974790053657420486F6D65204F6614
:10197000667365747300436F6E6669677572617430
:10198000696F6E00526573746F726520446566619D
:10199000756C7473004C6F61642053657474696E68
:1019A00067730053746F72652053657474696E6752
:1019B0007300507265686561742041425320436F23
:1019C0006E66005072656865617420504C4120431A
:1019D0006F6E66004261636B0053746F70004D322E
:1019E00031004368616E6765204D6564696100522E
:1019F0006573756D65205072696E74004E6F204D71
:101A0000656469610054756E650053746F70205091
:101A100072696E7400496E666F2053637265656EFD
:101A20000054656D70657261747572650050726501
:101A30006865617420504C4120456E6400507265A9
:101A40006865617420504C412042656400507265A5
:101A5000686561742041425320426564005072659C
:101A6000686561742041425320456E6400436F6F86
:101A70006C646F776E0050726568656174204142D6
:101A800053005072656865617420504C410046698E
:101A90006C2E204469612E004520696E206D6DC258
:101AA000B30020022046616374002002204D61785B
:101AB000002002204D696E004175746F74656D7071
:101AC000005654726176204D696E00566D696E0045
:101AD000566D6178204500566D6178205A00566D2C
:101AE0006178205900566D61782058006F70656EDE
:101AF00000545249474745524544007A5F6D696E2C
:101B000000795F6D696E00785F6D696E0052657077
:101B10006F7274696E6720656E6473746F70207382
:101B200074617475730A00486F6D696E6720466151
:101B3000696C6564005761726E696E673A20486F20
:101B40006D696E672042756D702044697669736FA8
:101B500072203C20310A000000A0C1000020C1001A
:101B600000000000004842000048420000A040027F
:101B7000020400000000000000000000004000001F
:101B80005C430000524300004843FFFFFF00000099
:101B90000100000001000080005555550000004084
:101BA0000033333300AAAA2A0049922400000020FF
:101BB00000C7711C0099991900D14517005555159A
:101BC000003BB11300244912001111110000001054
:101BD000000F0F0F00E3380E0043790D00CCCC0C42
:101BE00000C3300C00E8A20B0064210B00AAAA0A73
:101BF00000703D0A009DD80900427B09009224092B
:101C000000DCD308008888080010420800000008A3
:101C100000F0C107008787070075500700711C0797
:101C2000003EEB0600A1BC06006990060066660651
:101C300000703E06006118060017F4050074D10517
:101C4000005BB00500B290050062720500555505B5
:101C50000078390500B81E0500050505004EEC04A6
:101C60000087D40400A1BD040090A7040049920499
:101C700000C17D0400EE690400C75604004444041A
:101C8000005C32040008210400411004000000043C
:101C9000003FF00300F8E0030026D20300C3C303B3
:101CA00000CCB503003AA803000A9B0300388E035A
:101CB00000C08103009F750300D0690300505E03DC
:101CC000001D53030034480300913D0300333303E8
:101CD0000016290300381F030097150300300C037A
:101CE00000030303000BFA020049F10200BAE80204
:101CF000005CE002002DD802002DD0020059C8027D
:101D000000B0C0020031B90200DAB10200AAAA0292
:101D100000A0A30200BC9C0200FA9502005C8F02A6
:101D200000DF88020082820200457C0200277602E2
:101D30000027700200436A02007C640200D05E0249
:101D4000003F590200C853020024F4D43050C38E1F
:101D500020C2A24017828B7011127A910D816CD92A
:101D60000AA861E108C7586607615143061E4B5D2A
:101D700005C145A7041A411104093D980371393181
:101D8000034036DB0265339102D4305402802E1DAD
:101D900002632CEE01752AC501B028A0011027812D
:101DA000018F2564012B244B01E0223401AC211F5B
:101DB000018D200D01801FFC00841EED00971DDFAA
:101DC00000B81CD200E61BC600201BBC00641AB27F
:101DD00000B219A8000A19A0006A189900D1179139
:101DE0000040178B00B516840031167E00B31579BC
:101DF000003A157300C7146F0058146A00EE13669A
:101E0000008813630025135E00C7125B006C125735
:101E10000015125400C111510070114F0021114BD7
:101E200000D61049008D10470046104400021042B1
:101E300000C00F4000800F3E00420F3C00060F3BE9
:101E400000CB0E3800930E37005C0E3500270E34A1
:101E500000F30D3200C10D3100900D3000600D2EE9
:101E600000320D2D00050D2C00D90C2B00AE0C29D5
:101E700000850C29005C0C2700350C27000E0C2671
:101E800000E80B2400C40B2400A00B23007D0B23CF
:101E9000005A0B2100390B2100180B2000F80A1FF3
:101EA00000D90A1E00BB0A1E009D0A1D00800A1DE3
:101EB00000630A1C00470A1B002C0A1B00110A1AA7
:101EC00000F7091A00DD091900C4091900AB091946
:101ED00000920917007B091800630917004C0916C6
:101EE0000036091600200916000A091500F5081524
:101EF00000E0081400CC081400B8081400A408146A
:101F000000900813007D0812006B08130058081297
:101F100000460812003408110023081100120811AD
:101F20000001081100F0071000E0071000D00710B2
:101F300000C0071000B0070F00A107100091070EA6
:101F40000083070F0074070F0065070E0057070E88
:101F50000049070E003B070D002E070E0020070D5D
:101F60000013070D0006070D00F9060C00ED060D25
:101F700000E0060C00D4060C00C8060C00BC060CE1
:101F800000B0060C00A4060B0099060C008D060B91
:101F90000082060B0077060B006C060B0061060A38
:101FA0000057060B004C060A0042060A0038060AD3
:101FB000002E060A0024060A001A060A0010060966
:101FC0000007060A00FD050900F4050900EB0509F4
:101FD00000E2050900D9050900D0050900C7050977
:101FE00000BE050900B5050800AD050800A50509F6
:101FF000009C050800940508008C0508008405086D
:10200000007C050800740508006C050700650508DC
:10201000005D050700560508004E05070047050747
:10202000004005080038050700310507002A0507AC
:1020300000230507001C050600160507000F05070D
:10204000000805060002050700FB040600F504076A
:1020500000EE040600E8040600E2040700DB0406C4
:1020600000D5040600CF040600C9040600C3040618
:1020700000BD040600B7040600B1040500AC040668
:1020800000A6040600A00405009B040600950405B4
:1020900000900406008A04050085040500800406FB
:1020A000007A04050075040500700405006B040542
:1020B0000066040500610405005C04050057040582
:1020C00000520405004D04050048040500430405C2
:1020D000003E0404003A0405003504050030040401
:1020E000002C04050027040400230405001E04043A
:1020F000001A04040016040500110404000D040471
:1021000000090405000404040000040400FC0304A6
:1021100000F8030400F4030400F0030400EC0304DB
:1021200000E8030400E4030400E0030400DC03040B
:1021300000D8030400D4030400D0030400CC03043B
:1021400000C8030300C503030024F404D9201BC402
:102150000C5C0E9804C4095F0265077101F405F96F
:1021600000FB04B30048048700C10369005803550D
:102170000003034500BE023A008402310053022AE4
:10218000002902250004022000E4011C00C80119F6
:1021900000AF0117009801140084011300710110B1
:1021A000006101100051010E0043010D0036010BCA
:1021B000002B010B0020010B00150109000C010987
:1021C0000003010800FB000800F3000800EB000713
:1021D00000E4000600DE000600D8000600D200067B
:1021E00000CC000500C7000500C2000500BD0004CA
:1021F00000B9000400B5000400B1000400AD000403
:1022000000A9000400A5000300A20003009F000431
:10221000009B000300980003009500020093000358
:1022200000900003008D0002008B00030088000274
:10223000008600020084000300810002007F00028B
:10224000007D0002007B000200790002007700019F
:1022500000760002007400020072000100710002AA
:10226000006F0002006D0001006C0002006A0001B6
:1022700000690002006700010066000100650001BE
:1022800000640002006200010061000100600001C2
:10229000005F0002005D0001005C0001005B0001C6
:1022A000005A0001005900010058000100570001C8
:1022B00000560001005500010054000100530000C9
:1022C00000530001005200010051000100500001C4
:1022D000004F0001004E0000004E0001004D0001C3
:1022E000004C0001004B0000004B0001004A0001BF
:1022F00000490001004800000048000100470001BB
:1023000000460000004600010045000000450001B5
:1023100000440001004300000043000100420000AF
:1023200000420001004100000041000100400001A6
:10233000003F0000003F0001003E0000003E0001A1
:10234000003D0000003D0001003C0000003C00009A
:10235000003C0001003B0000003B0001003A00008F
:10236000003A000100390000003900010038000087
:10237000003800000038000100370000003700017D
:102380000036000000360000003600010035000075
:10239000003500000035000100340000003400006A
:1023A000003400010033000000330000003300015E
:1023B0000032000000320000003200010031000055
:1023C000003100000031000100300000003000004A
:1023D00000300001002F0000002F0000002F00003F
:1023E000002F0001002E0000002E0000002E000132
:1023F000002D0000002D0000002D0000002D000128
:10240000002C0000002C0000002C0000002C00011B
:10241000002B0000002B0000002B0000002B00010F
:10242000002A0000002A0000002A0000002A000103
:1024300000290000002900000029000000290000F8
:1024400000290001002800000028000000280000EA
:1024500000280000002800010027000000270000DD
:1024600000270000002700000027000100260000D0
:1024700000260000002600000026000000260001C3
:1024800000250000002500000025000000250000B8
:1024900000250000002500010024000000240000A9
:1024A000002400000024000000240001002300009C
:1024B0000023000000230000002300000023000090
:1024C0000023000000230001002200000022000081
:1024D0000022000000220000002200000022000173
:1024E0000021000000210000002100000021000068
:1024F0000021000000210000002100010020000058
:10250000002000000020000000200000002000004B
:10251000002000000020000000200001001F00003B
:10252000001F0000001F0000001F0000001F00002F
:10253000001F0000001F0001001E0000001E000020
:10254000001E0000001E000000393000003325008E
:102550000087190000B00F0000DB080000BD040078
:1025600000740200003F010000687474703A2F2F5D
:102570006D61726C696E66772E6F72670020322E05
:10258000302E352E33002020506C616E6E65724205
:10259000756666657242797465733A2000204672EA
:1025A0006565204D656D6F72793A2000436F6D70DF
:1025B000696C65643A204A756C20203120323032D3
:1025C000300A00204C617374205570646174656436
:1025D0003A20323032302D30332D3331207C2041BF
:1025E0007574686F723A20287061656E69616E2C2F
:1025F0002073626420636F6E666967290A00322E59
:10260000302E352E330A004D61726C696E002053F6
:102610006F6674776172652052657365740A002075
:102620005761746368646F672052657365740A004C
:102630002042726F776E206F7574205265736574D7
:102640000A002045787465726E616C20526573656E
:10265000740A00506F77657255700A006175746F67
:1026600025632E67004732385859004D31303031DC
:10267000006572726F722077726974696E67207478
:102680006F2066696C650A00446F6E652073617621
:10269000696E672066696C652E0A004D3239004507
:1026A0006E6473746F707300255320256320256357
:1026B00020256320256300656E6473746F7073203A
:1026C0006869743A20006563686F3A004572726FFA
:1026D000723A0066616C73650074727565004269D8
:1026E0006C696E656172204C6576656C696E6720F9
:1026F000477269643A0A002568753A253032687570
:1027000000256875642025303268753A25303268B6
:102710007500447269766572206572726F7200632B
:102720006F696C2073686F72742063697263756976
:10273000740A006F76657274656D70657261747588
:1027400072650A0020647269766572206572726F24
:10275000722064657465637465643A203078004C57
:102760004F570048494748004F4B004572726F72FF
:102770003A20416C6C200020636F6E6E6563746953
:102780006F6E2E2E2E200054657374696E672000C4
:10279000544D4320434F4E4E454354494F4E2045E0
:1027A00052524F52004F46460A0046616465204827
:1027B00065696768742000426564204C6576656CC5
:1027C000696E6720004661696C656420746F2065DE
:1027D0006E61626C6520426564204C6576656C694B
:1027E0006E670A00496E76616C6964206D65736876
:1027F0002E0A00667265736800646F696E67004E2A
:102800006F77200020746F6F206C6F6E6720657883
:1028100074727573696F6E2070726576656E74651B
:10282000640A0020636F6C64206578747275736944
:102830006F6E2070726576656E7465640A003F0085
:1028400043616E63656C004D6F74696F6E00537405
:10285000617274205072696E740043616E6E6F74A1
:1028600020656E746572207375626469723A200027
:10287000052E2E004D38340044697361626C65206A
:102880005374657070657273004732380A4D34387E
:1028900020503130004D34382050726F6265205422
:1028A00065737400466164652048656967687400F3
:1028B0004732380A473239004C6576656C204265EC
:1028C0006400473238004175746F20486F6D6500B1
:1028D00050726F6265204F6666736574205A0050AF
:1028E000726F6265204F66667365745A3A20003FC6
:1028F0005A206F7574206F662072616E676520289C
:10290000003F59206F7574206F662072616E676595
:1029100020282D003F58206F7574206F662072614B
:102920006E676520282D0050726F6265204F6666C5
:10293000736574205800656E7175657565696E679D
:102940002022006F6B00526573656E643A2000258B
:10295000697920256964202569682025696D20250D
:1029600069730020573A00452025530042656420D2
:10297000436F6F6C696E672E2E2E0042656420488F
:10298000656174696E672E2E2E00416D6178204559
:1029900000416D6178205A00416D617820590041F5
:1029A0006D6178205800412D54726176656C00414C
:1029B0002D5265747261637400416363656C004AF3
:1029C000756E6374696F6E204465760050726F6235
:1029D000652059204F66667365740050726F62659A
:1029E0002058204F66667365740045737465707374
:1029F0002F6D6D005A73746570732F6D6D00597370
:102A0000746570732F6D6D005873746570732F6DDE
:102A10006D0000002100240027002A002D00300056
:102A2000330001010000040107010A010000220037
:102A3000250028002B002E00310034000201000088
:102A4000050108010B0100002000230026002900D9
:102A50002C002F00320000010000030106010901D3
:102A600005050505070508080808020202020A0A0A
:102A70000808040404040101010101010101030328
:102A8000030303030303040707070C0C0C0C0C0CD3
:102A90000C0C0202020206060606060606060B0BD0
:102AA0000B0B0B0B0B0B0102102020080810204011
:102AB0001020408002010201080402010102040802
:102AC0001020408080402010080402018004020190
:102AD00080402010080402010804020101020408D9
:102AE00010204080010204081020408000000A0BE2
:102AF00002090C0D0E08070304010000000000008D
:102B000000000000000000000000000000000000C5
:102B10000000000000000000121110000000000082
:102B200000000000000000000000000000000000A5
:102B300000004D6F76652025736D6D004D6F7665D5
:102B400020302E316D6D004D6F766520316D6D003A
:102B50004D6F76652031306D6D004D6F766520418B
:102B600078697300486F74656E6420746F6F2063BA
:102B70006F6C64004578747275646572004D6F7691
:102B800065205A004D6F76652059004D6F7665209F
:102B900058002053697A653A200043616E6E6F7465
:102BA000206F70656E2073756264697220005344F3
:102BB0002063617264206F6B0A006F70656E526FE4
:102BC0006F74206661696C65640A00766F6C756D60
:102BD000652E696E6974206661696C65640A0053CC
:102BE0004420696E6974206661696C0A004D323454
:102BF000004D32332025730046696C652073656C87
:102C000065637465640A0046696C65206F70656E63
:102C100065643A2000454E4420535542524F555466
:102C2000494E450A002220706F73002220706172A5
:102C3000656E743A2200535542524F5554494E45E1
:102C40002043414C4C207461726765743A220074D1
:102C50007279696E6720746F2063616C6C20737584
:102C6000622D67636F64652066696C6573207769A0
:102C7000746820746F6F206D616E79206C65766565
:102C80006C732E204D4158206C6576656C206973FD
:102C90003A310A0057726974696E6720746F206652
:102CA000696C653A2000204D393220580020204DB3
:102CB00061783A200020204D696E3A2000536F66FB
:102CC0007420656E6473746F70733A20005761727C
:102CD0006E696E67203A20436C65616E20436972AD
:102CE000636C652072657175697265732058590A45
:102CF000007370726561644379636C650073746519
:102D0000616C746843686F700020647269766572E4
:102D1000206D6F64653A0900207072657761726E8C
:102D200020666C616720636C65617265640A0020CF
:102D3000496E76616C696420657874727564657239
:102D40002000FFFDFCFAF8F6F4F2F0EEECEAE9E719
:102D5000E5E3E1E0DEDCDAD9D7D5D4D2D0CFCDCBF4
:102D6000CAC8C7C5C3C2C0BFBDBCBAB9B7B6B4B381
:102D7000B2B0AFADACAAA9A8A6A5A4A2A1A09E9DE1
:102D80009C9A99989795949392908F8E8D8B8A891F
:102D900088878684838281807F7E7D7B7A7978773D
:102DA000767574737271706F6E6D6C6B6A6968673B
:102DB000666564636261605F5E5D5C5B5A5958582A
:102DC0005756555453525150504F4E4D4C4B4A4A02
:102DD0004948474646454443424241403F3E3E3DC6
:102DE0003C3B3B3A3938383736353534333232317B
:102DF00030302F2E2E2D2C2B2B2A29292827272621
:102E0000252524232322212120201F1E1E1D1C1CBA
:102E10001B1B1A1919181817161615151413131247
:102E2000121111100F0F0E0E0D0D0C0C0B0A0A09CA
:102E30000908080707060605050404030302020142
:102E40000000202F002042403A0020403A007C3C05
:102E50003E5E2B3D3F2F5B5D3B2C2A225C00506188
:102E6000757365205072696E74004D6564696120E8
:102E700052656D6F766564004D6564696120496EC9
:102E8000736572746564005072696E742041626F7C
:102E900072746564004D323500453100626564002E
:102EA0002C2073797374656D2073746F7070656412
:102EB00021204865617465725F49443A2000486585
:102EC0006174696E67204661696C6564004865617C
:102ED00074696E67206661696C656400202D204905
:102EE0006E76616C696420657874727564657220B1
:102EF0006E756D62657220210A004572723A204D2E
:102F0000415854454D50004D415854454D50207442
:102F10007269676765726564004572723A204D494F
:102F20004E54454D50004D494E54454D50207472FD
:102F300069676765726564004D38342058205920F0
:102F40005A2045001000C90210012C014001220145
:102F500070011801B0010E01F00104015002FA00E5
:102F6000B002F0003003E600D003DC009004D20091
:102F70007005C800A006BE000008B400B009AA0091
:102F8000D00BA000600E960060118C00001582002E
:102F900020197800C01D6E00A0226400B0275A00DE
:102FA000902C500000314600E0343C0010383200D4
:102FB000903A2800603C1E00A03D1400803E0A00AC
:102FC000203F000070012C0190012701B001220177
:102FD000C0011D01F00118011002130130020E01A1
:102FE0006002090190020401C002FF000003FA0020
:102FF0004003F5008003F000D003EB002004E6005E
:103000007004E100E004DC004005D700C005D200F8
:103010004006CD00D006C8008007C3003008BE00BF
:10302000F008B900C009B400B00AAF00B00BAA00A4
:10303000D00CA500000EA000500F9B00C010960001
:103040005012910000148C00C0158700B017820048
:10305000B0197D00D01B7800001E730040206E0068
:1030600090226900F024640040275F0090295A00F4
:10307000E02B5500102E500020304B00103246003F
:10308000E033410090353C00103737007038320093
:10309000A0392D00B03A2800A03B2300603C1E0060
:1030A000103D1900903D1400103E0F00703E0A00C4
:1030B000C03E0500003F0000403FFBFF803FF6FFA1
:1030C000C03FF1FF00544845524D414C2052554EEF
:1030D0004157415900546865726D616C2052756E9C
:1030E000617761790020453A00205A3A0020593A28
:1030F0000020436F756E7420583A005072696E74E8
:103100002066726F6D204D6564696100205A3A2017
:103110000020593A200042656420583A200050723D
:10312000696E74205061757365640050726F6269D6
:103130006E67204661696C65640A0050726F62694F
:103140006E67204661696C656400486F6D65202577
:10315000732573257320466972737400220A005523
:103160006E6B6E6F776E20636F6D6D616E643A206B
:10317000220053696C656E74206275742044616529
:1031800064616C75732052656164792E00507269B8
:103190006E74696E672E2E2E002052004861726494
:1031A000636F6465642044656661756C7420536563
:1031B0007474696E6773204C6F616465640A003BC8
:1031C000200020204D3930360020204D3931340088
:1031D00020204D35363920533100447269766572AE
:1031E000207374657070696E67206D6F64653A0056
:1031F0005374616C6C477561726420746872657396
:10320000686F6C643A002054302045005374657038
:10321000706572206472697665722063757272657A
:103220006E743A0020204D3835312058005A2D5008
:10323000726F6265204F66667365740020204D339F
:1032400030312050005049442073657474696E67B2
:10325000733A0020460020480020204D31343520AC
:1032600053004D6174657269616C206865617475A5
:103270007020706172616D65746572733A00202010
:10328000473239205720490020204D343230205316
:10329000004175746F20426564204C6576656C69E9
:1032A0006E673A0020204D323036205800486F6D4E
:1032B00065206F66667365743A00204A0020204DD1
:1032C000323035204200416476616E6365643A2095
:1032D000423C6D696E5F7365676D656E745F74699E
:1032E0006D655F75733E20533C6D696E5F66656505
:1032F00064726174653E20543C6D696E5F747261E6
:1033000076656C5F66656564726174653E204A3CF3
:103310006A756E635F6465763E0020540020204D20
:10332000323034205000416363656C6572617469AA
:103330006F6E2028756E6974732F7332293A20508E
:103340003C7072696E745F616363656C3E20523CD1
:10335000726574726163745F616363656C3E20546F
:103360003C74726176656C5F616363656C3E0020DE
:10337000204D3230312058004D6178696D756D20D7
:10338000416363656C65726174696F6E2028756E48
:103390006974732F7332293A0020204D3230332064
:1033A00058004D6178696D756D2066656564726160
:1033B0007465732028756E6974732F73293A0053EE
:1033C000746570732070657220756E69743A0020A0
:1033D000204D3230302044300A0020204D32303031
:1033E0002044002044697361626C65640A00466988
:1033F0006C616D656E742073657474696E67733A81
:103400000020204D3134392043203B20556E697413
:103410007320696E2043656C736975730A002028F8
:103420006D6D29002020473231202020203B20557F
:103430006E69747320696E206D6D00000096430004
:10344000009643000040400000C8410000A0420038
:1034500000A0420000FA4400001B43E8030000E81B
:1034600003000032000000E80300004361703A00EE
:1034700047322F47332062616420706172616D654D
:10348000746572730A006F70656E206661696C65A1
:10349000642C2046696C653A200006014C01112419
:1034A0001FBECFEFD1E2DEBFCDBF00E00CBF13E007
:1034B000A0E0B2E0E6EBF8E502E00BBF02C0079047
:1034C0000D92A03CB107D9F725E1A0ECB3E001C013
:1034D0001D92A937B207E1F71AE1CEE4DAE100E084
:1034E00006C021970109802FFE010F94AA28CD3430
:1034F000D10780E00807A9F70F94A50F0D94492C78
:103500000C9400002F923F924F925F926F927F92A5
:103510008F929F92AF92BF92CF92DF92EF92FF92E3
:103520000F931F93CF93DF93CDB7DEB7AF970FB64F
:10353000F894DEBF0FBECDBF8FA72091CA032EA780
:10354000FF24F394F092CA038091680D8D3409F43E
:10355000C1C3843511F40C94532B873411F00C94AF
:103560006E2B2091660D3091670D2B31310509F4DA
:1035700094C0BCF42430310534F422303105ECF52C
:1035800037FF2FC0A3C32C30310509F482C0253189
:10359000310511F40C94702B2430310509F096C3D9
:1035A0003AC02A32310509F46AC25CF42D31310582
:1035B00009F40EC10CF4FCC02E31310509F41CC114
:1035C00085C32B35310509F4D7C12C35310509F4F4
:1035D000D8C12A35310509F079C31092C9030C947A
:1035E000702B8091E006813011F00C94702B0E94BA
:1035F0003DD10E940F7E0C94702B8091E0068130AB
:1036000011F00C94702B2230310509F080E00F94FA
:10361000A3030C94702B80E50E94AE8D882329F0C3
:103620000E94BBD76B017C0103C0C12CD12C760159
:1036300083E50E94AE8D882361F00E942E8D20E0EC
:1036400030E04AE754E40F9423220F94262A6B01BA
:103650007C010E94B5DC8091AE0E811105C060E056
:103660008FE695E00E946FEA0F94E10CC60ED71E1C
:10367000E81EF91E0F94E10CDC01CB018C199D09A9
:10368000AE09BF09B7FD02C00C94702B0E947D31BA
:10369000F1CF0E948AD30C94702B0E94CDFA811135
:1036A0000C94702B8CE0EBE7F2E0DE0111960190B8
:1036B0000D928A95E1F760E070E080E50E9477D393
:1036C00040E050E068EC72E448A759A76AA77BA7DE
:1036D00040E050E060EA70E44CA35DA36EA37FA3DA
:1036E000813019F0823039F029C0BE016C5D7F4F06
:1036F000CE01099644C029853A854B855C85609149
:103700005F027091600280916102909162020F9459
:10371000B3286B017C0120E030E048E453E40F94CF
:10372000BD2187FD06C0C12CD12C58E4E52E53E401
:10373000F52ECC8EDD8EEE8EFF8E1CC0E0905F02EB
:10374000F09060020091610210916202A984BA8433
:10375000CB84DC849501A601B701C8010F94BD217B
:1037600087FF02C075018601C701D8018C8F9D8F2C
:10377000AE8FBF8FBE016C5D7F4FCE014C960E9415
:10378000EB8188E0FE013196DE015C9601900D929E
:103790008A95E1F7AE01485D5F4FBE01605E7F4FE5
:1037A000CE014C960E94C9810E949C820C94702B81
:1037B000809189128770873011F00C94792B60E02A
:1037C0008FE40E94BB8D81110C94702B0C94792B8B
:1037D0000E94CDFA81110C94702B8091860E882363
:1037E00011F40C94FC2C60E08FE40E94BB8D8111DD
:1037F0000C94702B0C94FC2C20917D1230917E1235
:1038000040917F125091801260915702709158023E
:103810008091590290915A020F94B328AB01BC01D8
:1038200088E50E94BD4169837A838B839C832091C4
:1038300081123091821240918312509184126091D2
:103840005B0270915C0280915D0290915E020F9428
:10385000B328AB01BC0189E50E94BD416D837E8325
:103860008F839887BE016B5F7F4FCE0101960E94C8
:10387000EE45882311F40C94702B80E00E94BD90DB
:103880000E94E98061E085E40E94BB8D21E0482F21
:10389000BE016B5F7F4FCE0101960E9446FB6B011C
:1038A0007C019B01AC010F94A52B81115FC0898025
:1038B0009A80AB80BC8020E030E0A901C501B40152
:1038C0000F94BD2187FF05C027E137EB41E558EB99
:1038D00004C027E137EB41E558E3C501B4010F947B
:1038E000B328AB01BC0186E191E30E94E1958D8094
:1038F0009E80AF80B88420E030E0A901C501B4010A
:103900000F94BD2187FF05C027E137EB41E558EB58
:1039100004C027E137EB41E558E3C501B4010F943A
:10392000B328AB01BC0181E191E30E94E19520E065
:1039300030E0A901C701B6010F94BD2187FF05C082
:1039400067E177EB81E598EB04C067E177EB81E510
:1039500098E3A70196010F94B328AB01BC018CE05A
:1039600091E30E94E1958AE00E9451300E94D0804C
:103970000E949C820C94702B8FE08093C9030C945E
:10398000702B97E8292E92E0392E2DEBE22E24E0C1
:10399000F22E87E592E09DA78CA730E4C32E3FE08E
:1039A000D32E00E010E0F10181911F010E94AE8D45
:1039B000882309F44AC00E942E8D2B013C0113304C
:1039C00049F0F60120813181428153810F94B22860
:1039D0002B013C01ECA5FDA5208131814281538161
:1039E000C301B2010F94B2284B015C012DEB37E308
:1039F00046E855EB0F94132B87FD0AC02DEB37E3F8
:103A000046E855E3C501B4010F94BD211816ECF446
:103A1000133051F440926302509264026092650246
:103A20007092660201E011C0A5019401F701608166
:103A30007181828193810F94B328F7016083718330
:103A400082839383812F0E944E7D1F5FF4E0EF0EEF
:103A5000F11C2CA53DA52C5F3F4F3DA72CA734E0C2
:103A6000C30ED11C143009F09ECF002321F083E651
:103A700092E00E94C5DC0E949C820C94702B809185
:103A8000E006813011F00C94702B89E40E94AE8D19
:103A9000E82E882321F00E942A8D082F01C000E023
:103AA0008AE40E94AE8DF82E882321F00E942A8D90
:103AB000182F01C010E0EE2011F0033020F4FF2099
:103AC00041F0133030F088EB95E00E942C940C9478
:103AD000702B80E1E7E5F2E0A9ECB4E001900D92F3
:103AE0008A95E1F7EE2019F1602F000F770B880B14
:103AF000990B0F94C4212091E3123091E41240916C
:103B0000E5125091E6120F94232220919D043091EA
:103B10009E0440919F045091A0040F94B328609399
:103B2000C9047093CA048093CB049093CC04FF2003
:103B300019F1612F110F770B880B990B0F94C4218A
:103B40002091E7123091E8124091E9125091EA1267
:103B50000F9423222091A1043091A2044091A30448
:103B60005091A4040F94B3286093CD047093CE04B5
:103B70008093CF049093D00460E080E50E94BB8DD9
:103B80008823C1F1EE20D1F020917D1230917E1278
:103B900040917F12509180126091C9047091CA04C3
:103BA0008091CB049091CC040F94B2286093C90407
:103BB0007093CA048093CB049093CC04FF20D1F07F
:103BC000209181123091821240918312509184127F
:103BD0006091CD047091CE048091CF049091D00477
:103BE0000F94B2286093CD047093CE048093CF04D9
:103BF0009093D00440E050E0BA0186E40E94BD41B9
:103C00006B017C0120E030E0A9010F94132B181602
:103C10005CF420E030E040E752E4C701B6010F94C5
:103C2000AD296B017C0103C0C12CD12C76018090A1
:103C30006D0290906E02A0906F02B090700220E032
:103C400030E0A901C701B6010F94BD21882341F0DE
:103C5000C0926D02D0926E02E0926F02F0927002FA
:103C6000009122021091230284E690E090932302B7
:103C700080932202C0903D02D0903E02E0903F022D
:103C8000F090400280E090E0A0E8BFE380933D0226
:103C900090933E02A0933F02B09340020E940F7E99
:103CA00080926D0290926E02A0926F02B0927002AA
:103CB0001093230200932202C0923D02D0923E0252
:103CC000E0923F02F09240020C94702B0E94BFFAE7
:103CD0000C94702B0091660D1091670D073711053C
:103CE00009F4C4C70CF0FAC00C34110509F44DC432
:103CF0000CF070C00A31110509F4E1C2BCF50431C1
:103D0000110509F47DC28CF40131110509F464C276
:103D100034F40230110508F402C20C94502B023125
:103D2000110509F41EC60C94502B0731110509F436
:103D30008CC294F40531110509F483C206311105D2
:103D400011F00C94502B0E943EC980913312877F52
:103D5000809333120C94702B0831110509F48AC238
:103D60000931110509F492C20C94502B0F31110541
:103D700009F4CEC384F40C31110509F416C30CF414
:103D8000ACC20D31110509F418C30E31110509F447
:103D90001BC30C94502B0A32110509F4D9C36CF4DF
:103DA0000032110509F471C30132110511F00C94B0
:103DB000502B0E94FFB70C94702B0033110509F4AF
:103DC000E0C30B34110511F00C94502B0E94DAD98A
:103DD0000C94702B0A36110509F4BCC4ACF50335FC
:103DE000110509F4B7C5BCF40E34110509F4E6C396
:103DF0000CF4E0C30135110509F498C5023511052D
:103E000011F00C94502B8091C9038F7D80618093B9
:103E1000C9030C94702B0C35110509F4F1C554F449
:103E20000435110509F49DC50535110509F4C5C50D
:103E30000C94502B0836110509F452C409361105AB
:103E400009F474C40C94502B0037110509F4FEC416
:103E5000F4F40D36110509F466C47CF40B36110533
:103E600009F495C40C36110511F00C94502B1092E6
:103E7000D80E109232020C94702B0E36110509F4F4
:103E80008FC40F36110509F49CC40C94502B0337D2
:103E9000110509F43FC68CF40137110509F4DEC49D
:103EA0000237110511F00C94502B0E94A0F581ED02
:103EB00090E10E947FF90C94702B0537110509F4ED
:103EC00092C60637110511F00C94502B0091F50D98
:103ED0001091F60D94E0F12C40E0ACC60F3281E079
:103EE000180711F40C9407290CF06EC00C3C110556
:103EF00009F4B5C794F50139110509F4C9C68CF464
:103F00000937110509F4BDC60CF4B3C60A3711050B
:103F100011F40C94032A0C38110509F4C1C40C9453
:103F2000502B083C110509F40EC76CF40B39110530
:103F300009F4D6C40E3B110511F00C94502B0E94CD
:103F40004DB30C94702B093C110509F446C70B3C8A
:103F5000110509F465C70C94502B0D3D110509F4AA
:103F6000DDC784F40E3C110509F491C70CF481C738
:103F7000033D110509F4A8C70C3D110509F4A7C7B5
:103F80000C94502B0C32E1E01E0711F40C942E28F7
:103F900074F4023E110511F40C94E327023211402F
:103FA00011F00C94502B0E945FBC0C94702B0D32BE
:103FB00031E0130711F40C9443280E32114011F430
:103FC0000C94C3280C94502B073F91E0190711F46F
:103FD0000C94DF290CF049C0043AF1E01F0711F4FA
:103FE0000C941529FCF4013931E0130711F40C94F9
:103FF0000A294CF40039114011F00C94502B0E9406
:10400000B5DC0C94702B0239E1E01E0711F40C941E
:1040100010290A39114011F00C94502B0E94782F6E
:104020000C94702B043F21E0120711F40C94D92951
:104030006CF4053A81E0180711F40C9418290C3A35
:10404000114011F40C947C290C94502B053FE1E0B5
:104050001E0711F40C94DC29063F114011F00C945A
:10406000502B0E94E1FE0C94702B0F3823E01207B6
:1040700011F40C94AD2A64F5093382E0180711F4A9
:104080000C94AA2A6CF4083FE1E01E0711F40C948A
:10409000E7290C30124011F40C94F8290C94502BA1
:1040A000033523E0120711F40C94002A0A38134058
:1040B00011F00C94502B60E089E40E94AE47D82E9A
:1040C00087E8A82E82E0B82E11E000E00C94452A83
:1040D000003A83E0180709F40DC2A4F40039E3E0C4
:1040E0001E0711F40C94E22A0239134011F00C94CB
:1040F000502B60E089E40E94AE47F82E11E000E00A
:104100000C94EF2A073E23E0120711F40C942C2B99
:10411000093E134011F40C943A2B0C94502B80E57B
:104120000E94AE8D882329F00E94BBD76B017C01D1
:1041300003C0C12CD12C760183E50E94AE8D88236B
:1041400061F00E942E8D20E030E04AE754E40F94A5
:1041500023220F94262A6B017C010E94B5DC8091FA
:10416000F50D9091F60D009721F061E00E94E5EACF
:1041700005C060E087ED95E00E946FEA1091CA03E8
:1041800083E08093CA0381E08093D80EC114D104E8
:10419000E104F10431F00F94E10CC60ED71EE81EC5
:1041A000F91E8091D80E882311F40C94032DC114AC
:1041B000D104E104F10411F40C94FF2C0F94E10CF0
:1041C000DC01CB018C199D09AE09BF09B7FF02C004
:1041D0000C94FF2C0C94032D8091690D84FF02C078
:1041E0000C940A2D80916B0D87FF02C00C940A2D50
:1041F00080916C0D837011F00C940A2D0C94262D77
:1042000082E096E00E942C9485EA9FE00E9478E08C
:104210008BE1E5EAFFE0DE01119601900D928A95AF
:10422000E1F760E070E0CE0101960E94F5CFCE018B
:1042300001960E947DE083EF95E00E942C940C94FF
:10424000702B0E9467CB0C94702BE091F50DF091D0
:10425000F60D8081882329F0803209F4108231968E
:10426000F8CF60E08091F50D9091F60D0E949BC90A
:104270000C94702B0E94A02F882321F00E94BACAB0
:104280000E94DAD90E9485FA0C94702B8091331227
:1042900082FF03C08B7F809333128091DC128130C8
:1042A00089F782E08093DC120F94E10C60938F0E0B
:1042B0007093900E8093910E9093920EE3CF809125
:1042C000331283FD02C00C94702B83E50E94AE8DE7
:1042D00081110C94342D0C94702B83E40E94658D15
:1042E0008823C1F18DE196E00E942C9480914F0FBC
:1042F000882339F1BE016F5F7F4F8CE49FE00E94FD
:104300003FDF8E010F5F1F4FF80181918F018823DE
:1043100019F00E945130F8CFCE0101960E94A59C61
:1043200080919A12882389F080E20E9451300AE934
:1043300012E1F80181918F01882339F00E945130F8
:10434000F8CF83E196E00E942C948AE00E945130DD
:104350000C94702B8091331282FF21C08CE296E086
:104360000E942C9460912F12709130128091311222
:10437000909132124AE00E9458308FE20E945130F0
:1043800060912B1270912C1280912D1290912E120F
:104390004AE00E9458300E9456310C94702B8EE3F4
:1043A00096E00E942C940C94702B8091F50D9091C6
:1043B000F60D0E944DC90C94702B809133128E7FA4
:1043C000809333120C94702B8091331283FD02C0C2
:1043D0000C94702B0E94A8FA8091331283FD02C0C6
:1043E0000C94702B4091F50D5091F60DBE01645E5A
:1043F0007F4F80E00F944F098C01009711F40C94CB
:10440000702B6C8D7D8D19821C8222E0AC01CE0157
:1044100001960E94ADE4811102C0F12C14C0CE01BE
:1044200001960E94E7F78823C1F361E0CE0101966F
:104430000E9423DF009789F325EEFC0120831C8274
:104440000E94B9CCF82ECE0101960E947DE0B80101
:10445000FF2089F087E696E00E94FF958AE00E949F
:10446000513010922F12109230121092311210927D
:1044700032120C94702B8FE496E00E94FF9584E436
:1044800097E10E942C940C94702B8091331282FD42
:104490000E94B5DC8091331283FD02C00C94702B16
:1044A00060E080E50E94BB8D182F682F8091F50D8C
:1044B0009091F60D0E949BC983E50E94AE8D8823E2
:1044C00081F00E94F68CAB01BC0140932F125093F7
:1044D000301260933112709332128CE49FE00E948C
:1044E000DFCE0E94BACA11110C94702B0E94DAD947
:1044F0000C94702B2091F50D3091F60D90913312A4
:10450000926090933312C9010E944DC90C94702B94
:104510000E942E656C8F7D8F8E8F9F8FBE016F5F87
:104520007F4FCE014C960E9420B760E0CE010196ED
:104530000E94E5EA0E941696BE016F5F7F4F85E7F5
:1045400096E00E94FF958AE00E9451300C94702BF7
:104550006DE070E080E50E949F478C0197FF02C0EC
:104560000C94702BE82E60E089E40E94BB8D8111D1
:104570000C94452D802F0F94370D811141C50C945B
:10458000452D0E94BA470C94702B8091DC1281302B
:1045900011F00C94702B82E08093DC120F94E10CEC
:1045A00060938F0E7093900E8093910E9093920E65
:1045B0000C94702B0E9436DA0C94702B60E070E043
:1045C00083E50E949F478E34910531F40E94A7DA5B
:1045D0000E9485FA0C94702B8AEE96E00E942C942F
:1045E00060913B0570913C0581EE96E00E94D49568
:1045F00060913D0570913E0584ED96E00E94D49552
:1046000060913B0570913C0580913D0590913E0580
:10461000681B790B8091DC12815021E030E0823000
:1046200010F020E030E0621B730B89EC96E00E94F2
:10463000D4958AE00E9451308AEE96E00E942C9434
:1046400080913F0590914005A0914105B0914205B0
:104650008C8F9D8FAE8FBF8FBE016F5F7F4FCE015E
:104660004C960E9420B7BE016F5F7F4F8CEB96E0A7
:104670000E94FF958091430590914405A0914505C6
:10468000B09146058C8F9D8FAE8FBF8FBE016F5F3F
:104690007F4FCE014C960E9420B7BE016F5F7F4FC7
:1046A0008CEA96E00E94FF9520E030E04AE754E46F
:1046B00060914705709148058091490590914A05A0
:1046C0000F94AD29AB01BC0184E996E00E94E1950D
:1046D0008DE60E9451308AE00E9451300C94702B7C
:1046E0008091EE0C83FF02C00C94702B0E941AD2B2
:1046F00087FF02C00C94702B83E50E94AE8D882347
:1047000079F00E942E8D0F941F2ACB010E949EE506
:104710000E948BEE811104C00E9436DA0E9485FA55
:104720000E940CDCDDC70E9422B5DAC70E941AD2B3
:10473000182F87FD0AC083E499E20E942C94812FF0
:104740000E94AEE58AE00E9451302EA52093CA0354
:104750000C94D12E60E080E50E94AE478111C0C765
:1047600081E40E94658D882321F06091220F70E022
:1047700002C06FEF70E083E50E9477D38F3F910511
:1047800019F010F08FEF90E08093220FA9C760E03E
:1047900080E50E94AE478111A3C71092220FA0C7E7
:1047A0008EE40E94AE8D882309F49AC70E94F68C8D
:1047B0006093F10D7093F20D8093F30D9093F40DCF
:1047C0008FC783E50E94658D882331F060E083E523
:1047D0000E94AE478093EE0C0E94169686EF96E0FC
:1047E0000E942C948091EE0C882369F18FE9E82EC9
:1047F0008AE0F82E00E010E020E08091EE0C90E0DE
:10480000A0E0B0E0002E04C0B695A79597958795D7
:104810000A94D2F780FF0EC0DD24D394D20E222357
:1048200019F08CE20E945130F701859194910E9419
:104830002C942D2D0F5F1F4F32E0E30EF11C05303D
:104840001105D9F682CD82EF96E07DCD41E060E0A2
:1048500070E08DEF96E00E94052F42C783E50E942D
:10486000AE8D882371F00E94068D282F30E02D3305
:1048700031051CF48093000233C78CE3809300025F
:104880002FC70E9416964091000250E060E070E051
:104890008BE097E00E94C3958AE00E94513020C7C8
:1048A0008091EE0C83FD1CC783E50E94AE8D8823AA
:1048B00071F00E942E8D0F941F2A6C3871050CF434
:1048C0008B011093A40E0093A30E0E941BEE0E9476
:1048D0008BEE811105C70E9436DA0E9485FA00C767
:1048E00083E50E94AE8D882309F4FAC60E94068DE6
:1048F000182F90E0CD970CF01CE31093C4030F9495
:10490000E10C6B017C01212F30E0A8EEB3E00F94A5
:104910006728C60ED71EE81EF91EC092C003D092AB
:10492000C103E092C203F092C303DAC60E949EEE76
:104930000E9436DA0E9424DE0E949D2F68EE73E00A
:1049400080E090E00E94089460E082E197E00E949D
:104950006FEAC6C68091C9038F7E80628093C903C7
:10496000BFC683E50E94AE8D882399F00E942E8DEC
:1049700020E030E04AE754E40F9423220F94262AE3
:1049800060930102709302028093030290930402E9
:10499000A7C68091690D84FF02C00C94822D80917E
:1049A0006B0D87FF02C00C94822D80916C0D83707B
:1049B00011F00C94822D0C94B32D83E50E94658D2B
:1049C000882309F48DC60F94E10C6093F70D709362
:1049D000F80D8093F90D9093FA0D0E942E8D20E032
:1049E00030E04AE754E40F9423220F94262A609380
:1049F000C5037093C6038093C7039093C80370C622
:104A00000E941AD287FD6CC69091690D94FD04C076
:104A100090916B0D97FF0AC017E8C12E12E0D12EBE
:104A20000FEEE02E0CE0F02E10E009C090916C0D1E
:104A3000937091F7682F81E00E9480D751C6F601EC
:104A400081916F010E94AE8D882309F459C0133003
:104A500009F04FC00E942E8D4B015C0120E030E038
:104A600040EA51E40F94BD2187FF3AC0A5019401AB
:104A700060910F0D7091100D8091110D9091120D9C
:104A80000F94AD292B013C019B01AC0160911F0DDE
:104A90007091200D8091210D9091220D0F94232271
:104AA00060931F0D7093200D8093210D9093220D24
:104AB00060911F0770912007809121079091220734
:104AC0000F94C221A30192010F9423220F94262A4E
:104AD00060931F077093200780932107909322070C
:104AE00080920F0D9092100DA092110DB092120DA8
:104AF00007C00E942E8DF701648B758B868B978B78
:104B00001F5FF4E0EF0EF11C143009F098CF0E9403
:104B100091DCE6C588E498E00E942C9460E088E38C
:104B200098E00F94A70860E083E298E00F94A7084C
:104B300061E083E299E10F94A70861E088E198E0E1
:104B40000F94A70861E088E098E00F94A70860E060
:104B50008FEF97E00F94A70861E085EF97E00F943F
:104B6000A70861E08BEE97E00F94A70861E083EE61
:104B700097E00F94A70861E085ED97E00F94A708F0
:104B800060E087EC97E00F94A70860E088EB97E07F
:104B90000F94A70860E08AEA97E00F94A70860E006
:104BA00084E997E00F94A70860E083E897E00F940A
:104BB000A70860E084E797E00F94A70860E08FE51E
:104BC00097E00F94A70861E08CE497E00F94A708A2
:104BD00060E08FE397E00F94A70860E08BE297E036
:104BE0000F94A7087DC58091F50D9091F60D009763
:104BF00009F448CBFC012081222309F443CB60E077
:104C00000E94E5EA6DC5F8018081282F2B7F2134B1
:104C1000A1F08035F1F4F801818180538A30C8F425
:104C200098012E5F3F4F89012F5F3F4FF801808130
:104C30008032C9F3915039F70CC02181213349F4F6
:104C4000813421F0853461F741E0EACFFF24F39409
:104C5000E7CF41110E941696FF2021F089E199E0EB
:104C60000E942C94C8010E945C313AC50E94308396
:104C700037C581E080934C0580934B050E94528399
:104C80002FC510924C0510924B050E94528328C5E7
:104C900060E070E083E50E949F478C01112702309D
:104CA00011053CF00E9412968DE199E00E942C942F
:104CB00017C588E40E94AE8D8823A9F00E942A8D32
:104CC0008A3A91053CF08530F1E09F072CF084E0B2
:104CD00091E002C08AEA90E0F801EE0FFF1FEF506A
:104CE000FD4E9183808386E40E94AE8D882381F0FF
:104CF0000E942A8D97FD07C08F3F910529F024F06F
:104D00008FEF90E001C080E0F801E551FD4E808317
:104D100082E40E94AE8D882309F4E2C40E942A8DA9
:104D20008530910534F08D3891052CF08CE890E0B9
:104D300002C085E090E0F801EE0FFF1FE351FD4E49
:104D400091838083CDC40E941AD2182F87FDC8C4D6
:104D500084E40E94658D8823E9F10E942E8D6B0109
:104D60007C0101E020E030E0A9010F94BD21811118
:104D700001C000E000937D0E20E030E0A901C701F2
:104D8000B6010F94BD21882329F124E01202F0011D
:104D90001124EE57F14FC082D182E282F38220E0EB
:104DA00030E0A9016091820E7091830E8091840E93
:104DB0009091850E0F94BD2181110CC080E090E090
:104DC000A0EEBFE38093820E9093830EA093840E97
:104DD000B093850E0E94CBD783C40E941AD287FD60
:104DE0007FC4F7E8EF2EF2E0FF2E0FEE1CE0F70194
:104DF00081917F010E94658D882359F00E942E8D3C
:104E00000F94262AF80160837183828393830E9422
:104E10004ADC0C5F1F4FFCE00F3F1F0741F760C4E7
:104E20000E941AD287FD5CC4E7E8EE2EE2E0FE2E77
:104E30000FEE1CE0F70181917F010E94658D8823B0
:104E400039F00E942E8DF80164A375A386A397A361
:104E50000C5F1F4FFCE00F3F1F0761F741C48091BB
:104E60006A0D87FD83C680916B0D8E7009F07EC63A
:104E7000C3C68091690D81FDE7C680916A0D81FDF1
:104E8000E3C680916B0D8C7009F0DEC629C47FE407
:104E9000E72E75E0F72E10E088E5810F0E94658D02
:104EA000882351F00E942E8DF701608371838283E5
:104EB0009383812F0E944E7D1F5FF4E0EF0EF11C63
:104EC000133051F70C943B1D0E9491D609C483E521
:104ED0000E94AE8D882331F00E942A8D9093230288
:104EE000809322028091690D90916A0DA0916B0DC3
:104EF000B0916C0D892B8A2B8B2B09F0F1C360913B
:104F00002202709123028EE699E00E94F29585E2DA
:104F10000E9451308AE00E945130E2C30E941AD2AE
:104F2000F82E87FDDDC383E50E94AE8D0F2D0F2C7B
:104F3000000C110B882361F10E942A8DF801EE0FFD
:104F4000FF1FED5BFD4F91838083000F111F000F4A
:104F5000111F9801235C3D4F7901BC01990F880B0B
:104F6000990B0F94C4212AE037ED43E25CE30F94E0
:104F70002322F801E258F14F20813181428153818F
:104F80000F942322F7016083718382839383A8C3E4
:104F90000E94169685E40E94513080E38F0D0E9496
:104FA0005130F801EE0FFF1FED5BFD4F6081718105
:104FB00082E799E00E94F29585E20E9451308AE0F2
:104FC0000E9451308DC380E50E94658D882309F4CD
:104FD00087C360E070E080E50E949F47F82E6FEF86
:104FE0007FEF83E50E949F478C010196039708F0AD
:104FF00077C3F7FC75C38F2D0F94370D882339F0D5
:105000000E9412968AE799E00E942C9469C30E943C
:10501000B5DC60E08F2D0E948CC60F3FFFEF1F07AD
:1050200031F00130110571F000E010E00DC08F2D5E
:105030000F940B1831E020E0892B09F030E0032FAA
:10504000122F02C001E010E08F2D0F940B18801773
:10505000910709F445C30E947D31F6CF64E071E009
:1050600083E50E9477D38C0168EE73E080E50E94AF
:1050700077D3893823E1920710F088E893E1B801EB
:105080000E9442EA2DC360E085E40E94AE47811190
:1050900073C080E50E94658D882351F00E942E8D9B
:1050A0006093340F7093350F8093360F9093370FC2
:1050B00089E40E94658D882381F00E942E8D2CEA60
:1050C00035EC47E25EE30F9423226093380F709330
:1050D000390F80933A0F90933B0F84E40E94658DC3
:1050E000882381F00E942E8D2CEA35EC47E25EE3A6
:1050F0000F94AD2960933C0F70933D0F80933E0F4A
:1051000090933F0F0E9416964091340F5091350FA7
:105110006091360F7091370F83EA99E00E94E19514
:105120002CEA35EC47E25EE36091380F7091390F5D
:1051300080913A0F90913B0F0F94AD29AB01BC01C8
:105140008FE999E00E94E1952CEA35EC47E25EE3B5
:1051500060913C0F70913D0F80913E0F90913F0FF9
:105160000F942322AB01BC018BE999E00E94E195E9
:105170008AE00E945130B4C20E94129689E899E0F8
:105180000E942C94ADC283E50E94658D182F882360
:1051900071F00E942E8D0F941F2A7093420260932B
:1051A000410221E0672B09F020E020933B0780E5D6
:1051B0000E94658D882359F020914102309142026E
:1051C000232B11F00E941A8D80933B0789C2111185
:1051D00087C20E94169680EC99E00E942C948091E0
:1051E0003B07882319F08EE19AE102C087EA99E033
:1051F0000E942C9460914102709142028FEA99E0E2
:105200000E94F2958BEA99E00E942C9469C20E9458
:10521000D44166C281E00E9436D90E949C8260C25D
:105220000E94EB450E949C825BC20E941A9658C263
:105230006FEF7FEF89E40E949F47182F6FEF7FEF9A
:105240008AE40E949F47082F8AE50E94658DF82E08
:10525000811105C081E50E94658DD82E01C0D12C39
:1052600017FD06C007FD04C0F11009C0D11007C02A
:105270000E94129683ED99E00E942C9431C2133063
:1052800010F4033038F00E94129688EB95E00E94EB
:105290002C9426C2E12E110FFF08002E000C110BDA
:1052A0000E942E8DD701AA0FBB1FDD2081F0FD01CA
:1052B000EE0DFF1DE00FF11FEE0FFF1FEE0FFF1FA2
:1052C000EB50FD4E208131814281538103C020E0AB
:1052D00030E0A901EA0EFB1E0E0D1F1D000F111F6D
:1052E000000F111F0B501D4E0F94B328F80160835F
:1052F000718382839383F4C10E94CDFA8111F0C13E
:1053000007E51BE127E532E03DA72CA7CE0101967A
:105310001C012AE8C22E2BE1D22E7C01F8016591F6
:10532000759185919491ECA5FDA581909190A190A6
:10533000B190FDA7ECA7A50194010F94B2282B0111
:105340003C01F701608371838283938320E030E026
:1053500040EA51EC0F94132B87FD0AC020E030E0A7
:1053600040EA51E4C301B2010F94BD2118162CF498
:10537000F601849118160CF4C0C4F7018190919045
:10538000A190B1907F0120E030E040EA51ECC501EE
:10539000B4010F94132B87FDBAC420E030E040EA3B
:1053A00051E4C501B4010F94BD2118160CF0C3C41B
:1053B000AEC40E94DB5994C10F94120091C161E008
:1053C00083E50E94BB8D8F250F94200089C181E069
:1053D0008093DE120E94CC5E1092DE12882309F4C4
:1053E0007FC10E9416968FE29AE00E942C9478C1A9
:1053F0008091331282FF74C180648093331270C134
:105400000E94A4B96DC119821A821B821C8207E80E
:1054100012E09E012F5F3F4F7901DD24D394CC240D
:10542000C394F80181918F010E94658D882319F042
:10543000F701C082D12CFFEFEF1AFF0A22E00B38F0
:10544000120779F7DD2029F081E089838A838B8335
:105450008C832C814B816A8189810E943B9440C15D
:10546000023041F1033081F10130D1F0D11009C097
:105470009093B1108093B010BC018AE790E10E9434
:10548000FF9910E00F5F043069F160E070E0F50112
:1054900081915F010E949F477C01009799F3E0CFC3
:1054A000D110EFCF9093731080937210BC018CE3F6
:1054B00090E1E5CFD110E5CF909335108093341073
:1054C000BC018EEF9FE0DBCF0E941AD287FD08C19E
:1054D0008111D7CFF092F70FE092F60FB70180EC71
:1054E0009FE0CDCF112309F4FBC00E944CD2609104
:1054F000B0107091B1108AE39AE00E94D4958AE0CE
:105500000E9451300E9449D26091721070917310C4
:105510008AE39AE00E94D4958AE00E9451300E946A
:1055200046D260913410709135108AE39AE00E945F
:10553000D4958AE00E9451300E9443D26091F60FC8
:105540007091F70F8AE39AE00E94D4958AE00E9456
:105550005130C6C00E94C9D2C3C00E944CD28CE454
:105560009AE00E942C948091B4100E94BA958AE02F
:105570000E9451300E9449D28CE49AE00E942C94FF
:10558000809176100E94BA958AE00E9451300E9464
:1055900046D28CE49AE00E942C94809138100E94AC
:1055A000BA958AE00E9451300E9443D28CE49AE07E
:1055B0000E942C948091FA0F0E94BA958AE00E9472
:1055C00051308EC00E944FD28BC00E942A8D002382
:1055D00069F0013089F010E00F5F033099F088E541
:1055E000800F0E94658D8823B9F3EFCFF1E0FF159E
:1055F00090F30E94F5ABEFCF21E02F1560F30E94EE
:10560000CCABE9CF112309F46BC00E944CD28DE6DC
:105610009AE00E942C948AE790E10E94FC9A682FFD
:10562000880F770B880B990B0E94C5300E9456316A
:105630000E9449D28DE69AE00E942C948CE390E17E
:105640000E94FC9A682F880F770B880B990B0E9499
:10565000C5300E94563144C081E08093E00610922C
:10566000D70E60E083E50E94BB8D811139C00E9496
:1056700009B936C00E942E656D337105810591050B
:1056800020F08BE99AE00F94C10887E99AE00F9423
:10569000C10883E89AE00E942C940E9424DE20C076
:1056A0000E94BFFA1DC00091660D1091670D002386
:1056B000B9F00E94169684E50E945130B801772710
:1056C000072E000C880B990B0E94C53080E20E94C7
:1056D000513089E899E00E942C9402C00E94BFFAE0
:1056E0003FA5311102C00E94F9B88EA58093CA036C
:1056F00058C30E94B5DC3090860E80E00E94BD90B9
:105700004090F30C5090F40C6090F50C7090F60CF7
:10571000C090EF0CD090F00CE090F10CF090F20CF7
:1057200084E690E0A0E0B0E08093EF0C9093F00C62
:10573000A093F10CB093F20C8093F30C9093F40CC3
:10574000A093F50CB093F60C0E944ADC0E94E9800D
:1057500081E080934C050E94528388E50E94658D0C
:10576000182F89E50E94658D082F8AE50E94658DB6
:10577000101334C1181711F0012F30C101E011E0EE
:105780002224239480E1E7E5F2E0A9ECB4E0019063
:105790000D928A95E1F782E50E94AE8D882361F033
:1057A0000E942E8D4B015C0120E030E0A9010F9496
:1057B000BD218823E9F105C0812C912C40E4A42E61
:1057C000BA2C111102C00023E9F180917C1282FDF4
:1057D00009C060915F0270916002809161029091B6
:1057E000620203C060E070E0CB01A50194010F9458
:1057F000B3286093D1047093D2048093D304909320
:10580000D40420915F023091600240916102509176
:1058100062020F94132B18165CF419821A821B82F1
:105820001C82BE016F5F7F4F81ED94E00E94EB818F
:10583000112319F080E00F947B0E002319F081E012
:105840000F947B0EC092EF0CD092F00CE092F10C12
:10585000F092F20C4092F30C5092F40C6092F50C22
:105860007092F60C0E944ADC222009F4A6C08091B6
:105870007C128370833051F060E08AEA95E00E94E8
:105880006FEA0E9416968BE995E0B3C00E949A8257
:10589000C0905F02D0906002E0906102F0906202DE
:1058A00020917D1230917E1240917F125091801292
:1058B00060E070E088EC92E40F94B2284B015C0148
:1058C0006093C9047093CA048093CB049093CC0472
:1058D0002091811230918212409183125091841252
:1058E00060E070E088EC92E40F94B2282B013C0158
:1058F0006093CD047093CE048093CF049093D00432
:105900002091851230918612409187125091881211
:10591000C701B6010F94B2286093D1047093D204EA
:105920008093D3049093D40429E630E040E251EC14
:10593000C301B2010F94132B87FD52C027E030E062
:1059400048E453E4C301B2010F94BD2118160CF4CE
:1059500047C024E330E040EA51ECC501B4010F94A4
:10596000132B87FD3DC027E030E048E453E4C50138
:10597000B4010F94BD2118169CF164EF71E080E032
:1059800090E00E9408941C8E1D8E1E8E1F8E88E053
:10599000E9ECF4E0DE01119601900D928A95E1F7B1
:1059A000AE01445E5F4FBE016B5F7F4FCE0101963B
:1059B0000E94C98182E00F947B0E0E949A8280919E
:1059C0004B0580934C05832D0E94BD900E94D08092
:1059D00083E0809367020E949C8282CE282ED2CEE2
:1059E00060E08AE895E00E946FEA0E94169688E7D8
:1059F00095E00E942C94E1CF0E94714C71CE0E94E0
:105A00007D310C94D1201092D80E1093CA030E94BD
:105A100085FA66CE88E50E94658D81115F9889E5DB
:105A20000E94658D81118A988AE50E94658D882380
:105A300029F08091080181708093060185E40E941D
:105A4000658D882309F44CCE12984ACE60E08AEE28
:105A500095E00E946FEA5F988A98809108018170B2
:105A60008093060112983CCE0E94F68CAB01BC01DB
:105A700040932F1250933012609331127093321270
:105A80008CE49FE00E94DFCE2BCE8DE40E94AE8D91
:105A90008823D9F00E94068D813069F038F0823079
:105AA00079F462E0802F0E948CC61ACE60E0802FCD
:105AB0000E948CC615CE61E0802F0E948CC610CE4D
:105AC00082E896E00E942C940BCE83E50E94AE8D76
:105AD000882309F405CE0E94068DF82EF9E0EF1216
