:100000000C94A8170C94D9170C94D9170C94D917E1
:100010000C94D9170C94D9170C94D9170C94D917A0
:100020000C94D9170C94D9170C94D9170C94D91790
:100030000C94D9170C94D9170C94D9170C94D91780
:100040000C94D9170C942CE50C94D9170C94D9174F
:100050000C94D9170C94D9170C94B6A40C94BA7BB1
:100060000C94D9170C940FC60C94D9170C94D9176B
:100070000C94D9170C94D9170C94D9170C94D91740
:100080000C94D9170C94D9170C94D9170C94D91730
:100090000C94D9170C94D9170C94D9170C94D91720
:1000A0000C94D9170C94D9170C94D9170C94D91710
:1000B0000C94D9170C94D9170C94D9170C94D91700
:1000C0000C94D9170C94D9170C94D9170C94D917F0
:1000D0000C94D9170C94D9170C94D9170C94D917E0
:1000E0000C94D91763E166E155E159E15FE19DE1C7
:1000F0006AE16EE174E178E17CE182E186E18AE126
:100100009DE190E194E198E148E44DE452E45CE43F
:1001100066E4DFE470E478E480E48AE494E49EE456
:10012000ADE4B7E4DFE4C1E4CBE4D5E4084AD73B6F
:100130003BCE016E84BCBFFDC12F3D6C74319ABDB6
:1001400056833DDA3D00C77F11BED9E4BB4C3E91DA
:100150006BAAAABE000000803F05A84CCDB2D44EC9
:10016000B93836A9020C50B9918688083CA6AAAACB
:100170002ABE000000803F000D94C9004E414E4948
:100180004E495459494E46CDCCCC3D0AD7233C1755
:10019000B7D13877CC2B329595E6241FB14F0A00A2
:1001A0000020410000C84200401C4620BCBE4CCA92
:1001B0001B0E5AAEC59D74434F4D4D554E4943419C
:1001C00054494F4E0044525952554E004552524FD9
:1001D000525300494E464F004543484F0047322F87
:1001E00047332062616420706172616D657465726D
:1001F000730A00536C6565702E2E2E00486F6D6576
:100200002058592066697273740A00486F6D652022
:10021000585920666972737400205A3A2000205998
:100220003A200042656420583A20004D65736820EA
:10023000706F696E742063616E6E6F7420626520EA
:100240007265736F6C7665640A00436C69636B203A
:10025000746F20726573756D652E2E2E004E6F20A3
:100260006D6F76652E00456E642066696C65206C46
:100270006973740A00426567696E2066696C65205F
:100280006C6973740A00286E6F2066696C652900BA
:100290005344207072696E74696E67206279746568
:1002A00020004E6F74205344207072696E74696E22
:1002B000670A0043757272656E742066696C653AF0
:1002C00020002569730025696D2025697300256963
:1002D000682025696D2025697300256964202569DA
:1002E000682025696D2025697300256979202569B5
:1002F00064202569682025696D2025697300507286
:10030000696E742074696D653A2000D801D301CC00
:1003100001C501B7016F66660044454255473A0082
:100320004B494C4C45442E20004D31313320530075
:100330006F6B004E4C2042473132204F66662E00D4
:100340002C20002C2000544845524D414C5F505207
:100350004F54454354494F4E004155544F52455018
:100360004F52545F53445F53544154555300454DCD
:10037000455247454E43595F504152534552004301
:100380004153455F4C494748545F4252494748549E
:100390004E45535300544F47474C455F4C494748DF
:1003A000545300534F4654574152455F504F5745A1
:1003B00052004255494C445F50455243454E54000B
:1003C0004C4556454C494E475F44415441005A5FA5
:1003D00050524F4245004155544F4C4556454C00F4
:1003E0005052494E545F4A4F420050524F47524577
:1003F0005353004155544F5245504F52545F54454A
:100400004D5000564F4C554D4554524943004545BB
:1004100050524F4D0053455249414C5F584F4E5F2B
:10042000584F4646004649524D574152455F4E414E
:100430004D453A4D61726C696E20312E312E392056
:10044000284769746875622920534F555243455FA8
:10045000434F44455F55524C3A68747470733A2F59
:100460002F6769746875622E636F6D2F4D61726CB2
:10047000696E4669726D776172652F4D61726C6944
:100480006E2050524F544F434F4C5F564552534984
:100490004F4E3A312E30204D414348494E455F542E
:1004A0005950453A4E4C204247313220455854521B
:1004B000554445525F434F554E543A3120555549A6
:1004C000443A63656465326132662D343161322DA0
:1004D000343734382D396231322D63353563363255
:1004E0006633363766660A002F2F20004D313435CB
:1004F00020533C696E6465783E206F7574206F668A
:100500002072616E67652028302D31290A00205441
:1005100000205200416363656C65726174696F6E9F
:100520003A20500020466C6F773A200000012531B8
:100530001D40FFFFFF2924301C45FFFFFF27232F0D
:100540001B0AFFFFFFFF43FFFF040806FFFF222BEC
:100550001AFFFF42043803063643290A0061626C21
:10056000656420286D696E2074656D702000436F8E
:100570006C6420657874727564657320617265209F
:10058000004E6F2063617365206C696768740A00B0
:100590004D65736820706F696E742063616E6E6F55
:1005A00074206265207265736F6C7665640A004D15
:1005B00034323120696E636F7272656374207061CA
:1005C00072616D657465722075736167650A0045B7
:1005D0004550524F4D204F4B0A003F5A206F7574C3
:1005E000206F662072616E676520282D323020747E
:1005F0006F203230290A003A200050726F62652065
:100600005A204F666673657400416374697665208D
:1006100045787472756465723A2000496E76616C33
:1006200069642065787472756465720A0024F4D474
:100630003050C38E20C2A24017828B7011127A9163
:100640000D816CD90AA861E108C75866076151435A
:10065000061E4B5D05C145A7041A411104093D98CA
:1006600003713931034036DB0265339102D43054D3
:1006700002802E1D02632CEE01752AC501B028A050
:1006800001102781018F2564012B244B01E02234C6
:1006900001AC211F018D200D01801FFC00841EED87
:1006A00000971DDF00B81CD200E61BC600201BBC53
:1006B00000641AB200B219A8000A19A0006A1899B9
:1006C00000D117910040178B00B516840031167EBB
:1006D00000B31579003A157300C7146F0058146AF7
:1006E00000EE1366008813630025135E00C7125BDB
:1006F000006C12570015125400C111510070114FB7
:100700000021114B00D61049008D104700461044BF
:100710000002104200C00F4000800F3E00420F3C1C
:1007200000060F3B00CB0E3800930E37005C0E35F1
:1007300000270E3400F30D3200C10D3100900D3052
:1007400000600D2E00320D2D00050D2C00D90C2B54
:1007500000AE0C2900850C29005C0C2700350C2705
:10076000000E0C2600E80B2400C40B2400A00B2371
:10077000007D0B23005A0B2100390B2100180B20A0
:1007800000F80A1F00D90A1E00BB0A1E009D0A1DA0
:1007900000800A1D00630A1C00470A1B002C0A1B6C
:1007A00000110A1A00F7091A00DD091900C4091915
:1007B00000AB091900920917007B0918006309179B
:1007C000004C09160036091600200916000A091502
:1007D00000F5081500E0081400CC081400B808144F
:1007E00000A4081400900813007D0812006B081381
:1007F000005808120046081200340811002308119E
:10080000001208110001081100F0071000E00710A5
:1008100000D0071000C0071000B0070F00A107109C
:100820000091070E0083070F0074070F0065070E85
:100830000057070E0049070E003B070D002E070E5C
:100840000020070D0013070D0006070D00F9060C28
:1008500000ED060D00E0060C00D4060C00C8060CE6
:1008600000BC060C00B0060C00A4060B0099060C98
:10087000008D060B0082060B0077060B006C060B42
:100880000061060A0057060B004C060A0042060AE1
:100890000038060A002E060A0024060A001A060A74
:1008A000001006090007060A00FD050900F4050905
:1008B00000EB050900E2050900D9050900D005098A
:1008C00000C7050900BE050900B5050800AD05080B
:1008D00000A50509009C050800940508008C050882
:1008E00000840508007C050800740508006C0507F5
:1008F00000650508005D050700560508004E050760
:1009000000470507004005080038050700310507C6
:10091000002A050700230507001C05060016050729
:10092000000F0507000805060002050700FB040686
:1009300000F5040700EE040600E8040600E20407E0
:1009400000DB040600D5040600CF040600C9040637
:1009500000C3040600BD040600B7040600B1040588
:1009600000AC040600A6040600A00405009B0406D3
:100970000095040500900406008A0405008504051E
:1009800000800406007A0405007504050070040563
:10099000006B04050066040500610405005C0405A5
:1009A0000057040500520405004D040500480405E5
:1009B00000430405003E0404003A04050035040524
:1009C00000300404002C040500270404002304055F
:1009D000001E0404001A0404001604050011040497
:1009E000000D0404000904050004040400000404CC
:1009F00000FC030400F8030400F4030400F0030403
:100A000000EC030400E8030400E4030400E0030432
:100A100000DC030400D8030400D4030400D0030462
:100A200000CC030400C8030300C503030024F4043E
:100A3000D9201BC40C5C0E9804C4095F02650771C1
:100A400001F405F900FB04B30048048700C1036901
:100A5000005803550003034500BE023A00840231EA
:100A60000053022A002902250004022000E4011C90
:100A700000C8011900AF0117009801140084011388
:100A800000710110006101100051010E0043010DC1
:100A90000036010B002B010B0020010B0015010992
:100AA000000C01090003010800FB000800F3000826
:100AB00000EB000700E4000600DE000600D8000698
:100AC00000D2000600CC000500C7000500C20005EA
:100AD00000BD000400B9000400B5000400B100042A
:100AE00000AD000400A9000400A5000300A200035B
:100AF000009F0004009B0003009800030095000283
:100B00000093000300900003008D0002008B00039F
:100B100000880002008600020084000300810002B9
:100B2000007F0002007D0002007B000200790002CD
:100B300000770001007600020074000200720001DC
:100B400000710002006F0002006D0001006C0002E5
:100B5000006A0001006900020067000100660001F0
:100B600000650001006400020062000100610001F4
:100B700000600001005F0002005D0001005C0001F8
:100B8000005B0001005A00010059000100580001FB
:100B900000570001005600010055000100540001FB
:100BA00000530000005300010052000100510001F9
:100BB00000500001004F0001004E0000004E0001F7
:100BC000004D0001004C0001004B0000004B0001F3
:100BD000004A0001004900010048000000480001EF
:100BE00000470001004600000046000100450000EB
:100BF00000450001004400010043000000430001E3
:100C000000420000004200010041000000410001DC
:100C100000400001003F0000003F0001003E0000D6
:100C2000003E0001003D0000003D0001003C0000CE
:100C3000003C0000003C0001003B0000003B0001C4
:100C4000003A0000003A00010039000000390001BC
:100C500000380000003800000038000100370000B4
:100C600000370001003600000036000000360001A9
:100C700000350000003500000035000100340000A0
:100C80000034000000340001003300000033000095
:100C90000033000100320000003200000032000189
:100CA0000031000000310000003100010030000080
:100CB0000030000000300001002F0000002F000075
:100CC000002F0000002F0001002E0000002E000069
:100CD000002E0001002D0000002D0000002D00005E
:100CE000002D0001002C0000002C0000002C000052
:100CF000002C0001002B0000002B0000002B000046
:100D0000002B0001002A0000002A0000002A000039
:100D1000002A00010029000000290000002900002D
:100D20000029000000290001002800000028000020
:100D30000028000000280000002800010027000013
:100D40000027000000270000002700000027000106
:100D500000260000002600000026000000260000FB
:100D600000260001002500000025000000250000ED
:100D700000250000002500000025000100240000DF
:100D800000240000002400000024000000240001D2
:100D900000230000002300000023000000230000C7
:100DA00000230000002300000023000100220000B7
:100DB00000220000002200000022000000220000AB
:100DC000002200010021000000210000002100009D
:100DD000002100000021000000210000002100018E
:100DE0000020000000200000002000000020000083
:100DF0000020000000200000002000000020000172
:100E0000001F0000001F0000001F0000001F000066
:100E1000001F0000001F0000001F0001001E000056
:100E2000001E0000001E0000001E000000393000FF
:100E3000003325000087190000B00F0000DB080018
:100E400000BD040000740200003F01000020746F28
:100E50006F206C6F6E6720657874727573696F6E42
:100E60002070726576656E7465640A0020636F6C2D
:100E70006420657874727573696F6E207072657620
:100E8000656E7465640A00526573746F72652066DE
:100E900061696C73616665004C6F61642073657491
:100EA00074696E677300496E697469616C697A650B
:100EB00020454550524F4D0053746F726520736545
:100EC0007474696E67730046696C616D656E740059
:100ED0004D6F74696F6E0054656D706572617475E5
:100EE0007265004D61696E005072656865617420BD
:100EF00041425320636F6E6600507265686561748D
:100F000020504C4120636F6E66005049442D4400D0
:100F10005049442D44005049442D49005049442D26
:100F200049005049442D50005049442D50002002A2
:100F30002046616374002002204661637400200231
:100F4000204D6178002002204D6178002002204D64
:100F50006178002002204D696E002002204D696EEC
:100F6000002002204D696E004F6666004F6E200023
:100F70004175746F74656D700046616E20737065A5
:100F800065640046616E2073706565640046616E3D
:100F900020737065656400426564004265640042C8
:100FA0006564004E6F7A7A6C65004E6F7A7A6C6574
:100FB000004E6F7A7A6C6500436F6E74726F6C00CE
:100FC00053746F72652073657474696E6773004241
:100FD00065640042656400426564004E6F7A7A6C15
:100FE00065004E6F7A7A6C65004E6F7A7A6C650098
:100FF00046616E2073706565640046616E20737093
:101000006565640046616E207370656564005465B3
:101010006D706572617475726500565472617620E8
:101020006D696E005654726176206D696E0056547B
:10103000726176206D696E00566D696E00566D693D
:101040006E00566D696E00566D6178204500566DD4
:101050006178204500566D6178204500566D6178B5
:10106000205A00566D6178205A00566D6178205ADA
:1010700000566D6178205900566D617820590056F0
:101080006D6178205900566D6178205800566D6169
:1010900078205800566D61782058004D6F74696F44
:1010A0006E00436172642072656D6F766564004402
:1010B00061746120496E6A6563746564004D323401
:1010C000004D323320257300556E6B6E6F776E20A6
:1010D000636F6D6D616E643A20220050726F6269B9
:1010E0006E67206661696C65640A0050726F6269A0
:1010F0006E67206661696C656400205A3A200020A2
:10110000593A200042656420583A2000000020002F
:101110002300260029002C002F00320000010000CF
:1011200003010601090100002200250028002B0010
:101130002E003100340002010000050108010B01FE
:1011400005050505070508080808020202020A0A43
:101150000808040404040101010101010101030361
:10116000030303030303040707070C0C0C0C0C0C0C
:101170000C0C0202020206060606060606060B0B09
:101180000B0B0B0B0B0B07070A0A0A0A0A0A0505C9
:10119000050404040808010210202008081020405B
:1011A000102040800201020108040201010204082B
:1011B00010204080804020100804020180040201B9
:1011C0008040201008040201080402010102040802
:1011D00010204080010204081020408010080408FC
:1011E00080102040044080102040048020496E760A
:1011F000616C6964206578747275646572200000A2
:10120000000000000070C1000000000000964300D4
:101210000096430000BE4342696C696E65617220AE
:101220004C6576656C696E6720477269643A0A009E
:10123000486F6D696E67206661696C65640020287F
:1012400044525952554E2900473239204175746F26
:1012500020426564204C6576656C696E67003F20AE
:10126000284C2C522C462C4229206F7574206F6616
:1012700020626F756E64732E0A003F2856296572CE
:10128000626F7365206C6576656C20697320696D8B
:10129000706C61757369626C652028302D34292E5D
:1012A0000A00426164205A2076616C75650A004E1E
:1012B0006F2062696C696E65617220677269640A89
:1012C0000046696C2E204469612E0046696C2E2010
:1012D0004469612E004F6666004F6E20004520690C
:1012E0006E206D6D3300436F6E74726F6C004361DE
:1012F0006E6E6F7420656E746572207375626469BA
:10130000723A2000052E2E004D61696E0050726504
:10131000686561742041425320456E6400507265D7
:1013200068656174204142532042656400507265D3
:101330006865617420414253005072657061726546
:10134000004D343238005072656865617420504C2D
:101350004100436F6F6C646F776E00507265686513
:101360006174204142530044697361626C6520736B
:1013700074657070657273004D3834005365742065
:10138000686F6D65206F666673657473004661648F
:101390006520486569676874004661646520486532
:1013A00069676874004661646520486569676874A8
:1013B000004F6666004F6E2000426564204C6576E3
:1013C000656C696E67004C6576656C2062656400CB
:1013D0004732380A473239004175746F20686F6DA3
:1013E0006500473238004D6F76652061786973007B
:1013F0004D61696E004D6F76652058004D6F7665C2
:101400002059004D6F7665205A00457874727564D6
:101410006572004D6F766520302E316D6D004D6F19
:10142000766520316D6D004D6F76652031306D6DC4
:10143000004D6F7665206178697300457874727528
:10144000646572004D6F7665205A004D6F76652099
:1014500059004D6F76652058004578747275646543
:1014600072004D6F7665205A004D6F7665205900E9
:101470004D6F766520580050726570617265004945
:101480006E697469616C697A6520454550524F4DAB
:1014900000436F6E74726F6C000000000001020464
:1014A000040000001C1C0C040404020100000000E5
:1014B0000004081000000000002D2D2D2D2D2D0002
:1014C0007C4D61726C696E7C002D2D2D2D2D2D00B3
:1014D000687474703A2F2F6D61726C696E66772E26
:1014E0006F726700687474703A2F2F6D61726C6947
:1014F0006E66772E6F72670020312E312E390020F4
:1015000020506C616E6E65724275666665724279D6
:101510007465733A20002046726565204D656D6FD5
:1015200072793A2000436F6D70696C65643A204DA2
:10153000617920203320323031390A00207C20416B
:101540007574686F723A205061756C2043686173DE
:10155000652026204A6F686E204C696E6B0A003247
:101560003031382D30382D303100204C61737420EB
:10157000557064617465643A2000312E312E390A49
:10158000004D61726C696E0020536F6674776172F2
:10159000652052657365740A00205761746368643E
:1015A0006F672052657365740A002042726F776E10
:1015B000206F75742052657365740A002045787435
:1015C00065726E616C2052657365740A00506F77A6
:1015D000657255700A0073746172740A00617574E3
:1015E0006F25692E67006572726F72207772697459
:1015F000696E6720746F2066696C650A00456E64C9
:1016000073746F7073202563202563202563202564
:101610006300205A3A0020593A0020583A00656E7B
:101620006473746F7073206869743A2000446F6E3D
:101630006520736176696E672066696C652E0A00A5
:101640004D3239003A004361703A005741524E49D9
:101650004E4721204C6F77205A204A65726B206DCF
:101660006179206C65616420746F20756E77616E9E
:10167000746564207061757365732E0A00205A00CA
:10168000205900580020204D61783A2000205A004F
:10169000205900580020204D696E3A20004F6E20DE
:1016A000004F666600536F667420656E6473746FD6
:1016B00070733A200020643A0020693A0020703AA2
:1016C00000496E76616C6964206578747275646532
:1016D000720A0023646566696E652044454641557B
:1016E0004C545F4B64200023646566696E6520443A
:1016F000454641554C545F4B69200023646566693B
:101700006E652044454641554C545F4B7020005057
:101710004944204175746F74756E652066696E6901
:1017200073686564212050757420746865206C614D
:101730007374204B702C204B6920616E64204B64C5
:1017400020636F6E7374616E74732066726F6D20A8
:1017500062656C6F7720696E746F20436F6E666987
:101760006775726174696F6E2E680A005049442073
:101770004175746F74756E65206661696C6564216E
:101780002074696D656F75740A00453120544845B1
:10179000524D414C2052554E4157415900546865B5
:1017A000726D616C2052756E6177617900453120F0
:1017B00048656174696E67206661696C656400489C
:1017C000656174696E67206661696C656400504983
:1017D00044204175746F74756E65206661696C652F
:1017E00064212054656D7065726174757265207432
:1017F0006F6F20686967680A00204B643A200020F8
:101800004B693A2000204B703A20000A20436C615B
:101810007373696320504944200A002054753A20AC
:1018200000204B753A2000206D61783A2000206D31
:10183000696E3A200020643A200020626961733AA0
:101840002000504944204175746F74756E652066A0
:1018500061696C65642120426164206578747275E9
:10186000646572206E756D6265720A00504944208D
:101870004175746F74756E652073746172740A00BB
:101880004F66660A0046616465204865696768744A
:101890002000426564204C6576656C696E672000A7
:1018A0004661696C656420746F20656E61626C6569
:1018B00020426564204C6576656C696E670A004F4E
:1018C000666673657473206170706C696564004549
:1018D00072723A20546F6F206661722100546F6FEC
:1018E000206661722066726F6D2072656665726532
:1018F0006E636520706F696E740A00486F6D6520B5
:1019000025732573257320666972737400206669D8
:101910007273740A005A0059005800486F6D6520B0
:101920000053442063617264206F6B0A006F70651E
:101930006E526F6F74206661696C65640A00766F21
:101940006C756D652E696E6974206661696C65647D
:101950000A00534420696E6974206661696C0A004C
:1019600057726974696E6720746F2066696C653A96
:1019700020006F70656E206661696C65642C20467E
:10198000696C653A20006F70656E206661696C65F0
:10199000642C2046696C653A200046696C652073AA
:1019A000656C65637465640A002053697A653A2042
:1019B0000046696C65206F70656E65643A20002092
:1019C00066696C653A2000646F696E6700667265CF
:1019D0007368004E6F772000454E442053554252A5
:1019E0004F5554494E450A002220706F7300222043
:1019F000706172656E743A2200535542524F5554CD
:101A0000494E452043414C4C207461726765743ADD
:101A100022004B494C4C45442E2000747279696E6B
:101A20006720746F2063616C6C207375622D67632F
:101A30006F64652066696C657320776974682074CB
:101A40006F6F206D616E79206C6576656C732E20EA
:101A50004D4158206C6576656C2069733A0045727B
:101A6000726F723A00001C1F11111F00000006194E
:101A70001803130C00040E1F041C000000000E13BA
:101A800015110E00001C10181705060500040A0A9F
:101A90000A0A11110E0C12120C00000000001F1592
:101AA00011151F00007C3C3E5E2B3D3F2F5B5D3BD4
:101AB0002C2A225C0070012C0190012701B0012228
:101AC00001C0011D01F00118011002130130020EC6
:101AD000016002090190020401C002FF000003FA44
:101AE000004003F5008003F000D003EB002004E683
:101AF000007004E100E004DC004005D700C005D21E
:101B0000004006CD00D006C8008007C3003008BEE4
:101B100000F008B900C009B400B00AAF00B00BAAC9
:101B200000D00CA500000EA000500F9B00C0109626
:101B3000005012910000148C00C0158700B017826D
:101B400000B0197D00D01B7800001E730040206E8D
:101B50000090226900F024640040275F0090295A19
:101B600000E02B5500102E500020304B0010324664
:101B700000E033410090353C0010373700703832B8
:101B800000A0392D00B03A2800A03B2300603C1E85
:101B900000103D1900903D1400103E0F00703E0AE9
:101BA00000C03E0500003F0000403FFBFF803FF6C5
:101BB000FFC03FF1FF453400453300453200453159
:101BC000004530005A32005932005832005A00594C
:101BD000005800202F002042403A0020403A00D117
:101BE0001BCF1BCD1BCA1BC71BC41BC11BBE1BBBF2
:101BF0001BB81BB51B747275650066616C7365005C
:101C00002074656D7065726174757265207072659F
:101C10007761726E207472696767657265643A20D5
:101C200000207072657761726E20666C6167206358
:101C30006C65617265640A0020686F6D696E67206B
:101C400073656E73697469766974793A20002575D5
:101C50003A2530327500253032753A25303275001C
:101C60002D2D2D0053440020202020202000202056
:101C7000202000416D6178204500416D617820454C
:101C800000416D6178205A00416D6178205A004111
:101C90006D6178205900416D6178205900416D6176
:101CA00078205800416D6178205800412D74726190
:101CB00076656C00412D74726176656C00412D7201
:101CC00065747261637400412D726574726163742E
:101CD00000416363656C00416363656C004D6F7424
:101CE000696F6E0056652D6A65726B0056652D6AC8
:101CF00065726B0056652D6A65726B00567A2D6AA7
:101D000065726B00567A2D6A65726B0056792D6A82
:101D100065726B0056792D6A65726B0056792D6A73
:101D200065726B0056782D6A65726B0056782D6A65
:101D300065726B0056782D6A65726B004D6F746921
:101D40006F6E004573746570732F6D6D004573740D
:101D50006570732F6D6D005A73746570732F6D6DA0
:101D6000005A73746570732F6D6D005973746570CC
:101D7000732F6D6D005973746570732F6D6D0058FE
:101D800073746570732F6D6D005873746570732F65
:101D90006D6D004D6F74696F6E0053746570732FB5
:101DA0006D6D004A65726B00416363656C657261BD
:101DB00074696F6E0056656C6F6369747900507258
:101DC0006F6265205A204F66667365740050726FAB
:101DD0006265205A204F666673657400436F6E74A7
:101DE000726F6C0006FFFFFFFFFF000101010101A0
:101DF0006265640A002C2073797374656D207374B6
:101E00006F7070656421204865617465725F494434
:101E10003A20004265642068656174696E672066D7
:101E200061696C65640048656174696E672066610C
:101E3000696C65640045312048656174696E67208E
:101E40006661696C65640048656174696E672066E7
:101E500061696C656400453120544845524D414CE0
:101E60002052554E4157415900424544205448455F
:101E7000524D414C2052554E4157415900546865CE
:101E8000726D616C2052756E617761790045312009
:101E90004572723A204D415854454D50004572727A
:101EA0003A204D415854454D5020424544004D4143
:101EB0005854454D502074726967676572656400B7
:101EC0004531204572723A204D494E54454D5000DF
:101ED0004572723A204D494E54454D50204245447A
:101EE000004D494E54454D502074726967676572C4
:101EF0006564004D383420582059205A204500464A
:101F0000696C652064656C657465643A0044656C51
:101F10006574696F6E206661696C65642C20466922
:101F20006C653A200050726F74656374656420506C
:101F3000696E0A005374616E646172642044657650
:101F4000696174696F6E3A20002052616E67653A6C
:101F50002000204D61783A2000204D696E3A200023
:101F60004D65616E3A200046696E6973686564214B
:101F70000A002072616E67653A2000206D61783A30
:101F80002000206D696E3A2000207369676D613A08
:101F90002000206D65616E3A20003A207A3A2000D8
:101FA000206F662000205A00205900205800476FFB
:101FB000696E6720746F3A00436C6F636B77697367
:101FC000650A00436F756E7465722D002044697256
:101FD000656374696F6E3A2000202020616E676C23
:101FE000653A20005374617274696E67207261648F
:101FF0006975733A2000506F736974696F6E696E0A
:1020000067207468652070726F62652E2E2E0A003C
:102010003F4E756D626572206F66206C6567732038
:10202000696E206D6F76656D656E74206E6F7420BD
:10203000706C61757369626C652028302D313529AB
:102040002E0A003F2028582C5929206F7574206FC4
:102050006620626F756E64732E0A003F53616D7067
:102060006C652073697A65206E6F7420706C617581
:102070007369626C652028342D3530292E0A004D95
:102080003438205A2D50726F626520526570656138
:10209000746162696C69747920546573740A003FD5
:1020A0002856296572626F7365206C6576656C20B1
:1020B000697320696D706C61757369626C65202845
:1020C000302D34292E0A0048617264636F646564A0
:1020D0002044656661756C742053657474696E671D
:1020E00073204C6F616465640A00DC0500005802CF
:1020F00000000F000000102700000000FA4300005D
:10210000C842000070410000C8410000A042000029
:10211000A0420000C84400800D4320204D393036D5
:10212000003A0A0020286D6D290020204D393134F5
:102130000020590020580053656E736F726C6573F0
:102140007320686F6D696E67207468726573686F5D
:102150006C643A0A00205430204500205A0020596F
:10216000002058005374657070657220647269763F
:1021700065722063757272656E743A0A0020204D94
:10218000383531205A005A2D50726F6265204F66E3
:10219000667365740020440020490020204D3330D0
:1021A000312050005049442073657474696E677320
:1021B0003A0A0020460020420020480020204D31ED
:1021C00034352053004D6174657269616C20686517
:1021D0006174757020706172616D65746572733AB7
:1021E0000A00205A00204A00202047323920572078
:1021F0004900205A0020204D3432302053004175D0
:10220000746F20426564204C6576656C696E673A30
:102210000A00205A0020590020204D323036205824
:1022200000486F6D65206F66667365743A0A00201A
:102230004500205A00205900205800205400205307
:102240000020204D32303520510020453C6D617812
:102250005F655F6A65726B3E0020583C6D61785F18
:10226000785F6A65726B3E20593C6D61785F795F7B
:102270006A65726B3E205A3C6D61785F7A5F6A6571
:10228000726B3E00416476616E6365643A20513C36
:102290006D696E5F7365676D656E745F74696D659A
:1022A0005F75733E20533C6D696E5F666565647251
:1022B0006174653E20543C6D696E5F747261766531
:1022C0006C5F66656564726174653E002054002031
:1022D000520020204D323034205000416363656C41
:1022E00065726174696F6E2028756E6974732F73DF
:1022F00032293A20503C7072696E745F6163636585
:102300006C3E20523C726574726163745F616363FA
:10231000656C3E20543C74726176656C5F616363EA
:10232000656C3E0A00204500205A002059002020FC
:102330004D3230312058004D6178696D756D204106
:102340006363656C65726174696F6E2028756E6970
:1023500074732F7332293A0A00204500205A002056
:10236000590020204D3230332058004D6178696D7E
:10237000756D206665656472617465732028756E7D
:102380006974732F73293A0A00204500205A0020EF
:10239000590020204D393220580053746570732045
:1023A00070657220756E69743A0A0020204D3230D3
:1023B000302044300A0020204D32303020440020AC
:1023C00044697361626C65640A0046696C616D659D
:1023D0006E742073657474696E67733A0020204DC3
:1023E0003134392043203B20556E69747320696E67
:1023F0002043656C736975730A00202047323120D1
:102400002020203B00627573793A207061757365F6
:102410006420666F7220696E7075740A006275734D
:10242000793A2070617573656420666F72207573E8
:1024300065720A00627573793A2070726F63657312
:1024400073696E670A004B494C4C45442E20004B83
:10245000494C4C20636175736564206279204B4957
:102460004C4C20627574746F6E2F70696E0A004B4D
:10247000494C4C45442E20004B494C4C206361751F
:1024800073656420627920746F6F206D75636820B6
:10249000696E6163746976652074696D65202D20AD
:1024A00063757272656E7420636F6D6D616E643AF0
:1024B0002000506C6561736520726573657400500F
:1024C00052494E5445522048414C544544005072A4
:1024D000696E7465722068616C7465642E206B6926
:1024E0006C6C28292063616C6C6564210A0020648F
:1024F00072697665722063757272656E743A200037
:10250000656E7175657565696E6720220000000053
:1025100000000040C1000000000000204200002038
:102520004200008040000000005761726E696E67D3
:102530003A20486F6D696E672042756D702044695E
:102540007669736F72203C20310A00020204000099
:10255000A0400000A0400000004000009643008022
:102560009D430000BE43FFFFFF0000211042206397
:10257000308440A550C660E770088129914AA16B5C
:10258000B18CC1ADD1CEE1EFF131121002733252F4
:1025900022B5529442F772D662399318837BB35AAC
:1025A000A3BDD39CC3FFF3DEE362244334200401C4
:1025B00014E664C774A44485546AA54BB5288509FC
:1025C00095EEE5CFF5ACC58DD55336722611163094
:1025D00006D776F6669556B4465BB77AA71997384C
:1025E00087DFF7FEE79DD7BCC7C448E5588668A7D4
:1025F000784008611802282338CCC9EDD98EE9AF9C
:10260000F9488969990AA92BB9F55AD44AB77A9633
:102610006A711A500A333A122AFDDBDCCBBFFB9EEB
:10262000EB799B588B3BBB1AABA66C877CE44CC503
:102630005C222C033C600C411CAEED8FFDECCDCD3B
:10264000DD2AAD0BBD688D499D977EB66ED55EF4D3
:102650004E133E322E511E700E9FFFBEEFDDDFFC8B
:10266000CF1BBF3AAF599F788F8891A981CAB1EB30
:10267000A10CD12DC14EF16FE18010A100C230E359
:10268000200450254046706760B9839893FBA3DA15
:10269000B33DC31CD37FE35EF3B1029012F322D2A9
:1026A000323542145277625672EAB5CBA5A89589A5
:1026B000856EF54FE52CD50DC5E234C324A01481F9
:1026C000046674476424540544DBA7FAB79987B8B5
:1026D000975FE77EF71DC73CD7D326F2369106B049
:1026E0001657667676154634564CD96DC90EF92FB5
:1026F000E9C899E9898AB9ABA94458654806782799
:1027000068C018E1088238A3287DCB5CDB3FEB1E54
:10271000FBF98BD89BBBAB9ABB754A545A376A16E8
:102720007AF10AD01AB32A923A2EFD0FED6CDD4DE4
:10273000CDAABD8BADE89DC98D267C076C645C4538
:102740004CA23C832CE01CC10C1FEF3EFF5DCF7CF4
:10275000DF9BAFBABFD98FF89F176E367E554E7488
:102760005E932EB23ED10EF01E4B494C4C45442E8A
:10277000200053544F505045442E20005072696E33
:102780007465722073746F70706564206475652061
:10279000746F206572726F72732E20466978207490
:1027A0006865206572726F7220616E642075736552
:1027B000204D39393920746F2072657374617274D9
:1027C0002E202854656D706572617475726520697C
:1027D000732072657365742E2053657420697420AC
:1027E00061667465722072657374617274696E6774
:1027F000290A004E6F20436865636B73756D2077FF
:10280000697468206C696E65206E756D6265722CE6
:10281000204C617374204C696E653A20004E6F2025
:10282000436865636B73756D2077697468206C69A4
:102830006E65206E756D6265722C204C617374201C
:102840004C696E653A2000636865636B73756D2033
:102850006D69736D617463682C204C617374204CD6
:10286000696E653A20004C696E65204E756D626533
:1028700072206973206E6F74204C617374204C69F0
:102880006E65204E756D6265722B312C204C617324
:1028900074204C696E653A20004D313130004D3363
:1028A000310053442072656164206572726F720A50
:1028B00000446F6E65207072696E74696E67206681
:1028C000696C650A004572726F722077726974696B
:1028D0006E6720746F20454550524F4D210A0045C8
:1028E0004550524F4D206461746173697A6520656B
:1028F00072726F722E0A00290A0020627974657361
:102900003B20637263200053657474696E677320A3
:1029100053746F726564202800526573656E643A63
:1029200020006F6B0020746F6F206C6F6E672065E6
:102930007874727573696F6E2070726576656E74E7
:1029400065640A0020636F6C642065787472757327
:10295000696F6E2070726576656E7465640A002911
:102960000A002062797465733B2063726320002043
:1029700073746F7265642073657474696E67732015
:102980007265747269657665642028002028636129
:102990006C63756C6174656429210A0020213D20F7
:1029A00000454550524F4D20435243206D69736D91
:1029B00061746368202D202873746F726564292008
:1029C000002053697A653A2000496E6465783A20A0
:1029D00000204D61726C696E3D563535290A00281C
:1029E000454550524F4D3D00454550524F4D207684
:1029F000657273696F6E206D69736D6174636820B1
:102A0000004E4C20424731322052656164792E00DD
:102A10005072696E74696E672E2E2E005072696E48
:102A20007420706175736564005072696E74206102
:102A3000626F72746564005072696E742066726FA2
:102A40006D2053440053746F70207072696E74006F
:102A5000526573756D65207072696E74004E6F20DB
:102A60005344206361726400506175736520707215
:102A7000696E7400436F6E74726F6C005072657093
:102A80006172650054756E6500496E666F207363F0
:102A90007265656E00466C6F7700466C6F77004616
:102AA0006C6F770046616E207370656564004661E7
:102AB0006E2073706565640046616E207370656595
:102AC00064004265640042656400426564004E6FC4
:102AD0007A7A6C65004E6F7A7A6C65004E6F7A7AFE
:102AE0006C650046616465204865696768740046E6
:102AF00061646520486569676874004661646520A3
:102B00004865696768740053706565640053706553
:102B10006564005370656564004D61696E005072B4
:102B2000656865617420504C4120456E64005072A8
:102B3000656865617420504C4120426564005072A4
:102B4000656865617420504C410050726570617217
:102B5000650000002100240027002A002D0030001D
:102B6000330001010000040107010A0100000A0B03
:102B700002090C0D0E08070304010000000000000C
:102B80000000000000000000000000000000000045
:102B90000000000000000000121110000000000002
:102BA0000000000000000000000000000000000025
:102BB0000000000000000000000000000000000015
:102BC0000000FFFDFCFAF8F6F4F2F0EEECEAE9E7BB
:102BD000E5E3E1E0DEDCDAD9D7D5D4D2D0CFCDCB76
:102BE000CAC8C7C5C3C2C0BFBDBCBAB9B7B6B4B303
:102BF000B2B0AFADACAAA9A8A6A5A4A2A1A09E9D63
:102C00009C9A99989795949392908F8E8D8B8A89A0
:102C100088878684838281807F7E7D7B7A797877BE
:102C2000767574737271706F6E6D6C6B6A696867BC
:102C3000666564636261605F5E5D5C5B5A595858AB
:102C40005756555453525150504F4E4D4C4B4A4A83
:102C50004948474646454443424241403F3E3E3D47
:102C60003C3B3B3A393838373635353433323231FC
:102C700030302F2E2E2D2C2B2B2A292928272726A2
:102C8000252524232322212120201F1E1E1D1C1C3C
:102C90001B1B1A19191818171616151514131312C9
:102CA000121111100F0F0E0E0D0D0C0C0B0A0A094C
:102CB00009080807070606050504040303020201C4
:102CC00000006F70656E206661696C65642C20463B
:102CD000696C653A200043616E6E6F74206F706599
:102CE0006E2073756264697220006563686F3A00D4
:102CF00020573A004520436F6F6C696E672E2E2E69
:102D000000452048656174696E672E2E2E0020579D
:102D10003A0042656420636F6F6C696E672E2E2ED9
:102D2000004265642068656174696E672E2E2E000E
:102D3000205A3A0020593A0020436F756E7420588B
:102D40003A0020453A00205A3A0020593A00583AB1
:102D500000545249474745524544006F70656E0024
:102D60003A20007A5F6D696E00795F6D696E007858
:102D70005F6D696E005265706F7274696E67206571
:102D80006E6473746F70207374617475730A0000DD
:102D900000000100000001000080005555550000B2
:102DA00000400033333300AAAA2A004992240000CD
:102DB000002000C7711C0099991900D145170055D2
:102DC0005515003BB11300244912001111110000E8
:102DD0000010000F0F0F00E3380E0043790D00CCF8
:102DE000CC0C00C3300C00E8A20B0064210B00AA3D
:102DF000AA0A00703D0A009DD80900427B09009292
:102E0000240900DCD308008888080010420800006C
:102E1000000800F0C10700878707007550070071A0
:102E20001C07003EEB0600A1BC0600699006006688
:102E3000660600703E06006118060017F40500746F
:102E4000D105005BB00500B2900500627205005527
:102E500055050078390500B81E0500050505004E2A
:102E6000EC040087D40400A1BD040090A70400492D
:102E7000920400C17D0400EE690400C756040044BA
:102E80004404005C320400082104004110040000E6
:102E90000004003FF00300F8E0030026D20300C363
:102EA000C30300CCB503003AA803000A9B03003813
:102EB0008E0300C08103009F750300D0690300509A
:102EC0005E03001D53030034480300913D030033AB
:102ED00033030016290300381F0300971503003041
:102EE0000C0300030303000BFA020049F10200BACD
:102EF000E802005CE002002DD802002DD00200594B
:102F0000C80200B0C0020031B90200DAB10200AA62
:102F1000AA0200A0A30200BC9C0200FA9502005C79
:102F20008F0200DF88020082820200457C020027B7
:102F300076020027700200436A02007C640200D01F
:102F40005E02003F590200C853020000BC00FEFEB2
:102F500011241FBECFEFD1E2DEBFCDBF00E00CBF1A
:102F600013E0A0E0B2E0E4E1FDE102E00BBF02C04B
:102F700007900D92A435B107D9F725E1A4E5B3E098
:102F800001C01D92AD3DB207E1F717E1C7EAD7E1F5
:102F900000E006C021970109802FFE010F94EE0D7D
:102FA000C63AD10780E00807A9F70E94A1F90D945D
:102FB000790E0C9400002F923F924F925F926F9285
:102FC0007F928F929F92AF92BF92CF92DF92EF92B9
:102FD000FF920F931F93CF93DF93CDB7DEB7CB56FE
:102FE000D1090FB6F894DEBF0FBECDBF91E090932C
:102FF00038098091040A8D3411F40C94BB20843577
:1030000011F40C94822D873411F00C94CE2D209065
:10301000020A3090030A2CE12216310409F42DC66D
:103020009CF444E02416310444F452E025163104A3
:10303000C4F537FE2FC00C94B72084E02816310465
:1030400009F4DDC50C94B720AAE22A16310409F46C
:1030500003C764F4EDE12E16310409F425C6FEE140
:103060002F16310409F424C60C94B7202BE5221640
:10307000310409F4AFC73CE52316310409F4AEC7A7
:103080004AE52416310411F00C94B720109258032D
:103090000C94D02D8091360281110C94D52D0C9476
:1030A000D02D80913602882311F40C94D02D0E94EB
:1030B000416082E50E9459C2882309F44CC10E94F4
:1030C000DDC14B015C0120E030E0A9010F94B306A3
:1030D000882309F470C180912D0490912E04A09151
:1030E0002F04B091300488AF99AFAAAFBBAF209145
:1030F00031043091320440913304509134042CAFA8
:103100003DAF4EAF5FAF8091520990915309A091AE
:103110005409B09155092C968CAF9DAFAEAFBFAF9F
:103120002C97209156093091570940915809509198
:10313000590928962CAF3DAF4EAF5FAF28979C0141
:10314000AD0168AD79AD8AAD9BAD0F94B306811129
:103150000FC028962CAD3DAD4EAD5FAD28976CAD40
:103160007DAD8EAD9FAD0F94B306882309F423C1C6
:1031700011E032E02316310409F010E020E030E0E5
:10318000A901C501B4010F94B306881F8827881FC1
:10319000181759F080E090E0A0E8BFEB64968CAF80
:1031A0009DAFAEAFBFAF64970AC020E030E040E80B
:1031B0005FE364962CAF3DAF4EAF5FAF649728AD31
:1031C00039AD4AAD5BAD2C966CAD7DAD8EAD9FAD8E
:1031D0002C970F94FE0A60966CAF7DAF8EAF9FAFB9
:1031E00060972CAD3DAD4EAD5FAD28966CAD7DAD1D
:1031F0008EAD9FAD28970F94FE0A6B017C016096FF
:103200002CAD3DAD4EAD5FAD6097CA01B9010F94D5
:1032100018072B013C01A7019601C701B6010F94C5
:1032200018079B01AC01C301B2010F94FF0A0F9470
:103230006A0D24966CAF7DAF8EAF9FAF249720E0D0
:1032400030E040E05FE30F9418072B013C01A5013B
:103250009401C501B4010F9418074B015C01A3014F
:103260009201C301B2010F9418079B01AC01C50183
:10327000B4010F94FE0A0F946A0D64962CAD3DAD17
:103280004EAD5FAD64970F9418074B015C01C70109
:10329000B601905824962CAD3DAD4EAD5FAD249750
:1032A0000F94DB0BA50194010F9418076B017C01AF
:1032B0002C962CAD3DAD4EAD5FAD2C9768AD79AD84
:1032C0008AAD9BAD0F94FF0A20E030E040E05FE361
:1032D0000F9418079B01AC01C701B6010F94FF0AB8
:1032E00028AD39AD4AAD5BAD0F94FE0A6B017C0190
:1032F00028962CAD3DAD4EAD5FAD28976CAD7DAD44
:103300008EAD9FAD0F94FF0A20E030E040E05FE318
:103310000F9418072B013C0124962CAD3DAD4EAD0A
:103320005FAD249760966CAD7DAD8EAD9FAD60971F
:103330000F94DB0BA50194010F9418079B01AC01BE
:10334000C301B2010F94FF0A2CAD3DAD4EAD5FAD90
:103350000F94FE0A14C089E40E9459C2882329F000
:103360000E94DDC16B017C0103C0C12CD12C760110
:103370008AE40E9459C2882309F10E94DDC12C967B
:103380006CAF7DAF8EAF9FAF2C9720E030E0A901EE
:10339000C701B6010F94B30681111FC020E030E0D1
:1033A000A9012C966CAD7DAD8EAD9FAD2C970F9481
:1033B000B306811112C0EEE5FAE10DC420E030E061
:1033C000A901C701B6010F94B3068823A1F32C9677
:1033D0001CAE1DAE1EAE1FAE2C97D701C601B05855
:1033E00088AF99AFAAAFBBAF2C962CAD3DAD4EAD1B
:1033F0005FAD2C9750582CAF3DAF4EAF5FAF9C01E7
:10340000AD01BC01CD010F9418074B015C012CAD3F
:103410003DAD4EAD5FADCA01B9010F9418079B01D8
:10342000AC01C501B4010F94FF0A0F946A0DA09678
:103430006CAF7DAF8EAF9FAFA09780912D04909120
:103440002E04A0912F04B091300428968CAF9DAF2C
:10345000AEAFBFAF2897A7019601BC01CD010F9475
:10346000FF0A64966CAF7DAF8EAF9FAF64972091DB
:103470003104309132044091330450913404609609
:103480002CAF3DAF4EAF5FAF60972C962CAD3DADEE
:103490004EAD5FAD2C9760966CAD7DAD8EAD9FADA2
:1034A00060970F94FF0AA4966CAF7DAF8EAF9FAF6D
:1034B000A4978091520990915309A0915409B09119
:1034C000550968968CAF9DAFAEAFBFAF6897649655
:1034D0002CAD3DAD4EAD5FAD6497BC01CD010F94F9
:1034E000FE0A6B017C0120915609309157094091E9
:1034F0005809509159096C962CAF3DAF4EAF5FAF54
:103500006C97A4962CAD3DAD4EAD5FADA4976C9677
:103510006CAD7DAD8EAD9FAD6C970F94FE0A4B01E7
:103520005C018091350490913604A0913704B091EC
:103530003804A8968CAF9DAFAEAFBFAFA8979C01E3
:10354000AD0160915A0970915B0980915C0990917D
:103550005D090F94FE0A24966CAF7DAF8EAF9FAFCE
:103560002497A701960168AD79AD8AAD9BAD0F9404
:1035700018072B013C01A50194016CAD7DAD8EAD0A
:103580009FAD0F9418079B01AC01C301B2010F94CA
:10359000FF0A2B013C01A501940168AD79AD8AAD0C
:1035A0009BAD0F9418074B015C01A70196016CAD10
:1035B0007DAD8EAD9FAD0F9418079B01AC01C50189
:1035C000B4010F94FE0AA30192010F94720B6B01D8
:1035D0007C0120E030E0A9010F94B30687FF0AC008
:1035E0002BED3FE049EC50E4C701B6010F94FF0A10
:1035F0006B017C0192E02916310451F42BED3FE080
:1036000049EC50E4C701B6010F94FE0A6B017C013E
:1036100020E030E0A901C701B6010F94B306811183
:1036200028C068962CAD3DAD4EAD5FAD689728962D
:103630006CAD7DAD8EAD9FAD28970F94B306811113
:1036400018C06C962CAD3DAD4EAD5FAD6C976096DD
:103650006CAD7DAD8EAD9FAD60970F94B3068111BB
:1036600008C00BEDC02E0FE0D02E09ECE02E00E4D8
:10367000F02EA7019601A0966CAD7DAD8EAD9FADED
:10368000A0970F9418074B015C0120E030E0A901DE
:1036900024966CAD7DAD8EAD9FAD24970F94B3068F
:1036A0008823E9F0A5019401C501B4010F9418071E
:1036B0004B015C0124962CAD3DAD4EAD5FAD249722
:1036C000CA01B9010F9418079B01AC01C501B401EF
:1036D0000F94FF0A0F946A0D4B015C010DC020E0AE
:1036E00030E0A901C501B4010F94250D87FF04C086
:1036F000B7FAB094B7F8B0942FE632E143E85AE352
:10370000C501B4010F94B30687FF02C00C94D02DFD
:10371000C501B4010F94740C0F94480C2E967FAF22
:103720006EAF2E97DB01AB2B31F4E1E0F0E02E968B
:10373000FFAFEEAF2E974090390450903A0460905E
:103740003B0470903C042E962EAD3FAD2E97B901F0
:1037500080E090E00F94B7064B015C019B01AC0147
:10376000C701B6010F94DB0B28966CAF7DAF8EAF0F
:103770009FAF2897A501940124966CAD7DAD8EADC9
:103780009FAD24970F94DB0BA0966CAF7DAF8EAFEF
:103790009FAFA097A301920160915E0970915F09AC
:1037A00080916009909161090F94FE0AA50194012E
:1037B0000F94DB0BAC966CAF7DAF8EAF9FAFAC9729
:1037C00028962CAD3DAD4EAD5FAD2897CA01B9012D
:1037D0000F94180720E030E040E05FE30F941807F3
:1037E0009B01AC0160E070E080E89FE30F94FE0A6B
:1037F00068966CAF7DAF8EAF9FAF6897A8968CAD83
:103800009DADAEADBFADA89789879A87AB87BC87C2
:103810004D865E866F86788A60914F027091500265
:10382000072E000C880B990B0F94B90620911D02EE
:1038300030911E0240911F02509120020F941807F0
:103840002AE037ED43E25CE30F9418076CAB7DABE5
:103850008EAB9FAB0E9420E59B01AC0128533F4FEC
:103860004F4F5F4F6C962CAF3DAF4EAF5FAF6C9735
:1038700048AC59AC6AAC7BAC22242394312C39E19E
:1038800021963FAF21972E964EAD5FAD2E974215F4
:10389000530509F44CC10E94F7A90E9420E5DC0100
:1038A000CB016C962CAD3DAD4EAD5FAD6C97821BE0
:1038B000930BA40BB50BB7FD10C00E9420E59B0134
:1038C000AC0128533F4F4F4F5F4F6C962CAF3DAF2D
:1038D0004EAF5FAF6C970E9472BD21963FAD2197AE
:1038E000315021963FAF2197332309F445C02CADC9
:1038F0003DAD4EAD5FAD68966CAD7DAD8EAD9FAD0F
:1039000068970F9418076B017C019201A301289618
:103910006CAD7DAD8EAD9FAD28970F941807A701B4
:1039200096010F94FF0A7B018C019201A301689616
:103930006CAD7DAD8EAD9FAD68970F9418074B01B0
:103940005C012CAD3DAD4EAD5FAD28966CAD7DAD4F
:103950008EAD9FAD28970F9418079B01AC01C50150
:10396000B4010F94FE0A2B013C01C701D8018CAFB2
:103970009DAFAEAFBFAF55C0B10180E090E00F94F6
:10398000B70628962CAD3DAD4EAD5FAD28970F9490
:1039900018074B015C010F94D80B6B017C01C5012A
:1039A000B4010F94600D4B015C01A701960168AD55
:1039B00079AD8AAD9BAD0F9418072B013C012C9675
:1039C0002CAD3DAD4EAD5FAD2C97C501B4010F944C
:1039D0001807A30192010F94FF0A2B013C01A501D6
:1039E000940168AD79AD8AAD9BAD0F9418074B017A
:1039F0005C012C962CAD3DAD4EAD5FAD2C97C70153
:103A0000B6010F9418079B01AC01C501B4010F94D6
:103A1000FE0A6CAF7DAF8EAF9FAF49E121964FAFED
:103A200021979201A30164966CAD7DAD8EAD9FADE3
:103A300064970F94FF0A69837A838B839C832CADF0
:103A40003DAD4EAD5FADA4966CAD7DAD8EAD9FAD81
:103A5000A4970F94FF0A6D837E838F839887A09627
:103A60002CAD3DAD4EAD5FADA09769857A858B8558
:103A70009C850F94FF0A69877A878B879C87AC9611
:103A80002CAD3DAD4EAD5FADAC976D857E858F8520
:103A900098890F94FF0A6D877E878F87988B809116
:103AA0002D02882321F0CE0101960E9492BAE09067
:103AB000E6031CA61DA61EA61FA689819A81AB81BE
:103AC000BC8188A399A3AAA3BBA38D819E81AF814A
:103AD000B8858CA39DA3AEA3BFA389859A85AB852A
:103AE000BC8588A799A7AAA7BBA7AE01485D5F4F71
:103AF000BE016C5D7F4FCE0180960E948D47CE0146
:103B00008C966C018E010C5C1F4F9E01235F3F4F12
:103B1000AE01485D5F4FBE016C5D7F4F0C970E9408
:103B20001039882321F09FEF291A390AACCEE09092
:103B3000E60318AA19AA1AAA1BAA80915209909101
:103B40005309A0915409B091550988A399A3AAA338
:103B5000BBA38091560990915709A0915809B09143
:103B600059098CA39DA3AEA3BFA380915A0990913C
:103B70005B09A0915C09B0915D0988A799A7AAA7E4
:103B8000BBA7AE01485D5F4FBE016C5D7F4FCE01AC
:103B900080960E948D47DE01D0966D018E010C5CEF
:103BA0001F4F2EE539E0AE01485D5F4FBE016C5DF1
:103BB0007F4FCE0180960E94103980E1E2E5F9E066
:103BC000ADE2B4E001900D928A95E1F70C94D02D0E
:103BD0000E9475C2F80184918F010F5F1F4F811100
:103BE000F7CFEDEDF1E084918F010F5F1F4F882338
:103BF00011F40C94D02D0E9475C2F801F4CF80E529
:103C00000E9459C2882329F00E949DC16B017C014A
:103C100003C0C12CD12C760183E50E9459C28823B0
:103C200061F00E94DDC120E030E04AE754E40F94E7
:103C300018070F94480C6B017C010E94DB468091B1
:103C4000F010811105C060E083EF91E00E94D3562F
:103C50000E9420E5C60ED71EE81EF91E0E9420E530
:103C6000DC01CB018C199D09AE09BF09B7FD02C06B
:103C70000C94D02D0E9472BDF1CF80911C048770EE
:103C8000873011F00C94DA2D8FE40E9459C28823FA
:103C900019F00E94CEC103C08FE40E9410C28111AE
:103CA0000C94D02D0C94DA2D0E94C4650C94D02D68
:103CB000C0902D04D0902E04E0902F04F09030049A
:103CC00088E50E9459C2811108C020E030E0A901B6
:103CD000C701B6010F94FF0A02C00E94DDC168A3AC
:103CE00079A38AA39BA3C0903104D0903204E090C2
:103CF0003304F090340489E50E9459C2811109C04F
:103D000020E030E040E751E4C701B6010F94FE0A1D
:103D100002C00E94DDC19B01AC0169837A838B8361
:103D20009C8368A179A18AA19BA10E947EBC882363
:103D300011F40C94D02D80E00E949C620E94F763E5
:103D400085E40E9459C2882321F00E94CEC1182F19
:103D500004C085E40E9410C211E086E50E9459C2A9
:103D6000882321F00E94ADC1262F01C021E0412F00
:103D7000BE016F5F7F4FCE0180960E94095D6B018F
:103D80007C019B01AC010F94AB0D81115FC088A039
:103D900099A0AAA0BBA020E030E0A901C501B40110
:103DA0000F94B30687FF05C027E137EB41E558EBD9
:103DB00004C027E137EB41E558E3C501B4010F9496
:103DC000FF0AAB01BC0183E292E00E9484E6898095
:103DD0009A80AB80BC8020E030E0A901C501B4012D
:103DE0000F94B30687FF05C027E137EB41E558EB99
:103DF00004C027E137EB41E558E3C501B4010F9456
:103E0000FF0AAB01BC018EE192E00E9484E620E053
:103E100030E0A901C701B6010F94B30687FF05C0C2
:103E200027E137EB41E558EB04C027E137EB41E5EB
:103E300058E3C701B6010F94FF0AAB01BC0189E149
:103E400092E00E9484E68AE00E9475C20E94DE63CE
:103E50000E9448ED0C94D02D80913602882311F4F5
:103E60000C94D02D89E40E9459C2E82E882321F0B9
:103E70000E94ADC1F62E01C0F12C8AE40E9459C205
:103E8000182F882321F00E94ADC1062F01C000E049
:103E9000EE2019F0F2E0FF1520F0112381F003303D
:103EA00070F0EBE2F2E084918F010F5F1F4F8823E7
:103EB00011F40C94D02D0E9475C2F801F4CF0E9429
:103EC0006BC2EE20F1F020914804309149044F2D4F
:103ED0004203B001439F700D11248091BF0A90915D
:103EE000C00A680F791F072E000C880B990B0F94DE
:103EF000B9066093520970935309809354099093C3
:103F000055091123E9F020914A0430914B04020332
:103F1000B001039F700D11248091C10A9091C20AD3
:103F2000680F791F072E000C880B990B0F94B906A8
:103F300060935609709357098093580990935909D3
:103F400080E50E9459C28823E9F00E94CEC18823EF
:103F5000E9F01123D9F020E030E040E751E460912E
:103F600056097091570980915809909159090F94F9
:103F7000FF0A6093560970935709809358099093EC
:103F8000590904C080E50E9410C2E1CF86E40E9476
:103F900059C28823D9F00E94DDC16B017C0120E069
:103FA00030E0A9010F94250D181684F420E030E0CC
:103FB00040E752E4C701B6010F94DB0B60931D028A
:103FC00070931E0280931F02909320020E9478CE6D
:103FD0000C94D02D909358030C94D02DEBE52E2EFD
:103FE000E2E03E2EF6E4EF2EF9E0FF2E8DE294E0C3
:103FF00099AF88AFADE1CA2EA4E0DA2E00E010E060
:10400000D1018D911D010E9459C2882309F44BC032
:104010000E94DDC12B013C01133049F0F6012081E3
:104020003181428153810F94FE0A2B013C01A8ADDE
:10403000B9AD2D913D914D915C91C301B2010F94A9
:10404000FE0A4B015C012DEB37E346E855EB0F947C
:10405000250D87FD0AC02DEB37E346E855E3C50182
:10406000B4010F94B3061816F4F4133051F44092CF
:10407000390450923A0460923B0470923C0401E08F
:1040800012C0A5019401F701608171818281938141
:104090000F94FF0AD7016D937D938D939C93139793
:1040A000812F0E94326A1F5FB4E0EB0EF11CE8AD75
:1040B000F9AD3496F9AFE8AFF4E0CF0ED11C14306F
:1040C00009F09ECF002309F44EC020E030E0A901A2
:1040D0006091390470913A0480913B0490913C04C2
:1040E0000F94FF0A20919608309197084091980804
:1040F000509199080F9418070F94300D6093261370
:10410000709327138093281390932913909104138D
:1041100080910513981719F00E947D4624C00E94D3
:10412000DB4680916F00982F927081FF05C08091CF
:104130006F008D7F80936F0040912613509127135D
:1041400060912813709129134093B5085093B608D5
:104150006093B7087093B808992329F080916F0095
:10416000826080936F000E9448ED0C94D02D0E94D5
:10417000495F0C94D02D8091020A9091030A8637F2
:10418000910509F476C70CF0C7C08C34910509F489
:10419000B5C40CF058C08931910509F4BBC21CF5B7
:1041A0008431910509F4C8C17CF48131910509F489
:1041B0003DC22CF4029708F4C2C10C947F2D4297A3
:1041C00009F40CC60C947F2D8631910509F47BC24D
:1041D0000CF475C28731910509F47BC2489709F444
:1041E0008EC20C947F2D8E31910509F449C384F45D
:1041F0008B31910509F4A2C20CF492C28C31910565
:1042000009F434C34D9711F40C94D02D0C947F2DE8
:104210008A32910509F43AC44CF48F31910509F4BE
:104220007FC3809709F430C30C947F2D80339105B0
:1042300009F460C48B34910511F00C947F2D0E9419
:10424000FBA60C94D02D8A36910509F484C5B4F5EB
:104250008435910509F4C2C5E4F48135910509F46A
:10426000A6C54CF48D34910511F00C947F2D0E945D
:1042700032A70C94D02D8235910509F4ACC5833555
:10428000910511F00C947F2D81E0809357030C94DD
:10429000D02D8C35910509F4BDC534F485359105D3
:1042A00009F49FC50C947F2D8836910509F42AC422
:1042B0008936910509F4EFC40C947F2D8F36910552
:1042C00009F462C484F48C36910509F4B0C40CF48A
:1042D0005EC58D36910509F41EC58E36910509F42B
:1042E00040C40C947F2D8237910509F41BC654F409
:1042F0008037910509F49EC48137910509F4A1C462
:104300000C947F2D8337910509F413C185379105EE
:1043100009F4A0C60C947F2D8F3221E0920711F48E
:104320000C94502B0CF074C08B3C910509F4DBC746
:10433000A4F58139910509F4F6C684F4883791050E
:1043400009F4E6C60CF4E1C68937910509F4E6C61E
:104350008C38910509F4E2C40C947F2D8E3B9105B5
:1043600009F4F6C434F48B39910509F4AFC40C9404
:104370007F2D883C910509F44EC7893C910511F0C9
:104380000C947F2DBBE5EB2EB2E0FB2E0EE518E082
:104390008EE6C82E88E0D82E8EC78C3D910511F48C
:1043A0000C942B2AACF48D3C910511F40C94032A47
:1043B0000CF4B4C78E3C910511F40C94062A833D8D
:1043C000910511F00C947F2D0E9468850C94D02DDE
:1043D0008C3241E0940711F40C94D02A64F48D3DA2
:1043E000910511F40C94382A823E910511F40C9435
:1043F000A72A0C947F2D8D32A1E09A0711F40C941A
:10440000F92A8E32914011F40C94FC2A0C947F2DE1
:10441000863FE1E09E0711F40C940B2C0CF04AC08F
:104420008A3921E0920709F409C414F5803941E082
:10443000940711F40C94692B4CF48336914011F0DD
:104440000C947F2DEEE5FAE10C94562B8139B1E006
:104450009B0711F40C946C2B8239914011F00C9451
:104460007F2D80E00E9424650E9448ED0C94D02DA1
:104470008C3AF1E09F0709F4EBC76CF4843A31E021
:10448000930711F40C94722B853A914011F40C941B
:10449000752B0C947F2D843F51E0950711F40C94FB
:1044A000082C853F914011F00C947F2D0E944CDC2C
:1044B0000C94D02D8B38B3E09B0711F40C94D02DC5
:1044C000B4F4883FF1E09F0711F40C941A2C14F413
:1044D0000C940E2C833533E0930711F40C943E2C8E
:1044E0008A38934011F40C94A32C0C947F2D8239BC
:1044F00053E0950711F40C94192D7CF48F38B3E038
:104500009B0711F40C94042D8039934011F00C9406
:104510007F2D0E94C57C0C94D02D803AF3E09F073C
:1045200009F4F1C1873E934011F40C946A2D0C9468
:104530007F2DE5E2F4E033C5E5E7F2E082C0A0902C
:10454000000AB090010A80E50E9459C2882359F000
:104550000E949DC16B017C0111E0672B682B692BC8
:1045600031F410E004C010E0C12CD12C760183E5B9
:104570000E9459C2882311F40C94D92E0E94DDC1E7
:1045800020E030E04AE754E40F9418070F94480CF9
:104590006B017C0111110BC0672B682B692B39F45F
:1045A000A114B10421F0D5018C91811102C010E059
:1045B00001C011E00E94DB46112329F061E0C50132
:1045C0000E940D5705C060E08AE492E00E94D35635
:1045D00083E08093380981E08093F603C114D1040D
:1045E000E104F104B1F00E9420E5C60ED71EE81EDA
:1045F000F91E0E9420E5DC01CB018C199D09AE0952
:10460000BF09B7FF0DC08091F60381110C94DE2E17
:1046100007C08091F603882319F00E9472BDF9CF7C
:104620000E943DDD1092F6030C94D02D60E08DE5E4
:1046300092E00E94D35617981698159814980C94E7
:10464000D02D84918F010F5F1F4F882321F00E948E
:1046500075C2F801F6CF1092C7158AE793E10E9460
:1046600031918BE1EAE7F3E1DE01159601900D92BD
:104670008A95E1F780917813909179139C838B83CD
:1046800081E193E09A83898340E050E0BE016F5F4F
:104690007F4F80E090E00E9486EACE0101960E9462
:1046A000F7BCE6E6F2E084918F010F5F1F4F88238D
:1046B00011F40C94D02D0E9475C2F801F4CF0E9421
:1046C000158B0C94D02D10924A1310924B130C940E
:1046D000D02DE091000AF091010A8081882329F011
:1046E000803209F410823196F8CF40E061E0809189
:1046F000000A9091010A0E942A890C94D02D809181
:104700004B13882319F081E080934A130E94FBA683
:104710000C94D02D10924A130E941DA70C94D02DFA
:1047200080914B13882311F40C94D02D83E50E94C3
:1047300059C281110C94E22E0C94D02D83E40E9476
:1047400010C2882309F450C0E3EBF2E084918F019A
:104750000F5F1F4F882321F00E9475C2F801F6CF2A
:1047600080911515811103C0E6E8F2E012C0BE0188
:104770006F5F7F4F82E195E10E94FE908E010F5F97
:104780001F4FF80181918F01882349F10E9475C262
:10479000F8CF84918F010F5F1F4F882301F10E9492
:1047A00075C2F801F6CF6BE0C62E63E0D62EE12C81
:1047B000F12C20E08091A70390E00E2C02C095958B
:1047C00087950A94E2F780FD0FC23FEFE31AF30AE0
:1047D00042E0C40ED11C55E0E516F10459F78AE019
:1047E0000E9475C20C94D02D80914B13882339F010
:1047F00080914A13882319F0E0E9F2E003C0E2EA6D
:10480000F2E028C084918F010F5F1F4F882321F0B1
:104810000E9475C2F801F6CF6091C3157091C4155E
:104820008091C5159091C6154AE00E9419C58FE286
:104830000E9475C26091BF157091C0158091C1151D
:104840009091C2154AE00E9419C58AE00E9475C283
:104850000C94D02D84918F010F5F1F4F882311F48A
:104860000C94D02D0E9475C2F801F4CF40E060E0B6
:104870008091000A9091010A0E942A890C94D02DFF
:104880000E9454B20C94D02D80914A1381110E9441
:10489000DB4680914B13882311F40C94D02D80E5D6
:1048A0000E9459C2882319F00E94CEC103C080E53E
:1048B0000E9410C2182F482F61E08091000A909149
:1048C000010A0E942A8983E50E9459C2882381F047
:1048D0000E94ADC1AB01BC014093C3155093C415F8
:1048E0006093C5157093C61582E195E10E949A8E7A
:1048F00080914B13882319F081E080934A131111A2
:104900000C94D02D03CF8091000A9091010A21E0F0
:104910002093491340E060E00E942A890C94D02D36
:104920000E94ACA67B018C0120E831E541E050E01B
:104930000F94A10AC9016DE671E00F94C70D4B01F8
:104940005C01C801B70120E13EE040E050E00F9477
:10495000A10ACA01B90128E130E040E050E00F941B
:10496000A10A762E672EC62ED72E7CE3272E312C59
:10497000412C512CC801B701A20191010F94A10A49
:10498000F62EE72ECA01B901A20191010F94A10AE6
:10499000CB018E010F5F1F4F8114910499F0EF92AC
:1049A000FF927F936F936F927F92BF92AF929F928D
:1049B0008F928AEE92E09F938F931F930F930F94A1
:1049C0004D0613C0A114B104B1F0EF92FF927F9392
:1049D0006F936F927F92BF92AF928AED92E09F9316
:1049E0008F931F930F930F944D060FB6F894DEBF6D
:1049F0000FBECDBF30C0CD2879F0EF92FF927F93EC
:104A00006F936F927F928EEC92E09F938F931F93A0
:104A10000F930F944D06E9CF892B69F0EF92FF9227
:104A20007F936F9386EC92E09F938F931F930F93E6
:104A30000F944D06DACFEF92FF9282EC92E09F93B3
:104A40008F931F930F930F944D060F900F900F901D
:104A50000F900F900F9060E0C8010E940D57EAEE92
:104A6000FCE284917F01BFEFEB1AFB0A882321F05F
:104A70000E9475C2F701F5CFB8018EEF92E00E9457
:104A8000BAE68AE00E9475C20C94D02D83E50E949C
:104A900059C2882311F40C94D02D0E94BDC1E82E78
:104AA00080E50E9459C2882339F00E94BDC1182FA9
:104AB00087FF03C00C94D02D1DE089E40E9459C2E9
:104AC000882341F00E94CEC181110C941E2FECE28C
:104AD000F5E00BC089E40E9410C2F6CF319625E0C4
:104AE000E935F20711F40C941E2F84911813F6CFB8
:104AF0000C94F32E0E94F4AC0C94D02D0E941DA7B0
:104B00000C94D02D88E690E00E94726A81110C947A
:104B1000D02D8091A70383FF02C00C94D02D83E594
:104B20000E9459C28823C9F00E94DDC10F94430C32
:104B30007093EC0A6093EB0A80E00E9439A50E9412
:104B4000DDC120E030E04AEA52E40F94B3061816C3
:104B500024F00E9432A70E943DDD0E94D7E70C940A
:104B6000D02D8EE40E9459C2882311F40C94D02DCC
:104B70000E94ADC16093210870932208809323089E
:104B8000909324080C94D02D83E50E9410C28823B2
:104B900059F083E50E9459C2882319F00E94BDC1D3
:104BA00001C080E08093A703EAEEFCE284918F01CC
:104BB0000F5F1F4F811103C0E9E1F3E004C00E94C1
:104BC00075C2F801F3CF84918F010F5F1F4F8823C7
:104BD00021F00E9475C2F801F6CF8091A7038111E0
:104BE000E2CDE5E1F3E018C0BB24B394B20E22237A
:104BF00019F08CE20E9475C2F60185919491FC0136
:104C000084918F010F5F1F4F882321F00E9475C28E
:104C1000F801F6CF2B2DD9CD84918F010F5F1F4F57
:104C2000882309F4DCCD0E9475C2F801F5CF1092FB
:104C30003402B6C780E293E00E9425BD0E942A801C
:104C4000AFC783E50E9459C2811103C0EAEEFCE2BE
:104C50000BC00E94BDC18D3318F480933A02A0C7E7
:104C60008CE380933A029CC784918F010F5F1F4FA2
:104C7000882321F00E9475C2F801F6CF40913A02D4
:104C800050E060E070E089E293E00E9467E68AE02D
:104C90000E9475C285C789E690E00E94726A811100
:104CA00011C0E0E3F3E084918F010F5F1F4F882371
:104CB00021F00E9475C2F801F6CF0E94ED9C8AE0B7
:104CC0000E9475C2109238090C94332F83E50E941C
:104CD00059C2882309F464C70E94BDC1182F8D33BF
:104CE00008F01CE3109345090E9420E56B017C014C
:104CF000212F30E0A8EEB3E00F94EF0AC60ED71EC6
:104D0000E81EF91EC0924109D0924209E09243097F
:104D1000F092440945C70E9440F042C78091A70322
:104D200083FD3EC783E50E9459C2882309F438C732
:104D30000E94DDC10F94430C6238710514F062E8E3
:104D400070E07093EA0A6093E90A0E94EDA428C714
:104D50000E9467EE25C780E50E9459C2811106C0F6
:104D600083E50E9459C2882359F005C00E94BDC145
:104D7000811116C7F5CF0E94ADC16F3F710510F0CC
:104D80006FEF70E07093EE0A6093ED0A09C780E55B
:104D90000E9459C2811105C01092EE0A1092ED0ACC
:104DA000FFC60E94ADC1672B09F0FAC6F5CF0E947D
:104DB00047A70E9418471092EE0A1092ED0A68EE7B
:104DC00073E080E090E00E94575660E083E393E058
:104DD0000E94D356E5C610925703E2C60E940EEE1B
:104DE000DFC683E50E9410C2882309F4D9C60E9459
:104DF000DDC120E030E04AE754E40F9418070F9437
:104E0000480C60933D0970933E0980933F0990934D
:104E10004009C6C64BE5C42E42E0D42E5AE8E52E22
:104E200058E0F52E10E0D6018D916D010E9410C260
:104E3000882309F46DC0133009F063C00E94DDC1FE
:104E40004B015C0120E030E040EA51E40F94B306EE
:104E500087FF4EC0A5019401609196087091970854
:104E600080919808909199080F94DB0B2B013C01DD
:104E70009B01AC0160918608709187088091880839
:104E8000909189080F94180760938608709387089B
:104E90008093880890938908A30192016091DA03B6
:104EA0007091DB038091DC039091DD030F94180770
:104EB0006093DA037093DB038093DC039093DD034C
:104EC0006091080B7091090B80910A0B90910B0B6C
:104ED0000F94B706A30192010F9418070F94480C82
:104EE0006093080B7093090B80930A0B90930B0B44
:104EF0008092960890929708A0929808B09299088C
:104F000007C00E94DDC1F7016083718382839383B0
:104F10001F5FF4E0EF0EF11C143009F084CF0E9403
:104F20003CE93EC60E94DB4683E50E9459C28823C5
:104F300009F419C90E94ADC16230710509F013C9A5
:104F40000E9458D28BE50E9475C260910F04709147
:104F50001004809111049091120442E00E949EC5B9
:104F6000409113045091140460911504709116043B
:104F700083E493E00E9484E6409117045091180462
:104F80006091190470911A0480E493E00E9484E611
:104F90008DE50E9475C28AE00E9475C201C68491A7
:104FA0008F010F5F1F4F882321F00E9475C2F80107
:104FB000F6CF60E085E194E00E94C78661E08EE074
:104FC00094E00E94C78661E083E094E00E94C78677
:104FD00061E083EF93E00E94C78660E08AEE93E091
:104FE0000E94C78661E080EE93E00E94C78661E080
:104FF00086ED93E00E94C78661E08EEC93E00E940C
:10500000C78661E080EC93E00E94C78660E082EB97
:1050100093E00E94C78660E083EA93E00E94C7861F
:1050200060E085E993E00E94C78660E08FE793E047
:105030000E94C78660E08EE693E00E94C78660E02B
:1050400089E593E00E94C78661E086E493E00E94D0
:10505000C786A6C58091000A9091010ADC012C91B7
:10506000222321F060E00E940D579AC50E943DDD89
:1050700097C50091000A1091010A83E0D12C40E00D
:105080008150E1F0F8019081292F2B7F2134C1F765
:1050900021812133A9F7913421F0953421F441E0A5
:1050A00002C0DD24D39498012E5F3F4F89012F5F0A
:1050B0003F4FD8019C919032C9F3E2CF442369F06D
:1050C000EAEEFCE284917F01BFEFEB1AFB0A882332
:1050D00021F00E9475C2F701F5CFDD2069F0E8EEFE
:1050E000F4E084917F012FEFE21AF20A882321F085
:1050F0000E9475C2F701F5CFD8018D918D018823EB
:1051000009F46DCB0E9475C2F7CF0E9469F648C5BD
:1051100081E080936B0480936A0442C510926B0413
:1051200010926A043DC583E50E9459C2882319F094
:105130000E94ADC102C060E070E08B011127023017
:105140001105D4F0EEE5FAE184918F010F5F1F4F56
:10515000811103C0ECEEF4E004C00E9475C2F801B6
:10516000F3CF84918F010F5F1F4F882309F418C577
:105170000E9475C2F801F5CF88E40E9459C28823C5
:10518000A9F00E94ADC16A3A71053CF06F30B1E000
:105190007B072CF06EE071E002C06AEA70E0F80173
:1051A000EE0FFF1FE254FC4F7183608386E40E9480
:1051B00059C28823A9F00E94ADC1F801EE0FFF1F6C
:1051C000EE53FC4F718360836F3F710519F014F04B
:1051D0006FEF70E077FF02C060E070E07183608382
:1051E00082E40E9459C2882309F4DAC40E94ADC146
:1051F0006530710534F0643771052CF063E770E0B9
:1052000002C065E070E0000F111FF801E654FC4F8A
:1052100071836083C5C488EC90E00E94726A81113A
:10522000BFC484E40E9410C2882309F441C00E94D4
:10523000DDC16B017C0111E020E030E0A9010F9499
:10524000B306811101C010E01093470420E030E064
:10525000A901C701B6010F94B306882349F10E9442
:10526000DDC1E091270824E0E29FF0011124ED5B0D
:10527000FB4F608371838283938320E030E0A90138
:1052800060914304709144048091450490914604D8
:105290000F94B30681110CC080E090E0A0EEBFE354
:1052A0008093430490934404A0934504B093460430
:1052B0000E9433F275C4D7018D917D010E9410C206
:1052C000882349F00E94DDC10F94480CF8016083E7
:1052D0007183828393830C5F1F4FC016D10659F7E9
:1052E0000E9407E85DC4ABE5EA2EA2E0FA2E0EECC0
:1052F00013E0D7018D917D010E9410C2882339F0FF
:105300000E94DDC1F80160837183828393830C5F07
:105310001F4FF3E00E3D1F0761F742C483E50E9473
:1053200059C28823A1F00E94DDC160937608709372
:105330007708809378089093790860936E0870934B
:105340006F08809370089093710810E001C011E01D
:1053500080E50E9459C2882359F00E94DDC1609304
:10536000760870937708809378089093790810E016
:1053700082E50E9459C2882359F00E94DDC16093E2
:10538000720870937308809374089093750810E006
:1053900084E50E9459C2882359F00E94DDC16093C0
:1053A0006E0870936F088093700890937108F8C32B
:1053B000112309F4F5C34091760850917708609164
:1053C00078087091790884E195E00E9484E6409124
:1053D000720850917308609174087091750881E1AA
:1053E00095E00E9484E640916E0850916F086091AC
:1053F0007008709171088EE095E00E9484E68AE062
:105400000E9475C2CDC30E944686CAC3EBE5CE2E6C
:10541000E2E0DE2EFDE6EF2EF4E0FF2E10E0D601F6
:105420008D916D010E9410C2882351F00E94DDC150
:10543000F7016083718382839383812F0E94326A94
:105440001F5FF4E0EF0EF11C133049F70C94B3200A
:105450000E945E7DA5C383E50E9459C2882309F49A
:105460009FC30E94ADC17093500260934F0298C3D6
:105470008DED90E00E94726A811192C383E50E94D3
:1054800059C2811103C0EAEEFCE23BC0009127083B
:1054900010E00E94ADC1000F111FF801E35BFD4F4A
:1054A000718360838091270890E08C01000F111FA9
:1054B000000F111F9801275B3D4F7901880F991F3D
:1054C000FC01E35BFD4F60817181072E000C880BAE
:1054D000990B0F94B9062AE037ED43E25CE30F9491
:1054E0001807F801EA53F54F208131814281538139
:1054F0000F941807D7016D937D938D939C93139709
:105500004FC384918F010F5F1F4F882321F00E94AA
:1055100075C2F801F6CF85E40E9475C28091270814
:10552000805D0E9475C2E0912708F0E0EE0FFF1F3A
:10553000E35BFD4F6081718184E295E00E94A1E60A
:1055400085E20E9475C28AE00E9475C229C380E587
:105550000E9410C2882309F423C30E94ADC16B01CD
:105560007C0183E50E9459C2882321F00E94ADC1CD
:105570008B0102C00FEF1FEFC8010196039708F0DF
:105580000FC3D7FC0DC38C2DECE2F5E09491891785
:1055900009F429C43196B5E0E935FB07B9F726C40B
:1055A00083E50E9459C2882319F00E94ADC102C050
:1055B00064E071E079A368A380E50E9459C2882362
:1055C00039F00E94ADC16938E3E17E0730F402C0D2
:1055D00068EE73E07A83698304C088E893E19A8374
:1055E0008983BE01605E7F4FCE0101960E94558C7B
:1055F000D7C20E94C584D4C283E50E9410C2182F6E
:10560000882371F00E94DDC10F94430C70930A024D
:105610006093090221E0672B09F020E02093A603A4
:1056200080E50E9410C2882359F020910902309130
:105630000A02232B11F00E94CEC18093A603B0C2B0
:105640001111AEC2EAEEFCE284918F010F5F1F4F91
:10565000882321F00E9475C2F801F6CF8091A6033D
:10566000882319F065E273E002C068E273E08EE619
:1056700095E00E94BAE66091090270910A028DE5F8
:1056800095E00E94A1E6E9E5F5E084918F010F5FC6
:105690001F4F882309F484C20E9475C2F801F5CF18
:1056A0000E9467807DC20E9475C2F80184918F01BB
:1056B0000F5F1F4F8111F7CFE1E8F5E084918F0173
:1056C0000F5F1F4F882309F46BC20E9475C2F80157
:1056D000F5CF0E94DB4664C281E00E9424650E94EF
:1056E00048ED5EC20E94647E5BC289E40E9459C29A
:1056F000882321F00E94ADC1162F01C01FEF8AE45C
:105700000E9459C2882321F00E94ADC1062F01C01A
:105710000FEF8AE50E9410C2F82E811105C081E5C5
:105720000E9410C2D82E01C0D12C17FD06C007FD63
:1057300004C0F1101CC0D1101AC0EEE5FAE184914A
:105740008F010F5F1F4F811103C0EFEAF5E004C026
:105750000E9475C2F801F3CF84918F010F5F1F4F34
:10576000882309F41DC20E9475C2F801F5CF1330D9
:1057700010F40330D0F0EEE5FAE184918F010F5F71
:105780001F4F811103C0E0E9F5E004C00E9475C21B
:10579000F801F3CF84918F010F5F1F4F882309F425
:1057A000FFC10E9475C2F801F5CFE12E110FFF086D
:1057B000002E000C110B0E94DDC1D701AA0FBB1FE8
:1057C000DD2081F0FD01EE0DFF1DE00FF11FEE0F5A
:1057D000FF1FEE0FFF1FEC5EF64F208131814281EB
:1057E000538103C020E030E0A901EA0EFB1E0E0D3C
:1057F0001F1D000F111F000F111F0C5E164F0F947D
:10580000FF0AD8016D937D938D939C931397C8C124
:105810000E94DCC6C5C10E944BB8C2C183E50E948C
:1058200010C2882321F00E94CEC191E089270E94F6
:1058300012B3B6C181E08093C40A0E9459D6109277
:10584000C40A882309F4ACC1EAEEFCE284918F011A
:105850000F5F1F4F811103C0EFECF5E004C00E9401
:1058600075C2F801F3CF84918F010F5F1F4F88231A
:1058700009F496C10E9475C2F801F5CF8AE50E942D
:1058800059C2811103C0EAEEFCE23BC00E94DDC1B7
:105890006B017C0120E030E040EA51EC0F94250DD3
:1058A00087FD0AC020E030E040EA51E4C701B601BC
:1058B0000F94B30618161CF4EEE5FAE10CC0C09282
:1058C0002904D0922A04E0922B04F0922C0468C19F
:1058D0000E9475C2F80184918F010F5F1F4F8111E3
:1058E000F7CFEAEDF5E084918F010F5F1F4F88231A
:1058F00009F456C10E9475C2F801F5CF0E9475C225
:10590000F80184918F010F5F1F4F8111F7CFEAEFEC
:10591000F5E084918F010F5F1F4F882321F00E94D3
:1059200075C2F801F6CF4091290450912A04609184
:105930002B0470912C0487EF95E00E9484E68AE0A6
:105940000E9475C22DC189E40E9459C2882321F0AA
:105950000E94BDC1982E01C0912C9BE5A92E92E01A
:10596000B92E11E000E0F50181915F010E9459C25A
:10597000882379F10E94ADC16B017C01611571052D
:1059800041F1023081F00330A1F0013031F0F1E05B
:10599000F915F0F088E892E119C021E02915C0F06E
:1059A0008FE092E113C031E0391590F086E991E182
:1059B0000DC08AE893E00E94726A8111F1C0809163
:1059C0002708811105C0B6018DE191E10E941FFFFA
:1059D00010E00F5F043039F6112309F4E1C060E0F4
:1059E00088E892E10E94FEBC61E08FE092E10E94B3
:1059F000FEBC62E086E991E10E94FEBC66E08DE1BA
:105A000091E10E94FEBCCCC060918D1280E00E94AA
:105A1000339C6091141281E00E94339C60919B1131
:105A200082E00E94339C6091221186E00E94339CA8
:105A3000B7C089E40E9459C2882321F00E94BDC1E9
:105A4000F82E01C0F12C8BE5C82E82E0D82E11E093
:105A500000E0D6018D916D010E9410C2882319F1DA
:105A60000E94ADC1603C7F4F44F00E94ADC16034E4
:105A700071052CF40E94ADC103C060EC01C06FE35E
:105A8000002319F0013039F00DC0E1E0EF1550F0BE
:105A900088E892E105C0F1E0FF1520F08FE092E187
:105AA0000E94977C10E00F5F033099F6112309F4F0
:105AB00077C088E892E10E94857C682F80E00E9490
:105AC000029C8FE092E10E94857C682F81E00E9419
:105AD000029C66C081E0809336021092130683E533
