:100000000C94561A0C94871A0C94871A0C94871A1D
:100010000C94871A0C94871A0C94871A0C94871ADC
:100020000C94871A0C94871A0C94871A0C94871ACC
:100030000C94871A0C94871A0C94871A0C94871ABC
:100040000C94871A0C9446A20C94871A0C94871A65
:100050000C94871A0C94871A0C942F6E0D943C0AFA
:100060000C94871A0C943E3A0C94343A0C94871AE8
:100070000C94871A0C94871A0C94871A0C94871A7C
:100080000C94871A0C94871A0C94871A0C94871A6C
:100090000C94871A0C94871A0C94871A0C94871A5C
:1000A0000C94871A0C94871A0C94871A0C94871A4C
:1000B0000C94871A0C94871A0C94871A0C94871A3C
:1000C0000C94871A0C94871A0C94871A0C94871A2C
:1000D0000C94871A0C94871A0C94871A0C94871A1C
:1000E0000C94871A828B658B688B858B6B8B6E8BE0
:1000F000718B7D8B748B908B778B7A8B1E01E001DB
:100100000C02FE01A20172016C014601DE01240114
:10011000F601D4016001DE00720102011801D6016E
:1001200008010A01D600EA0102020A025C01DA00B3
:10013000780194019801C40104026E010A02E201EF
:10014000BC011202084AD73B3BCE016E84BCBFFD06
:10015000C12F3D6C74319ABD56833DDA3D00C77F97
:1001600011BED9E4BB4C3E916BAAAABE0000008030
:100170003F05A84CCDB2D44EB93836A9020C50B9BF
:10018000918688083CA6AAAA2ABE000000803F00EB
:100190000C94F7D20C94EF8B0C946E900C94EE8927
:1001A0000C9416590C94FA580C9465C40D9460097B
:1001B0000C94E2CA0D9486090C94718B0D94AE08D0
:1001C0000C94F5C40C9476600C94BDC40C9481D24C
:1001D0000C942BC70C949C900C947BF00C9483AAE9
:1001E0000C948DC40C94AE870C94778B0C94FACA43
:1001F0000C94748B0C94F2F00C941A440C9422ED31
:100200000C94F4CA0D94B4080C94AEA80C94938783
:100210000D9456090D945B090C940F5B0C94A5A8E2
:100220000C945C5A0C94C1A80C947D8B0C94AB87F5
:100230000D94B8080C9406CB0C949E900D948708EE
:100240000C94B4A80C9428ED0D949C080C94E38BAA
:100250000C943CF00C94BFE00C94A7870C948AC5D6
:100260000C94D35C0C9426ED0C94A2A90C944AE057
:100270000C9483870C94A1F20C9424ED0C94E191DE
:100280000C949BC40C94B0D80C94F9F20D94920881
:100290000C94F2C40C94CE6B0C94ABF20C9487903B
:1002A0000C94EE910C94AAF00C94D1C40C948AF0A6
:1002B0000C94A9C40C948F870D947E090C949A9089
:1002C0000D94AA080C9456920C946B8B0C94B6A8BF
:1002D0000C94F8C40C948B870D948E080D94C5096A
:1002E0000C94A4D20D94C1080C94688B0C94B0F0BB
:1002F0000D948E090C944A440C942E440C94A5EB56
:100300000C94908B0C94B38E0C9415C50C94BDD2A8
:100310000C9487870C9479C40C9451C40C94658B0D
:100320000C9498900C9449C50D9498090C94B35A68
:100330000D94A2090C9400CB0C94B1870C94A6F2F6
:100340000D941F110D9483080C94AF5A0C94E8CAB5
:100350000C94625A0C9483C50C946E8B0C94DFC47D
:100360000C94B4870C949F870C94B6F00C94A387DC
:100370000C94B68E0C94858B0D94D9090C94565A16
:100380000C94DCCA0C9401F30D94AC090C9420ED90
:100390000C9466C50C949B870C94335E0C94EF917F
:1003A0000C9436E00C94A4A10D94A6080D94BC08FE
:1003B0000C94B08E0D94BE130C9485F00D94980897
:1003C0000D948A080D94CF090C9496900C94CFF359
:1003D0000C9480F00D946A090C94EE430C94EBEAB3
:1003E0000C94EECA0C9472850C947A8B0D94A00830
:1003F0000C94828B0C9497870C9405AC0D947D081B
:100400000C948B850D9474090D94BB090C94A4F085
:100410000C9432C50D94ED090D9479080C946C5A26
:100420000C949CF20D94E3094E414E494E495459A7
:10043000494E46CDCCCC3D0AD7233C17B7D13877AF
:10044000CC2B329595E6241FB14F0A0000204100C5
:1004500000C84200401C4620BCBE4CCA1B0E5AAE0F
:10046000C59D7400407A10F35A00A0724E1809001E
:1004700010A5D4E80000E87648170000E40B540209
:100480000000CA9A3B000000E1F505000080969844
:1004900000000040420F000000A086010000001094
:1004A0002700000000E803000000006400000000D6
:1004B000000A00000000000100000000002C76D8B7
:1004C00088DC674F0823DFC1DFAE59E1B1B796E59D
:1004D000E3E453C63AE651997696E8E6C28426EB01
:1004E000898C9B62ED407C6FFCEFBC9C9F40F2BA14
:1004F000A56FA5F490055A2AF75C936B6CF9676DAC
:10050000C11BFCE0E40D47FEF520E6B500D0ED9000
:100510002E0300943577050080841E080000204ECD
:100520000A000000C80C333333330F986E12831166
:1005300041EF8D2114893BE65516CFFEE6DB18D13D
:10054000844B381BF77C1D901DA4BBE4242032840F
:10055000725E228100C9F124ECA1E53D2700000074
:10056000000000000000000000FFFFFF970592055B
:100570008B0584057605434F4D4D554E49434154F7
:10058000494F4E0044525952554E004552524F5217
:100590005300494E464F004543484F006F6B00459E
:1005A0004550524F4D204F4B0A004F66667365749D
:1005B00073204170706C696564004572723A205412
:1005C0006F6F206661722100546F6F206661722028
:1005D00066726F6D207265666572656E6365207008
:1005E0006F696E740A004D34323120696E636F7228
:1005F0007265637420706172616D657465722075D7
:10060000736167650A006469730043290A006162C7
:100610006C656420286D696E2074656D70200043E0
:100620006F6C64206578747275646573206172659F
:100630002000496E76616C69642065787472756417
:1006400065720A0020643A0020693A0020703A007E
:1006500020466C6F773A20003F4A206F7574206FF8
:10066000662072616E67652028302E303120746FED
:1006700020302E33290A004D31343520533C696E29
:100680006465783E206F7574206F662072616E67B6
:10069000652028302D31290A002F2F2000434841A2
:1006A0004D4245525F54454D504552415455524577
:1006B000004D4F54494F4E5F4D4F444553005448F1
:1006C00045524D414C5F50524F54454354494F4E53
:1006D000004155544F5245504F52545F53445F535D
:1006E00054415455530050524F4D50545F53555040
:1006F000504F525400454D455247454E43595F5067
:10070000415253455200434153455F4C4947485479
:100710005F4252494748544E45535300544F474750
:100720004C455F4C494748545300534F465457413A
:1007300052455F504F574552004255494C445F5017
:10074000455243454E54004C4556454C494E475F33
:1007500044415441005A5F50524F42450041555464
:100760004F4C4556454C005052494E545F4A4F42FB
:100770000050524F4752455353004155544F524534
:10078000504F52545F54454D5000564F4C554D45B7
:10079000545249430042494E4152595F46494C45E3
:1007A0005F5452414E534645520053455249414CC5
:1007B0005F584F4E5F584F4646004649524D57418D
:1007C00052455F4E414D453A4D61726C696E203223
:1007D0002E302E3320284769744875622920534FE4
:1007E000555243455F434F44455F55524C3A6874F8
:1007F0007470733A2F2F6769746875622E636F6D1A
:100800002F4D61726C696E4669726D776172652FEA
:100810004D61726C696E2050524F544F434F4C5F84
:1008200056455253494F4E3A312E30204D414348A0
:10083000494E455F545950453A536576656E206F71
:10084000662031312045585452554445525F434F3C
:10085000554E543A3120555549443A6365646532E2
:100860006132662D343161322D343734382D39629E
:1008700031322D6335356336326633363766660A74
:1008800000536576656E206F66203131204F4646F5
:100890002E004D3131332053004D31313220536819
:1008A0007574646F776E006F666600444542554705
:1008B0003A0045202553000A53746174733A204668
:1008C000696C616D656E7420757365643A20002CE7
:1008D000204C6F6E67657374206A6F623A20005413
:1008E0006F74616C2074696D653A20002C2046613C
:1008F000696C65643A20002C2046696E69736865EE
:10090000643A20005072696E74733A200053746127
:1009100074733A200050726F74656374656420507C
:10092000696E0A005072696E742074696D653A20B0
:100930000044656C6574696F6E206661696C6564FE
:100940002C2046696C653A200046696C6520646518
:100950006C657465643A00286E6F2066696C652961
:100960000043757272656E742066696C653A20008A
:100970005344207072696E74696E67206279746581
:1009800020004E6F74205344207072696E74696E3B
:10099000670A00456E642066696C65206C69737433
:1009A0000A00426567696E2066696C65206C697330
:1009B000740A004E6F204D6F76652E00436C69639C
:1009C0006B20746F20526573756D652E2E2E004D51
:1009D00065736820706F696E742063616E6E6F74EA
:1009E000206265207265736F6C7665640A005A2018
:1009F00050726F62652050617374204265640A0012
:100A00005A2050726F626520506173742042656491
:100A100000486F6D652058592066697273740A002A
:100A2000486F6D6520585920466972737400536C85
:100A30006565702E2E2E0047322F47332062616489
:100A400020706172616D65746572730A004572721F
:100A50006F722077726974696E6720746F204545E4
:100A600050524F4D210A00627573793A20706175BA
:100A700073656420666F7220696E7075740A006217
:100A80007573793A2070617573656420666F7220A2
:100A9000757365720A00627573793A2070726F63BC
:100AA000657373696E670A0053544F505045442E66
:100AB00020005072696E7465722073746F70706577
:100AC000642064756520746F206572726F72732E76
:100AD0002046697820746865206572726F722061A3
:100AE0006E6420757365204D39393920746F20721A
:100AF0006573746172742E202854656D706572611F
:100B0000747572652069732072657365742E205345
:100B100065742069742061667465722072657374EF
:100B2000617274696E67290A004E6F2043686563BD
:100B30006B73756D2077697468206C696E65206EC3
:100B4000756D6265722C204C617374204C696E6502
:100B50003A2000636865636B73756D206D69736D12
:100B6000617463682C204C617374204C696E653A23
:100B700020004C696E65204E756D62657220697348
:100B8000206E6F74204C617374204C696E65204E2A
:100B9000756D6265722B312C204C617374204C6929
:100BA0006E653A20004D313130004D313137004D06
:100BB00033310053442072656164206572726F7234
:100BC0000A00446F6E65207072696E74696E6720EA
:100BD00066696C650A002121204B494C4C206361F9
:100BE00075736564206279204B494C4C20627574A2
:100BF000746F6E2F70696E0A002121204B494C4C96
:100C00002063617573656420627920746F6F206D55
:100C100075636820696E6163746976652074696DB7
:100C200065202D2063757272656E7420636F6D6D23
:100C3000616E643A2000506C656173652052657383
:100C40006574005052494E5445522048414C544519
:100C5000440025533A202553004B494C4C45442E23
:100C600020005072696E7465722068616C746564EE
:100C70002E206B696C6C28292063616C6C65642183
:100C80000A00363726033C3D380E2E303E121A1C21
:100C90001808440AFF430809000124F4D43050C363
:100CA0008E20C2A24017828B7011127A910D816C36
:100CB000D90AA861E108C7586607615143061E4B6F
:100CC0005D05C145A7041A411104093D9803713916
:100CD00031034036DB0265339102D4305402802E5A
:100CE0001D02632CEE01752AC501B028A001102752
:100CF00081018F2564012B244B01E0223401AC21BA
:100D00001F018D200D01801FFC00841EED00971D2A
:100D1000DF00B81CD200E61BC600201BBC00641A12
:100D2000B200B219A8000A19A0006A189900D117D8
:100D3000910040178B00B516840031167E00B31564
:100D400079003A157300C7146F0058146A00EE1347
:100D500066008813630025135E00C7125B006C12E7
:100D6000570015125400C111510070114F0021118C
:100D70004B00D61049008D10470046104400021069
:100D80004200C00F4000800F3E00420F3C00060FA3
:100D90003B00CB0E3800930E37005C0E3500270E5B
:100DA0003400F30D3200C10D3100900D3000600DA4
:100DB0002E00320D2D00050D2C00D90C2B00AE0C91
:100DC0002900850C29005C0C2700350C27000E0C2F
:100DD0002600E80B2400C40B2400A00B23007D0B8D
:100DE00023005A0B2100390B2100180B2000F80AB0
:100DF0001F00D90A1E00BB0A1E009D0A1D00800AA2
:100E00001D00630A1C00470A1B002C0A1B00110A64
:100E10001A00F7091A00DD091900C4091900AB0905
:100E20001900920917007B091800630917004C0983
:100E3000160036091600200916000A091500F508E3
:100E40001500E0081400CC081400B8081400A40829
:100E50001400900813007D0812006B081300580856
:100E6000120046081200340811002308110012086D
:100E7000110001081100F0071000E0071000D00772
:100E80001000C0071000B0070F00A1071000910765
:100E90000E0083070F0074070F0065070E00570749
:100EA0000E0049070E003B070D002E070E0020071D
:100EB0000D0013070D0006070D00F9060C00ED06E6
:100EC0000D00E0060C00D4060C00C8060C00BC06A1
:100ED0000C00B0060C00A4060B0099060C008D0651
:100EE0000B0082060B0077060B006C060B006106F8
:100EF0000A0057060B004C060A0042060A00380694
:100F00000A002E060A0024060A001A060A00100625
:100F1000090007060A00FD050900F4050900EB05B4
:100F20000900E2050900D9050900D0050900C70537
:100F30000900BE050900B5050800AD050800A505B6
:100F400009009C050800940508008C05080084052C
:100F500008007C050800740508006C05070065059D
:100F600008005D050700560508004E050700470507
:100F700007004005080038050700310507002A056D
:100F80000700230507001C050600160507000F05CE
:100F900007000805060002050700FB040600F5042B
:100FA0000700EE040600E8040600E2040700DB0484
:100FB0000600D5040600CF040600C9040600C304D9
:100FC0000600BD040600B7040600B1040500AC0429
:100FD0000600A6040600A00405009B040600950474
:100FE0000500900406008A040500850405008004BD
:100FF00006007A04050075040500700405006B0402
:10100000050066040500610405005C040500570442
:101010000500520405004D04050048040500430482
:1010200005003E0404003A040500350405003004C0
:1010300004002C04050027040400230405001E04FA
:1010400004001A04040016040500110404000D0431
:101050000400090405000404040000040400FC0367
:101060000400F8030400F4030400F0030400EC039C
:101070000400E8030400E4030400E0030400DC03CC
:101080000400D8030400D4030400D0030400CC03FC
:101090000400C8030300C503030024F404D9201B83
:1010A000C40C5C0E9804C4095F0265077101F40565
:1010B000F900FB04B30048048700C103690058032A
:1010C000550003034500BE023A008402310053027A
:1010D0002A002902250004022000E4011C00C801A6
:1010E0001900AF0117009801140084011300710169
:1010F00010006101100051010E0043010D00360186
:101100000B002B010B0020010B00150109000C0145
:10111000090003010800FB000800F3000800EB00D1
:101120000700E4000600DE000600D8000600D2003A
:101130000600CC000500C7000500C2000500BD0088
:101140000400B9000400B5000400B1000400AD00C3
:101150000400A9000400A5000300A20003009F00F2
:1011600004009B0003009800030095000200930018
:101170000300900003008D0002008B000300880034
:1011800002008600020084000300810002007F004C
:1011900002007D0002007B0002007900020077005F
:1011A000010076000200740002007200010071006C
:1011B00002006F0002006D0001006C0002006A0076
:1011C000010069000200670001006600010065007F
:1011D0000100640002006200010061000100600083
:1011E00001005F0002005D0001005C0001005B0087
:1011F00001005A0001005900010058000100570089
:101200000100560001005500010054000100530088
:101210000000530001005200010051000100500085
:1012200001004F0001004E0000004E0001004D0083
:1012300001004C0001004B0000004B0001004A007F
:10124000010049000100480000004800010047007B
:101250000100460000004600010045000000450076
:10126000010044000100430000004300010042006F
:101270000000420001004100000041000100400068
:1012800001003F0000003F0001003E0000003E0062
:1012900001003D0000003D0001003C0000003C005A
:1012A00000003C0001003B0000003B0001003A0050
:1012B00000003A0001003900000039000100380048
:1012C000000038000000380001003700000037003F
:1012D0000100360000003600000036000100350035
:1012E000000035000000350001003400000034002B
:1012F0000000340001003300000033000000330020
:101300000100320000003200000032000100310014
:10131000000031000000310001003000000030000A
:101320000000300001002F0000002F0000002F00FF
:1013300000002F0001002E0000002E0000002E00F3
:1013400001002D0000002D0000002D0000002D00E8
:1013500001002C0000002C0000002C0000002C00DC
:1013600001002B0000002B0000002B0000002B00D0
:1013700001002A0000002A0000002A0000002A00C4
:1013800001002900000029000000290000002900B8
:1013900000002900010028000000280000002800AB
:1013A000000028000000280001002700000027009E
:1013B0000000270000002700000027000100260091
:1013C0000000260000002600000026000000260085
:1013D0000100250000002500000025000000250078
:1013E000000025000000250001002400000024006A
:1013F000000024000000240000002400010023005D
:101400000000230000002300000023000000230050
:101410000000230000002300010022000000220041
:101420000000220000002200000022000000220034
:101430000100210000002100000021000000210027
:101440000000210000002100000021000100200018
:10145000000020000000200000002000000020000C
:1014600000002000000020000000200001001F00FC
:1014700000001F0000001F0000001F0000001F00F0
:1014800000001F0000001F0001001E0000001E00E1
:1014900000001E0000001E0000003930000033254F
:1014A000000087190000B00F0000DB080000BD0439
:1014B0000000740200003F010000687474703A2F4D
:1014C0002F6D61726C696E66772E6F7267002032C5
:1014D0002E302E33002020506C616E6E6572427586
:1014E0006666657242797465733A200020467265BB
:1014F00065204D656D6F72793A2000436F6D70699C
:101500006C65643A204665622031302032303230DA
:101510000A00204C61737420557064617465643AEC
:1015200020323032302D30312D3331207C20417546
:1015300074686F723A202844616E69656C20567237
:101540006F6C696A6B2C20536576656E206F662020
:10155000313120636F6E666967290A00322E302EA2
:10156000330A004D61726C696E0020536F667477A8
:101570006172652052657365740A00205761746357
:1015800068646F672052657365740A002042726F49
:10159000776E206F75742052657365740A0020455C
:1015A000787465726E616C2052657365740A0050C0
:1015B0006F77657255700A006175746F25632E67C9
:1015C000004732385859006572726F72207772691D
:1015D00074696E6720746F2066696C650A00446FD9
:1015E0006E6520736176696E672066696C652E0A88
:1015F000004D323900456E6473746F70730025536B
:1016000020256320256320256320256300205A3A86
:101610000020593A00656E6473746F7073206869B6
:10162000743A20002062797465733B2063726320F2
:101630000053657474696E67732053746F726564C8
:10164000202800454550524F4D20646174617369F4
:101650007A65206572726F722E0A002073746F7241
:1016600065642073657474696E6773207265747243
:101670006965766564202800202863616C63756C59
:101680006174656429210A0020213D2000454550F0
:10169000524F4D20435243206D69736D61746368EE
:1016A000202D202873746F726564292000496E64B0
:1016B00065783A2000204D61726C696E3D56373571
:1016C000290A00454550524F4D2076657273696F67
:1016D0006E206D69736D61746368202845455052B2
:1016E0004F4D3D0050726F62696E6720506F696E9A
:1016F000740025532025692F25690050726F626997
:101700006E67206D65736820706F696E74200020AD
:101710002844525952554E29004732392041757498
:101720006F20426564204C6576656C696E67003F8A
:1017300020284C2C522C462C4229206F7574206F87
:101740006620626F756E64732E0A003F2856296505
:1017500072626F7365206C6576656C20696D706C64
:1017600061757369626C652028302D34292E0A005A
:10177000426164205A2076616C75650A004E6F20C4
:1017800062696C696E65617220677269640A0044FF
:101790006576696174696F6E0025533A2025730080
:1017A0005374616E64617264204465766961746922
:1017B0006F6E3A20002052616E67653A20004D65D9
:1017C000616E3A200046696E6973686564210A009B
:1017D0002072616E67653A2000207369676D613A17
:1017E0002000206D65616E3A20003A207A3A200090
:1017F000206F662000476F696E6720746F3A20582B
:101800000043570A00206469723A0020616E676CD9
:10181000653A005374617274207261646975733A39
:10182000004D343820506F696E740025533A2025DE
:10183000642F256400506F736974696F6E696E67F9
:10184000207468652070726F62652E2E2E0A003F2C
:101850004E756D626572206F66206C6567732069D6
:101860006E206D6F76656D656E74206E6F7420707E
:101870006C61757369626C652028302D3135292EB5
:101880000A003F2028582C5929206F7574206F6654
:1018900020626F756E64732E0A003F53616D706C29
:1018A000652073697A65206E6F7420706C61757342
:1018B00069626C652028342D3530292E0A004D349C
:1018C00038205A2D50726F626520526570656174C0
:1018D0006162696C69747920546573740A004C6F95
:1018E0006164206D6D00556E6C6F6164206D6D00DC
:1018F00046696C2E204469612E004520696E206D7A
:101900006DC2B30020022046616374002002204DA6
:101910006178002002204D696E004175746F746516
:101920006D70005654726176204D696E00566D6977
:101930006E00566D6178204500566D6178205A0022
:10194000566D6178205900566D6178205800206DE1
:1019500061783A2000206D696E3A20003F5A206F6E
:101960007574206F662072616E67652028003F598C
:10197000206F7574206F662072616E676520282D58
:101980000020746F20003F58206F7574206F662010
:1019900072616E676520282D0050726F6265204F5E
:1019A0006666736574205800656E71756575656946
:1019B0006E67202200526573656E643A20002569C7
:1019C0007920256964202569682025696D202569AD
:1019D000730042656420436F6F6C696E672E2E2E14
:1019E000004265642048656174696E672E2E2E0082
:1019F00023646566696E652044454641554C545FD5
:101A0000004B6420004B6920004B7020005049447B
:101A1000204175746F74756E652066696E697368B0
:101A20006564212050757420746865206C6173743E
:101A3000204B702C204B6920616E64204B64206326
:101A40006F6E7374616E74732066726F6D20626561
:101A50006C6F7720696E746F20436F6E666967756F
:101A6000726174696F6E2E680A0050494420417596
:101A7000746F74756E65206661696C65642120748D
:101A8000696D656F75740A000A20436C6173736930
:101A90006320504944200A00204B643A2000204B28
:101AA000693A2000204B703A20002054753A2000FB
:101AB000204B753A200020643A200020626961734F
:101AC0003A2000504944204175746F74756E65204A
:101AD00073746172740A00504944204175746F74C4
:101AE000756E65206661696C6564212054656D7052
:101AF0006572617475726520746F6F2068696768BC
:101B00000A00504944204175746F74756E652066F3
:101B100061696C6564212042616420657874727526
:101B2000646572206E756D6265720A004865617445
:101B3000696E67206661696C6564004531006265A5
:101B400064002C2073797374656D2073746F7070EA
:101B5000656421204865617465725F49443A2000DC
:101B600048656174696E67204661696C6564002030
:101B70002D20496E76616C69642065787472756495
:101B80006572206E756D62657220210A0045727261
:101B90003A204D415854454D50004D415854454D03
:101BA0005020747269676765726564004572723AA5
:101BB000204D494E54454D50004D494E54454D50D1
:101BC00020747269676765726564004D3834205807
:101BD0002059205A204500202F002042403A002062
:101BE000403A0020573A001000C90210012C014071
:101BF00001220170011801B0010E01F00104015031
:101C000002FA00B002F0003003E600D003DC0090DE
:101C100004D2007005C800A006BE000008B400B0E1
:101C200009AA00D00BA000600E960060118C000085
:101C300015820020197800C01D6E00A0226400B03B
:101C4000275A00902C500000314600E0343C001030
:101C5000383200903A2800603C1E00A03D140080FD
:101C60003E0A00203F000070012C0190012701B0C6
:101C7000012201C0011D01F0011801100213013001
:101C8000020E016002090190020401C002FF00007F
:101C900003FA004003F5008003F000D003EB0020BE
:101CA00004E6007004E100E004DC004005D700C059
:101CB00005D2004006CD00D006C8008007C3003022
:101CC00008BE00F008B900C009B400B00AAF00B007
:101CD0000BAA00D00CA500000EA000500F9B00C066
:101CE0001096005012910000148C00C0158700B0AF
:101CF000178200B0197D00D01B7800001E730040D1
:101D0000206E0090226900F024640040275F00905C
:101D1000295A00E02B5500102E500020304B0010A7
:101D2000324600E033410090353C001037370070F8
:101D3000383200A0392D00B03A2800A03B230060C3
:101D40003C1E00103D1900903D1400103E0F007025
:101D50003E0A00C03E0500003F0000403FFBFF8000
:101D60003FF6FFC03FF1FF20746F6F206C6F6E670E
:101D700020657874727573696F6E20707265766510
:101D80006E7465640A0020636F6C642065787472F9
:101D90007573696F6E2070726576656E7465640A1E
:101DA00000554E4C4F41442046494C414D454E5400
:101DB0000046494C414D454E54204348414E47450D
:101DC00000436F6E66696775726174696F6E004D6E
:101DD00037303220542564004D36303020423020D8
:101DE000542564004D373032203B2564004D373098
:101DF0003120542564004D373032004D37303100EA
:101E00004D36303020423000436F6E74696E756518
:101E1000005075726765206D6F72650052455355AD
:101E20004D45204F5054494F4E533A005052494E61
:101E300054205041555345440020204E6F7A7A6C0F
:101E4000653A200053746F70004D32310043686171
:101E50006E6765204D6564696100526573756D65D7
:101E6000205072696E74004E6F204D656469610088
:101E700054756E650053746F70205072696E7400F3
:101E8000496E666F2053637265656E005061726BB8
:101E9000696E672E2E2E0000005761697420666FF0
:101EA000720066696C616D656E74206368616E674F
:101EB0006500746F207374617274005761697420D7
:101EC000666F720066696C616D656E7420756E6C0C
:101ED0006F616400004E6F7A7A6C6520686561748A
:101EE000696E6700506C6561736520776169742E57
:101EF0002E2E0000507265737320627574746F6EBD
:101F000000746F2068656174206E6F7A7A6C65006A
:101F100000496E736572742066696C616D656E74DC
:101F200000616E6420707265737320627574746FE3
:101F30006E00746F20636F6E74696E756500576113
:101F4000697420666F720066696C616D656E7420DD
:101F50006C6F616400005072657373204275747415
:101F60006F6E00746F20726573756D652070726995
:101F70006E7400005761697420666F722070726918
:101F80006E7400746F20726573756D652E2E2E0051
:101F9000005761697420666F720066696C616D65D7
:101FA0006E74207075726765000045737465707398
:101FB0002F6D6D005A73746570732F6D6D005973BA
:101FC000746570732F6D6D005873746570732F6D29
:101FD0006D00416476616E63656420536574746955
:101FE0006E677300496E6974004D34323800496E73
:101FF000697469616C697A6520454550524F4D009E
:1020000053746570732F6D6D0050726F6265204F51
:10201000666673657473004A65726B00416363653D
:102020006C65726174696F6E0056656C6F6369747C
:10203000790053657420486F6D65204F666673653F
:10204000747300526573746F7265206661696C7396
:10205000616665004C6F61642053657474696E67D6
:10206000730053746F72652053657474696E67737F
:1020700000507265686561742041425320436F6E61
:1020800066005072656865617420504C4120436F52
:102090006E66002053697A653A200043616E6E6F68
:1020A00074206F70656E20737562646972200053CE
:1020B000442063617264206F6B0A006F70656E521A
:1020C0006F6F74206661696C65640A00766F6C7569
:1020D0006D652E696E6974206661696C65640A00BD
:1020E000534420696E6974206661696C0A004D3240
:1020F00034004D32332025730046696C65207365CA
:102100006C65637465640A0046696C65206F706570
:102110006E65643A2000454E4420535542524F5557
:1021200054494E450A002220706F730022207061CE
:1021300072656E743A2200535542524F5554494EBF
:10214000452043414C4C207461726765743A22000B
:10215000747279696E6720746F2063616C6C207390
:1021600075622D67636F64652066696C657320779F
:1021700069746820746F6F206D616E79206C65766C
:10218000656C732E204D4158206C6576656C206916
:10219000733A310A0057726974696E6720746F2050
:1021A00066696C653A2000667265736800646F69E1
:1021B0006E67004E6F7720007C3C3E5E2B3D3F2FCC
:1021C0005B5D3B2C2A225C00FFFDFCFAF8F6F4F282
:1021D000F0EEECEAE9E7E5E3E1E0DEDCDAD9D7D5D9
:1021E000D4D2D0CFCDCBCAC8C7C5C3C2C0BFBDBC77
:1021F000BAB9B7B6B4B3B2B0AFADACAAA9A8A6A5E8
:10220000A4A2A1A09E9D9C9A999897959493929030
:102210008F8E8D8B8A8988878684838281807F7E5A
:102220007D7B7A797877767574737271706F6E6D65
:102230006C6B6A696867666564636261605F5E5D56
:102240005C5B5A5958585756555453525150504F39
:102250004E4D4C4B4A4A4948474646454443424204
:1022600041403F3E3E3D3C3B3B3A393838373635BE
:1022700035343332323130302F2E2E2D2C2B2B2A69
:102280002929282727262525242323222121202008
:102290001F1E1E1D1C1C1B1B1A1919181817161699
:1022A000151514131312121111100F0F0E0E0D0D20
:1022B0000C0C0B0A0A09090808070706060505049D
:1022C00004030302020100004F6666004F6E0054D3
:1022D000656D7065726174757265004D38340044C7
:1022E000697361626C652053746570706572730008
:1022F0004732380A4D343820503130004D343820C0
:1023000050726F6265205465737400466164652085
:10231000486569676874004732380A473239004CAB
:102320006576656C204265640047323800417574FB
:102330006F20486F6D65005072656865617420504C
:102340004C4120426564005072656865617420509C
:102350004C4120456E64005072656865617420418F
:10236000425320456E640050726568656174204177
:1023700042532042656400436F6F6C646F776E0058
:102380000000484300004843000048430000484222
:10239000000048420000A0400202040000A04000EB
:1023A00000A040000000400000000100000001000B
:1023B000008000555555000000400033333300AA1B
:1023C000AA2A004992240000002000C7711C00992D
:1023D000991900D1451700555515003BB11300243C
:1023E00049120011111100000010000F0F0F00E33F
:1023F000380E0043790D00CCCC0C00C3300C00E843
:10240000A20B0064210B00AAAA0A00703D0A009DDD
:10241000D80900427B090092240900DCD308008817
:102420008808001042080000000800F0C10700877B
:1024300087070075500700711C07003EEB0600A1DE
:10244000BC06006990060066660600703E060061E4
:1024500018060017F4050074D105005BB00500B242
:10246000900500627205005555050078390500B8E1
:102470001E0500050505004EEC040087D40400A1EC
:10248000BD040090A7040049920400C17D0400EE41
:10249000690400C7560400444404005C3204000888
:1024A00021040041100400000004003FF00300F884
:1024B000E0030026D20300C3C30300CCB503003AF7
:1024C000A803000A9B0300388E0300C08103009F0D
:1024D000750300D0690300505E03001D53030034F0
:1024E000480300913D0300333303001629030038ED
:1024F0001F030097150300300C0300030303000BB8
:10250000FA020049F10200BAE802005CE002002D84
:10251000D802002DD0020059C80200B0C00200311C
:10252000B90200DAB10200AAAA0200A0A30200BC0C
:102530009C0200FA9502005C8F0200DF8802008294
:10254000820200457C0200277602002770020043C9
:102550006A02007C640200D05E02003F590200C89B
:1025600053020020436F756E7420583A0020453A9C
:1025700000486F6D696E67204661696C656400573D
:1025800061726E696E673A20486F6D696E672042AE
:10259000756D702044697669736F72203C20310A32
:1025A000006563686F3A004572726F723A00426963
:1025B0006C696E656172204C6576656C696E67202A
:1025C000477269643A0A004F46460A0046616465EC
:1025D000204865696768742000426564204C657610
:1025E000656C696E6720004661696C656420746F74
:1025F00020656E61626C6520426564204C6576657D
:102600006C696E670A00496E76616C6964206D655D
:1026100073682E0A00A10000006900A20000006398
:1026200000B00000000900C10000004100C200002D
:10263000004100C30000004100C40000004100C58B
:102640000000004100C60000004145C700000043F3
:1026500000C80000004500C90000004500CD000092
:10266000004900D10000004E00D50000004F00D608
:102670000000004F00D70000007800DC000000558B
:1026800000DD0000005900E00000006100E10000F2
:10269000006100E20000006100E30000006100E46E
:1026A0000000006100E50000006100E6000000613C
:1026B00065E70000006300E80000006500E9000035
:1026C000006500EA0000006500EB0000006500EC1A
:1026D0000000006900ED0000006900EE00000069E4
:1026E00000EF0000006900F10000006E00F2000041
:1026F000006F00F30000006F00F40000006F00F5B1
:102700000000006F00F60000006F00F80000006F8E
:1027100000F90000007500FA0000007500FB0000E1
:10272000007500FC0000007500FD0000007900FF4E
:102730000000007900040100004100050100006173
:10274000000601000043000701000063000C0100C7
:102750000043000D01000063000E01000044000F63
:10276000010000640011010000640019010000650F
:10277000001F010000670030010000490031010026
:10278000006900410100004C00420100006C004360
:102790000100004E00440100006E00480100006E80
:1027A000005901000072005A01000053005B010053
:1027B0000073005F010000730060010000530061BE
:1027C00001000073006501000074006F01000075D6
:1027D000007C0100007A007D0100005A007E0100AB
:1027E000007A00920100006600E3020000780022F7
:1027F0002000002E001E21000050782221000054ED
:102800004D902100003C2D922100002D3EB0210072
:10281000000300BB21000004003C2200007E0048B1
:102820002200007E3D60220000213D612200003D2B
:1028300000642200003C3D652200003E3DF1230083
:10284000000700A03000003D0021F301000200C29B
:10285000F401000500A2000000EC00B0000000DF61
:1028600000E4000000E100F6000000EF00F70000C7
:1028700000FD00FC000000F500E3020000EB008713
:10288000030000A5008F030000F40098030000F28D
:10289000009E030000E300A3030000F600A903006C
:1028A00000F400AC030000E000AD030000E300B161
:1028B000030000E000B2030000E200B5030000E303
:1028C00000B8030000F200BC030000E400BE0300F7
:1028D00000E300C0030000F700C1030000E600C3EE
:1028E000030000E500902100007F00922100007E9F
:1028F000001A220000E8001E220000F300882500D4
:1029000000FF0002300000A1000C300000A2000D0A
:10291000300000A3009B300000DE009C300000DF90
:1029200000A03000003D00A1300000A700A2300050
:1029300000B100A3300000A800A4300000B200A540
:10294000300000A900A6300000B300A7300000AAA4
:1029500000A8300000B400A9300000AB00AA30008D
:1029600000B500AB300000B600AC300000B6DEAD04
:10297000300000B700AE300000B7DEAF300000B866
:1029800000B0300000B8DEB1300000B900B2300055
:1029900000B9DEB3300000BA00B4300000BADEB5D2
:1029A000300000BB00B6300000BBDEB7300000BC1A
:1029B00000B8300000BCDEB9300000BD00BA300005
:1029C00000BDDEBB300000BE00BC300000BEDEBD7E
:1029D000300000BF00BE300000BFDEBF300000C0CE
:1029E00000C0300000C0DEC1300000C100C23000B5
:1029F00000C1DEC3300000AF00C4300000C200C51B
:102A0000300000C2DEC6300000C300C7300000C383
:102A1000DEC8300000C400C9300000C4DECA300087
:102A200000C500CB300000C600CC300000C700CD90
:102A3000300000C800CE300000C900CF300000CA0E
:102A400000D0300000CADED1300000CADFD2300032
:102A500000CB00D3300000CBDED4300000CBDFD57C
:102A6000300000CC00D6300000CCDED7300000CCE7
:102A7000DFD8300000CD00D9300000CDDEDA3000E4
:102A800000CDDFDB300000CE00DC300000CEDEDD2C
:102A9000300000CEDFDE300000CF00DF300000D09D
:102AA00000E0300000D100E1300000D200E2300050
:102AB00000D300E3300000AC00E4300000D400E5B7
:102AC000300000AD00E6300000D500E7300000AE79
:102AD00000E8300000D600E9300000D700EA3000FE
:102AE00000D800EB300000D900EC300000DA00ED37
:102AF000300000DB00EF300000DC00F2300000A608
:102B000000F3300000DD00F4300000B3DEF73000E9
:102B100000DCDEFA300000A6DEFB300000A500FC81
:102B2000300000B000FD300000A400074E0000FBA4
:102B30000086510000FC0043530000FA0064FF00CF
:102B400000A40065FF0000A50066FF0000A6006766
:102B5000FF0000A70068FF0000A80069FF0000A9AF
:102B6000006AFF0000AA006BFF0000AB006CFF00D2
:102B700000AC006DFF0000AD006EFF0000AE006F06
:102B8000FF0000AF0070FF0000B00071FF0000B157
:102B90000072FF0000B20073FF0000B30074FF007A
:102BA00000B40075FF0000B50076FF0000B60077A6
:102BB000FF0000B70078FF0000B80079FF0000B9FF
:102BC000007AFF0000BA007BFF0000BB007CFF0022
:102BD00000BC007DFF0000BD007EFF0000BE007F46
:102BE000FF0000BF0080FF0000C00081FF0000C1A7
:102BF0000082FF0000C20083FF0000C30084FF00CA
:102C000000C40085FF0000C50086FF0000C60087E5
:102C1000FF0000C70088FF0000C80089FF0000C94E
:102C2000008AFF0000CA008BFF0000CB008CFF0071
:102C300000CC008DFF0000CD008EFF0000CE008F85
:102C4000FF0000CF0090FF0000D00091FF0000D1F6
:102C50000092FF0000D20093FF0000D30094FF0019
:102C600000D40095FF0000D50096FF0000D6009725
:102C7000FF0000D70098FF0000D80099FF0000D99E
:102C8000009AFF0000DA009BFF0000DB009CFF00C1
:102C900000DC009DFF0000DD009EFF0000DE009FC5
:102CA000FF0000DF00E5FF00005C00001C1F1111A9
:102CB0001F00000006191803130C00040E1F041C4B
:102CC000000000000E1315110E00001C101817054F
:102CD000060500040A0A0A0A11110E0C12120C0051
:102CE000000000001F1511151F000000000000016A
:102CF0000204040000001C1C0C0404040201000077
:102D000000000004081000000000007C4D61726C9F
:102D1000696E7C002D2D2D2D2D2D005072696E7445
:102D20002066726F6D204D65646961004D6F766538
:102D30002025736D6D004D6F766520302E316D6DE1
:102D4000004D6F766520316D6D004D6F76652031D9
:102D5000306D6D004D6F7665204178697300486F66
:102D600074656E6420746F6F20636F6C64004578C7
:102D7000747275646572004D6F7665205A004D6FF0
:102D800076652059004D6F76652058004368616E66
:102D900067652046696C616D656E7400556E6C6F79
:102DA00061642046696C616D656E74004C6F61648E
:102DB0002046696C616D656E74005072656865616E
:102DC0007420414253005072656865617420504C14
:102DD00041005072656865617420437573746F6D4E
:102DE000004261636B0000002000230026002900E0
:102DF0002C002F0032000001000003010601090130
:102E000005050505070508080808020202020A0A66
:102E10000808040404040101010101010101030384
:102E2000030303030303040707070C0C0C0C0C0C2F
:102E30000C0C0202020206060606060606060B0B2C
:102E40000B0B0B0B0B0B010210202008081020406D
:102E5000102040800201020108040201010204085E
:102E600010204080804020100804020180040201EC
:102E70008040201008040201080402010102040835
:102E800010204080010204081020408000000A0B3E
:102E900002090C0D0E0807030401000000000000E9
:102EA0000000000000000000000000000000000022
:102EB00000000000000000001211100000000000DF
:102EC0000000000000000000000000000000000002
:102ED000000050726F6265205A204F6666736574F9
:102EE0000046616E205370656564004E6F7A7A6C9F
:102EF00065004D61696E00466C6F77002568753A14
:102F000025303268750025303268753A25303268D0
:102F1000750053440020202020202020005072699A
:102F20006E7420506175736564005061757365201F
:102F30005072696E74004D656469612052656D6FF1
:102F4000766564004D6564696120496E73657274CD
:102F5000656400536576656E206F662031312052BE
:102F6000656164792E005072696E74696E672E2EE9
:102F70002E005072696E742041626F727465640035
:102F80004D323500486F74656E6420746F6F206336
:102F90006F6C640A004D3630303A20546F6F204316
:102FA0006F6C6400507265737320627574746F6E19
:102FB00020746F2068656174206E6F7A7A6C650A80
:102FC0000020496E76616C6964206578747275645E
:102FD000657220004361703A0050726F6265204F45
:102FE0006666736574205A0050726F6265204F6682
:102FF000667365745A3A2000416D6178204500413E
:103000006D6178205A00416D6178205900416D61F1
:1030100078205800412D54726176656C00412D5224
:1030200065747261637400416363656C004A756E18
:103030006374696F6E204465760050726F6265201C
:1030400059204F66667365740050726F6265205830
:10305000204F6666736574003F0043616E63656C64
:10306000004D6F74696F6E005374617274205072FA
:10307000696E740043616E6E6F7420656E74657264
:10308000207375626469723A2000052E2E00416338
:1030900063656C65726174696F6E3A205000204DF3
:1030A000393220580020204D61783A200020204DF0
:1030B000696E3A2000536F667420656E6473746F96
:1030C00070733A20005761726E696E67203A204330
:1030D0006C65616E20436972636C65207265717501
:1030E000697265732058590A002054002052004824
:1030F000617264636F6465642044656661756C74B5
:103100002053657474696E6773204C6F61646564E5
:103110000A0020204D363033200020550046696CCF
:10312000616D656E74206C6F61642F756E6C6F617C
:1031300064206C656E677468733A0A0020204D380D
:1031400035312058005A2D50726F6265204F6666E7
:103150007365740020204D333031205000504944B5
:103160002073657474696E67733A0A002046002004
:10317000480020204D3134352053004D6174657274
:1031800069616C2068656174757020706172616D31
:1031900065746572733A0A0020204732392057203F
:1031A000490020204D3432302053004175746F2087
:1031B000426564204C6576656C696E673A0A00204A
:1031C000204D323036205800486F6D65206F66669E
:1031D0007365743A0A00204A0020204D32303520B1
:1031E0004200204A3C6A756E635F6465763E00412A
:1031F0006476616E6365643A20423C6D696E5F730C
:1032000065676D656E745F74696D655F75733E208B
:10321000533C6D696E5F66656564726174653E20DE
:10322000543C6D696E5F74726176656C5F6665654E
:1032300064726174653E0020204D323034205000AD
:10324000416363656C65726174696F6E2028756E89
:103250006974732F7332293A20503C7072696E740E
:103260005F616363656C3E20523C7265747261639A
:10327000745F616363656C3E20543C747261766573
:103280006C5F616363656C3E0A0020204D32303113
:103290002058004D6178696D756D20416363656CE0
:1032A00065726174696F6E2028756E6974732F730F
:1032B00032293A0A0020204D3230332058004D6127
:1032C00078696D756D2066656564726174657320DB
:1032D00028756E6974732F73293A0A0053746570E8
:1032E000732070657220756E69743A0A0020204D53
:1032F0003230302044300A0020204D32303020441B
:10330000002044697361626C65640A0046696C61FF
:103310006D656E742073657474696E67733A00200E
:10332000204D3134392043203B20556E6974732081
:10333000696E2043656C736975730A0020286D6D92
:1033400029002020473231202020203B20556E6963
:10335000747320696E206D6D006F70656E0054523D
:1033600049474745524544007A5F6D696E00795F71
:103370006D696E00785F6D696E005265706F727472
:10338000696E6720656E6473746F70207374617406
:1033900075730A0000009643000096430000404009
:1033A0000000C8410000A0420000A04200007A4591
:1033B00000001B43E8030000E803000032000000A7
:1033C000E80300006F70656E206661696C65642CAF
:1033D0002046696C653A2000544845524D414C20C6
:1033E00052554E4157415900546865726D616C20C9
:1033F00052756E6177617900205A3A200020593A5F
:10340000200042656420583A200050726F62696E55
:1034100067204661696C65640A0050726F62696E6C
:1034200067204661696C656400486F6D652025738F
:103430002573257320466972737400496E73657233
:10344000742066696C616D656E7420616E642070B5
:103450007265737320627574746F6E0A00220A00BD
:10346000556E6B6E6F776E20636F6D6D616E643A33
:1034700020220000002100240027002A002D003017
:1034800000330001010000040107010A01000022CD
:1034900000250028002B002E00310034000201001E
:1034A00000050108010B0100DA01A00111241FBE73
:1034B000CFEFD1E2DEBFCDBF00E00CBF13E0A0E054
:1034C000B2E0E0EEF8E402E00BBF02C007900D921C
:1034D000A839B107D9F724E1A8E9B3E001C01D92EA
:1034E000AC3CB207E1F71AE1C5E5DAE100E006C05D
:1034F00021970109802FFE010F94BF20C435D10709
:1035000080E00807A9F70F94AB0A0D945E240C9491
:1035100000002F923F924F925F926F927F928F9214
:103520009F92AF92BF92CF92DF92EF92FF920F9352
:103530001F93CF93DF93CDB7DEB7C055D1090FB638
:10354000F894DEBF0FBECDBF2091A91421962FAFF6
:10355000219781E08093A9148091DD048D3409F4D2
:10356000DEC3843511F40C94B62A873411F00C9420
:10357000D12A2090DB043090DC043BE12316310497
:1035800009F421C1ECF454E02516310444F482E03E
:10359000281631040CF046C037FE38C0BCC39CE08E
:1035A0002916310409F40BC1A5E12A16310411F4DE
:1035B0000C94D32AB4E02B16310409F0ACC3C0C07C
:1035C000EAE22E16310409F47FC26CF42DE12216D2
:1035D000310409F422C10CF410C14EE12416310467
:1035E00009F42FC198C35BE52516310409F4E9C13C
:1035F0008CE52816310409F4E9C19AE5291631044D
:1036000009F089C31092DA040C94D32A80910B023A
:10361000882311F40C94D32A0E94F6E40E948BB202
:103620000C94D32A80910B02882311F40C94D32A92
:103630000E94F6E482E50E9417BB882309F44EC07D
:103640000E9497BA6B017C0120E030E0A9010F9441
:10365000D219882311F40C94B32B2091AD1430911E
:10366000AE144091AF145091B01428A339A34AA3CB
:103670005BA38091B1149091B214A091B314B09156
:10368000B4148CA39DA3AEA3BFA38090CA04909052
:10369000CB04A090CC04B090CD044090CE045090C8
:1036A000CF046090D0047090D104A501940168A16A
:1036B00079A18AA19BA10F94D21981110C94F42AAB
:1036C000A30192016CA17DA18EA19FA10F94D2199B
:1036D000882311F40C94B32B0C94F42A89E40E94EF
:1036E00017BB882329F00E9497BA6B017C0103C0A5
:1036F000C12CD12C76018AE40E9417BB882311F4D7
:103700000C94BA2B0E9497BA68A779A78AA79BA79F
:1037100020E030E0A901C701B6010F94D219811150
:103720000C94C72B20E030E0A90168A579A58AA5F3
:103730009BA50F94D21981110C94C72B0C94B32B19
:1037400080E50E9417BB882329F00E942DFA6B01A7
:103750007C0103C0C12CD12C760183E50E9417BBEC
:10376000882361F00E9497BA20E030E04AE754E4F1
:103770000F94381A0F943B226B017C010E94B3A670
:1037800080917504811105C060E08EE29AE00E948C
:10379000FDDF0F94300AC60ED71EE81EF91E0F94E7
:1037A000300ADC01CB018C199D09AE09BF09B7FDB8
:1037B00002C00C94D32A80E00E94A234F0CF0E9471
:1037C00086F50C94D32A0F94BF0581110C94D32A4B
:1037D0008CE0E7E6F2E0DE01119601900D928A9509
:1037E000E1F760E070E080E50E9473F5BE016F5F75
:1037F0007F4F0E94D0DE0C94D32A8091A61487704C
:10380000873011F00C94562F60E08FE40E943FBB8C
:1038100081110C94D32A0C94562F0F94BF0581115B
:103820000C94D32A80917404882311F40C949B3057
:1038300060E08FE40E943FBB81110C94D32A0C946A
:103840009B3020919A1430919B1440919C1450917C
:103850009D146091AD147091AE148091AF1490914D
:10386000B0140F94C820AB01BC0188E50E94A7608A
:1038700069837A838B839C8320919E1430919F145B
:103880004091A0145091A1146091B1147091B214A0
:103890008091B3149091B4140F94C820AB01BC0173
:1038A00089E50E94A7606D837E838F839887BE0120
:1038B0006B5F7F4FCE0101960E942AB9882311F4D5
:1038C0000C94D32A80E00E94EABD0E947FB561E09B
:1038D00085E40E943FBB21E0482FBE016B5F7F4F14
:1038E000CE0101960F9432066B017C019B01AC0165
:1038F0000F94BA2381115FC089809A80AB80BC800D
:1039000020E030E0A901C501B4010F94D21987FF6E
:1039100005C027E137EB41E558EB04C027E137EB61
:1039200041E558E3C501B4010F94C820AB01BC01C7
:1039300082E094E30E9411C28D809E80AF80B884A3
:1039400020E030E0A901C501B4010F94D21987FF2E
:1039500005C027E137EB41E558EB04C027E137EB21
:1039600041E558E3C501B4010F94C820AB01BC0187
:103970008DEF93E30E9411C220E030E0A901C7015E
:10398000B6010F94D21987FF05C067E177EB81E597
:1039900098EB04C067E177EB81E598E3A701960116
:1039A0000F94C820AB01BC0188EF93E30E9411C2C1
:1039B0008AE00E9476330E9466B50E9475B80C9426
:1039C000D32A8FE08093DA040C94D32A73E7272E4E
:1039D00072E0372EE6E6EE2EE4E0FE2EADEAB4E12C
:1039E000B9A3A8A3FEE8CF2EF4E1DF2E00E010E09B
:1039F000F10181911F010E9417BB882309F44AC07D
:103A00000E9497BA2B013C01133049F0D6012D9149
:103A10003D914D915C910F94C7202B013C01E8A191
:103A2000F9A12081318142815381C301B2010F94F8
:103A3000C7204B015C012DEB37E346E855EB0F94B3
:103A4000282387FD0AC02DEB37E346E855E3C5017F
:103A5000B4010F94D2191816ECF4133051F44092BB
:103A6000B9145092BA146092BB147092BC1401E065
:103A700011C0A5019401D7016D917D918D919C910B
:103A80000F94C820F7016083718382839383812F11
:103A90000E94CAB11F5FF4E0EF0EF11C28A139A10A
:103AA0002C5F3F4F39A328A334E0C30ED11C143040
:103AB00009F09ECF002321F089EB94E10E94C4A677
:103AC0000E9475B80C94D32A80910B02882311F4BC
:103AD0000C94D32A89E40E9417BBE82E882321F096
:103AE0000E9493BA082F01C000E08AE40E9417BB2D
:103AF000F82E882321F00E9493BA182F01C010E0FD
:103B0000EE2011F0033020F4FF2041F0133030F0AC
:103B10008FEC99E00E9459C10C94D32A80E1EDEA20
:103B2000F4E1AAECB4E001900D928A95E1F7EE2061
:103B300019F1602F000F770B880B990B0F94D9198F
:103B400020915604309157044091580450915904E3
:103B50000F94381A20915E0430915F044091600404
:103B6000509161040F94C8206093CA047093CB04F1
:103B70008093CC049093CD04FF2019F1612F110F95
:103B8000770B880B990B0F94D91920915A04309117
:103B90005B0440915C0450915D040F94381A2091AD
:103BA00062043091630440916404509165040F9461
:103BB000C8206093CE047093CF048093D004909378
:103BC000D10460E080E50E943FBB8823C1F1EE2074
:103BD000D1F020919A1430919B1440919C145091F3
:103BE0009D146091CA047091CB048091CC04909193
:103BF000CD040F94C7206093CA047093CB048093C4
:103C0000CC049093CD04FF20D1F020919E143091EC
:103C10009F144091A0145091A1146091CE04709112
:103C2000CF048091D0049091D1040F94C720609369
:103C3000CE047093CF048093D0049093D10440E0DD
:103C400050E0BA0186E40E94A7606B017C0120E08D
:103C500030E0A9010F94282318165CF420E030E02E
:103C600040E752E4C701B6010F94C2216B017C0109
:103C700003C0C12CD12C760180905F02909060022D
:103C8000A0906102B090620220E030E0A901C7017B
:103C9000B6010F94D219882341F0C0925F02D092EE
:103CA0006002E0926102F0926202009109021091BA
:103CB0000A0284E690E090930A0280930902C09081
:103CC0001D02D0901E02E0901F02F090200280E0C2
:103CD00090E0A0E8BFE380931D0290931E02A093A2
:103CE0001F02B09320020E948BB280925F029092DA
:103CF0006002A0926102B092620210930A020093E5
:103D00000902C0921D02D0921E02E0921F02F092A0
:103D100020020C94D32A0F941D040C94D32A0091F2
:103D2000DB041091DC040537110509F493C70CF08E
:103D30004FC10B34110509F4A9C40CF062C009315C
:103D4000110509F430C334F50431110509F4DCC25E
:103D50008CF40131110509F4C3C234F402301105A9
:103D600008F442C20C94B32A0231110509F493C637
:103D70000C94B32A0631110509F4EBC20CF4E5C228
:103D80000731110509F4EEC20831110509F4FFC22B
:103D90000C94B32A0E31110509F490C3B4F40B311D
:103DA000110509F41BC30CF40BC30C31110509F404
:103DB0007DC30D31110511F00C94B32A80913C1490
:103DC0008E7F80933C140C94D32A0132110509F4A0
:103DD0000AC454F40F31110509F415C40032110559
:103DE00009F4CDC30C94B32A0A32110509F42AC48C
:103DF0000033110511F00C94B32A0E94704F0C94FB
:103E0000D32A0936110509F440C50CF042C0023529
:103E1000110509F432C624F50D34110509F43CC42A
:103E20000CF437C40E34110509F439C401351105F9
:103E300011F00C94B32A0E947F6E0E9472A40E941B
:103E40002FA80E94BE3268EE73E080E090E00E94EE
:103E500035C160E081E898E00E94FDDF0C94D32A30
:103E60000535110509F444C654F40335110509F468
:103E70000BC60435110509F40EC60C94B32A0C3593
:103E8000110509F458C60836110509F498C40C94B4
:103E9000B32A0E36110509F42EC584F40B3611052C
:103EA00009F420C50CF401C50C36110509F479C5D7
:103EB0000D36110509F49EC40C94B32A013711057F
:103EC00009F477C594F40F36110509F425C50037B8
:103ED000110511F00C94B32A41E060E070E089E92B
:103EE00098E00E9412320C94D32A0237110509F48B
:103EF000ACC60337110511F00C94B32A8AEB97E096
:103F00000E9459C160E08AEA97E00E94C2E460E042
:103F100085E997E00E94C2E461E089EF9FE10E9499
:103F2000C2E461E08AE897E00E94C2E461E08AE7C7
:103F300097E00E94C2E460E081E797E00E94C2E45B
:103F400061E087E697E00E94C2E461E08DE597E0DA
:103F50000E94C2E461E085E597E00E94C2E461E06E
:103F600087E497E00E94C2E460E089E397E00E9462
:103F7000C2E460E08AE297E00E94C2E460E08CE183
:103F800097E00E94C2E460E086E097E00E94C2E40D
:103F900060E085EF96E00E94C2E460E086EE96E085
:103FA0000E94C2E460E081ED96E00E94C2E461E01C
:103FB0008EEB96E00E94C2E460E081EB96E00E9406
:103FC000C2E460E08DE996E00E94C2E40C94D32A3A
:103FD0000E3241E0140711F40C94EB280CF070C081
:103FE0000B3C110509F456C7ACF50C38110509F462
:103FF00002C5BCF40737110509F476C60CF43AC6BD
:104000000837110509F473C60937110511F00C942E
:10401000B32A10927204109273040E94E0FA0C9476
:10402000D32A0E3B110509F4FFC454F401391105DC
:1040300009F465C60B39110509F4F9C40C94B32AC7
:10404000083C110509F4B6C6093C110509F4FFC680
:104050000C94B32A0C3D110509F476C79CF40D3C71
:10406000110509F43CC70CF437C70E3C110509F4DF
:1040700049C7033D110511F00C94B32A0E948DF835
:104080000C94D32A023281E0180711F40C945328BF
:1040900054F40D3D110509F464C7023E110509F4FD
:1040A000B6C70C94B32A0C32A1E01A0711F40C9491
:1040B00056280D32114011F40C946B280C94B32A3D
:1040C000063FE1E01E0711F40C94012A0CF04BC0EE
:1040D0000A3921E0120709F469C414F5003941E0F6
:1040E000140711F40C942F294CF40F32114011F0E5
:1040F0000C94B32A0E94BE600C94D32A013991E03B
:10410000190711F40C9432290239114011F00C9462
:10411000B32A80E00E9472A30E9475B80C94D32A3F
:104120000C3AB1E01B0711F40C94A0296CF4043A8A
:10413000F1E01F0711F40C943829053A114011F4ED
:104140000C943B290C94B32A043F31E0130711F47B
:104150000C94FE29053F114011F00C94B32A0E94E3
:104160002AFC0C94D32A0B3552E0150711F40C9459
:10417000262AC4F4083F91E0190711F40C940D2A83
:1041800014F40C94042A0C30B2E01B0711F40C94C4
:104190001E2A0835124011F00C94B32A0E9426E81A
:1041A0000C94D32A0335F3E01F0711F40C94A22AD0
:1041B0007CF40D3B32E0130711F40C949F2A0E3B64
:1041C000124011F00C94B32A0E9405E60C94D32AF5
:1041D000003A53E0150709F409C2073E134011F4F1
:1041E0000C94A52A0C94B32AA0905404B0905504C2
:1041F00080E50E9417BB882359F00E942DFA6B01BD
:104200007C0111E0672B682B692B31F410E004C0AE
:1042100010E0C12CD12C760183E50E9417BB8823C6
:1042200011F40C949E300E9497BA20E030E04AE7E7
:1042300054E40F94381A0F943B226B017C01111146
:104240000BC0672B682B692B39F4A114B10421F042
:10425000D5018C91811102C010E001C011E00E94D3
:10426000B3A6112329F061E0C5010E9477E005C0E3
:1042700060E08CEB99E00E94FDDF1091A91483E0CF
:104280008093A91481E08093A814C114D104E1049F
:10429000F104B1F00F94300AC60ED71EE81EF91EC5
:1042A0000F94300ADC01CB018C199D09AE09BF09BE
:1042B000B7FF0EC08091A81481110C94A33008C0E0
:1042C0008091A814882321F080E00E94A234F8CFC6
:1042D0000E949CE01092A8141093A9140C94D32A65
:1042E0008091500484FF02C00C94A8308091520445
:1042F00087FF02C00C94A83080915304837011F0A2
:104300000C94A8300C94C43082EA99E00E9459C100
:1043100086EA92E10E94EF9B8BE1E6EAF2E1DE01A0
:10432000119601900D928A95E1F760E070E0CE0160
:1043300001960E94B794CE0101960E94F49B83E9F6
:1043400099E00E9459C10C94D32A0E9461930C9465
:10435000D32A0E94F09280913C14877F80933C1472
:104360000C94D32AE0915404F09155048081882361
:1043700029F0803209F410823196F8CF60E0809104
:104380005404909155040E9462960C94D32A0E9482
:10439000C132882321F00E9401930E9416A40E943A
:1043A0009CE00C94D32A80913C1482FF03C08B7F45
:1043B00080933C140E945B4F0E949CE00C94D32A93
:1043C00080913C1483FD02C00C94D32A83E50E94A3
:1043D00017BB81110C94D2300C94D32A83E40E9431
:1043E000CEBA8823C1F181E699E00E9459C180913B
:1043F0005012882339F1BE016F5F7F4F8DE492E147
:104400000E94B69A8E010F5F1F4FF80181918F01B4
:10441000882319F00E947633F8CFCE0101960E94CE
:10442000E69580910E04882389F080E20E9476331D
:104430000EE014E0D8018D918D01882339F00E949F
:104440007633F8CF87E599E00E9459C18AE00E944F
:1044500076330C94D32A80913C1482FF21C080E7EC
:1044600099E00E9459C1609138147091391480917B
:104470003A1490913B144AE00E947D338FE20E94EF
:104480007633609134147091351480913614909184
:1044900037144AE00E947D330E947B340C94D32A67
:1044A00082E899E00E9459C10C94D32A8091540467
:1044B000909155040E9414960C94D32A80913C1438
:1044C00083FD02C00C94D32A0F94060480913C14FF
:1044D00083FD02C00C94D32A40915404509155049A
:1044E000BE01645E7F4F80E00F94DA018C0100977B
:1044F00011F40C94D32A6C8D7D8D19821C8222E0DC
:10450000AC01CE0101960E94A3A0811102C0F12C42
:1045100014C0CE0101960F9448018823C1F361E0D5
:10452000CE0101960E945E9A009789F325EEFC0168
:1045300020831C820E948197F82ECE0101960E9452
:10454000F49BB801FF2089F089E499E00E942FC212
:104550008AE00E9476331092381410923914109227
:104560003A1410923B140C94D32A81E399E00E94F0
:104570002FC28BEB98E10E9459C10C94D32A8091F1
:104580003C1482FD0E94B3A680913C1483FD02C0BE
:104590000C94D32A60E080E50E943FBB182F682F5F
:1045A00080915404909155040E94629683E50E9484
:1045B00017BB882381F00E945FBAAB01BC01409316
:1045C00038145093391460933A1470933B148DE46B
:1045D00092E10E9474990E94019311110C94D32AC4
:1045E0000E9416A4E0C70E945B67DDC720915404B7
:1045F0003091550490913C14926090933C14C90101
:104600000E941496D0C70E940C4F6C8F7D8F8E8FA6
:104610009F8FBE016F5F7F4FCE014C960E947C66DC
:1046200060E0CE0101960E9477E00E9446C2BE0182
:104630006F5F7F4F84E299E00E942FC28AE00E9460
:104640007633B1C783E50E9417BB882309F4ABC753
:104650000E946FBAF82E6DE070E080E50E9424BBE6
:104660008C0197FDA0C7893019F4F09225129BC7E1
:1046700060E089E40E943FBB81110C94E330802FFD
:104680000F94860A8111E0C40C94E3300E9416A4B2
:104690008AC70E945B4F87C70E9472A484C760E0EC
:1046A00070E083E50E9424BB8E34910529F40E94BA
:1046B000E3A40E949CE077C78DE099E00E9459C175
:1046C0006091FE037091FF0384E099E00E9404C2B0
:1046D000609100047091010487EF98E00E9404C289
:1046E0006091FE037091FF0380910004909101049A
:1046F000681B790B8091FD03815021E030E082300E
:1047000010F020E030E0621B730B8CEE98E00E940A
:1047100004C28AE00E9476338DE099E00E9459C17C
:104720008091020490910304A0910404B0910504C7
:104730008C8F9D8FAE8FBF8FBE016F5F7F4FCE017D
:104740004C960E947C66BE016F5F7F4F8FED98E0B4
:104750000E942FC28091060490910704A091080442
:10476000B09109048C8F9D8FAE8FBF8FBE016F5F9C
:104770007F4FCE014C960E947C66BE016F5F7F4FDB
:104780008FEC98E00E942FC220E030E04AE754E42A
:1047900060910A0470910B0480910C0490910D04B7
:1047A0000F94C221AB01BC0187EB98E00E9411C2BB
:1047B0008DE60E9476338AE00E947633F4C68091BB
:1047C000260E83FDF0C60E94DCE587FDECC683E57E
:1047D0000E9417BB882359F00E9497BA0F94342285
:1047E000CB010E9494A161E080E00E94676E0F946B
:1047F0003911D9C68091260E83FDD5C60E94DCE50D
:10480000F82E87FDD0C683E50E9417BB082F8111C3
:1048100006C082E50E9417BB182F882361F10E9411
:1048200097BA0F943422CB010E9494A161E081E0F9
:104830000E94676E60913E1270913F12072E000C2D
:10484000880B990B0F94D9194B015C0140903A12D7
:1048500050903B1260903C1270903D12A301920167
:104860000F942823181614F40C940B31002311F420
:104870000C94F13011E00F943911112309F493C60F
:10488000602F8F2D0E94AE6C8EC60E94DCE5182F23
:1048900087FD8BC68CE995E00E9459C1812F0E944B
:1048A000376C8AE00E94763380C660E080E50E9423
:1048B00033BB811178C681E40E94CEBA882321F0EF
:1048C0006091251270E002C06FEF70E083E50E94F6
:1048D00073F58F3F910519F010F08FEF90E0809302
:1048E000251261C660E080E50E9433BB81115BC682
:1048F0001092251258C68EE40E9417BB882309F433
:1049000052C60E945FBA6093F9037093FA038093D2
:10491000FB039093FC0347C683E50E94CEBA88232D
:1049200031F060E083E50E9433BB8093260E0E9445
:1049300046C28BEA98E00E9459C18091260E8823D6
:1049400069F16CE6E62E65E0F62E00E010E020E06E
:104950008091260E90E0A0E0B0E0002E04C0B69555
:10496000A795979587950A94D2F780FF0EC0DD240E
:10497000D394D20E222319F08CE20E947633F701F1
:10498000859194910E9459C12D2D0F5F1F4F32E0E8
:10499000E30EF11C05301105D9F658CD87EA98E0F1
:1049A00053CD1092A81410920702FDC50E948132C7
:1049B000FAC583E50E9417BB882371F00E946FBA85
:1049C000282F30E02D3331051CF480930602EBC50F
:1049D0008CE380930602E7C50E9446C2409106021E
:1049E00050E060E070E082E998E00E94F3C18AE064
:1049F0000E947633D8C58091260E83FDD4C583E509
:104A00000E9417BB882309F4CEC50E9497BA0F9461
:104A100034226C3871050CF48B011093F70300936A
:104A2000F6030E94CE6BBFC50E94A764BCC583E598
:104A30000E9417BB882309F4B6C50E946FBA182FCD
:104A400090E0CD970CF01CE31093ED030F94300A27
:104A50006B017C01212F30E0A8EEB3E00F947C20A5
:104A6000C60ED71EE81EF91EC092E903D092EA03D3
:104A7000E092EB03F092EC0396C58091DA048F7D0F
:104A800080618093DA048FC58091DA048F7E806222
:104A90008093DA0488C583E50E9417BB882399F0C8
:104AA0000E9497BA20E030E04AE754E40F94381AA5
:104AB0000F943B22609302027093030280930402DE
:104AC0009093050270C58091500484FF02C00C943D
:104AD0000E318091520487FF02C00C940E318091F8
:104AE0005304837011F00C940E310E942FA85BC503
:104AF00083E50E94CEBA882309F455C50F94300A85
:104B00006093C6047093C7048093C8049093C9044B
:104B10000E9497BA20E030E04AE754E40F94381A34
:104B20000F943B226093E5037093E6038093E703C1
:104B30009093E80338C50E94DCE587FD34C5909169
:104B4000500494FD04C09091520497FF0AC043E7BB
:104B5000C42E42E0D42E57E2E52E5EE0F52E10E0A2
:104B600009C090915304937091F7682F81E00E94DF
:104B70007CF919C5D6018D916D010E9417BB882360
:104B800009F459C0133009F04FC00E9497BA4B0185
:104B90005C0120E030E040EA51E40F94D21987FF35
:104BA0003AC0A50194016091470E7091480E809122
:104BB000490E90914A0E0F94C2212B013C019B019A
:104BC000AC016091570E7091580E8091590E9091E2
:104BD0005A0E0F94381A6093570E7093580E8093A4
:104BE000590E90935A0E6091570870915808809111
:104BF000590890915A080F94D719A30192010F9464
:104C0000381A0F943B22609357087093580880938A
:104C1000590890935A088092470E9092480EA0929D
:104C2000490EB0924A0E07C00E9497BAF701648BF2
:104C3000758B868B978B1F5FF4E0EF0EF11C1430A1
:104C400009F098CF0E948FA6AEC40E94B3A60E941E
:104C500075B8A9C48091540490915504009709F443
:104C60009ECBDC012C91222309F499CB60E00E94B9
:104C700077E099C4009154041091550494E0F12C0C
:104C800040E0915021F1F8018081282F2B7F2134C1
:104C900021F421812133D9F407C08035C1F4818109
:104CA00080538A3048F013C0813421F0853421F4D8
:104CB00041E002C0FF24F39498012E5F3F4F890129
:104CC0002F5F3F4FF80180818032C9F3DACF411165
:104CD0000E9446C2FF2021F089E996E00E9459C156
:104CE000C8010E9481345FC40E94C2FA5CC481E0A2
:104CF00080937204809373040E94E0FA54C460E0CD
:104D000070E083E50E9424BB8C011127023011055D
:104D10003CF00E9442C287E796E00E9459C143C41A
:104D200088E40E9417BB8823A9F00E9493BA8A3AAC
:104D300091053CF08530F1E09F072CF084E091E094
:104D400002C08AEA90E0F801EE0FFF1FEF51FC4F1E
:104D50009183808386E40E9417BB882381F00E94A0
:104D600093BA97FD07C08F3F910529F024F08FEF8C
:104D700090E001C080E0F801E152FC4F808382E4C2
:104D80000E9417BB882309F40EC40E9493BA853091
:104D9000910534F08D3891052CF08CE890E002C03C
:104DA00085E090E0000F111FF801E552FC4F918360
:104DB0008083F9C30E94DCE5182F87FDF4C384E4E7
:104DC0000E94CEBA882309F43FC00E9497BA6B01B3
:104DD0007C0101E020E030E0A9010F94D21981119B
:104DE00001C000E00093DA0320E030E0A901C70130
:104DF000B6010F94D219882339F10E9497BA24E0A2
:104E00001202F0011124EA52FC4F60837183828305
:104E1000938320E030E0A9016091D6037091D7031D
:104E20008091D8039091D9030F94D21981110CC0AD
:104E300080E090E0A0EEBFE38093D6039093D70389
:104E4000A093D803B093D9030E94A4A1ACC30E943D
:104E5000DCE587FDA8C3B3E7EB2EB2E0FB2E07E24B
:104E60001EE0D7018D917D010E94CEBA882359F0B2
:104E70000E9497BA0F943B22F8016083718382836A
:104E800093830E9448A60C5F1F4FFEE007331F0765
:104E900041F789C30E94DCE587FD85C3F3E7EF2E68
:104EA000F2E0FF2E07E21EE0A7E3CA2EAEE0DA2E04
:104EB000D7018D917D010E94CEBA882339F00E94DE
:104EC00097BAF80164A375A386A397A30C5F1F4F3D
:104ED000C016D10669F767C30E94B7F964C3809111
:104EE000500481FF02C00C943A318091510481FF3B
:104EF00002C00C943A31809152048C7011F00C94E1
:104F00003A3151C373E7C72E72E0D72EEAECEE2E8A
:104F1000E3E0FE2E10E0D6018D916D010E94CEBA25
:104F2000882351F00E9497BAF701608371838283CE
:104F30009383812F0E94CAB11F5FF4E0EF0EF11C32
:104F4000133049F70C94601D83E50E9417BB88233A
:104F500009F429C30E9493BA90930A02809309022C
:104F600022C30E94DCE5F82E87FD1DC383E50E9465
:104F700017BB0F2D0F2C000C110B882369F10E9419
:104F800093BAF801EE0FFF1FE050FE4F918380832C
:104F9000000F111F000F111F9801235E3D4F790173
:104FA000BC01990F880B990B0F94D9192AE037EDA2
:104FB00043E25CE30F94381AF801EA53FC4F208176
:104FC0003181428153810F94381AD7016D937D93BB
:104FD0008D939C931397E7C20E9446C285E40E947A
:104FE000763380E38F0D0E947633000F111FF80196
:104FF000E050FE4F6081718180E596E00E9422C200
:1050000085E20E9476338AE00E947633CCC280E546
:105010000E94CEBA882309F4C6C260E070E080E541
:105020000E9424BBF82E6FEF7FEF83E50E9424BB24
:105030008C010196039708F0B6C2F7FCB4C28F2D1D
:105040000F94860A882339F00E9442C285E199E0D4
:105050000E9459C1A8C20E94B3A660E08F2D0F9490
:10506000F1080F3FBFEF1B0731F00130110571F060
:1050700000E010E00DC08F2D0F94951331E020E07B
:10508000892B09F030E0032F122F02C001E010E05D
:105090008F2D0F9495138017910709F484C280E037
:1050A0000E94A234F5CF0E940FE47DC264E071E05B
:1050B00083E50E9473F58C0168EE73E080E50E9441
:1050C00073F58938E3E19E0710F088E893E1B801B1
:1050D0000E94D0DF68C260E085E40E9433BB81118A
:1050E00073C080E50E94CEBA882351F00E9497BA1F
:1050F0006093411270934212809343129093441232
:1051000089E40E94CEBA882381F00E9497BA2CEAE3
:1051100035EC47E25EE30F94381A609345127093C2
:105120004612809347129093481284E40E94CEBAAC
:10513000882381F00E9497BA2CEA35EC47E25EE3BF
:105140000F94C2216093491270934A1280934B12BC
:1051500090934C120E9446C24091411250914212CB
:1051600060914312709144128CE496E00E9411C247
:105170002CEA35EC47E25EE36091451270914612ED
:1051800080914712909148120F94C221AB01BC014B
:1051900088E496E00E9411C22CEA35EC47E25EE317
:1051A0006091491270914A1280914B1290914C1269
:1051B0000F94381AAB01BC0184E496E00E9411C23E
:1051C0008AE00E947633EFC10E9442C282E396E0F9
:1051D0000E9459C1E8C183E50E94CEBA182F8823E6
:1051E00071F00E9497BA0F94342270932202609358
:1051F000210221E0672B09F020E02093730880E56D
:105200000E94CEBA882359F02091210230912202C7
:10521000232B11F00E9483BA80937308C4C111112B
:10522000C2C10E9446C28FE196E00E9459C180919E
:105230007308882319F089E89EE102C086E096E0B1
:105240000E9459C160912102709122028EE096E085
:105250000E9422C28AE096E00E9459C1A4C10E9425
:10526000B3A6A1C181E00E9472A30E9475B89BC140
:105270000E944AC298C16FEF7FEF89E40E9424BB6D
:10528000182F6FEF7FEF8AE40E9424BB082F8AE576
:105290000E94CEBAF82E811105C081E50E94CEBAD7
:1052A000D82E01C0D12C17FD06C007FD04C0F11097
:1052B00009C0D11007C00E9442C286EE95E00E944C
:1052C00059C171C1133010F4033038F00E9442C24A
:1052D0008FEC99E00E9459C166C1E12E110FFF08C1
:1052E000002E000C110B0E9497BAD701AA0FBB1F0A
:1052F000DD2081F0FD01EE0DFF1DE00FF11FEE0F2F
:10530000FF1FEE0FFF1FEE55FC4F208131814281C0
:10531000538103C020E030E0A901EA0EFB1E0E0D10
:105320001F1D000F111F000F111F0E551C4F0F9452
:10533000C820D8016D937D938D939C93139733C1AF
:105340000F94BF0581112FC10DE515E0EDEAF4E1E1
:10535000F9A3E8A39E012F5F3F4F190149E6C42E30
:1053600045E0D42E7901F80165917591859194916C
:10537000A8A1B9A18D909D90AD90BD90B9A3A8A30F
:10538000A50194010F94C7202B013C01F701608314
:1053900071838283938320E030E040EA51EC0F94E4
:1053A000282387FD0AC020E030E040EA51E4C30131
:1053B000B2010F94D21918162CF4F6018491181624
:1053C0000CF4B1C7D7018D909D90AD90BD907D013B
:1053D00020E030E040EA51ECC501B4010F942823ED
:1053E00087FDACC720E030E040EA51E4C501B401DC
:1053F0000F94D21918160CF0B5C7A0C70E947944B3
:10540000D2C00E94EFFACFC061E083E50E943FBBAB
:1054100091E089270E9438FCC6C081E08093A103F7
:105420000E9412491092A103882309F4BCC00E9473
:1054300046C28FE995E00E9459C1B5C080913C14E5
:1054400082FFB1C0806480933C14ADC00E94DCE553
:10545000082F87FDA8C085E50E94CEBA8823B1F148
:10546000E02E002E000CFF080E9497BA4B015C0151
:1054700020E030E0A9010F94282387FF04C0B7FA89
:10548000B094B7F8B094C70123E0880F991F2A950C
:10549000E1F79C0127563C4F7901D9018D929D92ED
:1054A000AD92BC92139720E030E048E453E4C5018C
:1054B000B4010F94282318164CF480E090E0A8E47F
:1054C000B3E4F70180839183A283B3838CE40E94C9
:1054D000CEBA882309F467C0002E000C110B0E947D
:1054E00097BA6B017C0120E030E0A9010F942823DA
:1054F00087FF04C0F7FAF094F7F8F09420E030E06A
:1055000048E453E4C701B6010F942823980193E0BF
:10551000220F331F9A95E1F7F901E756FC4F181651
:105520002CF0C482D582E682F7823DC080E090E014
:10553000A8E4B3E484839583A683B78334C00E9430
:10554000E7E631C00E9422692EC081E080930B0201
:105550001092980360E083E50E943FBB811123C055
:105560000E943B6820C00F941D041DC00091DB0405
:105570001091DC040023B9F00E9446C284E50E9429
:105580007633B8017727072E000C880B990B0E9401
:10559000EA3380E20E94763382E396E00E9459C1AA
:1055A00002C00F941D040E942B682196FFAD219725
:1055B000F093A914C05BDF4F0FB6F894DEBF0FBEA7
:1055C000CDBFDF91CF911F910F91FF90EF90DF90B2
:1055D000CF90BF90AF909F908F907F906F905F9093
:1055E0004F903F902F90089511E022E02216310451
:1055F00009F010E020E030E0A901C701B6010F94E6
:10560000D219881F8827881F1813A4C020E030E013
:1056100040E85FE328A739A74AA75BA728A139A1DB
:105620004AA15BA1C501B4010F94C72020E030E07E
:1056300040E05FE30F94381A68A379A38AA39BA381
:105640002CA13DA14EA15FA1C301B2010F94C720BF
:1056500020E030E040E05FE30F94381A6CA37DA3B4
:105660008EA39FA328A139A14AA15BA1CA01B901B8
:105670000F94381A4B015C012CA13DA14EA15FA1F2
:10568000CA01B9010F94381A9B01AC01C501B401DC
:105690000F94C8200F9476234B015C019B01AC0151
:1056A000C701B6010F94C7202B013C01A50194014D
:1056B000C701B6010F94C8209B01AC01C301B20120
:1056C0000F94381A6B017C0120E030E0A9010F949F
:1056D000282387FD07C0C701B6010F9476232B014D
:1056E0003C0103C0412C512C32016CA17DA18EA143
:1056F0009FA19058A50194010F94C22128A539A516
:105700004AA55BA50F94381AA30192010F94381A89
:1057100028A139A14AA15BA10F94C8206B017C018B
:10572000A501940168A179A18AA19BA10F94C2212E
:1057300028A539A54AA55BA50F94381AA3019201A3
:105740000F94381A2CA13DA14EA15FA10F94C8203F
:105750000C94841B80E090E0A0E8BFEB88A799A799
:10576000AAA7BBA75BCF0E9442C287E39AE00E9430
:1057700059C119CF20E030E0A901C701B6010F944B
:10578000D219882381F318A619A61AA61BA6A70169
:105790009601505828A339A34AA35BA388A599A5CD
:1057A000AAA5BBA5B0588CA39DA3AEA3BFA3CA0155
:1057B000B9010F94381A4B015C012CA13DA14EA1F7
:1057C0005FA1CA01B9010F94381A9B01AC01C50150
:1057D000B4010F94C8200F9476236CAF7DAF8EAFC9
:1057E0009FAF2091AD143091AE144091AF14509101
:1057F000B0142CA73DA74EA75FA7A70196016CA5E3
:105800007DA58EA59FA50F94C82025966CAF7DAF72
:105810008EAF9FAF25978091B1149091B214A09153
:10582000B314B091B41488AB99ABAAABBBAB28A5A9
:1058300039A54AA55BA5BC01CD010F94C8202996C6
:105840006CAF7DAF8EAF9FAF29972091CA04309186
:10585000CB044091CC045091CD042CAB3DAB4EAB6E
:105860005FAB25962CAD3DAD4EAD5FAD25976CA9D8
:105870007DA98EA99FA90F94C7206B017C018091FF
:10588000CE049091CF04A091D004B091D10488AF00
:1058900099AFAAAFBBAF29962CAD3DAD4EAD5FAD74
:1058A0002997BC01CD010F94C7204B015C01A701D2
:1058B000960168A179A18AA19BA10F94381A2B01A6
:1058C0003C01A50194016CA17DA18EA19FA10F9423
:1058D000381A9B01AC01C301B2010F94C8202B01FF
:1058E0003C01A501940168A179A18AA19BA10F9413
:1058F000381A4B015C01A70196016CA17DA18EA114
:105900009FA10F94381A9B01AC01C501B4010F94FB
:10591000C720A30192010F9447216B017C0120E075
:1059200030E0A9010F94D21987FF0AC02BED3FE0A8
:1059300049EC50E4C701B6010F94C8206B017C010B
:105940002BED3FE049EC50E4C701B6010F94C221B2
:1059500020E030E040EC51E40F94381A0F94A62177
:105960000F943B228B01672B11F401E010E032E031
:105970002316310451F42BED3FE049EC50E4C7010C
:10598000B6010F94C7206B017C0120E030E0A90133
:10599000C701B6010F94D219811122C02CA93DA9CB
:1059A0004EA95FA96CA57DA58EA59FA50F94D219C0
:1059B000811116C028AD39AD4AAD5BAD68A979A992
:1059C0008AA99BA90F94D21981110AC008E110E09D
:1059D0008BEDC82E8FE0D82E89ECE82E80E4F82ECF
:1059E0008091B5149091B614A091B714B091B814E9
:1059F00088AB99ABAAABBBAB9C01AD016091D20463
:105A00007091D3048091D4049091D5040F94C72051
:105A10002B013C01A70196016CAD7DAD8EAD9FAD14
:105A20000F94381A4B015C0120E030E0A901C3015A
:105A3000B2010F94D2198823C9F0A5019401C501C0
:105A4000B4010F94381A4B015C01A3019201C30108
:105A5000B2010F94381A9B01AC01C501B4010F9437
:105A6000C8200F9476234B015C010DC020E030E08C
:105A7000A901C501B4010F94282387FF04C0B7FA18
:105A8000B094B7F8B0942FE632E143E85AE3C50189
:105A9000B4010F94D21987FDFEC12091D604309134
:105AA000D7044091D8045091D90428AF39AF4AAFF8
:105AB0005BAF8091B9149091BA14A091BB14B091CE
:105AC000BC148CAB9DABAEABBFAB2AE037ED43E271
:105AD0005CE360915F02709160028091610290913D
